:100000002BC2000047C2000045C200000C94CE1273
:1000100041C200003FC200003DC200003BC20000E0
:1000200039C2000037C2000035C2000033C20000F0
:1000300031C200000C9467122DC200002BC20000D8
:100040003DC4000027C2000025C2000023C20000FA
:100050000C941A1F0C94E21E1DC200001BC200006B
:1000600019C2000017C2000015C2000013C2000030
:100070000C943D3F0FC200000DC200000BC20000F7
:1000800009C2000007C2000005C20000B22BB82D53
:10009000CC2BCC2CF32C132D1D2DC02C6DB11E425E
:1000A000C308626A4343330346E00A5ACA18696EBA
:1000B0003D41FC0C47E30A4D1B0B52830754281AA1
:1000C000562A0957F707585C0E4FF33B65E8086658
:1000D000E71D6CB20874DE0475181548FF4078C639
:1000E00003452322634934711723000000202F2089
:1000F00000203D2000072E050DD391FF08050000CC
:100100000C0021656A2D3B1322F862073F181D1C65
:10011000C700B0876BF8B611EA2A001F41000D2E08
:100120002D07D3913D04320000060021656A55E495
:100130003023B900070018146C070090876BF8563D
:1001400011E92A001F410000030F1E2627000000AE
:10015000030F1E2536386700030F256740605000E7
:10016000030F275188838100030F2750C8C3C200A3
:1001700027000000000000006700000000000000F1
:10018000500000000000000081000000000000009E
:10019000C2000000000000504C4C310D0A00504CD1
:1001A0004C300D0A005620312E36322043554E4F2A
:1001B000383638005620312E36322043554E4F34D3
:1001C000333300202F2000203D20004C4F56460D99
:1001D0000A000B08105B11F81547191D1A1C1BC7E4
:1001E0001C001DB221B623EA0007022E030D04E90C
:1001F00005CA070C0B060D210E650F6A10C8119376
:10020000120315341733181819161B4321562500ED
:10021000261129592C812D353EC3424F56460D0AD1
:10022000004C454E4552520D0A004C4F56460D0AA1
:10023000004C454E4552520D0A000007024604C6C6
:1002400005260B0610C81193120313221534173F0D
:10025000182819161B432156250026110D210E655D
:100260000F6A070C160720F81E871F6B29592C816F
:100270002D353EC3FF004E2F4100454F420D0A0071
:100280004E2F41004E2F410000535300547D7DFFFF
:10029000FF4B4B7E7E0020697320756E6B6E6F770F
:1002A0006E2920557365206F6E65206F66003F20B4
:1002B000280041343530353500413435303535008E
:1002C000303000302E302E302E30003233323300BA
:1002D0003139322E3136382E302E31003235352E2E
:1002E0003235352E3235352E30003139322E313619
:1002F000382E302E3234340031000D2E2D07D3919C
:100300003D04320000060010B07155E43023B900FE
:10031000070018146C070090876BF85611E92A0043
:100320001F41002053495A453A0020444154413A64
:1003300000204352433A00204F563A002050453A9D
:10034000002046453A0020524543563A0053454E58
:10035000543A00483F207374617475732C204873BD
:100360006161626263632E2E2E2073656E64206D60
:10037000657373616765206161626263632E2E2E0F
:1003800000746F6F2073686F72742C206D696E69D2
:100390006D756D20392062797465733A20646464E8
:1003A00064646463637373737373737373004F462E
:1003B0004600544D4F444500534D4F4445000454AE
:1003C000053D1700000602000B080C000D210E6B06
:1003D0000FD0105C11041206132214F80A00154401
:1003E00021B622101818192E1ABF1B431C091DB55F
:1003F00023EA242A2500261F29592C812D352E0970
:1004000007040800090006FF3EC2FF0476059617A0
:1004100000000602000B080C000D210E650F6A108B
:100420006A114A1206132214F80A00154721B6224F
:10043000101818192E1A6D1B041C091DB223EA246A
:100440002A2500261F29592C812D352E090704083D
:1004500000090006FF3EC2FF11241FBECFEFD0E40B
:10046000DEBFCDBF12E0A0E0B1E0E4EFF1E900E0D3
:100470000BBF02C007900D92A03BB107D9F711E264
:10048000A0EBB2E001C01D92AA35B107E1F703D09D
:100490000C94F848B5CD88E10FB6F89480936000CD
:1004A000109260000FBE549A5C9A5D9A5E9A209AF0
:1004B000289A0E942435BBD660E083E390E00E9436
:1004C000C8480E943A350E946C390E94C43889EFAE
:1004D00087BD84E085BD82E084BD80936E0010926C
:1004E00080008AE08093810090E080E80FB6F89465
:1004F00080936100909361000FBE84B7877F84BFB3
:100500002FE088E190E00FB6F894A8958093600002
:100510000FBE2093600089E190E80E944E1F0E9468
:10052000C8190E94360E87EA9FE190937F09809355
:100530007E090E943A1489E08093B3020E94B5219B
:1005400028980E942C3F78940E946F1F0E942010D0
:100550005AD20E942E1E0E94BA150E94D10B0E94F0
:10056000E7200E9452180E940F400E945842ECCF90
:100570008EBD0DB407FEFDCF8EB50895A1E0B0E0AD
:10058000E4ECF2E00C945F48482F8A3008F048E031
:1005900088E0489F70011124F701E95BFE4F7F015D
:1005A0008BE290E0F70164918C010F5F1F4F49834C
:1005B00075D4FFEFEF1AFF0A49810333110511F0DB
:1005C000C801F0CF4550453010F461E101C067E14A
:1005D00084E290E063D42196E6E00C947B48CF93CC
:1005E000DF9382E090E0FC01E45EFE4F6491EC0159
:1005F000219654D4CB32D10511F0CE01F4CF87E34C
:1006000090E0FC01E254FF4F6491EC01219646D446
:10061000C036D10511F0CE01F4CF4D9918C060E17C
:100620008FE090E03BD460EB80E190E037D461E76D
:1006300081E190E033D460E184E490E02FD460EB7A
:1006400085E490E02BD461E786E490E027D488E04D
:1006500095DFDF91CF9108952C98806C89DF80E041
:1006600087DF2C9A0895A1E0B0E0E9E3F3E00C9471
:10067000624841E0BE016F5F7F4F019687D3892BAF
:1006800021F18981893969F410E0812FE5DF7AD37E
:10069000812F8770873009F401D31F5F1033A9F7CA
:1006A00014C0DADF182F83E4A2D289816BD381EFE3
:1006B00090E0E7D2812F66D38DEE90E0E2D240E267
:1006C00062E0812F90E0EED2E9D22196E3E00C9433
:1006D0007E48A1E0B0E0EFE6F3E00C9463482C988C
:1006E0008064698345DF6981862F42DF2C9A2196D9
:1006F000E2E00C947F482C983BDF2C9A0895EF920F
:10070000FF920F931F93CF93DF93EC0110925F033F
:10071000EA98249A2C9A8EE190E0F4D12C988EE1FC
:1007200090E0F0D12C9A8DE290E0ECD180E3E3DF11
:1007300084E690E0E7D12C9880E41ADF7E0189E21C
:10074000E80EF11C8E010F5F1F4FCE01ACD310DFFE
:100750000E151F0511F0E801F5CF2C9A2C988EE7A5
:1007600007DF8BE290E0EC0121969DD301DFC333DC
:10077000D10511F0CE01F7CF2C9A83E3BCDF81E0E5
:10078000C6D1CDB7DEB7E6E00C947B48A1E0B0E07F
:10079000ECECF3E00C94634822E0298341E0BE01D5
:1007A0006F5F7F4F0196F2D28981E8DE82E090E0B0
:1007B000A6DF2196E2E00C947F48CF93EA9886E387
:1007C0009ADFCFEF85E397DFC1508077803229F041
:1007D0008AE090E097D1C111F5CFCF910895CF93E2
:1007E000CFEF84E388DFC1508077803129F08AE041
:1007F00090E088D1C111F5CFEA9ACF91089586E3B0
:100800007ADF109280091092B90210925F03089566
:1008100082E090E074DF81E0809380091092B90259
:1008200010925F0308950F931F93CF93DF93082FC8
:1008300010E0C62FD0E085E30FDF801731F0CE0146
:1008400061D11150C1F781E001C080E0DF91CF910B
:100850001F910F91089585E2FFDE8F3311F080E044
:10086000089586E348DF8091B002811104C08EE9CB
:1008700091E007D202C08DE33EDF83E33CDF64E01A
:1008800081E0D1DF85E2E8DE8F3349F78091B00265
:10089000811103C087E991E0F4D181E0089585E3F7
:1008A000DBDE8D3051F485E2D7DE8F3331F4D3DFD8
:1008B00084E321DF80778031D9F708951F920F926A
:1008C0000FB60F9211240BB60F928F939F93AF9395
:1008D000BF93EF93FF938091820990918309A09138
:1008E0008409B09185090196A11DB11D80938209EB
:1008F00090938309A0938409B0938509809181091D
:100900008F5F809381098091721D8F5F8093721D2C
:100910008D37A8F080910D0190910E01A0910F01EB
:10092000B09110010196A11DB11D80930D0190930E
:100930000E01A0930F01B09310011092721DE6EA10
:10094000FDE080819181181619061CF401979183AE
:10095000808336968DE0EE3BF80799F78091C00DC5
:100960009091C10D009729F001979093C10D80934C
:10097000C00D8091D30D8F3F19F081508093D30D1E
:10098000FF91EF91BF91AF919F918F910F900BBE0F
:100990000F900FBE0F901F9018952FB7F8944091AD
:1009A0008209509183096091840970918509FC0145
:1009B00040835183628373832FBF0895A4E0B0E026
:1009C000E4EEF4E00C946348CE010196E6DF8C81FE
:1009D000D9D18B81D7D18A81D5D18981D3D15ED12B
:1009E0002496E2E00C947F48A4E0B0E0EAEFF4E063
:1009F0000C946348CE010196D0DF89819A812496B8
:100A0000E2E00C947F481F93CF93DF93809182099B
:100A100090918309A0918409B09185092091B20237
:100A2000281709F46BC08091820990918309A091E5
:100A30008409B09185098093B202A895C6EADDE0E9
:100A400010E028813981232B19F4812F0E94571C33
:100A50001F5F26961430A9F78091C00D9091C10DAB
:100A6000892B11F40E94B31C8091D30D811102C017
:100A70000E94111D8091970D882339F08150809339
:100A8000970D811102C00E9456160E94B6398091BE
:100A900081098D3798F1109281098091000181FFC1
:100AA00004C085B191E0892785B98091860990912C
:100AB0008709843823E0920728F4019690938709E8
:100AC000809386090E94C53580910D01811102C075
:100AD0000E94C9348091B1028F5F8C3319F08093EA
:100AE000B1020CC01092B1028091A50D8F5F8C33C2
:100AF00018F48093A50D02C01092A50DDF91CF913F
:100B00001F910895880F991F0197F1F7089520ED1F
:100B100037E0815020F0F9013197F1F7FACF0895CD
:100B2000CF93DF93DC0116968C911697843509F0EC
:100B30005BC0CD010696CD91DC9111974DE0242F3D
:100B400030E02C173D0740F0AE014F5051092417FB
:100B5000350709F049C008C0FC01E20FF31F5081BE
:100B60005B3391F34F5FEBCFFE013E97E80FF91F28
:100B700020812435C9F517963C91179721813213AE
:100B800033C018963C911897228132132DC01996C4
:100B90003C9119972381321327C01A963C911A97DA
:100BA0002481321321C06197C80FD91F85818883A2
:100BB0008681898381858A8382858B8383858C83E3
:100BC00084858D8385858E838D919C9111970A975D
:100BD00011969C938E9314968D919C9115970A97DC
:100BE00015969C938E931497DF91CF910895CF9390
:100BF000C82F8091B30282FF03C08C2F0E940A236A
:100C00008091B30280FF13C02091E90D3091EA0D6D
:100C10002E3F83E0380738F02115344040F4CD30C2
:100C200011F0CA3021F46C2F85EE9DE024D3809121
:100C3000A20D8823C9F08091B30283FF15C0CA308A
:100C400099F0CD3011F46BE301C06C2F8FE899E07F
:100C500012D3CD3019F48FE899E062DF83E08093FE
:100C6000970D82E080939D0DCF910895CF93DF93F0
:100C7000EC018991882311F0BADFFBCFDF91CF918E
:100C80000895CF93DF93EC01FE018491882319F03E
:100C9000AEDF2196F9CFDF91CF9108958DE0A7DFE8
:100CA0008AE0A5CFA6E0B0E0E8E5F6E00C94614864
:100CB000062F1E8215E02AE030E01150E1E0F0E05E
:100CC000EC0FFD1FE10FF11DB9010E940A48805D84
:100CD0008083CB010150009769F01111EECF0AC05B
:100CE000112359F01150E1E0F0E0EC0FFD1FE10F8E
:100CF000F11D4083015007FFF3CF81E090E08C0F9E
:100D00009D1F810F911DB2DF2696E4E00C947D4873
:100D1000A5E0B0E0EEE8F6E00C9463481D8224E024
:100D2000382F3F702150E22FF0E03A3010F4305D60
:100D300001C0395CA1E0B0E0AC0FBD1FEA0FFB1FA2
:100D4000308334E0969587953A95E1F761500097A6
:100D500039F7615067FD0BC0222349F02150E1E0D3
:100D6000F0E0EC0FFD1FE20FF11D4083F2CF81E0B8
:100D700090E08C0F9D1F820F911D78DF2596E2E099
:100D80000C947F4840E362E090E0C2CFDC01FB01BD
:100D900030E090E08D918823A9F0813608F08052F0
:100DA00020ED280F2A3030F02FEB280F263030F4BA
:100DB00029EC280F292B332379F006C0803251F318
:100DC0008A3341F3CF0105C0CF0101962083415002
:100DD00041F4861B970B0895922F9295907F31E0F6
:100DE000D9CFFC01D5CFFB0150E020E0DC013D91E3
:100DF000CD013323D1F050ED530F5A3050F4522F20
:100E0000550F252F220F220F250F2053230F51E0BE
:100E1000EDCF303211F03E3279F4442321F02083BB
:100E200041503196E1CF50E0E1CFDF01552321F071
:100E3000442311F031962C93CF01861B970B089514
:100E400020E030E05AE0FC014191CF01442379F0E9
:100E5000E0EDE40FEA30B8F7F9015E9F90015F9F83
:100E6000300D112420533109240F311DECCFFB012B
:100E7000318320830895982F92959F709A3010F4B3
:100E8000905D01C0995CFB0190838F708A3010F4F3
:100E9000805D01C0895CFB01818308950E94DA486E
:100EA000F999FECF08950C94BB4808951F93CF93F2
:100EB000DF9314E0115068F0EC012196F4DF40E27A
:100EC00061E090E0EFDE112311F08EE290DECE01C2
:100ED000F1CFDF91CF911F9108951F93CF93DF93AF
:100EE000162F11501F3F59F0EC012196DCDF4ADF2D
:100EF000112311F08AE37BDE1150CE01F3CFDF9195
:100F0000CF911F910895A2E0B0E0E9E8F7E00C94DA
:100F10006048FC012181293691F582818D3621F4CA
:100F200066E082E690E030C0843619F488E690E00E
:100F300019C0813619F489E690E00EC08E3619F496
:100F40008DE690E009C0873619F481E790E004C08F
:100F50008E3421F485E790E0A9DF44C08F3629F470
:100F60008BE790E0A0DF0EDF3DC0803709F03AC08C
:100F700089E790E00E94C34840E260E032C02D342F
:100F800029F466E08AEF9FE0A8DF2CC0203521F429
:100F900060E18AED9FE0F8CF1A82198242E0BE013B
:100FA0006F5F7F4F0196F2DE098110E0823021F4FD
:100FB000102F00278A81082BC80175DFF82E82E5E3
:100FC00016DE40E364E0C801A3DE87EC91E059DE61
:100FD0008F2DD8DE83EC91E054DE40E262E08F2D6D
:100FE00090E060DE5BDE2296E5E00C947C48A8E0B1
:100FF000B0E0EDEFF7E00C945D489C01FC018181CD
:101000008E010F5F1F4F893609F06BC082818D36CC
:1010100049F446E0B801C9010396B8DE82E690E0E3
:1010200026E04DC0843639F4B801C901039608DFC3
:1010300088E690E03FC0813641F444E0B801C90140
:101040000396D1DE89E690E027C08E3641F444E075
:10105000B801C9010396C7DE8DE690E01DC0873652
:1010600041F444E0B801C9010396BDDE81E790E098
:1010700013C0803741F4B801C9010396E1DE89E766
:1010800090E022E01CC08E3449F444E0B801C9016C
:101090000396A9DE85E790E024E011C08F3661F465
:1010A00041E0B801C901039671DE89818093731D07
:1010B0008BE790E021E003C080E090E020E0780141
:1010C0003E2D301B321708F049C0F70161917F01B6
:1010D0006C01FFEFCF1ADF0A2887E0DEC601288502
:1010E000EFCF43E0B801C901019628873F834EDE68
:1010F00028853F81823090F1C980D12C823021F047
:10110000DC2CCC244A81C42A7C01FF24FE01EE0D94
:10111000FF1D6081C60128873F83C0DEEE0CFF1CE7
:101120008FEFE81AF80A28853F81E20EF31EEFEFF1
:10113000CE1ADE0AF7018081882381F041E0B801F0
:10114000C70124DE892B51F06981C601A7DEF2E0D8
:10115000EF0EF11C32E0C30ED11CECCF2896E8E074
:101160000C94794841E060E071E001960FDE8091D7
:10117000000180FF02C0289A01C0289860910001F8
:1011800084E390E08BCEA1E0B0E0E9ECF8E00C94D1
:1011900063481982009731F041E0BE016F5F7F4FD5
:1011A0000196F4DD8981882321F061E083E390E0FA
:1011B00075DE10926E00F89428E088E190E00FB69A
:1011C000F894A895809360000FBE20936000FFCF35
:1011D000CF93DF93EC0161E080E090E05FDE6EE3AF
:1011E00081E090E05BDEFBD960E080E690E056DED7
:1011F00060E081E690E052DE60E083E390E04EDE66
:1012000062E084E390E04ADE0E94262060E080E60F
:1012100090E044DE60E081E690E040DE898188373E
:1012200019F080E090E0AFDFDF91CF91089580E08A
:1012300090E039DE813029F481E090E034DE8E33B5
:1012400019F080E090E0C4DF84E390E02CDE80932E
:10125000000108954D9903C084EB91E002C085EA36
:1012600091E00FDD1BCDFC011582148211821082EA
:10127000138212820895FC014FB7F89484819581FE
:10128000811524E0920798F4019695838483208148
:101290003181C901019691838083DF01A20FB31FC1
:1012A00016966C938115944011F4118210824FBFF1
:1012B0000895FC014FB7F89484819581009719F443
:1012C0004FBF80E008950197958384838281938145
:1012D0009C012F5F3F4F33832283DF01A80FB91F8B
:1012E00016968C912115344011F4138212824FBF4F
:1012F0000895FA013081882369F0E1E0F0E0022EE0
:1013000001C0EE0F0A94EAF7DB01A30FB11D9C9117
:101310009E2B9C93222319F08FEF820F0BC081E04C
:10132000830F8C3010F4FA018083FB01E80FF11D6C
:10133000108287E090E00895CF93C82F299A8823E0
:1013400019F08091B60202C08091B80220E1829F1C
:10135000C0011124D7DB2998CC2319F08091B50264
:1013600002C08091B70220E1829FC0011124CADB34
:10137000CF910895A3E0B0E0E0ECF9E00C9453487D
:101380005C01162F622E842F90E09B838A8320912C
:101390008609309187090296089F802D112499278C
:1013A00087FD90952817390720F48BEC91E069DCD4
:1013B0007DC0281B390B3093870920938609289A12
:1013C00080915F03882341F010925F0384EA92E0EA
:1013D00073D4FF24F39401C0F12C80918009811112
:1013E00001C016DAEAD9812E912CCC24C394D12CD9
:1013F000712C512C852D992787FD9095881599057D
:1014000024F480E099DF5394F5CF112311F081E0AB
:1014100093DF20E0422E552447FC5094EA81FB8163
:101420004E165F062CF097E0392E4A0C5B1C1AC052
:1014300087E0282E312C4A0C5B1CC601022C01C00F
:10144000880F0A94EAF7F20190818923298374DFD7
:10145000F1E02F1A310829818FEF2816380669F735
:101460002F5FD8CF832D992787FD90956816790631
:1014700064F4C601032C01C0880F0A94EAF7F20154
:101480009081892359DF3A94EDCF8E2D40DB0150B6
:1014900009F0AFCF80918809882311F0A0D902C04C
:1014A00086E329D9F1100E94721628982396E2E16A
:1014B0000C946F48ADE0B0E0E0E6FAE00C945648DA
:1014C0007C01162F842F022F6701C60ED11C462FD8
:1014D000B70109D4D6018C931F5F1D8619825E2C3B
:1014E000670127E066246394712C8C2D8519811780
:1014F00088F597E0A92EB12C4701880E911CF301C5
:101500000A2C01C0EE0F0A94EAF7D4018C91AE01C7
:10151000435F5F4FBE016F5F7F4F8E23EADE282F50
:10152000B1E0AB1AB10858F7D6018D916D01082EC4
:1015300082958025082E8695869580258F5F8695D5
:101540008170AE01435F5F4FBE016F5F7F4FD1DEA1
:10155000282FCBCF222311F0215004C08D858F5F1F
:101560008D8727E089E18093B7028093B80285E2F6
:101570008093B5028093B6028AE0E82E4D856CE038
:10158000CE010196F7DE2D96EFE00C947248ADE0A7
:10159000B0E0EDECFAE00C946248162F242F4BE0FB
:1015A000BE016F5F7F4F01962D87F0DB2D85412FA8
:1015B000682FCE0101967EDF2D96E3E00C947E48E5
:1015C00043E066E0E4CFEF920F93CF93DF93CDB784
:1015D000DEB760970FB6F894DEBF0FBECDBF40E117
:1015E000BE016F5F7F4F0196D1DB69814A810B811C
:1015F0008C818093B8028D818093B7028E81809315
:10160000B6028F818093B502E02EE2948FE0E8224B
:101610000F70242F2F7042954F70CE010896AADECE
:1016200060960FB6F894DEBF0FBECDBFDF91CF91AD
:101630000F91EF900895A9E1B0E0E1E2FBE00C9496
:101640005B484BE0BE016F5F7F4F01969FDB182F19
:10165000893009F05AC099E19093B7029093B8028B
:101660009093B60282E38093B50269E0CE010196C1
:1016700044D3E1E0F0E0EC0FFD1FE10FF11D8083AA
:10168000198E1D86CE0101967C016E019BE0C90E6C
:10169000D11C27E0AA24A394B12CEC14FD0429F159
:1016A00000E010E0F501002E01C0EE0F0A94EAF709
:1016B000D7018C91AE01475E5F4FBE01635F7F4FE4
:1016C0008E2317DE282F0F5F1F4F0830110551F7AB
:1016D000AE01475E5F4FBE01635F7F4F81E009DE71
:1016E000282FBFEFEB1AFB0AD8CF222311F021508D
:1016F00004C0898D8F5F898F27E08AE0E82E03E0A0
:10170000498D6CE0CE010D9635DE6996EAE00C94C9
:101710007748CF93DF93EA98249A2C9A8EE190E051
:10172000F1D92C988EE190E0EDD92C9A8DE290E0E1
:10173000E9D980E30E947B0384E690E0E3D9C8EE18
:10174000D1E0FE0131966491FE0184910E9469030B
:101750002296F2E0CA31DF07A1F78091BA02811127
:1017600006C083E30E947B0384E0D1D90FC0C2EDA1
:10177000D1E0FE0131966491FE0184910E946903DB
:101780002296F1E0C83EDF07A1F7EBCF84E30E9489
:101790007B0385E30E942C038D30C1F7DF91CF914D
:1017A0000895A2E3B0E0E7EDFBE00C94614880917E
:1017B000B902882309F49BC01A9B84C08FE30E945E
:1017C0002C038F778983823368F08AE30E947B033E
:1017D00086E30E947B038DE30E947B0384E30E94E7
:1017E0007B0385C02C988FEF0E94B80210E089819E
:1017F000181760F480E00E94B802E2E0F0E0EC0F1D
:10180000FD1FE10FF11D80831F5FF1CF80E00E947B
:10181000B802082F80E00E94B8022C9A84E30E944C
:101820007B0385E30E942C038D30C1F72A8196E764
:1018300092279A8392E08981E92FF0E0981768F463
:1018400041E050E04C0F5D1FE40FF51F3081245242
:10185000232720839F5F232FEECF81E090E08C0F22
:101860009D1FE80FF91F90818B81982790838091AD
:10187000880984FF10C081E6BAD910E089818117F8
:1018800008F1E1E0F0E0EC0FFD1FE10FF11D8081B8
:10189000AED91F5FF3CF81E4AAD910E08981811707
:1018A00050F0E1E0F0E0EC0FFD1FE10FF11D808151
:1018B00069DA1F5FF3CF8091880985FF02C0802F0E
:1018C00061DAECD985E30E942C03813029F0813163
:1018D00061F48AE30E947B0386E30E947B038DE32D
:1018E0000E947B0384E30E947B030E944F04E296E4
:1018F000E4E00C947D48A2E3B0E0E1E8FCE00C9465
:101900005D4841E38E010F5F1F4FB80101963EDA3B
:101910006C019C01332721503109898190E02817FF
:10192000390709F065C08091B902811103C0F1DE69
:1019300083E0EDD8FB808A8196E789278A8392E04D
:101940008981292F30E0F801E20FF31F981750F436
:10195000DE01A20FB31F8C918452208182278083E5
:101960009F5FEECF80818F25808385E30E947B037C
:1019700085E30E942C038331C1F7F4FE06C088E79B
:10198000C6D888E7C4D888E701C08AE0C0D82C98B8
:101990008FE70E94B80278018E2D801B8C1530F4E1
:1019A000F70181917F010E94B802F6CF2C9A85E35E
:1019B0000E942C038331D9F385E30E942C038631E6
:1019C00049F48BE30E947B0386E30E947B038DE353
:1019D0000E947B038091B902882349F084E30E942E
:1019E0007B0385E30E942C038D30C1F701C055D1E4
:1019F000E296E8E00C947948FC012181223731F02D
:101A0000223559F481E08093BA0202C01092BA02E2
:101A100080DE81E08093B9020895233711F40196A6
:101A20006ACF1092B90208958F929F92AF92BF929F
:101A3000DF92EF92FF920F931F93CF93DF93109259
:101A4000D6021092EB02FC012181220F220F220FFD
:101A50003381231B57E0520F1092D70210E070E041
:101A600038E0D32ED20EFF24F39447E007E0E12CB8
:101A7000C7E0D0E0A1E0B0E0FD1409F47FC0FC01B4
:101A8000EE0DF11D248130E0002E02C03595279522
:101A90000A94E2F721703327E22F002311F001505E
:101AA00002C0E39407E06B3471F4433009F04AC09C
:101AB000111107C0E1115FC01092D6027093EB02C2
:101AC00074C010E041C04F3F31F56634A9F4E72FF0
:101AD000F0E0E952FD4FE0810E2EE295E0250E2E5A
:101AE000E695E695E025EF5FE1FB882480F8912CF0
:101AF0008216930641F004C0653429F4E11103C055
:101B00001093D602DBCF7F5FE72FF0E0E952FD4F65
:101B1000108247E031C0EE2361F1663471F4E72FA3
:101B2000F0E0E952FD4FA0809D01042E01C0220F7C
:101B30000A94EAF7A22AA0821CC0653439F06B34FB
:101B4000C1F404C04F3FD1F2EE2399F0E72FF0E04B
:101B5000E952FD4F9E01241B310947FD33955D017C
:101B600002C0AA0CBB1C2A95E2F795013081322BEA
:101B70003083415001C011E0F3947ECF1093D60220
:101B80007093EB025F1588F4653431F44F3F21F414
:101B90007F5F7093EB0204C08091D6028111F8CF71
:101BA00081E09091EB02911101C080E0DF91CF9133
:101BB0001F910F91FF90EF90DF90BF90AF909F909B
:101BC0008F90089510926F00E091EE028CE1E89FF3
:101BD000F0011124E151FD4F10820895DC011196AE
:101BE000EC911197F0E050E02C91CF01841B950B04
:101BF0000B964797A0F430E070E0C901861B970B65
:101C00000B96479760F42E0F3F1F640F751F261B1E
:101C1000370B255F3F4F81E02731310508F080E029
:101C20000895FC012181243108F0CCCF3381662353
:101C300081F081E090E0032E01C0880F0A94EAF75A
:101C4000DF01A20FB11D14969C911497982B149646
:101C50009C93332319F031503383089587E08383B5
:101C60002F5F2183E20FF11D14820895219A299894
:101C70002298E9E6F0E080818061808382EC91E047
:101C8000909387098093860910920B031092270383
:101C90001092430310928009089580917B0981116D
:101CA0000AC080918809882321F00E9408040C94BE
:101CB000EF030C94FF030895FC01218121110DC055
:101CC000809188095FD840E265E080918609909113
:101CD00087090E9452060C944E0641E068E879E0BC
:101CE000019654D8DACF442339F04150FB01E40F78
:101CF000F11D9081890FF7CF089520E0662339F018
:101D00006150FC01E60FF11D30812327F7CF822FB0
:101D10000895A091D60240E035E020E0662399F0D6
:101D20006150FC01E60FF11D5081752F72957F7097
:101D30002727370FAA2311F0442319F05F702527B6
:101D4000350F4F5FEBCF320F40E1349FC0011124BC
:101D5000822B0895FC0132812381A081B181A30FE0
:101D6000B11D8C9190E0022E02C0959587950A9442
:101D7000E2F7817099274FEF420F4383211104C08E
:101D80003F5F328327E023830895A2E0B0E0EBECCD
:101D9000FEE00C945B487C01A12CB12CD12CCC240E
:101DA000C394062F10E001501109A616F0F4C701E4
:101DB0004A836983CFDF4A816981882391F0442374
:101DC00049F098012A193B098C2D01C0880F2A95EA
:101DD000EAF706C08C2D0A2C01C0880F0A94EAF796
:101DE000D82A8FEFA81AB80AE0CF8D2D2296EAE004
:101DF0000C947748A4E0B0E0E0E0FFE00C945A488F
:101E00001B8227E02C839C012C5F3F4F3A83298360
:101E10001092EB02FC012181338187E090E0831B6B
:101E20009109F8E02F9F800D911D112485349105B3
:101E30000CF44EC0B12CA090EB02F5E0FA1558F16D
:101E40000A2D10E040E068E0CE0101969EDF0952C5
:101E50001D4FF8018083982E092C92949024092C10
:101E6000969496949024CE01019674DF939491FAFF
:101E7000CC24C0F8D12C90E0C816D90649F5CE0183
:101E8000019668DF811124C0F8018081B826A394EF
:101E9000A092EB02D0CF40E068E0CE01019675DF62
:101EA000082F182F012E12951025012E1695169524
:101EB0001025CE0101964EDF1F5F11FBEE24E0F8E6
:101EC000F12C282F30E0E216F30611F481E0B01275
:101ED00080E02496EBE00C947648A5E0B0E0E3E7E0
:101EE000FFE00C945E48FC011B8287E08C83CF01ED
:101EF00004969A8389831092EB028081853009F0E1
:101F00004FC02181338187E090E0831B910938E045
:101F1000239F800D911D11248039910509F040C047
:101F20000FE010EF29E88091EB02E82EF12CDD2480
:101F3000D394D80E41E068E08F3088F4CE0101964A
:101F40002D8323DF080F111DF701E952FD4F2D816D
:101F50002827208324E2280FD092EB02E4CFCE0181
:101F6000019613DF080F111DD092EB02F701E95221
:101F7000FD4F8095808341E068E0CE01019605DF4A
:101F800090E0982F8827081B190B41E068E0CE01EC
:101F90000196FBDE282F30E081E00217130709F0DD
:101FA00080E02596E7E00C947A48A4E0B0E0EBED01
:101FB000FFE00C9460481B8227E02C839C012C5F7F
:101FC0003F4F3A832983FC0121812430A1F583818D
:101FD000813089F51092EB028091EB02082F10E01E
:101FE000FF24F394F80E41E0843098F4811106C088
:101FF00067E0CE010196C9DE806804C068E0CE01CA
:102000000196C3DEF801E952FD4F8083F092EB02A6
:10201000E3CF67E0CE010196B8DEF801E952FD4F4B
:10202000880F8083F092EB029091D70292959F7077
:1020300081E09A3009F080E02496E5E00C947C4839
:10204000A0E0B0E0E6E2F0E10C945D488091BB02D4
:102050008823B9F18091880987FF17C084E30E9423
:102060002C038058803458F0803C58F490E0805520
:10207000910923E0959587952A95E1F703C080E0C3
:1020800001C08FE08F590E94F7058091880983FF76
:1020900016C082E70E94F7058091880984FF04C07A
:1020A0008091BC020E94F70586E60E94F7058091A8
:1020B000880984FF04C08091BB020E94F70510923A
:1020C000BB028091EC02882309F4FCC1289AC091DC
:1020D000ED022CE1C29FE0011124C151DD4FCE0180
:1020E000FCDE811146C066E4CE019EDC882339F116
:1020F0001091EB0211501093EB02412F67ED72E04B
:1021000086E0F1DDE12FF0E0E952FD4F0081801320
:1021100002C0143080F5282F30E02F5F3F4F602F32
:1021200070E02617370721F4143010F0808323C0A5
:10213000412F67ED72E08CE0D6DD801731F065E469
:10214000CE0172DC811105C018C01430C0F304E563
:1021500001C18091EB0281508093EB02893069F4D8
:1021600069E087ED92E0C9DD9091E002891305C036
:1021700009C003E5EFC006E4EDC0CE013BDE8111EE
:1021800009C002C005E4E6C0CE010FDF882321F0BC
:1021900004E7E0C008E4DEC0E090BC028E01065E09
:1021A0001F4F4B8D6E2DC80119DD682FCE0139DD13
:1021B0006BE4CE0139DC8823A1F0F090EB02FA94B5
:1021C000F092EB026F2D87ED92E0A3DDEF2DF0E0B2
:1021D0009091D602E91BF109E952FD4F90818917D0
:1021E00041F08B81873039F41B828981815089834A
:1021F00004C00BE4AFC08F5F8B838981843039F5D5
:102200008B81843021F54EE16CE3CE014896E6DC0B
:102210008823E9F04EE16E2DC801E0DC682FCE0185
:1022200000DD20E0822F90E0FC01E952FD4FDE014D
:10223000A80FB91F14968C91808381E0820F85309E
:1022400010F4282FEFCF8093EB0202E583C000E06B
:102250008091880982FF65C080E70E94F705888128
:1022600040E262E090E00E945206888D40E265E024
:10227000F0E18F9FC00111240E945206898D40E237
:1022800065E020E1829FC00111240E9452068A8DE0
:1022900040E265E0E0E18E9FC00111240E945206F9
:1022A0008B8D40E265E0F0E18F9FC00111240E9418
:1022B00052068A8140E263E090E00E9452068981E2
:1022C00040E263E090E00E9452062B8140E262E02F
:1022D00087E090E0821B91090E94520680E20E94F2
:1022E000F7058091880985FF08C084E30E942C03CC
:1022F0000E94C20680E20E94F7058B81873019F0A8
:1023000089818F5F898310E08981181740F4FE016D
:10231000E10FF11D84810E94C2061F5FF5CF0E946C
:102320004E0618828091EC0281508093EC028091DD
:10233000ED028F5F843019F08093ED0202C010929D
:10234000ED022898043509F0BDC087ED92E00E94A7
:10235000201DB8C0A0918809A0FF7ACFA1FD5CC064
:102360003091D502B091EB023B1332C020E023172D
:1023700070F4822F90E041E0420FFC01EF53FD4FDB
:1023800089529D4F5081FC018081581729F020937C
:10239000D50223131DC002C0242FE9CF409182092A
:1023A000509183096091840970918509C090BD02A4
:1023B000D090BE02E090BF02F090C0024C195D09BF
:1023C0006E097F0931E0463251056105710508F05B
:1023D00030E020E02B1768F4822F90E0AC014F53DF
:1023E0005D4F89529D4FFC018081FA0180832F5FF0
:1023F000F1CF2093D50240918209509183096091D9
:102400008409709185094093BD025093BE02609388
:10241000BF027093C00201C030E00435E9F4A6FDAC
:102420001BC08091EB028530B8F08091D9028B34CB
:1024300009F40ECF893609F40BCF9DEA980F92303C
:1024400008F406CF8D57823008F402CF8091DA026B
:102450008077803709F4FCCE3111FACE802F0E94AC
:10246000F7058091D602882329F08091EB028150F4
:102470008093EB0210E0E091EB021E1748F4E12F8D
:10248000F0E0E952FD4F80810E94C2061F5FF3CF4A
:102490008091D602882351F0F0E0E952FD4F80810F
:1024A0008F7040E361E090E00E9488068091880987
:1024B00085FF05C084E30E942C030E94C2060E948F
:1024C0004E06C6CECDB7DEB7E8E00C9479481F9231
:1024D0000F920FB60F9211240BB60F922F933F93CA
:1024E0004F935F936F937F938F939F93AF93BF931C
:1024F000EF93FF9310926F008091880983FF03C0D0
:102500008EE20E94F7058091EE029CE1899FF00126
:102510001124E151FD4F9081933018F09181923058
:1025200010F450DB18C09091EC02933049F4809184
:10253000880982FFF6CF8AE192E00E944106F1CF3E
:102540009F5F9093EC028F5F843019F08093EE02CE
:1025500002C01092EE02FF91EF91BF91AF919F9157
:102560008F917F916F915F914F913F912F910F903C
:102570000BBE0F900FBE0F901F9018959BED980FFC
:10258000973150F496EF960F9D3130F491E0681733
:1025900008F090E0892F089580E008951F920F922F
:1025A0000FB60F9211240BB60F920F931F932F9318
:1025B0003F934F935F936F937F938F939F93AF93CB
:1025C000BF93CF93DF93EF93FF938091E40D882324
:1025D00021F082E08093E40D22C18091980D823039
:1025E00021F483E08093980D1AC10091840010912A
:1025F000850034E0169507953A95E1F7C091EE0213
:102600009CE1C99FE0011124C151DD4F98819430B4
:1026100031F40E3208F403C10F3448F0A4C09530F1
:1026200031F4073108F4FBC0083208F09CC01A9955
:102630000DC09450923038F461E0CE01F2DA10927D
:102640008500109284000093BC02E9C08091BC0216
:10265000081B0093BB0210928500109284008881B1
:102660008450823020F460E0CE01DBDAD8C082E012
:1026700086BB88810091BC0281110FC0053608F02D
:10268000CEC08091BB02853608F0C9C0088F898F03
:1026900081E08A8382E08883C2C01091BB02412F0F
:1026A000602F823009F06FC0CE01489697DA4A81D8
:1026B0008823F9F0888D90E09C01220F331F280FAA
:1026C000391F200F311D3595279535952795288F72
:1026D000298D30E0C901880F991F820F931F810F48
:1026E000911D9595879595958795898F4F5F4A831D
:1026F00096C0443008F445C080EA9FE0909389007A
:10270000809388008A818C3050F0888D298D30E04C
:10271000280F311D2536310524F084E027C08A308A
:1027200088F0888D298D30E0280F311D2532310544
:102730004CF485E0888388EE93E090938900809341
:10274000880015C080918E09882379F0612F802F31
:1027500015DF882351F0688D898D10DF882329F0DB
:1027600081E08093980D2EDA5AC083E088830A8F27
:102770001B8F198287E08B831C8282E080936F001D
:102780004EC018827BCFCE014A9628DA882301F109
:1027900061E0CE0146DA4A8D50E09A01220F331FE4
:1027A000240F351F200F311D359527953595279519
:1027B0002A8F2B8D30E0C901880F991F820F931F3C
:1027C000810F911D95958795959587958B8F27C03E
:1027D000412F602FCE01489601DA882309F4C3CF38
:1027E00060E0CE011EDA488D50E09A01220F331FBF
:1027F000240F351F200F311D3595279535952795C9
:10280000288F298D30E0C901880F991F820F931FEF
:10281000810F911D9595879595958795898FFF9146
:10282000EF91DF91CF91BF91AF919F918F917F9168
:102830006F915F914F913F912F911F910F910F9049
:102840000BBE0F900FBE0F901F901895E091EE02F7
:102850008CE1E89FF0011124E151FD4F808181114D
:1028600007C081E09091D30D9F3F19F480E0089557
:1028700081E0089580E690E00E94530780938E09DE
:1028800081E690E00E9453078093A20D882321F0F7
:1028900081E28093880901CA0895299A0C948205DF
:1028A00029980C948205A7E0B0E0E9E5F4E10C94E6
:1028B0005E4890919A09943559F420919B0D30917E
:1028C0009C0D2F5F3F4F30939C0D20939B0D3EC07E
:1028D000963459F42091990D30919A0D2F5F3F4F06
:1028E00030939A0D2093990D31C0953459F420916D
:1028F0008B0930918C092F5F3F4F30938C092093C7
:102900008B0924C09B3459F420919E0D30919F0D6A
:102910002F5F3F4F30939F0D20939E0D17C098342B
:1029200059F42091A00D3091A10D2F5F3F4F3093AE
:10293000A10D2093A00D0AC02091890930918A0928
:102940002F5F3F4F30938A092093890995E7998338
:10295000882399F0BE016E5F7F4F8091A20D0E9487
:102960003B07BE016C5F7F4F80918E090E943B0741
:1029700085E58E8386E0D82E02C0DD24D3940E94A4
:1029800008040E94DD0316E080E891E086DF80E025
:1029900093E086DF1150C1F780E093E07EDF80E8AE
:1029A00091E07EDF80E891E078DF299887E390E08E
:1029B0000E947F0383E00E9487052C988FE70E9486
:1029C000B802809193098D0D0E94B802CE01019644
:1029D0007C018C01F80181918F010E94B802802F47
:1029E0008E198D15B8F38091930990919409892BD4
:1029F00039F08FE899E00E9459090E94B802F3CF9C
:102A00002C9A0E94DD038FE899E00E94330915E1BA
:102A10008AE30E942C038F7731F0115021F081E07E
:102A20000E948705F5CF39D92796E7E00C947A48BC
:102A3000CF93DF93EC018981811107C080918E09CA
:102A40000E94C2068091A20D13C08436A1F4809129
:102A5000820990918309A0918409B091850940E38E
:102A600064E00E9488068EE20E94F7058091970D2F
:102A70000E94C2064DC0833709F04DC040E361E0BB
:102A800080919B0D90919C0D0E9488068EE20E9481
:102A9000F70540E361E08091990D90919A0D0E94B5
:102AA00088068EE20E94F70540E361E080918B0981
:102AB00090918C090E9488068EE20E94F70540E3FF
:102AC00061E080919E0D90919F0D0E9488068EE29C
:102AD0000E94F70540E361E08091A00D9091A10D67
:102AE0000E9488068EE20E94F70540E361E0809133
:102AF000890990918A090E9488068EE20E94F70552
:102B000040E361E08091950D9091960D0E948806BA
:102B10000E944E062CC08936D9F441E06EE879E077
:102B2000CE0102960E94C60660918E0980E690E072
:102B30000E944E0741E062EA7DE0CE0104960E94C9
:102B4000C6066091A20D81E690E00E944E070FC07C
:102B50008FE899E00E94330921966991662329F054
:102B60008FE899E00E943B09F8CF80E09CDEDF917E
:102B7000CF910895A1E0B0E0E0ECF5E10C945D4860
:102B80008091980D882309F48DC0C0908209D0905F
:102B90008309E0908409F0908509833009F069C0C9
:102BA0008FE30E942C03182F8630C8F08BEE91E142
:102BB0000E9433092C988FEF0E94B80280E00E9497
:102BC000B802082F115049F080E00E94B802682F27
:102BD0008BEE91E10E943B09F5CF2C9A01C000E0F9
:102BE0005CD81092980D053709F05CC041E0BE0139
:102BF0006F5F7F4F81EF91E10E94C6060197A1F5BB
:102C0000998180918E0998132FC08091F511853597
:102C100081F48091EF119091F011892B39F08BEEB6
:102C200091E10E9459090E94F705F3CF0E944E06D8
:102C300039C08091EF119091F01104979093F011A9
:102C40008093EF1184E090E09093EE118093ED116A
:102C50006AE08BEE91E10E943B09E0917E09F091E0
:102C60007F0988E009951EC08BEE91E10E9433092F
:102C700019C0823051F480918D099C2D981B983099
:102C800088F00BD81092980D0DC0813059F487E36D
:102C900090E00E947F030E94EF0382E08093980DF2
:102CA000C0928D092196E8E00C947948CFDD882305
:102CB00061F083E080939D0D8091950D9091960D2C
:102CC00001969093960D8093950D80919D0D815066
:102CD00080939D0D882321F083E08093970D0895C4
:102CE00081E0E1CDCF93DF93EA98249A2C9A8EE18C
:102CF00090E00E9482052C988EE190E00E9482056F
:102D00002C9A8DE290E00E94820580E30E947B0372
:102D100084E690E00E948205CAE3D2E0FE0184913D
:102D2000813440F083E30E947B0384E00E948705A6
:102D3000CFEF0BC0FE01319664910E946903229689
:102D4000F2E0C637DF0751F7EDCF84E30E947B0343
:102D50008AE090E00E948205C150B9F781E080933B
:102D60005F03DF91CF910895EF92FF920F931F932E
:102D7000CF93DF93EC018B01F880F394611571051B
:102D800019F0E4E6F0E002C0E0E0F0E028E0F29EB6
:102D9000C00111246AE070E00E941E489B012E0FC2
:102DA0003F1FC901AA2797FDA095BA2FE091860978
:102DB000F0918709AF0160E070E0481759076A0792
:102DC0007B0728F48AE292E00E944106D7C0E21B0A
:102DD000F30BF0938709E093860980915F038111DB
:102DE00001C080DF85E30E942C038D3071F08AE5FD
:102DF0000E94F70585E40E94F70582E50E94F70529
:102E000082E50E94F70581E34CC0809160039091B8
:102E10006103A0916203B0916303892B8A2B8B2BF2
:102E200051F50E94DD0385E30E942C03833109F4F0
:102E300043C08AE50E94F70585E40E94F70582E514
:102E40000E94F70582E50E94F70582E32AC080917F
:102E5000820990918309A0918409B09185094F5FFF
:102E60005F4F6F4F7F4F84179507A607B707C9F6C7
:102E700081E00E9487058091820990918309A09149
:102E80008409B0918509409160035091610360917C
:102E900062037091630384179507A607B707B9F615
:102EA000E7CF0E94F70585E30E942C030E94C2062B
:102EB0000E944E0617DF62C0012B41F42C988FE769
:102EC0000E94B802EC2E0C2F1D2F09C00AE010E062
:102ED00084E60E94870501501109D1F7EFCF802FBA
:102EE0008E198F1530F4F80181918F010E94B8027C
:102EF000F6CF2C9AC8EC85E30E942C038D30E9F4C0
:102F000085E30E942C038D3019F18AE50E94F705B4
:102F100085E40E94F70582E50E94F70582E50E949C
:102F2000F70583E30E94F70585E30E942C030E94C6
:102F3000C2060E944E06D6DE0BC085E30E942C031B
:102F40008331F1F681E00E948705C150A1F6D8CF08
:102F500080915F03811102C00E944D0E8091820911
:102F600090918309A0918409B091850980936003B1
:102F700090936103A0936203B0936303CDB7DEB770
:102F8000E6E00C947B48ACE0B0E0E9ECF7E10C94AF
:102F90006248FC018BE0898381818A831B8282E005
:102FA0008C8387818D8380858E8381858F838481C7
:102FB00088878581898786818A871B861C8684E12C
:102FC0000E94870560E070E0CE010196CDDE8AE5C3
:102FD0000E94F70510E0812F90E0298130E028174A
:102FE00039075CF0E1E0F0E0EC0FFD1FE80FF91F9E
:102FF00080810E94C2061F5FEECF8091880985FF05
:1030000003C080E00E94C2060E944E062C96E3E0B8
:103010000C947E48CF93DF93EC018091670381117C
:1030200008C090916803911104C09091690399239D
:10303000A9F09B81903319F09F7E903479F49F81A1
:1030400098130CC0988580916803981307C09985E0
:1030500080916903981302C0CE0195DF80916403CB
:10306000811108C090916503911104C0909166038D
:103070009923A9F098819B3091F49B81903479F445
:103080009F8198130CC0988580916503981307C0A1
:10309000998580916603981302C0CE0174DFDF9199
:1030A000CF910895AEE1B0E0E8E5F8E10C94614815
:1030B00080915F03882309F469C01A9B59C08FE38C
:1030C0000E942C038F778E3108F08DE189832C9834
:1030D0008FEF0E94B80210E08981181760F480E039
:1030E0000E94B802E2E0F0E0EC0FFD1FE10FF11DDD
:1030F00080831F5FF1CF80E00E94B802082F80E03C
:103100000E94B8022C9ACE01019684DF8091880932
:1031100084FF12C08AE70E94F70510E089818117B9
:10312000A8F1E1E0F0E0EC0FFD1FE10FF11D80815F
:103130000E94F7051F5FF2CF8AE50E94F70510E0B5
:103140008981811758F0E1E0F0E0EC0FFD1FE10FFD
:10315000F11D80810E94C2061F5FF2CF8091880915
:1031600085FF03C0802F0E94C2060E944E060EC03B
:1031700085E30E942C03813149F48AE30E947B039A
:1031800086E30E947B0384E30E947B036E96E4E067
:103190000C947D48AEE1B0E0E0EDF8E10C946148BC
:1031A0008C01FC018181823711F49CDD36C08337AC
:1031B00011F0863601F54DE1BE016F5F7F4FC8010A
:1031C00002960E94C60699270197298130E082174E
:1031D000930729F081E292E00E9441061EC061E05F
:1031E00070E0F8018181833711F060E070E0CE017A
:1031F0000196BADD12C0813621F443E067E673E040
:1032000005C0873741F443E064E673E0C8010296E5
:103210000E94C60602C010925F036E96E4E00C9412
:103220007D481092BE0D1092250483E080936F03B9
:103230008FEF8093D30D0895E0E7F3E02081211113
:1032400005C0892BB1F080E090E00895B4E0EE3144
:10325000FB07B8F7009751F04181DC013C91431323
:1032600005C0428111963C91431751F0E20FF11DC8
:10327000E5CF34E0EE31F30719F010F0EEE1F4E0C1
:10328000CF01089594E0899FF0011124EC52F24F90
:1032900080818F3F91F080936A03818180936B03DB
:1032A000828180936C03838180936D0321E04CE0E5
:1032B00064E08AE693E00C945A0A08958FE194E062
:1032C000BBDF009799F020916F03FC013081231739
:1032D00068F4E20FF11D80818093210489E78093D7
:1032E000220481818093230481E0089580E0089581
:1032F000EF92FF921F93CF93DF931F92CDB7DEB76C
:10330000182F8091880986FF18C084E599830E9450
:10331000F705E12E9981F92E15E0F70181917F01E2
:103320000E94C2061150C9F78091880985FF03C029
:103330008AEF0E94C2060E944E060F90DF91CF9145
:103340001F91FF90EF90089586E30E947B03809188
:103350002104833511F48BE901C08BE40E948705B9
:1033600021E04CE065E08FE194E00E945A0A0E945F
:10337000EF038FE194E0BCCFE7DF80912104893631
:1033800031F081E080931E0489E28093D30D08958B
:10339000CF9385E390E00E9453078093A40D86E3CA
:1033A00090E00E9453078093D20DCFEFC093C20DDF
:1033B000C093C40DC093C60DC093C80DC093CA0D71
:1033C000C093CC0DC093CE0DC093D00D2ADF1092C8
:1033D000700381E08093A30DC093D40D8FEF9FEF16
:1033E0009093A70D8093A60D1092A90D1092A80D91
:1033F0001092AB0D1092AA0DC093D80D9093AD0D05
:103400008093AC0D1092AF0D1092AE0D1092B10DD5
:103410001092B00DC093DC0D9093B30D8093B20D5C
:103420001092B50D1092B40D1092B70D1092B60D0A
:10343000C093E00D9093B90D8093B80D1092BB0D21
:103440001092BA0D1092BD0D1092BC0DCF9108953F
:10345000ACE0B0E0EEE2FAE10C945C486C018C0167
:103460000F5F1F4F45E0BE016F5F7F4FC8010E9495
:10347000C606843008F0F3C099819130A9F48330F6
:1034800061F46A8185E390E00E944E076B8186E3D8
:1034900090E00E944E077CDF06C28091A40D0E943E
:1034A000C2068091D20D9AC0923009F051C081308D
:1034B00039F081E09A81913009F080E0F82E02C065
:1034C000FF24F39480917003811104C086E792E099
:1034D0000E94410600E713E0F8018081882309F487
:1034E000BBC0F4E00E311F0708F0B6C033E0003770
:1034F000130719F080E20E94F705F80181810E940C
:10350000C206F80182810E94C206FF20E1F08AE330
:103510000E94F70593E0F80180819817A0F4943099
:1035200038F090FF05C08CE29C870E94F7059C85CF
:10353000EE24E394E90EF801E90FF11D80810E9469
:10354000C2069E2DE8CFF8018081080F111DC4CF5F
:10355000933049F480E090E06FDE805793409EEA1C
:10356000981B892F3BC0903171F502EC1DE083EC74
:10357000E82E8DE0F82EC12CD12CF80180818F3FF0
:10358000A1F0DD2019F080E20E94F7058C2D0E9449
:10359000C2068AE30E94F705F80180810E94C206F4
:1035A000F70180810E94C206D3940E5F1F4FC3941F
:1035B000F2E0EF0EF11C38E0C312DFCFD1104CC0A7
:1035C00084E892E047C0913161F48091C00D909100
:1035D000C10D6DE770E00E940A48862F0E94C20666
:1035E0003BC09231C9F514EDE12E1DE0F12E07ED3F
:1035F0001DE0C12CD12CF70180818F3FF1F0DD203F
:1036000019F080E20E94F7058C2D0E94C2068AE321
:103610000E94F705F70180810E94C206F8013297E7
:1036200080810E94C206F801319780810E94C20603
:10363000F80180810E94C206D394F4E0EF0EF11CE1
:10364000C3940C5F1F4F34E0C312D5CFD11004C018
:1036500080E892E00E9441060E944E0624C144E0A8
:10366000BE01695F7F4FC8010E94C6064F8149367F
:1036700008F477C07A85588569857C3009F04BC09D
:1036800020E030E080E090E0F901EC52F24F7081F0
:1036900074131CC0A181A51319C0A281A61316C062
:1036A0002CE023839C01220F331F280F391FF901BF
:1036B000EE0FFF1FEA55F24F11821082F901EE0F53
:1036C000FF1FE855F24F11821082CFC07F3FD9F41F
:1036D0004083518362832CE023839C01220F331F9C
:1036E000280F391FF901EE0FFF1FEA55F24F118223
:1036F0001082F901EE0FFF1FE855F24F1182108280
:103700001092A30DB2C001962C5F3F4F20313105BE
:1037100009F0BACFC8C080E090E020E030E0FC01C2
:10372000EC52F24FA081A41315C0A181A51312C0C1
:10373000A281A6130FC07383F901EE0FFF1FE20FE2
:10374000F31FEE0FFF1FE855F24F81E090E09183E9
:103750008083A9C02F5F3F4F049680319105F9F611
:10376000A2C0E9818091A40DE817C0F190E0F0E0DB
:103770009C01295F3F4F2E173F0784F13A8120912A
:10378000D20D32132BC03C813F3231F442E06CE069
:10379000C6010E94C70A87C02D813C32B1F4209334
:1037A000BF0D81E090E09093C10D8093C00D80919A
:1037B000860990918709E4E02E9F800D911D1124C8
:1037C00090938709809386096EC0E81BF90BEE0F72
:1037D000F0E0EE53F24F3083218365C080E090E04B
:1037E0002BDD7C01F80101900020E9F73197E01B07
:1037F000F10BF695E795BB24B394BE0EC7018B0D74
:10380000911D805793408F3A91050CF048C0F70105
:10381000B1928F0121E0822F880F81502B15D8F4AF
:1038200041E0B801F601E80FF11DCF012C870E949D
:10383000C6062C85233058F020FD09C0D801119709
:103840008C91843621F4F80180818093A50D2F5F3F
:103850000F5F1F4FE0CFFEE1EF16F4E0FF0618F513
:10386000F701E20FF11D10821EC022E04CE064E07F
:10387000CE0107960E945A0A8FE08A8722E04CE028
:1038800064E0CE0107960E945A0A82E08A8722E00D
:103890004CE064E0CE0107960E945A0A04C08AE711
:1038A00092E00E9441062C96E9E00C9478480F9330
:1038B0001F93CF93DF939091A30D91114FC093E08D
:1038C000899F80011124F801EE0FFF1FEA55F24F86
:1038D00094E0899FD0011124AC52B24F12969C9172
:1038E000977040E850E0491B51099AEF949F90016E
:1038F000959F300D11243595279535952795318362
:103900002083E801CC0FDD1FC655D24F28813981B5
:103910002F5F3F4F39832883000F111F0855124F27
:10392000F801408151814115510529F424303105B8
:10393000A9F4A8DC11C04130510539F4A3DC82E0C0
:1039400090E0F8019183808309C04230510531F441
:1039500099DCF8011182108219821882DF91CF91CF
:103960001F910F910895A6E0B0E0E9EBFCE10C9403
:103970005F482091D20D2A831B828091BF0D88233E
:1039800041F0833019F487E791E00FC08DE790E0B4
:103990000CC0277030E02A513F4F4DE7429FC001D5
:1039A000439F900D1124959587959093C10D809319
:1039B000C00D03EC1DE0F12C8CE2E82EF8013197EC
:1039C00090819F3FC1F08091A40D8F0D89838091DC
:1039D000BF0D882311F0EC8203C09C83F801808125
:1039E0008D8321E04CE065E0CE0101960E945A0AE9
:1039F000CE0101967DDCF3940E5F1F4FF8E0FF12BD
:103A0000DDCF8091BF0D882341F0833019F41092EF
:103A1000BF0D03C082508093BF0D2696E6E00C9444
:103A20007B4880911E04882351F08EDC89E28093CC
:103A3000D30D80911E04815080931E040895F1CB14
:103A4000FF920F931F93CF93DF93FC01F0800181CE
:103A5000C281D38114818FE58093D30D10921E040F
:103A60008091A40D811105C08091D20D882309F4A5
:103A7000A9C080911F048F1104C080912004801779
:103A800029F0CFDBF0921F04009320048091BE0D3B
:103A90008F3F09F497C0C0932104D0932204109360
:103AA0002304CC23F1F081111CC08091A40D1817C0
:103AB00061F0143651F08DEA8C0F823010F0CD3762
:103AC00039F48FEF8093BE0D7DC0C43509F47AC000
:103AD0008D2F807F803609F075C0D067D093220487
:103AE00057C0ECDB811105C08091BE0D882309F41D
:103AF00069C080912504811107C0E091BE0DF0E0FE
:103B0000E857FD4FE49101C0E82FE33541F4C43597
:103B100031F49091BE0D9E5F9093BE0D04C0EC17E2
:103B200011F07FDB4FC0882369F080916F038E5FB7
:103B300080936F03C3DB81110EC08091BE0D8E5F39
:103B40008093BE0D8091BE0DE82FF0E0E757FD4F4A
:103B500014911F3F59F480912104809325048436E9
:103B6000B9F48091A50D8093230412C01093210411
:103B700097E7909322049091A40D909323048E5F75
:103B80008093BE0D109225048E3021F01123D1F0C8
:103B9000F3DB18C08FE194E04FDBDC01009781F08C
:103BA0002C9130E08EE194E0821B930BA817B907AB
:103BB00030F4ED01C20FD31F48814D93F7CF1C9213
:103BC00030DBE4CFCDB7DEB7E5E00C947C48FF9264
:103BD0000F931F93CF93DF938C01EC01099000208A
:103BE000E9F72197C81BD90BFC018181823751F479
:103BF00087E390E00E947F030E94EF0381E08093BF
:103C0000E40D27C0833719F5FC2E2C988FE70E940E
:103C1000B8028C2F82500E94B802E801229612E06E
:103C20001F1528F489910E94B8021F5FF9CF2C9AC2
:103C30000E94DD038AE30E942C038F7729F084E63B
:103C400090E00E948205F6CF0E94EF0302C010921E
:103C5000E40DCDB7DEB7E5E00C947C48A0E0B4E01D
:103C6000E4E3FEE10C945D488091E40D882309F4BF
:103C700052C0813011F58091820990918309A09101
:103C80008409B091850920912604281709F443C0BE
:103C900085E30E942C03813129F48AE30E947B038F
:103CA0000E94EF038091820990918309A091840979
:103CB000B0918509809326042EC08FE30E942C03C7
:103CC000D82E2C988FEF0E94B8028E010F5F1F4FE5
:103CD0007801C02E8E2D801B8D1538F480E00E9457
:103CE000B802F70181937F01F5CF2C9A81E0809390
:103CF000B302802F8C198D1530F4F80181918F015A
:103D00000E94F705F6CF0E944E068FEF8093B30214
:103D100081E08093E40DDC5FE8E00C947948209129
:103D20005621309157212115310521F4209122018E
:103D3000309123018091200190912101009741F45D
:103D40008DB79EB74091240150912501841B950B9E
:103D50002817390718F4821B930B089580E090E030
:103D6000089582E40E94F70540E265E080915621C3
:103D7000909157210E9452060E944E0683E50E94B0
:103D8000F70540E265E080912201909123010E94B5
:103D900052060E944E0685E40E94F70540E265E067
:103DA00080912001909121010E9452060E944E06AE
:103DB00086E40E94F705B3DF40E265E00E94520608
:103DC0000C944E061F920F920FB60F9211240BB651
:103DD0000F922F933F934F935F936F937F938F93A4
:103DE0009F93AF93BF93EF93FF938091E90D9091D1
:103DF000EA0D892B39F085EE9DE00E9459098093E8
:103E0000C60005C08091C1008F7D8093C100FF91E5
:103E1000EF91BF91AF919F918F917F916F915F9142
:103E20004F913F912F910F900BBE0F900FBE0F90AF
:103E30001F9018951F920F920FB60F9211240BB678
:103E40000F922F933F934F935F936F937F938F9333
:103E50009F93AF93BF93EF93FF9385B191E0892731
:103E600085B96091C6008091C000887121F48BEE05
:103E700091E10E943B09FF91EF91BF91AF919F911A
:103E80008F917F916F915F914F913F912F910F9003
:103E90000BBE0F900FBE0F901F90189597FF04C098
:103EA00022E02093C0009F779093C5008093C400C8
:103EB00088E98093C10086E08093C20008958091D4
:103EC000C10085FD0BC08091E90D9091EA0D892B11
:103ED00029F08091C10080628093C1000895E09133
:103EE0007E09F0917F0981E00995E9CF0F931F9337
:103EF000CF93DF93EC0110E0812F90E09C01220F23
:103F0000331F280F391FF901E456FF4F0491235640
:103F10003F4FF90145915491002399F0209739F4CE
:103F200080E20E94F705802F0E94F70508C0888173
:103F3000801305C0CE01FA01099581E003C01F5F1F
:103F4000DBCF80E0DF91CF911F910F910895CF9348
:103F5000C091B3028093B3028091EF119091F01160
:103F6000892B91F18BEE91E10E945909E091270490
:103F70008A3011F08D30F9F4EE2371F3F0E0E85D52
:103F8000FB4F108288E294E0B1DF811111C08EEA0C
:103F900092E00E94410688E294E00E94360686E99B
:103FA00092E00E94410680E090E0A0DF0E944E0671
:103FB00010922704D1CF91E09E0F90932704F0E058
:103FC000E85DFB4F8083C8CFC093B302CF910895C3
:103FD0001F93CF93DF93EC0116E0115048F08991C5
:103FE0000E94C2061123C9F38AE30E94F705F5CFA8
:103FF000DF91CF911F910895EF92FF920F931F933E
:10400000CF93DF93EB01FC01E080F180FE24EF24ED
:10401000FE24028113811027012710276F2DCE0166
:104020000E944E076E2DCE0101960E944E07612F11
:10403000CE0102960E944E07602FCE0103960E9489
:104040004E07CDB7DEB7E6E00C947B48A5E1B0E0C3
:10405000ECE2F0E20C94614889E68A8384E68B8383
:1040600068EF72E0CE0104960E949048CE0101965E
:104070000E94F70781E68B836AEE72E0CE01049618
:104080000E949048CE0101960E94F7078EE68B832E
:104090006CED72E0CE0104960E949048CE0101962C
:1040A0000E94F70787E68B8360ED72E0CE010496ED
:1040B0000E949048CE0101960E94F70780E78B830B
:1040C0006BEC72E0CE0104960E949048CE010196FE
:1040D0000E94F7078EE48B8363EC72E0CE010496B6
:1040E0000E949048CE0101960E94F7078FE68B83CD
:1040F00060EC72E0CE0104960E949048CE010196D9
:104100000E94F7078AEF9FE00E945307843A71F5F7
:104110008BEF9FE00E945307803541F58CEF9FE0C5
:104120000E945307853511F58DE68B8369EB72E0AC
:10413000CE0104960E9490488DEF9FE00E945307A5
:10414000BE01665F7F4F0E943B078EEF9FE00E949B
:104150005307BE01645F7F4F0E943B078FEF9FE0D4
:104160000E945307BE01625F7F4F26C08DE68B839E
:1041700062EB72E0CE0104960E949048E0E0F0E02D
:1041800000E010E081E2809357009491090F111D27
:104190003196E032F105B9F7BE01665F7F4F80E0EE
:1041A0000E943B07BE01645F7F4F812F0E943B0747
:1041B000BE01625F7F4F802F0E943B07188ACE01AD
:1041C00001960E94F7076596E4E00C947D4843D57C
:1041D00085EF95E10E944730892B09F438C085EFBF
:1041E00095E10E943D308EE096E190930D1680930C
:1041F0000C1682E08FD68091FF1590910016892BC6
:1042000019F00E94362F55D484E19DE19093091650
:104210008093081685E07ED68091FF159091001658
:10422000892B19F00E94362F44D483E49DE19093AA
:1042300009168093081685E06DD68091FF15909140
:104240000016892B19F00E94362F33D42DD581EF1B
:1042500095E10E944730892B31F081EF95E10E9472
:104260003D300C946C2E0895A0E0B0E0EAE3F1E25A
:104270000C945D488C01EB01CB010E9453077E0139
:104280008FEFE81AF80AC7010E945307D82ECE0113
:104290000E945307C82EC7010E9453072C2D30E0FF
:1042A0003D29F801318320837E01F2E0EF0EF11CFD
:1042B000C7010E9453072396CE010E945307D82EB0
:1042C000C7010E945307F82ECE010E9453072F2DDD
:1042D00030E03D29F80133832283CDB7DEB7E8E033
:1042E0000C947948A4E0B0E0E8E7F1E20C9463486C
:1042F00069E670E0CE010196B7DF89819A819093DB
:104300003117809330178B819C8190933317809362
:10431000321761E770E0CE010196A6DF89819A81AC
:1043200090932917809328178B819C8190932B174A
:1043300080932A176DE670E0CE01019695DF8981A2
:104340009A8190932D1780932C178B819C81909349
:104350002F1780932E1786E794E0A8D346D10E94AA
:10436000E8322496E2E00C947F48549A5C9888ECFA
:104370000E9487055C9A88EC0E9487057DD382E6BF
:1043800090E00E94530780932B0883E690E00E9400
:10439000530780932C0884E690E00E945307809393
:1043A0002D0885E690E00E94530780932E0886E64C
:1043B00090E00E94530780932F0887E690E00E94C8
:1043C0005307809330088BE298E058D380912B08F4
:1043D0008093320880912C088093330880912D08B7
:1043E0008093340880912E088093350880912F089F
:1043F00080933608809130088093370808D5109252
:10440000CB081092CA086FE170E085EF95E10E9439
:10441000313062EE74E081EF95E10E94313088E640
:1044200090E00E945307882351F086EA94E03ED33F
:104430008BE298E00E94B43210922A08089582E03C
:1044400080932A084FCF1F93CF93DF93FC01818184
:10445000893611F48ADF2BC08336C1F4C0E3D7E17B
:1044600014E0115060F0899140E261E090E00E9418
:1044700052061123B1F38EE20E94F705F2CF80E2DB
:104480000E94F70582E398E0A3DD0AC0843659F460
:10449000809129088F5F8370809329080E94C2064B
:1044A0000E944E0604C08E3611F40E94C934DF917A
:1044B000CF911F910895CF93DF93EC01009711F4F2
:1044C00011DF3CC069E670E0469696DD8E899F89D3
:1044D0009093311780933017888D998D909333176F
:1044E0008093321761E770E0CE01829685DD8AA164
:1044F0009BA190932917809328178CA19DA190933D
:104500002B1780932A176DE670E0CE014A9674DD72
:104510008A8D9B8D90932D1780932C178C8D9D8D5C
:1045200090932F1780932E17EB81FC8115821482B4
:1045300086E794E0BBD259D00E94E832DF91CF9158
:104540000895E0910C16F0910D162481358180912B
:10455000F9159091FA152817390709F46FC00895D5
:1045600080912A08823029F00E94623180932A08C3
:104570000895E0910816F0910916309759F080914E
:10458000071681FF07C08481958181159B4711F42F
:104590000C94F93408951F93CF93DF93C0910C16B8
:1045A000D0910D168091E90D9091EA0D892BC9F0FB
:1045B0008D8D8A3F49F482E0ADD40E94362F79D2A6
:1045C00082E00E94870503DE1D8D81E0810F8D8FC3
:1045D00085EE9DE00E945909FE01E10FF11D868FD5
:1045E000E1CFDF91CF911F91089589E790E00E947C
:1045F000C348292F30E0582F40E0C901842B952B68
:104600009093FA158093F91574D41092FC151092BA
:10461000FB150895E0912B16EA3F40F491E09E0FC0
:1046200090932B16F0E0E65DF94E82830895E091B9
:104630000C16F0910D1682E0848F08950F931F934E
:10464000CF93DF93E0910C16F0910D164091071671
:1046500046FF15C0158E81E0848F8091FB159091E7
:10466000FC159C012F5F3F4F3093FC152093FB15E9
:10467000892B29F48091B30284608093B302848DE6
:104680008230B9F481E0848F80E1809307168091B5
:10469000FB159091FC1501979093FC158093FB15E9
:1046A000892B09F060C08091B3028B7F8093B302A5
:1046B0005AC0842F807311F447FF02C0158E148EE8
:1046C00041FF2EC00091FF15109100160115110534
:1046D00039F130910A1620910B168BEC92E29093EF
:1046E0007D0980937C09C32FD22F69918BEE91E1D4
:1046F0000E943B098091EF119091F0118115944037
:1047000031F4E0917E09F0917F0984E00995015030
:10471000110959F7E0917E09F0917F0984E009952C
:104720008091071682FD05C0982F937011F488744C
:10473000D1F0C0910C16D0910D164D8D442399F0F7
:1047400050E0BE01625E7F4F80910A1690910B1679
:104750000E94A4486D8D70E080910A1690910B160E
:104760000E94C72D1D8EDF91CF911F910F9108954B
:1047700014988AE30E94343580E00E943435149AFC
:104780000895CF93C82F14988AE70E9434358C2F50
:104790000E943435149ACF910895CF93C82F40EAE0
:1047A00063E08FE1A1D06C2F637040E88FE19CD073
:1047B000C0933108CF910895CF93DF93C82FD82F9E
:1047C000DF712D2F30E02B31310584F4282F207636
:1047D000822F90E025E0959587952A95E1F7409105
:1047E000310850E08417950709F0D7DF14988D2F12
:1047F0000E94343580E00E943435C7FF03C080E05A
:104800000E943435149ADF91CF91089514988FEF58
:104810000E9434358DE1D0DF80FFFCCF149A0895DB
:10482000CF93DF93D62FC82FCF714C2F50E04B3151
:10483000510584F4282F2076822F90E025E095956D
:1048400087952A95E1F74091310850E08417950744
:1048500009F0A3DF14988C2F80640E9434358D2FCB
:104860000E943435149ADF91CF910895A1E0B0E011
:10487000ECE3F4E20C946348682F80E09983D0DF86
:104880009981692F81E0CCDF2196E2E00C947F488A
:10489000A1E0B0E0EEE4F4E20C946348682F82E01B
:1048A0009983BEDF9981692F83E0BADF2196E2E028
:1048B0000C947F48A1E0B0E0E0E6F4E20C9462489A
:1048C000162F682F84ED7983ABDF612F86EDA8DF8B
:1048D0007981672F87EDA4DF8AEE6EDF80FDFCCF44
:1048E0002196E3E00C947E48A1E0B0E0EAE7F4E230
:1048F0000C946148062F182F1F71E12FF0E07B9771
:1049000094F4282F2076822F90E025E095958795C6
:104910002A95E1F7E0913108F0E08E179F0719F032
:1049200049833BDF49811498812F842B0E943435C1
:10493000802F0E943435149A2196E4E00C947D482F
:10494000CF93682F84ED6CDF40E861E082EDCCDF2F
:104950008AEE32DF80FDFCCF40EA61E082EDC4DF09
:1049600088ED2ADFC82F89ED27DF2C2F30E0A90141
:10497000582BCA01CF9108950C9A149A47DF60E032
:1049800088E04EDF60E089E04BDF6FEF8AE048DFD0
:104990006FE08BE045DF60E084E042DF60E185E0CE
:1049A0003FDF60E08CE03CDF60E08DE039DF60E01D
:1049B0008EE036DF60E08FE033DF1092FE1510925C
:1049C000FD1540EA60E881EC8FDF40E86DE080ECA7
:1049D0008BDF40E862E382EC87DF60E070E080E03C
:1049E00069DF80E0ADDF90FF06C040E861E082EC67
:1049F0007BDF62E105C040EA61E082EC75DF65E1E2
:104A000084EC0EDF62E186EC0BDF6CE087EC08DF04
:104A100060EE8AEC05DF65E08BEC02DF6091320826
:104A200084EEFEDE6091330885EEFADE6091340894
:104A300082EEF6DE6091350883EEF2DE6091360894
:104A400080EEEEDE6091370881EEEADE63E888E30F
:104A5000E7DE62E17CE084E12DDF6BED8BE1E0DEFF
:104A600062E170E082E126DF40E864E08FE13CDF54
:104A700040E860E88EE138CF7FCF0895CF93DF9391
:104A8000EC01688184EECCDE698185EEC9DE6A8145
:104A900082EEC6DE6B8183EEC3DE6C8180EEC0DE0B
:104AA0006D8181EEBDDEDF91CF910895BC0184E17F
:104AB00001CFCF93DF93C4E68FE17EDE83FF03C097
:104AC000C150D0F702C0CC2391F160E084E0A8DEB1
:104AD00060E185E0A5DE6091FF1586E0A1DE8091B2
:104AE000FF1590910016905F692F87E099DE80E0B6
:104AF00090E1CEDE80E045DEC4E3D7E18091FF1592
:104B0000909100169E01245337412817390718F455
:104B1000899137DEF3CF40E860E88FE1E5DE40EAD7
:104B200060E88FE1E1DE40E868E08FE1DDDEDF9103
:104B3000CF910895A4E0B0E0E0EAF5E20C945F487C
:104B400089E33ADE882309F480C08091FD159091B5
:104B5000FE158CDE0DDE182F0BDE212F30E0382BFA
:104B60003093FE152093FD158E010F5F1F4F7E01C0
:104B700025E0E20EF11CFCDDF80181938F01EE15BA
:104B8000FF05C9F789819A818C01045011091A83A4
:104B9000098342978F3C954028F484E3E82E87E10F
:104BA000F82E02C0E9DE51C0C70184539741801737
:104BB000910728F4DDDDF70181937F01F5CF109394
:104BC00000160093FF158091401790914117982788
:104BD000892798278115F8E09F0761F08630984073
:104BE000A1F40E94962E8091FF1590910016892BBA
:104BF00061F00AC081E08ED18091FF15909100167E
:104C0000892B19F00E94362F54DF6091FD157091A9
:104C1000FE15CB0101978115904128F06FEF8CE0D4
:104C2000FFDD6FE009C061508CE0FADD8091FD1579
:104C30009091FE150197692F8DE0F2DD40E860E468
:104C40008EE152DE81E090E002C080E090E02496A8
:104C5000E6E00C947B48CF9389E3AEDD882311F125
:104C60008CE1AADDC82F40EA60E88BE13DDEC3FF9E
:104C700008C040EA68E08CE137DE40EA6AE08DE196
:104C800033DE58DFC0FF04C040EA61E08CE12CDE77
:104C9000C1FF04C040EA62E08CE126DE40E860E843
:104CA0008BE122DECF91089582EC86DD8273823320
:104CB00009F062CE80EC80DD8D30D9F70895FB01DC
:104CC00041505109460F571FE417F50778F420812A
:104CD00030E0322F22276181260F311D820F931F72
:104CE0008217930708F401963296EECFE417F50782
:104CF00051F4208130E0322F2227820F931F821738
:104D0000930708F401960895FC015381560F5093C0
:104D10000616872F99274281480F40930516A181D7
:104D2000A0930416E081E0930316242F30E02817A7
:104D3000390748F481E08A0F80930416811103C07B
:104D4000EF5FE0930316852F90E07727861797078C
:104D500088F44F5F4093051641110CC080910416F2
:104D60008F5F80930416811105C0809103168F5FB9
:104D700080930316089520910C1630910D16BC01F6
:104D8000C9010896C1DFE0910C16F0910D168091D3
:104D9000031680878091041681878091051682878B
:104DA000809106168387089544E150E062E477E13C
:104DB00080E090E084DF009721F0982789279827EA
:104DC00008958FEF9FEF0895CF93DF93C09144171D
:104DD000D0E0DC2FCC2780914517C80FD11D48E0CB
:104DE00050E06EE477E1CE010E9769DFAE014451E9
:104DF000510966E577E163DF009721F0982789275D
:104E0000982702C08FEF9FEFDF91CF910895109206
:104E10002717109226171092271680E09FE2989F7E
:104E2000F0011124EC5EF24E158214828F5F823005
:104E3000B0F380933B08089520913C0830913D08E1
:104E4000A091181DB091191DE091471DF091481DCA
:104E50002F5F3F4F21154DE7340710F020E030E180
:104E6000522F432FA417B50799F3E417F50781F3E1
:104E700030933D0820933C0840E05FE24230A0F4CC
:104E8000A1E0A40F549FF0011124EC5EF24E2481A6
:104E90003581232B39F440933B08309741F480E06F
:104EA00090E008954A2FEACF40933B08F8CF209135
:104EB0003C0830913D08322723273227358324834D
:104EC00077836683009729F41082118212821382FD
:104ED0000CC0DC012D913C911197318320831296F7
:104EE0008D919C9113979383828380E48087CF0177
:104EF00008952091261730912717232B39F410920B
:104F00003B089093271780932617089581E080939C
:104F10003B0808950F931F93CF93DF93C0910C1616
:104F2000D0910D16843009F4A0C12AE637E1309300
:104F30000B1620930A163093021620930116833025
:104F400059F4898D8F70833009F012C68889998948
:104F5000892B09F00DC677C0823009F079C08091A5
:104F600041088F5F80934108811113C080914008F0
:104F70008F5F8093400881110CC080913F088F5F44
:104F800080933F08811105C080913E088F5F809318
:104F90003E08109200161092FF151092131D1092E9
:104FA000121D298D822F8D7F853041F48A8D8F5F70
:104FB0008A8F883709F0DCC5198EDAC5222309F4F7
:104FC000D7C588899989892BD1F18A8D9FEF980F50
:104FD0009A8F8111CDC58B8D883031F09FEF920F64
:104FE000923040F4853031F4198E80E880930716B2
:104FF000A8DA6BC4853038F493E0082E01C0990F0D
:105000000A94EAF701C090E39A8F8F5F8B8F822F0B
:105010008F70843009F4F1C358F4813009F4E1C28F
:10502000833009F0A5C584E0809307168ADA81C42D
:10503000863009F4E2C3883009F09AC5DEC32F70C8
:10504000233009F095C588E0809307167ADA34C4D6
:10505000853019F5E0910816F09109168481958143
:10506000892B09F485C510920D1610920C168EE549
:1050700097E190930B1680930A16909302168093F3
:1050800001161092131D1092121D1092001610920C
:10509000FF1588E080930716E7C08091421785349A
:1050A00009F066C5C0914417D0E0DC2FCC27809171
:1050B0004517C80FD11D8091FF15909100168C17D0
:1050C0009D0708F455C5D0930016C093FF15809135
:1050D00048178F7309F04CC580914917811148C555
:1050E00000913017109131170115110531F480919D
:1050F000321790913317892BA1F08091521790911C
:1051000053178017910709F033C520915417309138
:10511000551780913217909133172817390709F0E6
:1051200027C542DE019609F023C580914B178630D2
:1051300009F4F2C08131B1F1813009F019C58091D3
:105140005617883009F014C51092561780915817D9
:1051500090915917873FCFEF9C0710F0099601C037
:105160000896909359178093581780914E179091F5
:105170004F17909353178093521780915017909127
:105180005117909355178093541710934F1700930E
:105190004E17809132179091331790935117809347
:1051A0005017EAC46C97D0930016C093FF15209156
:1051B00058173091591740915617509157176091D1
:1051C0004E1770914F17A0915017B0915117E4E10D
:1051D000FDE18DE1E237F80748F58481958100977C
:1051E00019F12817390701F586819781009719F081
:1051F00048175907C9F480819181009729F4C28129
:10520000D381CD2B49F417C08F3F1FEF910721F4B5
:10521000C281D381219679F06817790729F48281B8
:105220009381A817B90739F0BF96D3CFF093091629
:10523000E09308169DC4F0930916E09308161092A7
:105240000D1610920C1682E0809307168EE597E1FA
:1052500090930B1680930A16909302168093011672
:105260001092131D1092121D7BD98091121D9091E6
:10527000131D009709F47CC49C01245E3F4F3093BA
:1052800000162093FF153093441720934517E091A3
:105290000816F0910916208520934A1721E12093E2
:1052A0004B17089698278927982790935B17809328
:1052B0005A1710925D1710925C1784819581909314
:1052C000571780935617868197819093591780932B
:1052D0005817809130179091311790934F17809302
:1052E0004E178091321790913317909351178093F6
:1052F0005017808191819093531780935217828128
:10530000938190935517809354178AE697E1909371
:105310000B1680930A160AC457DD019609F028C4BB
:105320005091271640916317552369F12091581722
:10533000309159178091121690911316281739073A
:1053400011F52091561730915717809114169091AE
:10535000151628173907B9F420914E1730914F17B9
:1053600080910E1690910F162817390761F420913D
:1053700050173091511780911016909111162817DF
:10538000390709F445C1842F8F73823019F042FD2B
:10539000EFC317C08091581790915917909339080F
:1053A000809338082091261730912717821793078A
:1053B00009F0E9C3511176C010923B08CEE0D6E166
:1053C0007BC084E18093631788E290E0909300169D
:1053D0008093FF1580E58093621780915D1790910F
:1053E000611790935D1730915C17909160179093BF
:1053F0005C173093601720915B1790915F17909323
:105400005B1720935F1790915A1790933B08409138
:105410005E1740935A1790935E178F5F80936117C2
:1054200081110FC081E0830F80936017811109C043
:1054300081E0820F80935F17811103C09F5F90937B
:105440005E17809156179091571790933908809363
:1054500038082091581730915917309357172093D7
:105460005617909359178093581780914E17909123
:105470004F17909353178093521780915017909124
:105480005117909355178093541710934F1700930B
:105490004E17809132179091331790935117809344
:1054A00050172AC3573019F4CEE0D6E102C0C0E04D
:1054B000D0E081E080933B08209709F459C3D09352
:1054C0000D16C0930C1683E08A8F888F1E8A84E0A5
:1054D0008F8B1B8E80915817909159179D838C83C9
:1054E00080915617909157179F838E8380914E1706
:1054F00090914F17998388838091501790915117FD
:105500009B838A8381E0898F80913E088C8780917C
:105510003F088D87809140088E87809141088F8752
:1055200081E090E0998B888B80915D178B878091CB
:105530005C178A8780915B17898780915A178887C3
:1055400081E090E018DC80916217282F207F30E006
:10555000213531050CF445C082958F7090E0059798
:10556000880F991F880F991F30913A0820E0E22F89
:10557000F0E0E817F9078CF5EC5CF84E36A931112C
:1055800005C020933B0810923A082BC0313011F42B
:105590002F5FEDCF3230E1F447A94430C9F42093B6
:1055A0003B0830933A0880AD90E0982F882721ADD2
:1055B000822B9093390880933808873A15E0910739
:1055C00010F086EA95E09B8B8A8B9D8B8C8B09C0B3
:1055D00047A9442311F0240FCACF20933B083093EE
:1055E0003A0882E18093631782E080936A1784E02F
:1055F00080936B1785E080936C1786EA80936D1714
:105600008CE290E0909300168093FF1580E621C213
:105610008EE096E190930D1680930C16109207166B
:1056200042FF04C01092271680E2B1C18091621738
:1056300082958F70880F880F80933B08C81BD10913
:105640006497D0930016C093FF155F70523021F419
:10565000842F8F738231E9F0CD2B19F4842F83705E
:10566000C1F090915A17809116169813E6C1909147
:105670005B17809117169813E0C190915C17809189
:1056800018169813DAC190915D1780911916981326
:10569000D4C144FF58C060911E1670911F16611549
:1056A000710509F450C08AE196E12EDB30915E1756
:1056B00080910316381347C020915F17809104161C
:1056C000281341C0909160178091051698133BC034
:1056D0008091611740910616841335C030931A16D5
:1056E00020931B1690931C1680931D1680912916EB
:1056F00081111EC0909124168091261620912816A3
:10570000821B292F269526952695821B980F90930C
:10571000241620912516322F36953695831B820F3D
:1057200080932516969596959695980F90932616A4
:1057300081E0809307168091261680932816109298
:105740001F1610921E1640912716842F8F7090E01E
:10575000FC013197E830F10508F00AC2EA5BFF4F1F
:105760000C948A488091071680FF02C283E08093E0
:10577000271680E48093071610921F1610921E16AB
:105780008091FF1590910016009709F48DC022E4D6
:1057900020930716F0DA88C08091631780FF31C02C
:1057A00044FD2FC080911E1690911F16892B09F081
:1057B000DFC18091FF15909100160196DCDA2091EF
:1057C0000716822F8061809307168091FF159091B4
:1057D0000016892B19F02261209307160E94A1223E
:1057E00081E090E090931F1680931E1688E08093CE
:1057F000271610922916CEE0D6E181E18093631737
:1058000021C185FF1CC08091681790E0982F8827E0
:1058100020916917822B20910A1630910B16280FC0
:10582000391F30930B1620930A162091FF153091E3
:105830000016281B390B309300162093FF1580911A
:10584000FF1590910016009741F044FD06C020918D
:1058500007162260209307168EDA8091641790E075
:10586000982F882720916517820F911D90933908F2
:105870008093380820912216309123162817390773
:1058800010F0892B21F43093390820933808809147
:1058900038089091390890932116809320168091B2
:1058A0000716837009F464C11092131D1092121D23
:1058B0000E94A122CEE0D6E18091071685FF07C0A5
:1058C0001092131D1092121D198E84E197CF84FF40
:1058D0000CC01092131D1092121D81E090E0998B64
:1058E000888B84E0898F1B8E88CF2091121D309188
:1058F000131D21153105E1F080FF02C0198A188AB5
:1059000088899989009781F48A899B8982179307EE
:1059100020F49093131D8093121D8091121D90917D
:10592000131D998B888B04C09093131D8093121DB7
:105930001B8E809101169091021690930B16809306
:105940000A168091121D9091131D892B59F0888998
:105950009989009739F08896909300168093FF15E7
:1059600088E10BC08091071681FF02C188E290E0B8
:10597000909300168093FF1580E18093631768C0B1
:105980008091071680FFF4C01092271680E1809363
:1059900007160E94A122ECC08091FF15909100167D
:1059A000009709F0E8D9909163178091071690FF4E
:1059B00010C080FF0AC087E0809327161092281637
:1059C00010921F1610921E161EC086E08093271696
:1059D0001AC080FF21C085E08093271610921F1601
:1059E00010921E16C5C08091FF1590910016009769
:1059F00009F0C1D98091631780FF0EC087E08093C2
:105A000027161092281681E090E0B5D980E18093A6
:105A100007160E94A12211C08091FF1590910016D7
:105A2000892B59F4A5C08091071680FFA1C087E09B
:105A300080932716109228169BC080E180936317ED
:105A4000CEE0D6E188E290E0909300168093FF15B7
:105A500080E580936217888580935E17898580939F
:105A60005F178A85809360178B85809361178C857B
:105A700080935A178D8580935B178E8580935C1772
:105A80008F8580935D1786E080934B178C819D8175
:105A900090935717809356178E819F819093591733
:105AA00080935817809130179091311790934F172A
:105AB00080934E178091321790913317909351171E
:105AC0008093501788819981909353178093521730
:105AD0008A819B819093551780935417898D84FFF9
