:10000000C8C00000E2C00000E0C00000DEC0000088
:10001000DCC0000064C70000D8C00000D6C00000EB
:10002000D4C00000D2C00000D0C000000C94281042
:10003000CCC00000CAC00000C8C000000C946D080D
:10004000C4C00000C2C00000C0C000004AC300001D
:10005000BCC00000BAC00000B8C00000B6C00000BC
:10006000B4C00000B2C00000B0C00000AEC00000CC
:10007000ACC000001201100102000008EB034B208D
:1000800000000102000109024300020100C0320920
:1000900004000001020201000524000110052401F2
:1000A0000301042402060524060001070582030853
:1000B00000FF09040100020A0000000705040220F5
:1000C00000000705830220000004030904180362EE
:1000D000007500730077006100720065002E0064F7
:1000E00000650000002A03430055004C000000009A
:1000F000030F1E2627000000030F1E253638670059
:10010000030F256740605000030F2751888381004B
:10011000030F2750C8C3C2002700000000000000E2
:100120006700000000000000500000000000000018
:100130008100000000000000C20000000000000D6F
:100140002E2D47D391FF0432000006002165E855AB
:10015000E4B023B900073018146C074091876BF89E
:100160005617E92A001F4100202F2000203D2000C3
:100170005620312E31312043554C2000202F2000B5
:10018000203D2000424F56460D0A004C4F56460D6A
:100190000A0011241FBECFEFD2E0DEBFCDBF11E0B9
:1001A000A0E0B1E0ECEAF1E202C005900D92A434C7
:1001B000B107D9F712E0A4E4B1E001C01D92AB335E
:1001C000B107E1F70CD00C94D4101ACFF89481E069
:1001D00085BF82E085BFE0E0F0E3099508951F93B5
:1001E000CF93DF930E94100D03D504B603FE18C011
:1001F000F999FECF83E390E092BD81BDF89A80B576
:10020000882371F0F999FECF1FBA83E390E092BD85
:1002100081BD10BC0FB6F894FA9AF99A0FBED6DFDA
:1002200089EF87BD14E015BD82E084BD80936E0028
:10023000109280008AE08093810090E080E80FB601
:10024000F89480936100909361000FBE84B7877F1C
:1002500084BF2FE088E190E00FB6F894A8958093D2
:1002600060000FBE209360003C9A60E280913E01E6
:1002700090913F011FD560E2809140019091410132
:1002800019D5109333020E94A10D0E948D0C449841
:100290008AEF90E090933102809330021093330202
:1002A000C0E0D1E007C08A81882319F0E881F98194
:1002B0000995249681E0C031D807A9F76097FACF55
:1002C00061E08FE090E10C94200D60E08FE090E120
:1002D0000E94200D60E085ED92E00E94200D86E3F3
:1002E000C3C0CF93DF93DA01E901292F33272230EE
:1002F000310539F02330310549F021303105E9F479
:1003000020C0E6E8F0E083E490E01FC09070813008
:10031000910551F08130910518F0029771F408C0F1
:10032000E9ECF0E0849107C0EDECF0E0849103C0CB
:10033000E5EEF0E0849190E008C080E0DF91CF919D
:100340000895E4E7F0E082E190E0ED93FC93998377
:10035000888381E0F3CF8A3008F082E0482F50E0B4
:1003600093E0440F551F9A95E1F741515F4F20E00C
:1003700030E0FA01E20FF31F9491F999FECF1FBA12
:10038000255D3F4F32BD21BD90BD0FB6F894FA9A5E
:10039000F99A0FBE2A5230402830310551F7853086
:1003A00010F427E101C021E1F999FECF1FBA84E2E0
:1003B00090E092BD81BD20BD0FB6F894FA9AF99AEB
:1003C0000FBE089582E090E0FC01E35CFE4F2491B3
:1003D000F999FECF1FBA92BD81BD20BD0FB6F8942A
:1003E000FA9AF99A0FBE01968B32910569F782E06D
:1003F000B2CF806C45988EBD0DB407FEFDCF8EB593
:100400001EBC0DB407FEFDCF8EB5459A08950F931F
:100410001F931FEF04E309C045980EBD0DB407FEFE
:10042000FDCF8EB5459A115029F085E3E2DF8F713B
:100430008D3091F7E49AEC9A1F910F9108951F93D4
:10044000EC981FEF0AC0459885E38EBD0DB407FEFA
:10045000FDCF8EB5459A115029F085E3CADF8F7123
:10046000833189F71F91089545988EBD0DB407FE1D
:10047000FDCF8EB5459A08951F93DF93CF930F92CA
:10048000CDB7DEB741E0BE016F5F7F4F0196CBD1A4
:10049000892BD9F08981ADDF182F83E4F2D140E3B5
:1004A00062E0898190E022D28CE691E006D240E3BE
:1004B00062E0812F90E01AD288E691E0FED140E21E
:1004C00062E0812F90E054D2F4D10F90CF91DF9170
:1004D0001F9108953D9A459A8EE190E095D14598F7
:1004E0008EE190E091D1459A8DE290E08DD14598D2
:1004F00080E38EBD0DB407FEFDCF8EB5459A84E630
:1005000090E082D1459880E48EBD0DB407FEFDCF0A
:100510008EB522E030E0F999FECF32BD21BDF89AC8
:1005200080B58EBD0DB407FEFDCF8EB52F5F3F4F5A
:100530002B32310581F7459A45988EE78EBD0DB473
:1005400007FEFDCF8EB52BE230E0F999FECF32BD2C
:1005500021BDF89A80B58EBD0DB407FEFDCF8EB5D6
:100560002F5F3F4F2333310581F7459A459883E349
:100570008EBD0DB407FEFDCF8EB5459A81E090E0AB
:1005800048C1DF93CF930F92CDB7DEB722E0298326
:1005900041E0BE016F5F7F4F019645D18981DBDE6F
:1005A00099DF0F90CF91DF91089580913A028823CF
:1005B00009F444C084E08093E900809144018823D9
:1005C000E9F48091E80085FD06C018C06091F10053
:1005D00081EE91E075D38091F2008823B9F7809184
:1005E000E8008F778093E80081E080934401E091F8
:1005F0000502F091060209951092440183E0809370
:10060000E90080910A028823C9F08091E80085FF03
:1006100015C0F89405C087E092E065D38093F1009F
:1006200080910A02882321F08091F200803298F3B1
:1006300078948091E8008F778093E8000895813264
:1006400029F0823239F1803289F511C0613A71F5B1
:100650008091E800877F8093E80067E070E087E39F
:1006600091E00E94D30D8091E8008B7F10C0613231
:10067000E9F48091E800877F8093E80067E070E00C
:1006800087E391E00E94170E8091E8008E7F8093AF
:10069000E8000895613251F48091E800877F8093EB
:1006A000E8008091E8008E7F8093E800089520E0C4
:1006B00041EC68E070E082E00E94AC0D24E041E88B
:1006C00060E270E083E00E94AC0D24E040E860E26C
:1006D00070E084E00E94AC0D61E085ED92E00C9446
:1006E000200D1F920F920FB60F9211242F938F930C
:1006F0009F9380912D028F5F80932D028D37B8F1EB
:100700008091420181FF04C088B190E1892788B9B6
:10071000809130029091310221E0843F92072CF4C5
:100720000196909331028093300280912E028F5F68
:1007300080932E0210922D028C33C9F480912B02EB
:100740008F5F80932B0210922E028C3381F4809164
:100750002C028F5F80932C0210922B02883139F487
:1007600080912F028F5F80932F0210922C029F9115
:100770008F912F910F900FBE0F901F901895909111
:100780002E0280914501891791F0A895909345011B
:1007900090912B0280914601891749F09093460170
:1007A00080913A02882319F480E090E0C7C108954F
:1007B00040E363E080912F0290E0DAD080E261D0E4
:1007C00040E362E080912C0290E0D2D08AE359D0DD
:1007D00040E362E080912B0290E0CAD08AE351D0DE
:1007E00040E362E080912E0290E0C2D08EE249D0D8
:1007F00080912D0290E040E363E023E0880F991F91
:100800002A95E1F7B5D055C0880F991F0197F1F7E8
:10081000089520ED37E004C0F9013197F1F7019711
:100820000097D1F70895DC01FB011EC0822F805391
:100830008A3010F050E002C0382B51E0822F8154F2
:10084000863020F42753322B295C51E0822F8156C9
:10085000863018F42755322B02C0552359F09923BE
:1008600031F03193415049F030E090E003C03295CF
:10087000307F91E02D912223C9F6CF01861B970B83
:1008800008951F93CF93DF93182F80913A02882306
:1008900061F0C0913E01D0913F019B818881981702
:1008A00008F083DE612FCE010BD2DF91CF911F9133
:1008B00008958DE0E6DF8AE0E4CFCF93DF93EC018B
:1008C00002C0DFDF2196FE0184918823D1F7DF91FA
:1008D000CF910895CF93DF93EC0102C02196D1DF31
:1008E00088818823D9F7DF91CF910895DF93CF9343
:1008F00000D000D00F92CDB7DEB71D82FE01349636
:1009000024E0582F5F7021505A3018F4352F305D95
:1009100002C0352F395C308334E0969587953A953F
:10092000E1F761503197009761F72150822F9927A5
:1009300087FD90952F5FFE013196E80FF91F03C0E8
:10094000215040833197615067FD02C01216C4F3F5
:10095000332727FD3095CE010196820F931FBADF12
:100960000F900F900F900F900F90CF91DF910895FF
:100970000F931F93DF93CF9300D000D000D0CDB75B
:10098000DEB79C01162F042F1E82FE01359645E02E
:100990004150C9016AE070E00E94C010805D808310
:1009A000C9016AE070E00E94C0109B0111506115FE
:1009B000710559F44150842F992787FD90954F5F19
:1009C000FE013196E80FF91F07C03197442301F764
:1009D000F1CF415000833197115017FD02C014161A
:1009E000C4F3242F332727FD3095CE010196820FC3
:1009F000931F70DF26960FB6F894DEBF0FBECDBFF3
:100A0000CF91DF911F910F91089580E791E055DF1D
:100A100080E3EFDC90E040E361E08F70907066DF90
:100A200081E3E7DC90E040E361E08F7090705EDF8F
:100A300040CF41E062E471E00196F5DE2091420191
:100A400020FF02C0449A01C04498F999FECF1FBA12
:100A500086E390E092BD81BD20BD0FB6F894FA9A6E
:100A6000F99A0FBE0895CF92DF92EF92FF920F9303
:100A70001F93DF93CF9300D00F92CDB7DEB77C01E9
:100A800043E0BE016F5F7F4F0196CDDE482F82307D
:100A900008F448C02981823011F430E006C0922F5A
:100AA00080E02A8130E0282B392B842F90E0FE0152
:100AB000E80FF91FE081F999FECF1FBA32BD21BDC1
:100AC000E0BD0FB6F894FA9AF99A0FBE8C01000FA8
:100AD000111F0F5F1F4F0E0D1F1D79010894E11CA0
:100AE000F11C6E010894C11CD11C18C041E0B60174
:100AF000C80199DE892BB1F08981F999FECF1FBA1F
:100B0000F2BCE1BC80BD0FB6F894FA9AF99A0FBE18
:100B10000E5F1F4F82E090E0E80EF91EF801808121
:100B2000882321F70F900F900F90CF91DF911F91A5
:100B30000F91FF90EF90DF90CF900895DF93CF93C8
:100B40000F92CDB7DEB71982009731F041E0BE01B8
:100B50006F5F7F4F019667DEDFD78981882371F051
:100B6000F999FECF1FBA83E390E092BD81BD81E089
:100B700080BD0FB6F894FA9AF99A0FBE10926E00E3
:100B8000FFCF20DCF999FECF1FBA12BC11BC83E65F
:100B900080BD0FB6F894FA9AF99A0FBEF999FECF74
:100BA0001FBA81E090E092BD81BD82E380BD0FB6A7
:100BB000F894FA9AF99A0FBEF999FECF1FBA83E317
:100BC00090E092BD81BD10BC0FB6F894FA9AF99AE4
:100BD0000FBEF999FECF1FBA86E390E092BD81BDAA
:100BE00082E080BD0FB6F894FA9AF99A0FBE089584
:100BF000F999FECF12BC11BCF89A80B5833651F436
:100C0000F999FECF81E090E092BD81BDF89A80B560
:100C1000823319F080E090E0B4DFF999FECF86E3EB
:100C200090E092BD81BDF89A80B58093420108950D
:100C3000EF92FF921F93DF93CF9300D0CDB7DEB733
:100C40001B82198242E0BE016F5F7F4F0196EBDD90
:100C50002981823041F4922F80E02A81E22EFF2404
:100C6000E82AF92A02C0E22EFF24F999FECFF2BC4D
:100C7000E1BCF89A10B582E504DE40E364E0C70108
:100C800035DE80E891E019DE40E362E0812F90E0FC
:100C90002DDE8CE791E011DE40E262E0812F90E0F2
:100CA00067DE07DE0F900F90CF91DF911F91FF90CD
:100CB000EF900895FC0160831382118212820895DF
:100CC000DC01FC0183819C91891760F48F5F838331
:100CD0008181E80FF11D64838F5FFD018183891796
:100CE00009F411820895DC01FC018381882311F449
:100CF00020E00EC08150FD0183838281E80FF11D49
:100D000024818F5FFD0182839C91891709F41282EF
:100D1000822F08953E9A46983F98EAE6F0E0808157
:100D2000816080838AEF90E090933102809330025B
:100D300081E080935B01809383011092BE0108954E
:100D4000CF92DF92EF92FF920F931F93CF93DF9397
:100D5000DC0110929A0197E0FD018381981B0281CA
:100D6000000F000F000F090F10929B017091A50159
:100D7000FF24EE2417E057E040E0E7E0CE2ED12C30
:100D8000C1E0D0E07FC0FD01EE0DF11D848190E057
:100D9000012E02C0959587950A94E2F7282F2170BD
:100DA000112311F0115002C0E39417E06B3469F481
:100DB000533059F47723B9F5222311F071E062C062
:100DC00040939A011092A5011EC05F3F69F56634F9
:100DD000E1F4E42FF0E0E556FE4F8081082E829585
:100DE0008025082E86958695802590E0019695951C
:100DF00087958170907030E08217930761F040937F
:100E00009A017093A50190E048C0653411F06B34ED
:100E100011F42223A1F34F5FE42FF0E0E556FE4FDB
:100E2000108257E02FC070E0222359F1663479F424
:100E3000E42FF0E0E556FE4F9E01052E02C0220F82
:100E4000331F0A94E2F78081822B80831AC06534B5
:100E500011F06B34B1F4E42FF0E0E556FE4F852F2E
:100E6000992787FD90959601281B390BC9019E0192
:100E700002C0220F331F8A95E2F7C9012081282B77
:100E800020835150F3948F2D8150801708F47BCF2D
:100E900040939A017093A50191E00F1510F090E036
:100EA0000FC0992321F0653411F45F3F21F0809148
:100EB000A501882329F080919A018F5F80939A0180
:100EC00080919A01882309F490E0892FDF91CF91D6
:100ED0001F910F91FF90EF90DF90CF9008951F9298
:100EE0000F920FB60F921124FF920F931F932F931F
:100EF0003F934F935F936F937F938F939F93CF9382
:100F0000DF93EF93FF930091840010918500379950
:100F100003C0FF24F39406C0109285001092840051
:100F2000B19AFF24809197018F0D912D911D64E15D
:100F300070E00E94AE10EC01C95BDE4F809132027E
:100F400083FF15C0FF2011F096E601C092E788816B
:100F5000890F97DC8091320284FF04C0812F91DCDD
:100F6000802F8FDC80913202877E09F4A2C0288115
:100F7000222309F459C0FF2039F4C8018551924059
:100F80008251954040F055C0C801845690408D591B
:100F9000944008F04EC0213031F4198B088B29831E
:100FA00082E0888386C0223009F040C028893989D0
:100FB000A801421B530BCA018B559F4F69818B546B
:100FC000914078F46F5F6983020F131F020F131FA4
:100FD000020F131F1695079516950795198B088B09
:100FE00068C06630F8F0FF2021F44B5051400CF1FE
:100FF00003C04B5B5E4FC4F4200F311F369527951D
:101000003B8B2A8B1A8287E08B831C8283E0888348
:1010100088E99CE1909389008093880082E0809326
:101020006F0047C0FF2029F081E0BBCF2A812C3020
:10103000D0F010926F002091970130E0C90164E177
:1010400070E00E94AE10FC01E95BFE4F1082C90106
:10105000019664E170E00E94AE10FC01E95BFE4F76
:1010600081E0808326C08A899B89FF2021F4801734
:10107000910720F011C00817190770F4FE01E20F64
:10108000F11D81E090E00B8002C0880F991F0A9447
:10109000E2F72481282B24838B8181508B838F5FFF
:1010A00041F487E08B838A818F5F8A83C80FD11DCB
:1010B0001C82FF91EF91DF91CF919F918F917F9152
:1010C0006F915F914F913F912F911F910F91FF90E1
:1010D0000F900FBE0F901F9018951F920F920FB692
:1010E0000F9211242F933F934F935F936F937F93AE
:1010F0008F939F93AF93BF93EF93FF9310926F00E3
:1011000040919701242F30E0C90164E170E00E9412
:10111000AE10DC01A95BBE4F8C91833081F0C90118
:10112000019664E170E00E94AE10FC01E95BFE4FA5
:101130008081833021F010926F001C9220C080913A
:1011400099018230F9F48091320282FF03C084E871
:1011500091E0B3DB10926F002091970130E0C9015C
:1011600064E170E0FBD7FC01E95BFE4F1082C9012E
:10117000019664E170E0F2D7FC01E95BFE4F81E08B
:1011800080830BC08E5F80939901842F8E5F809344
:101190009701843011F410929701FF91EF91BF9164
:1011A000AF919F918F917F916F915F914F913F91FF
:1011B0002F910F900FBE0F901F901895EF92FF92F6
:1011C0001F93CF93DF9380919901882309F4F6C18F
:1011D000449A8091980190E064E170E0BFD737E4D1
:1011E000E32E31E0F32EE80EF91EE7016496F701D5
:1011F0008081833009F0DCC166E4C701A1DD88236A
:1012000041F190919A01915090939A01292F36E0E3
:1012100007C02150E22FF0E0E556FE4F8081380FE5
:101220002223B9F7E92FF0E0E556FE4F408134174D
:1012300011F416E47EC02CE007C09150E92FF0E0D5
:10124000E556FE4F8081280F9923B9F7241709F43A
:10125000ADC165E4C70174DD882309F4A9C180919B
:101260009A01815080939A01893009F0A1C199E0D7
:1012700020E09150E92FF0E0E556FE4F80812827CD
:101280009923B9F78091A401281709F091C150C0A2
:101290006BE4CE0155DD882379F130919A0131500C
:1012A00030939A015091A501232F40E090E011C0A6
:1012B0002150E22FF0E0E556FE4FE0818E2F82951F
:1012C0008F709827552311F0442311F0EF709E275B
:1012D0004F5F222369F7892F90E0E32FF0E0E51BB1
:1012E000F109E556FE4F208130E02F7030708217F3
:1012F000930711F41BE41DC08A81843009F0E8C013
:101300008B81843009F0E4C08C8180939B018D81B6
:1013100080939C018E8180939D018F8180939E019B
:10132000888580939F0185E080939A0118E401C02D
:1013300015E48091320280FFCBC081FD94C0909172
:10134000A60180919A01981709F061C01092A60138
:101350000EC0E22FF0E0DF01A556BE4FE955FE4F6B
:1013600090818C91981749F42F5F2093A6012091CA
:10137000A60130919A01231760F3231709F047C0A3
:1013800080912C02E82FF0E08091B201E81BF10976
:1013900080912F0290E02091B101821B910968E1B8
:1013A00070E0DCD6E80FF91FE230F10580F5CF01DF
:1013B00060E17EE0D3D6FC0180912B0290E0209189
:1013C000B301821B91096CE370E0C8D620912E0214
:1013D000422F50E02091B401421B5109480F591F80
:1013E0004E0F5F1F4230510590F4CA016DE770E067
:1013F000B5D620912D0230E04091B501241B310972
:10140000280F391F2732310510F421E001C020E0F8
:101410001092A6010CC0E92FF0E0DF01A556BE4FE7
:101420008C91E955FE4F80839F5F9093A601909128
:10143000A60180919A01981770F380912F028093F2
:10144000B10180912C028093B20180912B02809394
:10145000B30180912E028093B40180912D0280937C
:10146000B5012223A9F5812F0CDA8091A5018823EB
:1014700029F080919A01815080939A0110E00AC06E
:10148000E12FF0E0E556FE4F40E362E0808190E01E
:101490002DDA1F5FE0919A011E1790F38091A5014C
:1014A000882351F0F0E0E556FE4F808190E040E364
:1014B00061E08F7090701ADA8091320285FF07C068
:1014C00084E30E94F90140E362E090E00FDAF1D991
:1014D0008091320282FF56C0F7018081833009F487
:1014E000E70180E7CED9F701808190E024E0880F02
:1014F000991F2A95E1F7248930E040E263E0822BCE
:10150000932BF4D940E265E08889998931DA40E289
:1015100065E08A899B892CDA40E263E0898190E06A
:1015200027DA40E263E08A8190E022DA2B8140E210
:1015300062E087E090E0821B91091ADA80E2A1D98B
:101540008091320285FF09C084E30E94F90140E3E3
:1015500062E090E0CBD980E294D98B81873019F09A
:101560008A818F5F8A8310E009C0FE01E10FF11DBF
:1015700040E362E0848190E0B9D91F5F8A81181747
:10158000A0F397D9F701108281E0848B80919901B3
:10159000825080939901809198018E5F8093980189
:1015A000843011F410929801449808C014E5C1CE1B
:1015B000F7018489833009F08BCF6ACEDF91CF9118
:1015C0001F91FF90EF9008950E946A0281E080933E
:1015D000BE010C94070289E30E9434021092BE01FE
:1015E000089541E062E372E001961DD993DB80919A
:1015F0003202882309F0E8CFEECF1F93182F469AC6
:10160000882329F08091BA019091BB0104C0809198
:10161000B6019091B701F8D84698112329F080912E
:10162000BC019091BD0104C08091B8019091B901B5
:10163000EBD81F9108956F927F928F929F92AF92F5
:10164000BF92CF92DF92EF92FF920F931F93DF939F
:10165000CF930F92CDB7DEB76C01E62E842EF22E1B
:10166000902E209130023091310270E06E5F7F4FFA
:101670008F2D90E073D5992787FD9095281739070E
:1016800024F48BE891E019D96CC0281B390B3093F6
:10169000310220933002449A8091BE01882331F4B4
:1016A00039DB0E946A0281E08093BE010E941F0222
:1016B00081E090E0AED861E0A62EB12C10E080E091
:1016C0009CDF1F5F1C30D9F781E097DF860190E037
:1016D0001BC057E0652E712C9501062C02C0220F0D
:1016E000331F0A94E2F7F80180818223998385DF12
:1016F0000894610871089981FFEF6F16FFEF7F066C
:1017000059F79F5F0F5F1F4F9E151CF347E0642E34
:10171000712C092F112707FD10950C0D1D1D0EC0F2
:101720009501062C02C0220F331F0A94E2F7F8013C
:101730008081822362DF089461087108861484F333
:10174000892D90E066D8FA9409F0B8CF80913202E2
:10175000882319F00E94070203C086E30E94340226
:1017600044980F90CF91DF911F910F91FF90EF90D0
:10177000DF90CF90BF90AF909F908F907F906F90B1
:1017800008959F92AF92BF92CF92DF92EF92FF9215
:101790000F931F93DF93CF93CDB7DEB727970FB685
:1017A000F894DEBF0FBECDBFF62E942E45E08E011D
:1017B0000F5F1F4FB801019636D8282F982F680168
:1017C00006C09150F601E90FF11D8081F80E9923B2
:1017D000C1F7F601E20FF11DF082E22EE3941092C0
:1017E0009B01D60147E050E071E0A72EB12C4EC01E
:1017F000C801062E02C0959587950A94E2F780FFEE
:101800000EC0E52FF0E0E556FE4F9501042E02C014
:10181000220F331F0A94E2F78081822B80834423B6
:1018200011F0415007C05F5FE52FF0E0E556FE4F35
:10183000108247E0615070408FEF6F3F7807C1F62C
:101840000F2CF294F0240F2CF694F694F0248F2DA4
:1018500090E0019681FF0EC0E52FF0E0E556FE4FC7
:101860009501042E02C0220F331F0A94E2F78081F3
:10187000822B8083442311F0415007C05F5FE52F26
:10188000F0E0E556FE4F108247E011968A2F8C1942
:101890008E1530F4FC900F2D10E067E070E0A8CFBB
:1018A00050939A01442311F0415004C05F5F50935C
:1018B0009A0147E080E991E09093B9018093B801E3
:1018C0009093B7018093B60188E592E09093BD01B3
:1018D0008093BC019093BB018093BA010AE0292D4B
:1018E00060919A018BE991E0A6DE27960FB6F894F5
:1018F000DEBF0FBECDBFCF91DF911F910F91FF9043
:10190000EF90DF90CF90BF90AF909F90089541E00F
:101910006CE037CF43E066E034CF84E99CE09093FD
:1019200006028093050208951F93CF93DF93C09121
:101930004001D09141016CC0CE01D5D98A3019F057
:101940008D3009F059C0E091BF01EE2309F460C069
:10195000F0E0E054FE4F10822091C00110E012C070
:101960002E1779F4812F90E063E070E0F7D3FC014B
:10197000E05FFE4F0180F281E02D80EC91E009955F
:101980000CC01F5F812F90E063E070E0E7D3FC01A3
:10199000E05FFE4FE081EE2319F7812F90E063E0D6
:1019A00070E0DCD3FC01E05FFE4F8081882309F505
:1019B0008FE30E94410410E00FC080E20E944104C6
:1019C000812F90E063E070E0C9D3FC01E05FFE4F3F
:1019D00080810E9441041F5F812F90E063E070E0EE
:1019E000BDD3FC01E05FFE4F8081882331F70E9468
:1019F00059041092BF010CC09091BF01903240F485
:101A0000E92FF0E0E054FE4F80839F5F9093BF0189
:101A10008B81882309F090CFDF91CF911F9108959A
:101A2000E4E6F0E080818B7F8083299A84B187602F
:101A300084B9239880E58CBD8DB581608DBD0895F6
:101A40009C01E0E0F1E008C080819181821793075A
:101A500011F46283089534968091330290E0880FE8
:101A6000991F880F991F80509F4FE817F90761F75A
:101A70000895DF93CF9300D000D0CDB7DEB7E2D288
:101A8000E4D210923A021092380210923702109269
:101A9000360219BC89B5826089BD09B400FEFDCF4C
:101AA0008091D800982F9F779093D800806880937A
:101AB000D800809163008E7F809363008091D8006E
:101AC0008F7D8093D8009E012D5F3F4FAE014F5F09
:101AD0005F4F60E080E091E00E947101882331F067
:101AE000E981FA813796E491E09343018091E00027
:101AF0008E7F8093E0008091E20081608093E2001D
:101B00008091E20088608093E2000F900F900F9028
:101B10000F90CF91DF91089580913A02882311F0C0
:101B20000E9465018FD291D210923A02109239022E
:101B3000109238028091D8008F778093D80019BC1A
:101B4000089580913902882309F0E6DF81E08093CF
:101B500039028FDF789408958093E9008091EB003B
:101B600081608093EB004093EC009091ED007770E2
:101B70006930710510F480E00BC06131710510F41B
:101B800080E106C06132710510F080E301C080E29F
:101B90009270922B892B8093ED008091ED008260F2
:101BA0008093ED0008951F939C01FB011091430168
:101BB000CB01612F70E0E4D2892B21F040E050E0AE
:101BC000309711F441E050E0D90113C08091E80052
:101BD00080FFFCCF05C08D918093F100319721F0FB
:101BE0008091F2008117B8F38091E8008E7F809396
:101BF000E800309721F08091E80082FFE7CF8091E4
:101C0000E80082FF02C081E010C0452B49F08091BE
:101C1000E80080FFFCCF8091E8008E7F8093E80091
:101C20008091E80082FFFCCF80E01F910895FC01C5
:101C300014C08091E80082FFFCCF06C08091F100C3
:101C400081936150704021F08091F2008823B1F7B8
:101C50008091E8008B7F8093E8006115710549F75A
:101C60008091E80080FFFCCF80E00895FF920F9301
:101C70001F93DF93CF93CDB7DEB728970FB6F894B5
:101C8000DEBF0FBECDBF6091F1004091F100453045
:101C900009F4CCC0463048F4413009F475C04130F5
:101CA00070F0433009F09EC16FC0483009F44AC15A
:101CB000493009F462C1463009F094C1D7C0262FDB
:101CC00030E0C901807E90708038910509F08AC1AA
:101CD000C9018F7190708330910509F483C12091FF
:101CE000F1002091F1002091F1004091F10081304C
:101CF000910531F08230910501F1892B21F075C1F8
:101D000020E030E02EC08091380290E09E01295FF3
:101D10003F4FAE014F5F5F4F60E092600E947101E4
:101D2000882309F462C180913602282F30E0809127
:101D300037028823B1F0226014C0942F80E030E095
:101D4000822B932B8093E9008091EB00282F30E0C9
:101D500085E0369527958A95E1F7217030701092CD
:101D6000E9008091E800877F8093E8002093F100EC
:101D70003093F1008091E8008E7F8093E80080919D
:101D8000E80082FFFCCFF3C0262F30E0862F807E54
:101D900009F028C1C9018F7190708330910509F451
:101DA00021C12091F1005091F1007091F1006091FA
:101DB000F100029709F019C1952F80E030E0822BE5
:101DC000932B892B09F011C180E0272F282B277036
:101DD00009F40BC12093E9008091EB0080FF1BC048
:101DE0004130A1F48091EB0080618093EB0081E0B1
:101DF00090E002C0880F991F2A95E2F78093EA00CD
:101E00001092EA008091EB00886003C08091EB00A3
:101E100080628093EB001092E9008091E800877F58
:101E20008093E8008091E8008E7FA4C0662309F0CB
:101E3000D9C09091F1008091E3009F778078982B32
:101E40009093E3008091E800877F8093E800809181
:101E5000E8008E7F8093E8008091E80080FFFCCF4F
:101E60008091E30080688093E300BFC0E091F100BF
:101E70003091F1008091F1002091F1000091F1008A
:101E80001091F100722F60E090E0682B792B932F76
:101E900080E0F0E09E01295F3F4FAE014D5F5F4F54
:101EA0008E2B9F2B0E947101882309F49EC0809184
:101EB000E800877F8093E800912F80E0402F50E07A
:101EC0002F813885482B592B2417350708F4A90191
:101ED00060914301AB81BC819A0116C08091E800FA
:101EE00080FFFCCF08C0FD011196E491E093F10062
:101EF0002150304021F08091F2008617A0F38091AC
:101F0000E8008E7F8093E8002115310521F0809153
:101F1000E80082FFE3CF8091E80082FD28C0CA017B
:101F200070E02ED1892B49F48091E80080FFFCCF2E
:101F30008091E8008E7F8093E8008091E80082FF26
:101F4000FCCF15C0603809F04DC08091E800877F54
:101F50008093E800809138028093F1008091E8003E
:101F60008E7F8093E8008091E80082FFFCCF809113
:101F7000E8008B7F8093E80038C0662399F50091D4
:101F8000F1001091F100F09038029E01295F3F4F5F
:101F9000AE014B5F5F4F80E091E00E9471018823AA
:101FA00021F1912F80E0202F30E0282B392BED817B
:101FB000FE817196E4918E2F90E082179307A8F02E
:101FC0008091E800877F8093E80020933802809119
:101FD000E8008E7F8093E800FF2009F4BED00E94C5
:101FE000570303C0842F0E941F038091E80083FFE2
:101FF0000AC08091EB0080628093EB008091E80042
:10200000877F8093E80028960FB6F894DEBF0FBE56
:10201000CDBFCF91DF911F910F91FF9008951F9336
:1020200080913A02882361F01091E9001092E90052
:102030008091E80083FF01C019DE17701093E9005A
:102040001F9108951092E20008951092E100089502
:102050001F920F920FB60F9211242F934F936F93ED
:102060007F938F938091E10080FF1EC08091E200FA
:1020700080FF1AC08091E1008E7F8093E100809103
:10208000E2008E7F8093E2008091E2008061809385
:10209000E2008091D80080628093D80019BC5DD0A6
:1020A00010923A020E9465018091E10084FF25C0F0
:1020B0008091E20084FF21C019BC89B5826089BD8E
:1020C00009B400FEFDCF8091D8008F7D8093D800A9
:1020D0008091E1008F7E8093E1008091E2008F7E0D
:1020E0008093E2008091E20081608093E20081E0D1
:1020F00080933A020E94600130D08091E10083FF1A
:1021000022C08091E20083FF1EC08091E100877FA2
:102110008093E100109238028091E1008E7F8093DD
:10212000E1008091E2008E7F8093E2008091E200E6
:1021300080618093E2006091430120E040E070E024
:1021400080E00ADD0AD08F917F916F914F912F919E
:102150000F900FBE0F901F901895089555270024DB
:1021600080FF02C0060E571F660F771F61157105AD
:1021700021F096958795009799F7952F802D0895D2
:10218000AA1BBB1B51E107C0AA1FBB1FA617B7079D
:1021900010F0A61BB70B881F991F5A95A9F78095B9
:0C21A0009095BC01CD010895F894FFCF8C
:1021AC000F100000D5020000DE080100BF03010083
:1021BC00429E05433C02468A0C52180654870C5624
:1021CC00050557330558F10A65C1056C190574D816
:1021DC000378C102000000802500000000080702FF
:0421EC00E101020803
:00000001FF
