:10000000F9C0000013C1000011C100000FC10000C1
:100010000DC100000C94F00D09C1000007C10000E3
:1000200005C1000003C1000001C100000C94881646
:10003000FDC00000FBC00000F9C000000C947E0D64
:10004000F5C00000F3C00000F1C000007BC3000059
:10005000EDC00000EBC00000E9C00000E7C00000F8
:10006000E5C00000E3C00000E1C00000DFC0000008
:10007000DDC00000428406431F02467C0852EE05A4
:1000800054591156EB0657300658C80965AB066C33
:10009000730674D70375C90F78C2020000002A03E3
:1000A000430055004C0034003300330000002A03A5
:1000B000430055004C00380036003800000016039D
:1000C00062007500730077006100720065002E0009
:1000D00064006500000004030904090243000201F2
:1000E0000080320904000001020201000524000121
:1000F000100524010301042402060524060001075B
:100100000582030800FF09040100020A000000073D
:1001100005040240000007058302400000120110A0
:100120000102000008EB034B200000010200010760
:100130002E050DD391FF080500000C0021656A2DE6
:100140003B1322F862073F181D1CC700B0876BF8ED
:10015000B611EA2A001F41000D2E2D07D3913D0450
:10016000320000060021656A55E43023B90007001B
:1001700018146C070090876BF85611E92A001F418C
:100180000027675081C2203D2000202F2000203D05
:100190002000202F20005620312E36312043554C90
:1001A000343333005620312E36312043554C383607
:1001B00038004C4F56460D0A00424F56460D0A0075
:1001C00000535300547D7DFFFF4B4B7E7E00454F17
:1001D000420D0A004E2F41003F2028002069732065
:1001E000756E6B6E6F776E2920557365206F6E6527
:1001F000206F660011241FBECFEFD2E0DEBFCDBF5F
:1002000011E0A0E0B1E0ECE5FFE202C005900D9244
:10021000A830B107D9F712E0A8E0B1E001C01D9203
:10022000A936B107E1F70CD00C94AC17E9CEF894DD
:1002300081E085BF82E085BFE0E0F8E1099508959F
:100240002FE088E190E00FB6F894A89580936000C5
:100250000FBE2093600090E080E80FB6F894809382
:100260006100909361000FBE2E9A2D9A04B603FE92
:100270000AC083E390E099D4882329F060E083E307
:1002800090E08ED4D4DF89EF87BD84E085BD82E025
:1002900084BD80936E00109280008AE0809381007C
:1002A00084B7877F84BF3C9A0E94801381D50E94C7
:1002B0007B160E9449110E94AE098EE393E1909350
:1002C000E1018093E0010E94390F89E080930B01E6
:1002D00044980E941E1779D10E943B0B78D20E944D
:1002E0000910F7CF292F33272230310539F0233079
:1002F000310549F02130310541F12CC0E3E4F0E053
:100300002AED30E02BC099278130910559F018F083
:10031000029701F50EC0E6EDF0E0E491F0E026ED85
:1003200030E01CC0EEEBF0E0E491F0E02EEB30E0CA
:1003300015C01E9903C02EE930E002C02EEA30E05D
:10034000EEEAF0E0E491F0E009C0E2E1F0E02DE156
:1003500031E004C0E0E0F0E020E030E0DA012D938D
:100360003C93CF0108958EBD0DB407FEFDCF8EB531
:1003700008951F93CF93DF938A3018F4853018F0D7
:1003800001C088E085502BE230E060E0E82FF0E02B
:10039000EF57FE4F149106C0CC3211F4612F01C00B
:1003A00060E09E01E9012196C901FAD3C333D1056A
:1003B00099F7DF91CF911F910895CF93DF9382E05A
:1003C00090E0FC01EA5AFE4F6491EC012196E8D3DB
:1003D000CE01CB32D105A9F787E390E0FC01E850CC
:1003E000FF4F6491EC012196DBD3CE01C036D105DD
:1003F000A9F71E9918C060E18FE090E0D1D360EBBF
:1004000080E190E0CDD361E781E190E0C9D360E184
:1004100084E490E0C5D360EB85E490E0C1D361E76C
:1004200086E490E0BDD388E0A4DFDF91CF9108950A
:100430004598806C98DF80E096DF459A0895A1E0AA
:10044000B0E0E5E2F2E00C946E1741E0BE016F5FB0
:100450007F4F01965CD3892B21F18981893969F419
:1004600010E0812FE5DF4FD3812F8770873009F4AB
:10047000D6D21F5F1033A9F714C0DADF182F83E438
:100480007BD2898140D386E891E0BCD2812F3BD3D7
:100490008AE891E0B7D240E262E0812F90E0C3D2D7
:1004A000BED22196E3E00C948A1745985CDF459A0A
:1004B0000895CF93CFEF07C08AE090E0DDD1C1115E
:1004C00002C0EC9A07C084E3F0DFC150807780312E
:1004D00099F7F7CFCF910895CF93EC9886E3E5DFB6
:1004E000CFEF05C08AE090E0C7D1CC2331F085E39F
:1004F000DCDFC15080778032A9F7CF910895EF9269
:10050000FF920F931F93CF93DF93EC01EC983D9AEA
:10051000459A8EE190E0B0D145988EE190E0ACD163
:10052000459A8DE290E0A8D180E3BFDF84E690E0B9
:10053000A3D1459880E417DF8E01075D1F4F7E0130
:100540008FEFE81AF80ACE0130D30DDFE701E0168D
:10055000F106A9F7459A45988EE705DF8BE290E012
:10056000EC01219622D3FFDECE01C333D105C1F7C2
:10057000459A83E39ADF81E084D1CDB7DEB7E6E028
:100580000C948717A1E0B0E0E8ECF2E00C946F1750
:1005900022E0298341E0BE016F5F7F4F0196B7D211
:1005A0008981E7DE82E090E0AADF2196E2E00C9408
:1005B0008B1786E37ADF1092E201089582E090E0E3
:1005C0009EDF81E08093E201089580916002843093
:1005D00009F061C08093E90080910801811128C071
:1005E0008091E80085FD06C023C06091F10089E29A
:1005F00092E0FFD38091F2008111F7CF8091E80063
:10060000982F9B7F9093E8008F778093E80081E09C
:100610008093080185EE92E09093DF018093DE01E4
:10062000E091E001F091E10181E00995109208016B
:1006300083E08093E9008091F801882361F1809143
:10064000E80085FF28C0F89405C086EF91E0E8D364
:100650008093F1008091F801882321F08091F200CD
:10066000803498F378949091F2008091E800282FDC
:100670002E7F2093E8008F778093E800903459F420
:100680000E9431158091E800982F9E7F9093E8009A
:100690008F778093E800089542E061EC82E00E9449
:1006A000E11442E361E883E00E94E11442E360E880
:1006B00084E00E94E1141092000110920101109256
:1006C00002011092030108958091610290916202EB
:1006D000913229F0923261F1903299F512C0813A4B
:1006E00081F58091E800877F8093E80067E070E003
:1006F00080E091E00E945A158091E800982F9B7F3E
:1007000011C08132F1F48091E800877F8093E80086
:1007100067E070E080E091E00E94F7158091E800CA
:10072000982F9E7F9093E8008F778093E80008953C
:10073000813239F48091E800877F8093E8000C943F
:100740000B1508951F920F920FB60F9211248F93DD
:100750009F93AF93BF938091E4019091E501A091A5
:10076000E601B091E7010196A11DB11D8093E4015E
:100770009093E501A093E601B093E7018091E30136
:100780008F5F8093E3018D3710F01092E301809129
:10079000F5018F3F19F081508093F501BF91AF9122
:1007A0009F918F910F900FBE0F901F901895CF9330
:1007B000DF93C4EED1E08B81A6D18A81A4D1898157
:1007C000A2D18881A0D12BD1DF91CF9108958091C2
:1007D000E4019091E501A091E601B091E70120913B
:1007E0000901281709F447C08091E4019091E501BF
:1007F000A091E601B091E70180930901A89580914D
:10080000F501811102C00E9433128091ED0188230D
:1008100039F081508093ED01811102C00E949A103D
:100820008091E301811127C08091070181FF04C0FD
:1008300088B190E1892788B98091E8019091E90118
:10084000843823E0920728F401969093E90180937D
:10085000E80180910A018F5F80930A018C3359F47B
:1008600010920A018091F2018F5F8093F2018C3324
:1008700010F01092F2010895880F991F0197F1F777
:10088000089520ED37E003C0F9013197F1F7815069
:10089000D8F70895CF93DF93FC018381843509F065
:1008A00068C0808120E030E0422F435F481750F05D
:1008B00050E090E09C012F5031094217530709F096
:1008C00058C00AC02F5F3F4FDF01A20FB31F1F9612
:1008D0009C919B3349F7ECCFAC014E5051094E0F20
:1008E0005F1FDA0113962C91243509F042C0DC0118
:1008F0001B97AE0FBF1F348111962C9111973213A5
:1009000038C0358112962C911297321332C036813D
:1009100013962C91139732132CC0378114962C9177
:100920001497321326C0419715962C9115978E0F68
:100930009F1FEC012B8316968C911697EA018983F1
:1009400019968C9119978A831A968C911A978B8392
:100950001B968C911B978C831C968C911C978D8376
:100960001D968C918E8380818A50808382818A50EB
:100970008283DF91CF910895CF93C82F8091600239
:10098000843089F480910B0180FF0DC08091F801C3
:10099000803308F01ADE6C2F86EF91E02AD2CA303D
:1009A00021F413DE02C081E001C080E09091F001EB
:1009B0009923D9F090910B0193FF17C0CA30A9F089
:1009C000882399F0CD3011F46BE301C06C2F86EFD2
:1009D00091E00FD2CD3019F486EF91E05BDF83E038
:1009E0008093ED0182E08093EF01CF910895CF9342
:1009F000DF93EC0101C0C0DF89918111FCCFDF9151
:100A0000CF910895CF93DF93EC0102C0B5DF21961B
:100A1000FE0184918111FACFDF91CF9108958DE08D
:100A2000ABDF8AE0A9CFA6E0B0E0E9E1F5E00C9405
:100A30006D17062F1E8215E02AE030E01150E1E02C
:100A4000F0E0EC0FFD1FE10FF11DB9010E944B1703
:100A5000805D8083CB010150009759F01111EECFDA
:100A600008C01150E1E0F0E0EC0FFD1FE10FF11DB7
:100A70004083015007FD02C01111F3CF81E090E0E7
:100A80008C0F9D1F810F911DB2DF2696E4E00C9420
:100A90008917A5E0B0E0EFE4F5E00C946F171D8234
:100AA00024E0382F3F702150E22FF0E03A3010F46C
:100AB000305D01C0395CA1E0B0E0AC0FBD1FEA0FB2
:100AC000FB1F308334E0969587953A95E1F76150A6
:100AD000009739F708C02150E1E0F0E0EC0FFD1F6E
:100AE000E20FF11D4083615067FD02C02111F3CF79
:100AF00081E090E08C0F9D1F820F911D78DF25967D
:100B0000E2E00C948B1740E362E090E0C2CFFB017F
:100B10002AC0A32FA053AA3018F42A2BA1E001C0A9
:100B2000A0E0B32FB154B63020F4A32FA7532A2B43
:100B3000A1E0B32FB156B63018F43755232B07C0B8
:100B4000A11105C0303289F03A3379F005C0552340
:100B500031F02193415039F4E61BF70B0CC022957C
:100B6000207F51E002C050E020E0DC013D91CD014A
:100B70003111CFCFF1CFCF010895982F92959F706B
:100B80009A3010F4905D01C0995CFB0190838F70E6
:100B90008A3010F4805D01C0895CFB018183089577
:100BA0000E949E17F999FECF08950C949617089508
:100BB0001F93CF93DF930AC0EC012196F6DFA3DFEA
:100BC000112311F08AE3D8DE612FCE01162F1150C8
:100BD0006111F2CFDF91CF911F910895A2E0B0E0B3
:100BE000E4EFF5E00C946C17FC0121812D3421F425
:100BF00066E08AEF91E005C0203529F460E18AEDD6
:100C000091E0D6DF28C01A82198242E0BE016F5FF0
:100C10007F4F01967CDF9981823029F4192F00E003
:100C20008A81082B02C0092F10E0C801BEDFF82E10
:100C300082E5A2DE40E364E0C8012BDF8EE891E0AC
:100C4000E1DE8F2D60DF82E991E0DCDE40E262E0F0
:100C50008F2D90E0E8DEE3DE2296E5E00C94881725
:100C6000A6E0B0E0E6E3F6E00C9469176C0143E01F
:100C7000BE016F5F7F4F01964ADF823080F129818C
:100C8000823019F4E22EF12C04C0F22EE12C2A81DC
:100C9000E22A8C011127FE01E00FF11F6081C701DC
:100CA0007FDF000F111F0F5F1F4F0C0D1D1D8FEFFA
:100CB000E81AF80A10C041E0BE016F5F7F4FC8011B
:100CC00026DF892B61F06981C7016ADF0E5F1F4F44
:100CD000E2E0EE0EF11CF80180818111ECCF269646
:100CE000E8E00C94851741E067E071E001960FDFC2
:100CF0008091070180FF02C0449A01C0449860912E
:100D0000070184E390E04CCFA1E0B0E0EAE8F6E030
:100D10000C946F171982009731F041E0BE016F5FAC
:100D20007F4F0196F4DE8981882321F061E083E31F
:100D300090E036DF0E946C1610926E00F89428E066
:100D400088E190E00FB6F894A895809360000FBEFC
:100D500020936000FFCFCF93DF93EC0161E080E050
:100D600090E01EDF6DE381E090E01ADF26DB60E0BB
:100D700080E690E015DF60E081E690E011DF60E062
:100D800083E390E00DDF62E084E390E009DF60E060
:100D900080E690E005DF60E081E690E001DF898198
:100DA000883719F080E090E0AFDFDF91CF910895B0
:100DB00080E090E0FADE813029F481E090E0F5DE19
:100DC0008D3319F080E090E0C6DF84E390E0EDDE43
:100DD0008093070108951E9903C086E991E002C03F
:100DE00084EA91E00FDE1BCEFC0112821082118298
:100DF0000895FC018FB7F8949281903308F00EC0EB
:100E00009F5F92839081DF01A90FB11D13966C93B0
:100E10009F5F903311F0908301C010828FBF0895BF
:100E2000FC019FB7F8948281811101C00EC08150EE
:100E300082832181DF01A20FB11D13968C912F5F58
:100E4000203311F0218301C011829FBF0895CF93F9
:100E5000C82F469A882319F088E592E002C080E9FD
:100E600091E00ADD4698CC2319F088E592E002C0B3
:100E700080E991E001DDCF9108952F923F924F924A
:100E80005F927F928F929F92AF92BF92CF92DF92AA
:100E9000EF92FF920F931F93CF93DF93CDB7DEB7FF
:100EA00027970FB6F894DEBF0FBECDBF8C01D62EAC
:100EB000842F722E7801E60EF11C462FB8017DD2E8
:100EC000F70180836D2D6F5F1982402FF801912CFF
:100ED00057E0A52E21E030E059C0D901082E01C00D
:100EE000AA0F0A94EAF7A72379F0A1E0B0E0AC0FCB
:100EF000BD1FA90DB11D89010A2C01C0000F0A9464
:100F0000EAF75C91502B5C93AA2019F05A2D5150AE
:100F10000DC0592D5F5F573008F4952EA1E0B0E069
:100F2000AC0FBD1FA50FB11D1C9257E0A52E019758
:100F3000A0F6872F082E82958025082E8695869507
:100F4000802590E0019681FF0FC0A1E0B0E0AC0FDA
:100F5000BD1FA90DB11DC901052E01C0880F0A943E
:100F6000EAF79C91982B9C93552311F051500DC09A
:100F7000892D8F5F873008F4982EA1E0B0E0AC0F88
:100F8000BD1FA80FB11D1C9257E0A52E8E2F841BEC
:100F9000861720F4719187E090E09FCFAA2011F08E
:100FA000AA9403C0939447E0A42EC92CD12C20917D
:100FB000E8013091E901B6016E5F7F4F872D0E94F5
:100FC0003017992787FD90952817390720F482EB71
:100FD00091E018DD60C0281B390B3093E9012093A4
:100FE000E801449A8091E201811101C0E7DA74DAE4
:100FF0008E010F5F1F4FEE24E394F12CB12CF8010A
:10100000E90DF11D97FCFA954F012CE0522E80E07E
:101010001EDF5A94E1F781E01ADF280114C097E03F
:10102000292E312CC701022C01C0880F0A94EAF73F
:10103000F201908189230BDFF1E02F1A310890F73C
:101040009FEF491A590AC201801B910B8C159D050F
:1010500034F387E0482E512C0DC0C701042C01C089
:10106000880F0A94EAF7F40190818923F0DEF1E019
:101070004F1A5108A414B50484F38AE002DC7A9470
:1010800009F0C3CF8091EA01882311F012DA02C07F
:1010900086E30BDA449827960FB6F894DEBF0FBEAE
:1010A000CDBFDF91CF911F910F91FF90EF90DF9017
:1010B000CF90BF90AF909F908F907F905F904F9018
:1010C0003F902F900895A7E0B0E0E9E6F8E00C9497
:1010D0006E17162F242F45E0BE016F5F7F4F0196DC
:1010E0002F8315DD2F81412F682FCE010196C5DE9C
:1010F0002796E3E00C948A1743E066E0E4CF6F9212
:101100007F928F929F92BF92CF92DF92FF920F9326
:101110001F93CF93DF93A62F1092350110923601C3
:10112000FC016181660F660F660F2381621B695F98
:1011300010923701F12C70E047E0F7E0DF2EC12C70
:1011400020E007E010E0C1E0D0E07DC0FC01EC0D44
:10115000F11D248130E00D2C02C0359527950A94AD
:10116000E2F721703327522FDD2011F0DA9403C00B
:10117000C394E7E0DE2EAB3491F4433009F081C034
:10118000F11007C051115CC0109235017093360107
:1011900076C0F12C79C0AB3409F050C03CC04F3F51
:1011A00041F5A634B9F4E72FF0E0E95CFE4F408149
:1011B000042E42954025042E46954695402550E044
:1011C0004F5F5F4F41FB882480F8912C8216930675
:1011D00041F004C0A53429F4511103C0F092350147
:1011E000D5CF7F5FE72FF0E0E95CFE4F108247E04C
:1011F00029C0552319F1A63459F4E72FF0E0E95C32
:10120000FE4F9E01042E01C0220F0A94EAF713C07C
:10121000A53409F0C0CFE72FF0E0E95CFE4F98015C
:10122000241B310947FD33953E0102C0660C771C33
:101230002A95E2F793013081322B3083415002C06E
:10124000FF24F3942B2DB22EB394261708F47ECFEF
:10125000F0923501709336016B1588F4A53419F4BA
:101260004F3F09F404C080913501882319F07F5F56
:101270007093360181E090913601911108C080E0B1
:1012800006C04F3F09F4A8CF5111C5CFD7CFDF918A
:10129000CF911F910F91FF90DF90CF90BF909F90C3
:1012A0008F907F906F90089510926F0080915801F9
:1012B00090E064E170E00E943917835F9E4FFC016B
:1012C00010820895FC01218130E050E07081C90155
:1012D000841B950B0B964797C8F4872F90E070E01E
:1012E000FC01E61BF70BEC30F10584F4E53FFF4F02
:1012F0006CF0280F391F640F751F261B370B2C301D
:10130000310524F481E0253F3F4F0CF480E008953F
:10131000FC0121812C3008F0C7CF662389F0DC0165
:10132000A20FB11D81E090E0038002C0880F991FD9
:101330000A94E2F714969C911497982B14969C9318
:101340008381882319F081508383089587E0838304
:101350002F5F2183E20FF11D148208953E9A469873
:101360003F98EAE6F0E080818160808382EC91E042
:101370009093E9018093E801109221011092E2011B
:1013800008958091EA01882311F018D992C811C9F3
:10139000FC01218121110BC08091EA01B4DB40E204
:1013A00065E08091E8019091E9013DDB38CB41E0B7
:1013B0006AEE71E00196ABDBE4CF06C04150FB0161
:1013C000E40FF11D9081890F4111F8CF089520E0BD
:1013D00006C06150FC01E60FF11D30812327611129
:1013E000F8CF822F0895A091350140E035E020E04C
:1013F00012C06150FC01E60FF11D5081752F7295EE
:101400007F702727370FAA2311F0442319F05F704C
:101410002527350F4F5F6111ECCF832F820F829507
:10142000807F822B0895FC0132812381A081B181CC
:10143000A30FB11D8C9190E0022E02C09595879567
:101440000A94E2F78170922F91509383211104C086
:101450003F5F328397E0938308958F929F92BF926C
:10146000CF92DF92EF92FF920F931F93CF93DF9370
:1014700000D0CDB7DEB76C01812C912CB12CEE24BD
:10148000E394F12C062F10E0015011091DC0C60194
:101490004A836983C8DF4A816981882391F04423A4
:1014A00049F09801281939098E2D01C0880F2A9515
:1014B000EAF706C08E2D082C01C0880F0A94EAF7BF
:1014C000B82A8FEF881A980A861608F38B2D0F908A
:1014D0000F90DF91CF911F910F91FF90EF90DF90D0
:1014E000CF90BF909F908F900895A4E0B0E0EBE77D
:1014F000FAE00C9466171B8227E02C839C012C5F7A
:101500003F4F3A83298310923601FC01218130E05C
:10151000B3E0220F331FBA95E1F7438187E090E0F3
:10152000841B9109280F391F253431057CF554C0DF
:101530000A2D10E040E068E0CE0101968EDF095CE4
:101540001E4FF8018083982E092C92949024092C28
:10155000969496949024CE01019665DF292D30E073
:101560002F5F3F4F21FBCC24C0F8D12C90E0C81650
:10157000D90691F5CE01019656DF81112DC0F801F3
:101580008081B826A394A092360101C0B12CA0900E
:101590003601F5E0FA1560F640E068E0CE0101960C
:1015A0005CDF082F182F012E12951025012E16959D
:1015B00016951025CE01019636DF212F30E02F5FE2
:1015C0003F4F21FBEE24E0F8F12C282F30E0E2160B
:1015D000F30611F481E0B01280E02496EBE00C9465
:1015E0008217A4E0B0E0E7EFFAE00C946E171B82DC
:1015F00027E02C839C012C5F3F4F3A832983FC0119
:101600002181243099F58381813081F51092360152
:1016100014C0111106C067E0CE0101961EDF80687C
:1016200004C068E0CE01019618DFE12FF0E0E95C2C
:10163000FE4F80831F5F109336011091360141E009
:10164000143038F367E0CE01019607DFE12FF0E0B8
:10165000E95CFE4F880F80831F5F109336019091E5
:10166000370192959F7081E09A3009F080E02496CE
:10167000E3E00C948A17A0E0B0E0E1E4FBE00C9416
:10168000691780914301882391F18091EA0187FFD6
:1016900016C084E30E9418028058803458F0803CC1
:1016A00058F490E08055910963E0959587956A9587
:1016B000E1F703C080E001C08FE08F595DD98091D0
:1016C000EA0183FF12C082E757D98091EA0184FFC3
:1016D00003C08091440150D986E64ED98091EA0139
:1016E00084FF03C08091430147D910924301809148
:1016F0004501882309F4FDC1449A8091460190E098
:1017000064E170E00E943917EC01C35FDE4F66E4CC
:10171000CE01F5DC882309F4B5C1109136011150D2
:1017200010933601412F67E371E086E046DE612FBA
:1017300070E0FB01E95CFE4F0081801303C01430B0
:1017400008F09CC1282F30E02F5F3F4FE02FF0E0E2
:101750002E173F0739F4143028F0FB01E95CFE4FE7
:1017600080838CC1412F67E371E08CE026DE80131B
:1017700089C1143008F084C185C18091360181503F
:1017800080933601893009F085C169E087E391E0F3
:101790001EDE9091400189137DC17AC1F09036011F
:1017A000FA94F09236016F2D87E391E01CDEEF2D65
:1017B000F0E090913501E91BF109E95CFE4F908161
:1017C000891386C190C11B8289818150898386C11A
:1017D0008B81843009F0D2C04EE16CE3CE0140969B
:1017E00071DD882309F4CAC04EE16E2DC8016ADD9F
:1017F000682FCE018DDD20E0822F90E0FC01E95CB6
:10180000FE4FDE01A80FB91F14968C9180832F5FC5
:10181000253090F32093360102E566C1A1FD5DC03D
:1018200030914701B09136013B1333C020E014C022
:10183000822F90E0422F4F5FFC01E85BFE4F895CF6
:101840009E4F5081FC018081581729F02093470159
:1018500023131FC004C0242F231750F3F7CF409148
:10186000E4015091E5016091E6017091E701C090BB
:101870005401D0905501E0905601F09057014C1959
:101880005D096E097F0931E0463251056105710538
:1018900008F030E020E00CC0822F90E0AC01485B03
:1018A0005E4F895C9E4FFC018081FA0180832F5F2F
:1018B0002B1790F3209347014091E4015091E501EB
:1018C0006091E6017091E7014093540150935501F6
:1018D000609356017093570101C030E00435E9F47C
:1018E000A6FD1BC0809136018530B8F0809139018A
:1018F0008B3409F444C0893609F441C0833509F4B6
:101900003EC0843509F43BC08D37C9F18E37B9F13B
:1019100080913A018077803791F1311130C0802F6A
:101920002BD880913501882329F080913601815090
:101930008093360110E007C0E12FF0E0E95CFE4F34
:101940008081E1D81F5FE09136011E17A8F38091D6
:101950003501882349F0F0E0E95CFE4F808140E3E7
:1019600061E08F7090E095D88091EA0185FF04C016
:1019700084E30E941802C7D852D801C000E08091C9
:10198000EA0182FF63C080E70E94BC0440E262E09B
:10199000888190E048D8888990E040E265E014E0D2
:1019A000880F991F1A95E1F73ED8898990E040E2A7
:1019B00065E024E0880F991F2A95E1F734D88A89D9
:1019C00090E040E265E034E0880F991F3A95E1F736
:1019D0002AD88B8990E040E265E054E0880F991F97
:1019E0005A95E1F720D840E263E08A8190E01BD865
:1019F00040E263E0898190E016D82B8140E262E00A
:101A000087E090E0821B91090ED880E20E94BC041E
:101A10008091EA0185FF07C084E30E94180273D811
:101A200080E20E94BC048B81873019F089818F5F2E
:101A3000898310E006C0FE01E10FF11D848163D8A7
:101A40001F5F89811817B8F30E940F0518828091D3
:101A50004501815080934501809146018F5F82301E
:101A600019F08093460102C0109246014498043553
:101A700009F03FC087E391E005D53BC006E434C0E0
:101A800004E532C065E4CE013ADB811176CE02C0B6
:101A900005E42AC0CE0129DD882311F008E424C022
:101AA000CE019FDD811112C0E09044018E010E5ED7
:101AB0001F4F4B896E2DC80105DC682FCE0128DC35
:101AC0006BE4CE011CDB811169CE02C004E70CC0BF
:101AD0008B81873009F477CE8F5F8B838981843047
:101AE00009F476CE4BCF0BE4A091EA01A0FD96CE8F
:101AF00046CFCDB7DEB7E8E00C9485171F920F9262
:101B00000FB60F9211242F933F934F935F936F93D0
:101B10007F938F939F93AF93BF93EF93FF93109215
:101B20006F008091EA0183FF03C08EE20E94BC0433
:101B300020915801822F90E064E170E00E943917F3
:101B4000FC01E35FFE4F8081833060F0822F90E0E4
:101B500064E170E00E943917FC01E35FFE4F818170
:101B6000823010F4A1DB18C080914501813049F426
:101B70008091EA0182FFF6CF89EB91E00E94020595
:101B8000F1CF8F5F809345012F5F223019F02093B2
:101B9000580102C010925801FF91EF91BF91AF918F
:101BA0009F918F917F916F915F914F913F912F9175
:101BB0000F900FBE0F901F901895982F9552973148
:101BC00060F46A3050F0673240F421E030E068178A
:101BD00010F020E030E0C901089580E090E0089521
:101BE0001F920F920FB60F9211240F931F932F93F2
:101BF0003F934F935F936F937F938F939F93AF9395
:101C0000BF93CF93DF93EF93FF938091EE018230E8
:101C100021F483E08093EE01FEC040918400509156
:101C20008500A4E056954795AA95E1F7142F809179
:101C3000580190E064E170E00E943917EC01C35F45
:101C4000DE4F8881843031F41E3208F4E4C01F3442
:101C500008F085C037990CC0843039F461E0CE01BA
:101C600057DB109285001092840010934401D3C07A
:101C700000914401101B10934301109285001092B3
:101C800084008881843021F460E0CE0141DBC3C050
:101C900082E086BB8881811111C090914401953604
:101CA00008F0B9C080914301853608F0B4C0988B24
:101CB000898B81E08A8382E08883ADC0412F602FC9
:101CC000823009F05CC0CE014096FCDA882301F135
:101CD000488950E09A01220F331F240F351F200F2F
:101CE000311D3595279535952795288B298930E025
:101CF000C901880F991F820F931F810F911D959520
:101D0000879595958795898B8A818F5F8A8383C014
:101D10008A81843090F180EA9FE0909389008093DB
:101D200088008A818C3050F08889298930E0280F1A
:101D3000311D2536310514F084E014C08091EC018A
:101D4000882379F0612F802F38DF882351F068894C
:101D5000898933DF882329F081E08093EE01A4DABA
:101D60005AC083E088830A8B1B8B198287E08B83A0
:101D70001C8282E080936F004EC018828ECFCE010D
:101D80004296A0DA882301F161E0CE01C1DA4A89E6
:101D900050E09A01220F331F240F351F200F311DF1
:101DA00035952795359527952A8B2B8930E0C901E4
:101DB000880F991F820F931F810F911D959587950D
:101DC000959587958B8B27C0412F602FCE0140962C
:101DD00079DA882309F4C3CF60E0CE0199DA488923
:101DE00050E09A01220F331F240F351F200F311DA1
:101DF0003595279535952795288B298930E0C90198
:101E0000880F991F820F931F810F911D95958795BC
:101E100095958795898BFF91EF91DF91CF91BF9138
:101E2000AF919F918F917F916F915F914F913F9172
:101E30002F911F910F910F900FBE0F901F9018952B
:101E40008091580190E064E170E00E943917835F4F
:101E50009E4FFC018081811109C081E090E02091BA
:101E6000F5012F3F29F480E090E0089581E090E0B3
:101E7000089580E690E00E94D5058093EC0181E60C
:101E800090E00E94D5058093F001882321F081E243
:101E90008093EA0176CA0895469A0C943C044698C9
:101EA0000C943C04A7E0B0E0E8E5FFE00C946A176E
:101EB00095E79983882399F0BE016E5F7F4F8091EB
:101EC000F0010E94BD05BE016C5F7F4F8091EC0167
:101ED0000E94BD0585E58E8396E0D92E02C0DD24E3
:101EE000D3940E94DE020E946C0216E080E891E02A
:101EF000D3DF80E093E0D3DF1150C1F780E093E0BF
:101F0000CBDF80E891E0CBDF80E891E0C5DF469849
:101F100087E390E00E947F0283E00E94410445989D
:101F20008FE70E94B3018091F8018D0D0E94B301EB
:101F3000EE24E394F12CEC0EFD1E8701F801819153
:101F40008F010E94B301802F8E198D15B8F306C042
:101F500086EF91E00E9410070E94B3018091F80182
:101F60008111F6CF459A0E946C0286EF91E00E94A3
:101F7000F40615E103C081E00E9441048AE30E9457
:101F800018028F7711F01150B1F7FBD92796E7E0CF
:101F9000BDC7CF93DF93EC01898181110BC0809184
:101FA000EC010E9483058091F0010E9483050E944C
:101FB0000F052CC08936D9F441E06CEE71E0CE01FA
:101FC00002960E9487056091EC0180E690E00E94F5
:101FD000D00541E060EF71E0CE0104960E948705D4
:101FE0006091F00181E690E00E94D0050FC086EF7D
:101FF00091E00E94F406219604C086EF91E00E94D1
:10200000F90669916111F9CF80E04CDFDF91CF9142
:102010000895A1E0B0E0EEE0F0E15BC78091EE0151
:10202000882309F484C0C090E401D090E501E090D9
:10203000E601F090E701833009F060C08FE30E9471
:102040001802182F8630C8F089E292E00E94F40648
:1020500045988FEF0E94B30180E00E94B301082FE2
:1020600008C080E00E94B301682F89E292E00E94DC
:10207000F9061150B1F7459A01C000E082D91092DB
:10208000EE01053709F053C041E0BE016F5F7F4F9D
:102090008CE292E00E948705019759F59981809121
:1020A000EC01981326C080913002853571F406C08A
:1020B00089E292E00E9410070E94BC0480912B02EA
:1020C0008111F6CF0E940F0532C080912B028450FF
:1020D00080932B0284E080932A026AE089E292E0F6
:1020E0000E94F906E091E001F091E10188E0099594
:1020F0001EC089E292E00E94F40619C0823051F4B9
:102100009091EB018C2D891B883088F03AD9109280
:10211000EE010DC0813059F487E390E00E947F0208
:102120000E94590282E08093EE01C092EB01219659
:10213000E8E0EBC685DE882319F083E08093EF01A9
:102140008091EF0181508093EF01882321F083E09B
:102150008093ED01089581E0A5CE1092F3011092D5
:10216000A30183E08093A4018FEF8093F50108958C
:10217000E9E5F1E00EC0009751F04181DC013C91AE
:10218000431305C0428111963C914317B1F0E20F11
:10219000F11D2081211105C0892B41F0E0E0F0E024
:1021A0000CC0B1E0E33AFB0730F3F6CF31E0E33A9D
:1021B000F30719F010F0E3EAF1E0CF01089586EAA1
:1021C00091E0D6DF009799F02091A401FC013081C5
:1021D000231768F4E20FF11D80818093A80189E73D
:1021E0008093A90181818093AA0181E0089580E014
:1021F0000895EF92FF921F93CF93DF931F92CDB775
:10220000DEB7182F8091EA0186FF18C084E5998314
:102210000E94BC04E12E9981F92E15E0F70181910D
:102220007F010E9483051150C9F78091EA0185FF63
:1022300003C08AEF0E9483050E940F050F90DF9173
:10224000CF911F91FF90EF90089586E30E94550271
:102250008091A801833511F48BE901C08BE40E94C1
:10226000410421E04CE065E086EA91E00E943D07F0
:102270000E94590286EA91E0BCCFE7DF8091A80175
:10228000893631F081E08093A50189E28093F501E0
:10229000089585E390E00E94D5058093F10186E3DF
:1022A00090E00E94D5058093F40157DF1092590108
:1022B0000895A7E0B0E0EEE5F1E10AC66C018C01FB
:1022C0000F5F1F4F45E0BE016F5F7F4FC8010E9447
:1022D0008705843008F07BC099819130A9F4833060
:1022E00061F46A8185E390E00E94D0056B8186E30A
:1022F00090E00E94D005CDDFB3C08091F1010E9433
:1023000083058091F4015EC0923009F051C08130A4
:1023100041F081E090E02A81213029F080E090E0D6
:1023200002C081E090E0E82E80915901811104C043
:1023300084ED91E00E94020509E511E030C081E0E2
:102340000935180719F080E20E94BC04F801818168
:102350000E948305F80182810E948305E11005C077
:10236000F8018081080F111D1AC08AE30E94BC0485
:1023700093E0F92E0FC0F3E0FF1528F4F0FE03C040
:102380008CE20E94BC04F801EF0DF11DF3948081F2
:102390000E948305F8018081F81668F3E1CFF80107
:1023A0008081882389F0F1E0033A1F0740F20CC0D6
:1023B000933051F480E090E0DBDE895591409AE45F
:1023C000981B892F0E9483050E940F0549C080E059
:1023D00090E0CEDE7C01F80101900020E9F7319712
:1023E000E01BF10BF695E795BE2EB394C7018B0D5C
:1023F000911D895591408B34910574F5F701B19287
:102400008F0121E01AC041E0B801F601E80FF11D8B
:10241000CF012F830E9487052F81233058F020FDA4
:1024200009C0D80111978C91843621F4F80180817C
:102430008093F2012F5F0F5F1F4F822F880F815013
:102440002B1508F3F3EAEF16F1E0FF0648F4F70165
:10245000E20FF11D108204C08EEC91E00E94020593
:102460002796E9E051C58091A501882351F0EDDE62
:1024700089E28093F5018091A50181508093A501A7
:1024800008956BCEFF920F931F93CF93DF93FC01C0
:10249000F0800181C281D38114818FE58093F501A1
:1024A0001092A5018091F101811105C08091F40184
:1024B000882309F4ABC08091A6018F1104C08091DC
:1024C000A701801729F049DEF092A6010093A70129
:1024D0008091F3018F3F09F499C0C093A801D09374
:1024E000A9011093AA01CC23F1F081111CC08091A5
:1024F000F101181761F0143651F08C2F835582309A
:1025000010F0CD3739F48FEF8093F3017FC0C435DD
:1025100009F47CC08D2F807F803609F077C0D067AA
:10252000D093A90167C04BDE811105C08091F301F2
:10253000882309F46BC08091A301811107C0E09149
:10254000F301F0E0E054FE4FE49101C0E82FE335E1
:1025500041F4C43531F49091F3019E5F9093F301FF
:1025600004C0EC1711F0F9DD51C0882309F444C010
:102570008091A4018E5F8093A40121DE811106C0A9
:102580008091F3018E5F8093F30136C08091A801A2
:102590008093A301843671F58091F2018093AA01A2
:1025A00029C01093A80197E79093A9019091F10198
:1025B0009093AA018E5F8093F3011092A3018E3055
:1025C000B9F486EA91E0D4DDDC01009781F02C912A
:1025D00030E083EA91E0821B930B05C0ED01C20F4E
:1025E000D31F48814D93A817B907C0F31C92B5DDDE
:1025F000112361F042DE0AC08091F301E82FF0E080
:10260000EF53FE4F14911F3F61F6C0CFCDB7DEB739
:10261000E5E07EC40F931F93CF93DF93EC0110E0AE
:10262000812F90E063E070E024D4FC01EC58FF4F70
:102630000491812F90E063E070E01BD48B589F4F92
:10264000FC0125913491002399F0209739F480E220
:102650000E94BC04802F0E94BC0408C088818013A3
:1026600005C0CE01F901099581E003C01F5FD8CFF5
:1026700080E0DF91CF911F910F910895CF93C0918A
:102680000B0180930B0134C089E292E00E94100795
:102690009091AC018A3011F08D3001F5992341F110
:1026A000E92FF0E0E355FE4F10828DEA91E0B2DFB2
:1026B000811111C088ED91E00E9402058DEA91E040
:1026C0000E94F7048CED91E00E94020580E090E00A
:1026D000A1DF0E940F051092AC010AC0903340F4B4
:1026E000E92FF0E0E355FE4F80839F5F9093AC01AC
:1026F00080912B028111C8CFC0930B01CF91089517
:10270000E4E6F0E080818B7F8083299A84B1876042
:1027100084B9239880E58CBD8DB581608DBD089509
:10272000A2E0B0E0E5E9F3E1DAC3E1E6F2E08091AE
:10273000F100819382E0E936F807C9F780916102E0
:1027400090916202953009F499C040F4913009F4F7
:1027500045C070F0933009F02EC140C0983009F4A4
:10276000D4C0993009F4F9C0963009F024C1B1C041
:10277000803821F0823809F01EC108C080915C02C7
:1027800090915D02992369F082600BC0809165028F
:102790008093E9008091EB0085FB882780F91092F7
:1027A000E9009091E800977F9093E8008093F10012
:1027B0001092F1008091E800982F9E7F9093E8009E
:1027C0008F778093E80005C080916002882309F428
:1027D000E3C08091E80082FFF7CFB5C0882319F0ED
:1027E000823009F0E8C08F7119F08230D9F50BC042
:1027F00080916302813009F0CFC0933009F080E00E
:1028000080935D022FC08091630281112BC0809163
:1028100065029091660287709927009709F4BCC001
:102820008093E9002091EB0020FF1CC02091620200
:10283000213099F49091EB0090619093EB0021E0AE
:1028400030E001C0220F8A95EAF72093EA00109247
:10285000EA008091EB00886003C08091EB00806209
:102860008093EB001092E9008091E800877F8093CD
:10287000E8008091E800982F9E7F69C081119BC07D
:1028800080916302909164022091E800277F209359
:10289000E8002091E800322F3E7F3093E8002F7748
:1028A0002093E80005C020916002222309F474C03F
:1028B0002091E80020FFF7CF8F7799279C012068AF
:1028C0002093E300892B09F467C083E080936002C2
:1028D00063C08058823008F06EC0AE014F5F5F4F1A
:1028E0006091650280916302909164020E9472017E
:1028F000009709F451C02091E800277F2093E80059
:10290000BC0189819A8123D11EC0803809F053C04F
:102910008091E800877F8093E80080915E02809339
:10292000F1008091E800982F9E7F9093E8008F77C8
:102930008093E80004C080916002882369F180914F
:10294000E80082FFF8CF8091E800982F9B7F90935A
:10295000E8008F778093E8001FC081112CC0809120
:1029600063028230C8F49091E800977F9093E8006A
:1029700080935E029091E800292F2E7F2093E8003B
:102980009F779093E800882311F084E001C083E0F2
:10299000809360020E944C038091E80083FF0EC088
:1029A0008091EB0080628093EB008091E800877F4C
:1029B0008093E80003C00E946403EECF2296E2E019
:1029C000AAC28093E900EBEEF0E080818160808311
:1029D000EDEEF0E010826093EC0040838091EE0019
:1029E000881F8827881F08951092F40080E0809344
:1029F000E9001092F0001092E8009091ED009D7FA8
:102A00009093ED009091EB009E7F9093EB008F5F91
:102A1000853069F708958091610287FD05C0809136
:102A2000E80080FF0FC013C08091E80082FD05C060
:102A3000809160028111F8CF08958091E800982F6D
:102A40009B7F09C0809160028111E9CF0895809138
:102A5000E800982F9E7F9093E8008F778093E8009E
:102A6000089585E69091EC0090FF05C09091E800F4
:102A700090FF05C019C09091E80092FD15C090919B
:102A80006002992399F09091EB0095FD11C090910F
:102A9000E10092FFE7CF9091E1009B7F9093E100EE
:102AA000815001F783E0089580E0089582E0089561
:102AB00081E0089540916702509168029B0146179A
:102AC000570708F49A01FC0180E032C09091E800B9
:102AD00093FD39C09091E80092FF06C08091E80014
:102AE00082FF2CC080E0089590916002992369F1E3
:102AF0009091E80090FF1CC005C081918093F10087
:102B0000215031092115310521F08091F2008830E2
:102B1000A0F39091F20081E0983009F080E090916C
:102B2000E800492F4E7F4093E8009F779093E8009C
:102B30002115310559F68111C9CFD0CF809160029E
:102B40008111CCCF02C081E0089582E008954091C8
:102B50006702509168029B014617570708F49A01D3
:102B6000AC0180E035C09091E80093FD3CC09091AD
:102B7000E80092FF06C08091E80082FF2FC080E04D
:102B8000089590916002992381F19091E80090FF5F
:102B90001FC008C0FA014F5F5F4FE491E093F1005E
:102BA000215031092115310521F08091F200883042
:102BB00088F39091F20081E0983009F080E09091E4
:102BC000E800692F6E7F6093E8009F779093E8009C
:102BD0002115310541F68111C6CFCDCF809160021C
:102BE0008111C9CF02C081E0089582E008959C015F
:102BF00023C08091E80083FD2BC080916002882370
:102C000049F18091E80082FFF4CFF90107C080917B
:102C1000F10081939F016150710929F09F0180911A
:102C2000F2008111F4CF8091E800982F9B7F909360
:102C3000E8008F778093E80061157105D1F68091E7
:102C4000E80080FD09C0809160028111F8CF02C0C8
:102C500081E0089582E0089580E0089553D055D032
:102C60001092600210925E0210925D0210925C025D
:102C700019BC89B5826089BD09B400FEFDCF809181
:102C8000D800982F9F779093D80080688093D800C1
:102C9000809163008E7F809363008091D8008F7D48
:102CA0008093D8008091E0008E7F8093E000809137
:102CB000E1008E7F8093E1008091E200816080934B
:102CC000E2008091E100877F8093E1008091E20043
:102CD00088608093E2000895C1DFE0EEF0E080813B
:102CE00081608083E8EDF0E080818F77808319BC7C
:102CF00010925F020895B2DF81E080935F027894C2
:102D0000089508951092E20008951092E100089548
:102D10001F920F920FB60F9211242F933F934F9350
:102D20005F936F937F938F939F93AF93BF93EF9333
:102D3000FF938091E10080FF1CC08091E20080FF42
:102D400018C08091E1008E7F8093E1008091E200C5
:102D50008E7F8093E2008091E20080618093E200A8
:102D60008091D80080628093D80019BC10926002D4
:102D7000C8DF8091E10084FF29C08091E20084FFD8
:102D800025C019BC89B5826089BD09B400FEFDCF9C
:102D90008091D8008F7D8093D8008091E1008F7E54
:102DA0008093E1008091E2008F7E8093E200809129
:102DB000E20081608093E20080915E02882311F03E
:102DC00084E001C081E0809360029BDF8091E1009C
:102DD00083FF23C08091E20083FF1FC08091E10048
:102DE000877F8093E10082E08093600210925E0210
:102DF0008091E1008E7F8093E1008091E2008E7FE0
:102E00008093E2008091E20080618093E200ECDD3B
:102E100042E060E080E0D5DD74DFFF91EF91BF918B
:102E2000AF919F918F917F916F915F914F913F9162
:102E30002F910F900FBE0F901F901895CF938091F8
:102E40006002882359F0C091E900C7701092E90030
:102E50008091E80083FD64DCC093E900CF91089580
:102E6000002480FD060E660F11F08695D1F7802DA7
:102E700008955527002480FF02C0060E571F660FD5
:102E8000771F6115710521F096958795009799F741
:102E9000952F802D0895AA1BBB1B51E107C0AA1FC7
:102EA000BB1FA617B70710F0A61BB70B881F991FEB
:102EB0005A95A9F780959095BC01CD0108952F9260
:102EC0003F924F925F926F927F928F929F92AF92BA
:102ED000BF92CF92DF92EF92FF920F931F93CF9307
:102EE000DF93CDB7DEB7CA1BDB0B0FB6F894DEBF9E
:102EF0000FBECDBF09942A88398848885F846E84C4
:102F00007D848C849B84AA84B984C884DF80EE800D
:102F1000FD800C811B81AA81B981CE0FD11D0FB616
:102F2000F894DEBF0FBECDBFED010895F999FECF35
:102F300092BD81BDF89A992780B50895262FF999F9
:102F4000FECF1FBA92BD81BD20BD0FB6F894FA9A8C
:0C2F5000F99A0FBE01960895F894FFCF87
:082F5C008025000000000802BE
:00000001FF
