:1000000010C100002AC1000028C1000026C1000064
:1000100024C100000C94DE0920C100001EC10000B4
:100020001CC100001AC1000018C100000C94CB14C0
:1000300014C1000012C1000010C100000C94BF0ADE
:100040000CC100000AC1000008C1000092C30000FA
:1000500004C1000002C1000000C10000FEC0000099
:10006000FCC00000FAC00000F8C00000F6C00000AC
:10007000F4C0000042820543F40146AD0769F00F69
:100080005A2C0F524305541D1156370557F0055889
:10009000340B65B8056CA90574130478E5020000FB
:1000A000001201100102000008EB034B20000001C8
:1000B000020001090243000201008032090400002D
:1000C00001020201000524000110052401030104BE
:1000D0002402060524060001070582030800FF0923
:1000E000040100020A0000000705040240000007A6
:1000F0000583024000000403090416036200750032
:10010000730077006100720065002E0064006500D6
:1001100000002A03430055004C005F004D005800CA
:1001200000002A03430055004C0034003300330024
:10013000000027675081C20D2E2D07D3913D043258
:100140000000060021656A55E43023B90007001855
:10015000146C070090876BF85611E92A001F4100C4
:10016000202F2000203D20005620312E3531204305
:10017000554C5F4D58005620312E35312043554C9B
:1001800034333300202F2000203D20004C4F5646B2
:100190000D0A00424F56460D0A000007024604C6EB
:1001A00005260B0610C81193120313221534173FAE
:1001B000182819161B432156250026110D210E65FE
:1001C0000F6A070C160720F81E871F6B29592C8110
:1001D0002D353EC3FF004C4F56460D0A000D2E2D07
:1001E00007D3913D04320000060010B07155E43091
:1001F00023B900070018146C070090876BF856119C
:10020000E92A001F410020697320756E6B6E6F77BD
:100210006E2920557365206F6E65206F66003F2044
:10022000280011241FBECFEFD2E0DEBFCDBF11E00A
:10023000A0E0B1E0EAE0FCE202C005900D92A2313C
:10024000B107D9F712E0A2E1B1E001C01D92AB34D1
:10025000B107E1F70CD00C940316D2CEF89481E0EC
:1002600085BF82E085BFE0E0F8E1099508952FE0C1
:1002700088E190E00FB6F894A895809360000FBED7
:100280002093600090E080E80FB6F89480936100BE
:10029000909361000FBE2E9A2D9A04B603FE0AC0F9
:1002A00083E390E0EDD3882329F083E390E060E0DE
:1002B00024D4D4DF89EF87BD84E085BD82E084BD8E
:1002C00080936E00109280008AE08093810084B752
:1002D000877F84BF3C9A0E94C0116FD40E94BE14D5
:1002E0000E9410113DD68DE791E19093AC0180936F
:1002F000AB0181E08093160144980E9461157CD186
:100300000E94490B64D20E94850DF7CF292F332715
:100310002230310559F02330310569F021303105A3
:1003200059F522E130E081EA90E02AC023E430E090
:1003300083EB90E025C090708130910561F08130B1
:10034000910520F082309105B9F40AC086EF90E063
:10035000FC0124910FC08AEF90E0FC0124910AC0B7
:100360001E9B03C082E191E002C082E291E0E2E1E3
:10037000F1E0249130E004C020E030E080E090E043
:10038000FA0191838083C90108958EBD0DB407FEE3
:10039000FDCF8EB508954598806C8EBD0DB407FED7
:1003A000FDCF8EB51EBC0DB407FEFDCF8EB5459AB0
:1003B0000895459880648EBD0DB407FEFDCF8EB5BF
:1003C0006EBD0DB407FEFDCF8EB5459A08954598D4
:1003D0008EBD0DB407FEFDCF8EB5459A089586E318
:1003E000F6DF1092AD010895A1E0B0E0EAEFF1E090
:1003F0000C94C4150196BE016F5F7F4F41E0E7D2B8
:10040000009749F18981893991F400E010E0802F4B
:10041000C2DF94D2C801877090708730910509F4CB
:1004200036D20F5F1F4F0033110589F714C0B3DFB9
:10043000182F83E414D2898181D284E691E02BD2F3
:10044000812F7CD280E691E026D2812F90E062E07D
:1004500040E278D21CD22196E4E00C94E0151F9380
:100460001FEF84E3B4DF8AE090E0EAD11150C9F7CE
:10047000EC9A1F9108951F93EC9886E3A8DF1FEF75
:1004800085E3A5DF8AE090E0DBD11150C9F71F9129
:1004900008951F93CF93DF93182F8A3010F018E040
:1004A00002C0853008F015508BE290E0E12FF0E0BB
:1004B000EE5CFE4F1491EC012196CD3211F060E01C
:1004C00001C0612F1AD3C333D10511F0CE01F3CF90
:1004D000DF91CF911F910895CF93DF9382E090E059
:1004E000EC012196FE01EC5CFE4F649106D3CB3209
:1004F000D10511F0CE01F4CF1E990CC08FE090E031
:1005000060E1FBD280E190E060EBF7D281E190E026
:1005100061E7F3D288E0BDDFDF91CF9108950F93BB
:100520001F93CF93DF938C01EC983D9A459A8EE10F
:1005300090E086D145988EE190E082D1459A8DE297
:1005400090E07ED180E343DF84E690E079D1459866
:1005500080E48EBD0DB407FEFDCF8EB5C0E0D0E0C7
:10056000C8018C0F9D1F8CD28EBD0DB407FEFDCF30
:100570008EB52196C932D10599F7459A45988EE7EF
:100580008EBD0DB407FEFDCF8EB58BE290E0EC0181
:10059000219676D28EBD0DB407FEFDCF8EB5C33346
:1005A000D10511F0CE01F3CF459A83E310DF81E04E
:1005B0004CD1DF91CF911F910F91089582E090E08F
:1005C000AEDF81E08093AD010895A1E0B0E0EBEEF5
:1005D000F2E00C94C61522E029830196BE016F5FFC
:1005E0007F4F41E0F4D1898154DF82E090E097DFD2
:1005F0002196E2E00C94E21580914202843009F0E9
:1006000061C08093E90080911201882341F58091B7
:10061000E80085FD06C023C06091F1008BEF91E0FA
:1006200026D38091F2008823B9F78091E800982FB3
:100630009B7F9093E8008F778093E80081E0809320
:1006400012018CEF92E09093AA018093A901E091AE
:10065000AB01F091AC0181E009951092120183E0A9
:100660008093E9008091BA01882361F18091E800CC
:1006700085FF28C0F89405C088EB91E00BD38093E8
:10068000F1008091BA01882321F08091F20080343A
:1006900098F378949091F2008091E800282F2E7FB3
:1006A0002093E8008F778093E800903459F40E94FB
:1006B0007A138091E800982F9E7F9093E8008F77BF
:1006C0008093E80008958091430290914402913212
:1006D00029F0923261F1903299F512C0813A81F598
:1006E0008091E800877F8093E80080E091E067E0F8
:1006F00070E00E94A5138091E800982F9B7F11C0A5
:100700008132F1F48091E800877F8093E80080E0F7
:1007100091E067E070E00E943D148091E800982F1E
:100720009E7F9093E8008F778093E8000895813250
:1007300039F48091E800877F8093E8000C9451138E
:10074000089582E061EC42E00E94271383E061E8B3
:1007500042E30E94271384E060E842E30E942713EB
:1007600010920001109201011092020110920301F7
:1007700008951F920F920FB60F9211248F939F939B
:10078000AF93BF938091AF019091B001A091B1015F
:10079000B091B2010196A11DB11D8093AF0190935C
:1007A000B001A093B101B093B2018091AE018F5F0F
:1007B0008093AE018D3710F01092AE01BF91AF91D2
:1007C0009F918F910F900FBE0F901F901895809161
:1007D000AF0190911401891729F180931401A89514
:1007E0008091AE018823F1F48091070181FF04C05C
:1007F00088B190E1892788B98091B3019091B401C3
:1008000023E08438920728F401969093B4018093F2
:10081000B301809113018F5F809313018C3311F426
:100820001092130108958091B20188D08091B10196
:1008300085D08091B00182D08091AF017FD027C058
:10084000880F991F0197F1F7089520ED37E004C054
:10085000F9013197F1F781508823D1F708951F935B
:10086000182F80914202843081F48091160180FF1C
:100870000CC08091BA01803408F0BEDE88EB91E0B4
:10088000612FF5D11A3009F4B7DE1F9108958DE07C
:10089000E6DF8AE0E4CFCF93DF93EC0102C0DFDF35
:1008A0002196FE0184918823D1F7DF91CF9108959D
:1008B000CF93DF93EC0102C02196D1DF888188239A
:1008C000D9F7DF91CF910895A5E0B0E0EAE6F4E032
:1008D0000C94C6151D82FE01349624E0382F3F701B
:1008E00021503A3010F4305D01C0395C308334E07F
:1008F000969587953A95E1F761503197009771F792
:10090000822F8150992787FD9095FE013196E80F3F
:10091000F91F03C0215040833197615067FD02C029
:100920001216C4F3332727FD3095CE010196820FAE
:10093000931FBEDF2596E2E00C94E21590E062E0A2
:1009400040E3C2CFA6E0B0E0E8EAF4E00C94C415BE
:10095000FC01262F1E828E010B5F1F4F35E03150A8
:10096000CF016AE070E00E948F15805DD8018C9302
:10097000CF016AE070E00E948F15E62FF72F21501B
:10098000309751F4832F8150992787FD9095FE0170
:100990003196E80FF91F08C0015010403323F9F6D3
:1009A000F1CF315040833197215027FD02C01316FB
:1009B000C4F3832F992787FD90959E012F5F3F4FAA
:1009C000820F931F75DF2696E4E00C94E015FC017E
:1009D000CB0125C0A32FA053AA3010F0A0E002C085
:1009E0002A2BA1E0B32FB154B63020F4A32FA75384
:1009F0002A2BA1E0B32FB156B63018F43755232B6C
:100A000007C0AA2329F4303281F03A3389F40DC0AB
:100A1000552341F0DB012D93BD01415049F050E0D9
:100A200020E003C02295207F51E03191332391F6DD
:100A3000681B790BCB010895FC01DB0140E050E01D
:100A40000FC0822F80538A3058F4CA016AE070E0E8
:100A50000E947D15422F50E040535040480F591FCF
:100A60002191222371F711965C934E9308951E995C
:100A700003C086E791E002C088E691E00CDF07CF73
:100A80000C94ED150895EF92FF921F93DF93CF938F
:100A900000D0CDB7DEB71A8219820196BE016F5F12
:100AA0007F4F42E094DFE980823039F49E2D80E070
:100AB000EA80FF24E82AF92A01C0FF24C701E0DF09
:100AC000182F82E5CCDEC70164E040E3FDDE88E854
:100AD00091E0E1DE812F32DF84E891E0DCDE812FDE
:100AE00090E062E040E22EDFD2DE0F900F90CF91D7
:100AF000DF911F91FF90EF9008950E94F515F999ED
:100B0000FECF0895A1E0B0E0E8E8F5E00C94C6154A
:100B10001982009731F00196BE016F5F7F4F41E06F
:100B200056DF8981882321F083E390E061E0E5DFEF
:100B30000E94AF1410926E00F89428E088E190E0D3
:100B40000FB6F894A895809360000FBE20936000C4
:100B5000FFCF019667E071E041E039DF6091070166
:100B600060FF02C0449A01C0449884E390E0C5CF7E
:100B7000CF93DF93EC0180E090E061E0BEDF81E0A5
:100B800090E063E3BADFA8DC80E690E060E0B5DFE8
:100B900081E690E060E0B1DF83E390E060E0ADDF0C
:100BA00084E390E062E0A9DF8981883719F080E072
:100BB00090E0A8DFDF91CF91089580E090E060DFC2
:100BC000813029F481E090E05BDF833319F080E02D
:100BD00090E0CEDF84E390E053DF80930701089537
:100BE000A6E0B0E0E6EFF5E00C94C0156C010196CC
:100BF000BE016F5F7F4F43E0EADE8230A0F1E98003
:100C0000823011F4FF2406C03E2D20E0EA80FF244C
:100C1000E22AF32A082F10E0FE01E00FF11FC701BE
:100C200060816BDF000F111F0F5F1F4F0C0D1D1D2B
:100C30000894E11CF11C6E010894C11CD11C0FC06A
:100C4000C801B60141E0C3DE009769F0C7016981C0
:100C500054DF0E5F1F4F82E090E0E80EF91EF801AE
:100C60008081882369F72696E8E00C94DC15FC0166
:100C70008281803470F48F5F82838081DF01A80FCE
:100C8000B11D13966C9313978F5F8083803409F4A2
:100C900010820895FC018281882371F08150828343
:100CA0009181DF01A90FB11D13968C9113979F5F5E
:100CB0009183903409F411820895FA019081882378
:100CC00071F0DB01A90FB11D41E050E0022E02C01E
:100CD000440F551F0A94E2F78C91842B8C932223A6
:100CE00019F0822F815009C09F5F973008F49083DC
:100CF000690F711DFB01108287E090E008951F933A
:100D0000182F469A882319F480E991E002C088E5FB
:100D100092E096DD4698112319F480E991E002C033
:100D200088E592E08DDD1F910895ACE0B0E0EBE93D
:100D3000F6E00C94B6157C01062F842F122FB70114
:100D4000402F21D1F701E00FF11D80830F5F09874C
:100D500019821A82470127E000E0E1E04E2E512C73
:100D600072E0672E712C6C0E7D1E5E010894A11C32
:100D7000B11C30C067E0C62ED12C1701200E311CEB
:100D8000C2010C2C02C0880F991F0A94E2F7F101EE
:100D900030818323B301A50190DF282F0894C10877
:100DA000D108FFEFCF16FFEFDF0651F7F401819175
:100DB0004F01082E82958025082E869586958025E0
:100DC00090E00196959587958170B301A50175DF37
:100DD000282F0F5FF9850F1768F2222319F0E22EF2
:100DE000EA9405C089818F5F898347E0E42E0981F9
:100DF000C02EDD242091B3013091B401B6016E5FA5
:100E00007F4F812F0E947415992787FD9095281791
:100E1000390720F48CE891E03EDD82C0281B390BB5
:100E20003093B4012093B301449A809163018823E5
:100E300011F4662407C01092630188E091E014D495
:100E4000662463948091AD01882309F4B7DB13DB3A
:100E500031E0232E312C22E0422E512C4C0E5D1E0F
:100E6000FF24802F992787FD9095840D951D9A87E3
:100E7000898700E080E043DF0F5F0C30D9F781E025
:100E80003EDFAA24BB241FC097E0892E912CF201DB
:100E9000EA0DFB1DFC87EB87C101082C02C0880FFF
:100EA000991F0A94E2F7EB85FC852081822327DFD6
:100EB000089481089108FFEF8F16FFEF9F0661F7F6
:100EC0000894A11CB11CAC14BD04F4F287E0A82E58
:100ED000B12C0FC0C1010A2C02C0880F991F0A94BF
:100EE000E2F7E985FA852081822309DF0894A108C9
:100EF000B108EA14FB0474F38AE0A7DC115009F08E
:100F0000B8CF8091B501882311F0A9DA02C086E339
:100F10005EDA662021F083D681E0809363014498F5
:100F20002C96E2E10C94D215A7E0B0E0EAE9F7E0F4
:100F30000C94C315F62E242F01968E010F5F1F4FC0
:100F4000B80145E02F8343DD682FC8014F2D2F8165
:100F5000ECDE2796E5E00C94DF1566E043E0E4CF95
:100F60003E9A46983F98EAE6F0E08081816080836F
:100F700082EC91E09093B4018093B30110922B0125
:100F80001092AD01089506C04150FB01E40FF11D20
:100F90009081890F4423C1F70895AF92BF92CF92F9
:100FA000DF92EF92FF921F93CF93DF93FC01109299
:100FB0004F01109242012181220F220F220F8381C3
:100FC000281B295F1092430180E030E097E077E032
:100FD00010E0A0E057E0C52ED12C41E0E42EF12C2A
:100FE0007CC0EF01C10FD11D4C8150E0072E02C023
:100FF000559547950A94E2F7B42FB170772311F015
:10100000715002C01F5F77E06B3459F4933049F49C
:101010003323B9F5BB2311F031E05FC010924F01CB
:101020001EC09F3F79F56634F1F4C82FD0E0CD5B48
:10103000DE4F4881042E42954025042E4695469564
:10104000402550E04F5F5F4F559547954170507078
:10105000CB2FD0E04C175D0761F030934F018093A8
:10106000420180E054C0653411F06B3411F4BB23AD
:10107000A1F38F5FC82FD0E0CD5BDE4F188297E0E1
:101080002CC030E0BB2341F1663461F4C82FD0E0BE
:10109000CD5BDE4F5701092E02C0AA0CBB1C0A947F
:1010A000E2F717C0653411F06B34B1F4C82FD0E00B
:1010B000CD5BDE4FA92EBB24A7FCB094A6014A1934
:1010C0005B095A01A70102C0440F551FAA94E2F719
:1010D0005A0148814A2948839150AF5F4A2F4150B5
:1010E000421708F47ECF30934F01809342012A17B4
:1010F00008F0B7CF653411F49F3F11F0332319F096
:101100008F5F8093420180914201811181E0DF91E4
:10111000CF911F91FF90EF90DF90CF90BF90AF9055
:101120000895FC019281A081B181A90FB11D8C911C
:101130002381322F31503383222321F49F5F928306
:1011400097E0938390E002C0959587952A95E2F702
:10115000817008958F929F92AF92BF92CF92DF924B
:10116000FF920F931F93DF93CF9300D0CDB7DEB7DD
:101170004C0100E010E0FF2471E0A72EB12CC62E38
:10118000DD240894C108D1081FC0C4014A836983C3
:10119000C8DF4A8169818823A9F0442359F0C60138
:1011A000801B910B950102C0220F331F8A95E2F735
:1011B000C90107C0C501002E02C0880F991F0A94FB
:1011C000E2F7F82A0F5F1F4F0617F8F28F2D0F90E6
:1011D0000F90CF91DF911F910F91FF90DF90CF90F3
:1011E000BF90AF909F908F900895A4E0B0E0EBEF98
:1011F000F8E00C94BF15FC0110924201218130E00F
:10120000A3E0220F331FAA95E1F78381281B310940
:101210002E3331050CF460C01B8287E08C8334963A
:10122000FA83E98310E000E07E010894E11CF11CE0
:101230002FC0C12EDD24C70168E040E08BDF23E42E
:1012400031E0C20ED31EF6018083B82E0B2CB2946F
:10125000B0240B2CB694B694B024C70162DF2B2DBA
:1012600030E02F5F3F4F359527952170307090E02B
:101270002817390731F4C70154DF912F9F5F882366
:1012800019F01093420128C0F60180810827192F18
:10129000163078F210934201C70168E040E05ADF4F
:1012A000C82E182F012E12951025012E1695169571
:1012B0001025C70136DF212F30E02F5F3F4F3595D6
:1012C00027952170307090E02817390729F480E0C5
:1012D0000C1519F481E001C080E02496E9E00C943B
:1012E000DB15FC01A181B0E050E02081CD01841B21
:1012F000950B0B9687319105E0F430E070E0C90161
:10130000861B970B8C309105A4F4EFEF853F9E0769
:1013100084F02A0F3B1F261B370B241B350B2C3068
:1013200031053CF480E09FEF253F39071CF081E058
:10133000089580E00895282F30E0C901880F991F93
:10134000820F931F860F911D95958795959587958B
:101350000895FC01A181AC3070F010926F00809173
:101360003F0190E064E170E00E947D15FC01E95EC0
:10137000FE4F10820895662391F08A0F911DDC01C3
:1013800021E030E0038002C0220F331F0A94E2F70D
:1013900014968C911497822B14968C9314978381B6
:1013A000982F91509383882341F487E08383818130
:1013B0008F5F8183E80FF11D148208951F920F92B1
:1013C0000FB60F921124FF920F931F932F933F9309
:1013D0004F935F936F937F938F939F93AF93BF933D
:1013E000CF93DF93EF93FF930091840010918500DA
:1013F00054E0169507955A95E1F710913F01812F1A
:1014000090E064E170E00E947D15EC01C95EDE4F62
:101410008881843031F40E3208F49BC00F3408F018
:101420008CC037990CC0843039F4CE0161E091DF73
:101430001092850010928400009361018AC0F090A0
:1014400061010F19009362011092850010928400CF
:10145000843021F4CE0160E07CDF7BC092E096BB5B
:10146000882371F484E68F1508F473C0053608F0FC
:1014700070C0F88A098B81E08A8382E0888369C022
:101480008230A9F5CE0140966F2D402F2ADF1A81B8
:10149000882359F088896F2D4EDF888B8989602FCA
:1014A0004ADF898B1F5F1A8354C01430F0F080EA42
:1014B0009FE090938900809388001C3050F0298928
:1014C000888990E0820F911D8536910514F084E0A3
:1014D00001C083E08883FA8A0B8B198287E08B83B3
:1014E0001C8282E080936F0034C01882BBCFCE0193
:1014F00042966F2D402FF5DE882361F0CE0161E02A
:1015000028DF8A896F2D17DF8A8B8B89602F13DF85
:101510008B8B1FC0CE0140966F2D402FE2DE8823BB
:1015200061F0CE0160E015DF88896F2D04DF888BC4
:101530008989602F00DF898B0CC010926F00812F8A
:1015400090E064E170E00E947D15FC01E95EFE4FD1
:101550001082FF91EF91DF91CF91BF91AF919F9159
:101560008F917F916F915F914F913F912F911F913B
:101570000F91FF900F900FBE0F901F9018951F9224
:101580000F920FB60F9211242F933F934F935F93B7
:101590006F937F938F939F93AF93BF93EF93FF933B
:1015A00010926F008091B50183FF02C08EE257D97F
:1015B00020913F01822F90E064E170E00E947D1550
:1015C000FC01E95EFE4F8081833060F0822F90E065
:1015D00064E170E00E947D15FC01E95EFE4F8181AF
:1015E000823020F410926F00822F0FC08091410151
:1015F0008130A9F48091B50182FF03C083E991E0B5
:101600004AD910926F0080913F0190E064E170E050
:101610000E947D15FC01E95EFE4F10820AC08F5FBB
:10162000809341012F5F20933F01223011F41092EB
:101630003F01FF91EF91BF91AF919F918F917F916A
:101640006F915F914F913F912F910F900FBE0F902F
:101650001F9018958091B501882321F00E94DE0229
:101660000C942F020C94EF01FC010196218122239E
:1016700059F48091B50162D98091B3019091B40180
:1016800065E040E25FD903C965EB71E041E09FD9B5
:10169000E1CFA0E0B0E0EFE4FBE00C94BE15809158
:1016A0006201882391F18091B50187FF16C084E320
:1016B0000E94CB018058803410F480E00CC0803C44
:1016C00010F08FE008C090E080559040A3E0959521
:1016D0008795AA95E1F78F59C2D88091B50183FF0C
:1016E00012C082E7BCD88091B50184FF03C080910D
:1016F0006101B5D886E6B3D88091B50184FF03C0F7
:1017000080916201ACD810926201809141018823DE
:1017100009F4F6C1449A8091400190E064E170E0E0
:101720000E947D15EC01C95EDE4FCE0166E435DC1A
:101730008823E9F180914201815080934201282F52
:1017400096E007C02150E22FF0E0ED5BFE4F3081C4
:10175000930F2223B9F7682F70E0FB01ED5BFE4F7A
:101760002081921711F4843078F4492F50E04F5FB4
:101770005F4FE22FF0E04E175F0781F4843070F086
:101780006D5B7E4FDB019C9386E46AC09150E92F2C
:10179000F0E0ED5BFE4F4081340F02C0982F3CE03B
:1017A0009923A1F7321719F4843008F091C1CE01C2
:1017B00065E4F3DB882309F48DC1809142018150F7
:1017C00080934201893009F085C190E08150E82F73
:1017D000F0E0ED5BFE4F208192278823B9F78091DE
:1017E0004C01981709F076C185E43AC0E0914201B6
:1017F000E150E093420140914F012E2F30E095E0FF
:1018000080E013C02150A22FB0E0AD5BBE4F5C91D1
:10181000652F62956F708627960F442311F033234E
:1018200019F05F708527950F3F5F222359F7980FB6
:101830009295907F982BF0E0E41BF109ED5BFE4F51
:101840008081981761F08B81982F9F5F9B838730F1
:1018500009F0BAC01B82898181508983B5C08BE4AD
:101860003091B50130FFB0C031FF02C020E059C057
:101870002091500140914201241789F590E00FC05A
:10188000692F70E0592F5F5FDB01AF5ABE4FFB013C
:10189000ED5BFE4F7C916081761719F4952F9217BE
:1018A00078F39417E1F4E090AF01F090B00100916B
:1018B000B1011091B201A0905D01B0905E01C090A5
:1018C0005F01D0906001EA18FB080C091D09B6E21F
:1018D000EB16F1040105110510F421E001C020E030
:1018E00090E00BC0692F70E0FB01EF5AFE4F6D5B7B
:1018F0007E4FDB015C9150839F5F941798F3909328
:1019000050014091AF015091B0016091B1017091CF
:10191000B20140935D0150935E0160935F0170934B
:1019200060018435E1F436FD1AC090914201953092
:10193000B0F0909145019B3409F446C0993609F402
:1019400043C0933509F440C09435F1F19D37E1F17E
:101950009E37D1F19091460190779037A9F12223DB
:1019600099F50E942F0480914F01882329F08091DE
:10197000420181508093420110E008C0E12FF0E065
:10198000ED5BFE4F80810E949E041F5FE09142014B
:101990001E17A0F380914F01882359F0F0E0ED5B12
:1019A000FE4F808190E08F70907061E040E30E9474
:1019B00064048091B50185FF05C084E30E94CB01DA
:1019C0000E949E040E9447048091B50182FF6FC06F
:1019D00080E70E942F04888190E062E040E20E944C
:1019E000A204888990E0F4E0880F991FFA95E1F746
:1019F00065E040E20E94A204898990E0E4E0880F5B
:101A0000991FEA95E1F765E040E20E94A2048A8905
:101A100090E074E0880F991F7A95E1F765E040E265
:101A20000E94A2048B8990E064E0880F991F6A9558
:101A3000E1F765E040E20E94A2048A8190E063E061
:101A400040E20E94A204898190E063E040E20E94AB
:101A5000A2049B8127E030E0F901E91BF109CF01E5
:101A600062E040E20E94A20480E20E942F04809182
:101A7000B50185FF08C084E30E94CB010E949E044B
:101A800080E20E942F048B81873019F089818F5F5B
:101A9000898310E007C0FE01E10FF11D84810E94DF
:101AA0009E041F5F89811817B0F30E9447041882B3
:101AB00080914101815080934101809140018F5F6D
:101AC00080934001823011F410924001449818C074
:101AD00084E5C6CECE0189DB882311F088E4C0CE30
:101AE000CE014296609161014B89FBDB682FCE01EC
:101AF00030DCCE016BE451DA882309F4A4CE76CE33
:101B0000CDB7DEB7EAE00C94DA15CF92DF92FF9200
:101B10000F931F93DF93CF93CDB7DEB76E970FB6BA
:101B2000F894DEBF0FBECDBF80916301882309F416
:101B300068C0379B58C08FE30E94CB018F778983A1
:101B40008E3110F08DE1898345988FEF0E94C50199
:101B500010E082E0C82ED12CCC0EDD1E08C080E043
:101B60000E94C501F601E10FF11D80831F5F09810D
:101B70001017A8F380E00E94C501F82E80E00E94B3
:101B8000C501459A8091B50184FF12C08AE70E9481
:101B90002F0410E06E010894C11CD11CF601E10F66
:101BA000F11D80810E942F041F5F0117B8F729C023
:101BB0008AE50E942F0410E06E010894C11CD11C1C
:101BC000F601E10FF11D80810E949E041F5F011745
:101BD000B8F78091B50185FF03C08F2D0E949E0448
:101BE0000E9447040EC085E30E94CB01813149F475
:101BF0008AE30E94E70186E30E94E70184E30E94F2
:101C0000E7016E960FB6F894DEBF0FBECDBFCF9141
:101C1000DF911F910F91FF90DF90CF9008951F9358
:101C2000CF93DF93EC983D9A459A8EE190E00E9425
:101C3000200445988EE190E00E942004459A8DE2B0
:101C400090E00E94200480E30E94E70184E690E097
:101C50000E942004CAE9D1E0FE018491813448F455
:101C6000319664910E94D9012296F1E0C63DDF07CA
:101C700099F783E30E94E70184E00E94250410E0C5
:101C8000115041F084E30E94E7018AE090E00E9455
:101C90002004F6CFDF91CF911F910895CF92DF926C
:101CA000EF92FF921F93DF93CF93CDB7DEB76E977E
:101CB0000FB6F894DEBF0FBECDBF0196BE016F5FB9
:101CC0007F4F4DE10E94E704182F90E0AC01415096
:101CD0005040298130E04217530709F0AFC023E09C
:101CE000880F991F2A95E1F76AE070E02CD76C59AC
:101CF0007F4FCB01AA2797FDA095BA2F2091B30162
:101D00003091B401A90160E070E0481759076A07F3
:101D10007B0728F486ED91E00E944B048FC0281BBE
:101D2000390B3093B4012093B30180916301882370
:101D300009F475DF85E30E94CB018D3071F08AE5EF
:101D40000E942F0485E40E942F0482E50E942F0444
:101D500082E50E942F0481E314C00E943B0285E3C8
:101D60000E94CB018331C1F08AE50E942F0485E4F3
:101D70000E942F0482E50E942F0482E50E942F0416
:101D800082E30E942F0485E30E94CB010E949E04FF
:101D90000E94470444DF52C0EE24FF2484E60E94E0
:101DA00025040894E11CF11C8AE0E816F104B1F75F
:101DB00045988FE70E94C5016E010894C11CD11C93
:101DC000760105C0F70181917F010E94C5018E2D2A
:101DD0008C198117B8F3459A10E085E30E94CB0176
:101DE0008D3059F085E30E94CB01833131F481E0DD
:101DF0000E9425041F5F183C81F785E30E94CB01F8
:101E00008D30B9F08AE50E942F0485E40E942F04EA
:101E100082E50E942F0482E50E942F0483E30E9442
:101E20002F0485E30E94CB010E949E040E94470478
:101E3000F6DE80916301882309F40CDC6E960FB600
:101E4000F894DEBF0FBECDBFCF91DF911F91FF9001
:101E5000EF90DF90CF900895FC019C012F5F3F4FE2
:101E60009181923729F4DBDE81E08093630108954C
:101E7000933711F4C90112CF109263010895282FEE
:101E8000813081F4469A80910B0190910C0163E0BE
:101E900070E033D60E942004469880910B01909107
:101EA0000C012EC080910B0190910C012223E9F4CA
:101EB000469A0E942004469880910B0190910C0153
:101EC00063E070E01AD60E942004469A80910B01CC
:101ED00090910C010E942004469880910B019091F2
:101EE0000C0163E070E009D61CC0469A0E942004F1
:101EF000469880910B0190910C0163E070E0FDD554
:101F00000E942004469A80910B0190910C0163E09D
:101F100070E0F3D50E942004469880910B019091C7
:101F20000C010C942004CF93DF93EC983D9A459AD2
:101F30008EE190E00E94200445988EE190E00E949E
:101F40002004459A8DE290E00E94200480E30E94E4
:101F5000E70184E690E00E942004459880E40E9416
:101F6000C501CDEDD1E0FE0184910E94C50121960D
:101F7000F1E0CA3EDF07B9F780910F010E94C50169
:101F8000809110010E94C501809111010E94C5013C
:101F90002396FE0184910E94C5012196F2E0C6308D
:101FA000DF07B9F7459A45988EE70E94C5018BE295
:101FB00090E0EC0121960E9440050E94C501CE01EF
:101FC000C333D105B1F7459A83E30E94E70181E06D
:101FD0000E94250481E08093AD01DF91CF910895A7
:101FE000AF92BF92CF92DF92FF920F931F93DF9336
:101FF000CF930F92CDB7DEB75C01FC0181818437AE
:1020000059F4C50102966BE071E00E941C058091B5
:102010000B0190910C0111C0833709F09CC0F501B0
:102020008281823789F4C50103966DE071E00E94D8
:102030001C0580910D0190910E0160E040E20E942C
:10204000A2040E944704E1C0449A8091660188235B
:1020500069F480916301882329F081E08093650110
:102060001092630160DF83E00E94250486E30E94F2
:10207000E7018AE30E94E7018BE30E94E7010E94E7
:102080003B0200E010E029C0F6018281803311F4A8
:1020900080E005C0813311F481E001C082E0EFDE11
:1020A000F3940894C11CD11CFDE0FF1669F7469A11
:1020B00080910B0190910C010E942004469820E031
:1020C00080910B0190910C0129830E9420042981A9
:1020D0002F5F2F31A9F70F5F1F4F80910D01909156
:1020E0000E010817190720F46501FF24F394CCCFE3
:1020F00080916601882359F08091B501882319F0F9
:102100000E942F0210C086E30E94E7010CC080915C
:102110006501882339F01092650181DD81E08093AB
:10212000630101C097DA449889E60E942F0483E78F
:102130000E942F0401E0F5018281803319F0813380
:1021400009F086E40E942F040F5F0894A11CB11CC3
:102150000D3089F776CF823771F48091630188233F
:1021600029F081E08093650110926301DCDE81E05B
:10217000809366014AC0863659F5C5010296F5017D
:102180002281203351F480E180930F0180EB809312
:10219000100181E78093110105C06FE071E043E019
:1021A0000E94E70489E60E942F0486E60E942F041D
:1021B0008AE30E942F0480910F010E949E04809167
:1021C00010010E949E04809111010E949E0439CF4B
:1021D0008837D9F480916501882339F01092650120
:1021E0001EDD81E08093630108C082E090E00E94E0
:1021F0008F028091B501882319F00E942F0203C03D
:1022000086E30E94E701109266010F90CF91DF9163
:102210001F910F91FF90DF90CF90BF90AF900895E6
:1022200085E390E00E9440058093B60186E390E04C
:102230000E9440058093B7010895A6E0B0E0E2E275
:10224000F1E1A4C40196BE016F5F7F4F45E00E949B
:10225000E7048430D8F499819130B1F4833061F48B
:1022600085E390E06A810E947D0586E390E06B81C2
:102270000E947D05D5DF0AC08091B6010E949E04B0
:102280008091B7010E949E040E9447042696E2E0D6
:1022900099C40F931F93CF93DF93EC0110E0812F2C
:1022A00090E063E070E029D4FC01EC58FF4F04910A
:1022B000812F90E063E070E020D48B589F4FFC01A9
:1022C00025913491002399F0209739F480E20E94FF
:1022D0002F04802F0E942F0408C08881801729F4C2
:1022E000CE01F901099581E003C01F5FD8CF80E0DE
:1022F000DF91CF911F910F9108951F9310911601B7
:102300008093160135C08BEF91E00E944A068A3017
:1023100011F08D3009F5E0916701EE2349F1F0E00D
:10232000E859FE4F108288E691E0B3DF882389F4F4
:102330008EE192E00E944B0488E691E00E945804EE
:1023400086E092E00E944B0480E090E0A2DF0E94D1
:102350004704109267010CC090916701903440F4DB
:10236000E92FF0E0E859FE4F80839F5F909367016B
:102370008091FD01882339F6109316011F9108956D
:10238000E4E6F0E080818B7F8083299A84B18760C6
:1023900084B9239880E58CBD8DB581608DBD08958D
:1023A000A2E0B0E0E5EDF1E1F1C3E3E4F2E0809119
:1023B000F100819382E0EB34F807C9F79091430272
:1023C00080914402853009F4A1C0863048F4813000
:1023D00009F44AC0813070F0833009F025C144C04F
:1023E000883009F4D9C0893009F4FEC0863009F07C
:1023F0001BC1B6C0903821F0923809F015C108C051
:1024000080913E0290913F02992389F082600FC033
:10241000809147028093E9008091EB0090E025E0F5
:10242000969587952A95E1F781701092E900909131
:10243000E800977F9093E8008093F1001092F100FC
:102440008091E800982F9E7F9093E8008F7780938B
:10245000E80005C080914202882309F4E7C080911A
:10246000E80082FFF7CFB6C0992319F0923009F047
:10247000DBC0292F30E02F7130702115310521F09C
:1024800022303105B9F50CC090914502913009F028
:10249000CDC010923F02833069F590933F022AC06D
:1024A00090914502992331F590914702977009F474
:1024B000BDC09093E9002091EB0020FF1BC081304C
:1024C000A1F48091EB0080618093EB0021E030E08B
:1024D00002C0220F331F9A95E2F72093EA00109270
:1024E000EA008091EB00886003C08091EB0080627D
:1024F0008093EB001092E9008091E800877F809341
:10250000E8008091E800982F9E7F68C0992309F029
:102510008BC0209145028091E800877F8093E8007E
:102520009091E800892F8E7F8093E8009F779093A9
:10253000E80005C080914202882309F477C08091A9
:10254000E80080FFF7CF822F8F77982F90689093C5
:10255000E300882309F46AC083E08093420266C0E6
:102560009058923008F060C08091450290914602E8
:1025700060914702AE014F5F5F4F0E948601BC0130
:10258000009709F453C08091E800877F8093E800AA
:1025900089819A8124D11EC0903809F045C080916C
:1025A000E800877F8093E800809140028093F100EB
:1025B0008091E800982F9E7F9093E8008F7780931A
:1025C000E80004C080914202882381F18091E800F4
:1025D00082FFF8CF8091E800982F9B7F9093E800CE
:1025E0008F778093E80022C09923F1F4809145020F
:1025F0008230E0F49091E800977F9093E800809318
:1026000040029091E800292F2E7F2093E8009F77C9
:102610009093E800882311F084E001C083E0809368
:1026200042020E94A10302C00E9463038091E8005D
:1026300083FF0AC08091EB0080628093EB00809161
:10264000E800877F8093E8002296E2E0BBC2809397
:10265000E9008091EB0081608093EB001092ED0027
:102660006093EC004093ED008091EE00881F882776
:10267000881F08951092F40080E08093E900109282
:10268000F0001092E8009091ED009D7F9093ED0096
:102690009091EB009E7F9093EB008F5F853069F700
:1026A0000895809143028823BCF404C080914202C3
:1026B0008823F9F08091E80082FFF8CF8091E8004C
:1026C000982F9B7F9093E8008F778093E800089580
:1026D00080914202882369F08091E80080FFF8CF62
:1026E0008091E800982F9E7F9093E8008F778093E9
:1026F000E800089584E69091EC0090FF05C0909169
:10270000E80090FF05C01FC09091E80092FD1BC03B
:1027100090914202992311F482E008959091EB0088
:1027200095FF02C081E008959091E10092FFE3CF10
:102730009091E1009B7F9093E100882311F483E066
:1027400008958150D8CF80E00895FC01209149027E
:1027500030914A02862F972F2817390708F4C901AC
:1027600020E02CC03091E80033FF02C081E00895E2
:102770003091E80032FD2BC030914202332369F1E1
:102780003091E80030FF1AC004C021912093F1007D
:102790000197009721F02091F2002830B0F330919A
:1027A000F20020E0383009F421E03091E800432FB6
:1027B0004E7F4093E8003F773093E800009791F612
:1027C000222381F604C080914202882331F0809157
:1027D000E80082FFF8CF80E0089582E00895482F56
:1027E000592F2091490230914A02862F972F28179E
:1027F000390708F4C90120E02FC03091E80033FF09
:1028000002C081E008953091E80032FD2EC0309181
:102810004202332381F13091E80030FF1DC007C030
:10282000FA014F5F5F4F24912093F10001970097C9
:1028300021F02091F200283098F33091F20020E04E
:10284000383009F421E03091E800632F6E7F609307
:10285000E8003F773093E800009779F6222369F685
:1028600004C080914202882331F08091E80082FF09
:10287000F8CF80E0089582E00895FC0122C08091A5
:10288000E80083FF02C081E008958091420288231E
:1028900031F18091E80082FFF2CF06C08091F10013
:1028A00081936150704021F08091F2008823B1F74C
:1028B0008091E800982F9B7F9093E8008F7780931A
:1028C000E80061157105D9F604C0809142028823A1
:1028D00031F08091E80080FFF8CF80E0089582E039
:1028E000089553D055D01092420210924002109297
:1028F0003F0210923E0219BC89B5826089BD09B4BD
:1029000000FEFDCF8091D800982F9F779093D8003C
:1029100080688093D800809163008E7F80936300ED
:102920008091D8008F7D8093D8008091E0008E7FC9
:102930008093E0008091E1008E7F8093E1008091A0
:10294000E20081608093E2008091E100877F8093C4
:10295000E1008091E20088608093E2000895C1DF89
:10296000E0EEF0E0808181608083E8EDF0E080813E
:102970008F77808319BC109241020895B2DF81E005
:10298000809341027894089508951092E20008958A
:102990001092E10008951F920F920FB60F9211242A
:1029A0002F933F934F935F936F937F938F939F9357
:1029B000AF93BF93EF93FF938091E10080FF1CC022
:1029C0008091E20080FF18C08091E1008E7F8093AB
:1029D000E1008091E2008E7F8093E2008091E2002E
:1029E00080618093E2008091D80080628093D8005B
:1029F00019BC10924202C8DF8091E10084FF29C017
:102A00008091E20084FF25C019BC89B5826089BD30
:102A100009B400FEFDCF8091D8008F7D8093D8004F
:102A20008091E1008F7E8093E1008091E2008F7EB3
:102A30008093E2008091E20081608093E2008091C7
:102A40004002882311F481E001C084E080934202B7
:102A50009BDF8091E10083FF23C08091E20083FF30
:102A60001FC08091E100877F8093E10082E0809326
:102A70004202109240028091E1008E7F8093E1003B
:102A80008091E2008E7F8093E2008091E20080617D
:102A90008093E200EFDD80E060E042E0D8DD74DFAB
:102AA000FF91EF91BF91AF919F918F917F916F9126
:102AB0005F914F913F912F910F900FBE0F901F90FC
:102AC00018951F9380914202882361F01091E900CC
:102AD0001092E9008091E80083FF01C061DC17706B
:102AE0001093E9001F910895002480FD060E660FE3
:102AF00011F08695D1F7802D08955527002480FF89
:102B000002C0060E571F660F771F6115710521F071
:102B100096958795009799F7952F802D0895AA1B74
:102B2000BB1B51E107C0AA1FBB1FA617B70710F0B8
:102B3000A61BB70B881F991F5A95A9F780959095EA
:102B4000BC01CD01089597FB092E07260AD077FD19
:102B500004D0E5DF06D000201AF4709561957F4F10
:102B60000895F6F7909581959F4F08952F923F9283
:102B70004F925F926F927F928F929F92AF92BF928D
:102B8000CF92DF92EF92FF920F931F93CF93DF9339
:102B9000CDB7DEB7CA1BDB0B0FB6F894DEBF0FBE96
:102BA000CDBF09942A88398848885F846E847D84E3
:102BB0008C849B84AA84B984C884DF80EE80FD80E5
:102BC0000C811B81AA81B981CE0FD11D0FB6F8945B
:102BD000DEBF0FBECDBFED010895F999FECF92BDC6
:102BE00081BDF89A992780B50895262FF999FECFCF
:102BF0001FBA92BD81BD20BD0FB6F894FA9AF99A1A
:0A2C00000FBE01960895F894FFCF6F
:102C0A008025000000000802323100A401060010ED
:022C1A00B07197
:00000001FF
