:10000000E3C10000FDC10000FBC100000C94D50E4F
:10001000F7C10000F5C10000F3C10000F1C100000C
:10002000EFC10000EDC10000EBC100000C943426CC
:10003000E7C10000E5C10000E3C100000C9411100D
:10004000DFC10000DDC10000DBC10000E6C400002C
:10005000D7C10000D5C10000D3C10000D1C100004C
:10006000CFC10000CDC10000CBC10000C9C100005C
:10007000C7C10000C5C10000C3C10000C1C100006C
:10008000BFC10000BDC10000BBC10000B9C100007C
:10009000B7C10000B5C1000042D80743D402469E54
:1000A0000B69111B41CD165A481945481A47E409F6
:1000B0004DA00A4B1C0A55B50959431C52870754D9
:1000C0004A20565F07574F0858FE12650E086616FD
:1000D000226D08236CFF0774AC0575911478EE034C
:1000E0000000001201100102000008EB034B200089
:1000F00000010200010902430002010080320904EC
:100100000000010202010005240001100524010382
:1001100001042402060524060001070582030800E5
:10012000FF09040100020A00000007050402400064
:10013000000705830240000004030904160362005F
:100140007500730077006100720065002E00640086
:10015000650000002A03430055004C0038003600BB
:10016000380000002A03430055004C0034003300DF
:100170003300000000030F1E2627000000030F1E9F
:100180002536386700030F256740605000030F27AE
:100190005188838100030F2750C8C3C20027000085
:1001A0000000000000670000000000000050000098
:1001B00000000000008100000000000000C20000FC
:1001C000000000000D2E2D07D3913D0432000006E3
:1001D0000021656A55E43023B900070018146C0744
:1001E0000090876BF85611E92A001F4100072E0581
:1001F0000DD391FF080500000C0021656A2D3B130B
:1002000022F862073F181D1CC700B0876BF8B611B3
:10021000EA2A001F4100202F2000203D2000504CE2
:100220004C310D0A00504C4C300D0A005620312E36
:1002300035392043554C383638005620312E353963
:100240002043554C3433330043554C5F5634002023
:100250002F2000203D20004C4F56460D0A00424FF3
:1002600056460D0A000007022E030D04E905CA07D1
:100270000C0B060D210E650F6A10C81193120315A1
:10028000341733181819161B432156250026112937
:10029000592C812D353EC30B08105B11F8154719F9
:1002A0001D1A1C1BC71C001DB221B623EA00070241
:1002B0004604C605260B0610C81193120313221517
:1002C00034173F182819161B432156250026110DF7
:1002D000210E650F6A070C160720F81E871F6B2971
:1002E000592C812D353EC3FF004C454E4552520DD1
:1002F0000A004C4F56460D0A004C454E4552520DD1
:100300000A0000070246030D049A057D0642070C09
:100310000B060D210E650F6A10C8119312031534D8
:100320001700181819161B431C6825002611FF001A
:1003300000000000000000000000000000000D2E82
:100340002D07D3913D04320000060010B07155E432
:100350003023B900070018146C070090876BF8561B
:1003600011E92A001F41000D2E2D07D3913D0432C3
:100370000000060010ABA5550A3023B9000700188D
:10038000146C070090876BF85611E92A001F410092
:1003900000535300547D7DFFFF4B4B7E7E00454F45
:1003A000420D0A004E2F41004E2F4100206973205C
:1003B000756E6B6E6F776E2920557365206F6E6555
:1003C000206F66003F20280011241FBECFEFD4E02D
:1003D000DEBFCDBF11E0A0E0B1E0E4EDF0E502C08A
:1003E00005900D92AE31B107D9F713E0AEE1B1E05F
:1003F00001C01D92AE3EB107E1F70CD00C94682805
:10040000FFCDF89481E085BF82E085BFE0E0F8E3AE
:10041000099508952FE088E190E00FB6F894A8952B
:10042000809360000FBE2093600080E090E020E8A1
:100430000FB6F89420936100809361000FBE2E9A4E
:100440002D9A04B603FE0AC083E390E048D58823C2
:1004500029F083E390E060E0A6D5D3DF89EF87BD84
:1004600084E085BD82E084BD80936E0010928000A0
:100470008AE08093810084B7877F84BF3D9A0E9481
:10048000D422FAD50E9427260E9429200E94A10B7F
:1004900081E992E29093DD028093DC020E943315A1
:1004A00089E08093230145980E94CA26F9D10E94D1
:1004B0007F10F5D20E94B2210E9418130E944615A7
:1004C0000E94CF180E949019EFCFDA01292F33270D
:1004D0002230310559F02330310569F021303105E2
:1004E00061F543EE50E022E130E02BC045EF50E0F3
:1004F00023E430E026C090708130910551F08130C6
:10050000910518F00297C9F40BC0E8E3F1E084917B
:1005100003C0ECE3F1E08491282F30E0AF0111C07B
:100520001E9B03C044E551E002C044E651E0E4E50F
:10053000F1E0E4912E2F30E004C040E050E020E0F4
:1005400030E04D935C93C90108958EBD0DB407FE54
:10055000FDCF8EB508952898806C8EBD0DB407FE32
:10056000FDCF8EB51EBC0DB407FEFDCF8EB5289A0B
:100570000895289880648EBD0DB407FEFDCF8EB51A
:100580006EBD0DB407FEFDCF8EB5289A089528984C
:100590008EBD0DB407FEFDCF8EB5289A089586E373
:1005A000F6DF1092DE020895A1E0B0E0EAEDF2E09D
:1005B0000C9424270196BE016F5F7F4F41E020D449
:1005C000892B41F18981893989F400E010E0802F7D
:1005D000C2DFD5D3C80187709070079709F47DD327
:1005E0000F5F1F4F0033110591F714C0B4DF182FB0
:1005F00083E43ED38981C3D38AE192E072D3812F11
:10060000BED386E192E06DD3812F90E062E040E2BC
:10061000BAD363D32196E4E00C9440271F931FEFD5
:1006200084E3B5DF8AE090E0A4D21150C9F7EA9ADA
:100630001F9108951F93EA9886E3A9DF1FEF85E3D2
:10064000A6DF8AE090E095D21150C9F71F91089576
:10065000EF92FF920F93CF93DF93082F8A3008F029
:1006600008E0C02FD0E083E0CC0FDD1F8A95E1F7D2
:10067000CC58DE4F8BE290E07C010894E11CF11C29
:10068000FE01649190D42196C70183339105A1F7AF
:100690000550053010F067E101C061E184E290E0AF
:1006A00082D4DF91CF910F91FF90EF900895CF9377
:1006B000DF9382E090E0EC012196FE01EF53FE4FC4
:1006C000E4916E2F70D4CB32D10511F0CE01F3CF6F
:1006D00087E390E0EC012196FE01EB54FE4FE4919C
:1006E0006E2F61D4C036D10511F0CE01F3CF1E9923
:1006F00018C08FE090E060E156D480E190E060EBBC
:1007000052D481E190E061E74ED484E490E060E16E
:100710004AD485E490E060EB46D486E490E061E75B
:1007200042D488E095DFDF91CF9108950F931F9316
:10073000CF93DF938C011092CE01EA98209A289AE9
:100740008EE190E016D228988EE190E012D2289A9D
:100750008DE290E00ED280E31ADF84E690E009D2C9
:10076000289880E48EBD0DB407FEFDCF8EB5C0E0A5
:10077000D0E0C8018C0F9D1FB2D38EBD0DB407FE13
:10078000FDCF8EB52196C932D10599F7289A2898C0
:100790008EE78EBD0DB407FEFDCF8EB58BE290E0E7
:1007A000EC0121969CD38EBD0DB407FEFDCF8EB516
:1007B000C333D10511F0CE01F3CF289A83E3E7DEEE
:1007C00081E0DCD1DF91CF911F910F91089582E0FC
:1007D00090E0ACDF81E08093DE020895A1E0B0E01C
:1007E000E4EFF3E00C94262722E029830196BE0172
:1007F0006F5F7F4F41E004D389812ADF82E090E080
:1008000095DF2196E2E00C944227FF920F931F930D
:10081000F82E062F1FEF85E39EDE8F1549F0802FFF
:1008200090E0A7D1112311F481E003C01150F3CF60
:1008300080E01F910F91FF90089585E28CDE8F3349
:10084000F1F486E3A4DE80911E01882321F485E281
:1008500092E047D202C08DE39ADE83E398DE81E026
:1008600064E0D3DF85E277DE8F3349F480911E01A7
:10087000882319F48EE192E034D281E0089580E07B
:10088000089585E368DE8D3051F485E264DE8F33B0
:1008900031F4D3DF84E37BDE80778031D9F70895AC
:1008A0008091E103843009F061C08093E900809178
:1008B0001F01882341F58091E80085FD06C023C013
:1008C0006091F1008AE993E038D48091F2008823A6
:1008D000B9F78091E800982F9B7F9093E8008F777D
:1008E0008093E80081E080931F0180E594E090937D
:1008F000DB028093DA02E091DC02F091DD0281E01C
:10090000099510921F0183E08093E90080915903BB
:10091000882361F18091E80085FF28C0F89405C024
:1009200087E593E022D48093F100809159038823D6
:1009300021F08091F200803498F378948091F20055
:100940009091E800292F2E7F2093E8009F779093C5
:10095000E800803459F40E94E1248091E800982F47
:100960009E7F9093E8008F778093E80008959091A0
:10097000E2038091E303813229F0823261F1803217
:1009800099F512C0913A81F58091E800877F8093B4
:10099000E80080E091E067E070E00E940C25809123
:1009A000E800982F9B7F11C09132F1F48091E8000C
:1009B000877F8093E80080E091E067E070E00E942C
:1009C000A6258091E800982F9E7F9093E8008F776E
:1009D0008093E8000895913239F48091E800877F90
:1009E0008093E8000C94B824089582E061EC42E022
:1009F0000E948E2483E061E842E30E948E2484E01A
:100A000060E842E30E948E241092000110920101DE
:100A1000109202011092030108951F920F920FB6D7
:100A20000F9211248F939F93AF93BF938091E00215
:100A30009091E102A091E202B091E3020196A11D22
:100A4000B11D8093E0029093E102A093E202B09383
:100A5000E3028091DF028F5F8093DF028091DF02EB
:100A60008D3710F01092DF02809142039091430382
:100A7000009729F00197909343038093420380915C
:100A800055038F3F19F0815080935503BF91AF916B
:100A90009F918F910F900FBE0F901F90189580918E
:100AA000E0029091E102A091E202B091E302209174
:100AB0002101281709F44FC08091E0029091E102D2
:100AC000A091E202B091E30280932101A895809168
:100AD000420390914303892B11F40E94CD1F809112
:100AE0005503882311F40E94B41F80913203882398
:100AF00039F0815080933203882311F40E947514D9
:100B00008091DF02882339F58091070181FF04C0BD
:100B100088B190E2892788B98091E4029091E5023A
:100B200023E08438920728F401969093E50280939D
:100B3000E402809120018F5F809320018C3359F46F
:100B40001092200180913F038F5F80933F038C338D
:100B500010F010923F0308958091E30210D180912C
:100B6000E2020DD18091E1020AD18091E00207D129
:100B7000B4C0880F991F0197F1F7089520ED37E071
:100B800004C0F9013197F1F781508823D1F7089516
:100B9000CF93DF93AC01DC0113968C9113978435CE
:100BA00009F063C09C912DE001C02F5F291730F43C
:100BB000FA01E20FF11D83818B33B9F730E0E92FA1
:100BC000F0E0CF010F972817390709F04EC03E9784
:100BD0009A012E0F3F1F3E96D90113968C918435B2
:100BE00009F043C03B97EA01CE0FDF1F3B96DA01C5
:100BF00014969C91149789819817B9F515969C9134
:100C000015978A81981789F516969C9116978B816E
:100C1000981759F517969C918C81981731F5719713
:100C2000E40FF51F8D818383F90131968E81D901FF
:100C300011968C93DF01119689858183FD01319690
:100C40008A8511968C93DF0111968B8581838C8523
:100C500011968C9311978D8512968C93FA01808151
:100C60008A50808382818A508283DF91CF91089558
:100C70001F93182F8091E103843081F48091230128
:100C800080FF0CC080915903803408F009DE87E5AD
:100C900093E0612F52D21A3009F402DE80913D03B5
:100CA0008823C9F08091230183FF15C01A3099F081
:100CB0001D3011F46BE301C0612F8DEE92E03DD247
:100CC0001D3019F48DEE92E063DF83E080933203F0
:100CD00082E0809338031F9108958DE0C9DF8AE098
:100CE000C7CFCF93DF93EC0102C0C2DF2196FE0194
:100CF00084918823D1F7DF91CF910895CF93DF932B
:100D0000EC0102C02196B4DF88818823D9F7DF91F6
:100D1000CF910895A5E0B0E0E0E9F6E00C94262735
:100D20001D8234E0DE011196282F2F7031502A30B9
:100D300010F4205D01C0295CFD01E30FF11D20834B
:100D400024E0969587952A95E1F76150009761F721
:100D500006C03150FC01E30FF11D408302C0CE01FB
:100D60000196615067FD02C0332399F7CE010196C9
:100D7000830F911DC3DF2596E2E00C94422790E09B
:100D800062E040E3C7CFA6E0B0E0E9ECF6E00C9407
:100D900022279C01162F042F1E8245E07E01089415
:100DA000E11CF11C4150F701E40FF11DC9016AE09B
:100DB00070E00E94EF26805D8083C9016AE070E0E8
:100DC0000E94EF269B0111506115710549F04423E3
:100DD00049F706C04150FC01E40FF11D008302C039
:100DE000CE010196115017FD02C0442399F7CE01A0
:100DF0000196840F911D82DF2696E6E00C943E2733
:100E0000DC01FB0123C0822F80538A3010F050E0B8
:100E100002C0382B51E0822F8154863020F42753B2
:100E2000322B295C51E0822F8156863018F42755E9
:100E3000322B07C0552329F4203271F02A3361F098
:100E40000EC0992331F03193415049F030E090E0E9
:100E500003C03295307F91E02D912223A1F6CF017E
:100E6000861B970B0895FC01DB0120E030E00FC0EA
:100E7000842F80538A3058F4C9016AE070E00E94E0
:100E8000DD26242F30E020533040280F391F4191B8
:100E9000442371F72D933C930895FB01982F92956D
:100EA0009F709A3010F4905D01C0995C90838F70B0
:100EB0008A3010F4805D01C0895C81830895FC0153
:100EC0008181883419F488E492E007C01E9903C038
:100ED0008AE392E002C08CE292E003DFFECE0C9443
:100EE000522808951F93CF93DF93EC01162F09C06A
:100EF0001150CE01F4DF43DF112311F08AE3B8DE95
:100F000021961123A9F7DF91CF911F910895EF92B8
:100F1000FF921F93DF93CF9300D0CDB7DEB7FC01D4
:100F200081818D3421F48AEF93E066E005C080353D
:100F300029F48AED93E060E1D5DF2CC01A82198292
:100F4000CF010196BE016F5F7F4F42E059DF2981DB
:100F5000823041F4922F80E02A81E22EFF24E82A99
:100F6000F92A02C0E22EFF24C701B9DF182F82E55B
:100F70007FDEC70164E040E3CDDE83E592E0B1DED1
:100F8000812FFDDE8FE492E0ACDE812F90E062E005
:100F900040E2F9DEA2DE0F900F90CF91DF911F911A
:100FA000FF90EF9008950E945A28F999FECF089576
:100FB000A1E0B0E0EEEDF7E00C942627198200974F
:100FC00031F00196BE016F5F7F4F41E019DF8981EB
:100FD000882321F083E390E061E0E5DF0E9418269A
:100FE00010926E00F89428E088E190E00FB6F89433
:100FF000A895809360000FBE20936000FFCF0196FC
:1010000067E071E041E0FCDE6091070160FF02C033
:10101000459A01C0459884E390E0C5CF0F931F9394
:101020008C0180E090E061E0BEDF81E090E06BE366
:10103000BADF3DDB80E690E060E0B5DF81E690E07E
:1010400060E0B1DF83E390E060E0ADDF84E390E057
:1010500062E0A9DF80E690E060E0A5DF81E690E055
:1010600060E0A1DFF8018181883719F080E090E02D
:101070009FDF1F910F91089580E090E030DF813075
:1010800029F481E090E02BDF8B3319F080E090E0D1
:10109000C5DF84E390E023DF809307010895A6E095
:1010A000B0E0E5E5F8E00C9420276C010196BE0164
:1010B0006F5F7F4F43E0A4DE082F8230A8F12981C3
:1010C000823019F4E22EFF2407C0922F80E02A819B
:1010D000E22EFF24E82AF92A10E0FE01E00FF11FBA
:1010E000C701608160DF000F111F0F5F1F4F0C0DE4
:1010F0001D1D0894E11CF11C6E010894C11CD11C3B
:101100000FC0C801B60141E07BDE892B69F0C70141
:10111000698149DF0E5F1F4F82E090E0E80EF91E03
:10112000F8018081882369F72696E8E00C943C2733
:10113000FC011282108211820895DC019FB7F8949D
:1011400012968C911297803470F48F5F12968C9364
:1011500012978C91FD01E80FF11D63838F5F8C93D3
:10116000803409F41C929FBF0895DC012FB7F894D6
:1011700012968C911297882319F42FBF90E014C017
:10118000815012968C93129711968C911197FD01B4
:10119000E80FF11D93818F5F11968C931197803426
:1011A00011F411961C922FBF892F0895CF93DF93CE
:1011B000DB01EA01322F4881882369F0FB01E40F4B
:1011C000F11D81E090E002C0880F991F2A95E2F797
:1011D0002081282B2083332319F0832F815009C0CD
:1011E000842F8F5F8C3008F48883A80FB11D1C9268
:1011F00087E090E0DF91CF9108951F93182F5B9ABD
:10120000882319F08091260102C08091240190E08A
:1012100034E0880F991F3A95E1F7ABDC5B98112316
:1012200019F08091270102C08091250190E024E00F
:10123000880F991F2A95E1F79CDC1F910895A0E083
:10124000B0E0E5E2F9E00C9418274C01562EC42ECC
:10125000122FD02E4E2C2091E4023091E502642F03
:1012600070E06E5F7F4F802F90E00E94DD2699270F
:1012700087FD90952817390720F487E592E031DD46
:101280006FC0281B390B3093E5022093E402459A86
:101290008091CE01882311F4EE2408C01092CE0173
:1012A00088E091E00E94FE12EE24E3948091DE0239
:1012B000882309F48CDABED941E0642E712CA12E6A
:1012C000BB2410E003C080E098DF1F5F1515D9F73D
:1012D000552011F081E091DF8401FF2415C0C7E0A3
:1012E000D0E093010C2E02C0220F331F0A94E2F7C4
:1012F000F8018081822381DF2197FFEFCF3FDF0755
:1013000081F7F3940F5F1F4FFC1449F7C7E0D0E05B
:101310000C2D112707FD1095080D191D0CC0930108
:101320000C2E02C0220F331F0A94E2F7F8018081CD
:10133000822363DF2197AC16BD068CF3842D1EDC5F
:10134000DA9409F0BECF8091E602882311F066D9C5
:1013500002C086E31CD9EE2011F00E94E5164598E4
:10136000CDB7DEB7E0E10C943427EF920F931F93D3
:10137000DF93CF9300D000D0CDB7DEB701968E01BA
:101380000F5F1F4FB80143E03BDD9AE690932401C5
:1013900084E28093250181E28093260190932701C6
:1013A00080E88C83C80160E043E026E003E05FE072
:1013B000E52E45DF0F900F900F900F90CF91DF91AA
:1013C0001F910F91EF900895EF920F93DF93CF93BA
:1013D000CDB7DEB760970FB6F894DEBF0FBECDBFB6
:1013E0000196BE016F5F7F4F40E10ADD69814A814E
:1013F0000B818C81809324018D81809325018E81C6
:10140000809326018F8180932701242F2F70E02E57
:10141000E2947FE0E722CE01089642954F700F706C
:101420000EDF60960FB6F894DEBF0FBECDBFCF9132
:10143000DF910F91EF900895A9E1B0E0E2E2FAE0C8
:101440000C9416278E01025F1F4F0196B8014BE0E6
:10145000D7DCF82E95E39093240186E18093250153
:101460008093260190932701C8016F2D9AD1F8012E
:10147000EF0DF11D80836F2C639419821A827724FB
:10148000E7E0A1E02A2E312C2801F2E08F2E912CEA
:101490008C0E9D1E5E010894A11CB11C41C000E091
:1014A00010E0C72CDD247201EC0CFD1C9101002E14
:1014B00002C0220F331F0A94E2F7D7018C918223D6
:1014C000B401A5012E2F72DEE82F0F5F1F4F0430ED
:1014D000110561F781E0B401A5012E2F67DE982F79
:1014E00004E010E07201EC0CFD1C9101002E02C022
:1014F000220F331F0A94E2F7F70180818223B4019F
:10150000A501292F53DE982F0F5F1F4F08301105BB
:1015100061F781E0B401A501292F48DEE82F73941B
:10152000761408F4BCCFCE0102966AE049812E2FD2
:1015300003E0EAE0EE2E83DE6996E2E10C943227C6
:10154000A9E1B0E0E6EAFAE00C941A273EE0E32EC7
:10155000F12CEC0EFD1E0196B7014BE051DC8930F9
:1015600009F05BC089E18093250180932401809379
:10157000260182E380932701C70169E005D18F8BA3
:1015800019821A8207E0A7E010E027E0622E712C92
:1015900091E0892E912C570182E0C82ED12CCC0EDF
:1015A000DD1E7E010894E11CF11C01C007E0802FC4
:1015B000992787FD90959301281B390BC40102C020
:1015C000880F991F2A95E2F79C01F501E10FF11DA3
:1015D00080818223B601A7012A2FE8DDA82F0023EE
:1015E00011F00150E4CF81E0B601A7012A2FDEDD22
:1015F000A82F1F5F1A30D0F2882319F0282F21500E
:1016000004C089818F5F898327E0CE0102966CE058
:10161000498103E0BAE0EB2E12DE6996EEE00C940D
:101620003627AEE0B0E0E7E1FBE00C9416277C0142
:10163000162F842F2E87B701412F9AD0F701E10F83
:10164000F11D8083A12EA39419821A824701BB2425
:10165000E7E0F1E02F2E312C72E0472E512C4C0E9A
:101660005D1E3E010894611C711C2FC007E010E054
:101670006701CB0CD11C9101002E02C0220F331F39
:101680000A94E2F7D6018C918223B201A3012E2F96
:101690008DDDE82F01501040BFEF0F3F1B0759F7BA
:1016A000D4018D914D01082E82958025082E8695B6
:1016B0008695802590E00196959587958170B20179
:1016C000A3012E2F73DDE82FB394BA1478F2EE2322
:1016D00019F02E2F215004C089818F5F898327E064
:1016E00089E1809325018093240185E2809327017D
:1016F00080932601CE0102966CE049810E855AE066
:10170000E52E9DDD2E96E2E10C943227ACE0B0E0B0
:10171000ECE8FBE00C942227F62EE42E01968E01D5
:101720000F5F1F4FB8014BE06BDB682FC8014F2DD7
:101730002E2D77DF2C96E6E00C943E2766E043E002
:10174000E5CF539A5B985298E9E6F0E0808180619A
:10175000808382EC91E09093E5028093E402109202
:1017600044011092600110927C011092DE020895F3
:10177000982F06C04150FB01E40FF11D8081980FA6
:101780004423C1F7892F0895AC0120E006C06150C1
:10179000FA01E60FF11D808128276623C1F7822F09
:1017A0000895DC019091B00130E025E040E013C0E5
:1017B0006150FD01E60FF11DE0818E2F82958F7043
:1017C0003827280F992311F0442321F08E2F8F7092
:1017D0003827280F4F5F662359F7230F2295207F64
:1017E000822F832B0895A0E0B0E0E9EFFBE00C949A
:1017F0002027DC011092B00110929B0197E0139614
:101800008C911397981B11961C911197110F110F22
:10181000110F190F10929C01FF24EE2407E057E0EE
:1018200040E070E0E7E0CE2ED12CC1E0D0E07FC0F8
:10183000FD01EE0DF11D848190E0002E02C0959512
:1018400087950A94E2F7282F2170002311F00150A8
:1018500002C0E39407E06B3469F4533059F4772302
:10186000B9F5222311F071E062C040939B01109200
:10187000B0011EC05F3F69F56634E1F4E42FF0E08B
:10188000E456FE4F8081082E82958025082E86958D
:101890008695802590E0019695958795817090704A
:1018A00030E08217930761F040939B017093B00181
:1018B00080E057C0653411F06B3411F42223A1F39A
:1018C0004F5FE42FF0E0E456FE4F108257E02FC048
:1018D00070E0222359F1663479F4E42FF0E0E45605
:1018E000FE4F9E01052E02C0220F331F0A94E2F71D
:1018F0008081822B80831AC0653411F06B34B1F47F
:10190000E42FF0E0E456FE4F852F992787FD909550
:101910009601281B390BC9019E0102C0220F331FFB
:101920008A95E2F7C9012081282B20835150F39436
:101930008F2D8150811708F47BCF40939B017093CA
:10194000B0011F1508F0B4CF653411F45F3F11F0FA
:10195000772319F04F5F40939B0180919B01811188
:1019600081E0CDB7DEB7E8E00C943C27DC011296AD
:101970008C911297ED91FC911197E80FF11DE08188
:1019800013962C911397215013962C9313972F5F36
:1019900039F48F5F12968C93129787E013968C938D
:1019A0008E2F90E002C0959587952A95E2F7817079
:1019B0000895A0E0B0E0EFEDFCE00C941C276C0172
:1019C000962E842EFF24C0E0D0E0F1E0AF2EB12CA3
:1019D000062F10E00150104019C0C601C7DF882350
:1019E000A1F0882059F0C8018C1B9D0B950102C005
:1019F000220F331F8A95E2F7C90106C0C50102C054
:101A0000880F991FEA94E2F7F82A2196EC2EC9155F
:101A100020F38F2DCDB7DEB7ECE00C943827A4E08F
:101A2000B0E0E5E1FDE00C941E27FC0187E08C832B
:101A30003496FA83E983349710929B01818190E078
:101A400023E0880F991F2A95E1F72381821B9109D2
:101A5000CE970CF45AC01B82CC24DD245E0108947E
:101A6000A11CB11C2EC0ED2CFF24C50168E040E094
:101A7000A0DF082F8CE991E0E80EF91EF701008342
:101A8000002E02950025002E069506950025C5011D
:101A90006DDF10E00F5F1F4F1595079501701070F7
:101AA00090E00817190731F4C50160DF9D2D9F5F95
:101AB000882319F0D0929B0128C0F7018081C826A5
:101AC000D92EF5E0FD1578F6D0929B01C50168E0AE
:101AD00040E06FDFF82E082F002E02950025002E23
:101AE000069506950025C50141DF10E00F5F1F4FE9
:101AF000159507950170107090E00817190729F4E3
:101B000080E0CF1419F481E001C080E02496EAE07F
:101B10000C943A27A4E0B0E0E0E9FDE00C941E2725
:101B2000FC011B8287E08C833496FA83E983349727
:101B300010929B018081853009F053C0818190E033
:101B400043E0880F991F4A95E1F72381821B910991
:101B50008938910509F045C019E83FE0C32E30EF00
:101B6000D32E80E05E010894A11CB11C10C0C501F9
:101B700068E041E01EDFC80ED11C2CE931E0E20E26
:101B8000F31E1827F7011083182F1C5D802FE82EF5
:101B9000FF24082F0F5F8F3050F3C50168E041E04C
:101BA00008DF182F2CE931E0E20EF31E8095F701D3
:101BB000808300939B01C50168E041E0FADE082FB5
:101BC000C10ED11CC50168E041E0F3DE40E0302FDA
:101BD00020E0C21AD30A90E0C816D90619F441E0F1
:101BE00001C040E0842F2496EAE00C943A27EF925B
:101BF000FF921F93DF93CF9300D000D0CDB7DEB715
:101C0000FC013496FA83E983349781818430B9F5F5
:101C100087E08C838381813091F51B8210E07E0107
:101C20000894E11CF11C12C0112331F4C70167E0D4
:101C300041E0BFDE806804C0C70168E041E0B9DE72
:101C4000E12FF0E0E456FE4F80831F5F143060F315
:101C5000CE01019667E041E0ACDEE12FF0E0E45612
:101C6000FE4F880F80831F5F10939B0190E080914F
:101C70009C0182958F708A3019F491E001C090E048
:101C8000892F0F900F900F900F90CF91DF911F91A0
:101C9000FF90EF900895FC018181A82FB0E050E003
:101CA000E081CD01841B950B0B964797D8F48E2FBE
:101CB00090E070E09C01261B370B2C30310594F42A
:101CC000255F3F4F7CF08A0F9B1F861B970B841B61
:101CD000950B8C30910534F420E0855F9F4F1CF00C
:101CE00021E001C020E0822F0895282F30E0C901B3
:101CF000880F991F820F931F860F911D95958795C9
:101D0000959587950895DC0111968C9111978431F2
:101D100070F010926F008091980190E06CE170E09B
:101D20000E94DD26FC01E85DFE4F108208956623C7
:101D300081F0FD01E80FF11D81E090E013960C9019
:101D4000139702C0880F991F0A94E2F72481282B69
:101D5000248313968C911397815013968C93139729
:101D60008F5F79F487E013968C93139711968C917B
:101D700011978F5F11968C931197A80FB11D149630
:101D80001C920895282F8552873160F46A3050F0F4
:101D9000673240F490E0621708F091E081E0982704
:101DA000892F089580E090E008951F920F920FB65A
:101DB0000F921124EF92FF920F931F932F933F9353
:101DC0004F935F936F937F938F939F93AF93BF9343
:101DD000CF93DF93EF93FF9380915603882321F0F5
:101DE00082E080935603EFC080913303823021F468
:101DF00083E080933303E7C0809184009091850055
:101E0000E4E096958795EA95E1F7182FE090980120
:101E10008E2D90E06CE170E00E94DD26EC01C85D43
:101E2000DE4F9881943031F41E3208F4CCC01F3458
:101E300048F0BDC0953031F4173108F4C4C01832F1
:101E400008F0B5C0892F84504A990CC0823038F40C
:101E5000CE0161E058DF109285001092840010934B
:101E6000CA01B1C00091CA01F12EF01AF092CB0163
:101E70001092850010928400823020F4CE0160E040
:101E800042DFA1C082E086BB992371F4053608F0D9
:101E90009AC084E68F1508F496C0088FF98E81E009
:101EA0008A8382E088838FC0923009F05AC0CE01C5
:101EB0004896602F4F2DEFDE1A81882359F0888DC8
:101EC000602F13DF888F898D6F2D0FDF898F1F5F44
:101ED0001A8379C0143008F442C080EA9FE09093DE
:101EE0008900809388001C3050F0298D888D90E007
:101EF000820F911D8536910514F084E025C01A30BB
:101F000080F0298D888D90E0820F911D85974CF48B
:101F100085E0888388EE93E0909389008093880021
:101F200014C08091EC02882371F0802F6F2D2ADF7E
:101F3000882349F0898D688D25DF882321F081E091
:101F40008093330334C083E088830A8FFB8E198229
:101F500087E08B831C8282E080936F0034C01882FC
:101F600095CFCE014A96602F4F2D95DE882361F0E4
:101F7000CE0161E0C8DE8A8D602FB7DE8A8F8B8D3F
:101F80006F2DB3DE8B8F1FC0CE014896602F4F2D73
:101F900082DE882361F0CE0160E0B5DE888D602F9F
:101FA000A4DE888F898D6F2DA0DE898F0CC01092E2
:101FB0006F008E2D90E06CE170E00E94DD26FC0148
:101FC000E85DFE4F1082FF91EF91DF91CF91BF91BD
:101FD000AF919F918F917F916F915F914F913F91C1
:101FE0002F911F910F91FF90EF900F900FBE0F90C8
:101FF0001F9018958091980190E06CE170E00E942C
:10200000DD26FC01E85DFE4F8081882331F420E06D
:1020100030E0809155038F3F11F021E030E0822FB6
:1020200008951F920F920FB60F9211242F933F9392
:102030004F935F936F937F938F939F93AF93BF93D0
:10204000EF93FF9310926F008091E60283FF03C02D
:102050008EE20E94380620919801822F90E06CE178
:1020600070E00E94DD26FC01E85DFE4F8081833038
:1020700060F0822F90E06CE170E00E94DD26FC01B0
:10208000E85DFE4F8181823020F410926F00822F34
:1020900010C080919A018330B1F48091E60282FFF2
:1020A00004C08EE592E00E94710610926F0080914C
:1020B000980190E06CE170E00E94DD26FC01E85D93
:1020C000FE4F10820BC08F5F80939A01822F8F5F2B
:1020D00080939801843011F410929801FF91EF9150
:1020E000BF91AF919F918F917F916F915F914F9130
:1020F0003F912F910F900FBE0F901F9018950F9347
:102100001F93CF93DF938091CB018823B9F1809106
:10211000E60287FF17C084E30E94AB028058803438
:1021200010F480E00CC0803C10F08FE008C090E01C
:102130008055904003E0959587950A95E1F78F5972
:102140000E9438068091E60283FF16C082E70E9453
:1021500038068091E60284FF04C08091CA010E9483
:10216000380686E60E9438068091E60284FF04C0A5
:102170008091CB010E9438061092CB0180919A0188
:10218000882309F42CC2459A8091990190E06CE172
:1021900070E00E94DD26EC01C85DDE4FCE01BADCA6
:1021A000882311F003E5A8C0CE0166E41CDB882378
:1021B00009F4ECC140919B01415040939B01942F45
:1021C00056E007C09150E92FF0E0E456FE4F8081C1
:1021D000580F9923B9F7A42FB0E0FD01E456FE4F44
:1021E0006081561711F4443068F4852F90E0019611
:1021F000262F30E08217930779F4443068F0A45614
:10220000BE4F5C9306E478C09150E92FF0E0E456AD
:10221000FE4F8081280F02C0942F2CE09923A1F754
:10222000261709F0B3C1443008F4B0C1ADC18091A4
:102230009B01815080939B01893009F0ADC199E0E9
:1022400020E09150E92FF0E0E456FE4F80812827EE
:102250009923B9F78091A501281709F09DC105E4DC
:102260004BC060919B01615060939B018CE991E0B0
:1022700098DAE0919B01F0E09091B001E91BF1093F
:10228000E456FE4F9081891761F08B818F5F8B83BD
:102290008150873009F09EC11B82898181508983DA
:1022A00099C10BE429C08B81843009F0E4C0CE01D0
:1022B00048966CE34EE1EFDC882309F4DCC0C801EA
:1022C0006091CA014EE1E7DC682FCE011CDD10925F
:1022D0009B010DC0E92FF0E0DE01AE0FBF1F149689
:1022E0008C91E456FE4F80839F5F90939B01909169
:1022F0009B01953078F302E58091E602682F80FF1C
:10230000BBC081FF02C020E05FC09091B10180910D
:102310009B01981799F51092B1010EC0E22FF0E0E1
:10232000DF01A456BE4FEE54FE4F90818C9198175A
:1023300049F42F5F2093B1012091B10130919B01AD
:10234000231760F32317D1F48091E0029091E1020A
:10235000A091E202B091E3022091C6013091C70141
:102360004091C8015091C901821B930BA40BB50B7E
:102370008697A105B10510F421E001C020E010927C
:10238000B1010CC0E92FF0E0DF01A456BE4F8C91E3
:10239000EE54FE4F80839F5F9093B1019091B10105
:1023A00080919B01981770F38091E0029091E10277
:1023B000A091E202B091E3028093C6019093C7011D
:1023C000A093C801B093C9010435F1F466FD1CC0A7
:1023D00080919B018530C0F080919E018B3409F47F
:1023E0004BC0893609F448C0833509F445C08435AB
:1023F00009F442C08D3709F43FC08E37E9F180916E
:102400009F0180778037C1F12223B1F5802F0E9490
:1024100038068091B001882329F080919B0181507A
:1024200080939B0110E008C0E12FF0E0E456FE4FDE
:1024300080810E94BF061F5FE0919B011E17A0F3E1
:102440008091B001882359F0F0E0E456FE4F80817E
:1024500090E08F70907061E040E30E948A06809166
:10246000E60285FF05C084E30E94AB020E94BF061E
:102470000E946D0601C000E08091E60282FF6DC0FF
:1024800080E70E943806888190E062E040E20E9486
:10249000C306888D90E014E0880F991F1A95E1F724
:1024A00065E040E20E94C306898D90E0B4E0880FA9
:1024B000991FBA95E1F765E040E20E94C3068A8D54
:1024C00090E0A4E0880F991FAA95E1F765E040E24B
:1024D0000E94C3068B8D90E0F4E0880F991FFA9557
:1024E000E1F765E040E20E94C3068A8190E063E084
:1024F00040E20E94C306898190E063E040E20E94CE
:10250000C3062B8187E090E0821B910962E040E2E4
:102510000E94C30680E20E9438068091E60285FF91
:1025200008C084E30E94AB020E94BF0680E20E94C2
:1025300038068B81873019F089818F5F898310E09D
:1025400007C0FE01E10FF11D84810E94BF061F5FDD
:1025500089811817B0F30E946D06188280919A0144
:10256000815080939A01809199018F5F80939901A6
:10257000843011F4109299014598043581F58CE965
:1025800091E00E94D01E2BC004E5B6CECE0165E4DA
:102590002AD9882309F04BCECE0141DA882311F0E5
:1025A00008E4AACECE0123DB882311F004E7A4CEF1
:1025B0008E01065E1F4FC8016091CA014B8D6BDB17
:1025C000682FCE01A0DBCE016BE40DD9882309F47E
:1025D0005CCE47CE8981843009F04DCF64CEDF9147
:1025E000CF911F910F9108958091E602882321F0E9
:1025F0000E94E7030C940E030C94CF02FC0181812E
:10260000882371F48091E6020E94BF068091E40263
:102610009091E50265E040E20E94C3060C946D06CD
:10262000CF01019666EE72E041E00E940007DCCF28
:10263000A1E0B0E0EEE1F3E10C94222780913303B6
:10264000882309F484C0E090E002F090E102009158
:10265000E2021091E302833009F060C08FE30E9430
:10266000AB02182F863010F400E018C08AE993E01E
:102670000E94980828988FEF0E94A50280E00E948F
:10268000A502082F08C080E00E94A502682F8AE9F1
:1026900093E00E949D081150B1F7289AA5DF10928F
:1026A0003303053709F053C08DE993E0BE016F5F36
:1026B0007F4F41E00E940007019759F59981809171
:1026C000EC02981731F58091A103853539F00DC0E2
:1026D0008AE993E00E94B5080E94380680919C0325
:1026E0008823B1F70E946D0632C080919C0384500C
:1026F00080939C0384E080939B038AE993E06AE0E3
:102700000E949D08E091DC02F091DD0288E00995CD
:102710001EC08AE993E00E94980819C09E2D82305D
:1027200049F48091EB02981B983088F05DDF10929D
:1027300033030DC0813059F487E390E00E94960383
:102740000E940E0382E080933303E092EB02219615
:10275000E6E00C943E275B980C94B9055B9A0C94C8
:10276000B905A7E0B0E0E7EBF3E10C942127282FAF
:102770008091F502843551F48091360390913703AE
:102780000196909337038093360339C0863451F411
:102790008091340390913503019690933503809393
:1027A00034032DC0853451F48091E9029091EA02FE
:1027B00001969093EA028093E90221C08B3451F490
:1027C0008091390390913A03019690933A03809354
:1027D000390315C0883451F480913B0390913C0338
:1027E000019690933C0380933B0309C08091E702DC
:1027F0009091E80201969093E8028093E70285E7C2
:102800008983222319F4DD24D39412C080913D03DF
:10281000BE016E5F7F4F0E944D078091EC02BE01AA
:102820006C5F7F4F0E944D0785E58E8386E0D82E32
:102830000E94E7030E941A0310E080E891E08EDF17
:1028400080E093E088DF1F5F1630B9F780E093E007
:1028500085DF80E891E07FDF80E891E07FDF5B98B3
:1028600087E390E00E94960383E00E94BE052898CB
:102870008FE70E94A5028091EF028D0D0E94A502B4
:102880007E010894E11CF11C8701F80181918F0100
:102890000E94A502802F8E198D15B8F306C08DEE0B
:1028A00092E00E94B5080E94A5028091EF02882361
:1028B000B1F7289A0E941A038DEE92E00E949808C0
:1028C00014E104C0115081E00E94BE058AE30E9419
:1028D000AB0290E08F779070892B11F0112391F764
:1028E00083DE2796E7E00C943D2784DB882361F0A4
:1028F00083E08093380380913003909131030196F7
:1029000090933103809330038091380381508093FA
:102910003803882321F083E080933203089581E017
:1029200020CFCF93DF93EC018981882339F4809104
:10293000EC020E94BF0680913D0313C08436A1F4CF
:102940008091E0029091E102A091E202B091E30255
:1029500064E040E30E948A068EE20E94380680917D
:1029600032030E94BF064DC0833709F04DC08091ED
:1029700036039091370361E040E30E948A068EE2BD
:102980000E943806809134039091350361E040E362
:102990000E948A068EE20E9438068091E902909198
:1029A000EA0261E040E30E948A068EE20E94380655
:1029B0008091390390913A0361E040E30E948A06D6
:1029C0008EE20E94380680913B0390913C0361E0C7
:1029D00040E30E948A068EE20E9438068091E70258
:1029E0009091E80261E040E30E948A068EE20E9434
:1029F0003806809130039091310361E040E30E94FA
:102A00008A060E946D062CC08936D9F4CE01029642
:102A10006CEE72E041E00E94000780E690E0609179
:102A2000EC020E94D307CE0104966DE373E041E00F
:102A30000E94000781E690E060913D030E94D30769
:102A40000FC08DEE92E00E94980804C08DEE92E0D7
:102A50000E949D08219668816623C1F780E081DE8F
:102A6000DF91CF91089580E690E00E946F078093F8
:102A7000EC0281E690E00E946F0780933D0388237B
:102A800021F081E28093E602AFCD0895A2E3B0E0A9
:102A9000ECE4F5E10C9421278091CC01882309F422
:102AA0009FC04A9B88C08FE30E94AB028F7782331E
:102AB00068F08AE30E94C70286E30E94C7028DE3A2
:102AC0000E94C70284E30E94C7028AC089832898B3
:102AD0008FEF0E94A50210E082E0E82EF12CEC0EB0
:102AE000FD1E08C080E00E94A502F701E10FF11D64
:102AF00080831F5F89811817A8F380E00E94A502D8
:102B0000D82E80E00E94A502289A84E30E94C70282
:102B100085E30E94AB028D30C1F79A8186E7892751
:102B20008A8322E0AE014F5F5F4F08C0E40FF51FBC
:102B300080819452982790832F5F982F8981E22F6C
:102B4000F0E0281798F3E40FF51F80819B81892717
:102B500080838091E60284FF13C081E60E943806DC
:102B6000098110E07E010894E11CF11CF701E10FDE
:102B7000F11D80810E9438061F5F0117B8F71BC046
:102B800081E40E943806098110E07E010894E11C6E
:102B9000F11CF701E10FF11D80810E94BF061F5F4C
:102BA0000117B8F78091E60285FF03C08D2D0E94C2
:102BB000BF060E946D0685E30E94AB02813029F0BA
:102BC000813161F48AE30E94C70286E30E94C70252
:102BD0008DE30E94C70284E30E94C7020E94410461
:102BE000E296E7E00C943D27CF93DF93EA98209A92
:102BF000289A8EE190E00E94B90528988EE190E035
:102C00000E94B905289A8DE290E00E94B90580E300
:102C10000E94C70284E690E00E94B905C5E6D2E0B2
:102C2000FE0184912196FE0164910E94B9022196D1
:102C3000F2E0C739DF07A1F78091CD01882371F059
:102C4000C7E9D2E0FE0184912196FE0164910E94C1
:102C5000B9022196F2E0CD3ADF07A1F783E30E94A3
:102C6000C70284E00E94BE0584E30E94C70285E398
:102C70000E94AB028D30C1F7DF91CF910895A2E39E
:102C8000B0E0E5E4F6E10C9421270196BE016F5F08
:102C90007F4F41E30E940007D82E282F30E02150BB
:102CA0003040898190E02817390709F072C080917F
:102CB000CC01882321F498DF83E00E94BE051B81AC
:102CC0008A8196E789278A8322E0AE014F5F5F4FB2
:102CD0000BC0FA01EA0FFB1FAC0FBD1F8C91845291
:102CE0009081892780832F5F8981A22FB0E02817E8
:102CF00080F3FA01EA0FFB1F80818127808385E33F
:102D00000E94C70285E30E94AB028331C1F714FF22
:102D100008C088E70E94BE0588E70E94BE0588E7D4
:102D200001C08AE00E94BE0528988FE70E94A50294
:102D30007E010894E11CF11C870105C0F801819116
:102D40008F010E94A502802F8E198D15B8F3289A45
:102D500085E30E94AB028331D9F385E30E94AB0285
:102D6000863149F48BE30E94C70286E30E94C702C2
:102D70008DE30E94C7028091CC01882349F084E34F
:102D80000E94C70285E30E94AB028D30C1F701C0EB
:102D90002BDCE296E7E00C943D27FC0101962181B3
:102DA000223731F0223559F481E08093CD0102C001
:102DB0001092CD0119DF81E08093CC010895233773
:102DC00009F45DCF1092CC0108951F93CF93DF9348
:102DD000EA98209A289A8EE190E00E94B9052898F6
:102DE0008EE190E00E94B905289A8DE290E00E9461
:102DF000B90580E30E94C70284E690E00E94B9050D
:102E0000CDEAD2E0FE018491813450F42196FE0196
:102E100064910E94B9022196F2E0C93EDF0791F762
:102E200083E30E94C70284E00E94BE0510E01150B7
:102E300041F084E30E94C7028AE090E00E94B90555
:102E4000F6CF81E08093CE01DF91CF911F9108955D
:102E5000EF92FF920F931F93CF93DF937C01EB01CF
:102E6000FC0100810F5F6115710519F420E030E06D
:102E700002C024E630E0802F90E043E0880F991FE5
:102E80004A95E1F76AE070E00E940327260F371F9A
:102E9000A901662757FD6095762F2091E4023091B5
:102EA000E502C901A0E0B0E084179507A607B707BF
:102EB00028F482EF92E00E947106CEC0241B350BED
:102EC0003093E5022093E4028091CE01882309F437
:102ED0007CDF85E30E94AB028D3071F08AE50E94B1
:102EE000380685E40E94380682E50E94380682E5AD
:102EF0000E94380681E34AC08091D5019091D601A5
:102F0000A091D701B091D8010097A105B10521F496
:102F100029C081E00E94BE058091E0029091E1020B
:102F2000A091E202B091E3022091D5013091D60147
:102F30004091D7015091D80182179307A407B50794
:102F400041F38091E0029091E102A091E202B09100
:102F5000E3022F5F3F4F4F4F5F4F82179307A40746
:102F6000B507B9F20E941A0385E30E94AB028331D0
:102F7000C1F08AE50E94380685E40E94380682E5A1
:102F80000E94380682E50E94380682E30E943806D5
:102F900085E30E94AB020E94BF060E946D0615DF0A
:102FA0005BC0CD2B49F0C0E0D0E084E60E94BE05B6
:102FB0002196CA30D105C9F728988FE70E94A5024B
:102FC000E70110E004C089910E94A5021F5F10175D
:102FD000D0F3289A10E085E30E94AB028D3059F0BF
:102FE00085E30E94AB02833131F481E00E94BE058B
:102FF0001F5F183C81F785E30E94AB028D30B9F06A
:103000008AE50E94380685E40E94380682E50E941F
:10301000380682E50E94380683E30E94380685E37D
:103020000E94AB020E94BF060E946D06CEDE809118
:10303000CE01882309F4D8DA8091E0029091E10270
:10304000A091E202B091E3028093D5019093D60162
:10305000A093D701B093D801CDB7DEB7E6E00C94CA
:103060003E27EF92FF920F93DF93CF93CDB7DEB75A
:103070002C970FB6F894DEBF0FBECDBFFC018BE0DE
:10308000898381818A831B8282E08C8387818D83FF
:1030900080858E8381858F838481888785818987D8
:1030A00086818A871B861C8684E10E94BE057E017C
:1030B0000894E11CF11CC70160E070E0C9DE8AE5FC
:1030C0000E94380600E006C0EE0DFF1D80810E94C0
:1030D000BF060F5FE02FF0E0898190E08E179F0719
:1030E0009CF78091E60285FF03C080E00E94BF0646
:1030F0000E946D062C960FB6F894DEBF0FBECDBFB2
:10310000CF91DF910F91FF90EF900895CF93DF93D0
:10311000EC019091CF01992341F48091D001882353
:1031200021F48091D1018823B1F48B81803321F087
:10313000803411F0803579F48F81891761F4988596
:103140008091D001981739F499858091D101981711
:1031500011F4CE0186DF9091D201992341F4809140
:10316000D301882321F48091D4018823A9F0888198
:103170008B3091F48B81803479F48F81891761F4DD
:1031800098858091D301981739F499858091D4015D
:10319000981711F4CE0165DFDF91CF910895AEE16C
:1031A000B0E0E5EDF8E10C9422278091CE01882370
:1031B00009F46AC04A9B5AC08FE30E94AB028F7722
:1031C00089838E3110F08DE1898328988FEF0E94DA
:1031D000A50210E052E0E52EF12CEC0EFD1E08C019
:1031E00080E00E94A502F701E10FF11D80831F5FBF
:1031F00089811817A8F380E00E94A502082F80E0BB
:103200000E94A502289A7E010894E11CF11CC701C6
:103210007DDF8091E60284FF10C08AE70E943806B5
:1032200010E007C0F701E10FF11D80810E94380610
:103230001F5F89818117B0F727C08AE50E94380691
:1032400010E007C0F701E10FF11D80810E94BF0669
:103250001F5F89818117B0F78091E60285FF03C067
:10326000802F0E94BF060E946D060EC085E30E945B
:10327000AB02813149F48AE30E94C70286E30E94CF
:10328000C70284E30E94C7026E96E6E00C943E27D4
:10329000AEE1B0E0EEE4F9E10C9424278C01FC01EE
:1032A0008181823711F491DD37C0833711F0863682
:1032B00001F5C8010296BE016F5F7F4F4DE10E948C
:1032C000000790E00197298130E08217930729F0E9
:1032D00089EE92E00E9471061FC060E070E0F80184
:1032E0008181833711F461E070E0CE010196B0DD99
:1032F00013C0813629F4C80102966FEC71E006C054
:10330000873741F4C801029662ED71E043E00E9404
:10331000000702C01092CE016E96E4E00C944027A4
:10332000AEE1B0E0E6E9F9E10C9421278091D90102
:10333000882309F476C04A9B61C08FE30E94AB02E8
:103340008F7789838E3110F08DE1898328988FEFF4
:103350000E94A50210E082E0E82EF12CEC0EFD1E8A
:1033600008C080E00E94A502F701E10FF11D8083F3
:103370001F5F09811017A8F380E00E94A502D82ED4
:10338000289A8AE30E94C70286E30E94C7028DE35F
:103390000E94C70284E30E94C7028091E60284FF74
:1033A00012C087E70E94380610E07E010894E11CF5
:1033B000F11CF701E10FF11D80810E9438061F5FAB
:1033C0000117B8F72EC087E50E94380610E07E018D
:1033D0000894E11CF11CF701E10FF11D80810E94AE
:1033E000BF061F5F0117B8F78091E60285FF03C093
:1033F0008D2D0E94BF060E946D0613C085E30E94BA
:10340000AB02813011F0813161F48AE30E94C7027E
:1034100086E30E94C7028DE30E94C70284E30E94F4
:10342000C7026E96E7E00C943D27CF93DF93EA98AE
:10343000209A289A8EE190E00E94B90528988EE1A2
:1034400090E00E94B905289A8DE290E00E94B905AB
:1034500080E30E94C70284E690E00E94B905C2E0C2
:10346000D3E0FE018491813450F42196FE016491F1
:103470000E94B9022196F3E0CE33DF0791F783E390
:103480000E94C70281E00E94BE05DF91CF9108959E
:10349000FC018181823729F4C8DF81E08093D90162
:1034A0000895833711F01092D9010895282F8130A3
:1034B00089F45B9A80910B0190910C0163E070E0BC
:1034C0000E94DD260E94B9055B9880910B019091C6
:1034D0000C0131C080910B0190910C012223F9F471
:1034E0005B9A0E94B9055B9880910B0190910C0149
:1034F00063E070E00E94DD260E94B9055B9A80912E
:103500000B0190910C010E94B9055B9880910B0111
:1035100090910C0163E070E00E94DD261EC05B9A72
:103520000E94B9055B9880910B0190910C0163E0BA
:1035300070E00E94DD260E94B9055B9A80910B0124
:1035400090910C0163E070E00E94DD260E94B905B5
:103550005B9880910B0190910C010C94B9050F932D
:103560001F93CF93DF93EA98209A289A8EE190E0F8
:103570000E94B90528988EE190E00E94B905289A2A
:103580008DE290E00E94B90580E30E94C70284E6C4
:1035900090E00E94B905289880E40E94A502CEE33D
:1035A000D3E0FE0184910E94A5022196F3E0CB3482
:1035B000DF07B9F780910F010E94A50280911001E9
:1035C0000E94A502809111010E94A5022396FE018E
:1035D00084910E94A5022196F3E0C736DF07B9F770
:1035E000289A28988EE70E94A5028BE290E08C0131
:1035F0000F5F1F4F0E946F070E94A502C80103338F
:103600001105A9F7289A83E30E94C70281E00E946E
:10361000BE0581E08093DE02DF91CF911F910F9173
:103620000895CF92DF92EF92FF921F93CF93DF9393
:103630007C01FC018181843759F4C70102966BE05B
:1036400071E00E94330780910B0190910C0111C031
:10365000833709F0A5C0F7018281823789F4C70159
:1036600003966DE071E00E94330780910D01909107
:103670000E0160E040E20E94C3060E946D06FBC09E
:10368000459A8091DC018823B1F48091CC01882394
:1036900029F081E08093DA011092CC018091CE0173
:1036A000882329F081E08093DB011092CE0157DF5F
:1036B00083E00E94BE0586E30E94C7028AE30E945F
:1036C000C7028BE30E94C7020E941A03CC24DD24A8
:1036D00024C08A81803311F480E005C0813311F465
:1036E00081E001C082E0E2DE1F5F21961D3089F794
:1036F0005B9A80910B0190910C010E94B9055B9837
:1037000010E080910B0190910C010E94B9051F5FA0
:103710001F31B9F70894C11CD11C80910D01909103
:103720000E01C816D90618F4E70111E0D2CF809136
:10373000DC01882341F08091E602882371F486E35E
:103740000E94C70217C08091DA01882349F01092C5
:10375000DA014ADA81E08093CC010E940E030AC0AC
:103760008091DB01882321F01092DB012EDB02C067
:103770000E94F412459889E60E94380683E70E9469
:103780003806E70111E08A81803319F0813309F0AE
:1037900086E40E9438061F5F21961D30A1F76DCF89
:1037A0008237B9F48091CC01882329F081E080939D
:1037B000DA011092CC018091CE01882329F081E0BA
:1037C0008093DB011092CE01CADE81E08093DC01A0
:1037D00052C0863659F5F7018281803351F480E179
:1037E00080930F0180EB8093100181E7809311019A
:1037F00007C0C70102966FE071E043E00E94000736
:1038000089E60E94380686E60E9438068AE30E940E
:10381000380680910F010E94BF06809110010E941E
:10382000BF06809111010E94BF0627CF883719F586
:103830008091DA01882339F01092DA01D5D981E03C
:103840008093CC0110C08091DB01882321F010927D
:10385000DB01BBDA0EC082E090E00E94960380910B
:10386000E602882319F00E940E0303C086E30E943B
:10387000C7021092DC01DF91CF911F91FF90EF9072
:10388000DF90CF9008952F923F924F925F926F9268
:103890007F929F92AF92BF92CF92DF92EF92FF9270
:1038A0000F931F93DF93CF930F92CDB7DEB77C01B9
:1038B000FC018181833709F075C1198287E090E0AE
:1038C0000E944D276C01C70102968E010F5F1F4FAA
:1038D000B80141E00E9400078981F60181935F01F0
:1038E000C7010496B80141E00E9400078981807FEA
:1038F000F6018183C7010696B80141E00E940007E6
:103900008981F6018283C7010896B80141E00E94CF
:1039100000078981F6018383C7010A96B80141E057
:103920000E9400078981F6018683C7010C96B801C1
:1039300041E00E9400078981F6018583C7010E9648
:10394000B80141E00E9400078981F601848331813A
:10395000160120E057E0452E512C4C0C5D1C919136
:10396000892F82958F7089272827E415F505B9F7E7
:103970002F70232BF5012083F60196012A5F3F4F1C
:1039800081819081892781833196E217F307C1F7FE
:10399000459A8091DF01882309F059C08091CC01BC
:1039A000882329F081E08093DD011092CC01809181
:1039B000CE01882329F081E08093DE011092CE01B0
:1039C000EA98209A289A8EE190E00E94B9052898FA
:1039D0008EE190E00E94B905289A8DE290E00E9465
:1039E000B90580E30E94C70284E690E00E94B90511
:1039F000289880E40E94A50207E613E0F80184916C
:103A00000E94A5020F5F1F4FF3E000391F07B1F7B7
:103A1000289A28988EE70E94A5028BE290E08C01FC
:103A20000F5F1F4F0E946F070E94A502C80103335A
:103A30001105A9F7289A83E30E94C70281E00E943A
:103A4000BE0581E08093DE0283E00E94BE0586E32E
:103A50000E94C7028AE30E94C7028BE30E94C7024A
:103A60000E941A035B9A87EC94E20E94B9055B9866
:103A700089E50E94BE0585E392E00E94B905AA246B
:103A8000BB2456C0AA2011F402E001C007E010E0F8
:103A90005B9A86EF99E00E94B9055B9886EF99E002
:103AA0000E94B9051F5F10179CF35B9A8CEF92E19F
:103AB0000E94B9055B9880911501909116010E94B2
:103AC000B9058601F801808140E8E42EF12C9924A3
:103AD000682E7724C7018621972120911501309106
:103AE0001601892B31F45B9AC9010E94B9055B98D4
:103AF00005C05B98C9010E94B9055B9A80911501C8
:103B0000909116010E94B9059394F8E09F1619F060
:103B1000F694E794DFCF0F5F1F4F0415150591F65C
:103B20005B9880E090E00E94B9050894A11CB11C4C
:103B30008091120190E0A816B9060CF4A3CF8091F1
:103B4000DF01882341F08091E602882371F486E347
:103B50000E94C70217C08091DD01882349F01092AE
:103B6000DD0142D881E08093CC010E940E030AC09F
:103B70008091DE01882321F01092DE0126D902C057
:103B80000E94F412459889E50E94380683E70E9456
:103B90003806F10181911F010E94BF0624143504EB
:103BA000C1F718C08237C9F4C701029662E171E01B
:103BB0000E94330789E50E94380682E70E94380692
:103BC0008AE30E9438068091120190E060E040E2B2
:103BD0000E94C3060E946D0652C0843751F5F7015A
:103BE0008281803339F488ED94E0909314018093BE
:103BF000130106C0C701029663E171E00E9433071A
:103C000080911301909114019695879590931601D8
:103C10008093150189E50E94380684E70E943806E2
:103C20008AE30E943806809113019091140166E0A6
:103C3000CECF883721F58091DD01882341F01092A5
:103C4000DD010E94F41581E08093CC0110C08091C9
:103C5000DE01882321F01092DE01B7D80EC082E089
:103C600090E00E9496038091E602882319F00E945A
:103C70000E0303C086E30E94C7021092DF010F907B
:103C8000CF91DF911F910F91FF90EF90DF90CF9038
:103C9000BF90AF909F907F906F905F904F903F90BC
:103CA0002F900895DC01E8EEF1E00EC0109751F07E
:103CB00091818C91981731F4928111968C91119782
:103CC0009817A1F0E20FF11D2081222321F082E05C
:103CD000E639F80758F382E0E639F80719F010F0F2
:103CE000E6E9F2E0AB2B11F0E0E0F0E0CF0108955F
:103CF000CF93DF93EC01D6DFFC01009779F0909130
:103D000096028081981750F4E90FF11D80818A8313
:103D100089E78B8381818C8381E001C080E0DF9122
:103D2000CF9108950F931F93CF93DF938C018091D0
:103D3000E60286FF18C084E50E943806C0E0D0E0A5
:103D4000F801EC0FFD1F80810E94BF062196C5304F
:103D5000D105B1F78091E60285FF03C08AEF0E948A
:103D6000BF060E946D06DF91CF911F910F910895BC
:103D700086E30E94C7028091E301833511F08BE452
:103D800001C08BE90E94BE0581EE91E065E04CE048
:103D900021E00E94110B0E940E0381EE91E0C2CF40
:103DA0001F93FC01408131811281938124818FE531
:103DB000809355031092E70150913E03552329F457
:103DC00080915403882309F4CDC08091E1018417C8
:103DD00021F48091E201831771F010924003109258
:103DE000E00183E0809396028FEF80935503409328
:103DF000E1013093E201809140038F3F09F4B2C0AA
:103E00001093E3019093E4012093E5011123E1F085
:103E10008823D1F4251761F0243651F0812F835582
:103E2000823010F01D3721F48FEF809340039AC049
:103E3000143509F497C0892F807F803609F092C02D
:103E400090679093E40183C081EE91E051DF882375
:103E500029F480914003882309F484C09091E00103
:103E6000992311F0892F06C0E0914003F0E0E0575C
:103E7000FC4F8491833541F4143531F48091400333
:103E80008E5F809340030BC0811749F0109240036E
:103E90001092E00183E0809396028FEF61C0992336
:103EA00079F0809196028E5F8093960281EE91E088
:103EB0001FDF882371F4809140038E5F809340035D
:103EC00090914003E92FF0E0EF56FC4F14911F3F13
:103ED00059F48091E3018093E0018436C1F580912B
:103EE0003F038093E50133C01093E30187E780939C
:103EF000E40180913E038093E501892F8E5F8093DA
:103F000040031092E0018E3001F581EE91E0CADEAF
:103F1000FC01009781F0808190E026E932E0281BC7
:103F2000390BDF01A80FB91F02C08D918193E217F1
:103F3000F307D8F31082109240031092E00183E05F
:103F4000809396028FEF80935503112359F010DF71
:103F50008091E301893631F081E08093E70189E2C5
:103F6000809355031F9108958091E701882351F0B4
:103F7000FFDE89E2809355038091E70181508093B1
:103F8000E7010895109240031092E00183E08093CE
:103F900096028FEF809355030895A6E0B0E0E2ED1E
:103FA000FFE14EC72091540380914103882341F0E3
:103FB000833019F08DE790E00EC087E791E00BC0E9
:103FC000822F90E0877090706DE770E0F6D6825B8C
:103FD0009F489595879590934303809342032A8346
:103FE0001B8204E413E0FF246E010894C11CD11C61
:103FF0008CE2E82EF80190819F3FB1F080913E0362
:104000008F0D898380914103882311F0EC8203C0D6
:104010009C83F80181818D83C60165E04CE021E03D
:104020000E94110BC6017EDEF3940E5F1F4FF8E075
:10403000FF1601F780914103882341F0833019F482
:104040001092410303C08250809341032696E8E01A
:1040500013C785E390E00E946F0780933E0386E3D9
:1040600090E00E946F0780935403E4E4F3E09FEF35
:104070009083329683E0E435F807D1F7109240033D
:104080001092E00183E08093960290935503109282
:10409000E80108956F927F929F92AF92BF92CF9264
:1040A000DF92EF92FF920F931F93DF93CF9300D095
:1040B00000D000D0CDB7DEB73C017C010894E11CF4
:1040C000F11CC701BE016F5F7F4F45E00E940007F2
:1040D000E981843008F0ACC0E130A9F4833061F4A8
:1040E00085E390E06A810E94D30786E390E06B81CC
:1040F0000E94D307AEDF22C180913E030E94BF061B
:104100008091540390C0E23009F04DC0813029F015
:1041100020E030E08A81813011F421E030E0E22EAD
:104120008091E801882321F488EA93E00E947106D7
:1041300008EE11E02EC081E0083E180719F080E279
:104140000E943806F80181810E94BF06F801828131
:104150000E94BF06EE20C9F08AE30E94380663E0A1
:10416000F62E0FC0F3E0FF1528F4F0FE03C08CE23A
:104170000E943806F801EF0DF11DF39480810E9432
:10418000BF06F8018081F81668F3F8018081080FF6
:10419000111DF8018081882309F447C0F2E0063937
:1041A0001F0748F242C0E33049F480E090E07ADD36
:1041B00028EE31E02255281B822F35C0E03149F529
:1041C00004E413E0EE24FF24F80180818F3FA1F086
:1041D000EE2019F080E20E9438068F2D0E94BF0663
:1041E0008AE30E943806F80180810E94BF06F80128
:1041F00081810E94BF06E3940E5F1F4FF394F8E0A5
:10420000FF1611F7EE2089F484EA93E00E9471060C
:104210000CC0E13151F480914203909143036DE76A
:1042200070E0DDD5862F0E94BF060E946D0686C015
:1042300080913E03E817D0F1482F50E0F0E0CA012A
:1042400007968E179F0794F19A81809154039817CF
:1042500069F58C818F3231F4C3016CE042E00E9439
:10426000860B6CC02D818C32C1F42093410381E018
:1042700090E0909343038093420330E0220F331F7A
:10428000220F331F8091E4029091E502820F931F69
:104290009093E5028093E40251C0E41BF50BEE0F0E
:1042A000F0E0EC5BFC4F8083218348C080E090E02D
:1042B000F9DC8C01D7010D900020E9F71197AE19B8
:1042C000BF09B695A7959A2E9394890D911D885E86
:1042D00091408F3A910574F5F80190827801DD24C0
:1042E000D394CC24C3941BC057010894A11CB11CC7
:1042F000C3018C0D911DB50141E00E940007F2E061
:10430000FD1548F4D0FC07C0F7018081843619F40C
:10431000818180933F03F2E0CF0ED3947501D914CD
:1043200018F382E00639180748F40D0D111DF80145
:10433000108204C08EE993E00E94710626960FB6A3
:10434000F894DEBF0FBECDBFCF91DF911F910F91CB
:10435000FF90EF90DF90CF90BF90AF909F907F90B5
:104360006F900895A0E4B0E0E7EBF1E269C58091B9
:104370005603882309F456C0813011F58091E0027C
:104380009091E102A091E202B091E30220919702A4
:10439000281709F447C085E30E94AB02813129F454
:1043A0008AE30E94C7020E940E038091E00290916E
:1043B000E102A091E202B091E3028093970232C041
:1043C0008FE30E94AB02D82E8FE38D1540F1289821
:1043D0008FEF0E94A5027E010894E11CF11C870169
:1043E000CE2C06C080E00E94A502F80181938F01C7
:1043F000802F8C198D15B0F3289A81E080932301CA
:1044000005C0F70181917F010E9438068E2D8C191D
:104410008D15B8F30E946D068FEF8093230181E024
:1044200080935603C05CDF4FE8E026C50F931F93CF
:10443000CF93DF93EC01DC010D900020E9F7119799
:10444000A81BB90B8981823751F487E390E00E9461
:1044500096030E940E0381E08093560329C08337A0
:1044600029F50A2F28988FE70E94A502802F8250F5
:104470000E94A50212E004C089810E94A5021F5F6C
:1044800021961017C8F3289A0E941A0304C084E6E4
:1044900090E00E94B9058AE30E94AB0290E08F771A
:1044A0009070892BA1F70E940E0302C01092560350
:1044B000DF91CF911F910F9108950F931F93CF9389
:1044C000DF93EC0100E0802F90E063E070E075D4B2
:1044D000FC01E856FF4F1491802F90E063E070E0FC
:1044E0006CD4FC01E756FF4F25913491112399F0CC
:1044F000209739F480E20E943806812F0E94380606
:1045000008C08881811729F4CE01F901099581E05D
:1045100003C00F5FD8CF80E0DF91CF911F910F9143
:1045200008951F93109123018093230135C08AE9D8
:1045300093E00E94B5088A3011F08D3009F5E091C2
:104540009802EE2349F1F0E0E756FD4F108289E929
:1045500092E0B3DF882389F484EC93E00E94710633
:1045600089E992E00E947E068CEA93E00E9471063F
:1045700080E090E0A2DF0E946D06109298020CC0CD
:1045800090919802903440F4E92FF0E0E756FD4F07
:1045900080839F5F9093980280919C03882339F6D3
:1045A000109323011F910895E4E6F0E080818B7F52
:1045B0008083299A84B1876084B9239880E58CBD73
:1045C0008DB581608DBD08954091EA035091EB0354
:1045D0004115510521F44091190150911A01209182
:1045E0001B0130911C012115310541F42DB73EB757
:1045F0008091170190911801281B390B421753071E
:1046000018F020E030E002C0241B350BC9010895EA
:1046100082E40E9438068091EA039091EB0365E002
:1046200040E20E94C3060E946D0683E50E943806A0
:104630008091190190911A0165E040E20E94C30641
:104640000E946D0685E40E94380680911B019091BE
:104650001C0165E040E20E94C3060E946D0686E4EC
:104660000E943806B1DF65E040E20E94C3060C9468
:104670006D06A2E0B0E0EEE3F3E2E8C3E2EEF3E0C1
:104680008091F100819383E0EA3EF807C9F78091B9
:10469000E2033091E303353009F49FC0363048F42B
:1046A000313009F44BC0313070F0333009F023C1A0
:1046B00045C0383009F4D7C0393009F4FCC0363071
:1046C00009F019C1B4C0803821F0823809F013C153
:1046D00008C09091DD038091DE03882391F0926001
:1046E00010C08091E6038093E9008091EB0090E098
:1046F00025E0969587952A95E1F7982F917010926D
:10470000E9008091E800877F8093E8009093F100B2
:104710001092F1008091E800982F9E7F9093E8001E
:104720008F778093E80005C08091E103882309F426
:10473000E4C08091E80082FFF7CFB3C0882319F06E
:10474000823009F0D8C090E08F719070009719F016
:104750000297B9F50CC08091E403813009F0CDC017
:104760001092DE03333069F58093DE032AC0809116
:10477000E403882331F52091E603277009F4BDC0D6
:104780002093E9008091EB0080FF1BC03130A1F441
:104790008091EB0080618093EB0081E090E002C0AB
:1047A000880F991F2A95E2F78093EA001092EA0099
:1047B0008091EB00886003C08091EB008062809361
:1047C000EB001092E9008091E800877F8093E80079
:1047D0008091E800982F9E7F68C0882309F08BC0E5
:1047E0002091E4038091E800877F8093E800809126
:1047F000E800982F9E7F9093E8008F778093E800E1
:1048000005C08091E103882309F477C08091E80016
:1048100080FFF7CF922F9F77892F80688093E300E6
:10482000992309F46AC083E08093E10366C080584D
:10483000823008F060C08091E4039091E5036091BC
:10484000E603AE014F5F5F4F0E946502BC01009717
:1048500009F453C08091E800877F8093E800898144
:104860009A8126D11EC0803809F045C08091E800A9
:10487000877F8093E8008091DF038093F10080912F
:10488000E800982F9E7F9093E8008F778093E80050
:1048900004C08091E103882381F18091E80082FFC8
:1048A000F8CF8091E800982F9B7F9093E8008F7756
:1048B0008093E80022C08823F1F42091E4032230A1
:1048C000E0F48091E800877F8093E8002093DF0385
:1048D0008091E800982F9E7F9093E8008F778093D7
:1048E000E800222311F084E001C083E08093E1031B
:1048F0000E94F50402C00E94B7048091E80083FF83
:104900000AC08091EB0080628093EB008091E80008
:10491000877F8093E8002296E2E0B4C28093E900AA
:104920008091EB0081608093EB001092ED0060932A
:10493000EC004093ED008091EE00881F8827881FCF
:1049400008951092F40090E09093E9001092F00026
:104950001092E8008091ED008D7F8093ED008091B2
:10496000EB008E7F8093EB009F5F953069F7089591
:104970008091E2038823BCF404C08091E103882382
:10498000F9F08091E80082FFF8CF8091E800982F3D
:104990009B7F9093E8008F778093E8000895809143
:1049A000E103882369F08091E80080FFF8CF8091CF
:1049B000E800982F9E7F9093E8008F778093E8001F
:1049C000089594E68091EC0080FF05C08091E80096
:1049D00080FF05C01FC08091E80082FD1BC0809150
:1049E000E103882311F482E008958091EB0085FFB4
:1049F00002C081E008958091E10082FFE3CF8091C1
:104A0000E1008B7F8093E100992311F483E0089506
:104A10009150D8CF80E00895FC014091E803509177
:104A2000E9039B014617570708F49A0140E02EC09E
:104A30008091E80083FF02C081E008958091E80042
:104A400082FD2EC08091E103882381F18091E800EE
:104A500080FF1CC005C081918093F100215030403F
:104A60002115310521F08091F2008830A0F380916A
:104A7000F20040E0883009F441E08091E800982F8E
:104A80009E7F9093E8008F778093E8002115310591
:104A900079F6442369F604C08091E103882331F05C
:104AA0008091E80082FFF8CF80E0089582E00895C9
:104AB000DC014091E8035091E9039B014617570739
:104AC00008F49A0140E030C08091E80083FF02C002
:104AD00081E008958091E80082FD30C08091E1037B
:104AE000882391F18091E80080FF1EC007C0FD017E
:104AF0001196E491E093F1002150304021153105E9
:104B000021F08091F200883090F38091F20040E033
:104B1000883009F441E08091E800982F9E7F9093BF
:104B2000E8008F778093E8002115310569F644236A
:104B300059F604C08091E103882331F08091E800A8
:104B400082FFF8CF80E0089582E00895FC0122C042
:104B50008091E80083FF02C081E008958091E10325
:104B6000882331F18091E80082FFF2CF06C0809166
:104B7000F10081936150704021F08091F200882310
:104B8000B1F78091E800982F9B7F9093E8008F7792
:104B90008093E80061157105D9F604C08091E103A6
:104BA000882331F08091E80080FFF8CF80E00895FD
:104BB00082E0089553D055D01092E1031092DF03A4
:104BC0001092DE031092DD0319BC89B5826089BDA5
:104BD00009B400FEFDCF8091D800982F9F77909365
:104BE000D80080688093D800809163008E7F809386
:104BF00063008091D8008F7D8093D8008091E00081
:104C00008E7F8093E0008091E1008E7F8093E100B1
:104C10008091E20081608093E2008091E100877FD3
:104C20008093E1008091E20088608093E200089523
:104C3000C1DFE0EEF0E0808181608083E8EDF0E0AC
:104C400080818F77808319BC1092E0030895B2DFD2
:104C500081E08093E0037894089508951092E20033
:104C600008951092E10008951F920F920FB60F92CF
:104C700011242F933F934F935F936F937F938F9361
:104C80009F93AF93BF93EF93FF938091E10080FFD9
:104C90001CC08091E20080FF18C08091E1008E7FEF
:104CA0008093E1008091E2008E7F8093E20080910A
:104CB000E20080618093E2008091D800806280935E
:104CC000D80019BC1092E103C8DF8091E10084FF95
:104CD00029C08091E20084FF25C019BC89B582609B
:104CE00089BD09B400FEFDCF8091D8008F7D8093EF
:104CF000D8008091E1008F7E8093E1008091E200F6
:104D00008F7E8093E2008091E20081608093E200D8
:104D10008091DF03882311F481E001C084E0809357
:104D2000E1039BDF8091E10083FF23C08091E200DB
:104D300083FF1FC08091E100877F8093E10082E0C4
:104D40008093E1031092DF038091E1008E7F8093D6
:104D5000E1008091E2008E7F8093E2008091E2008A
:104D600080618093E200EDDD80E060E042E0D6DD2E
:104D700074DFFF91EF91BF91AF919F918F917F91E0
:104D80006F915F914F913F912F910F900FBE0F90B8
:104D90001F9018951F938091E103882361F0109173
:104DA000E9001092E9008091E80083FF01C061DC16
:104DB00017701093E9001F9108955527002480FF74
:104DC00002C0060E571F660F771F6115710521F08F
:104DD00096958795009799F7952F802D0895AA1B92
:104DE000BB1B51E107C0AA1FBB1FA617B70710F0D6
:104DF000A61BB70B881F991F5A95A9F78095909508
:104E0000BC01CD01089597FB092E07260AD077FD36
:104E100004D0E5DF06D000201AF4709561957F4F2D
:104E20000895F6F7909581959F4F08952F923F92A0
:104E30004F925F926F927F928F929F92AF92BF92AA
:104E4000CF92DF92EF92FF920F931F93CF93DF9356
:104E5000CDB7DEB7CA1BDB0B0FB6F894DEBF0FBEB3
:104E6000CDBF09942A88398848885F846E847D8400
:104E70008C849B84AA84B984C884DF80EE80FD8002
:104E80000C811B81AA81B981CE0FD11D0FB6F89478
:104E9000DEBF0FBECDBFED010895CF93DF93BC0100
:104EA0008230910510F462E070E0A091EC03B091C3
:104EB000ED03ED01E0E0F0E040E050E021C088814A
:104EC00099818617970769F48A819B81309719F039
:104ED0009383828304C09093ED038093EC03FE01DF
:104EE00034C06817790738F44115510519F0841753
:104EF000950708F4AC01FE018A819B819C01E901C0
:104F00002097E9F641155105A9F1CA01861B970BB7
:104F1000049708F4BA01E0E0F0E02AC08D919C917A
:104F2000119784179507F9F46417750781F41296A1
:104F30008D919C911397309719F09383828304C0CD
:104F40009093ED038093EC03FD0132964FC0CA01AC
:104F5000861B970BFD01E80FF91F61937193029770
:104F60008D939C9343C0FD01828193819C01D90163
:104F70001097A1F68091EA039091EB03892B41F4FD
:104F80008091190190911A019093EB038093EA03A9
:104F900040911B0150911C014115510541F44DB741
:104FA0005EB78091170190911801481B590B209111
:104FB000EA033091EB0324173507B0F4CA01821BD2
:104FC000930B8617970780F0AB014E5F5F4F8417F6
:104FD000950750F0420F531F5093EB034093EA03A1
:104FE000F9016193719302C0E0E0F0E0CF01DF913D
:104FF000CF910895CF93DF93009709F450C0EC014F
:1050000022971B821A82A091EC03B091ED031097B6
:1050100009F140E050E0AC17BD0708F1BB83AA835B
:10502000FE0121913191E20FF31FAE17BF0779F412
:105030008D919C911197280F391F2E5F3F4F398317
:10504000288312968D919C9113979B838A83411597
:10505000510571F4D093ED03C093EC0320C0129678
:105060008D919C911397AD01009711F0DC01D3CF86
:10507000FA01D383C28321913191E20FF31FCE173E
:10508000DF0769F488819981280F391F2E5F3F4F10
:10509000FA01318320838A819B8193838283DF910C
:1050A000CF910895F999FECF92BD81BDF89A9927C5
:1050B00080B50895262FF999FECF1FBA92BD81BD04
:1050C00020BD0FB6F894FA9AF99A0FBE019608958A
:0450D000F894FFCF82
:1050D4008025000000000802323100A401060010FF
:0E50E400B07106D8046C022000EE030000003C
:00000001FF
