:100000005DC1000077C1000075C100000C94B30B06
:1000100071C100006FC100006DC100006BC1000024
:1000200069C1000067C100000C94B41B63C10000EB
:1000300061C100005FC100005DC100005BC1000044
:1000400059C100000C94E80C55C1000053C10000D8
:1000500051C100000FC400004DC100004BC10000A1
:1000600049C1000047C1000045C1000043C1000074
:1000700041C100003FC100003DC100003BC1000084
:1000800039C1000037C1000035C1000033C1000094
:1000900031C100002FC100002DC100002BC10000A4
:1000A00029C1000027C1000025C1000042670643A6
:1000B0004702465A094195134793084D2B08522889
:1000C0000654D814561C0657DC0658610D659C066C
:1000D0006670176D5F186C8D0674DA0475591178A7
:1000E0005E030000001201100102000008EB034B48
:1000F00020000001020001090243000201008032D9
:100100000904000001020201000524000110052479
:1001100001030104240206052406000107058203E9
:100120000800FF09040100020A000000070504029C
:100130004000000705830240000004030904160381
:1001400062007500730077006100720065002E0088
:100150006400650000002A03430055004C0038008D
:100160003600380000002A03430055004C003400DC
:1001700033003300000000030F1E26270000000399
:100180000F1E2536386700030F25674060500003B7
:100190000F275188838100030F2750C8C3C200274F
:1001A0000000000000000067000000000000005098
:1001B000000000000000008100000000000000C2FC
:1001C0000000000000000D2E2D07D3913D043200E9
:1001D00000060021656A55E43023B90007001814B1
:1001E0006C070090876BF85611E92A001F41000741
:1001F0002E050DD391FF080500000C0021656A2D26
:100200003B1322F862073F181D1CC700B0876BF82C
:10021000B611EA2A001F4100202F2000203D2000B7
:100220005620312E33382043554C3836380056206E
:10023000312E33382043554C34333300202F2000E7
:10024000203D20004C4F56460D0A00424F56460DA9
:100250000A000007022E030D04E905CA070C0B066D
:100260000D210E650F6A10C8119312031534173053
:10027000181819161B432156250026112D353EC38B
:10028000FF00000000535300547D7DFFFF4B4B7E69
:100290007E00454F420D0A004E2F41004E2F410077
:1002A00020697320756E6B6E6F776E2920557365AC
:1002B000206F6E65206F66003F20280011241FBE4E
:1002C000CFEFDAE0DEBFCDBF11E0A0E0B1E0EAEDB4
:1002D000F9E302C005900D92AE30B107D9F713E0F3
:1002E000AEE0B1E001C01D92A13AB107E1F70CD038
:1002F0000C94EB1C85CEF89481E085BF82E085BF2D
:10030000E0E0F8E3099508952FE088E190E00FB66A
:10031000F894A895809360000FBE2093600020E0C1
:1003200030E080E80FB6F89480936100209361007C
:100330000FBE2E9A04B603FE0AC083E390E085D474
:10034000882329F083E390E060E0BCD4D4DF89EF18
:1003500087BD84E085BD82E084BD80936E001092ED
:1003600080008AE08093810084B7877F84BF6E9A83
:100370000E942C180ED50E949B1B0E94BA149DD778
:1003800089EE97E190938902809388020E94FA1186
:1003900089E08093120176980E94641CA6D10E9485
:1003A000770DA3D20E9419170E94D70F0E940D1239
:1003B000F3CF292F33272230310559F0233031056F
:1003C00069F02130310559F522E130E085EE90E009
:1003D0002AC023E430E087EF90E025C090708130A0
:1003E000910561F08130910520F082309105B9F4DA
:1003F0000AC08AE391E0FC0124910FC08EE391E0F2
:10040000FC0124910AC01E9B03C086E591E002C056
:1004100086E691E0E6E5F1E0249130E004C020E0DA
:1004200030E080E090E0FA0191838083C901089573
:100430008EBD0DB407FEFDCF8EB508952898806C53
:100440008EBD0DB407FEFDCF8EB51EBC0DB407FEEC
:10045000FDCF8EB5289A0895289880648EBD0DB47E
:1004600007FEFDCF8EB56EBD0DB407FEFDCF8EB578
:10047000289A089528988EBD0DB407FEFDCF8EB53D
:10048000289A089586E3F6DF10928A020895A1E083
:10049000B0E0EDE4F2E00C94AC1C0196BE016F5F9D
:1004A0007F4F41E082D3009749F18981893991F4E6
:1004B00000E010E0802FC2DF2FD3C801877090705A
:1004C0008730910509F4D1D20F5F1F4F003311051A
:1004D00089F714C0B3DF182F83E488D289811CD335
:1004E0008CE192E0C6D2812F17D388E192E0C1D28D
:1004F000812F90E062E040E213D3B7D22196E4E08E
:100500000C94C81C1F931FEF84E3B4DF8AE090E0D3
:100510005ED21150C9F7EA9A1F9108951F93EA9885
:1005200086E3A8DF1FEF85E3A5DF8AE090E04FD2E6
:100530001150C9F71F910895EF92FF921F93CF9327
:10054000DF93182F8A3008F018E0C12FD0E083E045
:10055000CC0FDD1F8A95E1F7CA58DE4F8BE290E0A1
:100560007C010894E11CF11CFE016491ABD321963F
:10057000C70183339105A1F71550153010F067E1DD
:1005800001C061E184E290E09DD3DF91CF911F91A2
:10059000FF90EF900895CF93DF9382E090E0EC011D
:1005A0002196FE01ED53FE4F64918CD3CB32D105E1
:1005B00011F0CE01F4CF87E390E0EC012196FE012B
:1005C000E954FE4F64917ED3C036D10511F0CE01BF
:1005D000F4CF1E9918C08FE090E060E173D380E102
:1005E00090E060EB6FD381E190E061E76BD384E44E
:1005F00090E060E167D385E490E060EB63D386E44C
:1006000090E061E75FD388E097DFDF91CF910895B5
:100610000F931F93CF93DF938C01EA98209A289A27
:100620008EE190E0D4D128988EE190E0D0D1289A44
:100630008DE290E0CCD180E31DDF84E690E0C7D16D
:10064000289880E48EBD0DB407FEFDCF8EB5C0E0C6
:10065000D0E0C8018C0F9D1FF8D28EBD0DB407FEEF
:10066000FDCF8EB52196C932D10599F7289A2898E1
:100670008EE78EBD0DB407FEFDCF8EB58BE290E008
:10068000EC012196E2D28EBD0DB407FEFDCF8EB5F2
:10069000C333D10511F0CE01F3CF289A83E3EADE0C
:1006A00081E09AD1DF91CF911F910F91089582E05F
:1006B00090E0AEDF81E080938A020895A1E0B0E08F
:1006C000E4E6F3E00C94AE1C22E029830196BE011F
:1006D0006F5F7F4F41E069D289812EDF82E090E039
:1006E00097DF2196E2E00C94CA1C80919403843039
:1006F00009F069C08093E90080910E01882351F5CB
:100700008091E80085FD06C025C06091F1008DE470
:1007100093E09ED38091F2009091F3000097A9F7A7
:100720008091E800982F9B7F9093E8008F778093CB
:10073000E80081E080930E0185E793E090938702C3
:1007400080938602E0918802F091890281E0099508
:1007500010920E0183E08093E90080910C038823BE
:1007600091F18091E80085FF2EC0F89405C08AE0E1
:1007700093E081D38093F10080910C03882339F0BA
:100780008091F2009091F3008034910580F3789489
:100790002091F2003091F3008091E800982F9E7F25
:1007A0009093E8008F778093E8002034310559F466
:1007B0000E943A1A8091E800982F9E7F9093E8005B
:1007C0008F778093E8000895809195039091960328
:1007D000913229F0923261F1903299F512C0813A4A
:1007E00081F58091E800877F8093E80080E091E0C8
:1007F00067E070E00E94651A8091E800982F9B7F67
:1008000011C08132F1F48091E800877F8093E80085
:1008100080E091E067E070E00E94091B8091E800B1
:10082000982F9E7F9093E8008F778093E80008953B
:10083000813239F48091E800877F8093E8000C943E
:10084000111A089582E061EC42E00E94E71983E00A
:1008500061E842E30E94E71984E060E842E30E9415
:10086000E7191092000110920101109202011092FA
:10087000030108951F920F920FB60F9211248F93C8
:100880009F93AF93BF9380918B0290918C02A09124
:100890008D02B0918E020196A11DB11D80938B0235
:1008A00090938C02A0938D02B0938E028091F302FC
:1008B0009091F402009729F001979093F4028093AD
:1008C000F3028091ED02882339F080910803882398
:1008D00019F0815080930803BF91AF919F918F9140
:1008E0000F900FBE0F901F90189580918B029091E2
:1008F0001101891709F45DC080931101A8958091B9
:10090000F3029091F402009711F40E94C7138091B2
:10091000ED02882331F080910803882311F40E94AE
:10092000A1142091DD023091DE024091DF0250914E
:10093000E00280918B0290918C02A0918D02B09187
:100940008E02281739074A075B0711F40E942D1100
:1009500080911001982F9F5F909310018D3748F17F
:10096000109210018091070181FF04C08EB190E4C4
:1009700089278EB980918F029091900223E084386C
:10098000920728F401969093900280938F028091B1
:100990000F018F5F80930F018C3359F410920F0178
:1009A0008091EE028F5F8093EE028C3310F01092F4
:1009B000EE02089580918E02AFD080918D02ACD06E
:1009C00080918C02A9D080918B02A6D04EC0880F56
:1009D000991F0197F1F7089520ED37E004C0F90160
:1009E0003197F1F781508823D1F708951F93182F7D
:1009F00080919403843081F48091120180FF0CC0B7
:100A000080910C03803408F070DE8AE093E0612F5F
:100A10001FD21A3009F469DE8091EB02882319F1A4
:100A20008091120183FF1FC01A30E9F01D3009F4D4
:100A30001BE388E992E0612F0BD280918B029091A9
:100A40008C02A0918D02B0918E020396A11DB11D62
:100A50008093DD029093DE02A093DF02B093E00268
:100A600082E08093E6021F9108958DE0BFDF8AE067
:100A7000BDCFCF93DF93EC0102C0B8DF2196FE011A
:100A800084918823D1F7DF91CF910895CF93DF939D
:100A9000EC0102C02196AADF88818823D9F7DF9173
:100AA000CF910895A5E0B0E0E8E5F5E00C94AE1C28
:100AB0001D82FE01349624E0382F3F7021503A30D9
:100AC00010F4305D01C0395C308334E09695879531
:100AD0003A95E1F761503197009771F7822F815075
:100AE000992787FD9095FE013196E80FF91F03C005
:100AF000215040833197615067FD02C01216C4F344
:100B0000332727FD3095CE010196820F931FBEDF5C
:100B10002596E2E00C94CA1C90E062E040E3C2CF6C
:100B2000A6E0B0E0E6E9F5E00C94AC1CFC01262F51
:100B30001E828E010B5F1F4F35E03150CF016AE0FE
:100B400070E00E94771C805DD8018C93CF016AE031
:100B500070E00E94771CE62FF72F2150309751F458
:100B6000832F8150992787FD9095FE013196E80FDC
:100B7000F91F08C0015010403323F9F6F1CF31506E
:100B800040833197215027FD02C01316C4F3832FF1
:100B9000992787FD90959E012F5F3F4F820F931FEE
:100BA00075DF2696E4E00C94C81CFC01CB0125C03F
:100BB000A32FA053AA3010F0A0E002C02A2BA1E07E
:100BC000B32FB154B63020F4A32FA7532A2BA1E0A2
:100BD000B32FB156B63018F43755232B07C0AA23CC
:100BE00029F4303281F03A3389F40DC0552341F0B5
:100BF000DB012D93BD01415049F050E020E003C0DE
:100C00002295207F51E03191332391F6681B790BB7
:100C1000CB010895FB01982F92959F709A3010F4A4
:100C2000905D01C0995C90838F708A3010F4805D74
:100C300001C0895C818308951E9903C08EE292E011
:100C400002C080E292E015DF10CF0C94D51C08950D
:100C5000EF92FF921F93DF93CF9300D0CDB7DEB713
:100C60001B8219820196BE016F5F7F4F42E09DDFBC
:100C7000E980823039F49E2D80E0EA80FF24E82A62
:100C8000F92A01C0FF24C701E0DF182F82E5AEDE9C
:100C9000C70164E040E306DF80E492E0EADE812FF2
:100CA0003BDF8CE392E0E5DE812F90E062E040E202
:100CB00037DFDBDE0F900F90CF91DF911F91FF9018
:100CC000EF9008950E94DD1CF999FECF0895A1E0F0
:100CD000B0E0EDE6F6E00C94AE1C1982009731F01E
:100CE0000196BE016F5F7F4F41E05FDF89818823FE
:100CF00021F083E390E061E0E5DF0E94891B109220
:100D00006E0028E088E190E00FB6F894A8958093F3
:100D100060000FBE20936000FFCF019667E071E096
:100D200041E043DF6091070160FF02C0769A01C095
:100D3000769884E390E0C6CFCF93DF93EC0180E018
:100D400090E061E0BFDF81E090E066E2BBDF23DCA2
:100D500080E690E060E0B6DF81E690E060E0B2DF40
:100D600083E390E060E0AEDF84E390E062E0AADF3E
:100D700080E690E060E0A6DF81E690E060E0A2DF40
:100D80008981883719F080E090E0A1DFDF91CF9171
:100D9000089580E090E059DF813029F481E090E00F
:100DA00054DF863219F080E090E0C6DF84E390E003
:100DB0004CDF809307010895A6E0B0E0E2EEF6E094
:100DC0000C94A81C6C010196BE016F5F7F4F43E03D
:100DD000ECDE8230A0F1E980823011F4FF2406C0FD
:100DE0003E2D20E0EA80FF24E22AF32A082F10E0BB
:100DF000FE01E00FF11FC701608164DF000F111FCA
:100E00000F5F1F4F0C0D1D1D0894E11CF11C6E019E
:100E10000894C11CD11C0FC0C801B60141E0C5DE59
:100E2000009769F0C70169814DDF0E5F1F4F82E0B7
:100E300090E0E80EF91EF8018081882369F7269674
:100E4000E8E00C94C41CFC01128210821182089507
:100E5000FC018281803470F48F5F82838081DF01A6
:100E6000A80FB11D13966C9313978F5F8083803406
:100E700009F410820895FC018281882371F0815069
:100E800082839181DF01A90FB11D13968C91139775
:100E90009F5F9183903409F411820895FA01908143
:100EA000882371F0DB01A90FB11D41E050E0022E53
:100EB00002C0440F551F0A94E2F78C91842B8C9347
:100EC000222319F0822F815009C09F5F9C3008F4C3
:100ED0009083690F711DFB01108287E090E00895F7
:100EE0001F93182F5B9A882319F08091150102C077
:100EF0008091130190E034E0880F991F3A95E1F753
:100F000066DD5B98112319F08091160102C0809173
:100F1000140190E024E0880F991F2A95E1F757DD2E
:100F20001F910895A6E0B0E0E8E9F7E00C949E1C5C
:100F30009E838D83162FF42ED22E642E772420913B
:100F40008F0230919002C3010296089F802D1124D8
:100F5000992787FD90952817390720F484E492E0BB
:100F600088DD75C0281B390B3093900220938F02C7
:100F7000769A80918A02882309F499DBCFDA212EB0
:100F8000332461E0862E912C4D2C55242F2D3327B0
:100F900027FD30958D819E81280F391F3A83298343
:100FA000CC24DD2405C080E09BDF0894C11CD11C4B
:100FB000C214D304C4F381E093DFCC24DD2420C029
:100FC00057E0A52EB12CED81FE81EC0DFD1DFC83BB
:100FD000EB83C4010A2C02C0880F991F0A94E2F720
:100FE000EB81FC81208182237BDF0894A108B1087A
:100FF000FFEFAF16FFEFBF0661F70894C11CD11CCD
:10100000C614D704ECF247E0C42ED12C0FC0C401A3
:101010000C2C02C0880F991F0A94E2F7E981FA812B
:10102000208182235DDF0894C108D1084C145D043F
:1010300074F38E2DD1DC015009F0B2CF8091910272
:10104000882311F05FDA02C086E314DA76982696D8
:10105000E2E10C94BA1CA9E1B0E0E1E3F8E00C9401
:10106000A21C8E01025F1F4F0196B8014BE09DDD6F
:10107000893009F054C089E18093140180931301F1
:101080008093150182E380931601C80169E036D18F
:101090008F8B19821A82A8E16A2E712C6C0E7D1E2C
:1010A00027E0F1E08F2E912CE2E0AE2EB12CAC0EB9
:1010B000BD1E6E010894C11CD11C1EC0EE24FF246D
:1010C000C4010E2C02C0880F991F0A94E2F7F801A0
:1010D00030818323B501A601E1DE282F0894E11CAD
:1010E000F11CF8E0EF16F10459F781E0B501A60113
:1010F000D5DE282F0F5F1F4F06151705F9F622239F
:1011000011F0215004C089818F5F898327E0CE01CF
:1011100002966CE0498103E07AE0E72E03DF6996EE
:10112000EEE00C94BE1CEF920F93DF93CF93CDB7FC
:10113000DEB760970FB6F894DEBF0FBECDBF019645
:10114000BE016F5F7F4F40E130DD69812A818B8175
:101150009C81909313019D81909314019E819093A3
:1011600015019F8190931601422F42954F702F7069
:10117000082F0F70E82EE294BFE0EB22CE01089614
:10118000D1DE60960FB6F894DEBF0FBECDBFCF9113
:10119000DF910F91EF900895AEE0B0E0E2EDF8E05E
:1011A0000C949E1C7C01162F842F022FB701412F17
:1011B0009BD0F701E10FF11D80831F5F1E8719820D
:1011C0001A82470127E010E071E0472E512C62E0BF
:1011D000662E712C6C0E7D1E5E010894A11CB11C44
:1011E00030C057E0C52ED12C1701210E311CC20191
:1011F0000C2C02C0880F991F0A94E2F7F10130818C
:101200008323B301A5014ADE282F0894C108D10821
:10121000FFEFCF16FFEFDF0651F7F40181914F0189
:10122000082E82958025082E86958695802590E04B
:101230000196959587958170B301A5012FDE282F22
:101240001F5FFE851F1768F2222311F0215004C092
:1012500089818F5F898327E089E1809314018093DE
:10126000130185E28093160180931501CE01029649
:101270006CE049813AE0E32E55DE2E96E2E10C94D3
:10128000BA1CADE0B0E0E7E4F9E00C94AB1CF62E3C
:10129000242F01968E010F5F1F4FB8014BE02D8761
:1012A00084DC682FC8014F2D2D8576DF2D96E5E073
:1012B0000C94C71C66E043E0E4CF539A5B985298C5
:1012C000E9E6F0E080818061808382EC91E0909398
:1012D000900280938F0210922B0110923F01109286
:1012E000530110928A02089506C04150FB01E40F99
:1012F000F11D9081890F4423C1F708959C0180E07E
:1013000006C06150F901E60FF11D9081892766231F
:10131000C1F70895AF92BF92CF92DF92EF92FF9202
:101320001F93CF93DF93FC011092770110926A0113
:101330002181220F220F220F8381281B295F109207
:101340006B0180E030E097E077E010E0A0E057E04C
:10135000C52ED12C41E0E42EF12C7CC0EF01C10F51
:10136000D11D4C8150E0072E02C0559547950A9437
:10137000E2F7B42FB170772311F0715002C01F5FF4
:1013800077E06B3459F4933049F43323B9F5BB2338
:1013900011F031E05FC0109277011EC09F3F79F5D8
:1013A0006634F1F4C82FD0E0C559DE4F4881042ED1
:1013B00042954025042E46954695402550E04F5FC6
:1013C0005F4F5595479541705070CB2FD0E04C172B
:1013D0005D0761F03093770180936A0180E054C02B
:1013E000653411F06B3411F4BB23A1F38F5FC82F68
:1013F000D0E0C559DE4F188297E02CC030E0BB2307
:1014000041F1663461F4C82FD0E0C559DE4F570171
:10141000092E02C0AA0CBB1C0A94E2F717C065345F
:1014200011F06B34B1F4C82FD0E0C559DE4FA92EAE
:10143000BB24A7FCB094A6014A195B095A01A70175
:1014400002C0440F551FAA94E2F75A0148814A2965
:1014500048839150AF5F4A2F4150421708F47ECF26
:101460003093770180936A012A1708F0B7CF65346B
:1014700011F49F3F11F0332319F08F5F80936A01BD
:1014800080916A01811181E0DF91CF911F91FF90DE
:10149000EF90DF90CF90BF90AF900895FC019281C4
:1014A000A081B181A90FB11D8C912381322F3150C0
:1014B0003383222321F49F5F928397E0938390E00C
:1014C00002C0959587952A95E2F7817008958F92CD
:1014D0009F92AF92BF92CF92DF92FF920F931F9392
:1014E000DF93CF9300D0CDB7DEB74C0100E010E022
:1014F000FF2471E0A72EB12CC62EDD240894C1086C
:10150000D1081FC0C4014A836983C8DF4A81698149
:101510008823A9F0442359F0C601801B910B950143
:1015200002C0220F331F8A95E2F7C90107C0C50127
:10153000002E02C0880F991F0A94E2F7F82A0F5F65
:101540001F4F0617F8F28F2D0F900F90CF91DF915C
:101550001F910F91FF90DF90CF90BF90AF909F9021
:101560008F900895A4E0B0E0E8EBFAE00C94A71C9B
:10157000FC0110926A01218130E0A3E0220F331FA9
:10158000AA95E1F78381281B31092E3331050CF42C
:1015900060C01B8287E08C833496FA83E98310E075
:1015A00000E07E010894E11CF11C2FC0C12EDD2457
:1015B000C70168E040E08BDF2BE631E0C20ED31EAE
:1015C000F6018083B82E0B2CB294B0240B2CB69469
:1015D000B694B024C70162DF2B2D30E02F5F3F4F60
:1015E000359527952170307090E02817390731F430
:1015F000C70154DF912F9F5F882319F010936A0170
:1016000028C0F60180810827192F163078F2109330
:101610006A01C70168E040E05ADFC82E182F012E8A
:1016200012951025012E169516951025C70136DF47
:10163000212F30E02F5F3F4F359527952170307077
:1016400090E02817390729F480E00C1519F481E09F
:1016500001C080E02496E9E00C94C31CFC01A18148
:10166000B0E050E02081CD01841B950B0B968731B3
:101670009105E0F430E070E0C901861B970B8C30D7
:101680009105A4F4EFEF853F9E0784F02A0F3B1FDE
:10169000261B370B241B350B2C3031053CF480E026
:1016A0009FEF253F39071CF081E0089580E0089501
:1016B000282F30E0C901880F991F820F931F860FD2
:1016C000911D95958795959587950895FC01A18124
:1016D000AC3098F010926F00E0916701F0E084E187
:1016E00090E09F01289FF001299FF00D389FF00D99
:1016F0001124E95EFE4F10820895662391F08A0F4F
:10170000911DDC0121E030E0038002C0220F331F75
:101710000A94E2F714968C911497822B14968C936A
:1017200014978381982F91509383882341F487E005
:10173000838381818F5F8183E80FF11D1482089577
:10174000982F9552973160F46A3050F0673240F428
:1017500020E030E0681710F421E030E0C90108957E
:1017600080E090E008951F920F920FB60F9211241F
:10177000CF92DF92FF920F931F932F933F934F933C
:101780005F936F937F938F939F93AF93BF93EF93E9
:10179000FF93DF93CF930F92CDB7DEB7809109030C
:1017A000882321F082E080930903E6C08091E10262
:1017B000823021F483E08093E102DEC080918400D6
:1017C0009091850054E0969587955A95E1F7182FEA
:1017D000F090670184E1F89E6001112427E131E077
:1017E000C20ED31EF6018081843031F41E3208F41B
:1017F000C3C01F3408F0AFC04A990CC0843039F41C
:10180000C60161E063DF109285001092840010939E
:101810008901B2C000918901101B10938A011092B6
:10182000850010928400843021F4C60160E04EDF10
:10183000A3C092E096BB882371F4053608F09CC0E3
:10184000153608F099C0F601008B118B81E0828378
:1018500082E0808391C0823009F051C0C601409679
:10186000602F412FFBDEF6019281882379F0808979
:10187000602F99831DDFF601808B8189612F18DF2E
:10188000F601818B99819F5F928376C09430A0F19D
:101890009C3058F0F6012189808990E0820F911DDB
:1018A0008536910514F084E015C080919702882355
:1018B00079F0802F612F44DF882351F0F601818970
:1018C00060893EDF882321F081E08093E10243C0FC
:1018D00083E0F6018083F601028B138B118287E08F
:1018E0008383148280EA9FE090938900809388002C
:1018F00082E080936F0040C0F60110829ECFC60147
:101900004296602F412FAADE882379F0C60161E05C
:10191000DDDEF6018289602FCBDEF601828B8389C2
:10192000612FC6DEF601838B27C0C6014096602F6B
:10193000412F94DE882379F0C60160E0C7DEF6010E
:101940008089602FB5DEF601808B8189612FB0DE42
:10195000F601818B11C010926F00EF2DF0E084E151
:1019600090E09F01289FF001299FF00D389FF00D16
:101970001124E95EFE4F10820F90CF91DF91FF910D
:10198000EF91BF91AF919F918F917F916F915F91F7
:101990004F913F912F911F910F91FF90DF90CF902A
:1019A0000F900FBE0F901F901895E0916701F0E027
:1019B00084E190E09F01289FF001299FF00D389F5E
:1019C000F00D1124E95EFE4F8081811181E00895C0
:1019D0001F920F920FB60F9211242F933F934F93A4
:1019E0005F936F937F938F939F93AF93BF93EF9387
:1019F000FF9310926F008091910283FF03C08EE2EB
:101A00000E94F60480916701282F30E0E4E1F0E0C5
:101A1000AF01249FF001259FF00D349FF00D11249C
:101A2000E95EFE4F9081933018F09181923030F44E
:101A300010926F00E4E1F0E0CF0113C090916901D2
:101A40009330D1F48091910282FF03C08BE492E045
:101A500010D810926F00E0916701F0E084E190E00F
:101A60009F01289FF001299FF00D389FF00D112450
:101A7000E95EFE4F10820AC09F5F909369018F5FFD
:101A800080936701843011F410926701FF91EF9108
:101A9000BF91AF919F918F917F916F915F914F9186
:101AA0003F912F910F900FBE0F901F90189580912E
:101AB0009102882321F00E9457030C9482020C9417
:101AC0004202FC0101962181222361F4809191025E
:101AD00023D880918F029091900265E040E220D857
:101AE0000C94350561E972E041E05FD8E0CF0F93D7
:101AF0001F93CF93DF9380918A018823B9F180915E
:101B0000910287FF17C084E30E941E028058803430
:101B100010F480E00CC0803C10F08FE008C090E032
:101B200080559040A3E095958795AA95E1F78F5948
:101B30000E94F6048091910283FF16C082E70E9402
:101B4000F6048091910284FF04C0809189010E9473
:101B5000F60486E60E94F6048091910284FF04C098
:101B600080918A010E94F60410928A018091690195
:101B7000882309F417C2769A9091680184E1989FAE
:101B8000E0011124C95EDE4FCE0166E4C3DB882389
:101B900041F180916A01815080936A01982F26E07B
:101BA00007C09150E92FF0E0E559FE4F3081230F37
:101BB0009923B9F7E82FF0E0E559FE4F308123175C
:101BC00011F416E48FC09CE007C08150E82FF0E0CC
:101BD000E559FE4F2081920F8823B9F7931709F436
:101BE000C2C1CE0165E496DB882309F4BEC18091B1
:101BF0006A01815080936A01893009F0B6C190E092
:101C00008150E82FF0E0E559FE4F2081922788238C
:101C1000B9F780917401981709F0A7C115E462C063
:101C2000E0916A01E150E0936A01409177012E2F23
:101C300030E095E080E013C02150A22FB0E0A5591C
:101C4000BE4F5C91652F62956F708627960F442377
:101C500011F0332319F05F708527950F3F5F222322
:101C600059F7980F9295907F982BF0E0E41BF109BB
:101C7000E559FE4F8081981761F08B81982F9F5F07
:101C80009B83873009F089C11B82898181508983B8
:101C900084C11BE427C08B81843009F0D6C0CE01FB
:101CA00040966CE34EE1DADC882309F4CEC0C8012B
:101CB000609189014EE1D2DC682FCE0107DD8C8175
:101CC00080936B018D8180936C018E8180936D0177
:101CD0008F8180936E01888580936F0185E080936A
:101CE0006A0112E52091910220FFB0C021FF02C0DD
:101CF00090E058C09091780130916A01931781F576
:101D000080E00FC0482F50E0682F6F5FDA01A758BE
:101D1000BE4FFA01E559FE4F5C914081541719F40A
:101D2000862F891778F38317D9F480918B029091CD
:101D30008C02A0918D02B0918E024091850150914C
:101D400086016091870170918801841B950BA60B19
:101D5000B70B86329105A105B10510F491E001C0E1
:101D600090E080E00BC0482F50E0FA01E758FE4FAA
:101D700045595E4FDA014C9140838F5F831798F38A
:101D80008093780140918B0250918C0260918D027A
:101D900070918E0240938501509386016093870174
:101DA000709388011435D1F426FD18C080916D011F
:101DB0008B3409F44BC0893609F448C0833509F4E3
:101DC00045C0843509F442C08D3709F43FC08E37D1
:101DD000E9F180916E0180778037C1F19923B1F5E7
:101DE000812F0E94F60480917701882329F0809149
:101DF0006A01815080936A0100E008C0E02FF0E0A2
:101E0000E559FE4F80810E948C050F5FE0916A01C9
:101E10000E17A0F380917701882359F0F0E0E5597F
:101E2000FE4F808190E08F70907061E040E30E94EF
:101E300052058091910285FF05C084E30E941E0235
:101E40000E948C050E94350501C010E0809191022E
:101E500082FF6FC080E70E94F604888190E062E014
:101E600040E20E949005888990E0F4E0880F991F75
:101E7000FA95E1F765E040E20E949005898990E0DB
:101E8000E4E0880F991FEA95E1F765E040E20E94DF
:101E900090058A8990E074E0880F991F7A95E1F7A0
:101EA00065E040E20E9490058B8990E064E0880F35
:101EB000991F6A95E1F765E040E20E9490058A81EA
:101EC00090E063E040E20E949005898190E063E049
:101ED00040E20E9490059B8127E030E0A901491B68
:101EE0005109CA0162E040E20E94900580E20E942E
:101EF000F6048091910285FF08C084E30E941E02CF
:101F00000E948C0580E20E94F6048B81873019F0D4
:101F100089818F5F898300E007C0FE01E00FF11D1A
:101F200084810E948C050F5F89810817B0F30E949D
:101F300035051882809169018150809369018091F3
:101F400068018F5F80936801843011F410926801FA
:101F50007698143539F580916A01853019F58BE64C
:101F600091E09DD61FC014E5BDCECE01FBDA8823DB
:101F700011F018E4B7CE8E010E5E1F4FC8016091BC
:101F800089014B896BDB682FCE01A0DBCE016BE4AE
:101F9000C1D9882309F471CE43CE8981843009F0F8
:101FA00054CF79CEDF91CF911F910F910895A1E089
:101FB000B0E0EDEDFFE00C94AC1C8091E1028823D1
:101FC00009F47EC010918B02833009F061C08FE369
:101FD0000E941E02182F863010F400E018C08DE415
:101FE00093E00E94230728988FEF0E94180280E058
:101FF0000E941802082F08C080E00E941802682F73
:102000008DE493E00E9428071150B1F7289A4FDD24
:102010001092E102053709F053C080E593E0BE015C
:102020006F5F7F4F41E00E94D5058130910559F5E2
:10203000998180919702981731F5809154038535E5
:1020400039F00DC08DE493E00E943B070E94F60436
:1020500080914F038823B1F70E94350531C08091EC
:102060004F03845080934F0384E080934E038DE4AC
:1020700093E06AE00E942807E0918802F0918902CB
:1020800088E009951DC08DE493E00E94230718C0E5
:10209000823049F480919602181B183088F007DDD1
:1020A0001092E1020DC0813059F487E390E00E9464
:1020B00008030E94820282E08093E102109396025C
:1020C0002196E4E00C94C81C5B980C94E7045B9A9E
:1020D0000C94E704A7E0B0E0E0E7F0E10C94A81C62
:1020E0009091A002943559F42091E4023091E502D8
:1020F0002F5F3F4F3093E5022093E4023EC09634B9
:1021000059F42091E2023091E3022F5F3F4F309368
:10211000E3022093E20231C0953459F420919402F5
:10212000309195022F5F3F4F309395022093940298
:1021300024C09B3459F42091E7023091E8022F5FCC
:102140003F4F3093E8022093E70217C0983459F4C8
:102150002091E9023091EA022F5F3F4F3093EA026B
:102160002093E9020AC020919202309193022F5FDE
:102170003F4F309393022093920295E799838823EF
:1021800011F411E011C08091EB02BE016E5F7F4F30
:102190000E940A0680919702BE016C5F7F4F0E94E9
:1021A0000A0685E58E8316E00E9457030E948E0280
:1021B00000E080E891E08BDF80E093E085DF0F5F57
:1021C0000630B9F780E093E082DF80E891E07CDFC1
:1021D00080E891E07CDF5B9887E390E00E94080351
:1021E00083E00E94EC0428988FE70E9418028091F7
:1021F0009A02810F0E9418026E010894C11CD11C22
:102200007601F70181917F010E9418028E2D8C19B1
:102210008117B8F306C088E992E00E943B070E944C
:10222000180280919A028823B1F7289A0E948E02A0
:1022300014E104C0115081E00E94EC048AE30E9482
:102240001E0290E08F779070009711F0112391F7A4
:102250002EDC2796E8E00C94C41CA7DB882361F0F1
:1022600083E08093E6028091DB029091DC0201968C
:102270009093DC028093DB028091E6028150809390
:10228000E6028823A1F080918B0290918C02A091AC
:102290008D02B0918E020396A11DB11D8093DD02C7
:1022A0009093DE02A093DF02B093E002089581E0F4
:1022B00011CFCF93DF93EC018981882349F480917A
:1022C00097020E948C058091EB020E948C0560C0F1
:1022D000843689F480918B0290918C0264E040E313
:1022E0000E9452058EE20E94F6048091DD029091D8
:1022F000DE0264E04AC0833709F04DC08091E402F9
:102300009091E50261E040E30E9452058EE20E9456
:10231000F6048091E2029091E30261E040E30E94C2
:1023200052058EE20E94F6048091940290919502EB
:1023300061E040E30E9452058EE20E94F604809123
:10234000E7029091E80261E040E30E9452058EE2CC
:102350000E94F6048091E9029091EA0261E040E374
:102360000E9452058EE20E94F604809192029091A2
:10237000930261E040E30E9452058EE20E94F6045F
:102380008091DB029091DC0261E040E30E94520503
:102390000E9435052CC08936D9F4CE01029667E932
:1023A00072E041E00E94D50580E690E060919702DE
:1023B0000E946206CE0104966BEE72E041E00E943C
:1023C000D50581E690E06091EB020E9462060FC0A5
:1023D00088E992E00E94230704C088E992E00E9405
:1023E0002807219668816623C1F780E073DEDF91BC
:1023F000CF91089580E690E00E9425068093970291
:1024000081E690E00E9425068093EB02882321F06C
:1024100081E2809391024BCB0895CF92DF92FF929D
:102420000F931F93DF93CF93CDB7DEB7C058D04043
:102430000FB6F894DEBF0FBECDBF80918B0188230D
:1024400009F4AEC04A9B99C08FE30E941E028F77A9
:102450008983803410F08FE3898328988FEF0E945E
:10246000180200E022E0C22ED12CCC0EDD1E08C0E6
:1024700080E00E941802F601E00FF11D80830F5FDB
:1024800019810117A8F380E00E941802F82E289AFB
:102490008AE30E943A0286E30E943A028DE30E9498
:1024A0003A0284E30E943A02FE01EF5BFF4F108381
:1024B0008A8196E78927DE01AE5BBF4F8C9332E0BD
:1024C0008F01AE014F5F5F4F0FC0F801E80FF91F9A
:1024D000DE01A80FB91F2C912452840F951FDC0137
:1024E0008C91282720833F5FF8012081832F90E083
:1024F000321758F3E80FF91F840F951FDC018C91F8
:10250000DE01AD5BBF4F9C91892780838091910252
:1025100084FF15C081E60E94F604F801108100E0F6
:1025200091E4C92ED12CCC0EDD1EF601E00FF11D79
:1025300080810E94F6040F5F1017B8F731C081E464
:102540000E94F604D8011C9100E081E4C82ED12C31
:10255000CC0EDD1EF601E00FF11D80810E948C057E
:102560000F5F1017B8F78091910285FF03C08F2D80
:102570000E948C050E94350513C085E30E941E024F
:10258000813011F0813161F48AE30E943A0286E3DE
:102590000E943A028DE30E943A0284E30E943A02CA
:1025A000C058DF4F0FB6F894DEBF0FBECDBFCF913E
:1025B000DF911F910F91FF90DF90CF900895CF93FF
:1025C000DF93EA98209A289A8EE190E00E94E7042F
:1025D00028988EE190E00E94E704289A8DE290E02E
:1025E0000E94E70480E30E943A0284E690E00E94A1
:1025F000E704C2E5D2E0FE018491813448F43196CB
:1026000064910E942C022296F2E0C438DF0799F709
:1026100083E30E943A0281E00E94EC04DF91CF91B3
:102620000895A0E8B0E0E7E1F3E10C94A91C8E0165
:102630000F5B1F4F0196B8014FE30E94D505D82EBE
:1026400090E00197F801208130E08217930709F0AC
:1026500067C080918B01882321F4B1DF83E00E9461
:10266000EC0486E30E943A028AE30E943A028BE37A
:102670000E943A02DE01AF5BBF4F2C912983FE011D
:10268000EE5BFF4F808196E789278A83FE013296B1
:10269000129692E007C0808184523D918327818306
:1026A0009F5F31969217B8F3892F90E07E010894CE
:1026B000E11CF11CD701A80FB91FFE01EF5BFF4F12
:1026C000E80FF91F8081FE01ED5BFF4F90818927A4
:1026D0008C9328988FE70E941802870105C0F801A3
:1026E00081918F010E941802802F8E198D15B8F3E9
:1026F000289A8AE30E943A0285E30E943A0203C0C4
:1027000085E00E94EC0485E30E941E028130C1F73F
:1027100080918B01882319F00E94820201C0C7D9E1
:10272000C058DF4FE7E00C94C51CFC019C012F5FF3
:102730003F4F9181923729F442DF81E080938B01F2
:102740000895933711F4C9016CCF10928B0108954D
:10275000DC01E4E9F1E00EC0109751F021819C9179
:10276000291731F4228111969C911197291769F04C
:10277000E80FF11D8081882321F092E0E234F9070F
:1027800058F3109711F0E0E0F0E0CF010895A6E0D3
:10279000B0E0EDECF3E10C94AE1C8091EC02898387
:1027A000809107038A839091F202913009F044C02E
:1027B0001B829CE29C839091F002923080F09D837A
:1027C00092509093F0028DE790E09093F402809302
:1027D000F302CE01019665E04CE021E02AC0913081
:1027E00049F41092F0028AEF90E09093F402809303
:1027F000F30262C01092F20296E29C831D8290E086
:10280000877090702DE730E0AC01429FC001439F7C
:10281000900D529F900D1124825B9F48959587954E
:102820009093F4028093F302CE01019665E04CE0B0
:1028300022E00E94CC0840C090E0877090702DE7A5
:1028400030E0AC01429FC001439F900D529F900D1C
:102850001124825B9F48959587959093F40280930D
:10286000F3022091F102822F482F50E0FA01EE0F7F
:10287000FF1FEB50FD4F90819F3F71F09C838B8336
:1028800081818D83CE01019665E04CE022E00E94BB
:10289000CC088091F10208C0CA01019669E070E09D
:1028A0000E948B1C821701F790E0019669E070E0AE
:1028B0000E948B1C8093F1022696E2E00C94CA1CC5
:1028C000CF93DF9386E30E943A0280918F01833594
:1028D00011F08BE401C08BE90E94EC048DE891E0DB
:1028E00065E04CE021E00E94CC080E9482028091C9
:1028F000910286FF15C084E50E94F604CDE8D1E080
:1029000089910E948C0581E0C239D807C9F780916E
:10291000910285FF03C08AEF0E948C050E94350555
:10292000DF91CF910895CCDF80918F01893641F0FE
:1029300081E08093ED0299E29093080380939301E4
:10294000089580919301882369F0BADF81E0809334
:10295000ED0289E280930803809193018150809376
:10296000930108951092EF0210928C0183E08093FE
:102970004202089585E390E00E9425068093EC02D0
:1029800086E390E00E94250680930703E5EFF2E0DE
:102990008FEF819393E0E730F907D9F71092EF02B8
:1029A00010928C0183E0809342021092940108956A
:1029B0006F927F928F929F92BF92CF92DF92EF920F
:1029C000FF920F931F93DF93CF93CDB7DEB7289776
:1029D0000FB6F894DEBF0FBECDBF4C017C0108944A
:1029E000E11CF11CC701BE016F5F7F4F45E00E94F3
:1029F000D5059981843008F0A3C09130A9F48330C3
:102A000061F485E390E06A810E94620686E390E0CB
:102A10006B810E946206AEDF12C18091EC020E94BF
:102A20008C058091070387C0923009F03FC08091E8
:102A30009401882321F48CE992E00E94390504E98D
:102A400011E02AC081E00439180719F080E20E94E1
:102A5000F604F80181810E948C05F80182810E94B0
:102A60008C058AE30E94F60473E0E72E0FC0F3E0C2
:102A7000FE1528F4E0FE03C08CE20E94F604F80183
:102A8000EE0DF11DE39480810E948C05F801808198
:102A9000E81668F3080F111DF8018081882309F4F6
:102AA0004CC0F2E002341F0768F247C0933051F483
:102AB00080E090E04DDE24E931E0922F9255981BA2
:102AC000892F39C0903169F508E010E0E02EFF242D
:102AD000EE0CFF1CF701EB50FD4FC0808FEFC816C6
:102AE000A9F0112319F080E20E94F604802F0E94C1
:102AF0008C058AE30E94F6048C2D0E948C05F70158
:102B0000EB50FD4F81810E948C051F5F002311F067
:102B10000150DCCF112389F488E992E00E94390545
:102B20000CC0913151F48091F3029091F4026DE761
:102B300070E0DDD6862F0E948C050E9435057FC08F
:102B40008091EC02981761F59A818091070398179C
:102B500039F58C818F3231F4C4016CE042E00E947F
:102B600041096DC08C3269F481E08093F20283EFF9
:102B70008093F00281E090E09093F4028093F3025E
:102B80005EC0EB81E93008F0E0E0E093F102F0E0B4
:102B9000EE0FFF1FEB50FD4F80838D8181834FC06F
:102BA00080E090E0D5DD8C01F70101900020E9F78D
:102BB0003197EE19FF09F695E795BE2EB3948B0D6C
:102BC000911D845991408F3A9105ACF5F801B0827E
:102BD0007801CC24DD2421E031E022C037010894C3
:102BE000611C711CC401830F911DB30141E0288752
:102BF0003F830E94D50528853F81233058F0C601C8
:102C0000019680FD07C0F7018081843619F4818127
:102C10008093EE023E5F2F5F0894C11CD11C7301AC
:102C20002B15E0F2F2E002341F0748F4020F111DE9
:102C3000F801108204C082E992E00E9439052896CA
:102C40000FB6F894DEBF0FBECDBFCF91DF911F91BD
:102C50000F91FF90EF90DF90CF90BF909F908F905B
:102C60007F906F9008958DE891E072DD0097A9F054
:102C7000E0914202DC012C91E21778F49C012E0FC6
:102C8000311DF901808180938F0189E78093900144
:102C900081818093910181E0089580E008951F93E0
:102CA000FC01408131811281838194811092ED0277
:102CB0002091EC02222329F450910703552309F4B3
:102CC000B6C050918D01541721F450918E015317C5
:102CD00059F01092EF0210928C0153E0509342028F
:102CE00040938D0130938E013091EF023F3F09F404
:102CF0009EC010938F0180939001909391011123B6
:102D0000E1F03323D1F4921761F0943651F0912F12
:102D10009355923010F01D3739F48FEF8093EF0206
:102D200086C0143509F483C0982F907F903609F03F
:102D30007EC080678093900179C095DF882329F455
:102D40008091EF02882309F472C080918C0188235E
:102D500011F0982F06C0E091EF02F0E0EC57FD4F24
:102D60009491933541F4143531F49091EF029E5FC4
:102D70009093EF020AC0911741F01092EF02109267
:102D80008C0183E08093420252C0882369F08091D5
:102D900042028E5F8093420266DF882371F4809145
:102DA000EF028E5F8093EF028091EF02E82FF0E058
:102DB000EB57FD4F14911F3F59F480918F01809381
:102DC0008C01843699F58091EE02809391012EC09A
:102DD00010938F0197E7909390019091EC0290935C
:102DE00091018E5F8093EF0210928C018E30E1F49E
:102DF0008DE891E0ADDCFC01009779F0A081B0E0B6
:102E000082E492E08A1B9B0BAE0FBF1F02C02D9184
:102E10002193E817F907D8F310821092EF0210926D
:102E20008C0183E080934202112309F07CDD1F9125
:102E30000895A0E4B0E0EEE1F7E18AC580910903CE
:102E4000882309F449C08130B1F490914302809104
:102E50008B02981709F440C085E30E941E0281315D
:102E600029F48AE30E943A020E94820280918B0236
:102E70008093430231C08FE30E941E02F82E8FE33D
:102E80008F1538F128988FEF0E9418028E010F5F7E
:102E90001F4F6801E02E06C080E00E941802F60174
:102EA00081936F018C2D8E198F15B0F3289A81E0D4
:102EB0008093120105C0F80181918F010E94F604F0
:102EC000802F8E198F15B8F30E9435058FEF8093F0
:102ED000120181E080930903C05CDF4FE8E054C534
:102EE000EF92FF920F931F93CF93DF93EC01FC01BE
:102EF00001900020E9F73197E81BF90B89818237AF
:102F000051F487E390E00E9408030E94820281E06E
:102F10008093090329C0833729F50E2F28988FE75E
:102F20000E941802802F82500E94180212E004C0F2
:102F300089810E9418021F5F21961017C8F3289AF2
:102F40000E948E0204C084E690E00E94E7048AE3B7
:102F50000E941E0290E08F7790700097A1F70E9468
:102F6000820202C010920903CDB7DEB7E6E00EC5BB
:102F70000F931F93CF93DF93EC0110E0212F30E0EC
:102F8000C901880F991F820F931FFC01E455FF4F61
:102F9000049183559F4FFC0125913491002399F0B2
:102FA000209739F480E20E94F604802F0E94F604F4
:102FB00008C08881801729F4CE01F901099581E0C4
:102FC00003C01F5FDBCF80E0DF91CF911F910F9196
:102FD00008951F93109112018093120135C08DE462
:102FE00093E00E943B078A3011F08D3009F5E091A3
:102FF0004402EE2349F1F0E0EB5BFD4F108285E4E3
:1030000092E0B6DF882389F488EB92E00E943905CC
:1030100085E492E00E94460580EA92E00E9439052C
:1030200080E090E0A5DF0E943505109244020CC0BC
:1030300090914402903440F4E92FF0E0EB5BFD4FB7
:1030400080839F5F9093440280914F03882339F6D9
:10305000109312011F910895E4E6F0E080818B7FC8
:103060008083299A84B1876084B9239880E58CBDD8
:103070008DB581608DBD089580919D0390919E03D3
:10308000009721F480910A0190910B0120910C018D
:1030900030910D012115310541F42DB73EB7409116
:1030A000080150910901241B350B8217930718F072
:1030B00020E030E002C0281B390BC901089582E4EA
:1030C0000E94F60480919D0390919E0365E040E28A
:1030D0000E9490050E94350583E50E94F6048091C8
:1030E0000A0190910B0165E040E20E9490050E9468
:1030F000350585E40E94F60480910C0190910D0144
:1031000065E040E20E9490050E94350586E40E9439
:10311000F604B2DF65E040E20E9490050C943505AC
:10312000A2E0B0E0E5E9F8E119C4E5E9F3E0809157
:10313000F100819383E0ED39F807C9F79091950389
:1031400080919603853009F4A1C0863048F481301F
:1031500009F44AC0813070F0833009F025C144C0C1
:10316000883009F4D9C0893009F4FEC0863009F0EE
:103170001BC1B6C0903821F0923809F015C108C0C3
:103180008091900390919103992389F082600FC000
:10319000809199038093E9008091EB0090E025E015
:1031A000969587952A95E1F781701092E9009091A4
:1031B000E800977F9093E8008093F1001092F1006F
:1031C0008091E800982F9E7F9093E8008F778093FE
:1031D000E80005C080919403882309F4E7C080913A
:1031E000E80082FFF7CFB6C0992319F0923009F0BA
:1031F000DBC0292F30E02F7130702115310521F00F
:1032000022303105B9F50CC090919703913009F047
:10321000CDC010929103833069F5909391032AC039
:1032200090919703992331F590919903977009F440
:10323000BDC09093E9002091EB0020FF1BC08130BE
:10324000A1F48091EB0080618093EB0021E030E0FD
:1032500002C0220F331F9A95E2F72093EA001092E2
:10326000EA008091EB00886003C08091EB008062EF
:103270008093EB001092E9008091E800877F8093B3
:10328000E8008091E800982F9E7F68C0992309F09C
:103290008BC0209197038091E800877F8093E8009E
:1032A0009091E800892F8E7F8093E8009F7790931C
:1032B000E80005C080919403882309F477C08091C9
:1032C000E80080FFF7CF822F8F77982F9068909338
:1032D000E300882309F46AC083E08093940366C006
:1032E0009058923008F060C08091970390919803B5
:1032F00060919903AE014F5F5F4F0E94D901BC01FD
:10330000009709F453C08091E800877F8093E8001C
:1033100089819A812AD11EC0903809F045C08091D8
:10332000E800877F8093E800809192038093F1000A
:103330008091E800982F9E7F9093E8008F7780938C
:10334000E80004C080919403882381F18091E80013
:1033500082FFF8CF8091E800982F9B7F9093E80040
:103360008F778093E80022C09923F1F4809197032E
:103370008230E0F49091E800977F9093E80080938A
:1033800092039091E800292F2E7F2093E8009F77E9
:103390009093E800882311F084E001C083E08093DB
:1033A00094030E94220402C00E94E4038091E8007A
:1033B00083FF0AC08091EB0080628093EB008091D4
:1033C000E800877F8093E8002296E2E0E3C28093E2
:1033D000E9008091EB0081608093EB001092ED009A
:1033E0006093EC004093ED008091EE00881F8827E9
:1033F000881F08951092F40080E08093E9001092F5
:10340000F0001092E8009091ED009D7F9093ED0008
:103410009091EB009E7F9093EB008F5F873069F770
:103420000895809195038823BCF404C0809194038F
:103430008823F9F08091E80082FFF8CF8091E800BE
:10344000982F9B7F9093E8008F778093E8000895F2
:1034500080919403882369F08091E80080FFF8CF81
:103460008091E800982F9E7F9093E8008F7780935B
:10347000E800089584E69091EC0090FF05C09091DB
:10348000E80090FF05C01FC09091E80092FD1BC0AE
:1034900090919403992311F482E008959091EB00A8
:1034A00095FF02C081E008959091E10092FFE3CF83
:1034B0009091E1009B7F9093E100882311F483E0D9
:1034C00008958150D8CF80E00895FC0120919B039E
:1034D00030919C03862F972F2817390708F4C901CC
:1034E00020E032C03091E80033FF02C081E008954F
:1034F0003091E80032FD31C030919403332399F1CB
:103500003091E80030FF20C004C021912093F100E9
:103510000197009739F02091F2003091F3002830A4
:10352000310598F34091F2005091F30020E04830CB
:10353000510509F421E03091E800432F4E7F40937C
:10354000E8003F773093E800009761F6222351F6B8
:1035500004C080919403882331F08091E80082FFB9
:10356000F8CF80E0089582E00895482F592F2091E8
:103570009B0330919C03862F972F2817390708F457
:10358000C90120E035C03091E80033FF02C081E07E
:1035900008953091E80032FD34C030919403332314
:1035A000B1F13091E80030FF23C007C0FA014F5F4E
:1035B0005F4F24912093F1000197009739F02091FB
:1035C000F2003091F3002830310580F36091F20071
:1035D0007091F30020E06830710509F421E030912A
:1035E000E800632F6E7F6093E8003F773093E80038
:1035F000009749F6222339F604C08091940388236A
:1036000031F08091E80082FFF8CF80E0089582E0F9
:103610000895FC0124C08091E80083FF02C081E08E
:10362000089580919403882341F18091E80082FFFE
:10363000F2CF06C08091F10081936150704031F06B
:103640008091F2009091F3000097A1F78091E8003B
:10365000982F9B7F9093E8008F778093E800611507
:103660007105C9F604C080919403882331F08091DC
:10367000E80080FFF8CF80E0089582E0089567D0E9
:103680006ED01092940310929203109291031092B4
:1036900090038AE482BF19BC89B5826089BD09B4F0
:1036A00000FEFDCF8091D800982F9F779093D8008F
:1036B00080688093D8008091D70081608093D70084
:1036C0008091D8008F7D8093D8008091E0008B7F1F
:1036D0008093E0008091E0008E7F8093E0008091F5
:1036E000E1008E7F8093E1008091E2008160809311
:1036F000E2008091E100877F8093E1008091E20009
:1037000088608093E2008091D80081608093D80027
:103710000895B5DFE0EEF0E0808181608083E8ED20
:10372000F0E080818F77808319BC80818F7E8083D9
:10373000109293030895A3DFE8EDF0E080818061AB
:10374000808381E080939303789408950895E8ED51
:10375000F0E080818E7F80831092E20008951092C5
:10376000DA001092E10008951F920F920FB60F92A7
:1037700011242F933F934F935F936F937F938F9376
:103780009F93AF93BF93EF93FF938091DA0080FFF5
:1037900015C08091D80080FF11C08091DA008E7F23
:1037A0008093DA008091D90080FF05C081E080938A
:1037B0009403CCDF03C010929403C8DF8091E10032
:1037C00080FF1DC08091E20080FF19C08091E10060
:1037D0008E7F8093E1008091E2008E7F8093E200F3
:1037E0008091E20080618093E2008091D800806245
:1037F0008093D80019BC85E080939403A7DF809163
:10380000E10084FF29C08091E20084FF25C019BC3B
:1038100089B5826089BD09B400FEFDCF8091D800D2
:103820008F7D8093D8008091E1008F7E8093E100AE
:103830008091E2008F7E8093E2008091E2008160BF
:103840008093E20080919203882311F483E001C009
:1038500084E0809394037ADF8091E10083FF23C0AA
:103860008091E20083FF1FC08091E100877F8093F9
:10387000E10082E080939403109292038091E10032
:103880008E7F8093E1008091E2008E7F8093E20042
:103890008091E20080618093E200ACDD80E060E036
:1038A00042E095DD53DFFF91EF91BF91AF919F9182
:1038B0008F917F916F915F914F913F912F910F90D9
:1038C0000FBE0F901F9018951F938091940388232B
:1038D00061F01091E9001092E9008091E80083FF07
:1038E00001C01EDC17701093E9001F910895AA1BF8
:1038F000BB1B51E107C0AA1FBB1FA617B70710F0DB
:10390000A61BB70B881F991F5A95A9F7809590950C
:10391000BC01CD01089597FB092E07260AD077FD3B
:1039200004D0E5DF06D000201AF4709561957F4F32
:103930000895F6F7909581959F4F08952F923F92A5
:103940004F925F926F927F928F929F92AF92BF92AF
:10395000CF92DF92EF92FF920F931F93CF93DF935B
:10396000CDB7DEB7CA1BDB0B0FB6F894DEBF0FBEB8
:10397000CDBF09942A88398848885F846E847D8405
:103980008C849B84AA84B984C884DF80EE80FD8007
:103990000C811B81AA81B981CE0FD11D0FB6F8947D
:1039A000DEBF0FBECDBFED010895F999FECF92BDE8
:1039B00081BDF89A992780B50895262FF999FECFF1
:1039C0001FBA92BD81BD20BD0FB6F894FA9AF99A3C
:0A39D0000FBE01960895F894FFCF92
:0E39DA0080250000000008022000A10300006C
:00000001FF
