:1000000008C1000022C1000020C100001EC1000084
:100010001CC100000C94590C18C1000016C100004E
:1000200014C1000012C1000010C100000C945A1449
:100030000CC100000AC1000008C100000C94FC0BB8
:1000400004C1000002C1000000C1000071C3000033
:10005000FCC00000FAC00000F8C00000F6C00000BC
:10006000F4C00000F2C00000F0C00000EEC00000CC
:10007000ECC0000042A705430D02468D07698E0FB4
:1000800041CF0E521F0554A6105606065753055869
:10009000D70865CE056C960574C60378B8020000D3
:1000A000002A03430055004C0034003300330000A5
:1000B000002A03430055004C005F0048004D00003B
:1000C000001603620075007300770061007200651E
:1000D000002E0064006500000004030904090243C7
:1000E0000002010080320904000001020201000543
:1000F000240001100524010301042402060524063E
:100100000001070582030800FF09040100020A003C
:1001100000000705040240000007058302400000BC
:100120001201100102000008EB034B200000010245
:1001300000010D2E2D07D3913D0432000006002151
:10014000656A55E43023B900070018146C07009065
:10015000876BF85611E92A001F410027675081C2BA
:10016000203D2000202F2000203D2000202F2000B7
:100170005620312E34392043554C34333300562029
:10018000312E34392043554C5F484D004C4F564674
:100190000D0A00424F56460D0A000007022E030DBD
:1001A00004E905CA070C0B060D210E650F6A10C87D
:1001B0001193120315341730181819161B432156C2
:1001C000250026112D353EC3FF0000000D2E2D0702
:1001D000D3913D04320000060010B07155E4302385
:1001E000B900070018146C070090876BF85611E9E6
:1001F0002A001F41003F20280020697320756E6B84
:100200006E6F776E2920557365206F6E65206F665F
:10021000000011241FBECFEFD2E0DEBFCDBF11E042
:10022000A0E0B1E0E2E0FBE202C005900D92A63151
:10023000B107D9F712E0A6E1B1E001C01D92AE34DA
:10024000B107E1F70CD00C947F15DACEF89481E079
:1002500085BF82E085BFE0E0F8E1099508952FE0D1
:1002600088E190E00FB6F894A895809360000FBEE7
:100270002093600090E080E80FB6F89480936100CE
:10028000909361000FBE2E9A2D9A04B603FE0AC009
:1002900083E390E0D1D3882329F083E390E060E00A
:1002A000C6D3D4DF89EF87BD84E085BD82E084BDFD
:1002B00080936E00109280008AE08093810084B762
:1002C000877F84BF3C9A0E944A118DD40E944D14AE
:1002D0000E94991052D788E091E19093AF018093EA
:1002E000AE0181E08093190144980E94F01463D11B
:1002F0000E94E30958D20E94A50DF7CF292F33277A
:100300002230310539F02330310549F021303105F3
:1003100041F522C023E430E08DED90E026C09070DE
:100320008130910551F08130910520F082309105A6
:10033000C1F407C089ED90E002C081EC90E0FC01BF
:1003400008C0E1EBF0E01E9903C081EA90E001C033
:10035000CF01249130E009C022E130E080E291E059
:1003600004C020E030E080E090E0FA0191838083D7
:10037000C90108958EBD0DB407FEFDCF8EB5089559
:100380001F93CF93DF938A3018F4853018F001C0A3
:1003900088E085502BE230E0E82FF0E0E55AFE4F90
:1003A000149101C09E01E9012196CD3211F4612F13
:1003B00001C060E0C9013BD3C333D10599F7DF9198
:1003C000CF911F910895CF93DF9382E090E001C019
:1003D000CE01EC012196FC01E05DFE4F649127D334
:1003E000CB32D105A9F71E990CC08FE090E060E1F7
:1003F0001ED380E190E060EB1AD381E190E061E7E9
:1004000016D388E0BDDFDF91CF9108954598806CC9
:10041000B1DF80E0AFDF459A0895A1E0B0E0E3E10D
:10042000F2E00C9440150196BE016F5F7F4F41E0F2
:10043000B0D2009749F18981893991F400E010E048
:10044000802FE4DFA2D2C8018770907087309105B9
:1004500009F415D20F5F1F4F0033110589F714C03F
:10046000D5DF082F83E4DBD189818FD280E691E04C
:10047000F9D1802F8AD284E691E0F4D1802F90E0E8
:1004800062E040E200D2FBD12196E4E00C945C15DE
:10049000A1E0B0E0EEE4F2E00C94421545988064EF
:1004A000698368DF6981862F65DF459A2196E2E0DE
:1004B0000C945E1545985EDF459A0895CF93CFEF73
:1004C00084E3F8DF8AE090E09AD1C150C9F7EC9A52
:1004D000CF910895CF93EC9886E3ECDFCFEF85E3DF
:1004E000E9DF8AE090E08BD1C150C9F7CF91089540
:1004F000FF920F931F93CF93DF938C01EC983D9A5B
:10050000459A8EE190E07BD145988EE190E077D1DD
:10051000459A8DE290E073D180E3CCDF84E690E0F1
:100520006ED1459880E426DF89E2F82E01C08E0165
:10053000E8012196C80180D21DDFFA94C1F7459ADF
:1005400045988EE717DF8BE290E001C0CE01EC0109
:10055000219672D20FDFC333D105C1F7459A83E3E9
:10056000A9DF81E051D1CDB7DEB7E5E00C945B1592
:10057000A1E0B0E0EEEBF2E00C94421522E029831A
:100580000196BE016F5F7F4F41E003D28981F8DEA3
:1005900082E090E0ADDF2196E2E00C945E1586E308
:1005A00089DF1092B001089582E090E0A1DF81E040
:1005B0008093B001089580914502843009F061C0B4
:1005C0008093E90080911601882341F58091E8002D
:1005D00085FD06C023C06091F1008EEF91E01FD32E
:1005E0008091F2008823B9F78091E800982F9B7FD3
:1005F0009093E8008F778093E80081E08093160164
:100600008BED92E09093AD018093AC01E091AE014F
:10061000F091AF0181E009951092160183E080937B
:10062000E9008091BD01882361F18091E80085FF98
:1006300028C0F89405C08BEB91E004D38093F100BF
:100640008091BD01882321F08091F200803498F3DD
:1006500078949091F2008091E800282F2E7F2093CB
:10066000E8008F778093E800903459F40E94FB12E1
:100670008091E800982F9E7F9093E8008F77809379
:10068000E800089582E061EC42E00E94AC1283E051
:1006900061E842E30E94AC1284E060E842E30E9419
:1006A000AC121092000110920101109202011092FE
:1006B000030108958091460290914702913229F0FA
:1006C000923261F1903299F512C0813A81F58091B0
:1006D000E800877F8093E80080E091E067E070E0C9
:1006E0000E9424138091E800982F9B7F11C08132D3
:1006F000F1F48091E800877F8093E80080E091E04A
:1007000067E070E00E94C3138091E800982F9E7FFD
:100710009093E8008F778093E8000895813239F450
:100720008091E800877F8093E8000C94D6120895AA
:100730001F920F920FB60F9211248F939F93AF9336
:10074000BF938091B2019091B301A091B401B09197
:10075000B5010196A11DB11D8093B2019093B30123
:10076000A093B401B093B5018091B1018F5F8093E4
:10077000B1018D3710F01092B101BF91AF919F91EF
:100780008F910F900FBE0F901F9018958091B5011B
:10079000FCD08091B401F9D08091B301F6D0809162
:1007A000B201F3D06CC08091B2019091170189170A
:1007B00029F180931701A8958091B1018823F1F464
:1007C0008091070181FF04C088B190E1892788B931
:1007D0008091B6019091B70123E08438920728F404
:1007E00001969093B7018093B601809118018F5FB5
:1007F000809318018C3311F4109218010895880F1A
:10080000991F0197F1F70895CF93C82F04C088EE80
:1008100093E0F5DFC150CC23D1F7CF910895CF936A
:10082000C82F80914502843081F48091190180FFA6
:100830000CC08091BD01803408F0BDDE8BEB91E0EF
:100840006C2FEDD1CA3009F4B6DECF910895CF9365
:10085000DF93EC0101C0E3DF89918823E1F7DF91A9
:10086000CF910895CF93DF93EC0102C0D8DF21969A
:10087000FE0184918823D1F7DF91CF9108958DE017
:10088000CEDF8AE0CCCFA6E0B0E0E9E4F4E00C945F
:100890004015262F342F1E82FE01369645E00AE0D1
:1008A00010E04150B8010E941E15805D8293CB017B
:1008B0002150009769F4842FA0E0B0E0642F7727DF
:1008C00067FD7095AE014F5F5F4F460F571F08C021
:1008D000442339F7F0CF8150FA01EA0FFB1F308330
:1008E000215027FD03C011978823A9F7992787FD79
:1008F000909521E030E02C0F3D1F820F931FA7DF62
:100900002696E4E00C945C15A5E0B0E0EAE8F4E09B
:100910000C9442151D82FE01359654E0282F2F704D
:1009200051502A3010F4205D01C0295C229324E04C
:10093000969587952A95E1F76150009779F7E0E061
:10094000F0E0A52FBB27A7FDB0959E012F5F3F4F7D
:100950002A0F3B1F05C05150D901AE0FBF1F4C934A
:10096000615067FD03C031971516ACF3852F9927A9
:1009700087FD909521E030E02C0F3D1F820F931FE3
:1009800066DF2596E2E00C945E1590E062E040E3BD
:10099000BBCFFC01CB012CC0A32FA053AA3018F46D
:1009A0002A2BA1E001C0A0E0B32FB154B63020F44F
:1009B000A32FA7532A2BA1E0B32FB156B63018F4BA
:1009C0003755232B07C0AA2329F4303299F03A3344
:1009D000A1F410C0552341F0DC012D93CD0141500D
:1009E00039F4861B970B08952295207F51E002C0B1
:1009F00050E020E03191332379F6861B970B089560
:100A0000FC01DB0180E090E00BC0322F30533A3024
:100A100038F46AE070E00E940C15C097820F911DB7
:100A20002191222391F711969C938E9308950E9411
:100A30007115F999FECF08950C9469150895A2E0F7
:100A4000B0E0E5E2F5E00C943F151B8219820196B7
:100A5000BE016F5F7F4F42E09CDF0981823039F435
:100A6000902F80E00A8110E0082B192B01C010E0C4
:100A7000C801E2DFF82E82E5D2DEC80164E040E37F
:100A800043DF88E691E0EEDE8F2D7FDF8CE691E09C
:100A9000E9DE8F2D90E062E040E2F5DEF0DE2296A6
:100AA000E5E00C945B15A6E0B0E0E9E5F5E00C9418
:100AB0003C156C010196BE016F5F7F4F43E069DF1B
:100AC000823080F1E980823011F4FF2406C03E2D8F
:100AD00020E0EA80FF24E22AF32A082F10E0FE013A
:100AE000E00FF11FC7016081A2DF000F111F0F5F30
:100AF0001F4F0C0D1D1D12C0C801BE016F5F7F4F3F
:100B000041E047DF009771F0C701019622E030E035
:100B1000E20EF31E69818BDF0E5F1F4FF8018081AB
:100B2000882351F72696E8E00C945815019667E063
:100B300071E041E02EDF8091070180FF02C0449AFE
:100B400001C0449884E390E06091070170CFA1E078
:100B5000B0E0EDEAF5E00C9442151982009731F00F
:100B60000196BE016F5F7F4F41E013DF89818823CB
:100B700021F083E390E061E05ADF0E943E1410927E
:100B80006E00F89428E088E190E00FB6F894A895FC
:100B9000809360000FBE20936000FFCFCF93DF9360
:100BA000EC0180E090E061E042DF81E090E061E311
:100BB0003EDF09DC80E690E060E039DF81E690E02E
:100BC00060E035DF83E390E060E031DF84E390E0D4
:100BD00062E02DDF8981883719F080E090E0B7DF8F
:100BE000DF91CF91089580E090E026DF813029F4F5
:100BF00081E090E021DF813319F080E090E0CEDFEA
:100C000084E390E019DF8093070108951E9903C0E3
:100C100080E791E002C08EE791E024DE30CEFC0157
:100C20008281803470F48F5F82838081DF01A80F1E
:100C3000B11D13966C9313978F5F8083803409F4F2
:100C400010820895FC018281882379F0815082838B
:100C50009181DF01A90FB11D13968C9113979F5FAE
:100C60009183903419F41182089580E00895DA0197
:100C70009C91882371F0FB01E90FF11D41E050E0E8
:100C8000022E02C0440F551F0A94E2F78081842B84
:100C90008083222319F0822F815009C09F5F9730F3
:100CA00008F49C93690F711DFB01108287E090E0AE
:100CB0000895CF93C82F469A882319F028E532E08B
:100CC00002C020E931E0C9019ADD4698CC2319F031
:100CD00088E592E002C080E991E091DDCF9108952E
:100CE0002F923F924F925F926F927F929F92AF921C
:100CF000BF92CF92DF92EF92FF920F931F93CF9309
:100D0000DF93CDB7DEB728970FB6F894DEBF0FBEDE
:100D1000CDBF6C01F62E842F922E8601060F111D79
:100D2000B6014F2D59D2F8018083F39419821A82AB
:100D3000560127E0EE2441E0642E712C35C007E017
:100D400010E026014E0C511CC301002E02C0880F7A
:100D5000991F0A94E2F7F20190818923BE016E5F28
:100D60007F4FAE014F5F5F4F82DF282F0150104051
:100D7000FFEF0F3F1F0741F7F50181915F01082E3B
:100D800082958025082E86958695802590E001968F
:100D9000959587958170BE016E5F7F4FAE014F5F65
:100DA0005F4F65DF282FE394EF1408F4C8CF2223A8
:100DB00019F0022F015004C089818F5F898307E0F9
:100DC000E9804E2C55242091B6013091B701B20133
:100DD0006E5F7F4F892D0E940315992787FD90959F
:100DE0002817390720F48CE891E03CDD65C0281B0A
:100DF000390B3093B7012093B601449A8091B0012A
:100E0000882309F4D1DB66DB91E0A92EB12C202EDA
:100E10003324CE2CDD24C7FCD09482E090E08C0FEC
:100E20009D1FC80ED91E0CE080E043DF0150E1F7A2
:100E300081E03FDFEE24FF241BC082E0682E712C8E
:100E40006C0E7D1E6E0C7F1CC501002E02C0880F2B
:100E5000991F0A94E2F7F301908189232ADF015058
:100E60001040FFEF0F3F1F0779F70894E11CF11CBA
:100E700007E010E0E414F50404F30DC0C501002EF2
:100E800002C0880F991F0A94E2F7F6019081892326
:100E900010DF015010402016310684F38AE0B4DCE4
:100EA0009A9409F0C0CF8091B801882311F006DB35
:100EB00002C086E3FFDA449828960FB6F894DEBFA6
:100EC0000FBECDBFDF91CF911F910F91FF90EF909B
:100ED000DF90CF90BF90AF909F907F906F905F908A
:100EE0004F903F902F900895A7E0B0E0EAE7F7E039
:100EF0000C944115162F242F0196BE016F5F7F4F72
:100F000045E02F8346DD682FCE010196412F2F81CA
:100F1000E7DE2796E3E00C945D1566E043E0E4CF5E
:100F2000AF92BF92CF92DF92EF92FF920F931F93F7
:100F3000CF938C011092540110924301FC01518116
:100F4000550F550F550F8381581B595F109244015F
:100F500070E040E027E0A7E0B0E080E037E0C32E9B
:100F6000D12CC1E0EC2EF12C81C0F801EB0FF11D6A
:100F7000848190E00A2E02C0959587950A94E2F745
:100F80008170AA2311F0A15002C0BF5FA7E06B34AB
:100F900059F4233049F4772309F039C0882309F044
:100FA00063C01092540128C02F3F91F56634E1F4DC
:100FB000E42FF0E0EC5BFE4F2081022E22952025ED
:100FC000022E26952695202530E02F5F3F4F359540
:100FD00027952170307090E02817390781F07093C1
:100FE0005401409343015DC0653411F06B3439F412
:100FF000882329F4709354014093430153C04F5FF9
:10100000E42FF0E0EC5BFE4F108227E02EC070E092
:10101000882341F1663461F4E42FF0E0EC5BFE4F8D
:10102000C701022E02C0880F991F0A94E2F717C069
:10103000653411F06B34B1F4E42FF0E0EC5BFE4F5B
:10104000822F992787FD90955601A81AB90AC501E4
:10105000570102C0AA0CBB1C8A95E2F7C50190811A
:10106000982B9083215001C071E08C2FC82FCF5F47
:10107000851708F47ACF70935401409343015C17AD
:1010800080F4653411F42F3F21F0809154018823BE
:1010900019F04F5F4093430181E090914301992300
:1010A00009F480E0CF911F910F91FF90EF90DF90B6
:1010B000CF90BF90AF90089510926F00809166011D
:1010C00090E064E170E00E940C15FC01E55EFE4FCB
:1010D00010820895DC011196EC911197F0E050E038
:1010E0002C91CF01841B950B0B9687319105D0F481
:1010F00030E070E0C901861B970B8C30910594F4A9
:10110000AFEF853F9A0774F02E0F3F1F640F751FD6
:10111000261B370B2C3031053CF481E09FEF253F37
:1011200039071CF480E0089580E00895FC012181D6
:101130002C3008F0C1CF662391F0DC01A20FB11D65
:1011400081E090E0038002C0880F991F0A94E2F7C3
:1011500014969C911497982B14969C9314978381C2
:10116000982F91509383882339F487E083832F5FEE
:101170002183E20FF11D148208953E9A46983F980C
:10118000EAE6F0E080818160808382EC91E09093D8
:10119000B7018093B60110922F011092B00108950B
:1011A0008091B801882311F0FFD988C9F8C9FC01E2
:1011B0002181222359F48091B801E7DB8091B601A7
:1011C0009091B70165E040E25EDB59CB019668EB98
:1011D00071E041E0DEDBE4CF06C04150FB01E40FEB
:1011E000F11D9081890F4423C1F708959C0180E08F
:1011F00006C06150F901E60FF11D90818927662331
:10120000C1F70895FC0132812381A081B181A30F30
:10121000B11D8C9190E0022E02C0959587950A949D
:10122000E2F78170922F91509383222321F43F5F44
:10123000328397E0938308958F929F92AF92BF92EB
:10124000CF92DF92EF92FF921F93CF93DF9300D064
:10125000CDB7DEB75C018824992410E021E0E22EAE
:10126000F12CC62EDD240894C108D10820C0C50188
:101270004A836983C7DF4A8169818823A9F04423AF
:1012800059F0C60188199909970102C0220F331F2E
:101290008A95E2F7C90107C0C701082C02C0880F70
:1012A000991F0A94E2F7182B0894811C911C86164A
:1012B000F0F2812F0F900F90DF91CF911F91FF904F
:1012C000EF90DF90CF90BF90AF909F908F90089558
:1012D000A4E0B0E0EEE6F9E00C943D15FC011B82C1
:1012E00087E08C83CF0104969A838983109243010F
:1012F000218130E063E0220F331F6A95E1F74381DB
:1013000087E090E0841B9109280F391F25343105AF
:101310000CF454C0EE242DC00F2D10E0CE01019628
:1013200068E040E089DF0C5B1E4FF8018083D82E17
:101330000D2CD294D0240D2CD694D694D024CE014A
:10134000019660DF2D2D30E02F5F3F4F35952795BB
:101350002170307090E02817390781F5CE01019691
:1013600051DF882359F5F8018081E826F394F09243
:101370004301F0904301F5E0FF1570F6CE010196B0
:1013800068E040E059DFF82E082F002E0295002576
:10139000002E069506950025CE01019633DF202FFD
:1013A00030E02F5F3F4F3595279521703070482FE3
:1013B00050E02417350711F481E0EF1080E0249607
:1013C000E7E00C945915A0E0B0E0E9EEF9E00C94E8
:1013D0003C1580915001882389F18091B80187FFE5
:1013E00015C084E313D88058803458F0803C58F4FA
:1013F00090E08055904033E0959587953A95E1F7D8
:1014000003C080E001C08FE08F5909DA8091B801F4
:1014100083FF12C082E703DA8091B80184FF03C022
:1014200080915101FCD986E6FAD98091B80184FFF8
:1014300003C080915001F3D9109250018091520164
:10144000882309F4D4C1449A8091530190E064E167
:1014500070E00E940C158C01055E1E4FC80166E409
:101460005FDD882359F1C0914301C150C09343010E
:1014700086E064E471E04C2FAFDEEC2FF0E0EC5B33
:10148000FE4FD0818D1719F4C43008F096C1282F73
:1014900030E02F5F3F4F4D2F50E02417350721F4E8
:1014A000C43010F0808389C18CE064E471E04C2F7B
:1014B00093DE8D1719F4C43008F081C1C80165E4CA
:1014C0002FDD882309F47DC18091430181508093F1
:1014D0004301893009F075C184E491E069E086DE5A
:1014E00090914D01891709F06CC185E43DC088E4F5
:1014F0003BC0E0914301E150E0934301409154012E
:101500002E2F30E095E080E013C02150A22FB0E0F4
:10151000AC5BBE4F5C91652F62956F708627960F0E
:10152000442311F0332319F05F708527950F3F5F37
:10153000222359F7980F9295907F982BF0E0E41BA7
:10154000F109EC5BFE4F8081981769F0E8018B810F
:10155000982F9F5F9B83873009F0B6C01B828981DB
:1015600081508983B1C08BE49091B80190FFACC0E9
:1015700091FD59C05091550190914301591771F552
:1015800040E00FC0242F30E0642F6F5FF901EA5A6A
:10159000FE4F2C5B3E4F7081F9012081721719F4C8
:1015A000462F451778F34517C9F44091B201509181
:1015B000B3016091B4017091B501C0906201D09007
:1015C0006301E0906401F09065014C195D096E09BA
:1015D0007F09463251056105710510F0A0E001C098
:1015E000A1E040E00BC0242F30E0F901EA5AFE4FA1
:1015F0002C5B3E4FE901288120834F5F491798F308
:10160000409355014091B2015091B3016091B401F2
:101610007091B5014093620150936301609364013E
:101620007093650101C0A0E08435F1F49091B80198
:1016300096FD1AC0909143019530B0F0909146010B
:101640009B3409F441C0993609F43EC0933509F43E
:101650003BC09435C9F19D37B9F19E37A9F19091FE
:1016600047019077903781F1AA2371F5D8D88091FE
:101670005401882329F080914301815080934301D4
:10168000C0E007C0EC2FF0E0EC5BFE4F80817DD91D
:10169000CF5FE0914301CE17A8F3809154018823D6
:1016A00051F0F0E0EC5BFE4F808190E08F70907025
:1016B00061E040E329D98091B80185FF04C084E34B
:1016C0000E94060262D9DBD88091B80182FF63C014
:1016D00080E7A5D8F801808190E062E040E2D3D8AD
:1016E000E801888990E074E0880F991F7A95E1F706
:1016F00065E040E2C8D8898990E0A4E0880F991F8E
:10170000AA95E1F765E040E2BED88A8990E0B4E0AE
:10171000880F991FBA95E1F765E040E2B4D88B894C
:1017200090E024E0880F991F2A95E1F765E040E2F8
:10173000AAD88A8190E063E040E2A5D8898190E050
:1017400063E040E2A0D82B8187E090E0821B910902
:1017500062E040E298D880E262D88091B80185FFCB
:1017600006C084E30E94060210D980E258D8F8012E
:101770008381873019F081818F5F8183C0E006C04B
:10178000F801EC0FF11D848100D9CF5FF801818150
:10179000C817B0F374D8E8011882809152018150C3
:1017A00080935201809153018F5F80935301823067
:1017B00011F41092530144981AC086E4D5CE84E502
:1017C000D3CEC80185DD882309F091CEC8014296A9
:1017D00060915101F80143897DDC682FC801A6DCC6
:1017E000C8016BE49DDB882309F083CEAFCECDB773
:1017F000DEB7E8E00C9458151F920F920FB60F92C7
:1018000011242F933F934F935F936F937F938F9305
:101810009F93AF93BF93EF93FF9310926F008091CC
:10182000B80183FF03C08EE20E940F04209166017D
:10183000822F90E064E170E00E940C15FC01E55EEF
:10184000FE4F80818330C0F0822F90E064E170E031
:101850000E940C15FC01E55EFE4F8181823060F034
:1018600080915201813051F48091B80182FF04C00F
:1018700083E991E00E9432041FDC0AC08F5F8093ED
:1018800052012F5F20936601223011F410926601FD
:10189000FF91EF91BF91AF919F918F917F916F9148
:1018A0005F914F913F912F910F900FBE0F901F901E
:1018B00018951F920F920FB60F9211240F931F933A
:1018C0002F933F934F935F936F937F938F939F9348
:1018D000AF93BF93CF93DF93EF93FF930091840077
:1018E00010918500E4E016950795EA95E1F780915F
:1018F000660190E064E170E00E940C15EC01C55EA9
:10190000DE4F8881843031F40E3208F4D4C00F34B5
:1019100008F0D0C037990CC0843039F4CE0161E0B2
:1019200005DC109285001092840000935101C3C021
:1019300010915101011B00935001109285001092EB
:1019400084008881843021F4CE0160E0EFDBB3C0F5
:1019500082E086BB8881882389F490915101953675
:1019600008F0A9C080915001853608F0A4C0988B7A
:10197000898B81E08A8382E088839DC0823009F070
:101980004BC0CE014096612F402FA4DB882301F18C
:10199000288930E0C901880F991F820F931F810F9A
:1019A000911D9595879595958795888B298930E028
:1019B000C901880F991F820F931F800F911D959564
:1019C000879595958795898B8A818F5F8A8373C068
:1019D0008A818430F8F080EA9FE0909389008093B8
:1019E00088008A818C3050F02889898990E0820FA4
:1019F000911D8536910514F084E001C083E0888351
:101A00001A8B0B8B198287E08B831C8282E0809378
:101A10006F0051C01882A1CFCE014296612F402F96
:101A200059DB882301F1CE0161E080DB2A8930E0B7
:101A3000C901880F991F820F931F810F911D9595E2
:101A40008795959587958A8B2B8930E0C901880FFA
:101A5000991F820F931F800F911D959587959595DE
:101A600087958B8B28C0CE014096612F402F32DBAB
:101A7000882301F1CE0160E059DB288930E0C901FB
:101A8000880F991F820F931F810F911D9595879540
:101A900095958795888B298930E0C901880F991F12
:101AA000820F931F800F911D95958795959587952A
:101AB000898B01C001DBFF91EF91DF91CF91BF9145
:101AC000AF919F918F917F916F915F914F913F91D6
:101AD0002F911F910F910F900FBE0F901F9018958F
:101AE000CF93DF93EC983D9A459A8EE190E00E9467
:101AF000FF0345988EE190E00E94FF03459A8DE236
:101B000090E00E94FF0380E30E945A0284E690E086
:101B10000E94FF03C0E0D0E0FE01E656FE4F849134
:101B2000813450F4FE01E556FE4F64910E94480254
:101B30002296C233D10581F783E30E945A0281E0E5
:101B40000E940404DF91CF910895ACE3B0E0EAEA8B
:101B5000FDE096C780916701882309F4A5C0379BF3
:101B600090C08FE30E9406028F778F8F8E3110F026
:101B70008DE18F8F45988FEF0E94BA0110E00BC066
:101B800080E00E94BA01E0E2F0E0EC0FFD1FE10FFF
:101B9000F11D80831F5F8F8D181790F380E00E94E6
:101BA000BA01182F459A8AE30E945A0286E30E94DE
:101BB0005A028DE30E945A0284E30E945A028F8DDA
:101BC000898388A196E789278A8332E013C0AEE132
:101BD000B0E0AC0FBD1FA80FB91F2C9124524FE1EC
:101BE00050E04C0F5D1F840F951FDC018C9128275E
:101BF00020833F5F2981832F90E0E1E0F0E0EC0F4C
:101C0000FD1FE80FF91F321710F38C0F9D1FDC0129
:101C10005F968C915F979B81892780838091B80123
:101C200084FF13C081E60E940F0410E00AC0E1E0C7
:101C3000F0E0EC0FFD1FE10FF11D80810E940F0409
:101C40001F5F8981811798F72FC081E40E940F04DC
:101C500000E00AC0E1E0F0E0EC0FFD1FE00FF11D35
:101C600080810E94C5040F5F8981801798F7809159
:101C7000B80185FF03C0812F0E94C5040E943F0464
:101C800013C085E30E940602813011F0813161F4B6
:101C90008AE30E945A0286E30E945A028DE30E9460
:101CA0005A0284E30E945A02EC96E4E005C7ACE3D2
:101CB000B0E0ECE5FEE0E1C60196BE016F5F7F4F4C
:101CC0004DE10E94C904D82E90E00197298130E0AF
:101CD0008217930709F060C080916701882321F47F
:101CE000FFDE83E00E94040486E30E945A028AE336
:101CF0000E945A028BE30E945A0289818F8F9A8137
:101D000026E7922798A3FE01B096DE01139622E003
:101D100006C091913D919452932790832F5F28178D
:101D2000C0F3823008F482E090E02FE1E22EF12C43
:101D3000EC0EFD1EF701E80FF91F8C0F9D1FDC0153
:101D400011968C919B818927808345988FE70E940B
:101D5000BA01870105C0F80181918F010E94BA0183
:101D6000802F8E198D15B8F3459A8AE30E945A0286
:101D700085E30E945A0203C085E00E94040485E3C3
:101D80000E9406028130C1F780916701882319F013
:101D90000E945E0201C004DAEC96E7E08AC6FC010C
:101DA0002181223729F49CDE81E080936701089528
:101DB000233711F401967BCF109267010895282FE5
:101DC00080910D0190910E01469A213059F463E003
:101DD00070E022D60E94FF03469880910D019091F9
:101DE0000E0128C02223E1F40E94FF03469880914F
:101DF0000D0190910E0163E070E00ED60E94FF038A
:101E0000469A80910D0190910E010E94FF03469821
:101E100080910D0190910E0163E070E0FDD51BC033
:101E20000E94FF03469880910D0190910E0163E09E
:101E300070E0F2D50E94FF03469A80910D019091C7
:101E40000E0163E070E0E8D50E94FF0346988091A0
:101E50000D0190910E010C94FF03CF93DF93EC984A
:101E60003D9A459A8EE190E00E94FF0345988EE1ED
:101E700090E00E94FF03459A8DE290E00E94FF03EC
:101E800080E30E945A0284E690E00E94FF03459896
:101E900080E40E94BA01C0E0D0E0FE01E453FE4FAE
:101EA00084910E94BA012196CD30D105B1F780917D
:101EB00008010E94BA01809109010E94BA01809133
:101EC0000A010E94BA01C0E1D0E0FE01E453FE4FD6
:101ED00084910E94BA012196C932D105B1F7459A81
:101EE00045988EE70E94BA018BE290E001C0CE01D6
:101EF000EC0121960E941C050E94BA01C333D10552
:101F0000B1F7459A83E30E945A0281E00E940404DB
:101F100081E08093B001DF91CF910895A0E0B0E01F
:101F2000E3E9FFE0A8C5EC018981843759F4CE01CB
:101F300002966DE071E00E94000580910D01909184
:101F40000E0110C0833709F097C08A81823789F467
:101F5000CE0103966BE071E00E94000580910B01B9
:101F600090910C0160E040E20E9443040E943F0413
:101F7000DCC0449A80916901882379F41E9B0DC0CE
:101F800080916701882329F081E080936801109295
:101F9000670163DF83E00E94040486E30E945A0223
:101FA0008AE30E945A028BE30E945A020E946A024C
:101FB000EE24FF2492E0C92ED12CCC0EDD1E23C0CE
:101FC000F80181918F01803311F480E005C08133E5
:101FD00011F481E001C082E0F2DEBA9489F7469AFA
:101FE00080910D0190910E010E94FF0346980FE130
:101FF00080910D0190910E010E94FF030150C1F7E5
:102000000894E11CF11C80910B0190910C01E816E1
:10201000F90620F486018CE0B82ED2CF80916901B8
:10202000882341F08091B801882371F486E30E94EF
:102030005A020EC080916801882349F0109268010D
:102040004FDD81E0809367010E945E0201C0A8D845
:10205000449889E60E940F0483E70E940F042296A9
:102060000CE08991803319F0813309F086E40E94F5
:102070000F040150B1F77ACF823771F48091670174
:10208000882329F081E08093680110926701E5DEE2
:1020900081E08093690149C0863651F58A81803399
:1020A00051F480E18093080180EB8093090181E77E
:1020B00080930A0107C0CE01029668E071E043E018
:1020C0000E94C90489E60E940F0486E60E940F045C
:1020D0008AE30E940F04809108010E94C504809148
:1020E00009010E94C50480910A010E94C5043ECFE7
:1020F0008837D9F480916801882339F010926801FB
:10210000EFDC81E08093670108C082E090E00E94EC
:1021100078028091B801882319F00E945E0203C002
:1021200086E30E945A0210926901CDB7DEB7E9E05A
:10213000BEC485E390E00E941C058093B90186E34C
:1021400090E00E941C058093BA010895A6E0B0E0DB
:10215000EBEAF0E197C40196BE016F5F7F4F45E067
:102160000E94C9048430D8F499819130B1F483304D
:1021700061F485E390E06A810E94170586E390E0B0
:102180006B810E941705D5DF0AC08091B9010E94BA
:10219000C5048091BA010E94C5040E943F0426969E
:1021A000E2E08CC40F931F93CF93DF938C01C0E0C8
:1021B0008C2F90E063E070E02FD4FC01EC58FF4FCF
:1021C000D4918C2F90E063E070E026D4FC01EB58B2
:1021D000FF4F85919491FC01DD23A1F001151105BC
:1021E00039F480E20E940F048D2F0E940F0408C072
:1021F000D8018C918D1721F4C801099581E003C0A5
:10220000CF5FD6CF80E0DF91CF911F910F910895DE
:10221000CF93C09119018093190134C08EEF91E0E2
:102220000E94220690916A018A3011F08D3001F5EA
:10223000992341F1E92FF0E0E559FE4F10828BE63A
:1022400091E0B0DF882389F485EF91E00E943204A9
:102250008BE691E00E94270489EF91E00E9432040E
:1022600080E090E09FDF0E943F0410926A010AC064
:10227000903440F4E92FF0E0E559FE4F80839F5FF2
:1022800090936A0180910002882341F6C09319015E
:10229000CF910895E4E6F0E080818B7F8083299AD6
:1022A00084B1876084B9239880E58CBD8DB5816049
:1022B0008DBD0895A2E0B0E0EFE5F1E1E3C388E071
:1022C000E6E4F2E09091F10091938150D9F780918A
:1022D000460220914702253009F49CC0263048F47C
:1022E000213009F446C0213070F0233009F01AC1C2
:1022F00040C0283009F4CEC0293009F4F3C026309C
:1023000009F010C1ABC0803821F0823809F00AC151
:1023100008C08091410290914202992369F0826045
:102320000BC080914A028093E9009091EB0081E01C
:1023300095FF80E01092E9009091E800977F9093DC
:10234000E8008093F1001092F1008091E800982F4E
:102350009E7F9093E8008F778093E80005C080917E
:102360004502882309F4E0C08091E80082FFF7CF9E
:10237000AFC0882319F0823009F0D4C090E08F718B
:102380009070009721F082309105C1F50BC08091CB
:102390004802813009F0C8C0233009F080E0809302
:1023A00042022CC080914802882341F520914A02C4
:1023B000277009F4B9C02093E9008091EB0080FFF9
:1023C0001DC0809147028130A1F48091EB008061B3
:1023D0008093EB0081E090E002C0880F991F2A955E
:1023E000E2F78093EA001092EA008091EB008860A7
:1023F00003C08091EB0080628093EB001092E900B3
:102400008091E800877F8093E8008091E800982F12
:102410009E7F62C0882309F085C020914802809188
:10242000E800877F8093E8009091E800892F8E7FF5
:102430008093E8009F779093E8008091E80080FF08
:1024400082C0822F8F77982F90689093E300882323
:1024500009F46AC083E08093450266C080588230E8
:1024600008F060C0809148029091490260914A0250
:10247000AE014F5F5F4F0E947E01BC01009709F4DF
:1024800053C08091E800877F8093E80089819A811A
:1024900029D11EC0803809F045C08091E800877FAF
:1024A0008093E800809143028093F1008091E800DE
:1024B000982F9E7F9093E8008F778093E80004C068
:1024C00080914502882381F18091E80082FFF8CF56
:1024D0008091E800982F9B7F9093E8008F778093FE
:1024E000E80022C08823F1F4809148028230E0F4B1
:1024F0009091E800977F9093E80080934302909139
:10250000E800292F2E7F2093E8009F779093E80022
:10251000882311F084E001C083E0809345020E948B
:10252000420302C00E945A038091E80083FF11C059
:102530008091EB0080628093EB008091E800877FC0
:102540008093E80006C080914502882309F075CF8A
:10255000EBCF2296E2E0B2C28093E900EBEEF0E02E
:10256000808181608083EDEEF0E010826093EC006A
:1025700040838091EE00881F8827881F089510925D
:10258000F40080E08093E9001092F0001092E800DF
:102590009091ED009D7F9093ED009091EB009E7FD8
:1025A0009093EB008F5F853069F708958091460224
:1025B00087FF0EC004C0809145028823D9F0809126
:1025C000E80082FFF8CF8091E800982F9B7F08C039
:1025D0008091E80080FF0AC08091E800982F9E7FDC
:1025E0009093E8008F778093E800089580914502EA
:1025F000882371F7089585E69091EC0090FF05C05F
:102600009091E80090FF05C019C09091E80092FDFC
:1026100015C090914502992399F09091EB0095FD9A
:1026200011C09091E10092FFE7CF9091E1009B7F74
:102630009093E100815001F783E0089580E00895D0
:1026400082E0089581E0089540914C0250914D023E
:102650009B014617570708F49A01FC0180E02CC043
:102660009091E80093FD38C09091E80092FD2EC053
:1026700090914502992391F19091E80090FF1CC040
:1026800005C081918093F100215030402115310522
:1026900021F08091F2008830A0F39091F20081E067
:1026A000983009F080E09091E800492F4E7F4093E8
:1026B000E8009F779093E8002115310589F688237B
:1026C00079F604C080914502882351F08091E8009A
:1026D00082FFF8CF80E0089581E0089582E00895B8
:1026E00082E0089540914C0250914D029B014617A3
:1026F000570708F49A01AC0180E02FC09091E800E0
:1027000093FD3BC09091E80092FD31C0909145024D
:102710009923A9F19091E80090FF1FC008C0FA0129
:102720004F5F5F4FE491E093F1002150304021155D
:10273000310521F08091F200883088F39091F20009
:1027400081E0983009F080E09091E800692F6E7F79
:102750006093E8009F779093E8002115310571F6AA
:10276000882361F604C080914502882351F080914E
:10277000E80082FFF8CF80E0089581E0089582E0CC
:10278000089582E00895382F292F26C08091E8000F
:1027900083FD2BC080914502882349F18091E80098
:1027A00082FFF4CFE32FF22F08C08091F1008193D4
:1027B0003E2F2F2F6150704031F03E2F2F2F8091F0
:1027C000F200882391F78091E800982F9B7F9093E7
:1027D000E8008F778093E80061157105B9F6809164
:1027E000E80080FF08C080E0089581E0089582E05D
:1027F000089582E0089580914502882381F7F9CFFA
:1028000053D055D0109245021092430210924202CA
:102810001092410219BC89B5826089BD09B400FEDD
:10282000FDCF8091D800982F9F779093D800806833
:102830008093D800809163008E7F809363008091A5
:10284000D8008F7D8093D8008091E0008E7F8093A8
:10285000E0008091E1008E7F8093E1008091E200B2
:1028600081608093E2008091E100877F8093E100A6
:102870008091E20088608093E2000895C1DFE0EE7D
:10288000F0E0808181608083E8EDF0E080818F77E7
:10289000808319BC109244020895B2DF81E08093D6
:1028A00044027894089508951092E20008951092D9
:1028B000E10008951F920F920FB60F9211242F93EB
:1028C0003F934F935F936F937F938F939F93AF93B8
:1028D000BF93EF93FF938091E10080FF1CC0809134
:1028E000E20080FF18C08091E1008E7F8093E100BC
:1028F0008091E2008E7F8093E2008091E20080610F
:102900008093E2008091D80080628093D80019BC47
:1029100010924502C8DF8091E10084FF29C08091B8
:10292000E20084FF25C019BC89B5826089BD09B465
:1029300000FEFDCF8091D8008F7D8093D8008091DC
:10294000E1008F7E8093E1008091E2008F7E809392
:10295000E2008091E20081608093E2008091430276
:10296000882311F084E001C081E0809345029BDF61
:102970008091E10083FF23C08091E20083FF1FC0AC
:102980008091E100877F8093E10082E0809345029F
:10299000109243028091E1008E7F8093E10080914C
:1029A000E2008E7F8093E2008091E200806180935C
:1029B000E200E5DD80E060E042E0CEDD74DFFF9123
:1029C000EF91BF91AF919F918F917F916F915F91A7
:1029D0004F913F912F910F900FBE0F901F90189520
:1029E000CF9380914502882361F0C091E900C770C0
:1029F0001092E9008091E80083FF01C05BDCC09386
:102A0000E900CF910895002480FD060E660F11F0B5
:102A10008695D1F7802D08955527002480FF02C0A8
:102A2000060E571F660F771F6115710521F09695E9
:102A30008795009799F7952F802D0895AA1BBB1BAA
:102A400051E107C0AA1FBB1FA617B70710F0A61BAE
:102A5000B70B881F991F5A95A9F780959095BC01CF
:102A6000CD0108952F923F924F925F926F927F9285
:102A70008F929F92AF92BF92CF92DF92EF92FF928E
:102A80000F931F93CF93DF93CDB7DEB7CA1BDB0B3A
:102A90000FB6F894DEBF0FBECDBF09942A883988DF
:102AA00048885F846E847D848C849B84AA84B984E6
:102AB000C884DF80EE80FD800C811B81AA81B981F2
:102AC000CE0FD11D0FB6F894DEBF0FBECDBFED0106
:102AD0000895F999FECF92BD81BDF89A992780B5E6
:102AE0000895262FF999FECF1FBA92BD81BD20BD52
:102AF0000FB6F894FA9AF99A0FBE01960895F894D1
:022B0000FFCF05
:102B0200802500000000080210B0710600A4010038
:062B1200004E022000004D
:00000001FF
