:1000000077C1000091C100008FC100000C94100D59
:100010008BC1000089C1000087C1000085C10000BC
:1000200083C1000081C100000C94D71E7DC1000077
:100030007BC1000079C1000077C1000075C10000DC
:1000400073C100000C94510E6FC100006DC100001F
:100050006BC100002DC4000067C1000065C1000035
:1000600063C1000061C100005FC100005DC100000C
:100070005BC1000059C1000057C1000055C100001C
:1000800053C1000051C100004FC100004DC100002C
:100090004BC1000049C1000047C1000045C100003C
:1000A00043C1000041C100003FC1000042010743BD
:1000B000640246F70969C71541F7144732094DC173
:1000C0000852C00654D71856AD065778075856112F
:1000D00065370766971A6D861B6C280774E70475E9
:1000E000E212787C030000001201100102000008F7
:1000F000EB034B2000000102000109024300020152
:100100000080320904000001020201000524000100
:10011000100524010301042402060524060001073A
:100120000582030800FF09040100020A000000071D
:100130000504024000000705830240000004030993
:100140000416036200750073007700610072006599
:10015000002E006400650000002A03430055004C97
:100160000038003600380000002A03430055004CD8
:1001700000340033003300000000030F1E26270068
:100180000000030F1E2536386700030F2567406007
:100190005000030F275188838100030F2750C8C3E5
:1001A000C2002700000000000000670000000000FF
:1001B000000050000000000000008100000000006E
:1001C0000000C20000000000000D2E2D07D3913D5D
:1001D00004320000060021656A55E43023B90007A7
:1001E0000018146C070090876BF85611E92A001F5D
:1001F0004100072E050DD391FF080500000C0021DA
:10020000656A2D3B1322F862073F181D1CC700B01A
:10021000876BF8B611EA2A001F4100202F2000202A
:100220003D20005620312E34372043554C38363887
:10023000005620312E34372043554C34333300439D
:10024000554C5F563300202F2000203D20004C4F9E
:1002500056460D0A00424F56460D0A000007022E70
:10026000030D04E905CA070C0B060D210E650F6A84
:1002700010C81193120315341730181819161B43A0
:100280002156250026112D353EC3FF0000000D2EFE
:100290002D07D3913D04320000060010B07155E4E3
:1002A0003023B900070018146C070090876BF856CC
:1002B00011E92A001F410000535300547D7DFFFFC8
:1002C0004B4B7E7E00454F420D0A004E2F41004EA3
:1002D0002F410020697320756E6B6E6F776E292039
:1002E000557365206F6E65206F66003F2028000003
:1002F00011241FBECFEFDAE0DEBFCDBF11E0A0E0DA
:10030000B1E0EAEFFFE302C005900D92A631B1071C
:10031000D9F713E0A6E1B1E001C01D92A43DB107F9
:10032000E1F70CD00C94FB1F6BCEF89481E085BFF5
:1003300082E085BFE0E0F8E3099508952FE088E1C9
:1003400090E00FB6F894A895809360000FBE2093BC
:10035000600080E090E020E80FB6F8942093610000
:10036000809361000FBE2E9A2D9A04B603FE0AC038
:1003700083E390E002D5882329F083E390E060E0F6
:100380003BD5D3DF89EF87BD84E085BD82E084BDA6
:1003900080936E00109280008AE08093810084B781
:1003A000877F84BF6E9A0E94521B8FD50E94BE1E0B
:1003B0000E94B6180E94FA098FE09BE19093C30255
:1003C0008093C2020E94801389E080931A0176987C
:1003D0000E94871FA8D10E94BF0EAAD20E943F1A76
:1003E0000E9470110E949313F3CFDA01292F332753
:1003F0002230310559F02330310569F021303105C3
:1004000061F548EE50E022E130E02BC04AEF50E0C9
:1004100023E430E026C090708130910551F08130A6
:10042000910518F00297C9F40BC0EDE3F1E0849157
:1004300003C0E1E4F1E08491282F30E0AF0111C066
:100440001E9B03C049E551E002C049E651E0E9E5E1
:10045000F1E0E4912E2F30E004C040E050E020E0D5
:1004600030E04D935C93C90108958EBD0DB407FE35
:10047000FDCF8EB508952898806C8EBD0DB407FE13
:10048000FDCF8EB51EBC0DB407FEFDCF8EB5289AEC
:100490000895289880648EBD0DB407FEFDCF8EB5FB
:1004A0006EBD0DB407FEFDCF8EB5289A089528982D
:1004B0008EBD0DB407FEFDCF8EB5289A089586E354
:1004C000F6DF1092C4020895A1E0B0E0EAE6F2E09F
:1004D0000C94BC1F0196BE016F5F7F4F41E0D9D3E2
:1004E000892B41F18981893989F400E010E0802F5E
:1004F000C2DF88D3C80187709070079709F428D3AA
:100500000F5F1F4F0033110591F714C0B4DF182F90
:1005100083E4E9D2898176D38FE192E01DD3812FE4
:1005200071D38BE192E018D3812F90E062E040E23A
:100530006DD30ED32196E4E00C94D81F1F931FEFC8
:1005400084E3B5DF8AE090E04FD21150C9F7EA9A10
:100550001F9108951F93EA9886E3A9DF1FEF85E3B3
:10056000A6DF8AE090E040D21150C9F71F910895AC
:10057000EF92FF920F93CF93DF93082F8A3008F00A
:1005800008E0C02FD0E083E0CC0FDD1F8A95E1F7B3
:10059000C758DE4F8BE290E07C010894E11CF11C0F
:1005A000FE01649129D42196C70183339105A1F7F7
:1005B0000550053010F067E101C061E184E290E090
:1005C0001BD4DF91CF910F91FF90EF900895CF93BF
:1005D000DF9382E090E0EC012196FE01EA53FE4FAA
:1005E000E4916E2F09D4CB32D10511F0CE01F3CFB7
:1005F00087E390E0EC012196FE01E654FE4FE49182
:100600006E2FFAD3C036D10511F0CE01F3CF1E996B
:1006100018C08FE090E060E1EFD380E190E060EB04
:10062000EBD381E190E061E7E7D384E490E060E11F
:10063000E3D385E490E060EBDFD386E490E061E70C
:10064000DBD388E095DFDF91CF9108950F931F935F
:10065000CF93DF938C01EA98209A289A8EE190E05C
:10066000C3D128988EE190E0BFD1289A8DE290E026
:10067000BBD180E31CDF84E690E0B6D1289880E40B
:100680008EBD0DB407FEFDCF8EB5C0E0D0E0C80131
:100690008C0F9D1F72D38EBD0DB407FEFDCF8EB59E
:1006A0002196C932D10599F7289A28988EE78EBDF0
:1006B0000DB407FEFDCF8EB58BE290E0EC012196E4
:1006C0005CD38EBD0DB407FEFDCF8EB5C333D1050F
:1006D00011F0CE01F3CF289A83E3E9DE81E089D1DE
:1006E000DF91CF911F910F91089582E090E0AEDFEE
:1006F00081E08093C4020895A1E0B0E0E2E8F3E075
:100700000C94BE1F22E029830196BE016F5F7F4FCC
:1007100041E0BFD289812CDF82E090E097DF219613
:10072000E2E00C94DA1F8091C703843009F069C0BD
:100730008093E90080911601882351F58091E800AB
:1007400085FD06C025C06091F10080E893E01ED4CD
:100750008091F2009091F300892BA9F78091E80035
:10076000982F9B7F9093E8008F778093E80081E03B
:100770008093160183E993E09093C1028093C002B5
:10078000E091C202F091C30281E009951092160136
:1007900083E08093E90080913F03882391F1809169
:1007A000E80085FF2EC0F89405C08DE393E003D4E4
:1007B0008093F10080913F03882339F08091F2000B
:1007C0009091F3008034910580F378948091F20049
:1007D0009091F3002091E800322F3E7F3093E800A3
:1007E0002F772093E8008034910559F40E945F1D13
:1007F0008091E800982F9E7F9093E8008F778093F8
:10080000E80008959091C8038091C903813229F0CE
:10081000823261F1803299F512C0913A81F580916E
:10082000E800877F8093E80080E091E067E070E077
:100830000E948A1D8091E800982F9B7F11C0913201
:10084000F1F48091E800877F8093E80080E091E0F8
:1008500067E070E00E942C1E8091E800982F9E7F38
:100860009093E8008F778093E8000895913239F4EF
:100870008091E800877F8093E8000C94361D0895EE
:1008800082E061EC42E00E940C1D83E061E842E3FB
:100890000E940C1D84E060E842E30E940C1D10924F
:1008A00000011092010110920201109203010895BB
:1008B0001F920F920FB60F9211248F939F93AF93B5
:1008C000BF938091C6029091C702A091C802B091D7
:1008D000C9020196A11DB11D8093C6029093C70263
:1008E000A093C802B093C9028091C5028F5F809324
:1008F000C5028D3710F01092C502809128039091A7
:100900002903009729F001979093290380932803E6
:1009100080913B038F3F19F0815080933B03BF913F
:10092000AF919F918F910F900FBE0F901F901895D0
:100930009091C60280911801981709F447C09093CE
:100940001801A8958091280390912903892B11F40F
:100950000E94531880913B03882311F40E943A1897
:1009600080911803882339F08150809318038823DD
:1009700011F40E94C6128091C502882339F5809136
:10098000070181FF04C08EB190E489278EB9809160
:10099000CA029091CB0223E08438920728F4019692
:1009A0009093CB028093CA02809117018F5F80934E
:1009B00017018C3359F410921701809125038F5F32
:1009C000809325038C3310F01092250308958091B5
:1009D000C90218D18091C80215D18091C70212D1E5
:1009E0008091C6020FD1B4C0880F991F0197F1F70B
:1009F000089520ED37E004C0F9013197F1F78150F7
:100A00008823D1F70895CF93DF93AC01DC011396CF
:100A10008C911397843509F063C09C912DE001C03F
:100A20002F5F291730F4FA01E20FF11D83818B3318
:100A3000B9F730E0E92FF0E0CF010F972817390719
:100A400009F04EC03E979A012E0F3F1F3E96D901E6
:100A500013968C91843509F043C03B97EA01CE0F81
:100A6000DF1F3B96DA0114969C91149789819817A1
:100A7000B9F515969C9115978A81981789F5169660
:100A80009C9116978B81981759F517969C918C819C
:100A9000981731F57197E40FF51F8D818383F90164
:100AA00031968E81D90111968C93DF01119689853B
:100AB0008183FD0131968A8511968C93DF01119611
:100AC0008B8581838C8511968C9311978D851296D9
:100AD0008C93FA0180818A50808382818A5082833C
:100AE000DF91CF9108951F93182F8091C703843011
:100AF00081F480911A0180FF0CC080913F03803403
:100B000008F011DE8DE393E0612F40D21A3009F432
:100B10000ADE809123038823C9F080911A0183FFA4
:100B200015C01A3099F01D3011F46BE301C0612F2C
:100B300083ED92E02BD21D3019F483ED92E063DF58
:100B400083E08093180382E080931E031F91089531
:100B50008DE0C9DF8AE0C7CFCF93DF93EC0102C0FD
:100B6000C2DF2196FE0184918823D1F7DF91CF91D6
:100B70000895CF93DF93EC0102C02196B4DF888102
:100B80008823D9F7DF91CF910895A5E0B0E0EBEC91
:100B9000F5E00C94BE1F1D82FE01349624E0582F10
:100BA0005F7021505A3018F4352F305D02C0352F58
:100BB000395C308334E0969587953A95E1F761503A
:100BC0003197009761F72150822F992787FD9095E3
:100BD0002F5FFE013196E80FF91F03C021504083BB
:100BE0003197615067FD02C01216C4F3332727FD09
:100BF0003095CE010196820F931FBBDF2596E2E070
:100C00000C94DA1F90E062E040E3BFCFA6E0B0E0D2
:100C1000ECE0F6E00C94BC1F9C01162F042F1E8202
:100C2000FE01359645E04150C9016AE070E00E943E
:100C30009A1F805D8083C9016AE070E00E949A1F5C
:100C40009B0111506115710559F44150842F99276A
:100C500087FD90954F5FFE013196E80FF91F07C0A1
:100C60003197442301F7F1CF415000833197115060
:100C700017FD02C01416C4F3242F332727FD309527
:100C8000CE010196820F931F74DF2696E4E00C9448
:100C9000D81FDC01FB0123C0822F80538A3010F063
:100CA00050E002C0382B51E0822F8154863020F46E
:100CB0002753322B295C51E0822F8156863018F45D
:100CC0002755322B07C0552329F4203271F02A33DF
:100CD00061F00EC0992331F03193415049F030E07A
:100CE00090E003C03295307F91E02D912223A1F650
:100CF000CF01861B970B0895FC01DB0120E030E05B
:100D000014C0842F80538A3080F4C90163E0880FB7
:100D1000991F6A95E1F7220F331F820F931F242F2B
:100D200030E020533040280F391F4191442349F7C8
:100D30002D933C930895FB01982F92959F709A30C4
:100D400010F4905D01C0995C90838F708A3010F42C
:100D5000805D01C0895C81830895FC0181818834B4
:100D600019F48FE392E007C01E9903C081E392E07B
:100D700002C083E292E0F0DEEBCE0C94E51F089512
:100D8000EF92FF921F93DF93CF9300D0CDB7DEB7E2
:100D90001B8219820196BE016F5F7F4F42E079DFAF
:100DA0002981823041F4922F80E02A81E22EFF24B3
:100DB000E82AF92A02C0E22EFF24C701DEDF182F3D
:100DC00082E591DEC70164E040E3DFDE8AE492E081
:100DD000C3DE812F17DF86E492E0BEDE812F90E034
:100DE00062E040E213DFB4DE0F900F90CF91DF910D
:100DF0001F91FF90EF9008950E94ED1FF999FECF8B
:100E00000895A1E0B0E0E7E0F7E00C94BE1F19827E
:100E1000009731F00196BE016F5F7F4F41E039DFEF
:100E20008981882321F083E390E061E0E5DF0E947F
:100E3000AC1E10926E00F89428E088E190E00FB6A6
:100E4000F894A895809360000FBE20936000FFCFB8
:100E5000019667E071E041E01CDF6091070160FFEF
:100E600002C0769A01C0769884E390E0C5CF0F93D4
:100E70001F938C0180E090E061E0BEDF81E090E0B4
:100E80006FE2BADFA4DB80E690E060E0B5DF81E6E8
:100E900090E060E0B1DF83E390E060E0ADDF84E309
:100EA00090E062E0A9DF80E690E060E0A5DF81E607
:100EB00090E060E0A1DFF8018181883719F080E0DF
:100EC00090E09FDF1F910F91089580E090E055DF43
:100ED000813029F481E090E050DF8F3219F080E01A
:100EE00090E0C5DF84E390E048DF80930701089538
:100EF000A6E0B0E0EEE7F7E00C94B81F6C010196B5
:100F0000BE016F5F7F4F43E0C4DE082F8230A8F13F
:100F10002981823019F4E22EFF2407C0922F80E04D
:100F20002A81E22EFF24E82AF92A10E0FE01E00FD0
:100F3000F11FC701608160DF000F111F0F5F1F4F9E
:100F40000C0D1D1D0894E11CF11C6E010894C11CC0
:100F5000D11C0FC0C801B60141E09BDE892B69F0AE
:100F6000C701698149DF0E5F1F4F82E090E0E80E04
:100F7000F91EF8018081882369F72696E8E00C9431
:100F8000D41FFC011282108211820895DC01129696
:100F90008C911297803470F48F5F12968C93129715
:100FA0008C91FD01E80FF11D63838F5F8C9380347A
:100FB00009F41C920895DC0112968C9112978823F3
:100FC00011F490E013C0815012968C9312971196F1
:100FD0008C911197FD01E80FF11D93818F5F1196A0
:100FE0008C931197803411F411961C92892F0895D7
:100FF000CF93DF93DB01EA01322F4881882369F028
:10100000FB01E40FF11D81E090E002C0880F991F01
:101010002A95E2F72081282B2083332319F0832F90
:10102000815009C0842F8F5F8C3008F48883A80F0B
:10103000B11D1C9287E090E0DF91CF9108951F933E
:10104000182F5B9A882319F080911D0102C08091AE
:101050001B0190E034E0880F991F3A95E1F7C4DC5A
:101060005B98112319F080911E0102C080911C0130
:1010700090E024E0880F991F2A95E1F7B5DC1F91D5
:101080000895A0E0B0E0E7E4F8E00C94B11F4C0153
:10109000562ED42E122FC02E2091CA023091CB0290
:1010A00082E0D80ED09E802D11249EEFD90E992774
:1010B00087FD90952817390720F48EE492E04CDDE7
:1010C0005BC0281B390B3093CB022093CA02769A5F
:1010D0008091C402882309F408DB3CDA41E0642EE5
:1010E000712CA12EBB2410E003C080E0A8DF1F5F9D
:1010F0001515D9F781E0A3DF8401FF2415C0C7E0EF
:10110000D0E093010C2E02C0220F331F0A94E2F7A5
:10111000F8018081822393DF2197FFEFCF3FDF0724
:1011200081F7F3940F5F1F4FFD1449F7C7E0D0E03C
:101130000D2D112707FD1095080D191D0CC09301E9
:101140000C2E02C0220F331F0A94E2F7F8018081AF
:10115000822375DF2197AC16BD068CF38E2D49DCFA
:10116000CA9409F0C0CF8091CC02882311F0E6D94F
:1011700002C086E39CD97698CDB7DEB7EFE00C9439
:10118000CD1FA9E1B0E0E7ECF8E00C94B21FFEE05F
:10119000EF2EF12CEC0EFD1E0196B7014BE079DD30
:1011A000893009F05BC089E180931C0180931B01A9
:1011B00080931D0182E380931E01C70169E03DD148
:1011C0008F8B19821A8207E0A7E010E0E7E06E2E0D
:1011D000712C71E0872E912C570162E0C62ED12C24
:1011E000CC0EDD1E7E010894E11CF11C01C007E05D
:1011F000802F992787FD90959301281B390BC401F7
:1012000002C0880F991F2A95E2F79C01F501E10FB2
:10121000F11D80818223B601A7012A2FE9DEA82FC4
:10122000002311F00150E4CF81E0B601A7012A2F7D
:10123000DFDEA82F1F5F1A30D0F2882319F0282F85
:10124000215004C089818F5F898327E0CE010296F7
:101250006CE0498103E05AE0E52E13DF6996EEE089
:101260000C94CE1FEF920F93DF93CF93CDB7DEB7E1
:1012700060970FB6F894DEBF0FBECDBF0196BE01DA
:101280006F5F7F4F40E105DD69814A810B818C8171
:1012900080931B018D8180931C018E8180931D01A1
:1012A0008F8180931E01242F2F70E02EE294AFE0F7
:1012B000EA22CE01089642954F700F70E2DE6096EA
:1012C0000FB6F894DEBF0FBECDBFCF91DF910F9167
:1012D000EF900895AEE0B0E0E0E7F9E00C94AE1FC7
:1012E0007C01162F842F2E87B701412F9AD0F7014A
:1012F000E10FF11D8083A12EA39419821A82470168
:10130000BB24E7E091E0292E312C82E0482E512CBD
:101310004C0E5D1E3E010894611C711C2FC007E03D
:1013200010E06701CB0CD11C9101002E02C0220FEE
:10133000331F0A94E2F7D6018C918223B201A301F4
:101340002E2F56DEE82F01501040BFEF0F3F1B0736
:1013500059F7D4018D914D01082E82958025082ED4
:1013600086958695802590E0019695958795817064
:10137000B201A3012E2F3CDEE82FB394BA1478F209
:10138000EE2319F02E2F215004C089818F5F8983AD
:1013900027E089E180931C0180931B0185E2809303
:1013A0001E0180931D01CE0102966CE049810E85DD
:1013B000BAE0EB2E66DE2E96E2E10C94CA1FACE09A
:1013C000B0E0E5EEF9E00C94BA1FF62EE42E01969B
:1013D0008E010F5F1F4FB8014BE05BDC682FC80127
:1013E0004F2D2E2D77DF2C96E6E00C94D61F66E06D
:1013F00043E0E5CF539A5B985298E9E6F0E08081AC
:101400008061808382EC91E09093CB028093CA024A
:1014100010923B0110925701109273011092C40276
:101420000895982F06C04150FB01E40FF11D808103
:10143000980F4423C1F7892F0895AC0120E006C01E
:101440006150FA01E60FF11D808128276623C1F75C
:10145000822F0895A0E0B0E0E0E3FAE00C94B81F1A
:10146000DC011092A7011092920197E013968C91E3
:101470001397981B11961C911197110F110F110FB3
:10148000190F10929301FF24EE2407E057E040E08B
:1014900070E0E7E0CE2ED12CC1E0D0E07FC0FD01AE
:1014A000EE0DF11D848190E0002E02C09595879588
:1014B0000A94E2F7282F2170002311F0015002C096
:1014C000E39407E06B3469F4533059F47723B9F5AA
:1014D000222311F071E062C0409392011092A701A3
:1014E0001EC05F3F69F56634E1F4E42FF0E0ED568D
:1014F000FE4F8081082E82958025082E8695869540
:10150000802590E00196959587958170907030E0E8
:101510008217930761F0409392017093A70180E0D6
:1015200057C0653411F06B3411F42223A1F34F5FDF
:10153000E42FF0E0ED56FE4F108257E02FC070E030
:10154000222359F1663479F4E42FF0E0ED56FE4F92
:101550009E01052E02C0220F331F0A94E2F78081FC
:10156000822B80831AC0653411F06B34B1F4E42F00
:10157000F0E0ED56FE4F852F992787FD9095960157
:10158000281B390BC9019E0102C0220F331F8A9507
:10159000E2F7C9012081282B20835150F3948F2D2D
:1015A0008150811708F47BCF409392017093A7017B
:1015B0001F1508F0B4CF653411F45F3F11F07723A5
:1015C00019F04F5F4093920180919201811181E067
:1015D000CDB7DEB7E8E00C94D41FDC0112968C91F5
:1015E0001297ED91FC911197E80FF11DE081139690
:1015F0002C911397215013962C9313972F5F39F446
:101600008F5F12968C93129787E013968C938E2F90
:1016100090E002C0959587952A95E2F7817008952C
:10162000A0E0B0E0E6E1FBE00C94B41F6C01962E64
:10163000842EFF24C0E0D0E0F1E0AF2EB12C062FC5
:1016400010E00150104019C0C601C7DF8823A1F087
:10165000882059F0C8018C1B9D0B950102C0220FF8
:10166000331F8A95E2F7C90106C0C50102C0880F81
:10167000991FEA94E2F7F82A2196EC2EC91520F377
:101680008F2DCDB7DEB7ECE00C94D01FA4E0B0E016
:10169000ECE4FBE00C94B61FFC0187E08C833496ED
:1016A000FA83E983349710929201818190E023E0DC
:1016B000880F991F2A95E1F72381821B9109CE9704
:1016C0000CF45AC01B82CC24DD245E010894A11CBA
:1016D000B11C2EC0ED2CFF24C50168E040E0A0DF66
:1016E000082F83E991E0E80EF91EF7010083002E30
:1016F00002950025002E069506950025C5016DDF93
:1017000010E00F5F1F4F159507950170107090E066
:101710000817190731F4C50160DF9D2D9F5F8823ED
:1017200019F0D092920128C0F7018081C826D92EE5
:10173000F5E0FD1578F6D0929201C50168E040E031
:101740006FDFF82E082F002E02950025002E06953B
:1017500006950025C50141DF10E00F5F1F4F15956D
:1017600007950170107090E00817190729F480E0C0
:10177000CF1419F481E001C080E02496EAE00C94D3
:10178000D21FA4E0B0E0E7ECFBE00C94B61FFC0134
:101790001B8287E08C833496FA83E9833497109216
:1017A00092018081853009F053C0818190E043E04F
:1017B000880F991F4A95E1F72381821B9109893887
:1017C000910509F045C019E83FE0C32E30EFD32E54
:1017D00080E05E010894A11CB11C10C0C50168E046
:1017E00041E01EDFC80ED11C23E931E0E20EF31EFA
:1017F0001827F7011083182F1C5D802FE82EFF2477
:10180000082F0F5F8F3050F3C50168E041E008DF1B
:10181000182F23E931E0E20EF31E8095F701808353
:1018200000939201C50168E041E0FADE082FC10E85
:10183000D11CC50168E041E0F3DE40E0302F20E03C
:10184000C21AD30A90E0C816D90619F441E001C0C3
:1018500040E0842F2496EAE00C94D21FEF92FF928E
:101860001F93DF93CF9300D000D0CDB7DEB7FC013C
:101870003496FA83E983349781818430B9F587E01F
:101880008C838381813091F51B8210E07E01089466
:10189000E11CF11C12C0112331F4C70167E041E0E3
:1018A000BFDE806804C0C70168E041E0B9DEE12F17
:1018B000F0E0ED56FE4F80831F5F143060F3CE01E1
:1018C000019667E041E0ACDEE12FF0E0ED56FE4F1F
:1018D000880F80831F5F1093920190E080919301A5
:1018E00082958F708A3019F491E001C090E0892FC1
:1018F0000F900F900F900F90CF91DF911F91FF905D
:10190000EF900895FC018181A82FB0E050E0E081C4
:10191000CD01841B950B0B964797D8F48E2F90E042
:1019200070E09C01261B370B2C30310594F4255FA9
:101930003F4F7CF08A0F9B1F861B970B841B950BD8
:101940008C30910534F420E0855F9F4F1CF021E03E
:1019500001C020E0822F0895282F30E0C901880FB0
:10196000991F820F931F860F911D959587959595C9
:1019700087950895DC0111968C911197843190F030
:1019800010926F0080918F0190E02CE130E0829FF7
:10199000F001839FF00D929FF00D1124E15EFE4F48
:1019A00010820895662381F0FD01E80FF11D81E0AA
:1019B00090E013960C90139702C0880F991F0A9419
:1019C000E2F72481282B248313968C91139781505E
:1019D00013968C9313978F5F79F487E013968C930B
:1019E000139711968C9111978F5F11968C93119785
:1019F000A80FB11D14961C920895282F8552873187
:101A000060F46A3050F0673240F490E0621708F0FA
:101A100091E081E09827892F089580E090E0089573
:101A20001F920F920FB60F921124EF92FF920F9315
:101A30001F932F933F934F935F936F937F938F9356
:101A40009F93AF93BF93CF93DF93EF93FF938091D7
:101A50003C03882321F082E080933C03F0C0809116
:101A60001903823021F483E080931903E8C0809148
:101A7000840090918500E4E096958795EA95E1F7DA
:101A8000182FE0908F018CE1E89EE0011124C15EE7
:101A9000DE4F9881943031F41E3208F4D0C01F34E8
:101AA00048F0BDC0953031F4173108F4C8C0183281
:101AB00008F0B5C0892F84504A990CC0823038F4A0
:101AC000CE0161E057DF10928500109284001093E0
:101AD000C101B5C00091C101F12EF01AF092C2010E
:101AE0001092850010928400823020F4CE0160E0D4
:101AF00041DFA5C082E086BB992371F4053608F06A
:101B00009EC084E68F1508F49AC0088FF98E81E094
:101B10008A8382E0888393C0923009F05AC0CE0154
:101B20004896602F4F2DEEDE1A81882359F0888D5C
:101B3000602F12DF888F898D6F2D0EDF898F1F5FD9
:101B40001A837DC0143008F442C080EA9FE090936D
:101B50008900809388001C3050F0298D888D90E09A
:101B6000820F911D8536910514F084E025C01A304E
:101B700080F0298D888D90E0820F911D85974CF41F
:101B800085E0888388EE93E09093890080938800B5
:101B900014C08091D202882371F0802F6F2D2DDF29
:101BA000882349F0898D688D28DF882321F081E022
:101BB0008093190334C083E088830A8FFB8E1982D7
:101BC00087E08B831C8282E080936F0038C018828C
:101BD00095CFCE014A96602F4F2D94DE882361F079
:101BE000CE0161E0C7DE8A8D602FB6DE8A8F8B8DD5
:101BF0006F2DB2DE8B8F23C0CE014896602F4F2D04
:101C000081DE882361F0CE0160E0B4DE888D602F34
:101C1000A3DE888F898D6F2D9FDE898F10C0109273
:101C20006F002E2D30E08CE190E0289FF001299F7D
:101C3000F00D389FF00D1124E15EFE4F1082FF91F0
:101C4000EF91DF91CF91BF91AF919F918F917F9154
:101C50006F915F914F913F912F911F910F91FF9045
:101C6000EF900F900FBE0F901F90189580918F01ED
:101C700090E02CE130E0829FF001839FF00D929F75
:101C8000F00D1124E15EFE4F8081882331F420E0C5
:101C900030E080913B038F3F11F021E030E0822F54
:101CA00008951F920F920FB60F9211242F933F9316
:101CB0004F935F936F937F938F939F93AF93BF9354
:101CC000EF93FF9310926F008091CC0283FF03C0CB
:101CD0008EE20E94730540918F01242F30E08CE149
:101CE00090E0289FF001299FF00D389FF00D1124FE
:101CF000E15EFE4F8081833018F08181823028F4CC
:101D000010926F008CE190E013C0809191018330BC
:101D1000D1F48091CC0282FF04C085E592E00E945C
:101D2000AC0510926F0080918F0190E02CE130E0C3
:101D3000829FF001839FF00D929FF00D1124E15ED0
:101D4000FE4F10820BC08F5F80939101842F8F5FB5
:101D500080938F01843011F410928F01FF91EF91E5
:101D6000BF91AF919F918F917F916F915F914F91B3
:101D70003F912F910F900FBE0F901F9018950F93CA
:101D80001F93CF93DF938091C2018823B9F1809193
:101D9000CC0287FF17C084E30E943B028058803446
:101DA00010F480E00CC0803C10F08FE008C090E0A0
:101DB0008055904003E0959587950A95E1F78F59F6
:101DC0000E9473058091CC0283FF16C082E70E94B7
:101DD00073058091CC0284FF04C08091C1010E94F0
:101DE000730586E60E9473058091CC0284FF04C0CF
:101DF0008091C2010E9473051092C20180919101ED
:101E0000882309F444C2769A909190018CE1989FBE
:101E1000E0011124C15EDE4FCE01B3DC882311F056
:101E200003E5C3C0CE0166E415DB882309F406C2CE
:101E300040919201415040939201942F56E007C087
:101E40009150E92FF0E0ED56FE4F8081580F992315
:101E5000B9F7A42FB0E0FD01ED56FE4F6081561793
:101E600011F4443068F4852F90E00196262F30E07D
:101E70008217930779F4443068F0AD56BE4F5C93F7
:101E800006E493C09150E92FF0E0ED56FE4F8081BB
:101E9000280F02C0942F2CE09923A1F7261709F0F0
:101EA000CDC1443008F4CAC1C7C1809192018150AC
:101EB00080939201893009F0C7C199E020E09150E8
:101EC000E92FF0E0ED56FE4F808128279923B9F7DE
:101ED00080919C01281709F0B7C105E466C04091C4
:101EE00092014150409392016091A701342F50E03C
:101EF00095E020E014C03150E32FF0E0ED56FE4FA6
:101F0000E0818E2F82958F702827980F662311F01D
:101F1000552321F08E2F8F702827980F5F5F332372
:101F200051F7920F9295907F922BE42FF0E0E61BF1
:101F3000F109ED56FE4F8081981761F08B818F5F1C
:101F40008B838150873009F09DC11B82898181502C
:101F5000898398C10BE429C08B81843009F0E4C0E7
:101F6000CE0148966CE34EE1CDDC882309F4DCC059
:101F7000C8016091C1014EE1C5DC682FCE01FADCD9
:101F8000109292010DC0E92FF0E0DE01AE0FBF1FED
:101F900014968C91ED56FE4F80839F5F9093920133
:101FA00090919201953078F302E58091CC02682FF0
:101FB00080FFBBC081FF02C020E05FC09091A801FC
:101FC00080919201981799F51092A8010EC0E22F06
:101FD000F0E0DF01AD56BE4FE755FE4F90818C918A
:101FE000981749F42F5F2093A8012091A801309100
:101FF0009201231760F32317D1F48091C6029091C8
:10200000C702A091C802B091C9022091BD013091D0
:10201000BE014091BF015091C001821B930BA40BE4
:10202000B50B8697A105B10510F421E001C020E0B1
:102030001092A8010CC0E92FF0E0DF01AD56BE4FB1
:102040008C91E755FE4F80839F5F9093A8019091FC
:10205000A80180919201981770F38091C602909127
:10206000C702A091C802B091C9028093BD019093AC
:10207000BE01A093BF01B093C0010435F1F466FD29
:102080001CC0809192018530C0F0809195018B3405
:1020900009F44BC0893609F448C0833509F445C0BA
:1020A000843509F442C08D3709F43FC08E37E9F119
:1020B0008091960180778037C1F12223B1F5802F7E
:1020C0000E9473058091A701882329F080919201D5
:1020D00081508093920110E008C0E12FF0E0ED56AE
:1020E000FE4F80810E9402061F5FE09192011E1741
:1020F000A0F38091A701882359F0F0E0ED56FE4F40
:10210000808190E08F70907061E040E30E94C5058F
:102110008091CC0285FF05C084E30E943B020E94AF
:1021200002060E94A80501C000E08091CC0282FF57
:102130006DC080E70E947305888190E062E040E214
:102140000E940606888D90E014E0880F991F1A956A
:10215000E1F765E040E20E940606898D90E0B4E078
:10216000880F991FBA95E1F765E040E20E940606E4
:102170008A8D90E0A4E0880F991FAA95E1F765E0A9
:1021800040E20E9406068B8D90E0F4E0880F991FD4
:10219000FA95E1F765E040E20E9406068A8190E048
:1021A00063E040E20E940606898190E063E040E23D
:1021B0000E9406062B8187E090E0821B910962E075
:1021C00040E20E94060680E20E9473058091CC02E4
:1021D00085FF08C084E30E943B020E94020680E261
:1021E0000E9473058B81873019F089818F5F898305
:1021F00010E007C0FE01E10FF11D84810E9402067C
:102200001F5F89811817B0F30E94A805188280917A
:102210009101815080939101809190018F5F809313
:102220009001843011F4109290017698043579F57C
:1022300083E991E03BD62BC004E5B7CECE0165E43F
:1022400009D9882309F031CECE0120DA882311F094
:1022500008E4ABCECE0102DB882311F004E7A5CE63
:102260008E01065E1F4FC8016091C1014B8D4ADB94
:10227000682FCE017FDBCE016BE4ECD8882309F414
:102280005DCE2DCE8981843009F04ECF65CEDF91B1
:10229000CF911F910F9108958091CC02882321F056
:1022A0000E9475030C949E020C945F02FC018181D4
:1022B000882371F48091CC020E9402068091CA02A8
:1022C0009091CB0265E040E20E9406060C94A805BE
:1022D000CF0101966CEC72E041E00E944906DCCF30
:1022E000A1E0B0E0E6E7F1E10C94BC1F8091190396
:1022F000882309F47DC01091C602833009F060C0C4
:102300008FE30E943B02182F863010F400E018C0C3
:1023100080E893E00E94C10728988FEF0E94350261
:1023200080E00E943502082F08C080E00E9435023C
:10233000682F80E893E00E94C6071150B1F7289AF1
:10234000ABDF10921903053709F052C083E893E020
:10235000BE016F5F7F4F41E00E944906019759F52A
:1023600099818091D202981731F580918703853544
:1023700039F00DC080E893E00E94DB070E947305EE
:10238000809182038823B1F70E94A80531C0809113
:10239000820384508093820384E08093810380E8E9
:1023A00093E06AE00E94C607E091C202F091C30286
:1023B00088E009951DC080E893E00E94C10718C01D
:1023C000823049F48091D102181B183088F064DF04
:1023D000109219030DC0813059F487E390E00E94F8
:1023E00026030E949E0282E0809319031093D1027B
:1023F0002196E4E00C94D81F5B980C94F4045B9A4B
:102400000C94F404A7E0B0E0E8E0F2E10C94B91F0A
:10241000282F8091DB02843551F480911C03909128
:102420001D03019690931D0380931C0339C08634CD
:1024300051F480911A0390911B03019690931B0312
:1024400080931A032DC0853451F48091CF0290916E
:10245000D00201969093D0028093CF0221C08B349A
:1024600051F480911F0390912003019690932003D3
:1024700080931F0315C0883451F4809121039091FB
:1024800022030196909322038093210309C0809137
:10249000CD029091CE0201969093CE028093CD0210
:1024A00085E78983222319F4DD24D39412C0809117
:1024B0002303BE016E5F7F4F0E949B068091D20274
:1024C000BE016C5F7F4F0E949B0685E58E8386E090
:1024D000D82E0E9475030E94AA0210E080E891E0C5
:1024E0008EDF80E093E088DF1F5F1630B9F780E071
:1024F00093E085DF80E891E07FDF80E891E07FDF97
:102500005B9887E390E00E94260383E00E94F90431
:1025100028988FE70E9435028091D5028D0D0E9488
:1025200035027E010894E11CF11C8701F8018191BC
:102530008F010E943502802F8E198D15B8F306C0C9
:1025400083ED92E00E94DB070E9435028091D50264
:102550008823B1F7289A0E94AA0283ED92E00E9494
:10256000C10714E104C0115081E00E94F9048AE31C
:102570000E943B0290E08F779070892B11F011231D
:1025800091F78ADE2796E7E00C94D51F6FDB88234E
:1025900061F083E080931E038091160390911703EE
:1025A0000196909317038093160380911E03815028
:1025B00080931E03882321F083E0809318030895FD
:1025C00081E020CFCF93DF93EC018981882339F418
:1025D0008091D2020E940206809123030FC08436AC
:1025E00081F48091C6029091C70264E040E30E94AA
:1025F000C5058EE20E947305809118030E940206B1
:102600004DC0833709F04DC080911C0390911D038C
:1026100061E040E30E94C5058EE20E94730580914F
:102620001A0390911B0361E040E30E94C5058EE20E
:102630000E9473058091CF029091D00261E040E347
:102640000E94C5058EE20E94730580911F03909140
:10265000200361E040E30E94C5058EE20E947305FD
:10266000809121039091220361E040E30E94C5051F
:102670008EE20E9473058091CD029091CE0261E0BE
:1026800040E30E94C5058EE20E9473058091160307
:102690009091170361E040E30E94C5050E94A805E0
:1026A0002CC08936D9F4CE01029662ED72E041E089
:1026B0000E94490680E690E06091D2020E94FC06EA
:1026C000CE01049663E273E041E00E94490681E690
:1026D00090E0609123030E94FC060FC083ED92E01E
:1026E0000E94C10704C083ED92E00E94C6072196B4
:1026F00068816623C1F780E085DEDF91CF91089580
:1027000080E690E00E94BD068093D20281E690E0D0
:102710000E94BD0680932303882321F081E28093E9
:10272000CC02BACD0895ACE3B0E0E9E9F3E10C9452
:10273000B91F8091C301882309F4A5C04A9B90C0AA
:102740008FE30E943B028F7789838E3110F08DE1F9
:10275000898328988FEF0E94350210E022E0E22E54
:10276000F12CEC0EFD1E08C080E00E943502F7013E
:10277000E10FF11D80831F5F09811017A8F380E02E
:102780000E943502D82E289A8AE30E94570286E3D7
:102790000E9457028DE30E94570284E30E94570271
:1027A0000F8F8A8196E7892788A312E0BE01615EB8
:1027B0007F4FAE014F5F5F4F0FC0DB01A20FB31F12
:1027C000FE01E20FF31F80818452240F351FF901AF
:1027D000908189278C931F5F8F8D212F30E01817F0
:1027E00060F3620F731F420F531FFA01808199A19A
:1027F0008927FB0180838091CC0284FF14C081E68D
:102800000E9473050F8D10E09FE1E92EF12CEC0E74
:10281000FD1EF701E10FF11D80810E9473051F5F0E
:102820000117B8F730C081E40E9473050F8D10E0E6
:102830008FE1E82EF12CEC0EFD1EF701E10FF11DEA
:1028400080810E9402061F5F0117B8F78091CC02B9
:1028500085FF03C08D2D0E9402060E94A80513C0AB
:1028600085E30E943B02813011F0813161F48AE3FB
:102870000E94570286E30E9457028DE30E9457028E
:1028800084E30E945702EC96E7E00C94D51FCF93A7
:10289000DF93EA98209A289A8EE190E00E94F4044F
:1028A00028988EE190E00E94F404289A8DE290E04E
:1028B0000E94F40480E30E94570284E690E00E94A4
:1028C000F404CCE5D2E0FE018491813450F42196E9
:1028D000FE0164910E9449022196F2E0CE38DF07A2
:1028E00091F783E30E94570281E00E94F904DF918F
:1028F000CF910895ACE3B0E0E0E8F4E10C94B91FA7
:102900000196BE01615E7F4F4DE10E944906D82EBF
:10291000282F30E0215030408F8D90E02817390764
:1029200009F061C08091C301882321F4B0DF83E006
:102930000E94F90486E30E9457028AE30E9457022C
:102940008BE30E9457024F8D498388A196E7892720
:102950008A83DE0112969E012F5D3F4F52E00BC02D
:102960008C918452F90191919F01892711968C9342
:1029700011975F5F1196541798F3E52FF0E07E01F1
:102980000894E11CF11CD701AE0FBF1FEC0FFD1F17
:10299000878D99A189278C9328988FE70E9435020B
:1029A000870105C0F80181918F010E943502802FB7
:1029B0008E198D15B8F3289A8AE30E94570285E391
:1029C0000E94570203C085E00E94F90485E30E943B
:1029D0003B028130C1F78091C301882319F00E9426
:1029E0009E0201C059DCEC96E7E00C94D51FFC0177
:1029F00001962181223729F44ADF81E08093C301C7
:102A00000895233709F476CF1092C3010895282F33
:102A1000813091F45B9A2091080130910901C9013C
:102A2000880F991F820F931F0E94F4045B98809176
:102A300008019091090134C0809108019091090129
:102A4000222309F55B9A0E94F4045B982091080107
:102A500030910901C901880F991F820F931F0E94AD
:102A6000F4045B9A80910801909109010E94F4049A
:102A70005B982091080130910901C901880F991FC5
:102A8000820F931F20C05B9A0E94F4045B982091F0
:102A9000080130910901C901880F991F820F931F06
:102AA0000E94F4045B9A2091080130910901C90148
:102AB000880F991F820F931F0E94F4045B988091E6
:102AC0000801909109010C94F4040F931F93CF9384
:102AD000DF93EA98209A289A8EE190E00E94F4040D
:102AE00028988EE190E00E94F404289A8DE290E00C
:102AF0000E94F40480E30E94570284E690E00E9462
:102B0000F404289880E40E943502CEE8D2E0FE0169
:102B100084910E9435022196F2E0CB39DF07B9F7A4
:102B200080910C010E94350280910D010E943502B6
:102B300080910E010E9435022396FE0184910E942D
:102B400035022196F2E0C73BDF07B9F7289A2898AB
:102B50008EE70E9435028BE290E08C010F5F1F4FE1
:102B60000E94BD060E943502C80103331105A9F772
:102B7000289A83E30E94570281E00E94F90481E0D1
:102B80008093C402DF91CF911F910F910895CF924E
:102B9000DF92EF92FF921F93CF93DF937C01FC01B2
:102BA0008181843759F4C701029668E071E00E9480
:102BB0007C06809108019091090111C0833709F0CA
:102BC00095C0F7018281823789F4C70103966AE0D4
:102BD00071E00E947C0680910A0190910B0160E0F7
:102BE00040E20E9406060E94A805DAC0769A80910B
:102BF000C501882379F41E9B0DC08091C3018823F1
:102C000029F081E08093C4011092C3015EDF83E06C
:102C10000E94F90486E30E9457028AE30E94570249
:102C20008BE30E9457020E94AA02CC24DD2424C018
:102C30008A81803311F480E005C0813311F481E092
:102C400001C082E0E4DE1F5F21961D3089F75B9AA8
:102C500080910801909109010E94F4045B9810E0B2
:102C600080910801909109010E94F4041F5F1F31B7
:102C7000B9F70894C11CD11C80910A0190910B01F5
:102C8000C816D90618F4E70111E0D2CF8091C5012A
:102C9000882341F08091CC02882371F486E30E945E
:102CA00057020EC08091C401882349F01092C401DC
:102CB000EEDD81E08093C3010E949E0201C0ECDA48
:102CC000769889E60E94730583E70E947305E70101
:102CD00011E08A81803319F0813309F086E40E9483
:102CE00073051F5F21961D30A1F77DCF823771F4E8
:102CF0008091C301882329F081E08093C401109260
:102D0000C301E3DE81E08093C5014AC0863659F5F0
:102D1000F7018281803351F480E180930C0180EBD4
:102D200080930D0181E780930E0107C0C7010296D1
:102D30006CE071E043E00E94490689E60E94730559
:102D400086E60E9473058AE30E94730580910C0158
:102D50000E94020680910D010E94020680910E01E0
:102D60000E94020640CF8837D9F48091C40188239D
:102D700039F01092C4018BDD81E08093C30108C05B
:102D800082E090E00E9426038091CC02882319F013
:102D90000E949E0203C086E30E9457021092C50162
:102DA000DF91CF911F91FF90EF90DF90CF9008952A
:102DB000DC01EEECF1E00EC0109751F091818C91A6
:102DC000981731F4928111968C9111979817A1F070
:102DD000E20FF11D2081222321F082E0EC37F80779
:102DE00058F382E0EC37F80719F010F0ECE7F2E066
:102DF000AB2B11F0E0E0F0E0CF010895CF93DF932B
:102E0000EC01D6DFFC01009779F090917C02808183
:102E1000981750F4E90FF11D80818A8389E78B832D
:102E200081818C8381E001C080E0DF91CF910895A2
:102E30000F931F93CF93DF938C018091CC0286FF79
:102E400018C084E50E947305C0E0D0E0F801EC0FE3
:102E5000FD1F80810E9402062196C530D105B1F781
:102E60008091CC0285FF03C08AEF0E9402060E9477
:102E7000A805DF91CF911F910F91089586E30E94DD
:102E800057028091C901833511F08BE401C08BE9B1
:102E90000E94F90487EC91E065E04CE021E00E949B
:102EA0006A090E949E0287EC91E0C2CF1F93FC0149
:102EB0004081318112819381248189E280933B0397
:102EC0001092CD0150912403552329F480913A03A7
:102ED000882309F4CDC08091C701841721F4809123
:102EE000C801831771F0109226031092C60183E087
:102EF00080937C028FEF80933B034093C701309314
:102F0000C801809126038F3F09F4B2C01093C90114
:102F10009093CA012093CB011123E1F08823D1F4CF
:102F2000251761F0243651F0812F8355823010F03F
:102F30001D3721F48FEF809326039AC0143509F4CE
:102F400097C0892F807F803609F092C09067909358
:102F5000CA0183C087EC91E051DF882329F4809176
:102F60002603882309F484C09091C601992311F0A7
:102F7000892F06C0E0912603F0E0E954FD4F8491CB
:102F8000833541F4143531F4809126038E5F8093AC
:102F900026030BC0811749F0109226031092C60138
:102FA00083E080937C028FEF61C0992379F0809158
:102FB0007C028E5F80937C0287EC91E01FDF882388
:102FC00071F4809126038E5F8093260390912603EF
:102FD000E92FF0E0E854FD4F14911F3F59F4809120
:102FE000C9018093C6018436C1F580912503809381
:102FF000CB0133C01093C90187E78093CA01809148
:1030000024038093CB01892F8E5F80932603109237
:10301000C6018E3001F587EC91E0CADEFC01009715
:1030200081F0808190E02CE732E0281B390BDF0132
:10303000A80FB91F02C08D918193E217F307D8F34F
:103040001082109226031092C60183E080937C02C6
:103050008FEF80933B03112359F010DF8091C9015A
:10306000893631F081E08093CD0189E280933B0382
:103070001F9108958091CD01882351F0FFDE89E2F0
:1030800080933B038091CD0181508093CD010895C1
:10309000109226031092C60183E080937C028FEF8A
:1030A00080933B030895A6E0B0E0E8E5F8E160C74F
:1030B00040913A0380912703882341F0833019F02F
:1030C0008DE790E015C087E791E012C0842F90E073
:1030D000877090702DE730E0BC01629FC001639F54
:1030E000900D729F900D1124825B9F489595879556
:1030F00090932903809328034A831B820AE213E0FA
:10310000FF246E010894C11CD11C8CE2E82EF8014A
:1031100090819F3FB1F0809124038F0D898380912E
:103120002703882311F0EC8203C09C83F80181817E
:103130008D83C60165E04CE021E00E946A09C6016A
:1031400077DEF3940E5F1F4FF8E0FF1601F78091D2
:103150002703882341F0833019F41092270303C01A
:103160008250809327032696E8E01EC785E390E00F
:103170000E94BD068093240386E390E00E94BD0672
:1031800080933A03EAE2F3E09FEF9083329683E084
:10319000EA33F807D1F7109226031092C60183E0B4
:1031A00080937C0290933B031092CE0108956F921E
:1031B0007F929F92AF92BF92CF92DF92EF92FF9257
:1031C0000F931F93DF93CF9300D000D000D0CDB7E3
:1031D000DEB73C017C010894E11CF11CC701BE0173
:1031E0006F5F7F4F45E00E944906E981843008F017
:1031F000ACC0E130A9F4833061F485E390E06A81EA
:103200000E94FC0686E390E06B810E94FC06AEDF24
:1032100022C1809124030E94020680913A0390C04B
:10322000E23009F04DC0813029F020E030E08A81A1
:10323000813011F421E030E0E22E8091CE0188232C
:1032400021F48FEC92E00E94AC050EEC11E02EC050
:1032500081E00E3C180719F080E20E947305F80126
:1032600081810E940206F80182810E940206EE20FE
:10327000C9F08AE30E94730553E0F52E0FC0F3E016
:10328000FF1528F4F0FE03C08CE20E947305F801DC
:10329000EF0DF11DF39480810E940206F8018081F8
:1032A000F81668F3F8018081080F111DF80180817C
:1032B000882309F447C0F2E00C371F0748F242C0E8
:1032C000E33049F480E090E073DD2EEC31E02255EC
:1032D000281B822F35C0E03149F50AE213E0EE24C5
:1032E000FF24F80180818F3FA1F0EE2019F080E2E9
:1032F0000E9473058F2D0E9402068AE30E947305C7
:10330000F80180810E940206F80181810E94020674
:10331000E3940E5F1F4FF394F8E0FF1611F7EE20D1
:1033200089F48BEC92E00E94AC050CC0E13151F4C1
:1033300080912803909129036DE770E0FBD5862FDB
:103340000E9402060E94A80586C080912403E81707
:10335000D0F1482F50E0F0E0CA0107968E179F0782
:1033600094F19A8180913A03981769F58C818F3294
:1033700031F4C3016CE042E00E94DF096CC02D8192
:103380008C32C1F42093270381E090E090932903CD
:103390008093280330E0220F331F220F331F8091C8
:1033A000CA029091CB02820F931F9093CB0280931D
:1033B000CA0251C0E41BF50BEE0FF0E0E65DFC4FD6
:1033C0008083218348C080E090E0F2DC8C01D7014B
:1033D0000D900020E9F71197AE19BF09B695A79592
:1033E0009A2E9394890D911D8E5C91408F3A910590
:1033F00074F5F80190827801DD24D394CC24C39431
:103400001BC057010894A11CB11CC3018C0D911D58
:10341000B50141E00E944906F2E0FD1548F4D0FCF8
:1034200007C0F7018081843619F4818180932503D8
:10343000F2E0CF0ED3947501D91418F382E00C3763
:10344000180748F40D0D111DF801108204C085EC19
:1034500092E00E94AC0526960FB6F894DEBF0FBE30
:10346000CDBFCF91DF911F910F91FF90EF90DF9033
:10347000CF90BF90AF909F907F906F900895A0E401
:10348000B0E0E4E4FAE174C580913C03882309F4D8
:103490004AC08130B1F490917D028091C6029817A4
:1034A00009F441C085E30E943B02813129F48AE39B
:1034B0000E9457020E949E028091C60280937D0264
:1034C00032C08FE30E943B02D82E8FE38D1540F16E
:1034D00028988FEF0E9435027E010894E11CF11CB0
:1034E0008701CE2C06C080E00E943502F80181934E
:1034F0008F01802F8C198D15B0F3289A81E080936D
:103500001A0105C0F70181917F010E9473058E2D7C
:103510008C198D15B8F30E94A8058FEF80931A01BE
:1035200081E080933C03C05CDF4FE8E03DC50F9332
:103530001F93CF93DF93EC01DC010D900020E9F79E
:103540001197A81BB90B8981823751F487E390E06A
:103550000E9426030E949E0281E080933C0329C0C2
:10356000833729F50A2F28988FE70E943502802F8C
:1035700082500E94350212E004C089810E94350207
:103580001F5F21961017C8F3289A0E94AA0204C050
:1035900084E690E00E94F4048AE30E943B0290E0FB
:1035A0008F779070892BA1F70E949E0202C0109223
:1035B0003C03DF91CF911F910F9108950F931F93BB
:1035C000CF93DF93EC0100E0802F90E09C01220F6D
:1035D000331F280F391FF901E455FF4F1491F901EA
:1035E000E355FF4F25913491112399F0209739F439
:1035F00080E20E947305812F0E94730508C08881B4
:10360000811729F4CE01F901099581E003C00F5F0C
:10361000DBCF80E0DF91CF911F910F9108951F9331
:1036200010911A0180931A0135C080E893E00E943E
:10363000DB078A3011F08D3009F5E0917E02EE2330
:1036400049F1F0E0E158FD4F10828FE792E0B6DFDC
:10365000882389F48BEE92E00E94AC058FE792E01C
:103660000E94B90583ED92E00E94AC0580E090E0F5
:10367000A5DF0E94A80510927E020CC090917E02E8
:10368000903440F4E92FF0E0E158FD4F80839F5FD4
:1036900090937E0280918203882339F610931A0159
:1036A0001F910895E4E6F0E080818B7F8083299A62
:1036B00084B1876084B9239880E58CBD8DB5816025
:1036C0008DBD08954091D0035091D103411551050E
:1036D00021F4409111015091120120911301309178
:1036E00014012115310541F42DB73EB780910F012A
:1036F00090911001281B390B4217530718F020E056
:1037000030E002C0241B350BC901089582E40E94F9
:1037100073058091D0039091D10365E040E20E944F
:1037200006060E94A80583E50E9473058091110199
:103730009091120165E040E20E9406060E94A805F1
:1037400085E40E947305809113019091140165E056
:1037500040E20E9406060E94A80586E40E947305C6
:10376000B1DF65E040E20E9406060C94A805A2E0E5
:10377000B0E0ECEBFBE102C4E8ECF3E08091F10097
:10378000819383E0E03DF807C9F78091C803309149
:10379000C903353009F49FC0363048F4313009F49C
:1037A0004BC0313070F0333009F023C145C03830A0
:1037B00009F4D7C0393009F4FCC0363009F019C11A
:1037C000B4C0803821F0823809F013C108C090914C
:1037D000C3038091C403882391F0926010C080914C
:1037E000CC038093E9008091EB0090E025E0969572
:1037F00087952A95E1F7982F91701092E9008091B2
:10380000E800877F8093E8009093F1001092F10028
:103810008091E800982F9E7F9093E8008F778093A7
:10382000E80005C08091C703882309F4E4C08091B3
:10383000E80082FFF7CFB3C0882319F0823009F087
:10384000D8C090E08F719070009719F00297B9F589
:103850000CC08091CA03813009F0CDC01092C4031E
:10386000333069F58093C4032AC08091CA0388234A
:1038700031F52091CC03277009F4BDC02093E900F5
:103880008091EB0080FF1BC03130A1F48091EB00F0
:1038900080618093EB0081E090E002C0880F991F67
:1038A0002A95E2F78093EA001092EA008091EB00FB
:1038B000886003C08091EB0080628093EB001092DF
:1038C000E9008091E800877F8093E8008091E8001C
:1038D000982F9E7F68C0882309F08BC02091CA036F
:1038E0008091E800877F8093E8008091E800982F1E
:1038F0009E7F9093E8008F778093E80005C08091C9
:10390000C703882309F477C08091E80080FFF7CFD0
:10391000922F9F77892F80688093E300992309F481
:103920006AC083E08093C70366C08058823008F085
:1039300060C08091CA039091CB036091CC03AE012B
:103940004F5F5F4F0E94F501BC01009709F453C01F
:103950008091E800877F8093E80089819A812AD14D
:103960001EC0803809F045C08091E800877F8093B1
:10397000E8008091C5038093F1008091E800982FC2
:103980009E7F9093E8008F778093E80004C0809139
:10399000C703882381F18091E80082FFF8CF8091EE
:1039A000E800982F9B7F9093E8008F778093E80042
:1039B00022C08823F1F42091CA032230E0F48091E0
:1039C000E800877F8093E8002093C5038091E8009A
:1039D000982F9E7F9093E8008F778093E8002223B2
:1039E00011F084E001C083E08093C7030E9440048B
:1039F00002C00E9402048091E80083FF0AC0809107
:103A0000EB0080628093EB008091E800877F8093D9
:103A1000E8002296E2E0CEC28093E9008091EB00BC
:103A200081608093EB001092ED006093EC00409376
:103A3000ED008091EE00881F8827881F089510925E
:103A4000F40090E09093E9001092F0001092E800EA
:103A50008091ED008D7F8093ED008091EB008E7F53
:103A60008093EB009F5F973069F708958091C803BA
:103A70008823BCF404C08091C7038823F9F08091A7
:103A8000E80082FFF8CF8091E800982F9B7F909309
:103A9000E8008F778093E80008958091C70388231A
:103AA00069F08091E80080FFF8CF8091E800982FBE
:103AB0009E7F9093E8008F778093E800089594E6C6
:103AC0008091EC0080FF05C08091E80080FF05C078
:103AD0001FC08091E80082FD1BC08091C70388232E
:103AE00011F482E008958091EB0085FF02C081E02F
:103AF00008958091E10082FFE3CF8091E1008B7F08
:103B00008093E100992311F483E008959150D8CF78
:103B100080E00895FC014091CE035091CF039B01BA
:103B20004617570708F49A0140E032C08091E80038
:103B300083FF02C081E008958091E80082FD32C0D9
:103B40008091C7038823A1F18091E80080FF20C005
:103B500005C081918093F10021503040211531053D
:103B600031F08091F2009091F300089790F38091EA
:103B7000F2009091F30040E0089709F441E0809151
:103B8000E800982F9E7F9093E8008F778093E8005D
:103B90002115310559F6442349F604C08091C70325
:103BA000882331F08091E80082FFF8CF80E008950B
:103BB00082E00895DC014091CE035091CF039B0138
:103BC0004617570708F49A0140E034C08091E80096
:103BD00083FF02C081E008958091E80082FD34C037
:103BE0008091C7038823B1F18091E80080FF22C053
:103BF00007C0FD011196E491E093F100215030409F
:103C00002115310531F08091F2009091F300089771
:103C100080F38091F2009091F30040E0089709F45E
:103C200041E08091E800982F9E7F9093E8008F7785
:103C30008093E8002115310549F6442339F604C084
:103C40008091C703882331F08091E80082FFF8CF8C
:103C500080E0089582E00895FC0124C08091E8008E
:103C600083FF02C081E008958091C703882341F15A
:103C70008091E80082FFF2CF06C08091F10081932D
:103C80006150704031F08091F2009091F300892BE7
:103C9000A1F78091E800982F9B7F9093E8008F77A1
:103CA0008093E80061157105C9F604C08091C703CF
:103CB000882331F08091E80080FFF8CF80E00895FC
:103CC00082E0089567D06ED01092C7031092C503AA
:103CD0001092C4031092C3038AE482BF19BC89B551
:103CE000826089BD09B400FEFDCF8091D800982F75
:103CF0009F779093D80080688093D8008091D700F8
:103D000081608093D7008091D8008F7D8093D80008
:103D10008091E0008B7F8093E0008091E0008E7FB7
:103D20008093E0008091E1008E7F8093E10080919C
:103D3000E20081608093E2008091E100877F8093C0
:103D4000E1008091E20088608093E2008091D800D9
:103D500081608093D8000895B5DFE0EEF0E08081C7
:103D600081608083E8EDF0E080818F77808319BCEB
:103D700080818F7E80831092C6030895A3DFE8EDD3
:103D8000F0E080818061808381E08093C603789435
:103D900008950895E8EDF0E080818E7F8083109291
:103DA000E20008951092DA001092E10008951F9247
:103DB0000F920FB60F9211242F933F934F935F935F
:103DC0006F937F938F939F93AF93BF93EF93FF93E3
:103DD0008091DA0080FF15C08091D80080FF11C06B
:103DE0008091DA008E7F8093DA008091D90080FF85
:103DF00005C081E08093C703CCDF03C01092C703E6
:103E0000C8DF8091E10080FF1DC08091E20080FF4B
:103E100019C08091E1008E7F8093E1008091E200E3
:103E20008E7F8093E2008091E20080618093E200C7
:103E30008091D80080628093D80019BC85E080937F
:103E4000C703A7DF8091E10084FF29C08091E200D1
:103E500084FF25C019BC89B5826089BD09B400FE04
:103E6000FDCF8091D8008F7D8093D8008091E100B4
:103E70008F7E8093E1008091E2008F7E8093E2004C
:103E80008091E20081608093E2008091C5038823E5
:103E900011F483E001C084E08093C7037ADF80914E
:103EA000E10083FF23C08091E20083FF1FC0809167
:103EB000E100877F8093E10082E08093C703109246
:103EC000C5038091E1008E7F8093E1008091E20044
:103ED0008E7F8093E2008091E20080618093E20017
:103EE000AEDD80E060E042E097DD53DFFF91EF91CF
:103EF000BF91AF919F918F917F916F915F914F9102
:103F00003F912F910F900FBE0F901F9018951F9308
:103F10008091C703882361F01091E9001092E900B5
:103F20008091E80083FF01C022DC17701093E90044
:103F30001F910895AA1BBB1B51E107C0AA1FBB1FFD
:103F4000A617B70710F0A61BB70B881F991F5A9525
:103F5000A9F780959095BC01CD0108952F923F92CD
:103F60004F925F926F927F928F929F92AF92BF9289
:103F7000CF92DF92EF92FF920F931F93CF93DF9335
:103F8000CDB7DEB7CA1BDB0B0FB6F894DEBF0FBE92
:103F9000CDBF09942A88398848885F846E847D84DF
:103FA0008C849B84AA84B984C884DF80EE80FD80E1
:103FB0000C811B81AA81B981CE0FD11D0FB6F89457
:103FC000DEBF0FBECDBFED010895F999FECF92BDC2
:103FD00081BDF89A992780B50895262FF999FECFCB
:103FE0001FBA92BD81BD20BD0FB6F894FA9AF99A16
:0A3FF0000FBE01960895F894FFCF6C
:103FFA008025000000000802A401060010B071200C
:06400A0000D403000000D9
:00000001FF
