:1000000013C1000037C1000035C1000033C100003A
:1000100031C100002FC100002DC100000C94110C53
:1000200029C1000027C100000C94BA2923C1000097
:1000300021C100001FC100001DC100001BC1000044
:1000400019C100000C94EE0C15C1000013C1000092
:1000500011C1000011C400000DC100000BC100005F
:1000600009C1000007C1000005C1000003C1000074
:1000700001C10000FFC00000FDC00000FBC0000087
:10008000F9C00000F7C00000F5C00000F3C0000098
:10009000F1C00000EFC0000042900643690246C56F
:1000A0000952C607547C1157DA06567D0658D10FFF
:1000B00065AA0666E6126C810671451674BE047860
:1000C00068030000001201100102000008EB034B5E
:1000D0002000000102DC0109024300020100807DD2
:1000E000090400000102020100052400011005249A
:1000F000010301042402060524060001070582030A
:100100000800FF09040100020A00000007050402BC
:1001100020000007058302200000040309041603E1
:1001200062007500730077006100720065002E00A8
:100130006400650000002A03430055004E000000E3
:1001400027675081C20D2E2D07D3913D0432000048
:1001500006002165E855E43023B900073018146C17
:10016000070090876BF85611E92A001F4100202FE5
:100170002000203D20005620312E32382043554E9D
:1001800000202F2000203D20004C4F56460D0A0035
:10019000424F56460D0A0000535300547D7DFFFF29
:1001A0004B4B7E7E00454F42004E2F4100072E3FB5
:1001B0000DE9CAFF0C450000060021656AC89313CB
:1001C00022F834070018166C434091876BF85611DB
:1001D000A90A0011410020697320756E6B6E6F775C
:1001E0006E2920557365206F6E65206F66003F2075
:1001F0002800303030343235003233323300313978
:10020000322E3136382E302E31003235352E323501
:10021000352E3235352E30003139322E3136382EEA
:10022000302E323434003100819A89988FEF82B9B0
:1002300088B980E8809374001092750011241FBE65
:10024000CFEFD0E1DEBFCDBF11E1A0E0B1E1E8E248
:10025000F5E502C005900D92AA32B107D9F71AE16F
:10026000AAE2B1E101C01D92A236B107E1F74DD07B
:100270000C94922AC5CEFB01DC0105900D92002062
:10028000E1F70895FB01DC0104C08D910190801914
:1002900021F441505040C8F7881B990B0895FB0189
:1002A000DC0102C001900D9241505040D8F70895F2
:1002B000DC0101C06D9341505040E0F70895FB010F
:1002C000DC0101900D920020E1F70895DF92EF929A
:1002D000FF920F931F937B018C01FB010995D82E90
:1002E000C8010196F7010995982F8D2D1F910F9147
:1002F000FF90EF90DF900895F89481E085BF82E051
:1003000085BFE0E0F8E709950895569A5E980E9447
:10031000AA133DD504B603FE18C0F999FECF83E3B6
:1003200090E092BD81BDF89A80B5882371F0F9996B
:10033000FECF1FBA83E390E092BD81BD10BC0FB623
:10034000F894FA9AF99A0FBED7DF89EF87BD84E057
:1003500085BD82E084BD80936E00109280008AE0AB
:100360008093810080E090E020E80FB6F89420931D
:100370006100809361000FBE84B7877F84BF2FE048
:1003800088E190E00FB6F894A895809360000FBEC6
:1003900020936000519A809107119091081160E2BA
:1003A0005DD68091091190910A1160E257D60E94A2
:1003B0009C290E9431130E941A140E946611E8D7EA
:1003C00081E08093F71259980E946B2A99D10E947C
:1003D0005C0D9AD28091FE12882311F00E948C123B
:1003E0000E942C15F1CFDA01292F33272230310555
:1003F00059F02330310569F02130310511F5E5EC74
:10040000F0E022E130E021C0E7EDF0E023E430E06D
:100410001CC090708130910551F08130910518F029
:10042000029779F408C0EAE1F1E0849107C0EEE1B7
:10043000F1E0849103C0E6E3F1E08491282F30E0FD
:1004400004C0E0E0F0E020E030E0ED93FC93C9016F
:1004500008958EBD0DB407FEFDCF8EB508958B981F
:10046000806C8EBD0DB407FEFDCF8EB56EBD0DB494
:1004700007FEFDCF8EB58B9A089560E0F0CF0F9305
:100480001F931FEF04E309C08B980EBD0DB407FE48
:10049000FDCF8EB58B9A115029F085E3EEDF8F7179
:1004A0008D3091F7EE9A1F910F9108958B988EBD24
:1004B0000DB407FEFDCF8EB58B9A08958B9886E319
:1004C0008EBD0DB407FEFDCF8EB58B9A1092A7128C
:1004D00008950F931F93DF93CF930F92CDB7DEB79D
:1004E0000196BE016F5F7F4F41E04CD3892B41F1F4
:1004F0008981833689F400E010E0802FBEDFF1D2DD
:10050000C80187709070079709F48CD20F5F1F4F56
:100510000932110591F713C0B0DF182F83E45CD2C4
:100520008981DFD282E791E081D2812FDAD28EE613
:1005300091E07CD2812F90E062E040E2D6D272D28C
:100540000F90CF91DF911F910F9108951F93EE9817
:100550008B9886E38EBD0DB407FEFDCF8EB58B9ACA
:100560001FEF0DC08B9885E38EBD0DB407FEFDCF48
:100570008EB58B9A8AE090E020D2115029F085E365
:100580007CDF8F71833171F71F9108951F93CF9393
:10059000DF93E82F8B3010F0E8E002C0863008F0DF
:1005A000E5508BE290E0F0E0E05CFE4F1491EC014E
:1005B0002196CD3211F060E001C0612F75D3C333B5
:1005C000D10511F0CE01F3CFDF91CF911F910895A6
:1005D000CF93DF9382E090E0EC012196FE01EE5B89
:1005E000FE4FE4916E2F60D3CB32D10511F0CE01D6
:1005F000F3CF88E0CBDFDF91CF910895EF92FF92A8
:100600000F931F93CF93DF938C017B01EE98839A16
:100610008B9A8EE190E0D1D18B988EE190E0CDD194
:100620008B9A8DE290E0C9D18B9880E38EBD0DB49A
:1006300007FEFDCF8EB58B9A84E690E0BED18B98F5
:1006400080E48EBD0DB407FEFDCF8EB5C0E0D0E0D6
:10065000C8018C0F9D1F35D38EBD0DB407FEFDCF95
:100660008EB52196C932D10599F78B9A8B988EE772
:100670008EBD0DB407FEFDCF8EB5C0E0D0E0C70142
:100680008C0F9D1F1ED38EBD0DB407FEFDCF8EB502
:100690002196C830D10599F78B9A8B9883E38EBD4C
:1006A0000DB407FEFDCF8EB58B9A81E090E08AD124
:1006B000DF91CF911F910F91FF90EF90089582E00D
:1006C00090E06BE270E09ADF81E08093A7120895DA
:1006D000DF93CF930F92CDB7DEB722E02983019647
:1006E000BE016F5F7F4F41E04DD289814FDF82E0D5
:1006F00090E06BE270E082DF0F90CF91DF91089580
:100700008091591A843009F060C08093E90080918B
:100710002A11882319F58091E80085FD06C01EC0C6
:100720006091F10088EA92E19FD48091F20090916B
:10073000F300892BA9F78091E800982F9B7F909375
:10074000E8008F778093E80081E080932A11E091A0
:10075000CC12F091CD12099510922A1183E080936A
:10076000E9008091D112882381F18091E80085FF12
:100770002CC0F89405C08EEC92E189D48093F100EE
:100780008091D112882331F08091F2009091F30092
:10079000809788F378948091F2009091F3002091F3
:1007A000E800322F3E7F3093E8002F772093E80057
:1007B000809759F40E943E288091E800982F9E7FF0
:1007C0009093E8008F778093E800089590915A1AEB
:1007D00080915B1A813229F0823261F1803299F581
:1007E00012C0913A81F58091E800877F8093E800FC
:1007F00080E091E167E070E00E9469288091E80064
:10080000982F9B7F11C09132F1F48091E800877F8F
:100810008093E80080E091E167E070E00E940B299E
:100820008091E800982F9E7F9093E8008F778093C7
:10083000E8000895913239F48091E800877F809331
:10084000E8000C941528089582E061EC42E00E94D3
:10085000EB2783E061E842E20E94EB2784E060E856
:1008600042E20E94EB2710920011109201111092A7
:1008700002111092031108951F920F920FB60F925A
:1008800011242F938F939F932091F4122F5F209325
:10089000F41280912B1190912C11019690932C11B0
:1008A00080932B112D3710F18091F5128F5F80937B
:1008B000F5121092F4128C33C9F48091F2128F5F0A
:1008C0008093F2121092F5128C3381F48091F3121E
:1008D0008F5F8093F3121092F212883139F4809175
:1008E000F6128F5F8093F6121092F3129F918F9100
:1008F0002F910F900FBE0F901F90189520912B11E4
:1009000030912C11C90108959091F41280912D110C
:10091000891799F190932D118091FD12882339F058
:1009200081508093FD12882311F40E945011909100
:10093000F51280912E11891701F190932E11A8952F
:1009400080910B1181FF04C08BB192E089278BB994
:100950008091F8129091F91223E08438920728F4DC
:1009600001969093F9128093F8129091F21280916F
:100970002F11891711F090932F1108958091F6127D
:1009800090E063E040E3B1D080E226D08091F312A2
:1009900090E062E040E3A9D08AE31ED08091F21299
:1009A00090E062E040E3A1D08AE316D08091F51296
:1009B00090E062E040E399D035C0880F991F01971D
:1009C000F1F7089520ED37E004C0F9013197F1F710
:1009D00001970097D1F708951F93CF93DF93182FB6
:1009E0008091F71283FF03C0812F0E9438168091F7
:1009F000591A843099F48091F71280FF0FC0C0918A
:100A00000711D09108119B818881981708F078DE32
:100A1000CE01612F29D31A3009F472DEDF91CF9114
:100A20001F9108958DE0D8DF8AE0D6CFCF93DF9372
:100A3000EC0102C0D1DF2196FE0184918823D1F719
:100A4000DF91CF910895CF93DF93EC0102C02196FF
:100A5000C3DF88818823D9F7DF91CF910895DF9391
:100A6000CF9300D000D00F92CDB7DEB71D82FE012C
:100A7000349624E0582F5F7021505A3018F4352FE7
:100A8000305D02C0352F395C308334E09695879510
:100A90003A95E1F761503197009761F72150822F25
:100AA000992787FD90952F5FFE013196E80FF91F7A
:100AB00003C0215040833197615067FD02C0121678
:100AC000C4F3332727FD3095CE010196820F931F83
:100AD000BADF0F900F900F900F900F90CF91DF9192
:100AE000089590E062E040E3BACF0F931F93DF9345
:100AF000CF9300D000D000D0CDB7DEB79C01162F29
:100B0000042F1E82FE01359645E04150C9016AE07E
:100B100070E00E947E2A805D8083C9016AE070E0F7
:100B20000E947E2A9B0111506115710559F44150B4
:100B3000842F992787FD90954F5FFE013196E80F2E
:100B4000F91F07C03197442301F7F1CF41500083CB
:100B50003197115017FD02C01416C4F3242F332708
:100B600027FD3095CE010196820F931F6CDF2696EC
:100B70000FB6F894DEBF0FBECDBFCF91DF911F91AE
:100B80000F910895DC01FB0123C0822F80538A302E
:100B900010F050E002C0382B51E0822F8154863093
:100BA00020F42753322B295C51E0822F8156863066
:100BB00018F42755322B07C0552329F4203271F041
:100BC0002A3361F00EC0992331F03193415049F03E
:100BD00030E090E003C03295307F91E02D912223E8
:100BE000A1F6CF01861B970B0895DC01FB0120E0E5
:100BF00090E03AE014C0982F90539A3030F4239F3D
:100C0000202D1124290F91E00AC0803211F08E327C
:100C100069F4442319F02193415020E090E08D9134
:100C2000882349F7992311F0411121939F01261B35
:100C3000370BC9010895FC01DB0120E030E014C04E
:100C4000842F80538A3080F4C90163E0880F991F94
:100C50006A95E1F7220F331F820F931F242F30E094
:100C600020533040280F391F4191442349F72D93D9
:100C70003C930895FB01982F92959F709A3010F441
:100C8000905D01C0995C90838F708A3010F4805D14
:100C900001C0895C818308959C01F999FECF32BD22
:100CA00021BDF89A80B508959C01F999FECF1FBA2D
:100CB00032BD21BD60BD0FB6F894FA9AF99A0FBE05
:100CC00008959C01F999FECF32BD21BDF89A80B5F7
:100CD00008951F93CF93DF93EC0116E01150CE01DE
:100CE000F0DFFFDE112311F08AE376DE2196112377
:100CF000A9F7DF91CF911F91089586E791E096DEE5
:100D000091CE01966BE071E141E03CDF60910B1107
:100D100060FF02C0599A01C0599884E390E0C4CFA3
:100D2000DF93CF930F92CDB7DEB71982009731F0E2
:100D30000196BE016F5F7F4F41E024DF0E948A2948
:100D40008981882321F083E390E061E0ADDF109298
:100D50006E00FFCF0F931F938C013ADC0E94771235
:100D600080E090E061E0A0DF81E090E06CE19CDF5A
:100D700083E390E060E098DF84E390E062E094DF5A
:100D80000E949C15C801CCDF1F910F91089580E04F
:100D900090E097DF813029F481E090E092DF8C31A0
:100DA00019F080E090E0D6DF84E390E08ADF809362
:100DB0000B110895AF92BF92CF92DF92EF92FF9204
:100DC0000F931F93DF93CF9300D000D000D0CDB707
:100DD000DEB76C01FC018181893609F070C0828127
:100DE0008D3669F4C6010396BE016F5F7F4F46E002
:100DF000C9DE16E0D12EB0E6EB2EF12C4CC08436C5
:100E000061F4C6010396BE016F5F7F4F14DFDD24DE
:100E1000D394A6E6EA2EF12C3EC0813669F4C601D1
:100E20000396BE016F5F7F4F44E0DFDEF4E0DF2E0C
:100E3000E7E6EE2EF12C2FC08E3669F4C60103963C
:100E4000BE016F5F7F4F44E0D0DE74E0D72E6BE6CB
:100E5000E62EF12C20C0873669F4C6010396BE0148
:100E60006F5F7F4F44E0C1DE54E0D52E4FE6E42EA5
:100E7000F12C11C0803721F0DD24EE24FF240BC0BB
:100E8000C6010396BE016F5F7F4FD5DE32E0D32EE1
:100E900023E7E22EF12C5E010894A11CB11C9701FE
:100EA00009C089010F5F1F4FC901F50161915F0101
:100EB000FBDE9801822F8E198D1598F33FC0C60175
:100EC0000196BE016F5F7F4F43E05CDE082F8230EA
:100ED000A8F12981823019F4E22EFF2407C0922F55
:100EE00080E02A81E22EFF24E82AF92A10E0FE01A0
:100EF000E00FF11FC7016081D7DE000F111F0F5FE8
:100F00001F4F0C0D1D1D0894E11CF11C6E0108946F
:100F1000C11CD11C0FC0C801B60141E033DE892BD2
:100F200069F0C7016981C0DE0E5F1F4F82E090E06B
:100F3000E80EF91EF8018081882369F726960FB61E
:100F4000F894DEBF0FBECDBFCF91DF911F910F91FF
:100F5000FF90EF90DF90CF90BF90AF9008951F93D8
:100F6000CF93DF93EC0114E01150CE01AADE90E0A4
:100F700061E040E2BADD112311F08EE22DDD219611
:100F8000112391F7DF91CF911F910895EF92FF9276
:100F90001F93DF93CF9300D0CDB7DEB7FC018181E3
:100FA000893639F582818D3621F480E690E091DE34
:100FB0004CC0843629F486E690E083DE92DD45C09D
:100FC000813619F487E690E009C08E3619F48BE675
:100FD00090E004C0873621F48FE690E0C0DF35C092
:100FE000803799F583E790E06CE476E06FD960E0B4
:100FF0002AC01B821982CF010196BE016F5F7F4F0D
:1010000042E0C0DD2981823041F4922F80E02A81C4
:10101000E22EFF24E82AF92A02C0E22EFF24C701AB
:1010200050DE182F82E5D8DCC70164E040E317DD0D
:1010300085E891E0FBDC812F54DD81E891E0F6DC6E
:10104000812F90E062E040E250DDECDC0F900F90E9
:10105000CF91DF911F91FF90EF900895FC01608385
:101060001382118212820895DC01FC0183819C911C
:10107000891760F48F5F83838181E80FF11D64839A
:101080008F5FFD018183891709F411820895DC01C6
:10109000FC018381882311F420E00EC08150FD0102
:1010A00083838281E80FF11D24818F5FFD0182839C
:1010B0009C91891709F41282822F0895CF93DF93B0
:1010C000DB01EA01322F4881882369F0FB01E40F3C
:1010D000F11D81E090E002C0880F991F2A95E2F788
:1010E0002081282B2083332319F0832F815009C0BE
:1010F000842F8F5F803108F48883A80FB11D1C9264
:1011000087E090E0DF91CF9108951F93182F8A9A7E
:10111000882319F480E991E002C088E592E04DDC73
:101120008A98112319F480E991E002C088E592E0E1
:1011300044DC1F9108953F924F925F926F927F928D
:101140008F929F92AF92BF92CF92DF92EF92FF92D7
:101150000F931F93DF93CF93CDB7DEB762970FB690
:10116000F894DEBF0FBECDBF7C01162F842F322E28
:10117000B701412F20D1F701E10FF11D8083A12E8E
:10118000A39419821A824701BB24E7E032E0432E80
:10119000512C4C0E5D1E3E010894611C711C30C028
:1011A00007E010E06701CB0CD11C21E030E0002EFD
:1011B00002C0220F331F0A94E2F7D6018C918223DA
:1011C000B201A3012E2F7ADFE82F01501040BFEFAC
:1011D0000F3F1B0751F7D4018D914D01082E8295C9
:1011E0008025082E86958695802590E00196959518
:1011F00087958170B201A3012E2F60DFE82FB39491
:10120000BA1470F2EE2319F00E2F015004C0898138
:101210008F5F898307E019812091F8123091F912CC
:101220001E5F139D802D11241250992787FD9095E4
:101230002817390720F489E891E0F8DB65C0281BFE
:10124000390B3093F9122093F812599A8091A71212
:10125000882309F434DA7AD992E0A92EB12CAC0EA5
:10126000BD1E3501610E711C81E0482E512C802E6F
:101270009924C12EDD24C7FCD094CA0CDB1C10E0DD
:1012800080E043DF1F5F1C30D9F781E03EDF75014E
:1012900016C007E010E09201002E02C0220F331F9B
:1012A0000A94E2F7F701808182232FDF015010407A
:1012B000FFEF0F3F1F0779F70894E11CF11CE614BC
:1012C000F70439F707E010E00DC09201002E02C0CC
:1012D000220F331F0A94E2F7D6018C91822315DF87
:1012E000015010408016910684F38AE090E06ADB9A
:1012F0003A9409F0C4CF8091FA12882311F0BFD834
:1013000002C086E3D3D8599862960FB6F894DEBF30
:101310000FBECDBFCF91DF911F910F91FF90EF9046
:10132000DF90CF90BF90AF909F908F907F906F9005
:101330005F904F903F900895EF92FF920F931F930D
:10134000DF93CF93CDB7DEB761970FB6F894DEBFCA
:101350000FBECDBFF62EE42E01968E010F5F1F4FFC
:10136000B80140E10FDC682FC8014F2D2E2DE3DEC0
:1013700061960FB6F894DEBF0FBECDBFCF91DF915F
:101380001F910F91FF90EF90089566E043E0D4CF56
:10139000829A8A986E98EAE6F0E080818061808384
:1013A00082EC91E09093F9128093F8121092491117
:1013B0001092A7120895982F06C04150FB01E40F28
:1013C000F11D8081980F4423C1F7892F0895CF9292
:1013D000DF92EF92FF920F931F93CF93DF93DC0185
:1013E000109277111092651197E0FD018381981B8F
:1013F0001181110F110F110F190F10926611FF2497
:10140000EE2407E057E040E070E0E7E0CE2ED12C7C
:10141000C1E0D0E07FC0FD01EE0DF11D848190E0C0
:10142000002E02C0959587950A94E2F7282F217027
:10143000002311F0015002C0E39407E06B3469F41B
:10144000533059F47723B9F5222311F071E062C0CB
:1014500040936511109277111EC05F3F69F56634A5
:10146000E1F4E42FF0E0EA59FE4E8081082E8295E7
:101470008025082E86958695802590E00196959585
:1014800087958170907030E08217930761F04093E8
:1014900065117093771180E057C0653411F06B349B
:1014A00011F42223A1F34F5FE42FF0E0EA59FE4E3E
:1014B000108257E02FC070E0222359F1663479F48E
:1014C000E42FF0E0EA59FE4E9E01052E02C0220FE5
:1014D000331F0A94E2F78081822B80831AC065341F
:1014E00011F06B34B1F4E42FF0E0EA59FE4E852F91
:1014F000992787FD90959601281B390BC9019E01FC
:1015000002C0220F331F8A95E2F7C9012081282BE0
:1015100020835150F3948F2D8150811708F47BCF95
:1015200040936511709377111F1508F0B4CF65349F
:1015300011F45F3F11F0772319F04F5F409365116D
:1015400080916511811181E0DF91CF911F910F9101
:10155000FF90EF90DF90CF900895CF93DF93DC0161
:10156000EC018A81ED91FC91E80FF11DE0812B8166
:1015700021502B832F5F21F48F5F8A8387E08B8339
:101580008E2F90E002C0959587952A95E2F781709D
:10159000DF91CF9108958F929F92AF92BF92CF9299
:1015A000DF92EF92FF920F931F93CF93DF936C0123
:1015B000962E842EFF24C0E0D0E0F1E0AF2EB12CB7
:1015C000062F10E00150104019C0C601C6DF882365
:1015D000A1F0882059F0C8018C1B9D0B950102C019
:1015E000220F331F8A95E2F7C90106C0C50102C068
:1015F000880F991FEA94E2F7F82A2196EC2EC91574
:1016000020F38F2DDF91CF911F910F91FF90EF90DD
:10161000DF90CF90BF90AF909F908F900895AF9242
:10162000BF92CF92DF92EF92FF920F931F93DF93BF
:10163000CF9300D000D0CDB7DEB7FC0187E08C831C
:101640003496FA83E983349710926511818190E092
:1016500013E0880F991F1A95E1F72381821B9109E6
:10166000CE970CF45AC01B82CC24DD245E01089472
:10167000A11CB11C2EC0ED2CFF24C50168E040E088
:101680008ADF082F86E691E1E80EF91EF701008354
:10169000002E02950025002E069506950025C50111
:1016A0005CDF10E00F5F1F4F1595079501701070FC
:1016B00090E00817190731F4C5014FDF9D2D9F5F9A
:1016C000882319F0D092651128C0F7018081C826BF
:1016D000D92EF5E0FD1578F6D0926511C50168E0C8
:1016E00040E059DFF82E082F002E02950025002E2D
:1016F000069506950025C50130DF10E00F5F1F4FEE
:10170000159507950170107090E00817190729F4D6
:1017100080E0CF1419F481E001C080E00F900F90B9
:101720000F900F90CF91DF911F910F91FF90EF904D
:10173000DF90CF90BF90AF900895FC018181A82FDA
:10174000B0E050E0E081CD01841B950B0B964797EC
:10175000D8F48E2F90E070E09C01261B370B2C30C4
:10176000310594F4255F3F4F7CF08A0F9B1F861B49
:10177000970B841B950B8C30910534F420E0855F2A
:101780009F4F1CF021E001C020E0822F0895282FF8
:1017900030E0C901880F991F820F931F860F911D9A
:1017A00095958795959587950895CF93DF93DC015F
:1017B000EC018981813190F010926F00809162116B
:1017C00090E029E130E0829FF001839FF00D929F2D
:1017D000F00D1124E05DFE4E108220C0662379F0EA
:1017E000FD01E80FF11D81E090E0ED010B8002C0EA
:1017F000880F991F0A94E2F72481282B2483FD0186
:101800008381815083838F5F49F487E08383818163
:101810008F5F8183A80FB11DED011C82DF91CF91F5
:1018200008951F920F920FB60F921124EF92FF921C
:101830000F931F932F933F934F935F936F937F93D8
:101840008F939F93AF93BF93CF93DF93EF93FF93C8
:101850008091FE12882321F082E08093FE12A7C0BF
:10186000809184009091850054E0969587955A95D3
:10187000E1F7182FE090621189E1E89EE001112460
:10188000C05DDE4E8881843031F41E3208F48FC092
:101890001F3408F07CC066990CC0843039F4CE0146
:1018A00061E083DF109285001092840010938E1106
:1018B0007EC000918E11F12EF01AF0928F111092CD
:1018C000850010928400843009F45DC092E096BBDC
:1018D000882331F40D8BFE8A81E08A83988367C068
:1018E0008230A1F5CE014596602F4F2D26DF1A815B
:1018F000882359F08D89602F4ADF8D8B8E896F2D5B
:1019000046DF8E8B1F5F1A8352C0143008F43FC02D
:101910001C3050F02E898D8990E0820F911D853604
:10192000910514F084E001C083E088830F8BF88E6A
:10193000198287E08B831C8280EA9FE09093890064
:101940008093880082E080936F0031C0CE0147967B
:10195000602F4F2DF2DE882379F0CE0161E025DF84
:101960008981882321F58F89602F11DF8F8B888DE6
:101970006F2D0DDF888F1BC0CE014596602F4F2D38
:10198000DCDE882321F0CE0160E00FDF10C0109272
:101990006F002E2D30E089E190E0289FF001299F13
:1019A000F00D389FF00D1124E05DFE4E1082FF9186
:1019B000EF91DF91CF91BF91AF919F918F917F91E7
:1019C0006F915F914F913F912F911F910F91FF90D8
:1019D000EF900F900FBE0F901F9018951F920F92CF
:1019E0000FB60F9211242F933F934F935F936F93F2
:1019F0007F938F939F93AF93BF93EF93FF93109237
:101A00006F008091FA1283FF03C08EE20E94EC0403
:101A100040916211242F30E089E190E0289FF0018D
:101A2000299FF00D389FF00D1124E05DFE4E80815E
:101A3000833018F08181823028F410926F0089E1A0
:101A400090E013C0809164118130D1F48091FA123A
:101A500082FF04C080E991E00E94160510926F0099
:101A60008091621190E029E130E0829FF001839F34
:101A7000F00D929FF00D1124E05DFE4E10820BC020
:101A80008F5F80936411842F8F5F80936211823007
:101A900011F410926211FF91EF91BF91AF919F915C
:101AA0008F917F916F915F914F913F912F910F9007
:101AB0000FBE0F901F901895AF92BF92CF92DF92FA
:101AC000EF92FF920F931F93CF93DF9380918F112B
:101AD0008823E1F08091FA1283FF16C082E70E940A
:101AE000EC048091FA1284FF04C080918E110E9450
:101AF000EC0486E60E94EC048091FA1284FF04C094
:101B000080918F110E94EC0410928F1180916411CA
:101B1000882309F431C2599A9091631189E1989F01
:101B2000E0011124C05DDE4ECE0166E450DC882366
:101B300049F190916511915090936511292F36E0EC
:101B400007C02150E22FF0E0EA59FE4E8081380FA5
:101B50002223B9F7E92FF0E0EA59FE4E408134170D
:101B600019F406E4F02E93C02CE007C09150E92F41
:101B7000F0E0EA59FE4E8081280F9923B9F7241727
:101B800009F4D9C1CE0165E422DC882309F4D6C169
:101B900080916511815080936511893009F0CEC123
:101BA00099E020E09150E92FF0E0EA59FE4E808163
:101BB00028279923B9F780916F11281709F0BEC122
:101BC00015E4F12E64C030916511315030936511E8
:101BD00050917711232F40E090E011C02150E22F67
:101BE000F0E0EA59FE4EE0818E2F82958F709827A3
:101BF000552311F0442311F0EF709E274F5F2223ED
:101C000069F7892F90E0E32FF0E0E51BF109EA592D
:101C1000FE4E208130E02F7030708217930761F004
:101C20008B818F5F8B838150873009F0A0C11B822D
:101C30008981815089839BC1BBE4FB2E28C08B81A5
:101C4000843009F0FEC0CE0145966CE34EE175DDAF
:101C5000882309F4F6C0C80160918E114EE16DDD54
:101C6000682FCE01A2DD8C81809366118D818093D7
:101C700067118E81809368118F81809369118885A7
:101C800080936A1185E080936511A2E5FA2E809118
:101C9000FA12E82E80FFD6C081FF02C020E084C087
:101CA0008091F61228E1829FC00111242091F31245
:101CB000820F911D4CE350E05C01A49EC001A59EE3
:101CC000900DB49E900D11242091F212820F911D5F
:101CD0006C01C49EC001C59E900DD49E900D112430
:101CE0002091F512820F911D2DE730E0AC01429F4B
:101CF000C001439F900D529F900D11242091F4122A
:101D0000820F911DAC01662757FD6095762F0091DB
:101D1000781110916511011761F51092781120E08A
:101D20000EC0E22FF0E0322F3F5FDF01AA59BE4E16
:101D3000E758FE4E90818C91981719F4232F2017A5
:101D400080F32117B1F480918A1190918B11A091A9
:101D50008C11B0918D115A016B01A81AB90ACA0AE7
:101D6000DB0AD601C5018697A105B10510F421E073
:101D700001C020E01092781190E00AC0E92FF0E055
:101D8000DF01AA59BE4E8C91E758FE4E80839F5FBB
:101D90009117A0F39093781140938A1150938B116F
:101DA00060938C1170938D11F4E5BF2EFB1491F4A8
:101DB000E6FC10C0809168118B3409F443C0893669
:101DC00009F440C08335F1F18435E1F18D37D1F16B
:101DD0008E37C1F12223B1F58F2D0E94EC04809142
:101DE0007711882329F080916511815080936511C6
:101DF00010E008C0E12FF0E0EA59FE4E80810E9419
:101E000071051F5FE09165111E17A0F38091771196
:101E1000882359F0F0E0EA59FE4E808190E08F70FF
:101E2000907061E040E30E942F058091FA1285FFD7
:101E300005C084E30E943D020E9471050E941205C4
:101E400001C0FF248091FA1282FF59C080E70E94EE
:101E5000EC04888190E062E040E20E9475058D8983
:101E600090E064E040E20E9475058E8990E064E0B5
:101E700040E20E9475058F8990E064E040E20E9494
:101E80007505888D90E064E040E20E9475058A81C6
:101E900090E063E040E20E947505898190E063E094
:101EA00040E20E9475052B8187E090E0821B91093A
:101EB00062E040E20E94750580E20E94EC0480919D
:101EC000FA1285FF08C084E30E943D020E9471055A
:101ED00080E20E94EC048B81873019F089818F5F4A
:101EE000898310E007C0FE01E10FF11D84810E948B
:101EF00071051F5F89811817B0F30E9412051882BF
:101F000080916411815080936411809163118F5F7F
:101F100080936311823011F4109263115998E4E5B3
:101F2000CE2EFC1449F580916511853029F586E6A1
:101F300091E1D4D021C074E5F72EA9CECE016FDB9C
:101F4000882319F068E4F62EA2CE8E01095E1F4F99
:101F5000C80160918E11488DF0DB682FCE0125DC21
:101F6000CE016BE434DA882309F45ACE2CCE898171
:101F7000843009F066CF63CEDF91CF911F910F912E
:101F8000FF90EF90DF90CF90BF90AF900895809139
:101F9000FA12882321F00E945F030C943F020C94F4
:101FA0005E02FC018181882371F48091FA120E9403
:101FB00071058091F8129091F91265E040E20E945B
:101FC00075050C941205CF0101966AEF72E141E0AC
:101FD0000E94C205DCCFCF93DF93DC01EBE9F1E196
:101FE0000DC0109749F091818C91981729F4928136
:101FF000ED018981981769F0E20FF11D20812223FC
:1020000021F081E1E53EF80760F3AB2B11F0E0E051
:10201000F0E0CF01DF91CF910895CF93DF93EC01F2
:10202000DADFFC01009779F09091E5118081981733
:1020300050F4E90FF11D80818A8389E78B838181C8
:102040008C8381E001C080E0DF91CF91089586E329
:102050000E94560280919411833519F08BE490E030
:1020600002C08BE990E00E94E20482E991E165E020
:102070004CE021E060D80E943F028091FA1286FF76
:1020800020C084E50E94EC04809192110E947105A9
:10209000809193110E947105809194110E947105A5
:1020A000809195110E947105809196110E94710591
:1020B0008091FA1285FF03C08AEF0E9471050C948B
:1020C00012050895C4DF80919411893631F089E2B8
:1020D0008093FD1281E08093981108950F931F93D0
:1020E000FC01408131810281938124811092FD1293
:1020F0005091FB12552329F48091FC12882309F496
:10210000CCC080919211841721F480919311831790
:1021100059F0109290111092911183E08093E51183
:102120004093921130939311109190111F3F09F435
:10213000B4C00093941190939511209396110023AD
:10214000E1F01123D1F4251761F0243651F0802FEE
:102150008355823010F00D3721F48FEF809390116A
:102160009CC0043509F499C0892F807F803609F01E
:1021700094C09067909395118FC082E991E14DDFF3
:10218000882319F4112309F488C09091911199239F
:1021900011F0892F05C0E12FF0E0E956FE4F849140
:1021A000833531F4043521F41E5F109390110AC079
:1021B000801741F0109290111092911183E080935A
:1021C000E5116BC0992379F08091E5118E5F8093C2
:1021D000E51182E991E121DF882371F4809190116A
:1021E0008E5F8093901190919011E92FF0E0E85666
:1021F000FE4F14911F3F01F580919411809391112E
:1022000090919611843651F49091F212945C8091E1
:102210009911981B9D3368F09C530BC0833649F489
:102220009091F312985E80919A11981B993108F061
:1022300098519093961130C01093941187E7809332
:1022400095118091FB1280939611892F8E5F809358
:102250009011109291118E30E9F482E991E1BBDE88
:10226000FC01009781F0808190E025EE31E1281B90
:10227000390BDF01A80FB91F02C08D918193E217BE
:10228000F307D8F31082109290111092911183E00D
:102290008093E511112309F015DF1F910F91089527
:1022A00080919811882351F0D2DE89E28093FD124B
:1022B00080919811815080939811089510929011F7
:1022C0001092911183E08093E511089585E390E0E9
:1022D0000E9461068093FB1286E390E00E946106F3
:1022E0008093FC12109290111092911183E08093D0
:1022F000E51110929B1108956F927F929F92AF9279
:10230000BF92CF92DF92EF92FF920F931F93DF93D2
:10231000CF9300D000D000D0CDB7DEB73C018C0108
:102320000F5F1F4FC801BE016F5F7F4F45E00E94E6
:10233000C205843008F06EC099819130A9F48330D1
:1023400061F485E390E06A810E94540686E390E0A0
:102350006B810E945406BADFB6C08091FB120E94C6
:1023600071058091FC124AC09230F1F580919B1169
:10237000882321F489EA91E00E9416050BE911E116
:102380002AC081E10B39180719F080E20E94EC04A1
:10239000F80181810E947105F80182810E94710516
:1023A0008AE30E94EC0493E0F92E0FC0F3E0FF15DE
:1023B00028F4F0FE03C08CE20E94EC04F801EF0D5B
:1023C000F11DF39480810E947105F8018081F81657
:1023D00068F3080F111DF8018081882389F0F1E16D
:1023E000053E1F0770F20CC0933069F480E090E066
:1023F000F2DD2BE931E1265B281B822F0E9471055B
:102400000E94120560C0943009F05DC08A818093FB
:10241000F51259C080E090E0DEDD7C01F80101900A
:102420000020E9F73197E01BF10BF695E7959E2E1A
:10243000939497012B5931418AE490E089199109CD
:1024400082179307E4F1F70190828701DD24D3948A
:10245000CC24C39428C058010894A11CB11CC3010A
:102460008C0D911DB50141E00E94C205F2E0FD1501
:10247000B0F4D0FC14C0F8018081843639F4809126
:10248000F2129181891B8093991109C0833639F426
:102490008091F312F8019181891B80939A11F2E0E7
:1024A000CF0ED3948501D914B0F285EEE81681E100
:1024B000F80648F4ED0CF11CF701108204C085EA1F
:1024C00091E00E94160526960FB6F894DEBF0FBE67
:1024D000CDBFCF91DF911F910F91FF90EF90DF90D3
:1024E000CF90BF90AF909F907F906F900895CF93C3
:1024F000DF9387E390E0EC012196FE01EB58FE4F5D
:10250000E4916E2F0E945406C036D10511F0CE0121
:10251000F2CFDF91CF910895CF92DF92EF92FF92A9
:102520000F931F93DF93CF93CDB7DEB7A0970FB66E
:10253000F894DEBF0FBECDBF8091FE128230B9F598
:102540008FE30E943D02D82E8FE18D1528F186E69B
:102550000E94EC048B988FEF0E9429027E01089460
:10256000E11CF11C8701CE2C06C080E00E942902EC
:10257000F80181938F01802F8C198D15B0F38B9A00
:1025800005C0F70181917F010E94EC048E2D8C190A
:102590008D15B8F30E94120586E30E9456028AE365
:1025A0000E9456020E943F0281E08093FE12A09694
:1025B0000FB6F894DEBF0FBECDBFCF91DF911F9154
:1025C0000F91FF90EF90DF90CF9008950F931F939E
:1025D000CF93DF93EC01DC010D900020E9F7119718
:1025E000A81BB90B8981833719F50A2F87E390E07F
:1025F0006BE270E00E94FE0286E30E9456028BE3CB
:102600000E9456028B988FE70E942902802F8250E9
:102610000E94290212E004C089810E9429021F5FE2
:1026200021961017C8F38B9A85E30E94560214C0B6
:10263000823779F487E390E06BE270E00E94FE025B
:1026400081E08093FE128AE30E9456020E943F02BC
:1026500003C01092FE129BDCDF91CF911F910F916E
:10266000089589E693E19093CD128093CC1208955A
:102670000F931F93CF93DF93EC0100E0802F90E046
:102680009C01220F331F280F391FF901E856FF4F15
:102690001491F901E756FF4F25913491112399F0D8
:1026A000209739F480E20E94EC04812F0E94EC0410
:1026B00008C08881811729F4CE01F901099581E0CC
:1026C00003C00F5FDBCF80E0DF91CF911F910F91AF
:1026D0000895CF93DF93C0910911D0910A1134C0AE
:1026E000CE010E9447088A3011F08D3009F5E09143
:1026F000E611EE2349F1F0E0E951FE4E108287EE3B
:1027000091E1B6DF882389F48EEE91E00E941605F0
:102710008091E7110E94EC0486ED91E00E9416057D
:1027200080E090E0A5DF0E9412051092E6110CC037
:102730009091E611903240F4E92FF0E0E951FE4E1D
:1027400080839F5F9093E6118B81882349F6DF9108
:10275000CF910895E4E6F0E080818B7F8083299A11
:1027600084B1876084B9239880E58CBD8DB5816084
:102770008DBD08958F929F92AF92BF92CF92DF92BC
:10278000EF92FF920F931F934C018B01CB010E949C
:102790006106A82E68010894C11CD11CC6010E94C4
:1027A0006106E82EC8010E946106B82EC6010E948B
:1027B00061063B2D20E0232F33279A2D80E0FF2454
:1027C0008E299F29982F8827282B392BF4013183B4
:1027D000208362E0C62ED12CC00ED11EC6010E94FD
:1027E0006106B82E0D5F1F4FC8010E946106E82EDA
:1027F000C6010E946106D82EC8010E9461063D2DC7
:1028000020E0232F33279B2D80E0FF248E299F2952
:10281000982F8827282B392BF401338322831F918B
:102820000F91FF90EF90DF90CF90BF90AF909F906F
:102830008F9008950F931F93DF93CF9300D000D014
:10284000CDB7DEB7569A5E9888EC90E00E94E2041D
:102850005E9A88EC90E00E94E20487D483E093E1E2
:102860006EE370E00E94C7238FEF92E162EE74E0A6
:102870000E94C7232BD580E690E00E9461068093DA
:10288000081281E690E00E9461068093091282E6B8
:1028900090E00E94610680930A1283E690E00E9415
:1028A000610680930B1284E690E00E94610680939B
:1028B0000C1285E690E00E94610680930D129091C3
:1028C000081290930E129091091290930F1290910A
:1028D0000A129093101290910B12909311129091F2
:1028E0000C12909312128093131288E092E10AD492
:1028F00086E690E00E946106882359F084E166EA4A
:1029000074E0D6D288E092E166E070E00E9427266B
:1029100037C08E010F5F1F4FC80167E670E02ADFE6
:1029200089819A8190934214809341148B819C8178
:102930009093441480934314C8016FE670E01ADF4B
:1029400089819A8190933A14809339148B819C8168
:1029500090933C1480933B14C8016BE670E00ADF4F
:1029600089819A8190933E1480933D148B819C8140
:102970009093401480933F1484E166E774E098D20A
:1029800008D20F900F900F900F90CF91DF911F9171
:102990000F910895DF92EF92FF920F931F93FC0126
:1029A0008B016081F180E280D380C8010E945406CF
:1029B000C80101966F2D0E945406C80102966E2D23
:1029C0000E945406C80103966D2D0E9454061F9163
:1029D0000F91FF90EF90DF9008950F931F938C015C
:1029E000479667E670E0D6DFF8018789908D90936F
:1029F000421480934114818D928D9093441480935E
:102A00004314C80183966FE670E0C4DFF80183A128
:102A100094A190933A148093391485A196A1909330
:102A20003C1480933B14C8014B966BE670E0B2DF18
:102A3000F801838D948D90933E1480933D14858D81
:102A4000968D9093401480933F1484E166E774E080
:102A50002FD21F910F9108950F931F93A2D390939C
:102A60000B1380930A13892B61F10091511410917B
:102A7000521480E098E068D40817190761F481E0E7
:102A80007DD480910A1390910B13892B09F451C0C6
:102A90000E94752214C0009151141091521486E0C6
:102AA00098E052D40817190709F043C00E94C121C9
:102AB00080910A1390910B13892B09F43AC057D3D4
:102AC00038C083E093E10E94B023892B91F183E029
:102AD00093E10E94A62389E193E1909318138093D8
:102AE000171382E04BD480910A1390910B13892B1A
:102AF00019F00E9475223BD385E29AE1909314135A
:102B00008093131385E03AD480910A1390910B13AC
:102B1000892B19F00E9475222AD38FEF92E10E942F
:102B2000B023892B31F08FEF92E10E94A6230E94FF
:102B300079231F910F910895EF92FF920F931F93A6
:102B4000DF93CF93CDB7DEB765970FB6F894DEBFAE
:102B50000FBECDBF89E68A8384E68B838E010C5F2E
:102B60001F4FC80166E272E00E943B017E0108949B
:102B7000E11CF11CC7010E94DA0681E68B83C801C3
:102B800068E172E00E943B01C7010E94DA068EE60E
:102B90008B83C8016AE072E00E943B01C7010E947A
:102BA000DA0687E68B83C8016EEF71E00E943B0175
:102BB000C7010E94DA0680E78B83C80169EF71E0E4
:102BC0000E943B01C7010E94DA068DE68B83C80193
:102BD00062EF71E00E943B0111E2EEE0F0E0109341
:102BE00057008491E0E1F0E010935700E4918E0FDC
:102BF000BE01665F7F4F0E943A06E2E1F0E010936B
:102C000057008491E4E1F0E010935700E4918E0FB7
:102C1000BE01645F7F4F0E943A06E6E1F0E0109348
:102C20005700249188E190E0FC0110935700149123
:102C3000812F820FBE01625F7F4F0E943A06188A81
:102C4000C7010E94DA0665960FB6F894DEBF0FBE84
:102C5000CDBFCF91DF911F910F91FF90EF9008951D
:102C60009C01F999FECF32BD21BDF89A80B5089537
:102C7000909136139F3F41F0E92FF0E0E75EFC4E64
:102C8000868F9F5F90933613089582E0809335136B
:102C90000895EF92FF920F931F93CF93DF9340918C
:102CA0001213242F30E046FF0AC01092361381E041
:102CB000809335138091F71288608093F71280918A
:102CC0003513823061F481E08093351380E1809385
:102CD00012138091F712877F8093F7124FC0C901BA
:102CE00080739070892B11F447FF04C01092361343
:102CF0001092351321FF1BC0C0910A13D0910B1302
:102D00002097A9F00091151310911613E090091166
:102D1000F0900A11C701F80161918F010E943408F7
:102D20002197C1F7E091CC12F091CD1209958091D5
:102D30001213282F30E082FD09C0C9018370907002
:102D4000892B21F428743070232BC1F04091361365
:102D50004423A1F027E333E18091151390911613DA
:102D6000B90150E00E944F01609136138091151314
:102D70009091161370E0ECD210923613DF91CF9140
:102D80001F910F91FF90EF90089560E376E10C940E
:102D9000660183E790E0F9DF492F50E0382F20E00B
:102DA000CA01822B932BA6C25F98962F9F71982BF6
:102DB0009EBD0DB407FEFDCF1EBC0DB407FEFDCFBA
:102DC00067FF04C01EBC0DB407FEFDCF8EB55F9A31
:102DD00008955F986F71682B6EBD0DB407FEFDCF2F
:102DE0004EBD0DB407FEFDCF5F9A08959C01FB0117
:102DF0005F988AE38EBD0DB407FEFDCF08C01EBCF0
:102E00000DB407FEFDCF8EB58193215030402115C2
:102E10003105A9F75F9A08959C01FB015F988AE745
:102E20008EBD0DB407FEFDCF08C080818EBD0DB4F0
:102E300007FEFDCF31962150304021153105A9F70D
:102E40005F9A08951F93CF93DF93182FC82FD0E078
:102E5000C076D0708091091390E0C817D90781F02F
:102E600080EA6FE143E0B5DF85E0D595C7958A95A7
:102E7000E1F780E86FE14C2FACDF10761093091377
:102E8000DF91CF911F9108951F93182FDBDF80E012
:102E9000612F8ADF1F9108950F931F93182F062F1C
:102EA000D1DF80E4612F402F94DF1F910F910895AF
:102EB0000F931F93982F162F072F84ED692FECDFA8
:102EC00086ED612FE9DF87ED602FE6DF8AEEDCDF3C
:102ED00080FDFCCF1F910F910895CF92DF92EF926A
:102EE000FF920F931F93CF93DF938C017B01EA0135
:102EF000690180E86FE140E86CDF80EA6FE140E85B
:102F000068DF82E060E0C8DF83E060E0C5DFCE011B
:102F1000800F682F86E0C0DF9E01200F311F87E001
:102F2000632FBADF8AE760E040E053DFC801B701F2
:102F300073DF209719F0CE01B6016EDF80E86FE1F4
:102F400048E047DFDF91CF911F910F91FF90EF9005
:102F5000DF90CF900895EF92FF920F931F93CF933E
:102F6000DF93EC017B0189E38FDF882319F400E014
:102F700010E041C080E0609107138EDF609108137C
:102F800081E08ADF8AE360E00FDF082F10E0109312
:102F90000813009307138AE360E006DF382F20E070
:102FA000202B312B30930813209307138AE360E022
:102FB000FBDE082F10E08AE360E0F6DE382F20E029
:102FC000022B132B8AE360E0EFDE8AE360E0ECDEA5
:102FD000C017D10708F48E01C801B70107DF8CE0E4
:102FE0006091071359DF609108138DE055DF80E889
:102FF0006EE140E4EEDEC801DF91CF911F910F91A9
:10300000FF90EF900895579A5F9A299A219A2398F2
:10301000229A209A8CB580618CBD8CB5877F8CBD3F
:103020008CB58F7D8CBD8CB58E7F8CBD8CB58D7F26
:103030008CBD8DB581608DBD8CB580648CBD8FEFEE
:1030400060E04FEFC6DE82E390E00E94DD048DE198
:103050001BDF80FFFCCF80E096E090930813809305
:10306000071388E060E018DF89E066E015DF8CE098
:1030700060E012DF8DE066E00FDF8AE06FEF0CDFCB
:103080008BE06FE109DF84E060E006DF85E060E06F
:1030900003DF80EC6DE000DF81EC60E0FDDE80E8C6
:1030A00062EC42E396DE86EC62E1F6DE87EC6CE0F1
:1030B000F3DE84EC62E1F0DE8AEC6EEEEDDE8BECAA
:1030C00065E0EADE84EE60E0E7DE85EE60E0E4DE07
:1030D00082EE60E0E1DE83EE60E0DEDE80EE60E066
:1030E000DBDE81EE60E0D8DE80E160E071E0E0DE12
:1030F0008FE1A8DE80E86BE140EC6BDE80E86FE1F9
:1031000044E067CECF92DF92EF92FF920F931F932E
:103110008C016C010894C11CD11C84EEF801608103
:10312000BBDE76010894E11CF11C85EEF80161819B
:10313000B3DE87010F5F1F4F82EEF6016181ACDEC7
:1031400083EEF7016181A8DE80EEF8016181A4DEE3
:1031500081EE0F5F1F4FF80161819EDE1F910F917D
:10316000FF90EF90DF90CF9008954DCF089540915C
:103170000A1350910B134733510540F4CA0165E41B
:1031800074E140E050E020E030E00AC04653504097
:10319000209115133091161386E390E065E474E1F5
:1031A0009CCE8CED95E065E474E1D5CEFC015381B5
:1031B000560F50931113272F33274281420F40930C
:1031C0001013A181A0930F13E081E0930E13842FBD
:1031D00090E08217930748F48A2F8F5F80930F1334
:1031E000882319F4EF5FE0930E13852F90E0707041
:1031F0008617970790F4842F8F5F8093101388238E
:1032000061F480910F138F5F80930F13882329F44B
:1032100080910E138F5F80930E1308959C0141508F
:103220005040460F571FFB010EC0708160E0818146
:10323000DB01A80FB11D2A0F3B1F2A173B0710F413
:103240002F5F3F4F3296E417F50778F3E417F50741
:1032500049F4908180E0280F391F2817390710F4AE
:103260002F5F3F4FC901089580E090E063E574E16E
:1032700044E150E0D3DF009719F42FEF3FEF02C095
:10328000382F292FC90108950F931F9300915614C9
:1032900010E0045110409091551480E0080F191F60
:1032A000C80106966FE574E148E050E0B7DF67E6D5
:1032B00074E1A801B3DF009719F42FEF3FEF02C0CC
:1032C000382F292FC9011F910F910895109238149A
:1032D000109237141092321380E094E090931B12F6
:1032E00080931A1210922A1A1092291A81E0809360
:1032F0001C1208959C018091371490913814892BE9
:1033000039F410921C123093381420933714089516
:1033100081E080931C120895BC0180911713909155
:103320001813089643DFE0911713F091181380915A
:103330000E13808780910F138187809110138287ED
:103340008091111383870895282F892F922F089534
:10335000AC01FB011616170684F46093231AF09350
:10336000241A20910C1330910D138217930729F022
:10337000C901BA01AF010C944F0108950F931F9337
:10338000CF93DF93C0911713D0911813843009F4B1
:10339000D2C12BE734E130931613209315133093E9
:1033A0000D1320930C13833059F4898D8F70833063
:1033B00009F0E6C688899989892B09F0E1C687C09A
:1033C000823009F088C0809119128F5F80931912A2
:1033D000882399F4809118128F5F809318128823A4
:1033E00061F4809117128F5F80931712882329F45C
:1033F000809116128F5F8093161210920B13109209
:103400000A131092241A1092231A298D273011F0D2
:10341000253041F48A8D8F5F8A8F883709F0B0C6D6
:10342000198EAEC6222309F4ABC688899989892BE7
:1034300009F449C08A8D81508A8F8F5F09F0A0C638
:103440003B8D383029F02150223040F4353031F4B2
:10345000198E80E8809312131CDC4DC5353010F0B6
:1034600080E307C083E090E002C0880F991F3A957F
:10347000E2F78A8F8B8D8F5F8B8F898D90E08F70B5
:10348000907083309105D1F08430910544F48130FF
:10349000910509F41FC3029709F072C60CC086306B
:1034A000910509F4BCC48830910509F4B8C40497A7
:1034B00009F066C6B4C4109274140FC384E08093FC
:1034C0001213E7DB4DC52F70233009F059C688E091
:1034D0008093121304C5853019F5E0911313F09110
:1034E000141384819581892B09F44AC6109218130C
:1034F00010921713C9010C9790931613809315130C
:1035000090930D1380930C131092241A1092231A87
:1035100010920B1310920A1388E08093121309C1C2
:1035200089010852104080915314853409F028C64F
:103530009091551480E020915614AC01420F511D1A
:1035400080910A1390910B138417950708F418C6FD
:1035500050930B1340930A138091591490E08F738A
:103560009070892B09F00CC680915A14882309F0B9
:1035700007C6209141143091421480910C11909112
:103580000D112817390731F4809143149091441498
:10359000892BA1F080916314909164148217930792
:1035A00009F0EEC5209165143091661480914314A2
:1035B000909144142817390709F0E2C555DE8F5F52
:1035C0009F4F09F0DDC580915C14863009F408C175
:1035D0008131D1F1813009F0D3C5809167148830F1
:1035E00009F0CEC5109267148091691490916A1405
:1035F000EFEF873F9E0710F0099601C00896909361
:103600006A148093691480915F1490916014909370
:103610006414809363148091611490916214909368
:103620006614809365148091411490914214909394
:10363000601480935F14809143149091441490938C
:10364000621480936114A0C580910A1390910B13AA
:103650004C9790930B1380930A1385E29AE1909311
:1036600014138093131346C024813581211531052D
:10367000E1F18091691490916A1482179307A9F57A
:10368000268137812115310539F080916714909199
:1036900068148217930749F52081318180910C11BC
:1036A00090910D112817390721F482819381892B7C
:1036B00059F180911011909111112817390729F4AF
:1036C000828193818F5F9F4FF9F080915F14909179
:1036D00060148217930749F42091611430916214A9
:1036E000828193812817390779F0F096F0931413AB
:1036F000E0931313E0911313F09114135AE1E5359D
:10370000F50708F4B1CF3CC51092181310921713A7
:1037100082E0809312138FE694E1909316138093C6
:10372000151390930D1380930C131092241A10927A
:10373000231A0E94F9242091231A3091241A21156A
:10374000310509F41DC5C9014C9690930B13809364
:103750000A139093551480935614E0911313F0912B
:103760001413808580935B1481E180935C14C901FC
:10377000089690936B1480936C1410926E141092B0
:103780006D14848195819093681480936714868169
:10379000978190936A148093691480914114909159
:1037A00042149093601480935F148091431490911D
:1037B000441490936214809361148081918190935A
:1037C0006414809363148281938190936614809330
:1037D00065148BE794E19093161380931513AEC490
:1037E00053DD8F5F9F4F09F0CBC4C9E1D3E1898DD1
:1037F000882329F12091691430916A148C819D816C
:1038000028173907E1F420916714309168148E81EC
:103810009F812817390799F420915F143091601423
:10382000888199812817390751F4209161143091CA
:1038300062148A819B812817390709F467C1C25E27
:10384000DE4FF3E1C931DF0791F288F28091741401
:103850008F738230F1F48091691490916A1490937F
:103860001F1280931E1210921C1241E00EC0209174
:103870001E1230911F12809137149091381428171E
:10388000390709F470C040931C1280911C128823E0
:1038900071F38091741482FD73C484E1F80181A3F3
:1038A00088E290E090930B1380930A1380E580A345
:1038B00090916E1480917214838F30916D14809169
:1038C0007114828F368F40916C1480917014818FA7
:1038D000458F20916B1420931C1280916F14808F60
:1038E000248F9F5F978F992361F4832F8F5F868F3B
:1038F000882339F4842F8F5F858F882311F42F5FFD
:10390000248F209167143091681430931F122093F4
:103910001E128091691490916A14F801958B848B22
:10392000378B268B80915F14909160149093641470
:103930008093631480916114909162149093661443
:103940008093651480914114909142149093601477
:1039500080935F1480914314909144149093621467
:1039600080936114D1C310921C12C0E0D0E021E01A
:1039700014C080913213882319F4C9E1D3E114C033
:10398000873049F4209729F0909133138A8D891755
:1039900010F4C9E1D3E120931C1280911C128823FA
:1039A00041F3209709F4ECC3D0931813C093171375
:1039B00083E08A8F888F1E8A84E08F8B1B8E809194
:1039C000691490916A149D838C83809167149091FF
:1039D00068149F838E8380915F1490916014998303
:1039E000888380916114909162149B838A8381E023
:1039F000898F809116128C87809117128D87809104
:103A000018128E87809119128F8781E090E0998B30
:103A1000888B80916E148B8780916D148A8780913A
:103A20006C14898780916B14888781E090E074DC46
:103A30008091731490E0807F9070813591050CF433
:103A400049C010921C1234C0F901EB5BFB4E86A9F1
:103A500080931D128823F1F1813021F44F5F409350
:103A60001C1226C08230C1F487A98430A9F430AD7D
:103A700020E081AD90E0822B932B90931F128093D6
:103A80001E12F5E0873A9F0710F086EA95E09B8BBF
:103A90008A8B9D8B8C8B1EC090911C12E92FF0E0BD
:103AA000EB5BFB4E87A98823A9F0890F80931C123A
:103AB00040911C12242F30E08091731482958F70F6
:103AC00090E00597880F991F880F991F28173907CD
:103AD0000CF4BACF80E180937414809174148260E6
:103AE0008093741482E080937B1484E080937C1430
:103AF00085E080937D1486EA80937E148CE290E0CA
:103B000090930B1380930A1380E6ABC2D0931813E3
:103B1000C09317131092121380917414482F50E021
:103B200082FF03C0198E80E248C28091731482958F
:103B30008F70880F880F80931C1220910A13309188
:103B40000B1324513040281B310930930B13209361
:103B50000A13898D8F70823029F44F73507042316F
:103B6000510509F1232B39F48091741490E083708E
:103B70009070892BC1F090916B148885981709F08B
:103B800066C290916C148985981709F060C2909173
:103B90006D148A85981709F05AC290916E148B851E
:103BA000981709F054C28091741484FF4CC068893E
:103BB00079896115710509F446C0CE010C96F6DAD3
:103BC00020916F1480910E132817E9F590917014CD
:103BD00080910F139817B9F590917114809110137B
:103BE000981789F59091721480911113981759F5CF
:103BF0002C8780910F138D87809110138E87809171
:103C000011138F878B8D8823B9F42E89888D9A8D17
:103C1000891B922F969596959695891B280F2E8B2A
:103C20003F89932F96959695891B830F8F8B2695A9
:103C300026952695820F888F81E080931213888DB8
:103C40008A8F198A188A898D282F30E0C9018F70D0
:103C500090708430910509F4B5C1853091055CF40C
:103C60008230910589F1833091050CF0AFC0019746
:103C700009F086C210C08630910509F4E0C1863093
:103C800091050CF4BEC18730910509F4E0C1089795
:103C900009F076C28CC18091121380FF71C283E05B
:103CA000898F80E480931213198A188A20910A134D
:103CB00030910B132115310509F40DC182E4809375
:103CC0001213C90129DB07C18091121380FF73C051
:103CD000809174148F73823109F06DC080917314D8
:103CE00090E0807F9070813591050CF449C010926E
:103CF0001C1234C0F901EB5BFB4E86A980931D12A8
:103D00008823F1F1813021F44F5F40931C1226C0CB
:103D10008230C1F487A98430A9F430AD20E081ADB0
:103D200090E0822B932B90931F1280931E1225E01C
:103D3000873A920710F086EA95E09B8B8A8B9D8BE1
:103D40008C8B1EC090911C12E92FF0E0EB5BFB4EB8
:103D500087A98823A9F0890F80931C1240911C1217
:103D6000242F30E08091731482958F7090E0059736
:103D7000880F991F880F991F281739070CF4BACF9D
:103D800083E0898F80916B14888780916C14898778
:103D900080916D148A8780916E148B8781E090E00A
:103DA000BBDA82E480931213198A188A10920B13DB
:103DB00010920A1390C080E2809312130E94491659
:103DC000E0911713F0911813118E63CD8091741444
:103DD00080FF29C024FD27C088899989892B09F093
:103DE000CFC180910A1390910B13019695DA20911F
:103DF0001213822F80618093121380910A13909185
:103E00000B13892B19F02261209312130E9449167B
:103E100081E090E0998B888B88E0898F1B8E81E10F
:103E20008093741417C185FF21C060917914362FD7
:103E300020E040917A1450E0242B352B809115130B
:103E400090911613820F931F90931613809315135E
:103E5000962F80E0842B952B20910A1330910B1321
:103E6000281B390B30930B1320930A1320910A134C
:103E700030910B132115310551F0898D84FD07C058
:103E800080911213826080931213C90145DA9091D8
:103E9000751480E020917614820F911D90931F126B
:103EA00080931E122C893D892817390710F0892B21
:103EB00021F430931F1220931E1280911E129091B4
:103EC0001F129B8B8A8B8091121390E083709070ED
:103ED000892B09F455C11092241A1092231A0E94BA
:103EE000491680911213282F85FF07C01092241ABB
:103EF0001092231A198E84E193CF84FF0AC0109286
:103F0000241A1092231A81E090E0998B888B84E028
:103F100084CF8091231A9091241A892B01F120FFDC
:103F200002C0198A188A888999890097A1F42A8978
:103F30003B898091231A9091241A2817390720F47D
:103F40003093241A2093231A8091231A9091241AD3
:103F5000998B888B04C09093241A8093231A1B8E0C
:103F600080910C1390910D13909316138093151359
:103F70008091231A9091241A892B59F08889998964
:103F8000009739F0889690930B1380930A1388E179
:103F90000BC08091121381FFF3C088E290E09093F0
:103FA0000B1380930A1380E18093741459C080919D
:103FB000121380FFE5C0198E80E1809312130E94D6
:103FC0004916DEC080910A1390910B13009709F0F7
:103FD000A3D9809174149091121380FF0BC090FFAD
:103FE00006C087E0898F1A8E198A188A18C086E061
:103FF000898F15C090FF1CC085E0898F198A188AA7
:10400000BFC080910A1390910B13009709F084D9D7
:104010008091741480FF0CC087E0898F1A8E81E034
:1040200090E07AD980E1809312130E9449160FC064
:1040300080910A1390910B13892B49F4A1C08091B0
:10404000121380FF9DC087E0898F1A8E99C080E18E
:10405000F80181A388E290E090930B1380930A13F8
:1040600080E580937314888580936F14898580938D
:1040700070148A85809371148B85809372148C855B
:1040800080936B148D8580936C148E8580936D1452
:104090008F8580936E1486E080935C148C819D8163
:1040A00090936814809367148E819F8190936A1413
:1040B00080936914809141149091421490936014FC
:1040C00080935F14809143149091441490936214F0
:1040D0008093611488819981909364148093631410
:1040E0008A819B819093661480936514898D84FFE7
:1040F00005C0109276141092751406C085E0809366
:10410000751486EA8093761480E480935B14809122
:104110000B138093551480910A13809356141092B8
:104120007A14109279141092781410927714ACD8F3
:1041300080959095909378148093771485E480937C
:1041400053141092541410925A14109259148091CE
:1041500014129091151201969093151280931412D7
:10416000909357148093581410925E1410925D141B
:104170007BD88095909590935E1480935D1404C0D5
:1041800010920B1310920A1310921213DF91CF9119
:104190001F910F910895FC014091291A50912A1AFC
:1041A00080911A1290911B120196ADE780309A0708
:1041B00010F080E090E1382F292F42175307A1F328
:1041C00080931A1290931B12452B69F410921C12C3
:1041D0009093291A80932A1A70932C1A60932B1AA1
:1041E000309781F406C081E080931C1220E030E01B
:1041F0001AC01092251A1092261A1092271A10929D
:10420000281A0CC0808191819093261A8093251AD8
:10421000828193819093281A8093271A80E4809357
:104220002D1A25E23AE1C9010895DF92EF92FF923B
:104230000F931F93CF93DF93DC01062FD72E10929D
:104240007C12E0E0F0E060E01BE02AC0619FF0013A
:104250001124E05EFD4E4081518141155105F9F078
:104260002281338121153105D1F08D919C911197D7
:1042700084179507A1F4ED018A819B81821793072A
:1042800071F460937C12EF012496802F9D2D9C0188
:10429000D90186E00D9009928150E1F767C06F5F08
:1042A0006830A0F210927C1220E03BE011C0239F06
:1042B000F0011124E05EFD4E80819181892B39F45B
:1042C00082819381892B19F420937C123CC02F5F4B
:1042D000283068F320937C122830A9F510927F12C1
:1042E00010927D1210917E12C12FD0E060E070E03C
:1042F00040E08BE0E82EF12C18C0842F90E08E9DDA
:10430000F0018F9DF00D9E9DF00D1124E05EFD4E9D
:1043100052859E01251B3109872F90E08217930754
:104320001CF4712F751B642F4F5F483030F360937E
:104330007D1270937F1260937C128BE0689FF00176
:104340001124E05EFD4E8D919D910D90BC91A02DAC
:10435000EF0189939993A993B993202F3D2DC9011A
:10436000DC0186E00D9009928150E1F780917E1288
:104370008287DF91CF911F910F91FF90EF90DF9097
:104380000895CF93DF9380910A1390910B138A972E
:1043900028F410920B1310920A13A4C010920B135E
:1043A00010920A13C5E4D4E18091591490915A14E3
:1043B00021E08030920729F08050924009F092C0AD
:1043C00075C020916B1430916C14809141149091C0
:1043D00042142817390709F085C020916D143091D7
:1043E0006E1480914314909144142817390709F0F2
:1043F00079C0CE014C96BE016A5E7F4F16DF80E029
:1044000092E090935A1480935914DE019096FE0125
:10441000769686E001900D928150E1F7ABE5B4E12C
:10442000EEE0F2E186E001900D928150E1F7ABE41D
:10443000B4E1EEE0F2E186E001900D928150E1F707
:10444000E5E4F4E1DF01909686E00D900192815061
:10445000E1F7809161149091621490936C148093B1
:104460006B14809163149091641490936E148093F4
:104470006D14809141149091421490936214809332
:104480006114809143149091441490936414809328
:10449000631488E096E090935214809351148AE25A
:1044A00090E090930B1380930A131CC020916B141F
:1044B00030916C148091411490914214281739075F
:1044C00089F420916D1430916E1480914314909171
:1044D00044142817390731F4CE014C96BE016A5EA8
:1044E0007F4FA3DEDF91CF910895409163145091E7
:1044F000641480911411909115114817590789F48B
:1045000080916514909166148F5F9F4F51F4A5E4DC
:10451000B4E1E8E1F1E186E001900D928150E1F72C
:10452000CFC0809141149091421484279527209107
:104530003D1430913E1482239323892B91F4609192
:1045400065147091661480914314909144148627E9
:10455000972720913F143091401482239323892B75
:1045600089F08091391490913A1490937912809344
:10457000781280913B1490913C1490937B1280931D
:104580007A1208C0509379124093781270937B127C
:1045900060937A1210927C12609178127091791265
:1045A00040917A1250917B12E0E0F0E020E03BE095
:1045B00013C0239FF0011124E05EFD4E80819181A4
:1045C0006817790741F4828193814817590719F4D4
:1045D00020937C126DC02F5F283058F320937C12FB
:1045E000283009F065C085E494E16FEF70E046E0A3
:1045F00050E00E945801E5E6F4E186E0DF011D92FB
:104600008A95E9F77A97AEE0B2E186E00D900192E3
:104610008150E1F7ABE5B4E1EEE0F2E186E0019034
:104620000D928150E1F780917812909179129093D8
:104630006C1480936B1480917A1290917B129093FA
:104640006E1480936D148091411490914214909354
:104650006214809361148091431490914414909358
:1046600064148093631480E091E090935A148093D3
:104670005914909354148093531488E090E09093CD
:1046800056148093551486E08093571484E08093E9
:10469000581488E096E090935214809351148BE75D
:1046A00094E190931613809315138AE290E01CC056
:1046B000A5E4B4E1349686E001900D928150E1F7D3
:1046C000ABE4B4E1EEE0F2E186E001900D928150BE
:1046D000E1F788E090E09093521480935114809118
:1046E0000A1390910B130E9690930B1380930A1359
:1046F000089580917E128F5F80937E1210927C12BB
:104700004BE01FC0249FF0011124E05EFD4E82812A
:10471000938120813181822B932B892B69F08091A9
:104720007E1290E02285821B91098837910524F042
:10473000108211821282138280917C128F5F80938B
:104740007C1220917C122830E8F20895FC018081CF
:10475000918122813381820F931F918380830895F9
:104760000F931F938C010E947E0440E050E0F801FB
:1047700020813181821B930B228133818217930721
:1047800010F041E050E0CA011F910F9108950F937E
:104790001F938C01FC01738362830E947E04F801E5
:1047A000918380831F910F9108950F931F93CF934F
:1047B000DF938C0181E0E8018883898380918D12E9
:1047C0008A831B828091221190912311A091241140
:1047D000B0912511F80184839583A683B783118650
:1047E000108680E890E093878287809141149091B1
:1047F0004214A0914314B09144148C879D87AE87D6
:10480000BF87108A118A128A138A1C8A1D8A1E8AFF
:104810001F8A108E118E128E138E9801245E3F4FC8
:10482000EBE8F2E16081718140918D1250918E121E
:10483000C9010E944F0120918D1230918E12E0E14A
:10484000F0E0E21BF30B245E3F4F200F311FC90144
:1048500060E070E0AF010E945801D8019C9680E4AE
:10486000ED0119928A95E9F7C80184599F4FFC011F
:1048700080E8EF0119928A95E9F7CD016EE171E1C7
:104880000E945F0104511F4F8091261190912711C2
:10489000A0912811B0912911F80180839183A283FE
:1048A000B383DF91CF911F910F910895CF93DF9341
:1048B000C0911513D09116138881823009F094C0ED
:1048C000CE01049662E271E144E050E00E944201B0
:1048D000009709F089C060918B1270918C12409101
:1048E0008D1250918E12CE014C960E94420100977B
:1048F00009F07AC088899989AA89BB89809397121F
:1049000090939812A0939912B0939A12FE01E051DD
:10491000FF4F20910A1330910B132E0F3F1F40E0E1
:104920005EC08081833309F449C0843340F483300E
:10493000E1F0863039F1813009F04CC009C086338E
:1049400081F18F3F09F451C0853309F043C027C07E
:1049500082819381A481B58180939B1290939C1254
:10496000A0939D12B0939E1235C082819381A48141
:10497000B5818093A3129093A412A093A512B09333
:10498000A61228C082819381A481B58180939F1251
:104990009093A012A093A112B093A2121BC04281C7
:1049A00019C082819381A481B58180938F129093E5
:1049B0009012A0939112B09392120CC082819381B5
:1049C000A481B5818093931290939412A093951231
:1049D000B0939612818190E00296E80FF91FE217DA
:1049E000F30708F49ECF01C040E0842FDF91CF9100
:1049F00008950F931F93CF93DF938091801290912E
:104A0000811221E08830920709F45EC0E1E089302C
:104A10009E0718F4892B59F011C1F1E08D319F07E1
:104A200009F4DAC08554914009F008C100C181E061
:104A3000809382128DE790E090938A12809389127E
:104A40000091151310911613C801AFDE00511F4FCE
:104A5000F80185E3819391E0E8019983DF011196E4
:104A60009183FD01319687E3ED018983DF01119682
:104A700083E08183FD013196ED019983DF01119679
:104A80008183FD01319686E0ED0189838FEF81837B
:104A900080911513909116133296E81BF90BBF0104
:104AA0000E94A8196091891270918A1285E892E19A
:104AB0006EDE809112138D7F8093121388E091E057
:104AC00090938112809380128091121381FD06C011
:104AD00085E892E145DE892B09F4B4C08091121378
:104AE00081FF06C0E3DE823019F4809382121AC07F
:104AF0008091891290918A12EEE0863A9E0738F4EE
:104B0000880F991F90938A128093891206C00E9481
:104B1000B51888EC90E00E94E20480918212823005
:104B200009F08ECF8DE790E090938A1280938912DE
:104B30000091151310911613C80137DE00511F4F55
:104B4000D80185E38D9381E0E8018983FD013196E9
:104B500083E0ED0189839F012F5F3F4F86E38183CF
:104B600044E0E901498380918F1290919012A091C5
:104B70009112B09192128A839B83AC83BD8382E3AE
:104B8000878340878091971290919812A0919912F3
:104B9000B0919A1281879287A387B4878FEF858718
:104BA00080911513909116133E96E81BF90BBF01E7
:104BB0000E94A8196091891270918A1285E892E189
:104BC000E6DD809112138D7F809312138DE191E0C9
:104BD00090938112809380128091121381FD05C001
:104BE00085E892E1BDDD892B69F18091121381FF87
:104BF00007C05CDE853021F483E08093821213C00D
:104C00008091891290918A12E4E0833E9E07B0F46D
:104C100083589F4F90938A128093891280918212B9
:104C2000833009F085CF80E892E10E94ED1485E49D
:104C300091E0909381128093801204C010928112AF
:104C400010928012DF91CF911F910F910895DF9301
:104C5000CF9300D000D0CDB7DEB790938C12809365
:104C60008B1270938E1260938D12109282128FEFBE
:104C70009FEF9A8389839C838B83CE01019660E0AA
:104C800073E489DAFC019093841280938312009775
:104C900021F080E094E49583848310928112109235
:104CA00080120F900F900F900F90CF91DF91089589
:104CB000DF93CF93CDB7DEB7AC970FB6F894DEBFD6
:104CC0000FBECDBFEAE5FAE18091F10081932AE1C0
:104CD000E236F207C9F780915A1A30915B1A3530E3
:104CE00009F49FC0363048F4313009F44BC03130FC
:104CF00070F0333009F056C145C0383009F40AC1AC
:104D0000393009F42FC1363009F04CC1B4C08038B5
:104D100021F0823809F046C108C09091551A80915F
:104D2000561A882391F0926010C080915E1A809389
:104D3000E9008091EB0090E025E0969587952A9513
:104D4000E1F7982F91701092E9008091E800877F39
:104D50008093E8009093F1001092F1008091E800B8
:104D6000982F9E7F9093E8008F778093E80005C08E
:104D70008091591A882309F417C18091E80082FFB5
:104D8000F7CFE6C0882319F0823009F00BC190E01C
:104D90008F719070009719F00297B9F50CC080914F
:104DA0005C1A813009F000C11092561A333069F54F
:104DB0008093561A2AC080915C1A882331F520917D
:104DC0005E1A277009F4F0C02093E9008091EB008F
:104DD00080FF1BC03130A1F48091EB008061809393
:104DE000EB0081E090E002C0880F991F2A95E2F75E
:104DF0008093EA001092EA008091EB00886003C083
:104E00008091EB0080628093EB001092E90080912A
:104E1000E800877F8093E8008091E800982F9E7FCC
:104E20009BC0882309F0BEC020915C1A8091E800E5
:104E3000877F8093E8008091E800982F9E7F909371
:104E4000E8008F778093E80005C08091591A882385
:104E500009F4AAC08091E80080FFF7CF922F9F77D6
:104E6000892F80688093E300992309F49DC083E033
:104E70008093591A99C08058823008F093C080916D
:104E80005C1A90915D1AE3E08C3D9E0779F5DE0196
:104E900015964EE020E030E051E2E42FF0E0509330
:104EA0005700849120FF03C082958F704F5F982F29
:104EB0009F70892F805D8A3308F0895F8C93FD0194
:104EC00011822F5F3F4F12962431310531F78091C7
:104ED000E800877F8093E80083E08C838AE28B83FD
:104EE000CE0103966AE270E0F4D032C060915E1A9F
:104EF000AE014F5F5F4F0E94F301BC01009709F4C0
:104F000053C08091E800877F8093E80089819A816F
:104F100030D11EC0803809F045C08091E800877FFD
:104F20008093E8008091571A8093F1008091E80007
:104F3000982F9E7F9093E8008F778093E80004C0BD
:104F40008091591A882381F18091E80082FFF8CF7F
:104F50008091E800982F9B7F9093E8008F77809353
:104F6000E80022C08823F1F420915C1A2230E0F49A
:104F70008091E800877F8093E8002093571A809102
:104F8000E800982F9E7F9093E8008F778093E80049
:104F9000222311F084E001C083E08093591A0E941B
:104FA000240402C00E94E6038091E80083FF0AC047
:104FB0008091EB0080628093EB008091E800877F16
:104FC0008093E800AC960FB6F894DEBF0FBECDBF5D
:104FD000CF91DF9108958093E9008091EB0081608B
:104FE0008093EB001092ED006093EC004093ED0095
:104FF0008091EE00881F8827881F08951092F40082
:1050000090E09093E9001092F0001092E8008091F7
:10501000ED008D7F8093ED008091EB008E7F80937B
:10502000EB009F5F973069F7089580915A1A8823A3
:10503000BCF404C08091591A8823F9F08091E800EB
:1050400082FFF8CF8091E800982F9B7F9093E80033
:105050008F778093E80008958091591A882369F02A
:105060008091E80080FFF8CF8091E800982F9E7F24
:105070009093E8008F778093E800089594E68091FC
:10508000EC0080FF05C08091E80080FF05C01FC0D4
:105090008091E80082FD1BC08091591A882311F489
:1050A00082E008958091EB0085FF02C081E00895C1
:1050B0008091E10082FFE3CF8091E1008B7F8093BC
:1050C000E100992311F483E008959150D8CF80E056
:1050D0000895FC014091601A5091611A9B01461796
:1050E000570708F49A0140E032C08091E80083FF3E
:1050F00002C081E008958091E80082FD32C0809175
:10510000591A8823A1F18091E80080FF20C005C0D2
:1051100081918093F100215030402115310531F00B
:105120008091F2009091F300089790F38091F20043
:105130009091F30040E0089709F441E08091E80085
:10514000982F9E7F9093E8008F778093E800211539
:10515000310559F6442349F604C08091591A882331
:1051600031F08091E80082FFF8CF80E0089582E07E
:105170000895DC014091601A5091611A9B01461715
:10518000570708F49A0140E034C08091E80083FF9B
:1051900002C081E008958091E80082FD34C08091D2
:1051A000591A8823B1F18091E80080FF22C007C01E
:1051B000FD011196E491E093F1002150304021155A
:1051C000310531F08091F2009091F300089780F35F
:1051D0008091F2009091F30040E0089709F441E0DB
:1051E0008091E800982F9E7F9093E8008F778093BE
:1051F000E8002115310549F6442339F604C08091B1
:10520000591A882331F08091E80082FFF8CF80E0BE
:10521000089582E00895FC0124C08091E80083FF96
:1052200002C081E008958091591A882341F180914C
:10523000E80082FFF2CF06C08091F10081936150B7
:10524000704031F08091F2009091F300892BA1F72A
:105250008091E800982F9B7F9093E8008F77809350
:10526000E80061157105C9F604C08091591A8823B8
:1052700031F08091E80080FFF8CF80E0089582E06F
:1052800008956BD072D01092591A1092571A10923A
:10529000561A1092551A8CE089BD89B5826089BD75
:1052A00009B400FEFDCF8091D800982F9F7790938E
:1052B000D80080688093D8008091D7008160809367
:1052C000D7008091D8008F7D8093D8008091E00036
:1052D0008B7F8093E0008091E0008E7F8093E000E0
:1052E0008091E1008E7F8093E1008091E2008160F7
:1052F0008093E2008091E100877F8093E1008091BC
:10530000E20088608093E2008091D8008160809301
:10531000D8000895B6DFE0EEF0E080818160808300
:10532000E8EDF0E080818F77808319BC80818F7EEB
:1053300080831092581A0895E7EDF0E0808180682C
:1053400080839FDFE8EDF0E080818061808381E0F1
:105350008093581A789408950895E8EDF0E08081DC
:105360008C7F80831092E20008951092DA001092F0
:10537000E10008951F920F920FB60F9211242F9300
:105380003F934F935F936F937F938F939F93AF93CD
:10539000BF93EF93FF938091DA0080FF15C0809157
:1053A000D80080FF11C08091DA008E7F8093DA00F0
:1053B0008091D90080FF05C081E08093591ACCDF2D
:1053C00003C01092591AC8DF8091E10080FF1DC010
:1053D0008091E20080FF19C08091E1008E7F809370
:1053E000E1008091E2008E7F8093E2008091E200F4
:1053F00080618093E2008091D80080628093D80021
:1054000019BC85E08093591AA7DF8091E10084FFE1
:105410002AC08091E20084FF26C08CE089BD89B556
:10542000826089BD09B400FEFDCF8091D8008F7DD8
:105430008093D8008091E1008F7E8093E10080917D
:10544000E2008F7E8093E2008091E2008160809391
:10545000E2008091571A882311F483E001C084E0B0
:105460008093591A79DF8091E10083FF23C08091F6
:10547000E20083FF1FC08091E100877F8093E100FD
:1054800082E08093591A1092571A8091E1008E7F22
:105490008093E1008091E2008E7F8093E200809112
:1054A000E20080618093E200A9DD80E060E042E0FC
:1054B00092DD52DFFF91EF91BF91AF919F918F915C
:1054C0007F916F915F914F913F912F910F900FBE00
:1054D0000F901F9018951F938091591A882361F09F
:1054E0001091E9001092E9008091E80083FF01C06B
:1054F000DFDB17701093E9001F910895AA1BBB1BF7
:1055000051E107C0AA1FBB1FA617B70710F0A61BC3
:10551000B70B881F991F5A95A9F780959095BC01E4
:08552000CD010895F894FFCFBE
:1055280080250000000008CE12A81202000000002A
:10553800FFFFFFFFFFFFFFFFFFFFFFFFFFFF4355D9
:0A5548004E00ADDE122363825363B0
:00000001FF
