:1000000055C100000C94490C6FC100006DC1000087
:100010006BC1000069C1000067C1000065C100003C
:1000200063C1000061C100005FC100005DC100004C
:100030005BC100000C94AD0D57C1000055C100001C
:100040001BC3000051C100004FC100004DC10000A2
:100050000C944C1D0C94801D47C1000045C100004C
:1000600043C1000041C100003FC100003DC100008C
:100070003BC1000039C1000037C1000035C100009C
:1000800033C1000031C100002FC100006DC81D4305
:10009000030246250969651741EC135A5F1647604C
:1000A000084DEF07528A0654991A56C8055700069C
:1000B00058A21065490666661C6CF10574E203756A
:1000C000401278250300000000030F1E26270000C1
:1000D00000030F1E2536386700030F256740605068
:1000E00000030F275188838100030F2750C8C3C224
:1000F0000027000000000000006700000000000072
:10010000005000000000000000810000000000001E
:1001100000C20000000000000D2E2D07D3913D0409
:10012000320000060021656A55E43023B90007005B
:1001300018146C070090876BF85611E92A001F41CC
:1001400000072E050DD391FF080500000C00216566
:100150006A2D3B1322F862073F181D1CC700B087A9
:100160006BF8B611EA2A001F4100202F2000203D25
:1001700020005620312E35352043534D3836380077
:10018000202F2000203D20004C4F56460D0A0042F3
:100190004F56460D0A000001012E0204030304D34A
:1001A000059106FF0704080509000A000B0C0C0066
:1001B0000D210E620F76102D113B1213132214F82D
:1001C00015621607173F1818191D1A1C1BC71C00AB
:1001D0001DB01E871F6B20FB21B6221023EA242AA4
:1001E0002500261F2741280029592A7F2B3F2C88CC
:1001F0002D312E09FF000007024604C605260B0616
:1002000010C81193120313221534173F182819161A
:100210001B432156250026110D210E650F6A070C80
:10022000160720F81E871F6B29592C812D353EC3D8
:10023000FF004C454E4552520D0A004C4F56460D9C
:100240000A004C454E4552520D0A000D2E2D07D383
:10025000913D04320000060010B07155E43023B91E
:1002600000070018146C070090876BF85611E92AF4
:10027000001F410000535300547D7DFFFF4B4B7E18
:100280007E00454F420D0A004E2F41004E2F410087
:1002900020697320756E6B6E6F776E2920557365BC
:1002A000206F6E65206F66003F20280011241FBE5E
:1002B000CFEFD0E4DEBFCDBF11E0A0E0B1E0E8EFCA
:1002C000FCE300E00BBF02C007900D92A231B10722
:1002D000D9F712E1A2E1B1E001C01D92A73DB1073B
:1002E000E1F703D00C947A1E8BCE88E10FB6F89418
:1002F00080936000109260000FBE80E090E020E1EB
:100300000FB6F89420936100809361000FBE3E9A6F
:10031000469A0E94B81DEBD489EF87BD84E085BD65
:1003200082E084BD80936E00109280008AE080930A
:10033000810084B7877F84BF2FE088E190E00FB60B
:10034000F894A895809360000FBE2093600089E127
:1003500090E80E94241D0E94781A7AD78EED9CE1C5
:1003600090938A068093890681E0809315010E940C
:10037000E212809115018860809315014698789467
:100380000E94361D0E94280EB9D10E94011C0E94B5
:10039000BC100E94F5120E94E615F2CF8EBD0DB47E
:1003A00007FEFDCF8EB508952C98806C8EBD0DB4E0
:1003B00007FEFDCF8EB51EBC0DB407FEFDCF8EB57A
:1003C0002C9A08952C9880648EBD0DB407FEFDCF45
:1003D0008EB56EBD0DB407FEFDCF8EB52C9A089577
:1003E0002C988EBD0DB407FEFDCF8EB52C9A0895C6
:1003F0002C9886E38EBD0DB407FEFDCF8EB52C9AEA
:1004000010928B060895A1E0B0E0E9E0F2E00C94D0
:10041000511E0196BE016F5F7F4F41E03ED3892B95
:1004200041F18981893989F400E010E0802FBCDF37
:10043000EDD2C80187709070079709F48DD20F5FD5
:100440001F4F0033110591F714C0AEDF182F83E45E
:100450004BD28981DBD28EE691E082D2812FD6D237
:100460008AE691E07DD2812F90E062E040E2D2D234
:1004700073D22196E4E00C946D1E0F931F931FEF2F
:1004800004E32C980EBD0DB407FEFDCF8EB52C9A5B
:100490008AE090E0A4D11150A1F7E89A1F910F9142
:1004A00008950F931F93E8982C9886E38EBD0DB4A2
:1004B00007FEFDCF8EB52C9A1FEF05E32C980EBDDD
:1004C0000DB407FEFDCF8EB52C9A8AE090E087D15F
:1004D0001150A1F71F910F910895EF92FF920F9382
:1004E000CF93DF93082F8A3008F008E0C02FD0E0C8
:1004F00083E0CC0FDD1F8A95E1F7C853DF4F8BE215
:1005000090E07C010894E11CF11CFE01649129D368
:100510002196C70183339105A1F70550053010F0EE
:1005200067E101C061E184E290E01BD3DF91CF91EC
:100530000F91FF90EF900895CF93DF9382E090E0CA
:10054000EC012196FE01EB5EFE4FE4916E2F09D384
:10055000CB32D10511F0CE01F3CF87E390E0EC016F
:100560002196FE01E75FFE4FE4916E2FFAD2C0366E
:10057000D10511F0CE01F3CF88E0AFDFDF91CF914D
:1005800008950F931F93CF93DF938C011092BF01B7
:10059000E898249A2C9A8EE190E021D12C988EE153
:1005A00090E01DD12C9A8DE290E019D12C9880E337
:1005B0008EBD0DB407FEFDCF8EB52C9A84E690E07B
:1005C0000ED12C9880E48EBD0DB407FEFDCF8EB504
:1005D000C0E0D0E0C8018C0F9D1FD2D28EBD0DB4FB
:1005E00007FEFDCF8EB52196C932D10599F72C9A19
:1005F0002C988EE78EBD0DB407FEFDCF8EB58BE235
:1006000090E0EC012196BCD28EBD0DB407FEFDCF6B
:100610008EB5C333D10511F0CE01F3CF2C9A2C98AF
:1006200083E38EBD0DB407FEFDCF8EB52C9A81E01D
:10063000DBD0DF91CF911F910F91089582E090E080
:10064000A0DF81E080938B060895A1E0B0E0EBE2AB
:10065000F3E00C94531E22E029830196BE016F5FE4
:100660007F4F41E01AD2898138DF82E090E089DF54
:100670002196E2E00C946F1E1F920F920FB60F921C
:1006800011248F939F93AF93BF9380918D06909188
:100690008E06A0918F06B09190060196A11DB11D06
:1006A00080938D0690938E06A0938F06B09390064C
:1006B00080918C068F5F80938C0680918C068D379D
:1006C00010F010928C068091B20A9091B30A0097B4
:1006D00029F001979093B30A8093B20A8091C50ADA
:1006E0008F3F19F081508093C50ABF91AF919F91C0
:1006F0008F910F900FBE0F901F90189580918D06CF
:1007000090918E06A0918F06B091900620911301D2
:10071000281709F456C080918D0690918E06A091FD
:100720008F06B091900680931301A89580910001E7
:1007300082FD46988091B20A9091B30A892B11F4F8
:100740000E94151A8091C50A882311F40E94FC1991
:100750008091A20A882339F081508093A20A8823CD
:1007600011F40E94241280918C06882351F5809107
:100770000001282F81FF04C088B190E4892788B93F
:1007800022FD469A809191069091920623E084384A
:10079000920728F401969093920680939106809197
:1007A00012018F5F809312018C3359F41092120161
:1007B0008091AF0A8F5F8093AF0A8C3310F0109254
:1007C000AF0A08958091900621D180918F061ED1A5
:1007D00080918E061BD180918D0618D1BDC0880FE7
:1007E000991F0197F1F7089520ED37E004C0F90152
:1007F0003197F1F781508823D1F70895CF93DF9394
:10080000AC01EC018E81843509F06BC0688179817F
:100810009DE001C09F5F292F30E02617370730F495
:10082000FA01E20FF31F86818B33A1F76F507040FE
:100830002617370709F055C0C92FD0E0FA01EC0F91
:10084000FD1F8781843509F04CC027969A012C0F33
:100850003D1F2797FA019781F9018181981709F0C7
:1008600040C0FA019085F90182819817D1F5FA010B
:100870009185F90183819817A1F5FA019285F90113
:100880008481981771F52496DA01AC0FBD1F249767
:10089000C40FD51F85818C83FD013196E9018E81BE
:1008A00011968C93DF01119689858183FD01319624
:1008B0008A8511968C93DF0111968B8581838C85B7
:1008C00011968C9311978D8512968C93FA018081E5
:1008D00091810A9791838083848195810A9795837A
:1008E0008483DF91CF9108951F93182F8091150174
:1008F00080FF13C08091CB0A9091CC0A23E08E3FF9
:10090000920738F08050944040F41D3011F01A30B6
:1009100021F487EC9AE0612F41D28091AD0A8823BF
:10092000C9F08091150183FF15C01A3099F01D3070
:1009300011F46BE301C0612F8AE996E02FD21D30DC
:1009400019F48AE996E05ADF83E08093A20A82E0F4
:100950008093A80A1F9108958DE0C6DF8AE0C4CF76
:10096000CF93DF93EC0102C0BFDF2196FE0184919B
:100970008823D1F7DF91CF910895CF93DF93EC01D6
:1009800002C02196B1DF88818823D9F7DF91CF910A
:100990000895A5E0B0E0EFECF4E00C94531E1D8246
:1009A000FE01349624E0582F5F7021505A3018F41D
:1009B000352F305D02C0352F395C308334E0969599
:1009C00087953A95E1F761503197009761F721508B
:1009D000822F992787FD90952F5FFE013196E80FB2
:1009E000F91F03C0215040833197615067FD02C059
:1009F0001216C4F3332727FD3095CE010196820FDE
:100A0000931FBBDF2596E2E00C946F1E90E062E03E
:100A100040E3BFCFA6E0B0E0E0E1F5E00C94511E6A
:100A20009C01162F042F1E82FE01359645E0415091
:100A3000C9016AE070E00E941C1E805D8083C901CC
:100A40006AE070E00E941C1E9B0111506115710547
:100A500059F44150842F992787FD90954F5FFE01EF
:100A60003196E80FF91F07C03197442301F7F1CF02
:100A7000415000833197115017FD02C01416C4F382
:100A8000242F332727FD3095CE010196820F931F27
:100A900074DF2696E4E00C946D1EDC01FB0123C09C
:100AA000822F80538A3010F050E002C0382B51E082
:100AB000822F8154863020F42753322B295C51E059
:100AC000822F8156863018F42755322B07C05523C4
:100AD00029F4203271F02A3361F00EC0992331F0ED
:100AE0003193415049F030E090E003C03295307FBF
:100AF00091E02D912223A1F6CF01861B970B08953B
:100B0000FC01DB0120E030E014C0842F80538A30E8
:100B100080F4C90163E0880F991F6A95E1F7220FFD
:100B2000331F820F931F242F30E020533040280FB3
:100B3000391F4191442349F72D933C930895FB01BC
:100B4000982F92959F709A3010F4905D01C0995C37
:100B500090838F708A3010F4805D01C0895C81833E
:100B600008959C01F999FECF1FBA32BD21BD60BD29
:100B70000FB6F894FA9AF99A0FBEF999FECF089534
:100B80009C01F999FECF32BD21BDF89A80B5089538
:100B900082E791E0E5DEE0CEA1E0B0E0E2EDF5E055
:100BA0000C94531E1982009731F00196BE016F5FBD
:100BB0007F4F41E072DF8981882321F083E390E059
:100BC00061E0CFDF10926E00F89428E088E190E0B9
:100BD0000FB6F894A895809360000FBE2093600034
:100BE000FFCF019660E071E041E057DF60910001C6
:100BF00060FF02C0469A01C0469884E390E0B1CFFE
:100C0000A6E0B0E0E6E0F6E00C944D1E6C01019623
:100C1000BE016F5F7F4F43E040DF082F8230A8F1B5
:100C20002981823019F4E22EFF2407C0922F80E040
:100C30002A81E22EFF24E82AF92A10E0FE01E00FC3
:100C4000F11FC70160818DDF000F111F0F5F1F4F64
:100C50000C0D1D1D0894E11CF11C6E010894C11CB3
:100C6000D11C0FC0C801B60141E017DF892B69F024
:100C7000C701698176DF0E5F1F4F82E090E0E80ECA
:100C8000F91EF8018081882369F72696E8E00C9424
:100C9000691E0F931F938C0180E090E061E061DF9B
:100CA00081E090E067E35DDF47DC80E690E060E0B4
:100CB00058DF81E690E060E054DF83E390E060E09D
:100CC00050DF84E390E062E04CDF80E690E060E09B
:100CD00048DF81E690E060E044DFF80181818837F9
:100CE00019F080E090E058DF1F910F91089580E0A7
:100CF00090E046DF813029F481E090E041DF8733E6
:100D000019F080E090E0C5DF84E390E039DF809364
:100D100000010895EF92FF921F93DF93CF9300D0CD
:100D2000CDB7DEB71A8219820196BE016F5F7F4F81
:100D300042E0B3DE2981823041F4922F80E02A81A3
:100D4000E22EFF24E82AF92A02C0E22EFF24C7017E
:100D500017DF182F82E5C8DDC70164E040E319DE24
:100D600084E891E0FDDD812F51DE80E891E0F8DD3F
:100D7000812F90E062E040E24DDEEEDD0F900F90BB
:100D8000CF91DF911F91FF90EF900895FC011582A4
:100D9000148211821082138212820895DC0114964B
:100DA0008D919C91159724E080309207A8F40196CC
:100DB00015969C938E9314978D919C911197FD019C
:100DC000E80FF91F6683019611969C938E938050CD
:100DD000944011F41D921C920895DC0114968D919B
:100DE0009C911597009711F420E019C00197159672
:100DF0009C938E93149712968D919C911397FD015D
:100E0000E80FF91F2681019613969C938E931297F3
:100E10008050944021F413961C921E921297822FB8
:100E20000895CF93DF93DB01EA01322F48818823B5
:100E300069F0FB01E40FF11D81E090E002C0880F32
:100E4000991F2A95E2F72081282B2083332319F05C
:100E5000832F815009C0842F8F5F8C3008F48883E2
:100E6000A80FB11D1C9287E090E0DF91CF9108950B
:100E70001F93182F299A882319F08091180102C016
:100E80008091160190E034E0880F991F3A95E1F7C0
:100E9000A6DC2998112319F08091190102C08091D4
:100EA000170190E024E0880F991F2A95E1F797DC5D
:100EB0001F910895A0E0B0E0E0E6F7E00C94451E35
:100EC0004C01562ED42E122FC02E4E2C209191065E
:100ED0003091920682E0D80ED09E802D11249EEF94
:100EE000D90E992787FD90952817390720F488E8AF
:100EF00091E036DD6FC0281B390B309392062093AA
:100F00009106469A8091BF01882311F4EE2408C00F
:100F10001092BF0181E091E00E94A210EE24E394C0
:100F200080918B06882309F489DBBBDA41E0642ECB
:100F3000712CA12EBB2410E003C080E099DF1F5F5D
:100F40001515D9F7552011F081E092DF8401FF24B7
:100F500015C0C7E0D0E093010C2E02C0220F331F52
:100F60000A94E2F7F8018081822382DF2197FFEF64
:100F7000CF3FDF0781F7F3940F5F1F4FFD1449F751
:100F8000C7E0D0E00D2D112707FD1095080D191DA4
:100F90000CC093010C2E02C0220F331F0A94E2F7FB
:100FA000F8018081822364DF2197AC16BD068CF3A3
:100FB000842D1ADCCA9409F0BECF80919306882351
:100FC00011F05BDA02C086E30BDAEE2011F00E942A
:100FD000FC134698CDB7DEB7E0E10C94611EA9E1A1
:100FE000B0E0E5EFF7E00C94471EFEE0EF2EF12CA9
:100FF000EC0EFD1E0196B7014BE04FDD893009F084
:101000005BC089E1809317018093160180931801DA
:1010100082E380931901C70169E03DD18F8B19826A
:101020001A8207E0A7E010E0E7E06E2E712C71E075
:10103000872E912C570162E0C62ED12CCC0EDD1EDE
:101040007E010894E11CF11C01C007E0802F992764
:1010500087FD90959301281B390BC40102C0880FAE
:10106000991F2A95E2F79C01F501E10FF11D80819E
:101070008223B601A7012A2FD4DEA82F002311F066
:101080000150E4CF81E0B601A7012A2FCADEA82FC4
:101090001F5F1A30D0F2882319F0282F215004C086
:1010A00089818F5F898327E0CE0102966CE04981B8
:1010B00003E05AE0E52EFEDE6996EEE00C94631E36
:1010C000EF920F93DF93CF93CDB7DEB760970FB654
:1010D000F894DEBF0FBECDBF0196BE016F5F7F4F9C
:1010E00040E1DBDC69814A810B818C8180931601B0
:1010F0008D81809317018E81809318018F81809359
:101100001901242F2F70E02EE294AFE0EA22CE01E5
:10111000089642954F700F70CDDE60960FB6F8942A
:10112000DEBF0FBECDBFCF91DF910F91EF9008953D
:10113000AEE0B0E0EEE9F8E00C94431E7C01162F1F
:10114000842F2E87B701412F9AD0F701E10FF11DAF
:101150008083A12EA39419821A824701BB24E7E061
:1011600091E0292E312C82E0482E512C4C0E5D1E30
:101170003E010894611C711C2FC007E010E067015C
:10118000CB0CD11C9101002E02C0220F331F0A94F8
:10119000E2F7D6018C918223B201A3012E2F41DE0A
:1011A000E82F01501040BFEF0F3F1B0759F7D40144
:1011B0008D914D01082E82958025082E8695869565
:1011C000802590E00196959587958170B201A301E5
:1011D0002E2F27DEE82FB394BA1478F2EE2319F0FD
:1011E0002E2F215004C089818F5F898327E089E1F8
:1011F000809317018093160185E2809319018093F3
:101200001801CE0102966CE049810E85BAE0EB2E02
:1012100051DE2E96E2E10C945F1EACE0B0E0E3E11B
:10122000F9E00C944F1EF62EE42E01968E010F5F0E
:101230001F4FB8014BE031DC682FC8014F2D2E2D18
:1012400077DF2C96E6E00C946B1E66E043E0E5CF7A
:10125000219A29985298E9E6F0E0808181608083A4
:1012600082EC91E090939206809391061092360161
:101270001092520110926E0110928B060895982FD1
:1012800006C04150FB01E40FF11D8081980F4423FB
:10129000C1F7892F0895AC0120E006C06150FA0122
:1012A000E60FF11D808128276623C1F7822F08955C
:1012B000A0E0B0E0EEE5F9E00C944D1EDC011092E8
:1012C000A20110928D0197E013968C911397981BB1
:1012D00011961C911197110F110F110F190F1092E8
:1012E0008E01FF24EE2407E057E040E070E0E7E0E5
:1012F000CE2ED12CC1E0D0E07FC0FD01EE0DF11D5E
:10130000848190E0002E02C0959587950A94E2F7BB
:10131000282F2170002311F0015002C0E39407E050
:101320006B3469F4533059F47723B9F5222311F063
:1013300071E062C040938D011092A2011EC05F3F18
:1013400069F56634E1F4E42FF0E0E257FE4F808166
:10135000082E82958025082E86958695802590E01A
:101360000196959587958170907030E0821793076C
:1013700061F040938D017093A20180E057C0653405
:1013800011F06B3411F42223A1F34F5FE42FF0E04E
:10139000E257FE4F108257E02FC070E0222359F130
:1013A000663479F4E42FF0E0E257FE4F9E01052EFB
:1013B00002C0220F331F0A94E2F78081822B8083C0
:1013C0001AC0653411F06B34B1F4E42FF0E0E25749
:1013D000FE4F852F992787FD90959601281B390B85
:1013E000C9019E0102C0220F331F8A95E2F7C9018D
:1013F0002081282B20835150F3948F2D8150811709
:1014000008F47BCF40938D017093A2011F1508F063
:10141000B4CF653411F45F3F11F0772319F04F5FBB
:1014200040938D0180918D01811181E0CDB7DEB7B0
:10143000E8E00C94691EDC0112968C911297ED91F4
:10144000FC911197E80FF11DE08113962C911397F1
:10145000215013962C9313972F5F39F48F5F1296B8
:101460008C93129787E013968C938E2F90E002C096
:10147000959587952A95E2F781700895A0E0B0E0F0
:10148000E4E4FAE00C94491E6C01962E842EFF24AD
:10149000C0E0D0E0F1E0AF2EB12C062F10E00150FB
:1014A000104019C0C601C7DF8823A1F0882059F079
:1014B000C8018C1B9D0B950102C0220F331F8A951A
:1014C000E2F7C90106C0C50102C0880F991FEA945E
:1014D000E2F7F82A2196EC2EC91520F38F2DCDB70F
:1014E000DEB7ECE00C94651EA4E0B0E0EAE7FAE0B9
:1014F0000C944B1EFC0187E08C833496FA83E983BD
:10150000349710928D01818190E023E0880F991F1C
:101510002A95E1F72381821B9109CE970CF45AC0DA
:101520001B82CC24DD245E010894A11CB11C2EC0BA
:10153000ED2CFF24C50168E040E0A0DF082F8EE815
:1015400091E0E80EF91EF7010083002E02950025B8
:10155000002E069506950025C5016DDF10E00F5F92
:101560001F4F159507950170107090E00817190727
:1015700031F4C50160DF9D2D9F5F882319F0D09263
:101580008D0128C0F7018081C826D92EF5E0FD1510
:1015900078F6D0928D01C50168E040E06FDFF82E4B
:1015A000082F002E02950025002E06950695002591
:1015B000C50141DF10E00F5F1F4F159507950170C2
:1015C000107090E00817190729F480E0CF1419F47F
:1015D00081E001C080E02496EAE00C94671EA4E05C
:1015E000B0E0E5EFFAE00C944B1EFC011B8287E0B3
:1015F0008C833496FA83E983349710928D0180812D
:10160000853009F053C0818190E043E0880F991F35
:101610004A95E1F72381821B91098938910509F0E8
:1016200045C019E83FE0C32E30EFD32E80E05E01C5
:101630000894A11CB11C10C0C50168E041E01EDF88
:10164000C80ED11C2EE831E0E20EF31E1827F70178
:101650001083182F1C5D802FE82EFF24082F0F5FAA
:101660008F3050F3C50168E041E008DF182F2EE805
:1016700031E0E20EF31E8095F701808300938D0127
:10168000C50168E041E0FADE082FC10ED11CC5019A
:1016900068E041E0F3DE40E0302F20E0C21AD30AD8
:1016A00090E0C816D90619F441E001C040E0842F4B
:1016B0002496EAE00C94671EEF92FF921F93DF934B
:1016C000CF9300D000D0CDB7DEB7FC013496FA83BB
:1016D000E983349781818430B9F587E08C838381F5
:1016E000813091F51B8210E07E010894E11CF11C11
:1016F00012C0112331F4C70167E041E0BFDE80680A
:1017000004C0C70168E041E0B9DEE12FF0E0E25734
:10171000FE4F80831F5F143060F3CE01019667E0B7
:1017200041E0ACDEE12FF0E0E257FE4F880F80830E
:101730001F5F10938D0190E080918E0182958F70D4
:101740008A3019F491E001C090E0892F0F900F903A
:101750000F900F90CF91DF911F91FF90EF90089520
:10176000FC018181A82FB0E050E0E081CD01841B15
:10177000950B0B964797D8F48E2F90E070E09C0164
:10178000261B370B2C30310594F4255F3F4F7CF03E
:101790008A0F9B1F861B970B841B950B8C30910522
:1017A00034F420E0855F9F4F1CF021E001C020E071
:1017B000822F0895282F30E0C901880F991F820FCA
:1017C000931F860F911D95958795959587950895FB
:1017D000DC0111968C9111978431A8F080916F00F3
:1017E0008D7F80936F0080918A0190E02CE130E042
:1017F000829FF001839FF00D929FF00D1124E65E11
:10180000FE4F10820895662381F0FD01E80FF11D5F
:1018100081E090E013960C90139702C0880F991FF7
:101820000A94E2F72481282B248313968C91139732
:10183000815013968C9313978F5F79F487E01396FA
:101840008C93139711968C9111978F5F11968C93AF
:101850001197A80FB11D14961C92089580918A01CA
:1018600090E02CE130E0829FF001839FF00D929F89
:10187000F00D1124E65EFE4F8081882331F420E0D4
:1018800030E08091C50A8F3F11F021E030E0822FD7
:1018900008951F920F920FB60F920BB60F9211245C
:1018A000EF92FF920F931F932F933F934F935F936A
:1018B0006F937F938F939F93AF93BF93CF93DF9358
:1018C000EF93FF938091930683FF1CC0C091840027
:1018D000D091850010928500109284004A9902C030
:1018E00082E701C086E600D88091930684FF08C095
:1018F000F4E0D695C795FA95E1F78C2F0E94740411
:10190000E09A12C18091C60A882321F082E0809378
:10191000C60A0AC18091A30A823021F483E0809331
:10192000A30A02C18091840090918500E4E096951D
:101930008795EA95E1F7182FE0908A018CE1E89EFF
:10194000E0011124C65EDE4F8881843031F41E32FE
:1019500008F4EAC01F3448F0D4C0853031F41731A0
:1019600008F4E2C0183208F0CCC0982F94504A997D
:101970000CC0923038F4CE0161E02ADF109285006D
:10198000109284001093BC01CFC00091BC01F12ED5
:10199000F01AF092BD0110928500109284009230EE
:1019A00020F4CE0160E014DFBFC0B19A882371F447
:1019B000053608F0B9C084E68F1508F4B5C0088F65
:1019C000F98E81E08A8382E08883AEC0823009F09C
:1019D00072C0CE014896602F4F2DC2DE1A81882337
:1019E00059F0888D602FE6DE888F898D6F2DE2DEBD
:1019F000898F1F5F1A8398C0143008F45AC080EA98
:101A00009FE090938900809388001C3050F0298DCE
:101A1000888D90E0820F911D8536910514F084E049
:101A20003BC01A3080F0298D888D90E0820F911D87
:101A300085974CF485E0888388EE93E09093890045
:101A4000809388002AC080919906882321F1802FF5
:101A50008552873100F589E08F15E8F486E28F150D
:101A6000D0F080E0F01608F081E08823A1F4298D01
:101A7000988D822F8552873170F49A3060F09732BA
:101A800050F480E0921708F081E091E0891719F096
:101A90009093A30A36C083E088830A8FFB8E198255
:101AA00087E08B831C8280916F00826080936F003F
:101AB0003BC018827DCFCE014A96602F4F2D50DE5D
:101AC000882361F0CE0161E083DE8A8D602F72DEB3
:101AD0008A8F8B8D6F2D6EDE8B8F26C0CE01489640
:101AE000602F4F2D3DDE882361F0CE0160E070DE77
:101AF000888D602F5FDE888F898D6F2D5BDE898FEB
:101B000013C080916F008D7F80936F002E2D30E089
:101B10008CE190E0289FF001299FF00D389FF00D97
:101B20001124E65EFE4F1082FF91EF91DF91CF917D
:101B3000BF91AF919F918F917F916F915F914F91E5
:101B40003F912F911F910F91FF90EF900F900BBE3F
:101B50000F900FBE0F901F9018951F920F920FB607
:101B60000F920BB60F9211242F933F934F935F93D5
:101B70006F937F938F939F93AF93BF93EF93FF9355
:101B800080916F008D7F80936F008091930683FF1B
:101B900003C08EE20E94740440918A01242F30E039
:101BA0008CE190E0289FF001299FF00D389FF00D07
:101BB0001124E65EFE4F8081833018F081818230EF
:101BC00040F480916F008D7F80936F008CE190E0F6
:101BD00016C080918C018330E9F48091930682FFD6
:101BE00004C08FE891E00E94B00480916F008D7F67
:101BF00080936F0080918A0190E02CE130E0829F19
:101C0000F001839FF00D929FF00D1124E65EFE4FD0
:101C100010820BC08F5F80938C01842F8F5F809325
:101C20008A01843011F410928A01FF91EF91BF91E3
:101C3000AF919F918F917F916F915F914F913F9164
:101C40002F910F900BBE0F900FBE0F901F90189505
:101C50000F931F93CF93DF938091BD018823E9F009
:101C60008091930687FF17C084E30E94D4018058B7
:101C7000803410F480E00CC0803C10F08FE008C08D
:101C800090E08055904033E0959587953A95E1F73F
:101C90008F590E9474041092BD0180918C01882399
:101CA00009F441C2469A90918B018CE1989FE00122
:101CB0001124C65EDE4FCE0192DC882311F003E5CD
:101CC000C2C0CE0166E4F4DA882309F400C2409170
:101CD0008D01415040938D01942F56E007C09150E3
:101CE000E92FF0E0E257FE4F8081580F9923B9F7B2
:101CF000A42FB0E0FD01E257FE4F6081561711F4AA
:101D0000443068F4852F90E00196262F30E082174A
:101D1000930779F4443068F0A257BE4F5C9306E411
:101D200092C09150E92FF0E0E257FE4F8081280FDA
:101D300002C0942F2CE09923A1F7261709F0C7C100
:101D4000443008F4C4C1CAC180918D018150809390
:101D50008D01893009F0C4C199E020E09150E92F4C
:101D6000F0E0E257FE4F808128279923B9F7809150
:101D70009701281709F0B4C105E465C040918D01B1
:101D8000415040938D016091A201342F50E095E0C5
:101D900020E014C03150E32FF0E0E257FE4FE08125
:101DA0008E2F82958F702827980F662311F0552368
:101DB00021F08E2F8F702827980F5F5F332351F704
:101DC000920F9295907F922BE42FF0E0E61BF109A1
:101DD000E257FE4F8081981761F08B818F5F8B8374
:101DE0008150873009F09AC11B8289818150898393
:101DF00095C10BE428C08B81843009F0DFC0CE018F
:101E000048966CE34EE1ACDC882309F4D7C0C801E6
:101E10006091BC014EE1A4DC682FCE01D9DC1092A8
:101E20008D0190E00BC0E92FF0E0DE01AE0FBF1F87
:101E300014968C91E257FE4F80839F5F953098F304
:101E400090938D0102E580919306782F80FFB7C0B3
:101E500081FF02C020E05BC04091A30160918D0131
:101E6000461791F51092A30120E00EC0E22FF0E09A
:101E7000322F3F5FDF01A257BE4FEC55FE4F9081DE
:101E80008C91981719F4232F241780F32093A30122
:101E90002617D1F480918D0690918E06A0918F0621
:101EA000B09190062091B8013091B9014091BA01EA
:101EB0005091BB01821B930BA40BB50B8697A10518
:101EC000B10510F421E001C020E01092A30190E0E0
:101ED0000AC0E92FF0E0DF01A257BE4F8C91EC550C
:101EE000FE4F80839F5F9617A0F39093A30180918C
:101EF0008D0690918E06A0918F06B09190068093EA
:101F0000B8019093B901A093BA01B093BB01043515
:101F1000F1F476FD1CC080918D018530C0F0809178
:101F200090018B3409F44BC0893609F448C08335DD
:101F300009F445C0843509F442C08D3709F43FC027
:101F40008E37E9F18091910180778037C1F12223AA
:101F5000B1F5802F0E9474048091A201882329F09A
:101F600080918D01815080938D0110E008C0E12F98
:101F7000F0E0E257FE4F80810E9406051F5FE0916E
:101F80008D011E17A0F38091A201882359F0F0E083
:101F9000E257FE4F808190E08F70907061E040E3E7
:101FA0000E94C9048091930685FF05C084E30E94C6
:101FB000D4010E9406050E94AC0401C000E080919B
:101FC000930682FF6DC080E70E947404888190E0D0
:101FD00062E040E20E940A05888D90E024E0880FCC
:101FE000991F2A95E1F765E040E20E940A05898D74
:101FF00090E014E0880F991F1A95E1F765E040E240
:102000000E940A058A8D90E0B4E0880F991FBA9566
:10201000E1F765E040E20E940A058B8D90E0A4E0C4
:10202000880F991FAA95E1F765E040E20E940A0532
:102030008A8190E063E040E20E940A05898190E095
:1020400063E040E20E940A052B8187E090E0821B5A
:10205000910962E040E20E940A0580E20E94740455
:102060008091930685FF08C084E30E94D4010E94FA
:10207000060580E20E9474048B81873019F0898103
:102080008F5F898310E007C0FE01E10FF11D84819D
:102090000E9406051F5F89811817B0F30E94AC04E7
:1020A000188280918C01815080938C0180918B01EA
:1020B0008F5F80938B01843011F410928B014698CE
:1020C000043589F58EE891E00E9420192CC0CE01DC
:1020D00065E4EED8882309F037CE02C004E5B3CE1C
:1020E000CE0102DA882311F008E4ADCECE01E4DAA5
:1020F000882311F004E7A7CE8E01065E1F4FC801AA
:102100006091BC014B8D2CDB682FCE0161DBCE01D1
:102110006BE4CED8882309F460CE30CE8981843038
:1021200009F04CCF68CEDF91CF911F910F910895A8
:1021300080919306882321F00E941E030C943D0297
:102140000C94F801FC018181882371F4809193063D
:102150000E940605809191069091920665E040E20A
:102160000E940A050C94AC04CF01019663E976E065
:1021700041E00E944D05DCCFA1E0B0E0E2ECF0E1EF
:102180000C944F1E8091A30A882309F48DC0E0901F
:102190008D06F0908E0600918F0610919006833088
:1021A00009F069C08FE30E94D401182F863010F423
:1021B00000E018C08DEC9EE00E94C6062C988FEFC0
:1021C0000E94CE0180E00E94CE01082F08C080E06E
:1021D0000E94CE01682F8DEC9EE00E94CE06115029
:1021E000B1F72C9AA5DF1092A30A053709F05CC05D
:1021F00083ED9EE0BE016F5F7F4F41E00E944D0581
:102200000197A1F5998180919906981779F58091A8
:10221000D70E853539F00FC08DEC9EE00E94ED069B
:102220000E9474048091D10E9091D20E892BA1F757
:102230000E94AC0439C08091D10E9091D20E0497C7
:102240009093D20E8093D10E84E090E09093D00EC4
:102250008093CF0E8DEC9EE06AE00E94CE06E09166
:102260008906F0918A0688E009951EC08DEC9EE0F3
:102270000E94C60619C09E2D823049F480919806AE
:10228000981B983088F054DF1092A30A0DC081305B
:1022900059F487E390E00E94C1020E943D0282E06F
:1022A0008093A30AE09298062196E6E00C946B1EB8
:1022B00029980C94EF03299A0C94EF03A7E0B0E05F
:1022C000E4E6F1E10C944E1E282F8091A50684359A
:1022D00051F48091A60A9091A70A01969093A70ABB
:1022E0008093A60A39C0863451F48091A40A909153
:1022F000A50A01969093A50A8093A40A2DC085345F
:1023000051F48091960690919706019690939706C6
:102310008093960621C08B3451F48091A90A909144
:10232000AA0A01969093AA0A8093A90A15C0883434
:1023300051F48091AB0A9091AC0A01969093AC0A4B
:102340008093AB0A09C080919406909195060196FE
:10235000909395068093940685E78983222319F448
:10236000DD24D39412C08091AD0ABE016E5F7F4F11
:102370000E949F0580919906BE016C5F7F4F0E946D
:102380009F0585E58E8386E0D82E0E941E030E945D
:10239000510210E080E891E08EDF80E093E088DF7A
:1023A0001F5F1630B9F780E093E085DF80E891E0A9
:1023B0007FDF80E891E07FDF299887E390E00E944B
:1023C000C10283E00E94F4032C988FE70E94CE01A3
:1023D00080919E068D0D0E94CE017E010894E11C25
:1023E000F11C8701F80181918F010E94CE01802F9D
:1023F0008E198D15B8F306C08AE996E00E94ED06A5
:102400000E94CE0180919E0690919F06892BA1F794
:102410002C9A0E9451028AE996E00E94C60614E1B5
:1024200004C0115081E00E94F4038AE30E94D401A9
:1024300090E08F779070892B11F0112391F778DE5F
:102440002796E7E00C946A1E09DA882361F083E09E
:102450008093A80A8091A00A9091A10A0196909376
:10246000A10A8093A00A8091A80A81508093A80AAB
:10247000882321F083E08093A20A089581E01ECF93
:10248000CF93DF93EC018981882339F480919906F9
:102490000E9406058091AD0A13C08436A1F4809194
:1024A0008D0690918E06A0918F06B091900664E003
:1024B00040E30E94C9048EE20E9474048091A20A43
:1024C0000E9406054DC0833709F04DC08091A60AD1
:1024D0009091A70A61E040E30E94C9048EE20E9445
:1024E00074048091A40A9091A50A61E040E30E94DF
:1024F000C9048EE20E94740480919606909197061A
:1025000061E040E30E94C9048EE20E94740480915D
:10251000A90A9091AA0A61E040E30E94C9048EE2F0
:102520000E9474048091AB0A9091AC0A61E040E390
:102530000E94C9048EE20E947404809194069091D6
:10254000950661E040E30E94C9048EE20E94740493
:102550008091A00A9091A10A61E040E30E94C90421
:102560000E94AC042CC08936D9F4CE01029669E9E8
:1025700076E041E00E944D0580E690E0609199068A
:102580000E94B105CE0104966DEA7AE041E00E9416
:102590004D0581E690E06091AD0A0E94B1050FC043
:1025A0008AE996E00E94C60604C08AE996E00E9485
:1025B000CE06219668816623C1F780E07FDEDF9139
:1025C000CF91089580E690E00E94C005809399061F
:1025D00081E690E00E94C0058093AD0A882321F037
:1025E00081E280939306A4CD08950F931F93809169
:1025F000BE01882379F14A9B1AC08FE30E94D4015F
:10260000082F0F772C988FEF0E94CE0110E009C0A1
:1026100080E00E94CE010E94060580E20E947404C0
:102620001F5F1017A8F32C9A0E94AC0407C085E323
:102630000E94D401813011F0813161F48AE30E945B
:10264000F00186E30E94F0018DE30E94F00184E333
:102650000E94F0011F910F910895CF93DF93E898A6
:10266000249A2C9A8EE190E00E94EF032C988EE140
:1026700090E00E94EF032C9A8DE290E00E94EF031D
:1026800080E30E94F00184E690E00E94EF03C6E937
:10269000D1E0FE018491813450F42196FE016491D1
:1026A0000E94E2012196F1E0CA3FDF0791F783E340
:1026B0000E94F00181E00E94F403DF91CF91089520
:1026C000ACE3B0E0E6E6F3E10C944E1E0196BE01E9
:1026D000615E7F4F4DE10E944D05D82E282F30E0DE
:1026E000215030408F8D90E02817390709F070C0D5
:1026F0008091BE01882321F4B0DF83E00E94F403BF
:1027000086E30E94F0018AE30E94F0018BE30E94BD
:10271000F00189A184FF0CC085E30E94F00188E7E5
:102720000E94F40388E70E94F40388E70E94F40300
:102730004F8D498388A196E789278A83DE01129607
:102740009E012F5D3F4F52E00BC08C918452F901E6
:1027500091919F01892711968C9311975F5F119634
:10276000541798F3E52FF0E07E010894E11CF11C6A
:10277000D701AE0FBF1FEC0FFD1F878D99A18927D1
:102780008C932C988FE70E94CE01870105C0F80139
:1027900081918F010E94CE01802F8E198D15B8F383
:1027A0002C9A8AE30E94F00185E30E94F00103C0A5
:1027B00085E00E94F40385E30E94D4018130C1F7D3
:1027C0008091BE01882319F00E943D0201C0B0DC57
:1027D000EC96E7E00C946A1EFC01019621812237F9
:1027E00029F43BDF81E08093BE010895233709F48B
:1027F00067CF1092BE0108951F93CF93DF93E8989F
:10280000249A2C9A8EE190E00E94EF032C988EE19E
:1028100090E00E94EF032C9A8DE290E00E94EF037B
:1028200080E30E94F00184E690E00E94EF03C6EF8F
:10283000D1E0FE018491813450F42196FE0164912F
:102840000E94E2012196F2E0C233DF0791F783E3B1
:102850000E94F00184E00E94F40310E0115041F066
:1028600084E30E94F0018AE090E00E94EF03F6CF3B
:1028700081E08093BF01DF91CF911F910895EF9286
:10288000FF920F931F93CF93DF937C01EB01FC0129
:1028900000810F5F6115710519F420E030E002C07E
:1028A00024E630E0802F90E043E0880F991F4A959E
:1028B000E1F76AE070E00E94301E260F371FA90181
:1028C000662757FD6095762F2091910630919206EC
:1028D000C901A0E0B0E084179507A607B70728F460
:1028E0008BE392E00E94B004CEC0241B350B3093E2
:1028F0009206209391068091BF01882309F47CDF22
:1029000085E30E94D4018D3071F08AE50E94740441
:1029100085E40E94740482E50E94740482E50E94AA
:10292000740481E34AC08091C6019091C701A091CF
:10293000C801B091C9010097A105B10521F429C0D2
:1029400081E00E94F40380918D0690918E06A09103
:102950008F06B09190062091C6013091C701409139
:10296000C8015091C90182179307A407B50741F325
:1029700080918D0690918E06A0918F06B091900661
:102980002F5F3F4F4F4F5F4F82179307A407B50745
:10299000B9F20E94510285E30E94D4018331C1F053
:1029A0008AE50E94740485E40E94740482E50E9412
:1029B000740482E50E94740482E30E94740485E337
:1029C0000E94D4010E9406050E94AC0415DF5BC082
:1029D000CD2B49F0C0E0D0E084E60E94F4032196BC
:1029E000CA30D105C9F72C988FE70E94CE01E701C4
:1029F00010E004C089910E94CE011F5F1017D0F330
:102A00002C9A10E085E30E94D4018D3059F085E3C3
:102A10000E94D401833131F481E00E94F4031F5FEE
:102A2000183C81F785E30E94D4018D30B9F08AE526
:102A30000E94740485E40E94740482E50E94740478
:102A400082E50E94740483E30E94740485E30E947B
:102A5000D4010E9406050E94AC04CEDE8091BF0125
:102A6000882309F465DB80918D0690918E06A091F4
:102A70008F06B09190068093C6019093C701A093F2
:102A8000C801B093C901CDB7DEB7E6E00C946B1E68
:102A9000EF92FF920F93DF93CF93CDB7DEB72C97D2
:102AA0000FB6F894DEBF0FBECDBFFC018BE089836B
:102AB00081818A831B8282E08C8387818D838085DC
:102AC0008E8381858F8384818887858189878681AC
:102AD0008A871B861C8684E10E94F4037E01089489
:102AE000E11CF11CC70160E070E0C9DE8AE50E94CC
:102AF000740400E006C0EE0DFF1D80810E940605F3
:102B00000F5FE02FF0E0898190E08E179F079CF720
:102B10008091930685FF03C080E00E9406050E9415
:102B2000AC042C960FB6F894DEBF0FBECDBFCF918C
:102B3000DF910F91FF90EF900895CF93DF93EC0119
:102B40009091C001992341F48091C101882321F41F
:102B50008091C2018823B1F48B81803321F08034CD
:102B600011F0803579F48F81891761F4988580910F
:102B7000C101981739F499858091C201981711F411
:102B8000CE0186DF9091C301992341F48091C40165
:102B9000882321F48091C5018823A9F088818B3096
:102BA00091F48B81803479F48F81891761F4988551
:102BB0008091C401981739F499858091C5019817BF
:102BC00011F4CE0165DFDF91CF910895AEE1B0E061
:102BD000ECEEF5E10C944F1E8091BF01882309F4BF
:102BE0006AC04A9B5AC08FE30E94D4018F778983C1
:102BF0008E3110F08DE189832C988FEF0E94CE01E9
:102C000010E052E0E52EF12CEC0EFD1E08C080E035
:102C10000E94CE01F701E10FF11D80831F5F8981C2
:102C20001817A8F380E00E94CE01082F80E00E94D0
:102C3000CE012C9A7E010894E11CF11CC7017DDFB6
:102C40008091930684FF10C08AE70E94740410E00C
:102C500007C0F701E10FF11D80810E9474041F5F1E
:102C600089818117B0F727C08AE50E94740410E0BB
:102C700007C0F701E10FF11D80810E9406051F5F6B
:102C800089818117B0F78091930685FF03C0802F5B
:102C90000E9406050E94AC040EC085E30E94D40188
:102CA000813149F48AE30E94F00186E30E94F00139
:102CB00084E30E94F0016E96E6E00C946B1EAEE198
:102CC000B0E0E4E6F6E1EDC78C01FC0181818237DA
:102CD00011F492DD37C0833711F0863601F5C80153
:102CE0000296BE016F5F7F4F4DE10E944D0590E05F
:102CF0000197298130E08217930729F082E392E05F
:102D00000E94B0041FC060E070E0F8018181833749
:102D100011F461E070E0CE010196B1DD13C081369F
:102D200029F4C801029660EC71E006C0873741F4CF
:102D3000C801029663EC71E043E00E944D0502C0B9
:102D40001092BF016E96E4E0C8C7282F813091F43D
:102D5000299A2091040130910501C901880F991F1A
:102D6000820F931F0E94EF03299880910401909194
:102D7000050134C08091040190910501222309F5D9
:102D8000299A0E94EF0329982091040130910501AE
:102D9000C901880F991F820F931F0E94EF03299A80
:102DA00080910401909105010E94EF0329982091E0
:102DB000040130910501C901880F991F820F931FEB
:102DC00020C0299A0E94EF03299820910401309194
:102DD0000501C901880F991F820F931F0E94EF03FD
:102DE000299A2091040130910501C901880F991F8A
:102DF000820F931F0E94EF03299880910401909104
:102E000005010C94EF030F931F93CF93DF93E89882
:102E1000249A2C9A8EE190E00E94EF032C988EE188
:102E200090E00E94EF032C9A8DE290E00E94EF0365
:102E300080E30E94F00184E690E00E94EF032C986A
:102E400080E40E94CE01CBE4D2E0FE0184910E9496
:102E5000CE012196F2E0C835DF07B9F7809108016D
:102E60000E94CE01809109010E94CE0180910A0149
:102E70000E94CE012396FE0184910E94CE012196EC
:102E8000F2E0C437DF07B9F72C9A2C988EE70E943E
:102E9000CE018BE290E08C010F5F1F4F0E94C005B6
:102EA0000E94CE01C80103331105A9F72C9A83E3D0
:102EB0000E94F00181E00E94F40381E080938B0680
:102EC000DF91CF911F910F910895CF92DF92EF92F2
:102ED000FF921F93CF93DF937C01FC0181818437A4
:102EE00059F4C701029664E071E00E948005809168
:102EF00004019091050111C0833709F0A4C0F701C6
:102F00008281823789F4C701039666E071E00E94EE
:102F10008005809106019091070160E040E20E94E7
:102F20000A050E94AC04FAC0469A8091CC0188231D
:102F3000B1F48091BE01882329F081E08093CA0119
:102F40001092BE018091BF01882329F081E0809317
:102F5000CB011092BF0157DF83E00E94F40386E3A8
:102F60000E94F0018AE30E94F0018BE30E94F001CD
:102F70000E945102CC24DD2424C08A81803311F4C4
:102F800080E005C0813311F481E001C082E0DDDE24
:102F90001F5F21961D3089F7299A80910401909135
:102FA00005010E94EF03299810E08091040190919F
:102FB00005010E94EF031F5F1F31B9F70894C11C80
:102FC000D11C8091060190910701C816D90618F40A
:102FD000E70111E0D2CF8091CC01882341F08091AC
:102FE0009306882371F486E30E94F00116C0809155
:102FF000CA01882349F01092CA012FDB81E0809337
:10300000BE010E943D0209C08091CB01882321F0BE
:103010001092CB01F1DB01C08BD8469889E60E9463
:10302000740483E70E947404E70111E08A8180330D
:1030300019F0813309F086E40E9474041F5F219621
:103040001D30A1F76ECF8237B9F48091BE0188237D
:1030500029F081E08093CA011092BE018091BF01E6
:10306000882329F081E08093CB011092BF01CBDE51
:1030700081E08093CC0152C0863659F5F7018281F8
:10308000803351F480E18093080180EB8093090143
:1030900081E780930A0107C0C701029668E071E0EA
:1030A00043E00E944D0589E60E94740486E60E9472
:1030B00074048AE30E947404809108010E9406054A
:1030C000809109010E94060580910A010E9406056F
:1030D00028CF883719F58091CA01882339F01092DA
:1030E000CA01BBDA81E08093BE0110C08091CB01A0
:1030F000882321F01092CB017FDB0EC082E090E0AC
:103100000E94C10280919306882319F00E943D021B
:1031100003C086E30E94F0011092CC01DF91CF91B1
:103120001F91FF90EF90DF90CF900895DC01E5EDC7
:10313000F1E00EC0109751F091818C91981731F405
:10314000928111968C9111979817A1F0E20FF11DC1
:103150002081222321F082E0E338F80758F382E04F
:10316000E338F80719F010F0E3E8F2E0AB2B11F0C8
:10317000E0E0F0E0CF010895CF93DF93EC01D6DFDC
:10318000FC01009779F0909183028081981750F4A8
:10319000E90FF11D80818A8389E78B8381818C838C
:1031A00081E001C080E0DF91CF9108950F931F93DC
:1031B000CF93DF938C018091930686FF18C084E53E
:1031C0000E947404C0E0D0E0F801EC0FFD1F808184
:1031D0000E9406052196C530D105B1F7809193066E
:1031E00085FF03C08AEF0E9406050E94AC04DF91B0
:1031F000CF911F910F91089586E30E94F001809175
:10320000D001833511F08BE401C08BE90E94F403F7
:103210008EEC91E065E04CE021E00E9498080E946D
:103220003D028EEC91E0C2CFE7DF8091D00189367C
:1032300031F081E08093D40189E28093C50A08953A
:103240001F93FC014081318112819381248189E2A5
:103250008093C50A1092D4015091AE0A552329F4E7
:103260008091C40A882309F4C5C08091CE018417D7
:1032700021F48091CF01831771F01092B00A10925F
:10328000CD0183E0809383028FEF8093C50A409342
:10329000CE013093CF018091B00A8F3F09F4AAC0CC
:1032A0001093D0019093D1012093D2011123E1F02A
:1032B0008823D1F4251761F0243651F0812F8355EE
:1032C000823010F01D3721F48FEF8093B00A92C046
:1032D000143509F48FC0892F807F803609F08AC0A9
:1032E00090679093D10185C08EEC91E045DF8823F3
:1032F00029F48091B00A882309F47CC09091CD0113
:10330000992311F0892F06C0E091B00AF0E0EC5843
:10331000FD4F8491833541F4143531F48091B00A26
:103320008E5F8093B00A0DC0811759F01092B00AD9
:103330001092CD0183E0809383028FEF8093C50AC2
:1033400059C0992379F0809183028E5F8093830224
:103350008EEC91E011DF882371F48091B00A8E5FCA
:103360008093B00A9091B00AE92FF0E0EB58FD4F3E
:1033700014911F3F59F48091D0018093CD01843680
:10338000C1F58091AF0A8093D20133C01093D00170
:1033900087E78093D1018091AE0A8093D201892F73
:1033A0008E5F8093B00A1092CD018E3001F58EECC5
:1033B00091E0BCDEFC01009781F0808190E023E881
:1033C00032E0281B390BDF01A80FB91F02C08D9115
:1033D0008193E217F307D8F310821092B00A10928B
:1033E000CD0183E0809383028FEF8093C50A112380
:1033F00009F01ADF1F9108958091D401882351F0BC
:10340000FBDE89E28093C50A8091D40181508093CC
:10341000D40108951092B00A1092CD0183E08093F8
:1034200083028FEF8093C50A0895A6E0B0E0EAE139
:10343000FAE133C44091C40A8091B10A882341F073
:10344000833019F08DE790E015C087E791E012C056
:10345000842F90E0877090702DE730E0BC01629F70
:10346000C001639F900D729F900D1124825B9F4855
:10347000959587959093B30A8093B20A4A831B82ED
:1034800004EB1AE0FF246E010894C11CD11C8CE2ED
:10349000E82EF80190819F3FB1F08091AE0A8F0D28
:1034A00089838091B10A882311F0EC8203C09C8348
:1034B000F80181818D83C60165E04CE021E00E9426
:1034C0009808C60173DEF3940E5F1F4FF8E0FF16F5
:1034D00001F78091B10A882341F0833019F41092EA
:1034E000B10A03C082508093B10A2696E8E0F1C386
:1034F00085E390E00E94C0058093AE0A86E390E0E9
:103500000E94C0058093C40AE4EBFAE09FEF908329
:1035100032968AE0E43CF807D1F71092B00A109294
:10352000CD0183E0809383029093C50A1092D50168
:1035300008956F927F929F92AF92BF92CF92DF9247
:10354000EF92FF920F931F93DF93CF9300D000D0A1
:1035500000D0CDB7DEB73C017C010894E11CF11C22
:10356000C701BE016F5F7F4F45E00E944D05E981B5
:10357000843008F0ACC0E130A9F4833061F485E315
:1035800090E06A810E94B10586E390E06B810E9421
:10359000B105AEDF22C18091AE0A0E94060580917E
:1035A000C40A90C0E23009F04DC0813029F020E01B
:1035B00030E08A81813011F421E030E0E22E809108
:1035C000D501882321F48CE892E00E94B00405ED37
:1035D00011E02EC081E0053D180719F080E20E943D
:1035E0007404F80181810E940605F80182810E941D
:1035F0000605EE20C9F08AE30E94740453E0F52E1C
:103600000FC0F3E0FF1528F4F0FE03C08CE20E9427
:103610007404F801EF0DF11DF39480810E940605FA
:10362000F8018081F81668F3F8018081080F111DF8
:10363000F8018081882309F447C0F2E003381F07AE
:1036400048F242C0E33049F480E090E06FDD25EDC0
:1036500031E02255281B822F35C0E03149F504EBBB
:103660001AE0EE24FF24F80180818F3FA1F0EE20C4
:1036700019F080E20E9474048F2D0E9406058AE3EF
:103680000E947404F80180810E940605F80181817E
:103690000E940605E3940E5F1F4FF394F8E0FF16B7
:1036A00011F7EE2089F488E892E00E94B0040CC083
:1036B000E13151F48091B20A9091B30A6DE770E064
:1036C000BBD2862F0E9406050E94AC0486C0809162
:1036D000AE0AE817D0F1482F50E0F0E0CA01079693
:1036E0008E179F0794F19A818091C40A981769F503
:1036F0008C818F3231F4C3016CE042E00E940D09ED
:103700006CC02D818C32C1F42093B10A81E090E02D
:103710009093B30A8093B20A30E0220F331F220F36
:10372000331F8091910690919206820F931F909380
:1037300092068093910651C0E41BF50BEE0FF0E06A
:10374000EC54F54F8083218348C080E090E0EEDCAC
:103750008C01D7010D900020E9F71197AE19BF0930
:10376000B695A7959A2E9394890D911D855D9140EC
:103770008F3A910574F5F80190827801DD24D39495
:10378000CC24C3941BC057010894A11CB11CC301D5
:103790008C0D911DB50141E00E944D05F2E0FD1533
:1037A00048F4D0FC07C0F7018081843619F4818188
:1037B0008093AF0AF2E0CF0ED3947501D91418F3B9
:1037C00082E00338180748F40D0D111DF80110822E
:1037D00004C082E892E00E94B00426960FB6F894E6
:1037E000DEBF0FBECDBFCF91DF911F910F91FF9034
:1037F000EF90DF90CF90BF90AF909F907F906F90B1
:103800000895A0E0B4E0E6E0FCE149C28091C60A78
:10381000882309F457C0813011F580918D0690916D
:103820008E06A0918F06B0919006209184022817F1
:1038300009F448C085E30E94D401813129F48AE368
:103840000E94F0010E943D0280918D0690918E06AB
:10385000A0918F06B09190068093840233C08FE3CD
:103860000E94D401082F2C988FEF0E94CE0110E007
:103870007E010894E11CF11C08C080E00E94CE018A
:10388000F701E10FF11D80831F5F1017B0F32C9A31
:1038900081E08093150110E07E010894E11CF11C89
:1038A00007C0F701E10FF11D80810E9474041F5FC2
:1038B0001017B8F30E94AC048FEF8093150181E0DC
:1038C0008093C60AC050DC4FE6E005C20F931F93F9
:1038D000CF93DF93EC01DC010D900020E9F7119705
:1038E000A81BB90B8981823751F487E390E00E94CD
:1038F000C1020E943D0281E08093C60A29C083373D
:1039000029F50A2F2C988FE70E94CE01802F825034
:103910000E94CE0112E004C089810E94CE011F5F87
:1039200021961017C8F32C9A0E94510204C084E615
:1039300090E00E94EF038AE30E94D40190E08F7729
:103940009070892BA1F70E943D0202C01092C60A16
:10395000DF91CF911F910F9108950F931F93CF93F4
:10396000DF93EC0100E0802F90E09C01220F331FD9
:10397000280F391FF901E457FF4F1491F901E3575C
:10398000FF4F25913491112399F0209739F480E26B
:103990000E947404812F0E94740408C088818117DA
:1039A00029F4CE01F901099581E003C00F5FDBCF57
:1039B00080E0DF91CF911F910F9108951F93109197
:1039C00015018093150136C08DEC9EE00E94ED0636
:1039D000982F8F3F79F18A3011F08D3009F5E09101
:1039E0008502EE2339F1F0E0EA57FD4F108286E8B8
:1039F00092E0B3DF882389F488EA92E00E94B00461
:103A000086E892E00E94BD0480E992E00E94B00442
:103A100080E090E0A2DF0E94AC04109285020AC010
:103A200080918502E82FF0E0EA57FD4F90838F5F89
:103A3000809385028091D10E9091D20E892B21F630
:103A4000109315011F9108959C0197FF04C082E017
:103A50008093C0003F773093C5002093C40088E96D
:103A60008093C10086E08093C2000895E0918906AA
:103A7000F0918A0681E009958091C10085FD0BC017
:103A80008091CB0A9091CC0A892B29F08091C100BA
:103A900080628093C10008951F920F920FB60F921B
:103AA0000BB60F9211242F933F934F935F936F9315
:103AB0007F938F939F93AF93BF93EF93FF9388B1BF
:103AC00090E4892788B96091C6008091C000887110
:103AD00021F48DEC9EE00E94CE06FF91EF91BF9104
:103AE000AF919F918F917F916F915F914F913F9196
:103AF0002F910F900BBE0F900FBE0F901F90189537
:103B00001F920F920FB60F920BB60F9211242F93A4
:103B10003F934F935F936F937F938F939F93AF9355
:103B2000BF93EF93FF938091CB0A9091CC0A892B9E
:103B300039F087EC9AE00E94ED068093C60005C03C
:103B40008091C1008F7D8093C100FF91EF91BF9163
:103B5000AF919F918F917F916F915F914F913F9125
:103B60002F910F900BBE0F900FBE0F901F901895C6
:103B7000E4E6F0E080818B7F80832F9A84B1806BB4
:103B800084B9269880E58CBD8DB581608DBD089582
:103B9000CF93DF9382E40E947404C091D312D0913A
:103BA000D412CE0165E040E20E940A050E94AC04F6
:103BB00083E50E94740480910D0190910E0165E0EF
:103BC00040E20E940A050E94AC0485E40E9474044D
:103BD00080910F019091100165E040E20E940A057A
:103BE0000E94AC0486E40E947404209721F4C091E2
:103BF0000D01D0910E0120910F013091100121157E
:103C0000310541F42DB73EB780910B0190910C0125
:103C1000281B390BC217D30718F080E090E003C0CF
:103C2000C9018C1B9D0B65E040E20E940A050E94C1
:103C3000AC04DF91CF910895AA1BBB1B51E107C0D3
:103C4000AA1FBB1FA617B70710F0A61BB70B881F2C
:103C5000991F5A95A9F780959095BC01CD010895BB
:103C600097FB092E07260AD077FD04D0E5DF06D0A2
:103C700000201AF4709561957F4F0895F6F790959E
:103C800081959F4F08952F923F924F925F926F922E
:103C90007F928F929F92AF92BF92CF92DF92EF92DC
:103CA000FF920F931F93CF93DF93CDB7DEB7CA1B5D
:103CB000DB0B0FB6F894DEBF0FBECDBF09942A8888
:103CC000398848885F846E847D848C849B84AA8430
:103CD000B984C884DF80EE80FD800C811B81AA81BD
:103CE000B981CE0FD11D0FB6F894DEBF0FBECDBF88
:083CF000ED010895F894FFCFE7
:103CF80002323100A401060010B0712000D7120072
:023D08000000B9
:00000001FF
