:100000000C94EB1A0C94071B0C94071B0C94071B05
:100010000C94071B0C94071B0C9483290C945D3BD8
:100020000C94673B0C94713B0C940F430C94071B8E
:100030000C94071B0C94071B0C94071B0C94071BB8
:100040000C94071B0C947D2A0C94071B0C94071B23
:100050000C94071B0C940F1E0C94071B0C94071B8D
:100060000C94071B0C94071B0C94071B0C94071B88
:100070000C94071B0C94071B0C94071B0C94071B78
:100080000C94071B0C94071B0C94071B0C94071B68
:100090000C94071B0C94071B1201100102000008AE
:1000A000EB034B20000001020001090243000201A2
:1000B00000C0320904000001020201000524000111
:1000C000100524010301042402060524060001078B
:1000D0000582030800FF09040100020A000000076E
:1000E0000504022000000705830220000004030924
:1000F00004180362007500730077006100720065E8
:10010000002E006400650000002A034300550052E1
:1001100000000000030F1E2627000000030F1E250D
:1001200036386700030F256740605000030F2751E2
:1001300088838100030F2750C8C3C2002700000036
:1001400000000000670000000000000050000000F8
:10015000000000008100000000000000C20000005C
:100160000000000032383F3F3F3F3F0D2E2D07D3A8
:10017000913D0432000006002165E855E43023B9C2
:1001800000073018146C070090876BF85617E92A9F
:10019000001F4100202F2000203D20005620312E3E
:1001A00032342043555200202F2000203D200042B1
:1001B0004F56460D0A0000535300547D7DFFFF4B00
:1001C0004B7E7E00454F42004E2F4100FFFFFFFF58
:1001D000FFFFFFFFFFFFFFFFFFFFFFFFFFFFFFFF2F
:1001E000FFFFFFFFFFFFFFFFFFFFFFFFFB05FFFF1D
:1001F000FFFFFFFFFFFFFFFFFFFFFFFFFFFFFFFF0F
:10020000FFFFFFFFFFFFFFFFFFFFFFFFFFFFFFFFFE
:10021000FFFFFFFFFFFFFFFFFFFFFFFFFFFFFFFFEE
:10022000FFFFFFFFFFFFFFFFFFFFFFFFFFFFFFFFDE
:10023000FFFFFFFFFFFFFFFFFFFFFFFFFFFFFFFFCE
:10024000FFFFFFFFFFFFFFFFFFFFFFFFFFFFFFFFBE
:10025000FFFFFFFFFFFFFFFFFFFFFFFFFFFFFFFFAE
:10026000FFFFFFFFFFFFFFFFFFFFFFFFFFFFFFFF9E
:10027000FFFFFFFFFFFFFFFFFFFFFFFFFFFFFFFF8E
:10028000FFFFFFFFFFFFFFFFFFFFFFFFFFFFFFFF7E
:10029000FFFFFFFFFFFFFFFFFFFFFFFFFFFFFFFF6E
:1002A000FFFFFFFFFFFFFFFFFFFFFFFFFFFFFFFF5E
:1002B000FFFFFFFFFFFFFFFFFFFFFFFFFFFFFFFF4E
:1002C000FFFFFFFFFFFFFFFFFFFFFFFFFFFFFFFF3E
:1002D000FFFFFFFFFFFFFFFFFFFFFFFFFFFFFFFF2E
:1002E000FFFFFFFFFFFFFFFFFFFFFFFFFFFFFFFF1E
:1002F000FFFFFFFFFFFFFFFFFFFFFFFFFFFFFFFF0E
:10030000FFFFFFFFFFFFFFFF70AFFFFFFFFFFFFFDC
:10031000FFFFFFFFFFFFFFFFFFFFFFFFFFFFFFFFED
:10032000FFFFFFFFFFFFFFFFFFFFFFFFFFFFFFFFDD
:10033000FFFFFFFFFFFF00FFFFFFFF00FFFFFFFFCB
:10034000FFFFFFFFFFFFFFFFFFFFFFFFFFFFFFFFBD
:10035000FFFFFFFFFFFFFFFFFFFFFFFFFFFFFFFFAD
:10036000FFFFFFFFFFFFFFFFFFFFFFFFFFFFFFFF9D
:10037000FFFFFFFFFFFFFFFFFFFFFFFFFFFFFFFF8D
:10038000FFFFFFFFFFFFFFFFFFFFFFFFFFFFFFFF7D
:10039000FFFFFFFFFFFFFFFFFFFFFFFFFFFFFFFF6D
:1003A000FFFFFFFF00FFFFFF00FF00FFFFFD04F462
:1003B0000EFFFF0FFFFFE403EFFFFFFFE71029FF32
:1003C000FFFFE14FFFFFFFE02FFFFF40EFFFFFFFC9
:1003D000FF0FFFFFFFFFFFFFFFFFFFFFFFFFFFFF1D
:1003E000FFFFFFFFFFFFFFFFFFFFFFD02FFFE40036
:1003F0003DFFFFC400FFFFFC61004AFFFC61003AC3
:10040000FFFFFFF300FFF0000000FFFFF71029FFE0
:10041000F00000000FFFA30039FFFFB3004DFFFF06
:10042000FFFFFFFFFFFFFFFFFFFFFFFFFFFFFFFFDC
:10043000FFFFFFFFFFFFFFFFFB51016EFFFFFFFF0D
:10044000FFFFFFFC00AFFFF0000028FFFFFA4003B2
:100450009FF000139FFFF00000000FF00000000F5E
:10046000FFFA3003AFF00FFFF00FFF000000FFFFB7
:10047000FF00000FF00FFF402FF00FFFFFFFF00213
:10048000FF200FF003FFF00FFFE4004DFFF000012D
:1004900039FFFFE4004DFFF0000038FFFFA2004BE2
:1004A000FFF00000000FF00FFFF00FF108FFA01F9A
:1004B00010FFFFFF00F404FF602F502FFFF403F044
:1004C0000000000FFFF0001FFFF40EFFFFFFFF30E2
:1004D00000FFFFFFE201EFFFFFFFFFFFFFFFF50E51
:1004E000FFFFFFFFFFFFFFF00FFFFFFFFFFFFFFF1B
:1004F000FFFFFFFFF00FFFFFFFFFFFFFFB2000FFED
:10050000FFFFFFFFFFF00FFFFFFFFFFF00FFFFFFF9
:10051000FF00FFFFF00FFFFFFFF0000FFFFFFFFFE7
:10052000FFFFFFFFFFFFFFFFFFFFFFFFFFFFFFFFDB
:10053000FFFFFFFFFFFFFFFFFFFFFFFFFFFFFFFFCB
:10054000FFFFFFFFFFFFFFFFFFFFFFFFFFFFFFFFBB
:10055000FFFFFFFFFFFFFFFFFFFFFFFFFFFFFFFFAB
:10056000FFFFFFFFFFFFB200FFFFFF00FFFFFF00E5
:100570002AFFFFFFFFFFFFFFFFFF00FFFFFF00FF5E
:1005800000FFFFFA09F01FFFFF0FFFFF37E92FFF02
:10059000FFFF500000FFFFFF52FFFFFFFF70BFFF94
:1005A000FFC05FFFFFFFFF0FFFFFFFFFFFFFFFFF2A
:1005B000FFFFFFFFFFFFFFFFFFFFFFFFFFFFFFFF4B
:1005C000FF50AFFE100001EFFF0000FFFFF0000042
:1005D000008FF00000008FFFFF9000FFF000000090
:1005E000FFFF400000FFF00000000FF90000007F57
:1005F000FB000000EFFFFFFFFFFFFFFFFFFFFFFF1C
:10060000FFFFFFFFFFFFFFFFFFFFFFFFFFFFF00008
:100610000004FFFFD5103CFFFFF7005FFFF0000074
:10062000006FFF7000000FF0000004FFF0000000FA
:100630000FF00000000FFF7000000FF00FFFF00F31
:10064000FF000000FFFFFF00000FF00FF800EFF0C9
:100650000FFFFFFFF000EE000FF000EFF00FFE10B5
:100660000001EFF00000007FFF100001EFF000003C
:10067000006FF9000000FFF00000000FF00FFFF026
:100680000FF504FF703F30EFFFFE01FC00EE00BFEE
:10069000D00AFFB00DF00000000FFFF00FFFFFFCCD
:1006A00007FFFFFFFFFF00FFFFFF40003EFFFFFFD0
:1006B000FFFFFFFFFF24FFFFFFFFFFFFFFF00FFF24
:1006C000FFFFFFFFFFFFFFFFFFFFF00FFFFFFFFF39
:1006D000FFFFF20000FFFFFFFFFFFFF00FFFFFFF34
:1006E000FFFF00FFFFFFFF00FFFFF00FFFFFFFF026
:1006F000000FFFFFFFFFFFFFFFFFFFFFFFFFFFFFF9
:10070000FFFFFFFFFFFFFFFFFFFFFFFFFFFFFFFFF9
:10071000FFFFFFFFFFFFFFFFF00FFFFFFFFFFFFFE8
:10072000FFFFFFFFFFFFFFFFFFFFFFFFFFFFFFFFD9
:10073000FFFFFFFFFFFFFFFFFFFFFFFF20BFFFFFE8
:10074000FF00FFFFFFFC01FFFFFFFFFFFFFFFFFFB9
:1007500000FFFFFF00FF00FFFFF40ED06FFE500010
:100760000FFF0FFF0FFFFFFF00CFD5FFFFFFFFFFC2
:10077000FFFFFE01FFFFFFF20EFFFFF57D0E74FF8E
:10078000FFFFFFFFFFFFFFFFFFFFFFFFFFFFFFFF79
:10079000FFFFFFFFFFFFFE01FFF902DE207FFF3BAF
:1007A00000FFFFF39DFE701FF38DFE700FFFFD0233
:1007B00000FFF00FFFFFFFFA01CFD5FFFFFFFF7033
:1007C0005FF107EE801FF305EE706FFFFFFFFFFF85
:1007D000FFFFFFFFFFFFFFFFFFFFFFFFFFFFFFFF29
:1007E000FFFFFFFFF3AEFB00FFFB000000DFFFF3A6
:1007F000001FFFF00FFF900FFC009EFB5FF00FEA61
:10080000109FF00FFFFFFFF00FFFFFFFFC009EFCAB
:100810005FF00FFFF00FFFFF00FFFFFFFFFFF00F84
:10082000F00FB00AFFF00FFFFFFFF000BC000FF069
:10083000008FF00FF902DE207FF00FFE801FF9021B
:10084000EE308FF00FFE800FF109FEB4FFFFFF00C6
:10085000FFFFF00FFFF00FF902FF307F40BFFFFCFA
:1008600003FF406802FFF601FF204FFFFFFE004F2D
:10087000FFF00FFFFFFF31EFFFFFFFFF00FFFFF56E
:1008800004E505FFFFFFFFFFFFFFFFFFFFFFFFFF87
:10089000FFFFFFF00FFFFFFFFFFFFFFFFFFFFFFF67
:1008A000F00FFFFFFFFFFFFFF00EFFFFFFFFFFFF57
:1008B000FFF00FFFFFFFFFFFFFFFFFFFFFFFFFFF47
:1008C000F00FFFFFFFFFF00FFFFFFFFFFFFFFFFF36
:1008D000FFFFFFFFFFFFFFFFFFFFFFFFFFFFFFFF28
:1008E000FFFFFFFFFFFFFFFFFFFFFFFFFFFFF00F17
:1008F000FFFFFFFFFFFFFFFFFFFFFFFFFFFFFFFF08
:10090000FFFFFFFFFFFFFFFFFFFFFFFFFFFFFFFFF7
:10091000FFFF00FFFFFFFF00FFFFFFFF00FFFFFFE4
:10092000FFFFFFFFFFFF00FFFFFF00FF00FFF000E2
:10093000000000F500000FFF48F92FFFFFFF20BF68
:10094000FFFFFFFFFFFFFFFFFA06FFFFFFF808FFB3
:10095000FFFE70006DFFFFFF00FFFFFFFFFFFFFFC7
:10096000FFFFFFFFFFFFFFFFFFFFFFFFF609FFF3A2
:100970000BFFC02FFFFF00FFFFFFFFFFF00FFFFF88
:10098000FFF00FFFF40D00FFF00FFFFFFFF40AFF71
:10099000FFFFFFFFFE00DFF00EFFF00FF00EFFF095
:1009A0002FFFFFFFFFFFFFFFFFFFFFFFFFFFF93FED
:1009B000FFFFFFFFFFF38EFFFFFFFFFFFE00FFE1E2
:1009C00005EE504FFFF0120EFFF00FFFF00FF5068F
:1009D000FFFFFFF00FFFA03FF00FFFFFFFF00FFF43
:1009E000FFFFF507FFFFFFF00FFFF00FFFFF00FF16
:1009F000FFFFFFFFF00FF00E107FFFF00FFFFFFF74
:100A0000F00268200FF0021FF00FF40BFFC02FF070
:100A10000FFFF00FF40BFFC02FF00FFFF00FF00EE1
:100A2000FFFFFFFFFF00FFFFF00FFFF00FFD00FFD4
:100A300010BF808F00F904FFC0010BFFFE009A0079
:100A4000EFFFFFF400EFFFF00FFFFFFFC08FFFFF8E
:100A5000FFFF00FFFF806FFF805FFFFFFFFFFFFFD3
:100A6000FFFFFFFFFFB40027FFF00D3029FFFFF766
:100A70002003BFFFA203C00FFFD4003AFFF0000025
:100A800000FFFFB202B00FF00D3005EFFF0000FFD6
:100A9000FFFF0000FFFFF00FF700AFFFF00FFFFFB9
:100AA000F0070A30AFF00D3005EFFFD4004CFFF037
:100AB0000D3029FFFFA203C00FFF00D4000FFF82FB
:100AC0000015BFF0000000FFF00FFFF00FF208FF6D
:100AD000A01F00FFFFFF00F501FF104FF305FF808F
:100AE0001FF00000000FFFFF00FFFFFFFF00FFFFF0
:100AF000FFFF00FFFFFFFFFFFFFFFFFF00FFFFFF04
:100B0000FFFFFFFFE000000000F00C0FFFFFE40319
:100B1000EFC78FFFC01EFFFFFFFFFFFFFFFFF40BBC
:100B2000FFFFFFFC03FFFFFE70006DFFFFFF00FFF4
:100B3000FFFFFFFFFFFFFFFFFFFFFFFFFFFFFFFFC5
:100B4000FFFFE00FFFF10EFFE00FFFFF00FFFFFFD1
:100B5000FFFFC04FFFFFFE802FFF909F00FFF001BF
:100B6000015DFFF1091018FFFFFFF803FFF407FE16
:100B7000803FF00EFFE00FFFFF00FFFFFFFF00FFD1
:100B8000FFFFFFC5000FF00000000FF0005CFFFF4B
:100B9000FFFFF208FF803FFFE01FFFC0470BFFF0A1
:100BA0000FFFA02FF10DFFFFFFF00FFFE00FF00F81
:100BB000FFFFFFF00FFFFFFFF10DFFFFFFF00FFF43
:100BC000F00FFFFF00FFFFFFFFFFF00FF00202FF3B
:100BD000FFF00FFFFFFFF00723400FF00A0BF00FAD
:100BE000F10EFFE00FF00FFE801FF10EFFE00FF09F
:100BF0000FFE801FF2018EFFFFFFFF00FFFFF00FCF
:100C0000FFF00FFE00EE00EFA04E00E507FFF4003E
:100C10002FFFFF800106FFFFFFA00AFFFFF00FFF7D
:100C2000FFFFF21FFFFFFFFF00FFFFFFFFFFFFFFC0
:100C3000FFFFFFFFFFFFFFFFFFFFFF0000006FF060
:100C4000010000BFFE2000000FFC0000100FFD009F
:100C50000000AFF0000000FFFD0000000FF00100F9
:100C6000005FFF0000FFFFFF0000FFFFF00F800BA1
:100C7000FFFFF00FFFFFF00000002FF00100005F0A
:100C8000FD000000DFF0010000BFFC0000100FFFBE
:100C90000010000FF50000000FF0000000FFF00F43
:100CA000FFF00FF703FF405F30DFFFFE02FE108A08
:100CB00000EFFA00FF306FF00000000FFFFF00FFB1
:100CC000FFFFFF00FFFFFFFF00FFFFFFFFFFFFFF32
:100CD000FFFF00FFFFFFFFFFFFFFFFA09F01FFF2ED
:100CE000040BFFFFFFFFA68EFFFF6004FFFFFFFF67
:100CF000FFFFFFFFF10EFFFFFFFE00FFFFF56E0E8F
:100D000074FFFFFF00FFFFFFFFFFFFFFFFFFFFFF7D
:100D1000FFFFFFFFFFFFFFFF808FFFF00F33F00F9C
:100D2000FFFF00FFFFFFFFFE20EFFFF00004EFFEDC
:100D300003FF00FFF0000000DFF00000008FFFFF66
:100D4000F10CFFFE400004EFF205EF700FFFFF0013
:100D5000FFFFFFFF00FFFFFE820038EFF000000002
:100D60000FFE930028EFFFFF305FFF30BD30500FC4
:100D7000FF90AC07FFF0000002CFF00FFFFFFFF085
:100D80000FFFF00FF0000000FFF0000000FFF00F79
:100D9000FFFFFFF00000000FFFFF00FFFFFFFFFF5E
:100DA000F00FF00000EFFFF00FFFFFFFF00A0080F0
:100DB0000FF00E04F00FF00FFFF00FF00000007FB7
:100DC000F00FFFF00FF0000000AFFB00003BFFFF53
:100DD000FF00FFFFF00FFFF00FFF20BC01FFC02D51
:100DE00000C309FFFC00BFFFFFF1000EFFFFFE1074
:100DF0005FFFFFF00FFFFFFFFB08FFFFFFFF00FF9C
:100E0000FFFFFFFFFFFFFFFFFFFFFFFFFFFFFFFFF2
:100E1000FF4BEFB01FF004EE502FF701BEEB5FF475
:100E200004EE500FF509EFB02FFFF00FFFFFF503B1
:100E3000EE400FF005EF900FFFFF00FFFFFFFF00F8
:100E4000FFFFF00900BFFFFFF00FFFFFF00C00C035
:100E50000FF005EF900FF504EE503FF004EE502F29
:100E6000F404EE500FFF004DFFFFF00AFFDA3FFFE2
:100E7000F00FFFFFF00FFFF00FFD00FF10BF70BF7E
:100E800000FC06FFB0010AFFFF00BF00DFFFFFFA12
:100E900000AFFFFF00FFFFFFFF00FFFFFFFF00EFBE
:100EA000FFFA1039EE6FFFFF21FFFFFFFFFFFFFF8B
:100EB000FF40EC06FFFB10002EFFFE86BFFFFFF990
:100EC00007006F00FFFFFFFFFFFFF00FFFFFFFFFB7
:100ED00000FFFFFFFF0FFFFFF00000000FFFFFFF0D
:100EE000FFFFFFFFFFFFFFFFFFFFFFFFFFFE00EF22
:100EF000FFF00F33F00FFFFF00FFFFFFFFD10BFFED
:100F0000FFF00002CFF30EFF00FFF4BEFC303FF015
:100F100005EE701FFFFF902FFFFE200002DFFA009A
:100F200000000FFFFF00FFFFFFFF00FFFFF0028D3B
:100F3000FFFFFFFFFFFFFFFFFFE8200FFFF506FFAA
:100F4000FF00E300000FFF40EF02FFF0000001BFD1
:100F5000F00FFFFFFFF00FFFF00FF0000000FFF0B9
:100F6000000000FFF00FF0000FF00000000FFFFF87
:100F700000FFFFFFFFFFF00FF000107FFFF00FFFFB
:100F8000FFFFF00D00C00FF00F50E00FF00FFFF06B
:100F90000FF0000038FFF00FFFF00FF0000005FF2A
:100FA000FFE50000AFFFFF00FFFFF00FFFF00FFFB6
:100FB000507904FFD00B13A00CFFFB009FFFFFFA3A
:100FC000008FFFFFF501EFFFFFF00FFFFFFFFF2195
:100FD000FFFFFFFF00FFFFFFFFFFFFFFFFFFFFFF20
:100FE000FFFFFFFFFFFFFFFA30000FF00DFFE00FE4
:100FF000F10DFFFFFFF00DFFE00FF10000000FFF0C
:10100000F00FFFFFF10DFFD00FF00EFFF00FFFFF0D
:1010100000FFFFFFFF00FFFFF00006FFFFFFF00FE4
:10102000FFFFF00F00F00FF00EFFF00FF10DFFE0EB
:101030001FF00DFFE00FF00DFFD00FFF00EFFFFFDF
:10104000F300247DFFFFF00FFFFFF00FFFF00FFF15
:1010500000DD00FFC08D00C90BFFF5004FFFFF5002
:101060003C01FFFFFFB00AFFFFF902FFFFFFFF0097
:10107000FFFFFFFF408FFFF00000000FFFFF32FF78
:10108000FFFFFFFFFFFF000000000EFFFA0103FF5C
:10109000A7EFE303EFF20FB00901FFFFFFFFFFFF30
:1010A000F00FFFFFFFFF00FFFFFFFF0FFFFFF0004C
:1010B00000000FFFFFFFFFFFFF00000FFFFFFFFF1C
:1010C000FFFFFFF906FFFFF10EFFE00FFFFF00FF3C
:1010D000FFFFFD10BFFFFFFFFE702FF00000000FAD
:1010E000FFFFFFE00FF10EFFE00FFFFF10BFFFF467
:1010F00006EE802FFF9101700FFFFFFFFFFFFFFF44
:10110000FFFFFFF0038EFFFFFFFFFFFFFFFFFFE882
:10111000300FFFF00EFFFF00F00CD00FFF000000BB
:10112000FFF00FFF902FF10DFFFFFFF00FFFE00F1B
:10113000F00FFFFFFFF00FFFFFFFF10DF0000FF0CA
:101140000FFFF00FFFFF00FFFFFFFFFFF00FF00B9F
:10115000900EFFF00FFFFFFFF00F00F00FF00FC039
:10116000800FF10EFFE00FF00FFFFFFFF10EFFE029
:101170000FF00FE700EFFFFFFB301FFFFF00FFFF47
:10118000F00FFFF00FFFA03508FFF00846800DFFBD
:10119000F3001FFFFFFF00FFFFFFA00BFFFFFFF0AB
:1011A0000FFFFFFFFFA09FFFFFFF00FFFFFFFFFFFD
:1011B000FFFFFFFFFFFFFFFFFFFFFFFFFE2000001D
:1011C0000FF00FFFF00FF00FFFFFFFF00FFFF00F1A
:1011D000F00000000FFFF00FFFFFF00FFFF00FF027
:1011E0000FFFF00FFFFF00FFFFFFFF00FFFFF0000A
:1011F00000EFFFFFF00FFFFFF00F00F00FF00FFF09
:10120000F00FF00FFFF00FF00FFFF00FF00FFFF0F7
:101210000FFF00FFFFFFFE4000009FFFF00FFFFFEA
:10122000F00FFFF00FFF508A03FFE04A01950EFF19
:10123000FC00AFFFFFD00606FFFFFB009FFFFF0093
:101240001DFFFFFFFF00FFFFFFFFE200FFF5DFB420
:10125000018FFFFFFFFFFFFFFFFFFFFF0000000008
:101260000EFFFF0E00FFFFFF48F92FF00EF90005FB
:10127000FFFFFFFFFFFFF10EFFFFFFFE01FFFFFF7C
:10128000FFFFFFFFFFFF00FFFFFFFFFFFFFFFF006C
:10129000000FFFFFFFFFFFFFFFF10EFFFFF30BFF4C
:1012A000C02FFFFF00FFFFFFB00BFFFFFFFFFFF0AE
:1012B0000FF00000000FFFFFFFE00FF30EFFF00F35
:1012C000FFFB02FFFFF00FFFF00FFFFFFFC03FFF2C
:1012D000FFFFFFFFFFFFFFFFFFFE820039EFF0007F
:1012E00000000FFF940028EFFFF00FFFFF00E30066
:1012F000000FFD000000DFF00FFFF00FF507FFFF0C
:10130000FFF00FFFA03FF00FFFFFFFF00FFFFFFF09
:10131000F508FFF00FF00FFFF00FFFFF00FFFFFFDA
:10132000FFFFF00FF00FE106FFF00FFFFFFFF00FE0
:10133000FFF00FF00FF2100FF30BFFC02FF00FFFB5
:10134000FFFFF30BFFC02FF00FFF206FFFFFFFE049
:101350000FFFFF00FFFFF00EFFF00FFFD0120CFF9A
:10136000F0028A300FFFC0110AFFFFFF00FFFFFEEF
:10137000105FFFFFFFF00FFFFFFFFFF11FFFFFFFF9
:1013800000FFFFFFFFFFFFFFFFFFFFFFFFFFFFFF6C
:10139000FFFFF206EFE00FF00DFFE00FF10DFFFF92
:1013A000FFF10DFFE00FF10EFFFFFFFFF00FFFFF5A
:1013B000F10DFFE00FF00FFFF00FFFFF00FFFFFF49
:1013C000FF00FFFFF00C503FFFFFF00FFFFFF00F9B
:1013D00000F00FF00FFFF00FF10DFFE00FF00DFF29
:1013E000E00FF10DFFE00FFF00FFFFFFFFFFEA60DE
:1013F0001FFFF00FFFFFF00FFFE00FFFB03409FFFA
:10140000F11735432FFFF2001FFFFFF2000DFFFF22
:10141000B009FFFFFFFA02FFFFFFFF00FFFFFFFF22
:10142000409FFFFFFFFFFFFFFFFFFFFFFFFFFFFFEB
:10143000FFFFFA09F01FFFF4BE0C00FFFFFF0FFFD4
:101440000FF204DE200EFFFFFFFFFFFFF40BFFFF94
:10145000FFFD03FFFFFFFFFFFFFFFFFF00FFFFFF99
:10146000FF00FFFFFFFFFFFFFFFFFF00FFFFFFA0E9
:101470005FFFFFF902EE307FFFFF00FFFFFA00BFC2
:10148000FFFFF3AEFE800FFFFFFF00FFF4BEFD5035
:101490002FF806EE702FFFF209FFFFF107EF801F14
:1014A000FF5DFC208FFFFF00FFFFFFFF00FFFFFF3E
:1014B000FFB5000FF00000000FF0005CFFFFFFFF22
:1014C000FFFFFF309D30500FFA00FF108FF00FFF2D
:1014D000A00FFC008EFC5FF00FFA109FF00FFFFFD3
:1014E000FFF00FFFFFFFFB00AFE00FF00FFFF00F6B
:1014F000FFFF00FFFFF39EFE900FF00FF900EFF0EB
:101500000FFFFFFFF00FFFF00FF00FF9000FF902D0
:10151000EE407FF00FFFFFFFF902EE406FF00FFF8C
:10152000A00FF39DFFA01FFFFF00FFFFF405EE706B
:101530002FFFF0000FFFF300CE000FFF308902FFF6
:10154000FFFF00FFFFF501EFFFFFFFF00FFFFFFFC1
:10155000FFF90AFFFFFF00FFFFFFFFFFFFFFFFFF95
:10156000FFFFFFFFFFFFFFFFF00BFE600FF004EE39
:10157000502FF601CFFB5FF404EE500FF504DFEBC4
:101580004FFFF00FFFFFF404EE400FF00FFFF00FDE
:10159000FFFF00FFFFFFFF00FFFFF00FE009FFFF6D
:1015A000F10AFFFFF00F00F00FF00FFFF00FF5044E
:1015B000EE503FF004EE502FF404EE500FFF00FF0A
:1015C000FFFFF39DFFB00FFFF00CFFFFF108FE607F
:1015D0000FFFE0010EFFF50379205FFF902307FF67
:1015E000FFF9001FFFFB009FFFFFFFFF00FFFFFF52
:1015F000FF00FFFFFFFF00EFFFFFFFFFFFFFFFFF09
:1016000000FFFFFFFFFFFFFFF40ED05FFFF00000C1
:1016100005FFFFFF38E92FFA0000000DFFFFFFFF75
:10162000FFFFFA06FFFFFFF808FFFFFFFFFFFFFFC6
:10163000FFFF00FFFFFFFF00FFFFFFFFFFFFFFFFB8
:10164000FF00FFFFFF20DFFFFFFE100000EFF000B4
:1016500000000FF00000000FF00000007FFFFFFF10
:1016600000FFF0000000DFFE100000AFFFC01FFF12
:10167000FFF80000007FFF000002FFFFFF00FFFFF8
:10168000FFFF00FFFFFFFFFFE93FFFFFFFFFFFF24C
:101690009EFFFFFFFFF00FFFFF902FFFFFFFF503FF
:1016A000FF503FF00000004FFF7000000FF00000FF
:1016B00004FFF00000000FF00FFFFFFFFF500000DD
:1016C0000FF00FFFF00FFF000000FFF00000006FB1
:1016D000F00FFF106FF00000000FF00FFFF00FF0A1
:1016E0000FFE000FFE100001EFF00FFFFFFFFF10D5
:1016F0000000DFF00FFFE009F00000007FFFFF00B7
:10170000FFFFFB000000AFFFF3002FFFF400FF001E
:101710002FFC00EE00BFFFFF00FFFFF00000000FF6
:10172000FFF00FFFFFFFFFFF12FFFFFF00FFFFFFB4
:10173000FFFFFFFFFFFFFFFFFFFFFFFFFFFFF500C2
:1017400000000FF0010000BFFE1000000FFC0000C1
:10175000000FFD0000000FFFF00FFFFFFC00000076
:101760000FF00FFFF00FF00000000FFFFF00FFFF72
:10177000F00FF900EFFFF50000FFF00F00F00FF0A1
:101780000FFFF00FFD000000DFF0010000BFFC00C4
:1017900000000FFF00FFFFFFF00000003FFFF3001D
:1017A00000FFF60000000FFFF3002FFFFA00CD004E
:1017B000AFFE00AB00EFFFFE006FFFF00000000F78
:1017C000FFFF00FFFFFFFF00FFFFFFFF00FFFFFF26
:1017D000FFFFFFFFFFFF00FFFFFFFFFFFFFFF11F06
:1017E00090AFFFFB50006FFFFFFFE303EFFFB3007D
:1017F0003502FFFFFFFFFFFFFE01FFFFFFF20EFFBD
:10180000FFFFFFFFFFFFFFFFFFFFFFFFFE01FFFFE7
:10181000FFFFFFFFFFFFFF00FFFFFC03FFFFFFFFD6
:10182000E4003DFFF00000000FF00000000FFB514E
:101830000039FFFFFFFF00FFFB50015DFFFFD400F9
:101840002AFFFF408FFFFFFF920028FFFFA2017ECB
:10185000FFFFFF00FFFFFFFE01FFFFFFFFFFFFFF96
:10186000FFFFFFFFFFFFFFFFFFFFFFF00FFFFFF195
:1018700003BFE7BFF108FFA01FF0000016EFFFFA5B
:101880003002AFF000038FFFF00000000FF00FFFF9
:10189000FFFFFFF82004CFF00FFFF00FFF00000064
:1018A000FFFB610028FFF00FFF900EF00000000F1B
:1018B000F00FFFF00FF00FFF500FFFE4003CFFF0C0
:1018C0000FFFFFFFFFE40004FFF00FFFF502FB51E5
:1018D0000038FFFFFF00FFFFFFA20029FFFFF70016
:1018E0005FFFF802FF403FF405FF602FFFFF00FF9E
:1018F000FFF00000000FFFF00FFFFFFFFFFF90BFA2
:10190000FFFF00FFFFFFFFFFFFFFFFFFFFFFFFFFE6
:10191000FFFFFFFFFF6003C00FF00D2019FFFFE77F
:101920002003AFFFA102C00FFFD51004BFFFF00FCF
:10193000FFFFFFB202A00FF00FFFF00FF00000005A
:101940000FFFFF00FFFFF00FFF204FFFFE3000FFF3
:10195000F00F00F00FF00FFFF00FFFD3003CFFF08F
:101960000D3029FFFFA203C00FFF00FFFFFFFC5255
:101970000026EFFFFD3000FFFF5003C00FFFF9000E
:101980007FFFFD00EF00EFF501FF103FFFFF10DFCD
:10199000FFF00000000FFFFF00FFFFFFFF00FFFF51
:1019A000FFFF00FFFFFFFFFFFFFFFFFFFFFFFFFF46
:1019B000FFFFFFFFFFFFFFFFFFFFFF0FFFFFFFFF27
:1019C000FFFFFFFFFFFFFFFFFFFFFFFFFFFFFF60C6
:1019D000BFFFFFC05FFFFFFFFFFFFFFFFFFFFFFF36
:1019E000FFFFF906FFFFFFFFFFFFFFFFFFFFFFFF06
:1019F000F30CFFFFFFFFFFFFFFFFFFFFFFFFFFFFF6
:101A0000FFFFFFFFFFFFFFFFFFFFFFFFFFFFFFFFE6
:101A1000FFFFFFFFFFFFFFFFFFFFFFFFFFFFFFFFD6
:101A2000FFFFFFFFFFFFFFFFFFFFFFFFFFF906FFC5
:101A3000FFFFFFFFFFFFFFFFFFFFFFFFFFFFFFFFB6
:101A4000FFFFFFFFFFFD1000003FFFFFFFFFFFFF55
:101A5000FFFFFFFFFFFFFFFFFFFFFFFFFFFFFFFF96
:101A6000FFFFFFFFFFFFFFFFFFFFFFFFFFFFFFFF86
:101A7000FFFFFFFFFFFFFFFFFFFFFFFFFFFFFFFF76
:101A8000FFFFFFFFFFFFFFFFFFFFFFFFFFFFFFFF66
:101A9000FFFFFFFFFFFFFFFFFFFFFFFFFC00AFFFA8
:101AA000FFFFFFFFFFFFFFFFFFFFFFFFFFFFFFFF46
:101AB000FFFFFFFFFFFFFFFFFFFFFFFFFFFFFFFF36
:101AC000FFFFFFFFFFFFFFFFFFFFFFFFFFF00FFF25
:101AD000FFFFFFFFE02FFFFF00FFFFFFFFFFFFFF04
:101AE000FFFFFFFFFFFFFFFFFFFFFFFFFFFFFFFF06
:101AF000FFFFFFFFFFFFFFFFFFFFFFFFFFFFFFFFF6
:101B0000FFFFFFFFFFFFFFFFFF4CFEA01FFFFFFFD8
:101B1000FFFFFFFFFFFFFFFFFC00FFFFFFFFFFFFD7
:101B2000FFFFFFFFFFFFFFFFFFFFFFFFFFFFFFFFC5
:101B3000FFFFFFFFFFF00FFFFFFFFFFFFFF00FFFB3
:101B4000FFFFFFFFFFFFFFFFFFFFFFFFFFFFFFFFA5
:101B5000FFFFFFFFFFFFFFFFFFFFFFFFFFFFFFFF95
:101B6000FFFFFFFA01FFFFFFFFFFFFFFFFFF00FF87
:101B7000FFFFFF00FFFFFFFF00FFFFFFFFFFFFFF73
:101B8000FFFFFFFFFFFFFFFFFFFFFFFFFFFFFFFF65
:101B9000FF0FFFFFFFFFFFFFFFFFFFFFFFFFFFFF45
:101BA000FFFFFFFFFFE02FFFFF50EFFFFFFFFFFFF3
:101BB000FFFFFFFFFFFFFFFFF20DFFFFFFFFFFFF34
:101BC000FFFFFFFFFFFFFFFFFFFFFFFFFFFFFFFF25
:101BD000FFFFFFFFFFFFFFFFFFFFFFFFFFFFFFFF15
:101BE000FFFFFFFFFFFFFFFFFFFFFFFFFFFFFFFF05
:101BF000FFFFFFFFFFFFFFFFFFFFFFFFFFFFFFFFF5
:101C0000FFFFFFF20DFFFFFFFFFFFFFFFFFFFFFFE3
:101C1000FFFFFFFFFFFFFFFFFFFFFFFFE72003CFF7
:101C2000FFFFFFFFFFFFFFFFFFFFFFFFFFFFFFFFC4
:101C3000FFFFFFFFFFFFFFFFFFFFFFFFFFFFFFFFB4
:101C4000FFFFFFFFFFFFFFFFFFFFFFFFFFFFFFFFA4
:101C5000FFFFFFFFFFFFFFFFFFFFFFFFFFFFFFFF94
:101C6000FFFFFFFFFFFFFFFFFFFFFFFFFFFFFFFF84
:101C7000FFFFFFC3EFFFFFFFFFFFFFFFFFFFFFFFC0
:101C8000FFFFFFFFFFFFFFFFFFFFFFFFFFFFFFFF64
:101C9000FFFFFFFFFFFFFFFFFFFFFFFFFFFFFFFF54
:101CA000FFFFFFF0001FFFFFFFFFFFFFFF3000FF00
:101CB000FFFFFFFFFFFFFFFFFFFFFFFFFFFFFFFF34
:101CC000FFFFFFFFFFFFFFFFFFFFFFFFFFFFFFFF24
:101CD000FFFFFFFFFFFFFFFFFFFFFFFFFFFFFF0013
:101CE00000006FFFFFFFFFFFFFFFFFFFFFF000039C
:101CF000FFFFFFFFFFFFFFFFFFFFFFFFFFFFFFFFF4
:101D0000FFFFFFFFFFFFFFFFFFFFFFF00FFFFFFFE2
:101D1000FFFFFFF00FFFFFFFFFFFFFFFFFFFFFFFD2
:101D2000FFFFFFFFFFFFFFFFFFFFFFFFFFFFFFFFC3
:101D3000FFFFFFFFFFFFFFFFFF0007FFFFFFFFFFAA
:101D4000FFFFFFFF20BFFFFFFF00FFFFFFFC01FFC2
:101D5000FFFFFFFFFFFFFFFFFFFFFFFFFFFFFFFF93
:101D6000FFFFFFFFFFFFFFFFFFFFFFFFFFFFFFFF83
:101D7000FFFFFFFFFFFFFFFFFFFFFFFFFFFFFFFF73
:101D8000FFFFFFFFFFFFFFFFFFFFFFFFFFFFFFFF63
:101D9000FFFFFFFFFFFFFFFFFFFFFFFFFFFFFFFF53
:101DA000FFFFFFFFFFFFFFFFFFFFFFFFFFFFFFFF43
:101DB000FFFFFFFFFFFFFFFFFFFFFFFFFFFFFFFF33
:101DC000FFFFFFFFFFFFFFFFFFFFFFFFFFFFFFFF23
:101DD000FFFFFFFFFFFFFFFFFFFFFFFFFFFFFFFF13
:101DE000FFFFFFFFFFFFFFFFFFFFFFFFFFFFFFFF03
:101DF000FFFFFFFFFFFFFFFFFFFFFFFFFFFFFFFFF3
:101E0000FFFFFFFFFFFFFFFFFFFFFFFFFFFFFFFFE2
:101E1000FFFFFFFFFFFFFFFFFFFFFFFFFFFFFFFFD2
:101E2000FFFFFFFFFFFFFFFFFFFFFFFFFFFFFFFFC2
:101E3000FFFFFFFFFFFFFFFFFFFFFFFFFFFFFFFFB2
:101E4000FFFFFFFFFFFFFFFFFFFFFFFFFFFFFFFFA2
:101E5000FFFFFFFFFFFFFFFFFFFFFFFFFFFFFFFF92
:101E6000FFFFFFFFFFFFFFFFFFFFFFFFFFFFFFFF82
:101E7000FFFFFFFFFFFFFFFFFFFFFFFFFFFFFFFF72
:101E8000FFFFFFFFFFFFFFFFFFFFFFFFFFFFFFFF62
:101E9000FFFFFFFFFFFFFFFFFFFFFFFFFFFFFFFF52
:101EA000FFFFFFFFFFFFFFFFFFFFFFFFFFFFFFFF42
:101EB000FFFFFFFFFFB30027FFFFFFFFFFFFFFFF55
:101EC000FFFFFFF0003DFFFFFFFFFFFFFFFFFFFFF2
:101ED000FFFFFFFFFFFFFFFFFFFFFFFFFFFFFFFF12
:101EE000FFF00FFFFFFFFFFFFFF00FFFFFFFFFFF00
:101EF000FFFFFFFFFFFFFFFFFFFFFFFFFFFFFFFFF2
:101F0000FFFFFFFFFFFFFFFFFFFFFFFFFFFFFF00E0
:101F10004FFFFFFFFFFFFFFFFFFFB200FFFFFF00CC
:101F2000FFFFFF002AFFFFFFFFFFFFFFFFFFFFFF95
:101F3000FFFFFFFFFFFFFFFFFFFFFFFFFFFFFFFFB1
:101F4000FFFFFFFFFFFFFFFFFFFFFFFFFFFFFFFFA1
:101F5000FFFFFFFFFFFFFFFFFFFFFFFFFFFFFFFF91
:101F6000FFFFFFFFFFFFFFFFFFFFFFFFFFFFFFFF81
:101F7000FFFFFFFFFFFFFFFFFFFFFFFFFFFFFFFF71
:101F8000FFFFFFFFFFFFFFFFFFFFFFFFFFFFFFFF61
:101F9000FFFFFFFFFFFFFFFFFFFFFFFFFFFFFFFF51
:101FA000FFFFFFFFFFFFFFFFFFFFFFFFFFFFFFFF41
:101FB000FFFFFFFFFFFFFFFFFFFFFFFFFFFFFFFF31
:101FC000FFFFFFFFFFFFFFFFFFFFFFFFFFFFFFFF21
:101FD000FFFFFFFFFFFFFFFFFFFFFFFFFFFFFFFF11
:101FE000FFFFFFFFFFFFFFFFFFFFFFFFFFFFFFFF01
:101FF000FFFFFFFFFFFFFFFFFFFFFFFFFFFFFFFFF1
:10200000FFFFFFFFFFFFFFFFFFFFFFFFFFFFFFFFE0
:10201000FFFFFFFFFFFFFFFFFFFFFFFFFFFFFFFFD0
:10202000FFFFFFFFFFFFFFFFFFFFFFFFFFFFFFFFC0
:10203000FFFFFFFFFFFFFFFFFFFFFFFFFFFFFFFFB0
:10204000FFFFFFFFFFFFFFFFFFFFFFFFFFFFFFFFA0
:10205000FFFFFFFFFFFFFFFFFFFFFFFFFFFFFFFF90
:10206000FFFF0000000000FFFFFFFFFFFFFFFFFF7B
:10207000FFFFFFFFFFFFFFFFFFFFFFFFFFFFFFFF70
:10208000FFFFFFFFFFFFFFFFFFFFFFFFFFFFFFFF60
:10209000FFFFFFFFFFFFFFFFFFFFFFFFFFFFFFFF50
:1020A000FFFFFFFFFFFFFFFFFFFFFFFFFFFFFFFF40
:1020B000FFFFFFFFFFFFFFFFFFFFFFFFFFFFFFFF30
:1020C000FFFFFFFFFFFFFFFFFFFFFFFFFFFFFFFF20
:1020D000FFFFFFFFFFFFFFFFFFFFFFFFFFFFFFFF10
:1020E000FFFFFFFFFFFFFFFFFFFFFFFFFFFFFFFF00
:1020F000FFFFFFFFFF00FFFFFFFFFFFFFFFFFFFFEF
:10210000FFFFFFFFFFFFFFFFFFFFFFFFFFFFFFFFDF
:10211000FFFFFFFFFFFFFFFFFFFFFFFFFFFFFFFDD1
:102120001FFFFFF2CFFFFFFFFFFFFFFFFFFFFFFFDC
:10213000FFFFFFFFFFFFFFFFFFFFFFFFFFFFFFFFAF
:10214000FFFFFFFFFFFFFFFFFFFFFFFFFFFFFFFF9F
:10215000FFFFFFFFFFFFFFFFFFFFFFFFFFFFFFFF8F
:10216000FFFFFFFFFFFFFFFFFFFFFFFFFFFFFFFF7F
:10217000FFFFFFFFFFFFFFFFFFFFFFFFFFFFFFFF6F
:10218000FFFFFFFFFFFFFFFFFFFFFFFFFFFFFFFF5F
:10219000FFFFFFFFFFFFFFFFFFFFFFFFFFFFFFFF4F
:1021A000FFFFFFFFFFFFFFFFFFFFFFFFFFFFFFFF3F
:1021B000FFFFFFFFFFFFFFFFFFFFFFFFFFFFFFFF2F
:1021C000FFFFFFFFFFFFFFFFFFFFFFFFFFFFFFFF1F
:1021D000FFFFFFFFFFFFFFFFFFFFFFFFFFFFFFFF0F
:1021E000FFFFFFFFFFFFFFFFFFFFFFF0006FFFFF9D
:1021F000FFFFFC000FFFFFFFFFFFFFFFFFFFFFFFE1
:10220000FFFFFFFFFFFFF00FFFFFFFFFFFFFFFFFDD
:10221000F00FFFFFFFFFFFFB200FFFFFFFFFF00F9F
:10222000FFFFFFF00FFFFFFF00FFF00FFFFF0000B9
:10223000FFFFFFFFFFFFFFFFFFFFFFFFFFFFFFFFAE
:10224000FFFFFFFFFFFFFFFFFFFFFFFFFFFFFFFF9E
:10225000FFFFFFFFFFFFFFFFFFFFFFFFFFFFFFFF8E
:10226000FFFFFFFFFFFFFFFFFFFFFFFA100FFFF071
:10227000FFFFF0019FFFFFFFFFFFFFFFFFFFFFFFDB
:10228000FFFFFFFFFFFFFFFF0FFFFFFFFFFFFFFF4E
:10229000FFFFFFFF909FFFF35FFFFFF72FFFFFFFA1
:1022A000FFFFFFFFFFFFFFFFFFFFFFFFFFFFFFFF3E
:1022B000FFFFFFFFFFFFFFFFFFFFFFFFFFFFFFFF2E
:1022C000FFFFFFFFFFFFFFFFFFFFFFFFFFFFFFFF1E
:1022D000FFFFFFFFFFFFFFFFFFFFFFFFFFFFFFFF0E
:1022E000FFFFFFFFFFFFFFFFFFFFFFFFFFFFFFFFFE
:1022F000FFFFFFFFFFFFFFFFFFFFFFFFFFFFFFFFEE
:10230000FFFFFFFFFFFFFFFFFFFFFFFFFFFFFFFFDD
:10231000FFFFFFFFFFFFFFFFFFFFFFFFFFFFFFFFCD
:10232000FFFFFFFFFFFFFFFFFFFFFFFFFFFFFFFFBD
:10233000FFFFFFFFFFFFFFFFFFFFFFFFFFFFFFFFAD
:10234000FFFFFFFFFFFFFFFFFFFFFFFFFFFFFFFF9D
:10235000FFFFFFFFFFFFFFFFFFFFFFFFFFFFFFFF8D
:10236000FFFFFFF00FFFFFFFFFFFFFF00FFFFFFF7B
:10237000FFFFFFFFFFFFFA07FFFFFFFFFFFFF00F69
:10238000FFFFFFFFFFFFFFFFF00FFFFFFFFFFFF269
:102390000DFFFFFFFFFFF00FFFFFFFF00FFFFFFF3D
:1023A00000FFF00FFFFFFF00FFFFFFFFFFFFFFFF3A
:1023B000FFFFFFFFFFFFFFFFFFFFFFFFFFFFFFFF2D
:1023C000FFFFFFFFFFFFFFFFFFFFFFFFFFFFFFFF1D
:1023D000FFFFFFFFFFFFFFFFFFFFFFFFFFFFFFFF0D
:1023E000FFFFFFF10CFFFFF0FFFFFFC00FFFFFFF3C
:1023F000FFFFFFF00FFFF00FF00FFFFFFFFFFFFFEA
:102400000FFFB11AFFFFFFA107FFFFF81CFFFFC07E
:10241000AFFFFFFC0BFFFFF0FFFFFFFFFFFFFFFF22
:10242000FFFFFFFFFFFFFFFFFFFFFFFFFD2FFF92FB
:10243000018FF0000FFFFB50027EFB50015CFFFF9D
:10244000800FF000000FFFB3019FF0000000FD407F
:10245000004CFF51028FFFFFFFFFFFFFFFFFFFFF59
:10246000FFFFFFFFFFFFFFFFFFFFFFA202AFFF50D5
:1024700003CFFFF403FFF000014DFFE51029F0004A
:1024800015CFF0000000F0000000FFE51029F00F6C
:10249000FF00F000000FFFFF0000F00FF905F00F44
:1024A000FFFFF004F500F006FF00FF92029FF0002E
:1024B000026EFF92028FF000016EFF71004BF00080
:1024C000000FF00FFF00F20FFF0113FFFF40F50BAD
:1024D000FD0350BFFC03F0000000FFF00FFFF36F9F
:1024E000FFFFFFF00FFFFF705FFFFFFFFFFFFFD257
:1024F0007FFFFFFFFFFFF00FFFFFFFFFFFFFFFFF6B
:10250000F00FFFFFFFFFFFF00FFFFFFFFFFFF00FD8
:10251000FFFFFFFFFFFFFFFFFFFFF00FFFFFFF00C9
:10252000FFFFFFFFFFFFFFFFFFFFFFFFFFFFFFFFBB
:10253000FFFFFFFFFFFFFFFFFFFFFFFFFFFFFFF0BA
:102540000FFFFFFFFFFFFFFFFFFFFFFFFFFFFFFF8B
:10255000FFFFFFFFFFFFFFFFFFFFFFF00FFFFFF099
:10256000FFFFFFF00FFFFFFFFFFFFFF00FFFF00F78
:10257000F00FFFF08D0CFD40000F1CC1FFFFFF00AE
:10258000EAFFFFFFFFFFFF50CFFFFFFD04FF56E014
:10259000E74FFFF00FFFFFFFFFFFFFFFFFFFFFFF12
:1025A000FFFFFFFFF5AFFB05E70AFFF00FFFF3AEFC
:1025B000F904F3AEFB01FFFA000FF00FFFFFFC047C
:1025C000EE7FFFFFFB01F10BFC01F607F809FFFFAF
:1025D000FFFFFFFFFFFFFFFFFFFFFFFFFFFFFFFF0B
:1025E000FFFFFF6ED00FF26EFA2FFFF000FFF00F2B
:1025F000FB02FE11BFD5F00FE20BF00FFFFFF00F53
:10260000FFFFFD11CFD7F00FFF00FFF00FFFFFFF1F
:10261000FF00F00FB02FF00FFFFFF000F100F0000F
:10262000EF00FB05E70AF00FF804FB05E70AF00FDF
:10263000F803F50AFEB4FFF00FFFF00FFF00F50CF2
:10264000FD0432FFFF31FE02F30DD01FF20DFFFF3C
:10265000FC00FFF00FFFFB0FFFFFFFF00FFFFC0080
:102660000AFFFFFFFFFFFFFFFFFFFFFFFFFFF00F6E
:10267000FFFFFFFFFFFFFFFFF00FFFFFFFFFFFF078
:102680000FFFFFFFFFFFF00FFFFFFFFFFFFFFFFF49
:10269000FFFFF00FFFFFFF00FFFFFFFFFFFFFFFF48
:1026A000FFFFFFFFFFFFFFFFFFFFFFFFFFFFFFFF3A
:1026B000FFFFFFFFFFFFFFF00FFFFFFFFFFFFFFF29
:1026C000FFFFFFFFFFFFFFFFFFFFFFFFFFFFFFFF1A
:1026D000FFFFFFF00FFFFFF0FFFFFFF00FFFFFFF17
:1026E000FFFFFFF00FFFF00FF00FFFC0D81FF10C3E
:1026F0000E7F1CD0FFFFFF40BFFFFFFFFFFFFF204B
:10270000EFFFFFFF01FFE70006DFFFF00FFFFFFF16
:10271000FFFFFFFFFFFFFFFFFFFFFFFFE1FFF40DE4
:10272000FD02FFF00FFFFFFFFF00FFFFFB02FFB006
:10273000500FF00FFFFFF40DFFFFFFFFF209F40B46
:10274000FB02F00EFF02FFF00FFFFFF00FFFFFFF95
:10275000FF93FFFFFFFFF39EFFFFFFFFB02F93E507
:10276000030FFFD040CFF00FFF00F509FFFFF00F80
:10277000FD03F00FFFFFF00FFFFFF50AFFFFF00F63
:10278000FF00FFF00FFFFFFFFF00F00D01EFF00F64
:10279000FFFFF001C000F0009F00F30DFD02F00FFD
:1027A000FF00F30DFD02F00FFF00F00EFFFFFFF042
:1027B0000FFFF00FFF00FB08FA0950F21F23FF8004
:1027C000506FF609A05FFFFFE10BFFF00FFFFF194D
:1027D000FFFFFFF00FFFE11E21EFFFFFFFFFFFFFF5
:1027E000FFFFFF9103DFF00503EFFF92029FFE3032
:1027F000400FFF7005EFF000000FFE30400FF005B6
:10280000009FF0000FFFFF0000FFF00F908FFF0010
:10281000FFFF04005107F005009FFF7006FFF00561
:1028200003EFFE30400FFF00500FFD4003AFF000FC
:10283000000FF00FF00FF20FF01F14FFFF51F5091A
:10284000A04FF20EE01FF000000FFFF00FFFFFF0AF
:10285000FFFFFFF00FFFFFFFFFFFFFF00FFFF00F85
:10286000F00FD0000000F1090FFFB10AFA68FFA0D5
:102870003FFFFFFFFFFFFF00FFFFFFFF00FFE7003D
:1028800006DFFFF00FFFFFFFFFFFFFFFFFFFFFFF70
:10289000FFFFFFFF78FFF00E1F00FFF00FFFFFFFAD
:1028A000FA07FFF0004EFE15F00FF000028FF10462
:1028B000004EFFFFC01FFF50004EF00EFF00FFF064
:1028C0000FFFFFF00FFFFFFB5002F0000000F300CE
:1028D0005CFFFFFB04EF3B76E70FFF80A06FF00F7C
:1028E000FB03F10EFFFFF00FFE00F00FFFFFF00FF4
:1028F000FFFFF10EFFFFF00FFF00FFF00FFFFFFFE4
:10290000FF00F0020BFFF00FFFFFF0036200F00684
:102910001F00F10EFF00F00FFE00F10EFF00F00FA0
:10292000FE00F3018DFFFFF00FFFF00FFF00FE032D
:10293000F50D80E00E05FFF100EFFE0110EFFFFF47
:10294000409FFFF00FFFFF82FFFFFFF00FFF51EFEF
:10295000E14FFFFFFFFFFFFFFFFFFF5EC02FF0090A
:10296000A03FF904EE7FF509A00FF809B05FFFF072
:102970000FFFF609A00FF00AD00FFFF00FFFFFFFC7
:1029800000FFF00B06FFFF00FFFF00D00D01F00A73
:10299000D00FF809A06FF009A03FF509A00FFF00C4
:1029A0006FAFF10CFD5FFFF00FFFF00FF00FF70CB2
:1029B000D05F42FFFF32FE1120EFF80BC06FFFFF28
:1029C000C01FFFA01FFFFFF0FFFFFFF309FFFFFF86
:1029D000FFFFFFF10FFFFFFFFFFFFF06D0BFFD402E
:1029E000006EFFA66BFFFA050AF0FFFFFFFFFF0076
:1029F000FFFFFFFF00FF56E0E74F00000000FFFF72
:102A0000FFFFFF0000FFFFFFFFFFFFFE1EFFF00FB5
:102A10001F00FFF00FFFFFFFB05FFFFFF705F15F43
:102A2000F00FF4CFE506F008F903FFFF308FF80749
:102A3000F806F408F900FFFFFFFFFFFFFFFFF82093
:102A400017DFF0000000FFD71028FFF10EFF1E1E59
:102A5000FE0FFF30F02FF000002EF00FFFFFF00F01
:102A6000FF00F000000FF000000FF00FF000F0008A
:102A70000000FFF00FFFFFFFFF00F00005FFF00F69
:102A8000FFFFF0080600F00D0C00F00FFF00F00F44
:102A9000F804F00FFF00F00FF804FE40004EFFF0C6
:102AA0000FFFF00FFF00FF11F21FA0B01A08FFF791
:102AB00005FFFF8006FFFFF606FFFFF00FFFFFE0B8
:102AC000BFFFFFF00FFFFFFFFFFFFFFFFFFFFFFF55
:102AD000FFFFFFFFF00FF00EE00FF10DFFFFF10E13
:102AE000E00FF10EF00FFFF00FFFF10EE00FF00F0F
:102AF000F00FFFF00FFFFFFF00FFF0012FFFFF00BF
:102B0000FFFF00F00F00F00FF00FF10EE01FF00ECE
:102B1000E00FF10EE00FFF00EFFFF104AEFFFFF05A
:102B20000FFFF00FF00FFC0890BF80F11F06FFA011
:102B300009FFFC0780CFFFFD11CFF001BFFFFFF0C1
:102B4000FFFFFFFC100FF9106DE7FFF32FFFFFFFF2
:102B5000FFFFFD0BB0EFFFFF0803A6BFB11AF10E98
:102B600011D0FFFFFFFFFF20EFFFFFFE01FFFFF08F
:102B7000FFFF00000000FFFFFFFFFF0000FFFFFF5F
:102B8000FFFFFFF96FFFF00EFF00FFF00FFFFFFBED
:102B900004FFFFFFFE00F0000000FFFFFE00F00E4C
:102BA000FE00FFFC00FFF00EFF00FE400300FFFFF1
:102BB000FFFFFFFFFFFFF007FFFFFFFFFFFFFFFF2C
:102BC000F900FFF00FFF0F0FFF0FFE00000EF00FD8
:102BD000FB03F10EFFFFF00FFF00F00FFFFFF00F00
:102BE000FFFFF10EFF00F00FFF00FFF00FFFFFFFF0
:102BF000FF00F00720DFF00FFFFFF00C0900F00FDF
:102C00003400F00EFF00F000026EF00EFF00F00046
:102C1000004EFFFE8102FFF00FFFF00FFF00FF509C
:102C2000D03FD063540AFFE100EFFFF00EFFFF90AA
:102C30004FFFFFF00FFFFFF54FFFFFF00FFFFFFF0C
:102C4000FFFFFFFFFFFFFFFFFFFFFB30000FF00F55
:102C5000F00FF00FFFFFF00FF00FF000000FFFF08C
:102C60000FFFF00FF00FF00FF00FFFF00FFFFFFF5F
:102C700000FFF0000EFFFF00FFFF00F00F00F00F5D
:102C8000F00FF00FF00FF00FF00FF00FF00FFF004C
:102C9000FFFFFB30008FFFF00FFFF00FF00FFF037F
:102CA00050EFC0C00C0AFFF00EFFFF1331FFFFD141
:102CB0000DFFFFA01FFFFFF0FFFFFFF209FFF6EE81
:102CC0008107FFFFFFFFFFFFFFFF0000000CF7FF82
:102CD0000F00FFFF1CC0F00E9002FFFFFFFFFF5030
:102CE000DFFFFFFD04FFFFFFFFFFFFF00FFFFFFF10
:102CF000FFFFFFFFFFFFFFFFFFFFFFF1EFFFF30D00
:102D0000FD02FFF00FFFFFA04FFFFFFFFF00FFFFDF
:102D1000F00FFFFFFE00F30EFF00FFF308FFF00EC1
:102D2000FE00FFFFFE03FFFFFFFFFFFFFFFFF82096
:102D300027DFF0000000FFD72028FFFFFFFF0E1E57
:102D4000FE0FFC07F80AF00FFF00F509FFFFF00F78
:102D5000FC03F00FFFFFF00FFFFFF50BFF00F00F7C
:102D6000FF00FFF00FFFFFFFFF00F00FB02FF00F8D
:102D7000FFFFF00FFF00F00FA000F40DFD02F00FB9
:102D8000FFFFF40DFD02F00FE40BFFFFFE00FFF06C
:102D90000FFFF00FFF00FFB0708FE007900CFF7087
:102DA000605FFFF00FFFFC02EFFFFFF00FFFFFFC83
:102DB0000EFFFFF00FFFFFFFFFFFFFFFFFFFFFFF13
:102DC000FFFFF10CF00FF00EF00FF20EFFFFF10E0F
:102DD000E00FF10EFFFFFFF00FFFF10EE00FF00F1D
:102DE000F00FFFF00FFFFFFF00FFF00C05FFFF00EB
:102DF000FFFF00F00F00F00FF00FF10EE01FF00EDC
:102E0000F00FF10EE00FFF00FFFFFFFE900FFFF04D
:102E10000FFFF00FF00FFF4113FFE072370DFF803F
:102E200006FFFF5105FFFE10CFFFFFF00FFFFFF081
:102E3000FFFFFFF00EFFFFFFFFFFFFF00FFFFFFFA1
:102E4000FFFFF34E08FFF06E0B02FFFF1CD0F507EB
:102E5000E006FFFFFFFFFFC09FFFFFFC0BFFFFFF30
:102E6000FFFFFFF00FFFFFF00FFFFFFFFFFFFFF07F
:102E70000FFFFFA5FFFFFB05F70AFFF00FFFF905A6
:102E8000FFFFF4BFE704FFFFF00FF4DFE606FA08E8
:102E9000F905FFC00FFFF607F804FF6EE50BFFF022
:102EA0000FFFFFF00FFFFFFB5002F0000000F300E8
:102EB0005CFFFFF00FFF4A66F70FF70BFD04F00F02
:102EC000FB01FE01BFE5F00FE40BF00FFFFFF00F79
:102ED000FFFFFD02DE00F00FFF00FFF00FFFF4BE6A
:102EE000FA01F00FF40AF00FFFFFF00FFF00F00FF0
:102EF000F100FB05F70AF00FFFFFFB05F708F00FE5
:102F0000FD01E3AEFB02FFF00FFFF509FA03FFE05E
:102F100000DFF00BD00EFE02F30DFFF00FFFF11DEE
:102F2000FFFFFFF00FFFFFFF36FFFFF00FFFFFFF78
:102F3000FFFFFFFFFFFFFFFFFFFFF10DA00FF009F5
:102F4000A03FF904EE7FF509A00FF807FE5FFFF040
:102F50000FFFF508A00FF00FF00FFFF00FFFFFFFBE
:102F600000FFF00F40DFFF30AFFF00F00F00F00F69
:102F7000F00FF809A06FF008A04FF509A00FFF00AF
:102F8000FFFFF4DFD01FFFF10DFFF10CB00FFFA02A
:102F900008FFF006900FFE0230DFFFB00BFFF10CD0
:102FA000FFFFFFF00FFFFFF0FFFFFFF00FFFFFFF3E
:102FB000FFFFFFF00FFFFFFFFFFFE0AC0EFFFB5036
:102FC000005EFFFFB10AFE500402FFFFFFFFFFF2A9
:102FD0005FFFFFF72FFFFFFFFFFFFFF00FFFFFF087
:102FE0000FFFFFFFFFFFFFF00FFFFF2DFFFFFF9120
:102FF000018FF000000FF0000000FB40027FFFFF98
:10300000F00FFB30028FFF91006EFF408FFFFF70CB
:10301000016EFFA103AFFFF00FFFFFF00FFFFFFFF7
:10302000FE93FFFFFFFFF29EFFFFFFF00FFFA2E402
:10303000030FF20FFF01F000003CFFE51019F00054
:1030400004CFF0000000F00FFFFFFFC40015F00FE9
:10305000FF00F000000FFB50005CF00FFD01F000DE
:103060000000F00FFF00F00FF800FF91018FF00F4C
:10307000FFFFFF91003FF00FFF904B40015EFFF01C
:103080000FFFFE50004EFFF101FFF10EF00FF50BA8
:10309000FD03FFF00FFFF0000000FFF00FFFFFFF48
:1030A000A0FFFFF00FFFFFFFFFFFFFFFFFFFFFFF8E
:1030B000FFFFFA10400FF00502EFFF92019FFE3074
:1030C000400FFF7002AFFFF00FFFFE30400FF00F18
:1030D000F00FF000000FFFFF00FFF00FC03FFFC335
:1030E000000F00F00F00F00FF00FFF7005FFF0056C
:1030F00002EFFE30400FFF00FFFFFB3003BFFFF980
:10310000100FFA00400FFFD00DFFF30BD02FF50981
:10311000B03FFFE00FFFF000000FFFF00CFFFFF0EB
:10312000FFFFFFD00FFFFFFFFFFFFFFFFFFFFFFFCE
:10313000FFFFFFFFFFFFFFFF0FFFFFFFFFFFFFFF8F
:10314000FFFFFFFFFFFFFFFD1FFFFFF2BFFFFFFFBE
:10315000FFFFFFFFFFFFFFB0AFFFFFFFFFFFFFFF1E
:10316000FFFFFC3FFFFFFFFFFFFFFFFFFFFFFFFF32
:10317000FFFFFFFFFFFFFFFFFFFFFFFFFFFFFFFF5F
:10318000FFFFFFFFFFFFFFFFFFFFFFFFFFFFFFFF4F
:10319000FFFFFFB0AFFFFFFFFFFFFFFFFFFFFFFFDE
:1031A000FFFFFFFFFFFFF54DFB5FFFFFFFFFFFFF8F
:1031B000FFFFFFFFFFFFFFFFFFFFFFFFFFFFFFFF1F
:1031C000FFFFFFFFFFFFFFFFFFFFFFFFFFFFFFFF0F
:1031D000FFFFFFFFFFFFFFFFFFFFFFFFFFFFFFFFFF
:1031E000FFFFFFFFFFFFFFFFFFFFFFFFF20BFFFFF0
:1031F000FFFFFFFFFFFFFFFFFFFFFFFFFFFFFFFFDF
:10320000FFFFFFFFFFFFFFFFFFFFFFFFFFFFFFFFCE
:10321000FFFFFFF0006FFFFFF19FFC000FFFFFFFBC
:10322000FFFFFFFFFFFFFFFFFFFFFFFFFFFFFFFFAE
:10323000FFFFFFFFFFFFFFFFFFFFFFFFFFFFFFFF9E
:10324000FFFFFFFFF00FFFFFFFFFFFFFFFFFFFFF8D
:1032500000FFFFFFFFFFFFFFFFFFFFFFFFFFFFFF7D
:10326000FFFFFFFFFFFFF00FFFFFFFFFF00FFFFF6C
:10327000FFFFFFFFFFFFFFFFFFFFFFFFFFFFFFFF5E
:10328000FFFFFFFFFFFFFFFFFFFFFFE04FFFFFFF1D
:10329000FFFFFFF9100FFFF0FFFFF0017FFFFFFFBF
:1032A000FFFFFFFFFFFFFFFFFFFFFFFFFFFFFFFF2E
:1032B0000FFFFFFFFFFFFFFFFFFFFFFFFFFFFFFF0E
:1032C000FFFFFFFFFFFFFFFFFFFFFFFFFFFFFF38D5
:1032D000FFFFFFFFFFFFFFFFFFFFF3CFFFFFFFFF3A
:1032E000FFFFFFFFFFFFFFFFFFFFFFFFFFFFFFFFEE
:1032F000FFFFFFFFFFFFFFFFFFFFFFFFFFFFFFFFDE
:10330000FFFFFFFFFFFFFFFFFFFFFF38FFFFFFFF94
:10331000FFFFFFFFFFFFFFFFFFFFFFFFFFFFFF813B
:10332000006FFFFFFFFFFFFFFFFFFFFFFFFFFFFF3C
:10333000FFFFFFFFFFFFFFFFFFFFFFFFFFFFFFFF9D
:10334000FFFFFFFFFFFFFFFFFFFFFFFFFFFFFFFF8D
:10335000FFFFFFFFFFFFFFFFFFFFFFFFFFFFFFFF7D
:10336000FFFFFFFFFE3EFFFFFFFFFFFFFFFFFFFF2F
:10337000FFFFFFFFFFFFFFFFFFFFFFFFFFFFFFFF5D
:10338000FFFFFFFFFFFFFFFFFFFFFFFFFFFFFFFF4D
:10339000F82FFFFFFFFFFFFFFFFFFFFFFFFFFFFF14
:1033A000FFFFFFFFFFFFFFFFFFFFFFFFFFFFFFFF2D
:1033B000FFFFFFFFFFFFFFFFFFFFFF6EA03FFFFFCD
:1033C000FFFFFFFFFFFFFFFB01FFFFFFFFFFFFFF0F
:1033D000FFFFFFFFFFFFFFFFFFFFFFFFFFFFF00FFC
:1033E000FFFFFFFFF00FFFFFFFFFFFFFFFFFFFFFEC
:1033F000FFFFFFFFFFFFFFFFFFFFFFFFFFFFFFFFDD
:10340000FFFFFF70BFFFFFFFFFFFFFFFFFFFFFF0AA
:10341000FFFFFFFFFFFFFFFFFFFFFFFFFFFFFFFFBC
:10342000FFFFFFFFFFFFFFFFFFFFFFFFFFFFFFFFAC
:10343000FFFFFFFFFFFFFFFFFFFFFFFFFFFFFFFF9C
:10344000FFFFFFFFFFFFFFFFFFFFFFFFFFFFFFFF8C
:10345000FFFFFFFFFFFFFFFFFFFFFFFFFFFFFFFF7C
:10346000FFFFFFFFFFFFFFFFFFFFFFFFFFFFFFFF6C
:10347000FFFFFFFFFFFFFFFFFFFFFFFFFFFFFFFF5C
:10348000FFFFFFFFFFFFFFFFFFFFFFFFFFFFFFFF4C
:10349000FFFFFFFFFFFFFFFFFFFFFFFFFFFFFFFF3C
:1034A000FFFFFFFFFFFFFFFFFFFFFFFFFFFFFFFF2C
:1034B000FFFFFFFFFFFFFFFFFFFFFFFFFFFFFFFF1C
:1034C000FFFFFFFFFFFFFFFFFFFFFFFFFFFFFFFF0C
:1034D000FFFFFFFFFFFFFFFFFFFFFFFFFFFFFFFFFC
:1034E000FFFFFFFFFFFFFFFFFFFFFFFFFFFFFFFFEC
:1034F000FFFFFFFFFFFFFFFFFFFFFFFFFFFFFFFFDC
:10350000FFFFFFFFFFFFFFFFFFFFFFFFFFFFFFFFCB
:10351000FFFF00000000FFFFFFFFFFFFFFFFFFFFB7
:10352000FFFFFFFFFFFFFFFFFFFFFFFFFFFFFFFFAB
:10353000FFFFFFA103DFFFFFFFFFFFFFFFFFF00023
:103540002BFFFFFFFFFFFFFFFFFFFFFFFFFFFFFF5F
:10355000FFFFFFFFFFFFF00FFFFFFFFFF00FFFFF79
:10356000FFFFFFFFFFFFFFFFFFFFFFFFFFFFFFFF6B
:10357000FFFFFFFFFFFFFFFFFFFFF005FFFFFFFF64
:10358000FFFFFFFFFFFFFFFFFFFFFFFFFFFFFFFF4B
:10359000FFFF436F6E74726173743A004272696721
:1035A00068746E733A006572726F7200636861725C
:1035B000676564006368617267696E6700555342AE
:1035C0002070777220004443207077722000536C83
:1035D0006565703A200011241FBECFEFD0E1DEBF39
:1035E000CDBF11E0A0E0B1E0E2E7F8E802C005904D
:1035F0000D92A439B107D9F714E0A4E9B1E001C0F4
:103600001D92A33BB107E1F745D00C9437440C94CD
:103610000000FC018191861721F08823D9F79927B2
:1036200008953197CF010895FB01DC018D91019040
:1036300080190110D9F3990B0895FB01DC01019069
:103640000D920020E1F70895FB01DC01415050404C
:1036500030F08D910190801919F40020B9F7881B82
:10366000990B0895FB01DC014150504048F0019056
:103670000D920020C9F701C01D9241505040E0F763
:103680000895F89481E085BF82E085BFE0E0F8E727
:10369000099508951F93CF93DF9308D67BD504B681
:1036A00003FE18C0F999FECF83E390E092BD81BD7F
:1036B000F89A80B5882371F0F999FECF1FBA83E399
:1036C00090E092BD81BD10BC0FB6F894FA9AF99AB9
:1036D0000FBED7DF89EF87BD84E085BD82E084BD62
:1036E00080936E00109280009AE09093810081E8B0
:1036F000809390009093910090E080E80FB6F8944A
:1037000080936100909361000FBE84B7877F84BF70
:103710002FE088E190E00FB6F894A89580936000C0
:103720000FBE20936000389A409880915A01909182
:103730005B0160E286D580915C0190915D0160E261
:1037400080D515E01093AB040E946E400E9430318A
:103750000E94CF3A0E94173A82EB93E0BDD5609168
:10376000B2037091B30384E094E00E9477240E9436
:10377000FB3B0E946F393AD10E9408300E94963C70
:103780008AEF90E090931B0480931A0487E0809363
:103790000304409A1093AB04C0E0D1E007C08A81D3
:1037A000882319F0E881F9810995249681E0C431D4
:1037B000D807A9F76497FACF8FEE92E461E00C94F2
:1037C000DD3F8FEE92E460E00E94DD3F8FE69DE1F9
:1037D00060E00E94DD3F86E360C0CF93DF93DA01B3
:1037E000E901292F33272230310539F02330310503
:1037F00049F021303105E9F420C0EAEAF0E083E441
:1038000090E01FC090708130910551F0813091059A
:1038100018F0029771F408C0EDEEF0E0849107C053
:10382000E1EFF0E0849103C0E9E0F1E0849190E001
:1038300008C080E0DF91CF910895E8E9F0E082E1EF
:1038400090E0ED93FC939983888381E0F3CF806CC3
:1038500071988EBD0DB407FEFDCF8EB51EBC0DB4A4
:1038600007FEFDCF8EB5719A08950F931F931FEF3A
:1038700004E309C071980EBD0DB407FEFDCF8EB5EF
:10388000719A115029F085E3E2DF8F718D3091F745
:10389000E59AED9A1F910F91089571988EBD0DB420
:1038A00007FEFDCF8EB5719A0895A1E0B0E0EBE57B
:1038B000FCE10C940E440196BE016F5F7F4F41E026
:1038C0000E94FF26892B89F189818336A1F400E0CB
:1038D00010E0802FBCDF90E062E040E32AD3C80113
:1038E00087709070079709F407D30F5F1F4F093255
:1038F000110579F719C0ABDF182F83E449D289810C
:1039000090E062E040E315D388E991E0F9D2812F9D
:1039100090E062E040E30DD384E991E0F1D2812FA1
:1039200090E062E040E242D3E7D22196E4E00C94DA
:103930002A441F93ED981FEF0DC0719885E38EBD4B
:103940000DB407FEFDCF8EB5719A8AE090E011D2DA
:10395000115029F085E37BDF8F71833171F71F915F
:103960000895EF92FF920F93CF93DF93082F8B3040
:1039700008F008E0C02FD0E083E0CC0FDD1F8A956F
:10398000E1F7CD5EDE4F8BE290E07C010894E11C14
:10399000F11CFE0164914DD32196C701833391053B
:1039A000A1F70550053010F067E101C061E184E244
:1039B00090E03FD3DF91CF910F91FF90EF9008956A
:1039C000CF93DF9382E090E0EC012196FE01E8596D
:1039D000FE4FE4916E2F2DD3CB32D10511F0CE01E5
:1039E000F3CF88E0BEDFDF91CF9108950F931F934F
:1039F000CF93DF93699A719A8EE190E0BAD1719872
:103A00008EE190E0B6D1719A8DE290E0B2D17198DA
:103A100080E38EBD0DB407FEFDCF8EB5719A84E6AE
:103A200090E0A7D1719880E48EBD0DB407FEFDCF64
:103A30008EB582E090E0EC01219608D38EBD0DB4E6
:103A400007FEFDCF8EB5CB32D10511F0CE01F3CFFD
:103A5000719A71988EE78EBD0DB407FEFDCF8EB5BD
:103A60008E010F5F1F4FCE01F1D28EBD0DB407FE48
:103A7000FDCF8EB50333110511F0E801F1CF719A36
:103A8000719883E38EBD0DB407FEFDCF8EB5719A9C
:103A900081E090E073D1DF91CF911F910F91089554
:103AA000A1E0B0E0E6E5FDE10C94104422E02983BA
:103AB0000196BE016F5F7F4F41E00E94FF26898122
:103AC00050DF94DF2196E2E00C942C4483E0809355
:103AD000E900E8EEF0E080818F778083089580919F
:103AE000B204882309F448C084E08093E9008091FF
:103AF00094018823F9F48091E80085FD06C01AC07E
:103B00006091F10084EB93E0A7D38091F200909153
:103B1000F300892BA9F78091E8008F778093E80064
:103B200081E080939401E091D803F091D903099545
:103B30001092940183E08093E9008091DD03882353
:103B4000D9F08091E80085FF17C0F89405C08AED90
:103B500093E095D38093F1008091DD03882331F0C9
:103B60008091F2009091F300809788F3789480918F
:103B7000E8008F778093E8000895813229F082323F
:103B800039F1803289F511C0613A71F58091E80010
:103B9000877F8093E80083E591E067E070E00E9412
:103BA000B8408091E8008B7F10C06132E9F48091C9
:103BB000E800877F8093E80083E591E067E070E0AC
:103BC0000E9402418091E8008E7F8093E800089572
:103BD000613251F48091E800877F8093E800809102
:103BE000E8008E7F8093E800089582E068E070E04E
:103BF00041EC20E00E94874083E060E270E041E811
:103C000024E00E94874084E060E270E040E824E025
:103C10000E9487408FE69DE161E00C94DD3F1F929A
:103C20000F920FB60F9211248F93809100048F5F33
:103C3000809300048D3710F1809101048F5F809391
:103C40000104109200048C33C9F48091FE038F5F4D
:103C50008093FE03109201048C3381F48091FF0362
:103C60008F5F8093FF031092FE03883139F48091B7
:103C700002048F5F809302041092FF038F910F90D4
:103C80000FBE0F901F9018959091000480919501A0
:103C9000891709F44EC0909395018091A40488235C
:103CA00039F081508093A404882311F40E947D2E62
:103CB00090910104809196018917D9F19093960112
:103CC000A89580915E0181FF04C088B191E08927A9
:103CD00088B980911A0490911B0421E0843F9207D7
:103CE00028F4019690931B0480931A048091A604F3
:103CF0008F3F19F08F5F8093A6049091AA049923B7
:103D000071F08091A604891751F48091B204882340
:103D100021F080E00E944D3502C00E947B3B9091D3
:103D2000FE0380919701891721F0909397010C94DD
:103D3000573A08958091020490E063E040E336D161
:103D400080E226D08091FF0390E062E040E32ED134
:103D50008AE31ED08091FE0390E062E040E326D12A
:103D60008AE316D08091010490E062E040E31ED126
:103D7000C3C0880F991F0197F1F7089520ED37E030
:103D800004C0F9013197F1F701970097D1F7089531
:103D9000A2E0B0E0EEECFEE10C940D44F82E809130
:103DA000B2048823A9F08091030480FF11C0009120
:103DB0005A0110915B01F80193818081981708F0F6
:103DC0008EDEC8016F2D48D2FAE0FF1609F487DEB7
:103DD0008091030481FF6AC08DE0F81609F488C061
:103DE0008091BB019AE0F916C1F4E82FF0E0E454A9
:103DF000FE4F10821092BB018091BA01882329F0F6
:103E00008CEB91E00E94143105C080E06CEB71E016
:103E10000E940A331092BA0127C08D3040F4E82F77
:103E2000F0E0E454FE4FF0828F5F8093BB018091FD
:103E3000BA018823C9F08F5F8093BA018150823024
:103E400099F46091BB0162506093BB0170E06454CF
:103E50007E4FCB0141E0D3D78091BB018F5F809330
:103E6000BB0181E08093BA018091BA018823F1F40B
:103E70008091BB018530D1F48091BC018634B1F4CE
:103E80008DEB91E0BE016F5F7F4F42E0B8D7998123
:103E900080912104981751F49A81809122049817F7
:103EA00029F481E08093BA011092BB018091030450
:103EB00082FF1EC0EDE0FE16D9F080919801FAE075
:103EC000FF1661F4E82FF0E0E756FE4F10821092E3
:103ED000980189E991E00E94023D0AC0803240F4D5
:103EE000E82FF0E0E756FE4FF0828F5F8093980155
:103EF0002296E5E00C9429448DE04ADF8AE048CF21
:103F0000CF93DF93EC0102C043DF2196FE01849141
:103F10008823D1F7DF91CF910895CF93DF93EC0100
:103F200002C0219635DF88818823D9F7DF91CF91B0
:103F30000895A5E0B0E0EFE9FFE10C9410441D8284
:103F4000FE01349624E0582F5F7021505A3018F447
:103F5000352F305D02C0352F395C308334E09695C3
:103F600087953A95E1F761503197009761F72150B5
:103F7000822F992787FD90952F5FFE013196E80FDC
:103F8000F91F03C0215040833197615067FD02C083
:103F90001216C4F3332727FD3095CE010196820F08
:103FA000931FBBDF2596E2E00C942C44A6E0B0E022
:103FB000ECEDFFE10C940E449C01162F042F1E82A1
:103FC000FE01359645E04150C9016AE070E00E946B
:103FD000D943805D8083C9016AE070E00E94D943C3
:103FE0009B0111506115710559F44150842F992797
:103FF00087FD90954F5FFE013196E80FF91F07C0CE
:104000003197442301F7F1CF41500083319711508C
:1040100017FD02C01416C4F3242F332727FD309553
:10402000CE010196820F931F78DF2696E4E00C9470
:104030002A449C01F999FECF1FBA32BD21BD60BD53
:104040000FB6F894FA9AF99A0FBE08959C01F9995F
:10405000FECF32BD21BDF89A80B508958CE991E07C
:104060004FDF4ACF01966EE571E041E0C8D660911E
:104070005E0160FF02C0409801C0409A84E390E076
:10408000D8CFA3E0B0E0E7E4F0E20C940A446C017E
:104090000196BE016F5F7F4F43E0B1D6082F82309B
:1040A000A8F12981823019F4E22EFF2407C0922F53
:1040B00080E02A81E22EFF24E82AF92A10E0FE019E
:1040C000E00FF11FC7016081B4DF000F111F0F5F08
:1040D0001F4F0C0D1D1D0894E11CF11C6E0108946E
:1040E000C11CD11C0FC0C801B60141E088D6892B84
:1040F00069F0C70169819DDF0E5F1F4F82E090E08C
:10410000E80EF91EF8018081882369F72396E8E01C
:104110000C942644A1E0B0E0E0E9F0E20C941044F5
:104120001982009731F00196BE016F5F7F4F41E029
:1041300066D60E9454408981882321F083E390E071
:1041400061E077DF10926E00FFCF0F931F938C0119
:1041500037DC80E090E061E06CDF81E090E068E1D6
:1041600068DF83E390E060E064DF84E390E062E096
:1041700060DF80E092E060E45CDF81E092E060E894
:1041800058DF82E092E06EE154DFC801C3DF1F9187
:104190000F91089580E090E059DF813029F481E0AB
:1041A00090E054DF883119F080E090E0CEDF84E3C6
:1041B00090E04CDF80935E0182E092E047DF8093E5
:1041C000AA040895EF92FF921F93DF93CF9300D03C
:1041D000CDB7DEB71B8219820196BE016F5F7F4F9C
:1041E00042E00DD62981823041F4922F80E02A816D
:1041F000E22EFF24E82AF92A02C0E22EFF24C7019A
:1042000025DF182F82E5C4DDC70164E040E391DEBD
:104210008BEA91E075DE812F90E062E040E389DE79
:1042200087EA91E06DDE812F90E062E040E2BEDE41
:1042300063DE0F900F90CF91DF911F91FF90EF9071
:104240000895FC0160831382118212820895FC019B
:104250001382118212820895DC01FC0183819C91FA
:10426000891760F48F5F83838181E80FF11D648378
:104270008F5FFD018183891709F411820895DC01A4
:10428000FC018381882311F420E00EC08150FD01E0
:1042900083838281E80FF11D24818F5FFD0182837A
:1042A0009C91891709F41282822F0895E4E6F0E0C8
:1042B00080818B7F8083299A84B1876084B9239819
:1042C00080E58CBD8DB581608DBD08958EBD0DB42A
:1042D00007FEFDCF8EB50895579A08955F9887ED34
:1042E000F5DF80E0F3DF87FFFCCF5F9A08950F933F
:1042F0001F938A015F98662311F483E801C086E862
:10430000E5DF000F111F000F111F812FDFDF802F4E
:10431000DDDF80E0DBDF5F9A1F910F910895A0E061
:10432000B0E0E5E9F1E20C940A44D42EC52E7901FF
:104330005F98662311F484E801C087E8C7DF80E056
:10434000C5DF8F2DC3DF8E2DC1DF8D2D9C2D9C01F0
:10435000E90104C08991BADF01501040011511052F
:10436000C9F75F9ACDB7DEB7E8E00C942644A0E029
:10437000B0E0EDEBF1E20C940A44D42EC52E7901A5
:104380005F98662311F481ED01C083ED9FDF80E02B
:104390009DDF8F2D9BDF8E2D99DF8D2D9C2D9C0118
:1043A000E90105C080E092DF8993015010400115BA
:1043B0001105C1F75F9ACDB7DEB7E8E00C9426444B
:1043C0000F931F938A015F98662311F483E501C060
:1043D00085E57CDF000F111F000F111F812F76DF95
:1043E000802F74DF80E072DF5F9A1F910F91089534
:1043F0009C013695322F2227379527952F5F3F4F07
:10440000872F869590E0280F391FC9010895CF9313
:10441000DF93EC018C8180FF0CC04A815B81888135
:10442000998160E064DF8C818E7F8C8388819981A3
:1044300055DF8C8181FF0CC08881998161E040E06B
:1044400050E055DF8C818D7F8C838881998146DF98
:1044500080E0DF91CF9108950F931F93FC019B01A2
:10446000858190E08617970771F0658394E0220FAD
:10447000331F9A95E1F78081918161E03696AF0113
:1044800000E110E074DF1F910F9108950F931F93C7
:104490008C01E2DFF80186819781BC0180E090E029
:1044A0001F910F910895FF920F931F93CF93DF9366
:1044B000EC018B01F42E4A815B8146175707C9F046
:1044C0008C8180FF0AC08881998160E010DF8C8137
:1044D0008E7F8C838881998101DF1B830A83FF2073
:1044E00041F08881998160E0A8016ADF8881998123
:1044F000F5DECDB7DEB7E5E00C942944A0E0B0E0EE
:10450000E4E8F2E20C9400445C014B011A01D7018B
:10451000C601800F911FA21FB31F803040E0940797
:1045200041E0A40740E0B4070CF070C06F317105A2
:1045300031F480509E4FA040B0400CF067C038016D
:10454000C501B40189DFF501C681D781C601800F9D
:10455000911FC817D907A8F497838683A5014A5FDE
:104560005F4F940164E0220F331F6A95E1F7808169
:10457000918161E002E010E0D2DEF5018481826089
:104580008483C401BE0134DF7C01D170CD2B19F0CE
:104590000894E11CF11CC401B3012ADF4C01830122
:1045A000117066247724412C22E0522E2AC040E06C
:1045B0008E149F0408F441E0C501B40174DFC80102
:1045C0008C0D9D1D8150924010F4E60103C0E20164
:1045D000C01BD10BA101460D571DF50180819181B2
:1045E00060E098018E019BDEF50184818160848307
:1045F000CC1ADD0A6C0E7D1E0894811C911C00E013
:1046000010E0C114D10499F680E001C082E0CDB77A
:10461000DEB7E2E10C941C44A0E0B0E0E2E1F3E29A
:104620000C9400444C01EB012A015601670114DF90
:10463000F401268137812017310720F4CC24DD24B2
:10464000760140C07501C501800F911F28173907F9
:1046500010F0350104C07901E01AF10A3701CE01EA
:10466000B801C6DE6C011170AA24BB24212C72E0B3
:10467000372E22C0C401B60141E015DFC701800F0B
:10468000911F8150924010F4E70103C0E101C01B6B
:10469000D10BA2014A0D5B1DF4018081918160E084
:1046A00098018E0164DEEC1AFD0AAC0EBD1E089462
:1046B000C11CD11C00E010E0E114F104D9F6630143
:1046C000EE24FF24B601C701CDB7DEB7E2E10C94BA
:1046D0001C44A0E0B0E0EFE6F3E20C940644EC01E9
:1046E0004B01F8E0CF2ED12CC80ED91EC6014EE0EA
:1046F00050E00E94241B009711F48D811AC01D8286
:10470000E6E0AE2EB12CAC0EBD1EEE24FF24888157
:10471000998161E0A501970100E110E028DEC60162
:10472000B4014EE050E00E94241B9C018D81232B9C
:1047300019F4282F30E00DC08F5F8D8380E190E069
:10474000E80EF91E90E0E91692E0F90601F72FEF66
:104750003FEFC901CDB7DEB7ECE00C9422440F93D4
:104760001F93CF93DF93EC01B4DF8F5F9F4F11F462
:1047700081E015C01886AE014A5F5F4F2D8130E0A1
:10478000A4E0220F331FAA95E1F78881998161E0A7
:1047900000E110E0C4DD8C8182608C8380E0DF91D9
:1047A000CF911F910F910895A0E0B0E0EAEDF3E200
:1047B0000C940644EC015A0169011D82B6E08B2E6F
:1047C000912C880E991EEE24FF248881998161E046
:1047D000A401970100E110E0CADD8885882389F0F3
:1047E000C114D10459F42896C501BE014EE050E031
:1047F0000E94321BF501168680E010C00894C108A3
:10480000D1088D818F5F8D8380E190E0E80EF91EE5
:1048100090E0E91692E0F906C1F682E0CDB7DEB786
:10482000ECE00C942244EF92FF920F931F93CF93EE
:10483000DF93EC018B017A01BA0191DFCE01B8015F
:1048400048DF8F5F9F4F11F481E00BC0CE010896C7
:10485000B7014EE050E00E94321B8C8182608C8355
:1048600080E0CDB7DEB7E6E00C942844A0E0B0E0ED
:10487000ECE3F4E20C940844EC015B011D8216E0C9
:10488000C12ED12CC80ED91EEE24FF248881998117
:1048900061E0A601970100E110E069DD88858823C9
:1048A000A1F41F821E82CE010896B5014EE050E0B1
:1048B0000E94321B8881998161E0A60197012FDD5A
:1048C0008C8182608C8380E00DC08D818F5F8D83B1
:1048D00080E190E0E80EF91E90E0E91692E0F9061A
:1048E000A9F682E0CDB7DEB7EAE00C942444A0E05C
:1048F000B0E0EDE7F4E20C940A44EC01CB017983DB
:1049000068832FEF3FEF3B832A831C822FEF2D8399
:1049100061E040E050E054DD88819981DFDC06E011
:10492000C02ED12CCC0EDD1E8881998161E0A601BC
:1049300020E032E000E110E01ADD8E819F810497D3
:1049400051F4CE0108966FE571E044E050E00E941A
:10495000241B009791F184E090E09F838E83CE0129
:1049600008966FE571E04EE050E00E94321B8881AE
:10497000998161E0A60120E032E000E110E0CFDCA7
:104980001F821E821886EE24FF248881998161E0AF
:10499000A601970100E110E0C2DCE00EF11E80E00C
:1049A000E81682E0F80689F78881998161E040E0A5
:1049B00050E09DDC8881998191DC80E0CDB7DEB745
:1049C000E8E00C942644A4E0B0E0E9EEF4E20C94B4
:1049D0000C448C01E09003040196BE016F5F7F4F91
:1049E00044E00DD2049719F0E8E0FE2E85C029813D
:1049F00030E040E050E0522F4427332722278A81BD
:104A000090E0A0E0B0E0DC0199278827282B392B23
:104A10004A2B5B2B8C8190E0A0E0B0E0282B392B57
:104A20004A2B5B2B9B8180E0A0E0B0E0282B392B48
:104A30004A2B5B2B2093CA013093CB014093CC01CE
:104A40005093CD01075F1F4F84E094E0B80187DEEB
:104A5000F82E8091CA019091CB01A091CC01B09128
:104A6000CD018F5F9F4FAF4FBF4F21F484E094E0A3
:104A7000CEDC42C084E094E0B801F8DEF82E882352
:104A8000D9F58091CA019091CB01A091CC01B09150
:104A9000CD010097A105B10579F1C80164E671E087
:104AA0000E94141B1092D601009719F481E08093A4
:104AB000D60184E094E0B8010CDE9093D30180939A
:104AC000D2011092CE011092CF011092D00110921B
:104AD000D1018091D8039091D9039093D50180930F
:104AE000D40180EB95E29093D9038093D803809111
:104AF0005C0190915D01ABDB81E080930304FF20BA
:104B000009F58091CA019091CB01A091CC01B0919F
:104B1000CD010097A105B10509F0A6D78091CA0182
:104B20009091CB01A091CC01B091CD01CD01AA27EC
:104B3000BB2764E040E3FDD98091CA019091CB018D
:104B400064E005C088E524D98F2D90E062E040E361
:104B5000F0D9D2D9E09203042496E6E00C942844DC
:104B6000A0E0B0E0E6EBF5E20C940644C0915C01F5
:104B7000D0915D018B809924AA24BB246091D2013D
:104B80007091D301AE014C5F5F4F0091CE01109147
:104B9000CF012091D0013091D10184E094E07501E2
:104BA0006401ACDC2091CE013091CF014091D00165
:104BB0005091D101280D391D4A1D5B1D8091CA01FC
:104BC0009091CB01A091CC01B091CD01281739076C
:104BD0004A075B07B1F48091D4019091D50190937D
:104BE000D9038093D80384E094E011DC8091D6014E
:104BF000882329F00E946F3980E00E94193744D73A
:104C000008C02093CE013093CF014093D001509340
:104C1000D101CE011CDBCDB7DEB7ECE00C94224411
:104C2000AFE0B0E0E6E1F6E20C940544FC017090E0
:104C3000030481E080930304BF016F5F7F4F818194
:104C4000882391F18E3209F03FC08281882361F17F
:104C50003BC0C80162D98FE29BD884E094E0B801E0
:104C600038DDBC019093D3018093D20184E094E0BD
:104C70000DDCDC01CB018093CA019093CB01A093A2
:104C8000CC01B093CD01CD01AA27BB2764E040E35E
:104C900050D98091CA019091CB0164E040E349D999
:104CA00080E276D8F39404C0FF248E010F5F1F4F7B
:104CB00084E094E060E070E0A8012F2D30E074DD26
:104CC000882309F4C6CF0EC084E094E002DDBC0165
:104CD0009093D3018093D2018FEF6F3F780721F437
:104CE00088E556D809D985C084E094E0CFDBDC01A3
:104CF000CB018093CA019093CB01A093CC01B093D8
:104D0000CD01CD01AA27BB2764E040E312D98091F1
:104D1000CA019091CB0164E040E30BD9EDD80E9429
:104D20006F1D1092CE011092CF011092D0011092FF
:104D3000D1019AD6A0905A01B0905B01F4E08F2E79
:104D4000912C8A0C9B1C3AC0F5018081C82EDD2471
:104D5000EE24FF24DB01CA01801B910BA20BB30BD5
:104D60008C159D05AE05BF0514F46C017D01F501A0
:104D7000C38212826091D2017091D301DD24EE24AE
:104D8000FF2484E094E0A40147DCF50123818091B5
:104D9000CE019091CF01A091D001B091D101820FAD
:104DA000911DA11DB11D8093CE019093CF01A093C1
:104DB000D001B093D1010E946F1DA8950091CE0142
:104DC0001091CF012091D0013091D1014091CA01C1
:104DD0005091CB016091CC017091CD010417150762
:104DE000260737070CF4B0CF0E94661DC5012FDAE5
:104DF0004BD6709203042F96EDE00C942144DC0115
:104E0000FB0121C0822F80538A3010F050E002C095
:104E1000382B51E0822F8154863020F42753322BD7
:104E2000295C51E0822F8156863018F42755322BA9
:104E300005C0552319F4203261F00EC0992331F0DA
:104E40003193415049F030E090E003C03295307F1B
:104E500091E02D912223B1F6CF01861B970B089587
:104E6000FB01982F92959F709A3010F4905D01C0CD
:104E7000995C90838F708A3010F4805D01C0895CEA
:104E800081830895689A70986D98EAE6F0E08081D1
:104E9000846080838AEF90E090931B0480931A04CF
:104EA0001092F001109209021092220210926702F1
:104EB0000895882381F0E0913E02F0E0E15CFD4F2F
:104EC00081E090E0062E02C0880F991F0A94E2F755
:104ED0002081282B2083662319F0862F81500EC055
:104EE00080913E02803118F48F5F80933E02E09102
:104EF0003E02F0E0E15CFD4F108287E090E0089513
:104F0000A0E0B0E0E6E8F7E20C940A44DC0110927D
:104F1000500210923E0297E0FD018381981B11819F
:104F2000110F110F110F190F10923F02FF24EE24E1
:104F300007E057E040E070E0E7E0CE2ED12CC1E082
:104F4000D0E07FC0FD01EE0DF11D848190E0002EC8
:104F500002C0959587950A94E2F7282F21700023C7
:104F600011F0015002C0E39407E06B3469F4533050
:104F700059F47723B9F5222311F071E062C0409310
:104F80003E02109250021EC05F3F69F56634E1F4A4
:104F9000E42FF0E0E15CFD4F8081082E82958025B2
:104FA000082E86958695802590E0019695958795A3
:104FB0008170907030E08217930761F040933E0259
:104FC0007093500280E057C0653411F06B3411F4D7
:104FD0002223A1F34F5FE42FF0E0E15CFD4F10824C
:104FE00057E02FC070E0222359F1663479F4E42FA2
:104FF000F0E0E15CFD4F9E01052E02C0220F331F41
:105000000A94E2F78081822B80831AC0653411F004
:105010006B34B1F4E42FF0E0E15CFD4F852F99276C
:1050200087FD90959601281B390BC9019E0102C08E
:10503000220F331F8A95E2F7C9012081282B208394
:105040005150F3948F2D8150811708F47BCF4093FA
:105050003E02709350021F1508F0B4CF653411F46E
:105060005F3F11F0772319F04F5F40933E0280912C
:105070003E02811181E0CDB7DEB7E8E00C94264412
:10508000CF93DF93DC01EC018A81ED91FC91E80F75
:10509000F11DE0812B8121502B832F5F21F48F5F45
:1050A0008A8387E08B838E2F90E002C09595879549
:1050B0002A95E2F78170DF91CF910895A0E0B0E0EA
:1050C000E4E6F8E20C9406446C01962E842EFF244C
:1050D000C0E0D0E0F1E0AF2EB12C062F10E001507F
:1050E000104019C0C601CCDF8823A1F0882059F0F8
:1050F000C8018C1B9D0B950102C0220F331F8A959E
:10510000E2F7C90106C0C50102C0880F991FEA94E1
:10511000E2F7F82A2196EC2EC91520F38F2DCDB792
:10512000DEB7ECE00C942244A4E0B0E0EAE9F8E257
:105130000C940844FC0187E08C833496FA83E9835D
:10514000349710923E02818190E023E0880F991FEE
:105150002A95E1F72381821B9109CE970CF45AC05E
:105160001B82CC24DD245E010894A11CB11C2EC03E
:10517000ED2CFF24C50168E040E0A0DF082F8FE39D
:1051800092E0E80EF91EF7010083002E029500253B
:10519000002E069506950025C50172DF10E00F5F11
:1051A0001F4F159507950170107090E008171907AB
:1051B00031F4C50165DF9D2D9F5F882319F0D092E2
:1051C0003E0228C0F7018081C826D92EF5E0FD15E2
:1051D00078F6D0923E02C50168E040E06FDFF82E1D
:1051E000082F002E02950025002E06950695002515
:1051F000C50146DF10E00F5F1F4F15950795017041
:10520000107090E00817190729F480E0CF1419F402
:1052100081E001C080E02496EAE00C942444FC0183
:105220008181A82FB0E050E0E081CD01841B950B77
:105230000B964797D8F48E2F90E070E09C01261BC8
:10524000370B2C30310594F4255F3F4F7CF08A0FEB
:105250009B1F861B970B841B950B8C30910534F498
:1052600020E0855F9F4F1CF021E001C020E0822FED
:105270000895282F30E0C901880F991F820F931FCE
:10528000860F911D95958795959587950895CF9350
:10529000DF93DC01EC018981813190F010926F0085
:1052A00080913B0290E029E130E0829FF001839FF2
:1052B000F00D929FF00D1124E952FE4F108220C094
:1052C000662379F0FD01E80FF11D81E090E0ED012A
:1052D0000B8002C0880F991F0A94E2F72481282BC3
:1052E0002483FD018381815083838F5F49F487E0AC
:1052F000838381818F5F8183A80FB11DED011C82A3
:10530000DF91CF9108951F920F920FB60F92112443
:10531000FF920F931F932F933F934F935F936F933E
:105320007F938F939F93AF93BF93CF93DF93EF932D
:10533000FF93809184009091850054E09695879525
:105340005A95E1F7482F20913B0289E1289FE0011F
:105350001124C952DE4F9881943059F44E3208F42A
:10536000B6C04F3430F010926F0030E089E190E029
:10537000A4C065990DC0943041F4CE0161E087DF8F
:105380001092850010928400A2C0409368029FC0D2
:10539000609168021092850010928400943009F4A4
:1053A00081C0042F061B82E086BB80911C0483FF12
:1053B00018C084FF11C0892F8E580E94C81E80918A
:1053C000680290E062E040E30E94991F802F90E025
:1053D00062E040E30E94991F80911C04877E09F4DB
:1053E00076C08881882349F4809168028D8B0E8B6A
:1053F00081E08A8382E088836AC0F090680282300C
:10540000A1F5CE0145966F2D402F09DF1A81882323
:1054100059F08D896F2D2DDF8D8B8E89602F29DFBF
:105420008E8B1F5F1A8353C0143008F43FC01C30AA
:1054300050F02E898D8990E0820F911D853691055F
:1054400014F084E001C083E08883FF8A088F19820A
:1054500087E08B831C8280EA9FE090938900809391
:10546000880082E080936F0032C0CE0147966F2D96
:10547000402FD5DE882379F0CE0161E008DF8981F5
:10548000882329F58F896F2DF4DE8F8B888D602F0F
:10549000F0DE888F1CC0CE0145966F2D402FBFDEF9
:1054A000882321F0CE0160E0F2DE11C010926F007F
:1054B00080913B0290E029E130E0829FF001839FE0
:1054C000F00D929FF00D1124E952FE4F1082FF91D2
:1054D000EF91DF91CF91BF91AF919F918F917F918C
:1054E0006F915F914F913F912F911F910F91FF907D
:1054F0000F900FBE0F901F9018951F920F920FB62E
:105500000F9211242F933F934F935F936F937F9349
:105510008F939F93AF93BF93EF93FF9310926F007E
:1055200040913B02242F30E089E190E0289FF00178
:10553000299FF00D389FF00D1124E952FE4F808114
:10554000833018F08181823028F410926F0089E155
:1055500090E013C080913D028330D1F480911C040F
:1055600082FF04C08FEA91E00E94801F10926F00BA
:1055700080913B0290E029E130E0829FF001839F1F
:10558000F00D929FF00D1124E952FE4F10820BC0D6
:105590008F5F80933D02842F8F5F80933B02843026
:1055A00011F410923B02FF91EF91BF91AF919F9147
:1055B0008F917F916F915F914F913F912F910F90BC
:1055C0000FBE0F901F901895A0E0B0E0EAEEFAE24F
:1055D0000C94084480913D02882309F440C240980D
:1055E00090913C0289E1989FE0011124C952DE4F5D
:1055F000CE0166E485DC882349F190913E0291500A
:1056000090933E02292F36E007C02150E22FF0E0B0
:10561000E15CFD4F8081380F2223B9F7E92FF0E0DC
:10562000E15CFD4F4081341719F496E4F92E92C0E5
:105630002CE007C09150E92FF0E0E15CFD4F808144
:10564000280F9923B9F7241709F4E7C1CE0165E4BF
:1056500057DC882309F4E4C180913E028150809395
:105660003E02893009F0DCC199E020E09150E92F39
:10567000F0E0E15CFD4F808128279923B9F7809104
:105680004802281709F0CCC185E4F82E63C0309198
:105690003E02315030933E0250915002232F40E0A1
:1056A00090E011C02150E22FF0E0E15CFD4FE0817D
:1056B0008E2F82958F709827552311F0442311F077
:1056C000EF709E274F5F222369F7892F90E0E32F29
:1056D000F0E0E51BF109E15CFD4F208130E02F7027
:1056E00030708217930761F08B818F5F8B838150BD
:1056F000873009F0AFC11B82898181508983AAC19B
:10570000BBE4FB2E27C08B81843009F006C1CE019B
:1057100045966CE34EE183DD882309F4FEC0C801A1
:105720006F2D4EE17CDD682FCE01B1DD8C81809341
:105730003F028D81809340028E81809341028F8150
:105740008093420288858093430285E080933E02E5
:10575000A2E5FA2E80911C04E82E80FFDFC081FFB5
:1057600002C020E084C08091020428E1829FC00131
:1057700011242091FF03820F911D4CE350E05C0146
:10578000A49EC001A59E900DB49E900D1124209161
:10579000FE03820F911D6C01C49EC001C59E900D39
:1057A000D49E900D112420910104820F911D2DE7AC
:1057B00030E0AC01429FC001439F900D529F900D7D
:1057C000112420910004820F911DAC01662757FD22
:1057D0006095762F0091510210913E02011761F5FC
:1057E0001092510220E00EC0E22FF0E0322F3F5F16
:1057F000DF01A15CBD4FEE5AFD4F90818C9198174F
:1058000019F4232F201780F32117B1F4809163023C
:1058100090916402A0916502B09166025A016B01F9
:10582000A81AB90ACA0ADB0AD601C5018697A105DA
:10583000B10510F421E001C020E01092510290E087
:105840000AC0E92FF0E0DF01A15CBD4F8C91EE5A58
:10585000FD4F80839F5F9117A0F390935102409377
:105860006302509364026093650270936602F4E5EC
:10587000BF2EFB14A9F4E6FC13C0809141028B34C7
:1058800009F44CC0893609F449C0833509F446C08F
:10589000843509F443C08D3709F440C08E37F1F1E7
:1058A0002223E1F58F2D0E94C81E8091500288238B
:1058B00029F080913E02815080933E0210E00BC09F
:1058C000E12FF0E0E15CFD4F808190E062E040E399
:1058D0000E94991F1F5FE0913E021E1788F380917E
:1058E0005002882359F0F0E0E15CFD4F808190E0A8
:1058F0008F70907061E040E30E94991F80911C04BA
:1059000085FF08C084E30E94271C90E062E040E32A
:105910000E94991F0E947C1F01C0FF2480911C04DB
:1059200082FF5FC080E70E94C81E888190E062E02D
:1059300040E20E94D61F8D8990E064E040E20E9420
:10594000D61F8E8990E064E040E20E94D61F8F89C6
:1059500090E064E040E20E94D61F888D90E064E011
:1059600040E20E94D61F8A8190E063E040E20E94FC
:10597000D61F898190E063E040E20E94D61F2B8110
:1059800087E090E0821B910962E040E20E94D61F0E
:1059900080E20E94C81E80911C0485FF0BC084E336
:1059A0000E94271C90E062E040E30E94991F80E281
:1059B0000E94C81E8B81873019F089818F5F89838F
:1059C00010E00AC0FE01E10FF11D848190E062E069
:1059D00040E30E94991F1F5F8981181798F30E9466
:1059E0007C1F188280913D02815080933D028091FE
:1059F0003C028F5F80933C02843011F410923C0291
:105A0000409AE4E5CE2EFC1451F580913E0285309B
:105A100031F58FE392E0F8D122C074E5F72E9ACEEB
:105A2000CE0182DB882319F068E4F62E93CE8E0136
:105A3000095E1F4FF0906802C8016F2D488DEFDBA3
:105A4000682FCE0124DCCE016BE45ADA882309F4F6
:105A50004BCE1DCE8981843009F05FCF54CECDB7B7
:105A6000DEB7EAE00C94244486E30E944D1C89E3EF
:105A70000E944D1C1092670208950E94F61C81E05E
:105A8000809367020C94351CFDD980911C048823F7
:105A900009F0F3CFE9CF1F93182F709A882319F4D8
:105AA00080E991E002C088E592E00E94B91E7098FA
:105AB000112319F480E991E002C088E592E00E9488
:105AC000B91E1F9108956F927F929F92AF92BF92DD
:105AD000CF92DF92EF92FF920F931F93CF93DF93BA
