:100000000C942E1B0C944C1B0C944C1B0C944C1BF2
:100010000C944C1B0C944C1B0C941B2D0C94913F7A
:100020000C949B3F0C944C1B0C9499490C944C1BC6
:100030000C944C1B0C944C1B0C944C1B0C944C1BA4
:100040000C944C1B0C94602E0C944C1B0C944C1B6D
:100050000C944C1B0C94071E0C944C1B0C944C1BC6
:100060000C944C1B0C944C1B0C944C1B0C944C1B74
:100070000C944C1B0C944C1B0C944C1B0C944C1B64
:100080000C944C1B0C944C1B0C944C1B0C944C1B54
:100090000C944C1B0C944C1B42182143451C46ED00
:1000A000294728294D184350AE3852C7205456339B
:1000B00056AB2057A721583B3161843E635A4065B7
:1000C000512166044464C5396C422172242773D6D9
:1000D0003F74C21E75734577D225782A1D00000033
:1000E0001201100102000008EB034B200000010286
:1000F000DC01090243000201008032090400000112
:10010000020201000524000110052401030104245A
:1001100002060524060001070582030800FF090402
:100120000100020A00000007050402400000070564
:100130008302400000040309041603620075007383
:100140000077006100720065002E00640065000009
:10015000002A03430055005200000000030F1E2632
:1001600027000000030F1E2536386700030F2567A0
:1001700040605000030F275188838100030F2750F0
:10018000C8C3C20027000000000000006700000094
:10019000000000005000000000000000810000008E
:1001A00000000000C20000000000000D2E2D07D34B
:1001B000913D04320000060021656A55E43023B900
:1001C00000070018146C070090876BF85611E92A95
:1001D000001F4100072E050DD391FF080500000CFC
:1001E0000021656A2D3B1322F862073F181D1CC7CA
:1001F00000B0876BF8B611EA2A001F4100202F20BB
:1002000000203D20005620312E3539204355520024
:10021000202F2000203D20004C4F56460D0A004262
:100220004F56460D0A0000535300547D7DFFFF4B8F
:100230004B7E7E00454F420D0A004E2F41004E2F4F
:10024000410020697320756E6B6E6F776E292055A3
:100250007365206F6E65206F66003F202800FFFFEA
:10026000FFFFFFFFFFFFFFFFFFFFFFFFFFFFFFFF9E
:10027000FFFFFFFFFFFFFFFFFFFFFFFFFFFFFB058C
:10028000FFFFFFFFFFFFFFFFFFFFFFFFFFFFFFFF7E
:10029000FFFFFFFFFFFFFFFFFFFFFFFFFFFFFFFF6E
:1002A000FFFFFFFFFFFFFFFFFFFFFFFFFFFFFFFF5E
:1002B000FFFFFFFFFFFFFFFFFFFFFFFFFFFFFFFF4E
:1002C000FFFFFFFFFFFFFFFFFFFFFFFFFFFFFFFF3E
:1002D000FFFFFFFFFFFFFFFFFFFFFFFFFFFFFFFF2E
:1002E000FFFFFFFFFFFFFFFFFFFFFFFFFFFFFFFF1E
:1002F000FFFFFFFFFFFFFFFFFFFFFFFFFFFFFFFF0E
:10030000FFFFFFFFFFFFFFFFFFFFFFFFFFFFFFFFFD
:10031000FFFFFFFFFFFFFFFFFFFFFFFFFFFFFFFFED
:10032000FFFFFFFFFFFFFFFFFFFFFFFFFFFFFFFFDD
:10033000FFFFFFFFFFFFFFFFFFFFFFFFFFFFFFFFCD
:10034000FFFFFFFFFFFFFFFFFFFFFFFFFFFFFFFFBD
:10035000FFFFFFFFFFFFFFFFFFFFFFFFFFFFFFFFAD
:10036000FFFFFFFFFFFFFFFFFFFFFFFFFFFFFFFF9D
:10037000FFFFFFFFFFFFFFFFFFFFFFFFFFFFFFFF8D
:10038000FFFFFFFFFFFFFFFFFFFFFFFFFFFFFFFF7D
:10039000FFFFFFFFFFFFFFFFFFFF70AFFFFFFFFF4C
:1003A000FFFFFFFFFFFFFFFFFFFFFFFFFFFFFFFF5D
:1003B000FFFFFFFFFFFFFFFFFFFFFFFFFFFFFFFF4D
:1003C000FFFFFFFFFFFFFFFF00FFFFFFFF00FFFF3B
:1003D000FFFFFFFFFFFFFFFFFFFFFFFFFFFFFFFF2D
:1003E000FFFFFFFFFFFFFFFFFFFFFFFFFFFFFFFF1D
:1003F000FFFFFFFFFFFFFFFFFFFFFFFFFFFFFFFF0D
:10040000FFFFFFFFFFFFFFFFFFFFFFFFFFFFFFFFFC
:10041000FFFFFFFFFFFFFFFFFFFFFFFFFFFFFFFFEC
:10042000FFFFFFFFFFFFFFFFFFFFFFFFFFFFFFFFDC
:10043000FFFFFFFFFFFF00FFFFFF00FF00FFFFFDCB
:1004400004F40EFFFF0FFFFFE403EFFFFFFFE710D1
:1004500029FFFFFFE14FFFFFFFE02FFFFF40EFFF0E
:10046000FFFFFF0FFFFFFFFFFFFFFFFFFFFFFFFF8C
:10047000FFFFFFFFFFFFFFFFFFFFFFFFFFD02FFF8B
:10048000E4003DFFFFC400FFFFFC61004AFFFC6188
:10049000003AFFFFFFF300FFF0000000FFFFF7103E
:1004A00029FFF00000000FFFA30039FFFFB3004D4C
:1004B000FFFFFFFFFFFFFFFFFFFFFFFFFFFFFFFF4C
:1004C000FFFFFFFFFFFFFFFFFFFFFB51016EFFFF7D
:1004D000FFFFFFFFFFFC00AFFFF0000028FFFFFA67
:1004E00040039FF000139FFFF00000000FF000009A
:1004F000000FFFFA3003AFF00FFFF00FFF00000016
:10050000FFFFFF00000FF00FFF402FF00FFFFFFF76
:10051000F002FF200FF003FFF00FFFE4004DFFF0AB
:10052000000139FFFFE4004DFFF0000038FFFFA29B
:10053000004BFFF00000000FF00FFFF00FF108FF7D
:10054000A01F10FFFFFF00F404FF602F502FFFF4E7
:1005500003F00000000FFFF0001FFFF40EFFFFFF8D
:10056000FF3000FFFFFFE201EFFFFFFFFFFFFFFF94
:10057000F50EFFFFFFFFFFFFFFF00FFFFFFFFFFF85
:10058000FFFFFFFFFFFFF00FFFFFFFFFFFFFFB205D
:1005900000FFFFFFFFFFFFF00FFFFFFFFFFF00FF68
:1005A000FFFFFF00FFFFF00FFFFFFFF0000FFFFF57
:1005B000FFFFFFFFFFFFFFFFFFFFFFFFFFFFFFFF4B
:1005C000FFFFFFFFFFFFFFFFFFFFFFFFFFFFFFFF3B
:1005D000FFFFFFFFFFFFFFFFFFFFFFFFFFFFFFFF2B
:1005E000FFFFFFFFFFFFFFFFFFFFFFFFFFFFFFFF1B
:1005F000FFFFFFFFFFFFFFFFB200FFFFFF00FFFF56
:10060000FF002AFFFFFFFFFFFFFFFFFF00FFFFFFCD
:1006100000FF00FFFFFA09F01FFFFF0FFFFF37E9A0
:100620002FFFFFFF500000FFFFFF52FFFFFFFF7093
:10063000BFFFFFC05FFFFFFFFF0FFFFFFFFFFFFFD9
:10064000FFFFFFFFFFFFFFFFFFFFFFFFFFFFFFFFBA
:10065000FFFFFF50AFFE100001EFFF0000FFFFF0B3
:100660000000008FF00000008FFFFF9000FFF000FF
:100670000000FFFF400000FFF00000000FF9000045
:10068000007FFB000000EFFFFFFFFFFFFFFFFFFF0A
:10069000FFFFFFFFFFFFFFFFFFFFFFFFFFFFFFFF6A
:1006A000F0000004FFFFD5103CFFFFF7005FFFF0F4
:1006B0000000006FFF7000000FF0000004FFF0006A
:1006C00000000FF00000000FFF7000000FF00FFFA0
:1006D000F00FFF000000FFFFFF00000FF00FF80019
:1006E000EFF00FFFFFFFF000EE000FF000EFF00F54
:1006F000FE100001EFF00000007FFF100001EFF09E
:100700000000006FF9000000FFF00000000FF00F84
:10071000FFF00FF504FF703F30EFFFFE01FC00EE2D
:1007200000BFD00AFFB00DF00000000FFFF00FFF78
:10073000FFFC07FFFFFFFFFF00FFFFFF40003EFF42
:10074000FFFFFFFFFFFFFF24FFFFFFFFFFFFFFF0A3
:100750000FFFFFFFFFFFFFFFFFFFFFFFF00FFFFF98
:10076000FFFFFFFFF20000FFFFFFFFFFFFF00FFFA3
:10077000FFFFFFFF00FFFFFFFF00FFFFF00FFFFF86
:10078000FFF0000FFFFFFFFFFFFFFFFFFFFFFFFF77
:10079000FFFFFFFFFFFFFFFFFFFFFFFFFFFFFFFF69
:1007A000FFFFFFFFFFFFFFFFFFFFF00FFFFFFFFF58
:1007B000FFFFFFFFFFFFFFFFFFFFFFFFFFFFFFFF49
:1007C000FFFFFFFFFFFFFFFFFFFFFFFFFFFF20BF58
:1007D000FFFFFF00FFFFFFFC01FFFFFFFFFFFFFF29
:1007E000FFFF00FFFFFF00FF00FFFFF40ED06FFED2
:1007F00050000FFF0FFF0FFFFFFF00CFD5FFFFFFE0
:10080000FFFFFFFFFE01FFFFFFF20EFFFFF57D0E72
:1008100074FFFFFFFFFFFFFFFFFFFFFFFFFFFFFF73
:10082000FFFFFFFFFFFFFFFFFE01FFF902DE207F5A
:10083000FF3B00FFFFF39DFE701FF38DFE700FFF67
:10084000FD0200FFF00FFFFFFFFA01CFD5FFFFFF12
:10085000FF705FF107EE801FF305EE706FFFFFFF83
:10086000FFFFFFFFFFFFFFFFFFFFFFFFFFFFFFFF98
:10087000FFFFFFFFFFFFF3AEFB00FFFB000000DF09
:10088000FFF3001FFFF00FFF900FFC009EFB5FF0D7
:100890000FEA109FF00FFFFFFFF00FFFFFFFFC00BC
:1008A0009EFC5FF00FFFF00FFFFF00FFFFFFFFFF59
:1008B000F00FF00FB00AFFF00FFFFFFFF000BC00D9
:1008C0000FF0008FF00FF902DE207FF00FFE801F87
:1008D000F902EE308FF00FFE800FF109FEB4FFFF3A
:1008E000FF00FFFFF00FFFF00FF902FF307F40BF66
:1008F000FFFC03FF406802FFF601FF204FFFFFFEF1
:10090000004FFFF00FFFFFFF31EFFFFFFFFF00FF82
:10091000FFF504E505FFFFFFFFFFFFFFFFFFFFFF00
:10092000FFFFFFFFFFF00FFFFFFFFFFFFFFFFFFFD6
:10093000FFFFF00FFFFFFFFFFFFFF00EFFFFFFFFC6
:10094000FFFFFFF00FFFFFFFFFFFFFFFFFFFFFFFB6
:10095000FFFFF00FFFFFFFFFF00FFFFFFFFFFFFFA5
:10096000FFFFFFFFFFFFFFFFFFFFFFFFFFFFFFFF97
:10097000FFFFFFFFFFFFFFFFFFFFFFFFFFFFFFFF87
:10098000F00FFFFFFFFFFFFFFFFFFFFFFFFFFFFF76
:10099000FFFFFFFFFFFFFFFFFFFFFFFFFFFFFFFF67
:1009A000FFFFFFFF00FFFFFFFF00FFFFFFFF00FF54
:1009B000FFFFFFFFFFFFFFFF00FFFFFF00FF00FF44
:1009C000F000000000F500000FFF48F92FFFFFFFC7
:1009D00020BFFFFFFFFFFFFFFFFFFA06FFFFFFF84B
:1009E00008FFFFFE70006DFFFFFF00FFFFFFFFFF2E
:1009F000FFFFFFFFFFFFFFFFFFFFFFFFFFFFF60906
:100A0000FFF30BFFC02FFFFF00FFFFFFFFFFF00F03
:100A1000FFFFFFF00FFFF40D00FFF00FFFFFFFF4EB
:100A20000AFFFFFFFFFFFE00DFF00EFFF00FF00EEA
:100A3000FFF02FFFFFFFFFFFFFFFFFFFFFFFFFFFA5
:100A4000F93FFFFFFFFFFFF38EFFFFFFFFFFFE00F9
:100A5000FFE105EE504FFFF0120EFFF00FFFF00F19
:100A6000F506FFFFFFF00FFFA03FF00FFFFFFFF0C5
:100A70000FFFFFFFF507FFFFFFF00FFFF00FFFFF76
:100A800000FFFFFFFFFFF00FF00E107FFFF00FFFE2
:100A9000FFFFF00268200FF0021FF00FF40BFFC001
:100AA0002FF00FFFF00FF40BFFC02FF00FFFF00F30
:100AB000F00EFFFFFFFFFF00FFFFF00FFFF00FFD45
:100AC00000FF10BF808F00F904FFC0010BFFFE0084
:100AD0009A00EFFFFFF400EFFFF00FFFFFFFC08F62
:100AE000FFFFFFFF00FFFF806FFF805FFFFFFFFF43
:100AF000FFFFFFFFFFFFFFB40027FFF00D3029FFCE
:100B0000FFF72003BFFFA203C00FFFD4003AFFF09E
:100B1000000000FFFFB202B00FF00D3005EFFF0044
:100B200000FFFFFF0000FFFFF00FF700AFFFF00F27
:100B3000FFFFF0070A30AFF00D3005EFFFD4004C97
:100B4000FFF00D3029FFFFA203C00FFF00D4000FFC
:100B5000FF820015BFF0000000FFF00FFFF00FF262
:100B600008FFA01F00FFFFFF00F501FF104FF30576
:100B7000FF801FF00000000FFFFF00FFFFFFFF00DE
:100B8000FFFFFFFF00FFFFFFFFFFFFFFFFFF00FF73
:100B9000FFFFFFFFFFFFE000000000F00C0FFFFF72
:100BA000E403EFC78FFFC01EFFFFFFFFFFFFFFFF44
:100BB000F40BFFFFFFFC03FFFFFE70006DFFFFFF64
:100BC00000FFFFFFFFFFFFFFFFFFFFFFFFFFFFFF34
:100BD000FFFFFFFFE00FFFF10EFFE00FFFFF00FF41
:100BE000FFFFFFFFC04FFFFFFE802FFF909F00FF22
:100BF000F001015DFFF1091018FFFFFFF803FFF49A
:100C000007FE803FF00EFFE00FFFFF00FFFFFFFF3A
:100C100000FFFFFFFFC5000FF00000000FF0005CB9
:100C2000FFFFFFFFF208FF803FFFE01FFFC0470B01
:100C3000FFF00FFFA02FF10DFFFFFFF00FFFE00F00
:100C4000F00FFFFFFFF00FFFFFFFF10DFFFFFFF0C1
:100C50000FFFF00FFFFF00FFFFFFFFFFF00FF0029D
:100C600002FFFFF00FFFFFFFF00723400FF00A0B1A
:100C7000F00FF10EFFE00FF00FFE801FF10EFFE00E
:100C80000FF00FFE801FF2018EFFFFFFFF00FFFF3E
:100C9000F00FFFF00FFE00EE00EFA04E00E507FFA3
:100CA000F4002FFFFF800106FFFFFFA00AFFFFF007
:100CB0000FFFFFFFF21FFFFFFFFF00FFFFFFFFFF20
:100CC000FFFFFFFFFFFFFFFFFFFFFFFFFF00000031
:100CD0006FF0010000BFFE2000000FFC0000100FAD
:100CE000FD000000AFF0000000FFFD0000000FF06D
:100CF0000100005FFF0000FFFFFF0000FFFFF00F9B
:100D0000800BFFFFF00FFFFFF00000002FF001004D
:100D1000005FFD000000DFF0010000BFFC000010DC
:100D20000FFF0010000FF50000000FF0000000FFA3
:100D3000F00FFFF00FF703FF405F30DFFFFE02FE12
:100D4000108A00EFFA00FF306FF00000000FFFFF85
:100D500000FFFFFFFF00FFFFFFFF00FFFFFFFFFFA0
:100D6000FFFFFFFF00FFFFFFFFFFFFFFFFA09F014F
:100D7000FFF2040BFFFFFFFFA68EFFFF6004FFFFE3
:100D8000FFFFFFFFFFFFF10EFFFFFFFE00FFFFF57C
:100D90006E0E74FFFFFF00FFFFFFFFFFFFFFFFFF6F
:100DA000FFFFFFFFFFFFFFFFFFFF808FFFF00F330D
:100DB000F00FFFFF00FFFFFFFFFE20EFFFF000043A
:100DC000EFFE03FF00FFF0000000DFF00000008FE7
:100DD000FFFFF10CFFFE400004EFF205EF700FFF84
:100DE000FF00FFFFFFFF00FFFFFE820038EFF00073
:100DF00000000FFE930028EFFFFF305FFF30BD3093
:100E0000500FFF90AC07FFF0000002CFF00FFFFF84
:100E1000FFF00FFFF00FF0000000FFF0000000FFF8
:100E2000F00FFFFFFFF00000000FFFFF00FFFFFFCC
:100E3000FFFFF00FF00000EFFFF00FFFFFFFF00AE1
:100E400000800FF00E04F00FF00FFFF00FF0000025
:100E5000007FF00FFFF00FF0000000AFFB00003B41
:100E6000FFFFFF00FFFFF00FFFF00FFF20BC01FFAF
:100E7000C02D00C309FFFC00BFFFFFF1000EFFFF04
:100E8000FE105FFFFFF00FFFFFFFFB08FFFFFFFFFC
:100E900000FFFFFFFFFFFFFFFFFFFFFFFFFFFFFF61
:100EA000FFFFFF4BEFB01FF004EE502FF701BEEB3A
:100EB0005FF404EE500FF509EFB02FFFF00FFFFFC6
:100EC000F503EE400FF005EF900FFFFF00FFFFFF6F
:100ED000FF00FFFFF00900BFFFFFF00FFFFFF00C66
:100EE00000C00FF005EF900FF504EE503FF004EE58
:100EF000502FF404EE500FFF004DFFFFF00AFFDA11
:100F00003FFFF00FFFFFF00FFFF00FFD00FF10BFDE
:100F100070BF00FC06FFB0010AFFFF00BF00DFFF4B
:100F2000FFFA00AFFFFF00FFFFFFFF00FFFFFFFF23
:100F300000EFFFFA1039EE6FFFFF21FFFFFFFFFF09
:100F4000FFFFFF40EC06FFFB10002EFFFE86BFFFF9
:100F5000FFF907006F00FFFFFFFFFFFFF00FFFFF2C
:100F6000FFFF00FFFFFFFF0FFFFFF00000000FFF7C
:100F7000FFFFFFFFFFFFFFFFFFFFFFFFFFFFFFFE82
:100F800000EFFFF00F33F00FFFFF00FFFFFFFFD177
:100F90000BFFFFF00002CFF30EFF00FFF4BEFC30AA
:100FA0003FF005EE701FFFFF902FFFFE200002DFD5
:100FB000FA0000000FFFFF00FFFFFFFF00FFFFF040
:100FC000028DFFFFFFFFFFFFFFFFFFE8200FFFF590
:100FD00006FFFF00E300000FFF40EF02FFF00000FC
:100FE00001BFF00FFFFFFFF00FFFF00FF000000058
:100FF000FFF0000000FFF00FF0000FF00000000F06
:10100000FFFF00FFFFFFFFFFF00FF000107FFFF07A
:101010000FFFFFFFF00D00C00FF00F50E00FF00FBB
:10102000FFF00FF0000038FFF00FFFF00FF00000AE
:1010300005FFFFE50000AFFFFF00FFFFF00FFFF02F
:101040000FFF507904FFD00B13A00CFFFB009FFF94
:10105000FFFA008FFFFFF501EFFFFFF00FFFFFFF2B
:10106000FF21FFFFFFFF00FFFFFFFFFFFFFFFFFF6D
:10107000FFFFFFFFFFFFFFFFFFFA30000FF00DFF44
:10108000E00FF10DFFFFFFF00DFFE00FF10000009A
:101090000FFFF00FFFFFF10DFFD00FF00EFFF00F6D
:1010A000FFFF00FFFFFFFF00FFFFF00006FFFFFF55
:1010B000F00FFFFFF00F00F00FF00EFFF00FF10D3B
:1010C000FFE01FF00DFFE00FF00DFFD00FFF00EF6E
:1010D000FFFFF300247DFFFFF00FFFFFF00FFFF095
:1010E0000FFF00DD00FFC08D00C90BFFF5004FFFB3
:1010F000FF503C01FFFFFFB00AFFFFF902FFFFFFB7
:10110000FF00FFFFFFFF408FFFF00000000FFFFF19
:1011100032FFFFFFFFFFFFFF000000000EFFFA019C
:1011200003FFA7EFE303EFF20FB00901FFFFFFFF9B
:10113000FFFFF00FFFFFFFFF00FFFFFFFF0FFFFFAD
:10114000F00000000FFFFFFFFFFFFF00000FFFFF99
:10115000FFFFFFFFFFF906FFFFF10EFFE00FFFFFAC
:1011600000FFFFFFFD10BFFFFFFFFE702FF000002C
:10117000000FFFFFFFE00FF10EFFE00FFFFF10BFBA
:10118000FFF406EE802FFF9101700FFFFFFFFFFFBE
:10119000FFFFFFFFFFF0038EFFFFFFFFFFFFFFFFDB
:1011A000FFE8300FFFF00EFFFF00F00CD00FFF0044
:1011B0000000FFF00FFF902FF10DFFFFFFF00FFF7A
:1011C000E00FF00FFFFFFFF00FFFFFFFF10DF0004A
:1011D0000FF00FFFF00FFFFF00FFFFFFFFFFF00F0B
:1011E000F00B900EFFF00FFFFFFFF00F00F00FF07D
:1011F0000FC0800FF10EFFE00FF00FFFFFFFF10EA9
:10120000FFE00FF00FE700EFFFFFFB301FFFFF00D5
:10121000FFFFF00FFFF00FFFA03508FFF00846803A
:101220000DFFF3001FFFFFFF00FFFFFFA00BFFFFFD
:10123000FFF00FFFFFFFFFA09FFFFFFF00FFFFFF7B
:10124000FFFFFFFFFFFFFFFFFFFFFFFFFFFFFE208E
:1012500000000FF00FFFF00FF00FFFFFFFF00FFF88
:10126000F00FF00000000FFFF00FFFFFF00FFFF096
:101270000FF00FFFF00FFFFF00FFFFFFFF00FFFF6A
:10128000F00000EFFFFFF00FFFFFF00F00F00FF096
:101290000FFFF00FF00FFFF00FF00FFFF00FF00F48
:1012A000FFF00FFF00FFFFFFFE4000009FFFF00F69
:1012B000FFFFF00FFFF00FFF508A03FFE04A019598
:1012C0000EFFFC00AFFFFFD00606FFFFFB009FFFF5
:1012D000FF001DFFFFFFFF00FFFFFFFFE200FFF524
:1012E000DFB4018FFFFFFFFFFFFFFFFFFFFF0000E5
:1012F00000000EFFFF0E00FFFFFF48F92FF00EF970
:101300000005FFFFFFFFFFFFF10EFFFFFFFE01FFE4
:10131000FFFFFFFFFFFFFFFF00FFFFFFFFFFFFFFDC
:10132000FF00000FFFFFFFFFFFFFFFF10EFFFFF3C6
:101330000BFFC02FFFFF00FFFFFFB00BFFFFFFFF02
:10134000FFF00FF00000000FFFFFFFE00FF30EFFB4
:10135000F00FFFFB02FFFFF00FFFF00FFFFFFFC0DA
:101360003FFFFFFFFFFFFFFFFFFFFFFE820039EFA0
:10137000F00000000FFF940028EFFFF00FFFFF00C8
:10138000E300000FFD000000DFF00FFFF00FF50796
:10139000FFFFFFF00FFFA03FF00FFFFFFFF00FFF79
:1013A000FFFFF508FFF00FF00FFFF00FFFFF00FF4A
:1013B000FFFFFFFFF00FF00FE106FFF00FFFFFFF51
:1013C000F00FFFF00FF00FF2100FF30BFFC02FF034
:1013D0000FFFFFFFF30BFFC02FF00FFF206FFFFF8A
:1013E000FFE00FFFFF00FFFFF00EFFF00FFFD01236
:1013F0000CFFF0028A300FFFC0110AFFFFFF00FF51
:10140000FFFE105FFFFFFFF00FFFFFFFFFF11FFF69
:10141000FFFF00FFFFFFFFFFFFFFFFFFFFFFFFFFDB
:10142000FFFFFFFFF206EFE00FF00DFFE00FF10D01
:10143000FFFFFFF10DFFE00FF10EFFFFFFFFF00FC9
:10144000FFFFF10DFFE00FF00FFFF00FFFFF00FFB8
:10145000FFFFFF00FFFFF00C503FFFFFF00FFFFF0B
:10146000F00F00F00FF00FFFF00FF10DFFE00FF0A5
:101470000DFFE00FF10DFFE00FFF00FFFFFFFFFF8B
:10148000EA601FFFF00FFFFFF00FFFE00FFFB03427
:1014900009FFF11735432FFFF2001FFFFFF2000D88
:1014A000FFFFB009FFFFFFFA02FFFFFFFF00FFFF92
:1014B000FFFF409FFFFFFFFFFFFFFFFFFFFFFFFF5B
:1014C000FFFFFFFFFA09F01FFFF4BE0C00FFFFFF54
:1014D0000FFF0FF204DE200EFFFFFFFFFFFFF40BF4
:1014E000FFFFFFFD03FFFFFFFFFFFFFFFFFF00FF09
:1014F000FFFFFF00FFFFFFFFFFFFFFFFFF00FFFFFA
:10150000FFA05FFFFFF902EE307FFFFF00FFFFFA51
:1015100000BFFFFFF3AEFE800FFFFFFF00FFF4BE32
:10152000FD502FF806EE702FFFF209FFFFF107EFD5
:10153000801FFF5DFC208FFFFF00FFFFFFFF00FF0C
:10154000FFFFFFB5000FF00000000FF0005CFFFF91
:10155000FFFFFFFFFF309D30500FFA00FF108FF0AC
:101560000FFFA00FFC008EFC5FF00FFA109FF00F32
:10157000FFFFFFF00FFFFFFFFB00AFE00FF00FFFDB
:10158000F00FFFFF00FFFFF39EFE900FF00FF9003A
:10159000EFF00FFFFFFFF00FFFF00FF00FF9000F5C
:1015A000F902EE407FF00FFFFFFFF902EE406FF00F
:1015B0000FFFA00FF39DFFA01FFFFF00FFFFF4052B
:1015C000EE702FFFF0000FFFF300CE000FFF308909
:1015D00002FFFFFF00FFFFF501EFFFFFFFF00FFF2E
:1015E000FFFFFFF90AFFFFFF00FFFFFFFFFFFFFF05
:1015F000FFFFFFFFFFFFFFFFFFFFF00BFE600FF09D
:1016000004EE502FF601CFFB5FF404EE500FF5040B
:10161000DFEB4FFFF00FFFFFF404EE400FF00FFF82
:10162000F00FFFFF00FFFFFFFF00FFFFF00FE009DB
:10163000FFFFF10AFFFFF00F00F00FF00FFFF00FB8
:10164000F504EE503FF004EE502FF404EE500FFF7F
:1016500000FFFFFFF39DFFB00FFFF00CFFFFF1084D
:10166000FE600FFFE0010EFFF50379205FFF90237E
:1016700007FFFFF9001FFFFB009FFFFFFFFF00FFB9
:10168000FFFFFF00FFFFFFFF00EFFFFFFFFFFFFF78
:10169000FFFF00FFFFFFFFFFFFFFF40ED05FFFF033
:1016A000000005FFFFFF38E92FFA0000000DFFFFE3
:1016B000FFFFFFFFFA06FFFFFFF808FFFFFFFFFF36
:1016C000FFFFFFFF00FFFFFFFF00FFFFFFFFFFFF28
:1016D000FFFFFF00FFFFFF20DFFFFFFE100000EF16
:1016E000F00000000FF00000000FF00000007FFF8E
:1016F000FFFF00FFF0000000DFFE100000AFFFC0A2
:101700001FFFFFF80000007FFF000002FFFFFF0047
:10171000FFFFFFFF00FFFFFFFFFFE93FFFFFFFFFAE
:10172000FFF29EFFFFFFFFF00FFFFF902FFFFFFF75
:10173000F503FF503FF00000004FFF7000000FF076
:10174000000004FFF00000000FF00FFFFFFFFF504C
:1017500000000FF00FFFF00FFF000000FFF000008F
:10176000006FF00FFF106FF00000000FF00FFFF0A0
:101770000FF00FFE000FFE100001EFF00FFFFFFF54
:10178000FF100000DFF00FFFE009F00000007FFF16
:10179000FF00FFFFFB000000AFFFF3002FFFF4008E
:1017A000FF002FFC00EE00BFFFFF00FFFFF0000076
:1017B000000FFFF00FFFFFFFFFFF12FFFFFF00FF13
:1017C000FFFFFFFFFFFFFFFFFFFFFFFFFFFFFFFF29
:1017D000F50000000FF0010000BFFE1000000FFC3C
:1017E0000000000FFD0000000FFFF00FFFFFFC00E6
:1017F00000000FF00FFFF00FF00000000FFFFF00E0
:10180000FFFFF00FF900EFFFF50000FFF00F00F011
:101810000FF00FFFF00FFD000000DFF0010000BF30
:10182000FC0000000FFF00FFFFFFF00000003FFF83
:10183000F30000FFF60000000FFFF3002FFFFA0097
:10184000CD00AFFE00AB00EFFFFE006FFFF0000029
:10185000000FFFFF00FFFFFFFF00FFFFFFFF00FF84
:10186000FFFFFFFFFFFFFFFF00FFFFFFFFFFFFFF87
:10187000F11F90AFFFFB50006FFFFFFFE303EFFF8F
:10188000B3003502FFFFFFFFFFFFFE01FFFFFFF286
:101890000EFFFFFFFFFFFFFFFFFFFFFFFFFFFE0148
:1018A000FFFFFFFFFFFFFFFFFF00FFFFFC03FFFF46
:1018B000FFFFE4003DFFF00000000FF00000000F0C
:1018C000FB510039FFFFFFFF00FFFB50015DFFFFF1
:1018D000D4002AFFFF408FFFFFFF920028FFFFA2E6
:1018E000017EFFFFFF00FFFFFFFE01FFFFFFFFFF85
:1018F000FFFFFFFFFFFFFFFFFFFFFFFFFFF00FFFF7
:10190000FFF103BFE7BFF108FFA01FF0000016EFD3
:10191000FFFA3002AFF000038FFFF00000000FF07D
:101920000FFFFFFFFFF82004CFF00FFFF00FFF00C5
:101930000000FFFB610028FFF00FFF900EF0000099
:10194000000FF00FFFF00FF00FFF500FFFE4003C0F
:10195000FFF00FFFFFFFFFE40004FFF00FFFF502B1
:10196000FB510038FFFFFF00FFFFFFA20029FFFF30
:10197000F7005FFFF802FF403FF405FF602FFFFF15
:1019800000FFFFF00000000FFFF00FFFFFFFFFFF61
:1019900090BFFFFF00FFFFFFFFFFFFFFFFFFFFFF05
:1019A000FFFFFFFFFFFFFF6003C00FF00D2019FFD7
:1019B000FFE72003AFFFA102C00FFFD51004BFFF58
:1019C000F00FFFFFFFB202A00FF00FFFF00FF000CB
:1019D00000000FFFFF00FFFFF00FFF204FFFFE3062
:1019E00000FFF00F00F00FF00FFFF00FFFD3003CEF
:1019F000FFF00D3029FFFFA203C00FFF00FFFFFF24
:101A0000FC520026EFFFFD3000FFFF5003C00FFF28
:101A1000F9007FFFFD00EF00EFF501FF103FFFFF32
:101A200010DFFFF00000000FFFFF00FFFFFFFF00CF
:101A3000FFFFFFFF00FFFFFFFFFFFFFFFFFFFFFFB5
:101A4000FFFFFFFFFFFFFFFFFFFFFFFFFF0FFFFF96
:101A5000FFFFFFFFFFFFFFFFFFFFFFFFFFFFFFFF96
:101A6000FF60BFFFFFC05FFFFFFFFFFFFFFFFFFF44
:101A7000FFFFFFFFF906FFFFFFFFFFFFFFFFFFFF75
:101A8000FFFFF30CFFFFFFFFFFFFFFFFFFFFFFFF65
:101A9000FFFFFFFFFFFFFFFFFFFFFFFFFFFFFFFF56
:101AA000FFFFFFFFFFFFFFFFFFFFFFFFFFFFFFFF46
:101AB000FFFFFFFFFFFFFFFFFFFFFFFFFFFFFFF93C
:101AC00006FFFFFFFFFFFFFFFFFFFFFFFFFFFFFF1F
:101AD000FFFFFFFFFFFFFFFD1000003FFFFFFFFFC5
:101AE000FFFFFFFFFFFFFFFFFFFFFFFFFFFFFFFF06
:101AF000FFFFFFFFFFFFFFFFFFFFFFFFFFFFFFFFF6
:101B0000FFFFFFFFFFFFFFFFFFFFFFFFFFFFFFFFE5
:101B1000FFFFFFFFFFFFFFFFFFFFFFFFFFFFFFFFD5
:101B2000FFFFFFFFFFFFFFFFFFFFFFFFFFFFFC00C7
:101B3000AFFFFFFFFFFFFFFFFFFFFFFFFFFFFFFF05
:101B4000FFFFFFFFFFFFFFFFFFFFFFFFFFFFFFFFA5
:101B5000FFFFFFFFFFFFFFFFFFFFFFFFFFFFFFF0A4
:101B60000FFFFFFFFFFFE02FFFFF00FFFFFFFFFF63
:101B7000FFFFFFFFFFFFFFFFFFFFFFFFFFFFFFFF75
:101B8000FFFFFFFFFFFFFFFFFFFFFFFFFFFFFFFF65
:101B9000FFFFFFFFFFFFFFFFFFFFFF4CFEA01FFF48
:101BA000FFFFFFFFFFFFFFFFFFFFFC00FFFFFFFF47
:101BB000FFFFFFFFFFFFFFFFFFFFFFFFFFFFFFFF35
:101BC000FFFFFFFFFFFFFFF00FFFFFFFFFFFFFF033
:101BD0000FFFFFFFFFFFFFFFFFFFFFFFFFFFFFFF05
:101BE000FFFFFFFFFFFFFFFFFFFFFFFFFFFFFFFF05
:101BF000FFFFFFFFFFFA01FFFFFFFFFFFFFFFFFFF8
:101C000000FFFFFFFF00FFFFFFFF00FFFFFFFFFFE1
:101C1000FFFFFFFFFFFFFFFFFFFFFFFFFFFFFFFFD4
:101C2000FFFFFF0FFFFFFFFFFFFFFFFFFFFFFFFFB4
:101C3000FFFFFFFFFFFFFFE02FFFFF50EFFFFFFF62
:101C4000FFFFFFFFFFFFFFFFFFFFF20DFFFFFFFFA3
:101C5000FFFFFFFFFFFFFFFFFFFFFFFFFFFFFFFF94
:101C6000FFFFFFFFFFFFFFFFFFFFFFFFFFFFFFFF84
:101C7000FFFFFFFFFFFFFFFFFFFFFFFFFFFFFFFF74
:101C8000FFFFFFFFFFFFFFFFFFFFFFFFFFFFFFFF64
:101C9000FFFFFFFFFFF20DFFFFFFFFFFFFFFFFFF53
:101CA000FFFFFFFFFFFFFFFFFFFFFFFFFFFFE7203B
:101CB00003CFFFFFFFFFFFFFFFFFFFFFFFFFFFFF60
:101CC000FFFFFFFFFFFFFFFFFFFFFFFFFFFFFFFF24
:101CD000FFFFFFFFFFFFFFFFFFFFFFFFFFFFFFFF14
:101CE000FFFFFFFFFFFFFFFFFFFFFFFFFFFFFFFF04
:101CF000FFFFFFFFFFFFFFFFFFFFFFFFFFFFFFFFF4
:101D0000FFFFFFFFFFC3EFFFFFFFFFFFFFFFFFFF2F
:101D1000FFFFFFFFFFFFFFFFFFFFFFFFFFFFFFFFD3
:101D2000FFFFFFFFFFFFFFFFFFFFFFFFFFFFFFFFC3
:101D3000FFFFFFFFFFF0001FFFFFFFFFFFFFFF3070
:101D400000FFFFFFFFFFFFFFFFFFFFFFFFFFFFFFA2
:101D5000FFFFFFFFFFFFFFFFFFFFFFFFFFFFFFFF93
:101D6000FFFFFFFFFFFFFFFFFFFFFFFFFFFFFFFF83
:101D7000FF0000006FFFFFFFFFFFFFFFFFFFFFF00F
:101D80000003FFFFFFFFFFFFFFFFFFFFFFFFFFFF5E
:101D9000FFFFFFFFFFFFFFFFFFFFFFFFFFF00FFF52
:101DA000FFFFFFFFFFF00FFFFFFFFFFFFFFFFFFF42
:101DB000FFFFFFFFFFFFFFFFFFFFFFFFFFFFFFFF33
:101DC000FFFFFFFFFFFFFFFFFFFFFF0007FFFFFF1A
:101DD000FFFFFFFFFFFF20BFFFFFFF00FFFFFFFC34
:101DE00001FFFFFFFFFFFFFFFFFFFFFFFFFFFFFF01
:101DF000FFFFFFFFFFFFFFFFFFFFFFFFFFFFFFFFF3
:101E0000FFFFFFFFFFFFFFFFFFFFFFFFFFFFFFFFE2
:101E1000FFFFFFFFFFFFFFFFFFFFFFFFFFFFFFFFD2
:101E2000FFFFFFFFFFFFFFFFFFFFFFFFFFFFFFFFC2
:101E3000FFFFFFFFFFFFFFFFFFFFFFFFFFFFFFFFB2
:101E4000FFFFFFFFFFFFFFFFFFFFFFFFFFFFFFFFA2
:101E5000FFFFFFFFFFFFFFFFFFFFFFFFFFFFFFFF92
:101E6000FFFFFFFFFFFFFFFFFFFFFFFFFFFFFFFF82
:101E7000FFFFFFFFFFFFFFFFFFFFFFFFFFFFFFFF72
:101E8000FFFFFFFFFFFFFFFFFFFFFFFFFFFFFFFF62
:101E9000FFFFFFFFFFFFFFFFFFFFFFFFFFFFFFFF52
:101EA000FFFFFFFFFFFFFFFFFFFFFFFFFFFFFFFF42
:101EB000FFFFFFFFFFFFFFFFFFFFFFFFFFFFFFFF32
:101EC000FFFFFFFFFFFFFFFFFFFFFFFFFFFFFFFF22
:101ED000FFFFFFFFFFFFFFFFFFFFFFFFFFFFFFFF12
:101EE000FFFFFFFFFFFFFFFFFFFFFFFFFFFFFFFF02
:101EF000FFFFFFFFFFFFFFFFFFFFFFFFFFFFFFFFF2
:101F0000FFFFFFFFFFFFFFFFFFFFFFFFFFFFFFFFE1
:101F1000FFFFFFFFFFFFFFFFFFFFFFFFFFFFFFFFD1
:101F2000FFFFFFFFFFFFFFFFFFFFFFFFFFFFFFFFC1
:101F3000FFFFFFFFFFFFFFFFFFFFFFFFFFFFFFFFB1
:101F4000FFFFFFFFFFFFFFB30027FFFFFFFFFFFFC4
:101F5000FFFFFFFFFFF0003DFFFFFFFFFFFFFFFF61
:101F6000FFFFFFFFFFFFFFFFFFFFFFFFFFFFFFFF81
:101F7000FFFFFFF00FFFFFFFFFFFFFF00FFFFFFF6F
:101F8000FFFFFFFFFFFFFFFFFFFFFFFFFFFFFFFF61
:101F9000FFFFFFFFFFFFFFFFFFFFFFFFFFFFFFFF51
:101FA000FF004FFFFFFFFFFFFFFFFFFFB200FFFF3C
:101FB000FF00FFFFFF002AFFFFFFFFFFFFFFFFFF04
:101FC000FFFFFFFFFFFFFFFFFFFFFFFFFFFFFFFF21
:101FD000FFFFFFFFFFFFFFFFFFFFFFFFFFFFFFFF11
:101FE000FFFFFFFFFFFFFFFFFFFFFFFFFFFFFFFF01
:101FF000FFFFFFFFFFFFFFFFFFFFFFFFFFFFFFFFF1
:10200000FFFFFFFFFFFFFFFFFFFFFFFFFFFFFFFFE0
:10201000FFFFFFFFFFFFFFFFFFFFFFFFFFFFFFFFD0
:10202000FFFFFFFFFFFFFFFFFFFFFFFFFFFFFFFFC0
:10203000FFFFFFFFFFFFFFFFFFFFFFFFFFFFFFFFB0
:10204000FFFFFFFFFFFFFFFFFFFFFFFFFFFFFFFFA0
:10205000FFFFFFFFFFFFFFFFFFFFFFFFFFFFFFFF90
:10206000FFFFFFFFFFFFFFFFFFFFFFFFFFFFFFFF80
:10207000FFFFFFFFFFFFFFFFFFFFFFFFFFFFFFFF70
:10208000FFFFFFFFFFFFFFFFFFFFFFFFFFFFFFFF60
:10209000FFFFFFFFFFFFFFFFFFFFFFFFFFFFFFFF50
:1020A000FFFFFFFFFFFFFFFFFFFFFFFFFFFFFFFF40
:1020B000FFFFFFFFFFFFFFFFFFFFFFFFFFFFFFFF30
:1020C000FFFFFFFFFFFFFFFFFFFFFFFFFFFFFFFF20
:1020D000FFFFFFFFFFFFFFFFFFFFFFFFFFFFFFFF10
:1020E000FFFFFFFFFFFFFFFFFFFFFFFFFFFFFFFF00
:1020F000FFFFFFFF0000000000FFFFFFFFFFFFFFEB
:10210000FFFFFFFFFFFFFFFFFFFFFFFFFFFFFFFFDF
:10211000FFFFFFFFFFFFFFFFFFFFFFFFFFFFFFFFCF
:10212000FFFFFFFFFFFFFFFFFFFFFFFFFFFFFFFFBF
:10213000FFFFFFFFFFFFFFFFFFFFFFFFFFFFFFFFAF
:10214000FFFFFFFFFFFFFFFFFFFFFFFFFFFFFFFF9F
:10215000FFFFFFFFFFFFFFFFFFFFFFFFFFFFFFFF8F
:10216000FFFFFFFFFFFFFFFFFFFFFFFFFFFFFFFF7F
:10217000FFFFFFFFFFFFFFFFFFFFFFFFFFFFFFFF6F
:10218000FFFFFFFFFFFFFF00FFFFFFFFFFFFFFFF5E
:10219000FFFFFFFFFFFFFFFFFFFFFFFFFFFFFFFF4F
:1021A000FFFFFFFFFFFFFFFFFFFFFFFFFFFFFFFF3F
:1021B000FFFD1FFFFFF2CFFFFFFFFFFFFFFFFFFF4E
:1021C000FFFFFFFFFFFFFFFFFFFFFFFFFFFFFFFF1F
:1021D000FFFFFFFFFFFFFFFFFFFFFFFFFFFFFFFF0F
:1021E000FFFFFFFFFFFFFFFFFFFFFFFFFFFFFFFFFF
:1021F000FFFFFFFFFFFFFFFFFFFFFFFFFFFFFFFFEF
:10220000FFFFFFFFFFFFFFFFFFFFFFFFFFFFFFFFDE
:10221000FFFFFFFFFFFFFFFFFFFFFFFFFFFFFFFFCE
:10222000FFFFFFFFFFFFFFFFFFFFFFFFFFFFFFFFBE
:10223000FFFFFFFFFFFFFFFFFFFFFFFFFFFFFFFFAE
:10224000FFFFFFFFFFFFFFFFFFFFFFFFFFFFFFFF9E
:10225000FFFFFFFFFFFFFFFFFFFFFFFFFFFFFFFF8E
:10226000FFFFFFFFFFFFFFFFFFFFFFFFFFFFFFFF7E
:10227000FFFFFFFFFFFFFFFFFFFFFFFFFFF0006F0C
:10228000FFFFFFFFFC000FFFFFFFFFFFFFFFFFFF50
:10229000FFFFFFFFFFFFFFFFF00FFFFFFFFFFFFF4D
:1022A000FFFFF00FFFFFFFFFFFFB200FFFFFFFFF10
:1022B000F00FFFFFFFF00FFFFFFF00FFF00FFFFF2A
:1022C0000000FFFFFFFFFFFFFFFFFFFFFFFFFFFF1C
:1022D000FFFFFFFFFFFFFFFFFFFFFFFFFFFFFFFF0E
:1022E000FFFFFFFFFFFFFFFFFFFFFFFFFFFFFFFFFE
:1022F000FFFFFFFFFFFFFFFFFFFFFFFFFFFA100FD2
:10230000FFF0FFFFF0019FFFFFFFFFFFFFFFFFFF59
:10231000FFFFFFFFFFFFFFFFFFFF0FFFFFFFFFFFBD
:10232000FFFFFFFFFFFF909FFFF35FFFFFF72FFF10
:10233000FFFFFFFFFFFFFFFFFFFFFFFFFFFFFFFFAD
:10234000FFFFFFFFFFFFFFFFFFFFFFFFFFFFFFFF9D
:10235000FFFFFFFFFFFFFFFFFFFFFFFFFFFFFFFF8D
:10236000FFFFFFFFFFFFFFFFFFFFFFFFFFFFFFFF7D
:10237000FFFFFFFFFFFFFFFFFFFFFFFFFFFFFFFF6D
:10238000FFFFFFFFFFFFFFFFFFFFFFFFFFFFFFFF5D
:10239000FFFFFFFFFFFFFFFFFFFFFFFFFFFFFFFF4D
:1023A000FFFFFFFFFFFFFFFFFFFFFFFFFFFFFFFF3D
:1023B000FFFFFFFFFFFFFFFFFFFFFFFFFFFFFFFF2D
:1023C000FFFFFFFFFFFFFFFFFFFFFFFFFFFFFFFF1D
:1023D000FFFFFFFFFFFFFFFFFFFFFFFFFFFFFFFF0D
:1023E000FFFFFFFFFFFFFFFFFFFFFFFFFFFFFFFFFD
:1023F000FFFFFFFFFFF00FFFFFFFFFFFFFF00FFFEB
:10240000FFFFFFFFFFFFFFFFFA07FFFFFFFFFFFFD9
:10241000F00FFFFFFFFFFFFFFFFFF00FFFFFFFFFCA
:10242000FFF20DFFFFFFFFFFF00FFFFFFFF00FFFB9
:10243000FFFF00FFF00FFFFFFF00FFFFFFFFFFFFA9
:10244000FFFFFFFFFFFFFFFFFFFFFFFFFFFFFFFF9C
:10245000FFFFFFFFFFFFFFFFFFFFFFFFFFFFFFFF8C
:10246000FFFFFFFFFFFFFFFFFFFFFFFFFFFFFFFF7C
:10247000FFFFFFFFFFF10CFFFFF0FFFFFFC00FFFAB
:10248000FFFFFFFFFFF00FFFF00FF00FFFFFFFFF59
:10249000FFFF0FFFB11AFFFFFFA107FFFFF81CFFAF
:1024A000FFC0AFFFFFFC0BFFFFF0FFFFFFFFFFFFD1
:1024B000FFFFFFFFFFFFFFFFFFFFFFFFFFFFFD2FFE
:1024C000FF92018FF0000FFFFB50027EFB50015C7A
:1024D000FFFF800FF000000FFFB3019FF00000002E
:1024E000FD40004CFF51028FFFFFFFFFFFFFFFFF8A
:1024F000FFFFFFFFFFFFFFFFFFFFFFFFFFA202AF96
:10250000FF5003CFFFF403FFF000014DFFE510295A
:10251000F00015CFF0000000F0000000FFE51029EA
:10252000F00FFF00F000000FFFFF0000F00FF905B3
:10253000F00FFFFFF004F500F006FF00FF92029F8E
:10254000F000026EFF92028FF000016EFF71004BEF
:10255000F000000FF00FFF00F20FFF0113FFFF402C
:10256000F50BFD0350BFFC03F0000000FFF00FFF70
:10257000F36FFFFFFFF00FFFFF705FFFFFFFFFFF35
:10258000FFD27FFFFFFFFFFFF00FFFFFFFFFFFFF07
:10259000FFFFF00FFFFFFFFFFFF00FFFFFFFFFFF49
:1025A000F00FFFFFFFFFFFFFFFFFFFFFF00FFFFF39
:1025B000FF00FFFFFFFFFFFFFFFFFFFFFFFFFFFF2A
:1025C000FFFFFFFFFFFFFFFFFFFFFFFFFFFFFFFF1B
:1025D000FFF00FFFFFFFFFFFFFFFFFFFFFFFFFFF0A
:1025E000FFFFFFFFFFFFFFFFFFFFFFFFFFF00FFFFA
:1025F000FFF0FFFFFFF00FFFFFFFFFFFFFF00FFFF8
:10260000F00FF00FFFF08D0CFD40000F1CC1FFFF1D
:10261000FF00EAFFFFFFFFFFFF50CFFFFFFD04FFBA
:1026200056E0E74FFFF00FFFFFFFFFFFFFFFFFFF49
:10263000FFFFFFFFFFFFF5AFFB05E70AFFF00FFF0E
:10264000F3AEF904F3AEFB01FFFA000FF00FFFFF4A
:10265000FC04EE7FFFFFFB01F10BFC01F607F8091C
:10266000FFFFFFFFFFFFFFFFFFFFFFFFFFFFFFFF7A
:10267000FFFFFFFFFF6ED00FF26EFA2FFFF000FF9B
:10268000F00FFB02FE11BFD5F00FE20BF00FFFFFC2
:10269000F00FFFFFFD11CFD7F00FFF00FFF00FFF8E
:1026A000FFFFFF00F00FB02FF00FFFFFF000F10071
:1026B000F000EF00FB05E70AF00FF804FB05E70A5E
:1026C000F00FF803F50AFEB4FFF00FFFF00FFF0064
:1026D000F50CFD0432FFFF31FE02F30DD01FF20DA9
:1026E000FFFFFC00FFF00FFFFB0FFFFFFFF00FFFEE
:1026F000FC000AFFFFFFFFFFFFFFFFFFFFFFFFFFE1
:10270000F00FFFFFFFFFFFFFFFFFF00FFFFFFFFFD7
:10271000FFF00FFFFFFFFFFFF00FFFFFFFFFFFFFC7
:10272000FFFFFFFFF00FFFFFFF00FFFFFFFFFFFFB7
:10273000FFFFFFFFFFFFFFFFFFFFFFFFFFFFFFFFA9
:10274000FFFFFFFFFFFFFFFFFFF00FFFFFFFFFFF98
:10275000FFFFFFFFFFFFFFFFFFFFFFFFFFFFFFFF89
:10276000FFFFFFFFFFF00FFFFFF0FFFFFFF00FFF86
:10277000FFFFFFFFFFF00FFFF00FF00FFFC0D81FAC
:10278000F10C0E7F1CD0FFFFFF40BFFFFFFFFFFFDC
:10279000FF20EFFFFFFF01FFE70006DFFFF00FFF65
:1027A000FFFFFFFFFFFFFFFFFFFFFFFFFFFFE1FF57
:1027B000F40DFD02FFF00FFFFFFFFF00FFFFFB0224
:1027C000FFB0500FF00FFFFFF40DFFFFFFFFF20906
:1027D000F40BFB02F00EFF02FFF00FFFFFF00FFF04
:1027E000FFFFFF93FFFFFFFFF39EFFFFFFFFB02FF1
:1027F00093E5030FFFD040CFF00FFF00F509FFFF77
:10280000F00FFD03F00FFFFFF00FFFFFF50AFFFFD2
:10281000F00FFF00FFF00FFFFFFFFF00F00D01EFD3
:10282000F00FFFFFF001C000F0009F00F30DFD026C
:10283000F00FFF00F30DFD02F00FFF00F00EFFFFA1
:10284000FFF00FFFF00FFF00FB08FA0950F21F2303
:10285000FF80506FF609A05FFFFFE10BFFF00FFF55
:10286000FF19FFFFFFF00FFFE11E21EFFFFFFFFF4A
:10287000FFFFFFFFFF9103DFF00503EFFF92029FD1
:10288000FE30400FFF7005EFF000000FFE30400FEC
:10289000F005009FF0000FFFFF0000FFF00F908F8A
:1028A000FF00FFFF04005107F005009FFF7006FFC7
:1028B000F00503EFFE30400FFF00500FFD4003AF67
:1028C000F000000FF00FF00FF20FF01F14FFFF5198
:1028D000F509A04FF20EE01FF000000FFFF00FFF10
:1028E000FFF0FFFFFFF00FFFFFFFFFFFFFF00FFF05
:1028F000F00FF00FD0000000F1090FFFB10AFA68E5
:10290000FFA03FFFFFFFFFFFFF00FFFFFFFF00FFF4
:10291000E70006DFFFF00FFFFFFFFFFFFFFFFFFFF6
:10292000FFFFFFFFFFFF78FFF00E1F00FFF00FFF1C
:10293000FFFFFA07FFF0004EFE15F00FF000028FC8
:10294000F104004EFFFFC01FFF50004EF00EFF00CD
:10295000FFF00FFFFFF00FFFFFFB5002F000000041
:10296000F3005CFFFFFB04EF3B76E70FFF80A06FF7
:10297000F00FFB03F10EFFFFF00FFE00F00FFFFF63
:10298000F00FFFFFF10EFFFFF00FFF00FFF00FFF52
:10299000FFFFFF00F0020BFFF00FFFFFF0036200EC
:1029A000F0061F00F10EFF00F00FFE00F10EFF0019
:1029B000F00FFE00F3018DFFFFF00FFFF00FFF009F
:1029C000FE03F50D80E00E05FFF100EFFE0110EFB4
:1029D000FFFF409FFFF00FFFFF82FFFFFFF00FFFA1
:1029E00051EFE14FFFFFFFFFFFFFFFFFFF5EC02F33
:1029F000F009A03FF904EE7FF509A00FF809B05FD8
:102A0000FFF00FFFF609A00FF00AD00FFFF00FFF45
:102A1000FFFF00FFF00B06FFFF00FFFF00D00D01DE
:102A2000F00AD00FF809A06FF009A03FF509A00F38
:102A3000FF006FAFF10CFD5FFFF00FFFF00FF00F25
:102A4000F70CD05F42FFFF32FE1120EFF80BC06F92
:102A5000FFFFC01FFFA01FFFFFF0FFFFFFF309FFF5
:102A6000FFFFFFFFFFF10FFFFFFFFFFFFF06D0BFDC
:102A7000FD40006EFFA66BFFFA050AF0FFFFFFFFA7
:102A8000FF00FFFFFFFF00FF56E0E74F00000000E0
:102A9000FFFFFFFFFF0000FFFFFFFFFFFFFE1EFF26
:102AA000F00F1F00FFF00FFFFFFFB05FFFFFF70504
:102AB000F15FF00FF4CFE506F008F903FFFF308F68
:102AC000F807F806F408F900FFFFFFFFFFFFFFFF1C
:102AD000F82017DFF0000000FFD71028FFF10EFFED
:102AE0001E1EFE0FFF30F02FF000002EF00FFFFF34
:102AF000F00FFF00F000000FF000000FF00FF000EB
:102B0000F0000000FFF00FFFFFFFFF00F00005FFE7
:102B1000F00FFFFFF0080600F00D0C00F00FFF00B3
:102B2000F00FF804F00FFF00F00FF804FE40004E25
:102B3000FFF00FFFF00FFF00FF11F21FA0B01A0807
:102B4000FFF705FFFF8006FFFFF606FFFFF00FFF10
:102B5000FFE0BFFFFFF00FFFFFFFFFFFFFFFFFFFE3
:102B6000FFFFFFFFFFFFF00FF00EE00FF10DFFFF83
:102B7000F10EE00FF10EF00FFFF00FFFF10EE00F7E
:102B8000F00FF00FFFF00FFFFFFF00FFF0012FFF2E
:102B9000FF00FFFF00F00F00F00FF00FF10EE01F3D
:102BA000F00EE00FF10EE00FFF00EFFFF104AEFFBB
:102BB000FFF00FFFF00FF00FFC0890BF80F11F0631
:102BC000FFA009FFFC0780CFFFFD11CFF001BFFF81
:102BD000FFF0FFFFFFFC100FF9106DE7FFF32FFF71
:102BE000FFFFFFFFFD0BB0EFFFFF0803A6BFB11A09
:102BF000F10E11D0FFFFFFFFFF20EFFFFFFE01FFEF
:102C0000FFF0FFFF00000000FFFFFFFFFF0000FFDD
:102C1000FFFFFFFFFFF96FFFF00EFF00FFF00FFF58
:102C2000FFFB04FFFFFFFE00F0000000FFFFFE00BF
:102C3000F00EFE00FFFC00FFF00EFF00FE40030060
:102C4000FFFFFFFFFFFFFFFFF007FFFFFFFFFFFF9B
:102C5000FFFFF900FFF00FFF0F0FFF0FFE00000E48
:102C6000F00FFB03F10EFFFFF00FFF00F00FFFFF6F
:102C7000F00FFFFFF10EFF00F00FFF00FFF00FFF5E
:102C8000FFFFFF00F00720DFF00FFFFFF00C09004F
:102C9000F00F3400F00EFF00F000026EF00EFF00A7
:102CA000F000004EFFFE8102FFF00FFFF00FFF006B
:102CB000FF50D03FD063540AFFE100EFFFF00EFF5A
:102CC000FF904FFFFFF00FFFFFF54FFFFFF00FFFEB
:102CD000FFFFFFFFFFFFFFFFFFFFFFFFFB30000FC6
:102CE000F00FF00FF00FFFFFF00FF00FF000000FEC
:102CF000FFF00FFFF00FF00FF00FF00FFFF00FFFDE
:102D0000FFFF00FFF0000EFFFF00FFFF00F00F00CD
:102D1000F00FF00FF00FF00FF00FF00FF00FF00FBB
:102D2000FF00FFFFFB30008FFFF00FFFF00FF00FF1
:102D3000FF0350EFC0C00C0AFFF00EFFFF1331FF7E
:102D4000FFD10DFFFFA01FFFFFF0FFFFFFF209FF04
:102D5000F6EE8107FFFFFFFFFFFFFFFF0000000C03
:102D6000F7FF0F00FFFF1CC0F00E9002FFFFFFFFF8
:102D7000FF50DFFFFFFD04FFFFFFFFFFFFF00FFF2E
:102D8000FFFFFFFFFFFFFFFFFFFFFFFFFFF1EFFF71
:102D9000F30DFD02FFF00FFFFFA04FFFFFFFFF004D
:102DA000FFFFF00FFFFFFE00F30EFF00FFF308FF31
:102DB000F00EFE00FFFFFE03FFFFFFFFFFFFFFFF20
:102DC000F82027DFF0000000FFD72028FFFFFFFFDB
:102DD0000E1EFE0FFC07F80AF00FFF00F509FFFFBB
:102DE000F00FFC03F00FFFFFF00FFFFFF50BFF00EC
:102DF000F00FFF00FFF00FFFFFFFFF00F00FB02FFD
:102E0000F00FFFFFF00FFF00F00FA000F40DFD0228
:102E1000F00FFFFFF40DFD02F00FE40BFFFFFE00CB
:102E2000FFF00FFFF00FFF00FFB0708FE007900C76
:102E3000FF70605FFFF00FFFFC02EFFFFFF00FFF7E
:102E4000FFFC0EFFFFF00FFFFFFFFFFFFFFFFFFF85
:102E5000FFFFFFFFF10CF00FF00EF00FF20EFFFF7F
:102E6000F10EE00FF10EFFFFFFF00FFFF10EE00F8C
:102E7000F00FF00FFFF00FFFFFFF00FFF00C05FF5A
:102E8000FF00FFFF00F00F00F00FF00FF10EE01F4A
:102E9000F00EF00FF10EE00FFF00FFFFFFFE900FAE
:102EA000FFF00FFFF00FF00FFF4113FFE072370D3F
:102EB000FF8006FFFF5105FFFE10CFFFFFF00FFF61
:102EC000FFF0FFFFFFF00EFFFFFFFFFFFFF00FFF20
:102ED000FFFFFFFFF34E08FFF06E0B02FFFF1CD059
:102EE000F507E006FFFFFFFFFFC09FFFFFFC0BFFA2
:102EF000FFFFFFFFFFF00FFFFFF00FFFFFFFFFFFE0
:102F0000FFF00FFFFFA5FFFFFB05F70AFFF00FFF24
:102F1000F905FFFFF4BFE704FFFFF00FF4DFE6065B
:102F2000FA08F905FFC00FFFF607F804FF6EE50B7E
:102F3000FFF00FFFFFF00FFFFFFB5002F00000005B
:102F4000F3005CFFFFF00FFF4A66F70FF70BFD047D
:102F5000F00FFB01FE01BFE5F00FE40BF00FFFFFE8
:102F6000F00FFFFFFD02DE00F00FFF00FFF00FFF8C
:102F7000F4BEFA01F00FF40AF00FFFFFF00FFF00AC
:102F8000F00FF100FB05F70AF00FFFFFFB05F70854
:102F9000F00FFD01E3AEFB02FFF00FFFF509FA03AE
:102FA000FFE000DFF00BD00EFE02F30DFFF00FFF8D
:102FB000F11DFFFFFFF00FFFFFFF36FFFFF00FFFD8
:102FC000FFFFFFFFFFFFFFFFFFFFFFFFF10DA00F60
:102FD000F009A03FF904EE7FF509A00FF807FE5FA6
:102FE000FFF00FFFF508A00FF00FF00FFFF00FFF3D
:102FF000FFFF00FFF00F40DFFF30AFFF00F00F00DA
:10300000F00FF00FF809A06FF008A04FF509A00F1E
:10301000FF00FFFFF4DFD01FFFF10DFFF10CB00F39
:10302000FFA008FFF006900FFE0230DFFFB00BFF9D
:10303000F10CFFFFFFF00FFFFFF0FFFFFFF00FFFAE
:10304000FFFFFFFFFFF00FFFFFFFFFFFE0AC0EFFF2
:10305000FB50005EFFFFB10AFE500402FFFFFFFFBE
:10306000FFF25FFFFFF72FFFFFFFFFFFFFF00FFFF4
:10307000FFF00FFFFFFFFFFFFFF00FFFFF2DFFFF30
:10308000FF91018FF000000FF0000000FB40027F75
:10309000FFFFF00FFB30028FFF91006EFF408FFFAC
:1030A000FF70016EFFA103AFFFF00FFFFFF00FFFF6
:1030B000FFFFFE93FFFFFFFFF29EFFFFFFF00FFFFA
:1030C000A2E4030FF20FFF01F000003CFFE510192E
:1030D000F00004CFF0000000F00FFFFFFFC4001568
:1030E000F00FFF00F000000FFB50005CF00FFD013F
:1030F000F0000000F00FFF00F00FF800FF91018FCB
:10310000F00FFFFFFF91003FF00FFF904B40015E7B
:10311000FFF00FFFFE50004EFFF101FFF10EF00F28
:10312000F50BFD03FFF00FFFF0000000FFF00FFFB5
:10313000FFFFA0FFFFF00FFFFFFFFFFFFFFFFFFFFD
:10314000FFFFFFFFFA10400FF00502EFFF92019F13
:10315000FE30400FFF7002AFFFF00FFFFE30400F58
:10316000F00FF00FF000000FFFFF00FFF00FC03F67
:10317000FFC3000F00F00F00F00FF00FFF7005FF0E
:10318000F00502EFFE30400FFF00FFFFFB3003BFF2
:10319000FFF9100FFA00400FFFD00DFFF30BD02FF7
:1031A000F509B03FFFE00FFFF000000FFFF00CFF4C
:1031B000FFF0FFFFFFD00FFFFFFFFFFFFFFFFFFF4D
:1031C000FFFFFFFFFFFFFFFFFFFF0FFFFFFFFFFFFF
:1031D000FFFFFFFFFFFFFFFFFFFD1FFFFFF2BFFF2E
:1031E000FFFFFFFFFFFFFFFFFFB0AFFFFFFFFFFF8E
:1031F000FFFFFFFFFC3FFFFFFFFFFFFFFFFFFFFFA2
:10320000FFFFFFFFFFFFFFFFFFFFFFFFFFFFFFFFCE
:10321000FFFFFFFFFFFFFFFFFFFFFFFFFFFFFFFFBE
:10322000FFFFFFFFFFB0AFFFFFFFFFFFFFFFFFFF4D
:10323000FFFFFFFFFFFFFFFFF54DFB5FFFFFFFFFFE
:10324000FFFFFFFFFFFFFFFFFFFFFFFFFFFFFFFF8E
:10325000FFFFFFFFFFFFFFFFFFFFFFFFFFFFFFFF7E
:10326000FFFFFFFFFFFFFFFFFFFFFFFFFFFFFFFF6E
:10327000FFFFFFFFFFFFFFFFFFFFFFFFFFFFF20B5F
:10328000FFFFFFFFFFFFFFFFFFFFFFFFFFFFFFFF4E
:10329000FFFFFFFFFFFFFFFFFFFFFFFFFFFFFFFF3E
:1032A000FFFFFFFFFFF0006FFFFFF19FFC000FFF2C
:1032B000FFFFFFFFFFFFFFFFFFFFFFFFFFFFFFFF1E
:1032C000FFFFFFFFFFFFFFFFFFFFFFFFFFFFFFFF0E
:1032D000FFFFFFFFFFFFF00FFFFFFFFFFFFFFFFFFD
:1032E000FFFF00FFFFFFFFFFFFFFFFFFFFFFFFFFED
:1032F000FFFFFFFFFFFFFFFFF00FFFFFFFFFF00FDC
:10330000FFFFFFFFFFFFFFFFFFFFFFFFFFFFFFFFCD
:10331000FFFFFFFFFFFFFFFFFFFFFFFFFFE04FFF8C
:10332000FFFFFFFFFFF9100FFFF0FFFFF0017FFF2E
:10333000FFFFFFFFFFFFFFFFFFFFFFFFFFFFFFFF9D
:10334000FFFF0FFFFFFFFFFFFFFFFFFFFFFFFFFF7D
:10335000FFFFFFFFFFFFFFFFFFFFFFFFFFFFFFFF7D
:10336000FF38FFFFFFFFFFFFFFFFFFFFF3CFFFFF70
:10337000FFFFFFFFFFFFFFFFFFFFFFFFFFFFFFFF5D
:10338000FFFFFFFFFFFFFFFFFFFFFFFFFFFFFFFF4D
:10339000FFFFFFFFFFFFFFFFFFFFFFFFFF38FFFF04
:1033A000FFFFFFFFFFFFFFFFFFFFFFFFFFFFFFFF2D
:1033B000FF81006FFFFFFFFFFFFFFFFFFFFFFFFF2A
:1033C000FFFFFFFFFFFFFFFFFFFFFFFFFFFFFFFF0D
:1033D000FFFFFFFFFFFFFFFFFFFFFFFFFFFFFFFFFD
:1033E000FFFFFFFFFFFFFFFFFFFFFFFFFFFFFFFFED
:1033F000FFFFFFFFFFFFFE3EFFFFFFFFFFFFFFFF9F
:10340000FFFFFFFFFFFFFFFFFFFFFFFFFFFFFFFFCC
:10341000FFFFFFFFFFFFFFFFFFFFFFFFFFFFFFFFBC
:10342000FFFFF82FFFFFFFFFFFFFFFFFFFFFFFFF83
:10343000FFFFFFFFFFFFFFFFFFFFFFFFFFFFFFFF9C
:10344000FFFFFFFFFFFFFFFFFFFFFFFFFF6EA03F3C
:10345000FFFFFFFFFFFFFFFFFFFB01FFFFFFFFFF7E
:10346000FFFFFFFFFFFFFFFFFFFFFFFFFFFFFFFF6C
:10347000F00FFFFFFFFFF00FFFFFFFFFFFFFFFFF5A
:10348000FFFFFFFFFFFFFFFFFFFFFFFFFFFFFFFF4C
:10349000FFFFFFFFFF70BFFFFFFFFFFFFFFFFFFF0B
:1034A000FFF0FFFFFFFFFFFFFFFFFFFFFFFFFFFF3B
:1034B000FFFFFFFFFFFFFFFFFFFFFFFFFFFFFFFF1C
:1034C000FFFFFFFFFFFFFFFFFFFFFFFFFFFFFFFF0C
:1034D000FFFFFFFFFFFFFFFFFFFFFFFFFFFFFFFFFC
:1034E000FFFFFFFFFFFFFFFFFFFFFFFFFFFFFFFFEC
:1034F000FFFFFFFFFFFFFFFFFFFFFFFFFFFFFFFFDC
:10350000FFFFFFFFFFFFFFFFFFFFFFFFFFFFFFFFCB
:10351000FFFFFFFFFFFFFFFFFFFFFFFFFFFFFFFFBB
:10352000FFFFFFFFFFFFFFFFFFFFFFFFFFFFFFFFAB
:10353000FFFFFFFFFFFFFFFFFFFFFFFFFFFFFFFF9B
:10354000FFFFFFFFFFFFFFFFFFFFFFFFFFFFFFFF8B
:10355000FFFFFFFFFFFFFFFFFFFFFFFFFFFFFFFF7B
:10356000FFFFFFFFFFFFFFFFFFFFFFFFFFFFFFFF6B
:10357000FFFFFFFFFFFFFFFFFFFFFFFFFFFFFFFF5B
:10358000FFFFFFFFFFFFFFFFFFFFFFFFFFFFFFFF4B
:10359000FFFFFFFFFFFFFFFFFFFFFFFFFFFFFFFF3B
:1035A000FFFFFFFF00000000FFFFFFFFFFFFFFFF27
:1035B000FFFFFFFFFFFFFFFFFFFFFFFFFFFFFFFF1B
:1035C000FFFFFFFFFFA103DFFFFFFFFFFFFFFFFF85
:1035D000F0002BFFFFFFFFFFFFFFFFFFFFFFFFFFDD
:1035E000FFFFFFFFFFFFFFFFF00FFFFFFFFFF00FE9
:1035F000FFFFFFFFFFFFFFFFFFFFFFFFFFFFFFFFDB
:10360000FFFFFFFFFFFFFFFFFFFFFFFFF005FFFFD3
:10361000FFFFFFFFFFFFFFFFFFFFFFFFFFFFFFFFBA
:10362000FFFFFFFF436F6E74726173743A00206591
:1036300072726F7200206368617267696E67002042
:1036400063686172676564002064697363686172AE
:10365000676500536C6565703A20000011241FBE39
:10366000CFEFD0E2DEBFCDBF11E0A0E0B1E0EEE1F0
:10367000F6E900E00BBF02C007900D92A834B10735
:10368000D9F715E0A8E4B1E001C01D92A339B10754
:10369000E1F70DD00C940D4B0C940000F89481E0F0
:1036A00085BF82E085BFE0E0F0EF099508952FE047
:1036B00088E190E00FB6F894A895809360000FBE63
:1036C0002093600080E090E020E80FB6F89420930B
:1036D0006100809361000FBE04B603FE0AC083E35D
:1036E00090E03DD5882329F083E390E060E09BD50E
:1036F000D5DF89EF87BD84E085BD82E084BD8093FE
:103700006E00109280008AE08093810084B7877FEA
:1037100084BF389AA3D603D60E947B490E943533D2
:103720000E94F0290E94083F0E94463E82E794E0F2
:10373000ABD660917204709173048CE794E040E022
:103740000E946A250E9427400E94A3400E949D3D3E
:1037500080EF94E3909375048093740483E690E083
:10376000FED480934B018BE080934C010E94B345C3
:10377000409A0E944E4A86D10E94D22E8AD20E943E
:10378000A0430E944B440E94153FF3CFDA01292F3A
:1037900033272230310559F02330310569F02130CB
:1037A000310511F5E0EEF0E022E130E021C0E2EF7A
:1037B000F0E023E430E01CC090708130910551F0BE
:1037C0008130910518F0029779F408C0E5E3F1E043
:1037D000849107C0E9E3F1E0849103C0E1E5F1E001
:1037E0008491282F30E004C0E0E0F0E020E030E0F9
:1037F000ED93FC93C90108958EBD0DB407FEFDCF76
:103800008EB508957198806C8EBD0DB407FEFDCF06
:103810008EB51EBC0DB407FEFDCF8EB5719A08950E
:1038200071988EBD0DB407FEFDCF8EB5719A0895C7
:103830001F931FEF05C08AE090E0B1D2112329F059
:1038400086E3EEDF11508077B1F789E3E9DF10926C
:1038500076041F9108951F931FEF84E3E1DF8AE050
:1038600090E09DD21150C9F7ED9A1F9108951F93D2
:10387000ED9886E3D5DF1FEF85E3D2DF8AE090E0A5
:103880008ED21150C9F71F910895A1E0B0E0EBE48A
:10389000FCE10C94964A0196BE016F5F7F4F41E0B8
:1038A0000E941028892B41F18981893989F400E02F
:1038B00010E0802FA7DF0ED4C801877090700797A3
:1038C00009F4B6D30F5F1F4F0033110591F714C0F1
:1038D00099DF182F83E4E2D28981FCD381E092E062
:1038E000ABD3812FF7D38DEF91E0A6D3812F90E05A
:1038F00062E040E2F3D39CD32196E4E00C94B24A18
:10390000EF92FF920F93CF93DF93082F8A3008F046
:1039100008E0C02FD0E083E0CC0FDD1F8A95E1F7EF
:10392000C55ADE4F8BE290E07C010894E11CF11C4B
:10393000FE01649178D42196C70183339105A1F7E4
:103940000550053010F067E101C061E184E290E0CC
:103950006AD4DF91CF910F91FF90EF900895CF93AC
:10396000DF9382E090E0EC012196FE01E855FE4FE6
:10397000E4916E2F58D4CB32D10511F0CE01F3CFA4
:1039800087E390E0EC012196FE01E456FE4FE491BE
:103990006E2F49D4C036D10511F0CE01F3CF88E0A7
:1039A000AFDFDF91CF9108950F931F93CF93DF93F4
:1039B0008C01ED98699A719A8EE190E0F0D171983E
:1039C0008EE190E0ECD1719A8DE290E0E8D180E355
:1039D00027DF84E690E0E3D1719880E48EBD0DB4DA
:1039E00007FEFDCF8EB5C0E0D0E0C8018C0F9D1F53
:1039F000B6D38EBD0DB407FEFDCF8EB52196C9326C
:103A0000D10599F7719A71988EE78EBD0DB407FEB6
:103A1000FDCF8EB58BE290E0EC012196A0D38EBD58
:103A20000DB407FEFDCF8EB5C333D10511F0CE0125
:103A3000F3CF719A83E3F4DE81E0B6D1DF91CF91C9
:103A40001F910F91089582E090E0AEDF81E08093B6
:103A500076040895A1E0B0E0E0E3FDE10C94984A1B
:103A600022E029830196BE016F5F7F4F41E00E94F3
:103A70001028898145DF82E090E096DF2196E2E020
:103A80000C94B44A80918A05843009F069C080930F
:103A9000E90080914801882351F58091E80085FD77
:103AA00006C025C06091F10080EF94E09ED4809123
:103AB000F2009091F300892BA9F78091E800982FEC
:103AC0009B7F9093E8008F778093E80081E080935C
:103AD000480182E49DE19093710480937004E09129
:103AE0007404F091750481E009951092480183E017
:103AF0008093E9008091AF04882391F18091E800E0
:103B000085FF2EC0F89405C08DEA94E086D480939A
:103B1000F1008091AF04882339F08091F2009091F8
:103B2000F3008034910580F378948091F2009091B5
:103B3000F3002091E800322F3E7F3093E8002F778A
:103B40002093E8008034910559F40E941D4880912B
:103B5000E800982F9E7F9093E8008F778093E8008D
:103B6000089590918B0580918C05813229F08232E5
:103B700061F1803299F512C0913A81F58091E800A7
:103B8000877F8093E80080E091E067E070E00E942A
:103B900048488091E800982F9B7F11C09132F1F442
:103BA0008091E800877F8093E80080E091E067E003
:103BB00070E00E94EA488091E800982F9E7F9093E1
:103BC000E8008F778093E8000895913239F480916E
:103BD000E800877F8093E8000C94F447089582E022
:103BE00061EC42E00E94CA4783E061E842E30E9440
:103BF000CA4784E060E842E30E94CA47109200018D
:103C000010920101109202011092030108951F9277
:103C10000F920FB60F9211248F939F93AF93BF9380
:103C20008091780490917904A0917A04B0917B04FA
:103C30000196A11DB11D8093780490937904A093FF
:103C40007A04B0937B04809177048F5F809377042C
:103C5000809177048D3710F0109277048091990449
:103C600090919A04009729F0019790939A04809379
:103C700099048091AC048F3F19F081508093AC047B
:103C8000BF91AF919F918F910F900FBE0F901F909A
:103C900018958091780490917904A0917A04B0915C
:103CA0007B0420914A01281709F46BC080917804A5
:103CB00090917904A0917A04B0917B0480934A0199
:103CC000A8958091990490919A04892B11F40E94EF
:103CD000D0328091AC04882311F40E94B7328091D5
:103CE0008205882339F0815080938205882311F45E
:103CF0000E945F4580917704882309F042C080913B
:103D0000070181FF04C088B191E0892788B98091BB
:103D100092049091930423E08438920728F401964A
:103D20009093930480939204809134058F3F19F00F
:103D30008F5F8093340590913B05992371F08091BA
:103D40003405891751F480918A05843021F480E08C
:103D50000E948B3902C00E94A53F809149018F5F6C
:103D6000809349018C3369F4109249018091960443
:103D70008F5F809396048C3310F0109296040C940D
:103D8000493E089580917B04A5D180917A04A2D107
:103D9000809179049FD1809178049CD149C1880F8A
:103DA000991F0197F1F7089520ED37E004C0F9015C
:103DB0003197F1F781508823D1F70895CF93DF939E
:103DC000AC01DC0113968C911397843509F063C024
:103DD0009C912DE001C02F5F291730F4FA01E20F0A
:103DE000F11D83818B33B9F730E0E92FF0E0CF018B
:103DF0000F972817390709F04EC03E979A012E0FEA
:103E00003F1F3E96D90113968C91843509F043C02B
:103E10003B97EA01CE0FDF1F3B96DA0114969C9187
:103E2000149789819817B9F515969C9115978A81F1
:103E3000981789F516969C9116978B81981759F5C6
:103E400017969C918C81981731F57197E40FF51FA7
:103E50008D818383F90131968E81D90111968C93DE
:103E6000DF01119689858183FD0131968A8511963E
:103E70008C93DF0111968B8581838C8511968C93B1
:103E800011978D8512968C93FA0180818A508083D8
:103E900082818A508283DF91CF910895A2E0B0E0C1
:103EA000E4E5FFE10C94974A182F80918A0584304D
:103EB00081F480914C0180FF0CC08091AF0480346C
:103EC00008F0E0DD8DEA94E0612F8FD21A3009F41A
:103ED000D9DD809185058823C9F080914C0183FF4D
:103EE00015C01A3099F01D3011F46BE301C0612F39
:103EF0008FE395E07AD21D3019F48FE395E05EDF11
:103F000083E08093820582E08093840580914C0158
:103F100081FF6AC01D3009F487C0809170011A309A
:103F2000C1F4E82FF0E0EF58FE4F108210927001BC
:103F300080916F01882329F081E791E00E94BF34CE
:103F400005C080E061E771E00E94B43610926F0115
:103F500028C08D3040F4E82FF0E0EF58FE4F10837A
:103F60008F5F8093700180916F018823D1F08F5F04
:103F700080936F0181508230A1F460917001625092
:103F80006093700170E06F587E4FCB0141E00E945A
:103F90001028809170018F5F8093700181E0809381
:103FA0006F0180916F018823F9F480917001853051
:103FB000D9F4809171018634B9F482E791E0BE01B1
:103FC0006F5F7F4F42E00E94102899818091950495
:103FD000981751F49A818091AB04981729F481E0E5
:103FE00080936F011092700180914B018823E1F062
:103FF0001D30D1F080914D011A3061F4E82FF0E0CE
:10400000E25BFE4F108210924D018EE491E00E941F
:104010000F410AC0803240F4E82FF0E0E25BFE4F2F
:1040200010838F5F80934D012296E3E00C94B34A96
:104030008DE034DF8AE032CFCF93DF93EC0102C012
:104040002DDF2196FE0184918823D1F7DF91CF9156
:104050000895CF93DF93EC0102C021961FDF888182
:104060008823D9F7DF91CF910895A5E0B0E0EBE385
:10407000F0E20C94984A1D8234E0DE011196282F5C
:104080002F7031502A3010F4205D01C0295CFD01F1
:10409000E30FF11D208324E0969587952A95E1F79B
:1040A0006150009761F706C03150FC01E30FF11D2C
:1040B000408302C0CE010196615067FD02C03323E8
:1040C00099F7CE010196830F911DC3DF2596E2E09B
:1040D0000C94B44A90E062E040E3C7CFA6E0B0E0C1
:1040E000E4E7F0E20C94944A9C01162F042F1E8200
:1040F00045E07E010894E11CF11C4150F701E40FFA
:10410000F11DC9016AE070E00E94614A805D808310
:10411000C9016AE070E00E94614A9B01115061157B
:10412000710549F0442349F706C04150FC01E40FF2
:10413000F11D008302C0CE010196115017FD02C08F
:10414000442399F7CE010196840F911D82DF2696B4
:10415000E6E00C94B04A85E092E06EDF69CF0C9403
:10416000F74A08951F93CF93DF93EC01162F09C0F0
:104170001150CE01F4DFAEDF112311F08AE38EDEA1
:1041800021961123A9F7DF91CF911F910895EF9206
:10419000FF921F93DF93CF9300D0CDB7DEB7FC0122
:1041A00081818D3421F48AEF9FE066E005C080357F
:1041B00029F48AED9FE060E1D5DF2CC01A821982D4
:1041C000CF010196BE016F5F7F4F42E029D7298161
:1041D000823041F4922F80E02A81E22EFF24E82AE7
:1041E000F92A02C0E22EFF24C701B9DF182F82E5A9
:1041F00055DEC70164E040E338DF84E192E01CDF74
:10420000812F68DF80E192E017DF812F90E062E08C
:1042100040E264DF0DDF0F900F90CF91DF911F918F
:10422000FF90EF9008950E94FF4AF999FECF0895FC
:10423000A1E0B0E0EEE1F1E20C94984A1982009717
:1042400031F00196BE016F5F7F4F41E0E9D6898171
:10425000882321F083E390E061E0E5DF0E94694973
:104260008CE794E0ACD110926E00F89428E088E1DD
:1042700090E00FB6F894A895809360000FBE20934D
:104280006000FFCF019667E071E041E0C9D6609120
:10429000070160FF02C0409801C0409A84E390E0AB
:1042A000C2CF0F931F938C0180E090E061E0BBDFF1
:1042B00081E090E06BE3B7DF52DB80E690E060E006
:1042C000B2DF81E690E060E0AEDF83E390E060E0A3
:1042D000AADF84E390E062E0A6DF80E690E060E49D
:1042E000A2DF81E690E060E89EDF82E690E06EE18A
:1042F0009ADF83E690E060E096DF80E690E060E0A1
:1043000092DF81E690E060E08EDFF80181818837FE
:1043100019F080E090E08CDF1F910F91089580E00C
:1043200090E01DDF813029F481E090E018DF8B33CD
:1043300019F080E090E0B5DF84E390E010DF809337
:10434000070182E690E00BDF80933B050895A6E02D
:10435000B0E0EDEAF1E20C94924A6C010196BE01E4
:104360006F5F7F4F43E05CD6082F8230A8F1298130
:10437000823019F4E22EFF2407C0922F80E02A81B8
:10438000E22EFF24E82AF92A10E0FE01E00FF11FD7
:10439000C701608148DF000F111F0F5F1F4F0C0D19
:1043A0001D1D0894E11CF11C6E010894C11CD11C58
:1043B0000FC0C801B60141E033D6892B69F0C701AF
:1043C000698131DF0E5F1F4F82E090E0E80EF91E39
:1043D000F8018081882369F72696E8E00C94AE4ABC
:1043E000FC011282108211820895DC019FB7F894BB
:1043F00012968C911297803470F48F5F12968C9382
:1044000012978C91FD01E80FF11D63838F5F8C93F0
:10441000803409F41C929FBF0895DC012FB7F894F3
:1044200012968C911297882319F42FBF90E014C034
:10443000815012968C93129711968C911197FD01D1
:10444000E80FF11D93818F5F11968C931197803443
:1044500011F411961C922FBF892F0895E4E6F0E025
:1044600080818B7F8083299A84B1876084B9239867
:1044700080E58CBD8DB581608DBD08958EBD0DB478
:1044800007FEFDCF8EB50895269A08952E9887EDE4
:10449000F5DF80E0F3DF87FFFCCF2E9A08950F93BE
:1044A0001F938A012E98662311F483E801C086E8E1
:1044B000E5DF000F111F000F111F812FDFDF802F9D
:1044C000DDDF80E0DBDF2E9A1F910F910895A0E0E1
:1044D000B0E0EDE6F2E20C94924AD42EC52E7901BA
:1044E0002E98662311F484E801C087E8C7DF80E0D6
:1044F000C5DF8F2DC3DF8E2DC1DF8D2D9C2D9C013F
:10450000E90104C08991BADF01501040011511057D
:10451000C9F72E9ACDB7DEB7E8E00C94AE4AA0E01A
:10452000B0E0E5E9F2E20C94924AD42EC52E79016E
:104530002E98662311F481ED01C083ED9FDF80E0AA
:104540009DDF8F2D9BDF8E2D99DF8D2D9C2D9C0166
:10455000E90105C080E092DF899301501040011508
:104560001105C1F72E9ACDB7DEB7E8E00C94AE4A3C
:104570000F931F938A012E98662311F483E501C0DF
:1045800085E57CDF000F111F000F111F812F76DFE3
:10459000802F74DF80E072DF2E9A1F910F910895B3
:1045A0009C013695322F2227379527952F5F3F4F55
:1045B000872F869590E0280F391FC9010895CF9362
:1045C000DF93EC018C8180FF0CC04A815B81888184
:1045D000998160E064DF8C818E7F8C8388819981F2
:1045E00055DF8C8181FF0CC08881998161E040E0BA
:1045F00050E055DF8C818D7F8C838881998146DFE7
:1046000080E0DF91CF9108950F931F93CF93DF93B5
:10461000EC019B018D8190E08617970779F06D83FF
:10462000AE014A5F5F4F94E0220F331F9A95E1F786
:104630008881998161E000E110E071DF8E819F81C6
:10464000BC0180E090E0DF91CF911F910F91089520
:10465000FF920F931F93CF93DF93EC018B01F42E06
:104660004A815B8146175707C9F08C8180FF0AC0D9
:104670008881998160E013DF8C818E7F8C838881B3
:10468000998104DF1B830A83FF2041F0888199818F
:1046900060E0A8016DDF88819981F8DECDB7DEB7D3
:1046A000E5E00C94B14AA0E0B0E0E9E5F3E20C9457
:1046B000884A5C014B011A01D701C601800F911F86
:1046C000A21FB31F803040E0940741E0A40740E000
:1046D000B4070CF084C06F31710531F480509E4FE7
:1046E000A040B0400CF07BC038012601F501858167
:1046F00090E08815990581F08582A5014A5F5F4F9A
:10470000940174E0220F331F7A95E1F78081918143
:1047100061E000E110E003DFF501C681D781C2014D
:10472000860D971DC817D907A8F497838683A5011E
:104730004A5F5F4F940164E0220F331F6A95E1F7EF
:104740008081918161E002E010E0C1DEF5018481A9
:1047500082608483C401BE0123DF6C01D170CD2B44
:1047600019F00894C11CD11CC401B30119DF4C011C
:1047700083011170EE24FF24612C22E0722E2AC0E6
:1047800040E08C149D0408F441E0C501B40160DFF1
:10479000C201800F911F8150924010F4E20103C0CA
:1047A000E301C01BD10BA1014E0D5F1DF5018081FE
:1047B000918160E098018E018ADEF501848181603B
:1047C00084834C1A5D0AEC0EFD1E0894811C911C1A
:1047D00000E010E04114510499F680E001C082E04D
:1047E000CDB7DEB7E2E10C94A44AA0E0B0E0EBEF75
:1047F000F3E20C94884A5C014B011A01260137014F
:10480000E801FC01858190E08617970781F06583B8
:10481000A5014A5F5F4F9B01A4E0220F331FAA95B9
:10482000E1F78081918161E000E110E078DEF5013F
:10483000268137812C173D0720F4CC24DD24760116
:1048400041C07201C2018C0F9D1F2817390710F05B
:10485000320104C07901EC1AFD0A3701C401BE011E
:104860009FDE6C018E01117088249924412CE2E0B6
:104870005E2E22C0C501B60141E0EADEC701800F0D
:10488000911F8150924010F4E70103C0E201C01B68
:10489000D10BA101480D591DF5018081918160E086
:1048A00098018E013CDEEC1AFD0A8C0E9D1E0894C8
:1048B000C11CD11C00E010E0E114F104D9F6630141
:1048C000EE24FF24B601C701CDB7DEB7E2E10C94B8
:1048D000A44AA0E0B0E0EFE6F4E20C948E4AEC01CA
:1048E0004B0188E0C82ED12CCC0EDD1EC6014EE057
:1048F00050E00E94DA4A009711F48D811AC01D829F
:10490000B6E0AB2EB12CAC0EBD1EEE24FF24888188
:10491000998161E0A501970100E110E000DEC60188
:10492000B4014EE050E00E94DA4A9C018D81232BB5
:1049300019F4282F30E00DC08F5F8D8380E190E067
:10494000E80EF91E90E0E91692E0F90601F72FEF64
:104950003FEFC901CDB7DEB7ECE00C94AA4AA0E066
:10496000B0E0E5EBF4E20C948E4AEC015A016901E7
:104970001D8296E0892E912C8C0E9D1EEE24FF2424
:104980008881998161E0A401970100E110E0C7DD11
:104990008885882389F0C114D10459F42896C5016B
:1049A000BE014EE050E00E94E84AF501168680E024
:1049B00010C00894C108D1088D818F5F8D8380E17C
:1049C00090E0E80EF91E90E0E91692E0F906C1F6D3
:1049D00082E0CDB7DEB7ECE00C94AA4AEF92FF92EA
:1049E0000F931F93CF93DF93EC017B018A01FA01B0
:1049F0008081882319F0CE01BA0128D0CE01B701F9
:104A000068DF8F5F9F4F11F481E01BC0CE010896D5
:104A1000B8014EE050E00E94E84AAE014A5F5F4FA5
:104A20002D8130E064E0220F331F6A95E1F7888121
:104A3000998161E000E110E04ADD8C8182608C8325
:104A400080E0CDB7DEB7E6E00C94B04A48E051E034
:104A5000C5CFA0E0B0E0EFE2F5E20C94904AEC01A3
:104A60005B011D8276E0C72ED12CC80ED91EEE2424
:104A7000FF248881998161E0A601970100E110E09F
:104A80004EDD88858823A1F41F821E82CE01089600
:104A9000B5014EE050E00E94E84A8881998161E0CA
:104AA000A601970114DD8C8182608C8380E00DC0AB
:104AB0008D818F5F8D8380E190E0E80EF91E90E09C
:104AC000E91692E0F906A9F682E0CDB7DEB7EAE092
:104AD0000C94AC4AA0E0B0E0E0E7F5E20C94924A16
:104AE000EC01CB01F42E798368832FEF3FEF3B83FA
:104AF0002A831C822FEF2D8361E040E050E038DDF7
:104B000088819981C3DCE6E0CE2ED12CCC0EDD1E4F
:104B10008881998161E0A60120E032E000E110E0A7
:104B2000FEDC8E819F81049761F4CE01089669E0D6
:104B300071E044E050E00E94DA4A009711F4FF204F
:104B400059F184E090E09F838E83CE01089669E05E
:104B500071E04EE050E00E94E84A8881998161E06E
:104B6000A60120E032E000E110E0B1DC1886EE247E
:104B7000FF248881998161E0A601970100E110E09E
:104B8000A6DCE00EF11E80E0E81682E0F80689F768
:104B900082E08C83CE0113DD80E0CDB7DEB7E8E0A4
:104BA0000C94AE4AA4E0B0E0E8EDF5E20C94934A30
:104BB0007C01D0904B018C010F5F1F4FC8016EE04C
:104BC00071E00E94CA4A009749F460917C04709198
:104BD0007D048CE794E041E07DDFC2C0C801BE01E6
:104BE0006F5F7F4F44E01CD26981049731F060937E
:104BF0004B0183E690E017DBB3C0262F30E040E0A6
:104C000050E0522F4427332722278A8190E0A0E0EA
:104C1000B0E0DC0199278827282B392B4A2B5B2B06
:104C20008C8190E0A0E0B0E0282B392B4A2B5B2B45
:104C30009B8180E0A0E0B0E0282B392B4A2B5B2B36
:104C400020937F0130938001409381015093820132
:104C50008701075F1F4F8CE794E0B801F7DEF82E5D
:104C600080917F0190918001A0918101B09182019A
:104C70008F5F9F4FAF4FBF4F21F48CE794E09FDCD5
:104C800040C08CE794E0B801E4DEF82E8823C9F533
:104C900080917F0190918001A0918101B09182016A
:104CA0000097A105B10569F1C80165E171E00E94B5
:104CB000CA4A10928B01009719F481E080938B010E
:104CC0008CE794E0B80105DE90938801809387011A
:104CD0001092830110928401109285011092860136
:104CE000809174049091750490938A018093890156
:104CF00084EB96E2909375048093740480EF94E0C3
:104D00006FDB10924B01FF2021F580917F01909184
:104D10008001A0918101B09182010097A105B105A8
:104D200011F00E94181C80917F0190918001A09148
:104D30008101B0918201CD01AA27BB2764E040E345
:104D400094D980917F019091800164E040E38DD9F6
:104D500004C088E5A3D88F2DBDD96AD9D0924B0164
:104D60002496E7E00C94AF4A7F928F929F92AF9285
:104D7000BF92CF92DF92EF92FF920F931F9380909A
:104D8000F20470904C0180934C019924AA24BB2416
:104D900060918701709188010091830110918401D5
:104DA00020918501309186018CE794E043EF54E037
:104DB0007501640178DC2091830130918401409178
:104DC000850150918601280D391D4A1D5B1D80917A
:104DD0007F0190918001A0918101B09182012817FB
:104DE00039074A075B07B9F48091890190918A01DC
:104DF00090937504809374048CE794E0E0DB8091D9
:104E00008B01882329F00E949D3D80E00E94433B56
:104E10000E94313108C02093830130938401409374
:104E200085015093860180EF94E0DADA70924C01AC
:104E30001F910F91FF90EF90DF90CF90BF90AF90B8
:104E40009F908F907F900895AFE0B0E0EAE2F7E2A4
:104E50000C94914AFC01B0904B0110924B01BC01A3
:104E60006F5F7F4F8181882399F18E3209F040C0B6
:104E70008281882369F13CC0C801EBD88FE20ED84B
:104E80008CE794E0B80125DDBC0190938801809304
:104E900087018CE794E0B8DBDC01CB0180937F01D4
:104EA00090938001A0938101B0938201CD01AA2744
:104EB000BB2764E040E3D9D880917F0190918001C5
:104EC00064E040E3D2D880E20E944E1FF39404C015
:104ED000FF248E010F5F1F4F8CE794E060E070E0CD
:104EE000A8012F2D30E03BDD882309F4C5CF0FC08A
:104EF0008CE794E0EEDCBC019093880180938701FD
:104F00008FEF6F3F780729F488E50E944E1F90D8F5
:104F100081C08CE794E078DBDC01CB0180937F01DA
:104F200090938001A0938101B0938201CD01AA27C3
:104F3000BB2764E040E399D880917F019091800184
:104F400064E040E392D874D8E0917004F091710469
:104F5000099510928301109284011092850110929C
:104F600086010E94181C3BC0C01AD10AE20AF30A4B
:104F700081E4C816D104E104F1042CF0E0E4CE2E63
:104F8000D12CE12CF12CC092AF041092AE046091B0
:104F9000870170918801DD24EE24FF248CE794E0E2
:104FA00040EB54E022DC2091AF048091830190918A
:104FB0008401A0918501B0918601820F911DA11DF0
:104FC000B11D8093830190938401A0938501B093D8
:104FD0008601E0917004F09171040995A895009103
:104FE0008301109184012091850130918601C09048
:104FF0007F01D0908001E0908101F09082010C153A
:105000001D052E053F050CF4AFCF8DEA94E0E8D9DD
:105010000E943131B0924B012F96E9E00C94AD4AD9
:10502000DC01FB0123C0822F80538A3010F050E056
:1050300002C0382B51E0822F8154863020F4275350
:10504000322B295C51E0822F8156863018F4275587
:10505000322B07C0552329F4203271F02A3361F036
:105060000EC0992331F03193415049F030E090E087
:1050700003C03295307F91E02D912223A1F6CF011C
:10508000861B970B0895FB01982F92959F709A307D
:1050900010F4905D01C0995C90838F708A3010F499
:1050A000805D01C0895C81830895CF93DF93DB012C
:1050B000EA01322F4881882369F0FB01E40FF11DDA
:1050C00081E090E002C0880F991F2A95E2F72081C5
:1050D000282B2083332319F0832F815009C0842F7C
:1050E0008F5F8C3008F48883A80FB11D1C9287E075
:1050F00090E0DF91CF9108951F93182F709A882325
:1051000019F080918E0102C080918C0190E034E012
:10511000880F991F3A95E1F70E94CF1E70981123CE
:1051200019F080918F0102C080918D0190E024E000
:10513000880F991F2A95E1F70E94CF1E1F910895AD
:10514000A0E0B0E0E6EAF8E20C948B4A4C01562E5F
:10515000D42E122FC02E209192043091930482E01D
:10516000D80ED09E802D11249EEFD90E992787FD51
:1051700090952817390728F488E192E00E941C20B6
:1051800062C0281B390B30939304209392044098FB
:1051900080917604882311F40E94231D0E94371CFD
:1051A00041E0642E712CA12EBB2410E003C080E0EE
:1051B000A3DF1F5F1515D9F7552011F081E09CDFA3
:1051C0008401FF2415C0C7E0D0E093010C2E02C07B
:1051D000220F331F0A94E2F7F801808182238CDFCB
:1051E0002197FFEFCF3FDF0781F7F3940F5F1F4F4A
:1051F000FD1449F7C7E0D0E00D2D112707FD1095EC
:10520000080D191D0CC093010C2E02C0220F331F74
:105210000A94E2F7F801808182236EDF2197AC16B1
:10522000BD068CF38E2D0E94D41ECA9409F0BDCF0A
:1052300080919404882319F00E942B1C03C086E3FC
:105240000E94101C409ACDB7DEB7EFE00C94A74A3D
:10525000EF920F93DF93CF93CDB7DEB760970FB682
:10526000F894DEBF0FBECDBF0196BE016F5F7F4FCA
:1052700040E1D6DE69814A810B818C8180938C016B
:105280008D8180938D018E8180938E018F8180939B
:105290008F01242F2F70E02EE294EFE0EE22CE015A
:1052A000089642954F700F704BDF60960FB6F894DA
:1052B000DEBF0FBECDBFCF91DF910F91EF9008956C
:1052C000AEE0B0E0E6E6F9E20C94884A7C01162FE5
:1052D000842F2E87B701412F9AD0F701E10FF11DDE
:1052E0008083A12EA39419821A824701BB24E7E090
:1052F00061E0262E312C52E0452E512C4C0E5D1EC5
:105300003E010894611C711C2FC007E010E067018A
:10531000CB0CD11C9101002E02C0220F331F0A9426
:10532000E2F7D6018C918223B201A3012E2FBDDEBC
:10533000E82F01501040BFEF0F3F1B0759F7D40172
:105340008D914D01082E82958025082E8695869593
:10535000802590E00196959587958170B201A30113
:105360002E2FA3DEE82FB394BA1478F2EE2319F0AF
:105370002E2F215004C089818F5F898327E089E126
:1053800080938D0180938C0185E280938F018093BF
:105390008E01CE0102966CE049810E853AE0E32E43
:1053A000CFDE2E96E2E10C94A44AACE0B0E0EBED47
:1053B000F9E20C94944AF62EE42E01968E010F5FCA
:1053C0001F4FB8014BE02CDE682FC8014F2D2E2D4A
:1053D00077DF2C96E6E00C94B04A66E043E0E5CF38
:1053E000689A70986D98EAE6F0E080818460808326
:1053F00082EC91E090939304809392041092AC011C
:105400001092C8011092E401109276040895982F2A
:1054100006C04150FB01E40FF11D8081980F442329
:10542000C1F7892F0895DC019091180230E025E042
:1054300040E013C06150FD01E60FF11DE0818E2FA9
:1054400082958F703827280F992311F0442321F07B
:105450008E2F8F703827280F4F5F662359F7230F41
:105460002295207F822F832B0895A0E0B0E0EBE30C
:10547000FAE20C94924ADC01109218021092030294
:1054800097E013968C911397981B11961C91119786
:10549000110F110F110F190F10920402FF24EE24A7
:1054A00007E057E040E070E0E7E0CE2ED12CC1E00D
:1054B000D0E07FC0FD01EE0DF11D848190E0002E53
:1054C00002C0959587950A94E2F7282F2170002352
:1054D00011F0015002C0E39407E06B3469F45330DB
:1054E00059F47723B9F5222311F071E062C040939B
:1054F0000302109218021EC05F3F69F56634E1F4A2
:10550000E42FF0E0EC5FFD4F8081082E829580252E
:10551000082E86958695802590E00196959587952D
:105520008170907030E08217930761F0409303021E
:105530007093180280E057C0653411F06B3411F499
:105540002223A1F34F5FE42FF0E0EC5FFD4F1082C8
:1055500057E02FC070E0222359F1663479F4E42F2C
:10556000F0E0EC5FFD4F9E01052E02C0220F331FBD
:105570000A94E2F78081822B80831AC0653411F08F
:105580006B34B1F4E42FF0E0EC5FFD4F852F9927E9
:1055900087FD90959601281B390BC9019E0102C019
:1055A000220F331F8A95E2F7C9012081282B20831F
:1055B0005150F3948F2D8150811708F47BCF409385
:1055C0000302709318021F1508F0B4CF653411F46C
:1055D0005F3F11F0772319F04F5F409303028091F2
:1055E0000302811181E0CDB7DEB7E8E00C94AE4A4A
:1055F000DC0112968C911297ED91FC911197E80FB6
:10560000F11DE08113962C911397215013962C9342
:1056100013972F5F39F48F5F12968C93129787E060
:1056200013968C938E2F90E002C0959587952A95BE
:10563000E2F781700895A0E0B0E0E1E2FBE20C94B3
:105640008E4A6C01962E842EFF24C0E0D0E0F1E05B
:10565000AF2EB12C062F10E00150104019C0C6012A
:10566000C7DF8823A1F0882059F0C8018C1B9D0B4F
:10567000950102C0220F331F8A95E2F7C90106C0C7
:10568000C50102C0880F991FEA94E2F7F82A219613
:10569000EC2EC91520F38F2DCDB7DEB7ECE00C94BE
:1056A000AA4AA4E0B0E0E7E5FBE20C94904AFC01D2
:1056B00087E08C833496FA83E9833497109203024F
:1056C000818190E023E0880F991F2A95E1F72381DB
:1056D000821B9109CE970CF45AC01B82CC24DD2486
:1056E0005E010894A11CB11C2EC0ED2CFF24C50145
:1056F00068E040E0A0DF082F84E092E0E80EF91EA9
:10570000F7010083002E02950025002E06950695D0
:105710000025C5016DDF10E00F5F1F4F1595079540
:105720000170107090E00817190731F4C50160DFAF
:105730009D2D9F5F882319F0D092030228C0F701A6
:105740008081C826D92EF5E0FD1578F6D0920302A7
:10575000C50168E040E06FDFF82E082F002E0295AB
:105760000025002E069506950025C50141DF10E0B5
:105770000F5F1F4F159507950170107090E0081787
:10578000190729F480E0CF1419F481E001C080E00A
:105790002496EAE00C94AC4AA4E0B0E0E2EDFBE22F
:1057A0000C94904AFC011B8287E08C833496FA8328
:1057B000E9833497109203028081853009F053C049
:1057C000818190E043E0880F991F4A95E1F723819A
:1057D000821B91098938910509F045C019E83FE01D
:1057E000C32E30EFD32E80E05E010894A11CB11CC3
:1057F00010C0C50168E041E01EDFC80ED11C24E0E6
:1058000032E0E20EF31E1827F7011083182F1C5DFB
:10581000802FE82EFF24082F0F5F8F3050F3C50133
:1058200068E041E008DF182F24E032E0E20EF31ECA
:105830008095F701808300930302C50168E041E091
:10584000FADE082FC10ED11CC50168E041E0F3DE8D
:1058500040E0302F20E0C21AD30A90E0C816D906E3
:1058600019F441E001C040E0842F2496EAE00C9452
:10587000AC4AEF92FF921F93DF93CF9300D000D0FA
:10588000CDB7DEB7FC013496FA83E9833497818182
:105890008430B9F587E08C838381813091F51B8258
:1058A00010E07E010894E11CF11C12C0112331F4B8
:1058B000C70167E041E0BFDE806804C0C70168E05F
:1058C00041E0B9DEE12FF0E0EC5FFD4F80831F5F28
:1058D000143060F3CE01019667E041E0ACDEE12FC9
:1058E000F0E0EC5FFD4F880F80831F5F1093030291
:1058F00090E08091040282958F708A3019F491E0D3
:1059000001C090E0892F0F900F900F900F90CF91D2
:10591000DF911F91FF90EF900895FC018181A82FE6
:10592000B0E050E0E081CD01841B950B0B964797CA
:10593000D8F48E2F90E070E09C01261B370B2C30A2
:10594000310594F4255F3F4F7CF08A0F9B1F861B27
:10595000970B841B950B8C30910534F420E0855F08
:105960009F4F1CF021E001C020E0822F0895282FD6
:1059700030E0C901880F991F820F931F860F911D78
:1059800095958795959587950895DC0111968C914D
:105990001197843190F010926F008091000290E096
:1059A0002CE130E0829FF001839FF00D929FF00D7B
:1059B0001124E057FE4F10820895662381F0FD0107
:1059C000E80FF11D81E090E013960C90139702C050
:1059D000880F991F0A94E2F72481282B24831396B9
:1059E0008C911397815013968C9313978F5F79F452
:1059F00087E013968C93139711968C9111978F5F74
:105A000011968C931197A80FB11D14961C920895AE
:105A1000282F8552873160F46A3050F0673240F4A5
:105A200090E0621708F091E081E09827892F0895AF
:105A300080E090E008951F920F920FB60F920BB680
:105A40000F921124EF92FF920F931F932F933F9386
:105A50004F935F936F937F938F939F93AF93BF9376
:105A6000CF93DF93EF93FF9380913C05882321F040
:105A700082E080933C05F0C080918305823021F460
:105A800083E080938305E8C0809184009091850035
:105A9000E4E096958795EA95E1F7182FE0900002EB
:105AA0008CE1E89EE0011124C057DE4F98819430CC
:105AB00031F41E3208F4D0C01F3448F0BDC0953018
:105AC00031F4173108F4C8C0183208F0B5C0892F76
:105AD000845065990CC0823038F4CE0161E055DF06
