:100000000C94E3240C9401250C9401250C940125F7
:100010000C9401250C9401250C94B8310C94524099
:100020000C945C400C9401250C94E2430C94012543
:100030000C9401250C9401250C9401250C940125A8
:100040000C9401250C94C7320C9401250C940125C5
:100050000C9401250C9490270C9401250C940125F7
:100060000C9401250C9401250C9401250C94012578
:100070000C9401250C9401250C9401250C94012568
:100080000C9401250C9401250C9401250C94012558
:100090000C9401250C9401251201100102000008A6
:1000A000EB034B20000001020001090243000201A2
:1000B00000C0320904000001020201000524000111
:1000C000100524010301042402060524060001078B
:1000D0000582030800FF09040100020A000000076E
:1000E0000504022000000705830220000004030924
:1000F00004180362007500730077006100720065E8
:10010000002E006400650000002A034300550052E1
:100110000000000032383F3F3F3F3F0D2E2D07D3F8
:10012000913D0432000006002165E855E43023B912
:1001300000073018146C070091876BF85617E92AEE
:10014000001F4100202F2000203D20307800435523
:1001500052005620312E3037202A2048573A2000AE
:10016000202F2000203D20307800424F56460D0AB7
:10017000004C4F56460D0A00FFFFFFFFFFFFFFFF39
:10018000FFFFFFFFFFFFFFFFFFFFFFFFFFFFFFFF7F
:10019000FFFFFFFFFFFFFFFFFB05FFFFFFFFFFFF6D
:1001A000FFFFFFFFFFFFFFFFFFFFFFFFFFFFFFFF5F
:1001B000FFFFFFFFFFFFFFFFFFFFFFFFFFFFFFFF4F
:1001C000FFFFFFFFFFFFFFFFFFFFFFFFFFFFFFFF3F
:1001D000FFFFFFFFFFFFFFFFFFFFFFFFFFFFFFFF2F
:1001E000FFFFFFFFFFFFFFFFFFFFFFFFFFFFFFFF1F
:1001F000FFFFFFFFFFFFFFFFFFFFFFFFFFFFFFFF0F
:10020000FFFFFFFFFFFFFFFFFFFFFFFFFFFFFFFFFE
:10021000FFFFFFFFFFFFFFFFFFFFFFFFFFFFFFFFEE
:10022000FFFFFFFFFFFFFFFFFFFFFFFFFFFFFFFFDE
:10023000FFFFFFFFFFFFFFFFFFFFFFFFFFFFFFFFCE
:10024000FFFFFFFFFFFFFFFFFFFFFFFFFFFFFFFFBE
:10025000FFFFFFFFFFFFFFFFFFFFFFFFFFFFFFFFAE
:10026000FFFFFFFFFFFFFFFFFFFFFFFFFFFFFFFF9E
:10027000FFFFFFFFFFFFFFFFFFFFFFFFFFFFFFFF8E
:10028000FFFFFFFFFFFFFFFFFFFFFFFFFFFFFFFF7E
:10029000FFFFFFFFFFFFFFFFFFFFFFFFFFFFFFFF6E
:1002A000FFFFFFFFFFFFFFFFFFFFFFFFFFFFFFFF5E
:1002B000FFFFFFFF70AFFFFFFFFFFFFFFFFFFFFF2D
:1002C000FFFFFFFFFFFFFFFFFFFFFFFFFFFFFFFF3E
:1002D000FFFFFFFFFFFFFFFFFFFFFFFFFFFFFFFF2E
:1002E000FFFF00FFFFFFFF00FFFFFFFFFFFFFFFF1C
:1002F000FFFFFFFFFFFFFFFFFFFFFFFFFFFFFFFF0E
:10030000FFFFFFFFFFFFFFFFFFFFFFFFFFFFFFFFFD
:10031000FFFFFFFFFFFFFFFFFFFFFFFFFFFFFFFFED
:10032000FFFFFFFFFFFFFFFFFFFFFFFFFFFFFFFFDD
:10033000FFFFFFFFFFFFFFFFFFFFFFFFFFFFFFFFCD
:10034000FFFFFFFFFFFFFFFFFFFFFFFFFFFFFFFFBD
:1003500000FFFFFF00FF00FFFFFD04F40EFFFF0F93
:10036000FFFFE403EFFFFFFFE71029FFFFFFE14F6F
:10037000FFFFFFE02FFFFF40EFFFFFFFFF0FFFFF3B
:10038000FFFFFFFFFFFFFFFFFFFFFFFFFFFFFFFF7D
:10039000FFFFFFFFFFFFFFD02FFFE4003DFFFFC483
:1003A00000FFFFFC61004AFFFC61003AFFFFFFF322
:1003B00000FFF0000000FFFFF71029FFF000000031
:1003C0000FFFA30039FFFFB3004DFFFFFFFFFFFF4B
:1003D000FFFFFFFFFFFFFFFFFFFFFFFFFFFFFFFF2D
:1003E000FFFFFFFFFB51016EFFFFFFFFFFFFFFFC61
:1003F00000AFFFF0000028FFFFFA40039FF000135A
:100400009FFFF00000000FF00000000FFFFA300324
:10041000AFF00FFFF00FFF000000FFFFFF00000F25
:10042000F00FFF402FF00FFFFFFFF002FF200FF053
:1004300003FFF00FFFE4004DFFF0000139FFFFE480
:10044000004DFFF0000038FFFFA2004BFFF000005E
:10045000000FF00FFFF00FF108FFA01F10FFFFFFCC
:1004600000F404FF602F502FFFF403F00000000F92
:10047000FFF0001FFFF40EFFFFFFFF3000FFFFFF44
:10048000E201EFFFFFFFFFFFFFFFF50EFFFFFFFFA2
:10049000FFFFFFF00FFFFFFFFFFFFFFFFFFFFFFF6B
:1004A000F00FFFFFFFFFFFFFFB2000FFFFFFFFFF3D
:1004B000FFF00FFFFFFFFFFF00FFFFFFFF00FFFF49
:1004C000F00FFFFFFFF0000FFFFFFFFFFFFFFFFF39
:1004D000FFFFFFFFFFFFFFFFFFFFFFFFFFFFFFFF2C
:1004E000FFFFFFFFFFFFFFFFFFFFFFFFFFFFFFFF1C
:1004F000FFFFFFFFFFFFFFFFFFFFFFFFFFFFFFFF0C
:10050000FFFFFFFFFFFFFFFFFFFFFFFFFFFFFFFFFB
:10051000FFFFB200FFFFFF00FFFFFF002AFFFFFF0A
:10052000FFFFFFFFFFFF00FFFFFF00FF00FFFFFADD
:1005300009F01FFFFF0FFFFF37E92FFFFFFF5000FC
:1005400000FFFFFF52FFFFFFFF70BFFFFFC05FFF15
:10055000FFFFFF0FFFFFFFFFFFFFFFFFFFFFFFFF9B
:10056000FFFFFFFFFFFFFFFFFFFFFFFFFF50AFFE9B
:10057000100001EFFF0000FFFFF00000008FF0000F
:1005800000008FFFFF9000FFF0000000FFFF400021
:1005900000FFF00000000FF90000007FFB000000EA
:1005A000EFFFFFFFFFFFFFFFFFFFFFFFFFFFFFFF6B
:1005B000FFFFFFFFFFFFFFFFFFFFF0000004FFFF53
:1005C000D5103CFFFFF7005FFFF00000006FFF70E9
:1005D00000000FF0000004FFF00000000FF000002A
:1005E000000FFF7000000FF00FFFF00FFF00000082
:1005F000FFFFFF00000FF00FF800EFF00FFFFFFF0D
:10060000F000EE000FF000EFF00FFE100001EFF031
:100610000000007FFF100001EFF00000006FF90004
:100620000000FFF00000000FF00FFFF00FF504FFD7
:10063000703F30EFFFFE01FC00EE00BFD00AFFB0BC
:100640000DF00000000FFFF00FFFFFFC07FFFFFFA2
:10065000FFFF00FFFFFF40003EFFFFFFFFFFFFFF28
:10066000FF24FFFFFFFFFFFFFFF00FFFFFFFFFFF74
:10067000FFFFFFFFFFFFF00FFFFFFFFFFFFFF20095
:1006800000FFFFFFFFFFFFF00FFFFFFFFFFF00FF77
:10069000FFFFFF00FFFFF00FFFFFFFF0000FFFFF66
:1006A000FFFFFFFFFFFFFFFFFFFFFFFFFFFFFFFF5A
:1006B000FFFFFFFFFFFFFFFFFFFFFFFFFFFFFFFF4A
:1006C000FFFFFFFFF00FFFFFFFFFFFFFFFFFFFFF39
:1006D000FFFFFFFFFFFFFFFFFFFFFFFFFFFFFFFF2A
:1006E000FFFFFFFFFFFFFFFF20BFFFFFFF00FFFF38
:1006F000FFFC01FFFFFFFFFFFFFFFFFF00FFFFFF0A
:1007000000FF00FFFFF40ED06FFE50000FFF0FFF41
:100710000FFFFFFF00CFD5FFFFFFFFFFFFFFFE0131
:10072000FFFFFFF20EFFFFF57D0E74FFFFFFFFFFDF
:10073000FFFFFFFFFFFFFFFFFFFFFFFFFFFFFFFFC9
:10074000FFFFFE01FFF902DE207FFF3B00FFFFF30A
:100750009DFE701FF38DFE700FFFFD0200FFF00F76
:10076000FFFFFFFA01CFD5FFFFFFFF705FF107EE3C
:10077000801FF305EE706FFFFFFFFFFFFFFFFFFF1E
:10078000FFFFFFFFFFFFFFFFFFFFFFFFFFFFFFFF79
:10079000F3AEFB00FFFB000000DFFFF3001FFFF0E4
:1007A0000FFF900FFC009EFB5FF00FEA109FF00F11
:1007B000FFFFFFF00FFFFFFFFC009EFC5FF00FFF4D
:1007C000F00FFFFF00FFFFFFFFFFF00FF00FB00A79
:1007D000FFF00FFFFFFFF000BC000FF0008FF00FE5
:1007E000F902DE207FF00FFE801FF902EE308FF05D
:1007F0000FFE800FF109FEB4FFFFFF00FFFFF00FB7
:10080000FFF00FF902FF307F40BFFFFC03FF40689D
:1008100002FFF601FF204FFFFFFE004FFFF00FFF2A
:10082000FFFF31EFFFFFFFFF00FFFFF504E505FFCE
:10083000FFFFFFFFFFFFFFFFFFFFFFFFFFFFFFF0D7
:100840000FFFFFFFFFFFFFFFFFFFFFFFF00FFFFFA7
:10085000FFFFFFFFF00EFFFFFFFFFFFFFFF00FFFA7
:10086000FFFFFFFFFFFFFFFFFFFFFFFFF00FFFFF97
:10087000FFFFF00FFFFFFFFFFFFFFFFFFFFFFFFF87
:10088000FFFFFFFFFFFFFFFFFFFFFFFFFFFFFFFF78
:10089000FFFFFFFFFFFFFFFFFFFFF00FFFFFFFFF67
:1008A000FFFFFFFFFFFFFFFFFFFFFFFFFFFFFFFF58
:1008B000FFFFFFFFFFFFFFFFFFFFFFFFFFFF00FF47
:1008C000FFFFFF00FFFFFFFF00FFFFFFFFFFFFFF36
:1008D000FFFF00FFFFFF00FF00FFF000000000F53A
:1008E00000000FFF48F92FFFFFFF20BFFFFFFFFFB2
:1008F000FFFFFFFFFA06FFFFFFF808FFFFFE700093
:100900006DFFFFFF00FFFFFFFFFFFFFFFFFFFFFF88
:10091000FFFFFFFFFFFFFFFFF609FFF30BFFC02FF5
:10092000FFFF00FFFFFFFFFFF00FFFFFFFF00FFFD4
:10093000F40D00FFF00FFFFFFFF40AFFFFFFFFFFC2
:10094000FE00DFF00EFFF00FF00EFFF02FFFFFFFB5
:10095000FFFFFFFFFFFFFFFFFFFFF93FFFFFFFFF6D
:10096000FFF38EFFFFFFFFFFFE00FFE105EE504F9C
:10097000FFF0120EFFF00FFFF00FF506FFFFFFF084
:100980000FFFA03FF00FFFFFFFF00FFFFFFFF50786
:10099000FFFFFFF00FFFF00FFFFF00FFFFFFFFFF64
:1009A000F00FF00E107FFFF00FFFFFFFF002682046
:1009B0000FF0021FF00FF40BFFC02FF00FFFF00F2E
:1009C000F40BFFC02FF00FFFF00FF00EFFFFFFFF43
:1009D000FF00FFFFF00FFFF00FFD00FF10BF808F43
:1009E00000F904FFC0010BFFFE009A00EFFFFFF4C7
:1009F00000EFFFF00FFFFFFFC08FFFFFFFFF00FFC3
:100A0000FF806FFF805FFFFFFFFFFFFFFFFFFFFF24
:100A1000FFB40027FFF00D3029FFFFF72003BFFFD1
:100A2000A203C00FFFD4003AFFF0000000FFFFB2A6
:100A300002B00FF00D3005EFFF0000FFFFFF0000D8
:100A4000FFFFF00FF700AFFFF00FFFFFF0070A30D6
:100A5000AFF00D3005EFFFD4004CFFF00D3029FF53
:100A6000FFA203C00FFF00D4000FFF820015BFF0EC
:100A7000000000FFF00FFFF00FF208FFA01F00FFC3
:100A8000FFFF00F501FF104FF305FF801FF000008E
:100A9000000FFFFF00FFFFFFFF00FFFFFFFF00FF52
:100AA000FFFFFFFFFFFFFFFF00FFFFFFFFFFFFFF55
:100AB000E000000000F00C0FFFFFE403EFC78FFF22
:100AC000C01EFFFFFFFFFFFFFFFFF40BFFFFFFFC58
:100AD00003FFFFFE70006DFFFFFF00FFFFFFFFFF42
:100AE000FFFFFFFFFFFFFFFFFFFFFFFFFFFFE00F25
:100AF000FFF10EFFE00FFFFF00FFFFFFFFFFC04F02
:100B0000FFFFFE802FFF909F00FFF001015DFFF1CE
:100B1000091018FFFFFFF803FFF407FE803FF00EF7
:100B2000FFE00FFFFF00FFFFFFFF00FFFFFFFFC51C
:100B3000000FF00000000FF0005CFFFFFFFFF20865
:100B4000FF803FFFE01FFFC0470BFFF00FFFA02F0C
:100B5000F10DFFFFFFF00FFFE00FF00FFFFFFFF0C1
:100B60000FFFFFFFF10DFFFFFFF00FFFF00FFFFF83
:100B700000FFFFFFFFFFF00FF00202FFFFF00FFF8B
:100B8000FFFFF00723400FF00A0BF00FF10EFFE01C
:100B90000FF00FFE801FF10EFFE00FF00FFE801F21
:100BA000F2018EFFFFFFFF00FFFFF00FFFF00FFECF
:100BB00000EE00EFA04E00E507FFF4002FFFFF80DE
:100BC0000106FFFFFFA00AFFFFF00FFFFFFFF21F6C
:100BD000FFFFFFFF00FFFFFFFFFFFFFFFFFFFFFF24
:100BE000FFFFFFFFFFFFFF0000006FF0010000BFED
:100BF000FE2000000FFC0000100FFD000000AFF011
:100C0000000000FFFD0000000FF00100005FFF008A
:100C100000FFFFFF0000FFFFF00F800BFFFFF00F52
:100C2000FFFFF00000002FF00100005FFD0000005A
:100C3000DFF0010000BFFC0000100FFF0010000FEC
:100C4000F50000000FF0000000FFF00FFFF00FF7BD
:100C500003FF405F30DFFFFE02FE108A00EFFA0064
:100C6000FF306FF00000000FFFFF00FFFFFFFF00ED
:100C7000FFFFFFFF00FFFFFFFFFFFFFFFFFF00FF82
:100C8000FFFFFFFFFFFFFFA09F01FFF2040BFFFF2D
:100C9000FFFFA68EFFFF6004FFFFFFFFFFFFFFFFC8
:100CA000F10EFFFFFFFE00FFFFF56E0E74FFFFFF6A
:100CB00000FFFFFFFFFFFFFFFFFFFFFFFFFFFFFF43
:100CC000FFFFFFFF808FFFF00F33F00FFFFF00FFEC
:100CD000FFFFFFFE20EFFFF00004EFFE03FF00FF29
:100CE000F0000000DFF00000008FFFFFF10CFFFEBE
:100CF000400004EFF205EF700FFFFF00FFFFFFFF62
:100D000000FFFFFE820038EFF00000000FFE9300AE
:100D100028EFFFFF305FFF30BD30500FFF90AC0772
:100D2000FFF0000002CFF00FFFFFFFF00FFFF00F0A
:100D3000F0000000FFF0000000FFF00FFFFFFFF0E9
:100D40000000000FFFFF00FFFFFFFFFFF00FF000AC
:100D500000EFFFF00FFFFFFFF00A00800FF00E041E
:100D6000F00FF00FFFF00FF00000007FF00FFFF02A
:100D70000FF0000000AFFB00003BFFFFFF00FFFF94
:100D8000F00FFFF00FFF20BC01FFC02D00C309FFD3
:100D9000FC00BFFFFFF1000EFFFFFE105FFFFFF042
:100DA0000FFFFFFFFB08FFFFFFFF00FFFFFFFFFF3D
:100DB000FFFFFFFFFFFFFFFFFFFFFFFFFF4BEFB056
:100DC0001FF004EE502FF701BEEB5FF404EE500F5E
:100DD000F509EFB02FFFF00FFFFFF503EE400FF026
:100DE00005EF900FFFFF00FFFFFFFF00FFFFF0097F
:100DF00000BFFFFFF00FFFFFF00C00C00FF005EF8A
:100E0000900FF504EE503FF004EE502FF404EE5036
:100E10000FFF004DFFFFF00AFFDA3FFFF00FFFFF6B
:100E2000F00FFFF00FFD00FF10BF70BF00FC06FFCA
:100E3000B0010AFFFF00BF00DFFFFFFA00AFFFFFB6
:100E400000FFFFFFFF00FFFFFFFF00EFFFFA103979
:100E5000EE6FFFFF21FFFFFFFFFFFFFFFF40EC06EC
:100E6000FFFB10002EFFFE86BFFFFFF907006F009B
:100E7000FFFFFFFFFFFFF00FFFFFFFFF00FFFFFF80
:100E8000FF0FFFFFF00000000FFFFFFFFFFFFFFF5E
:100E9000FFFFFFFFFFFFFFFFFFFE00EFFFF00F333D
:100EA000F00FFFFF00FFFFFFFFD10BFFFFF000027D
:100EB000CFF30EFF00FFF4BEFC303FF005EE701FD5
:100EC000FFFF902FFFFE200002DFFA0000000FFF5F
:100ED000FF00FFFFFFFF00FFFFF0028DFFFFFFFF9E
:100EE000FFFFFFFFFFE8200FFFF506FFFF00E30015
:100EF000000FFF40EF02FFF0000001BFF00FFFFF07
:100F0000FFF00FFFF00FF0000000FFF0000000FF07
:100F1000F00FF0000FF00000000FFFFF00FFFFFFD9
:100F2000FFFFF00FF000107FFFF00FFFFFFFF00D4D
:100F300000C00FF00F50E00FF00FFFF00FF00000B7
:100F400038FFF00FFFF00FF0000005FFFFE5000095
:100F5000AFFFFF00FFFFF00FFFF00FFF507904FF1E
:100F6000D00B13A00CFFFB009FFFFFFA008FFFFFC9
:100F7000F501EFFFFFF00FFFFFFFFF21FFFFFFFF76
:100F800000FFFFFFFFFFFFFFFFFFFFFFFFFFFFFF70
:100F9000FFFFFFFA30000FF00DFFE00FF10DFFFF34
:100FA000FFF00DFFE00FF10000000FFFF00FFFFF5B
:100FB000F10DFFD00FF00EFFF00FFFFF00FFFFFF5E
:100FC000FF00FFFFF00006FFFFFFF00FFFFFF00F35
:100FD00000F00FF00EFFF00FF10DFFE01FF00DFF1E
:100FE000E00FF00DFFD00FFF00EFFFFFF300247DB7
:100FF000FFFFF00FFFFFF00FFFF00FFF00DD00FF1E
:10100000C08D00C90BFFF5004FFFFF503C01FFFFF3
:10101000FFB00AFFFFF902FFFFFFFF00FFFFFFFF26
:10102000408FFFF00000000FFFFF32FFFFFFFFFFC8
:10103000FFFF000000000EFFFA0103FFA7EFE3032C
:10104000EFF20FB00901FFFFFFFFFFFFF00FFFFFFF
:10105000FFFF00FFFFFFFF0FFFFFF00000000FFF8B
:10106000FFFFFFFFFF00000FFFFFFFFFFFFFFFF984
:1010700006FFFFF10EFFE00FFFFF00FFFFFFFD1077
:10108000BFFFFFFFFE702FF00000000FFFFFFFE02B
:101090000FF10EFFE00FFFFF10BFFFF406EE802FF1
:1010A000FF9101700FFFFFFFFFFFFFFFFFFFFFF04A
:1010B000038EFFFFFFFFFFFFFFFFFFE8300FFFF092
:1010C0000EFFFF00F00CD00FFF000000FFF00FFF3D
:1010D000902FF10DFFFFFFF00FFFE00FF00FFFFF6C
:1010E000FFF00FFFFFFFF10DF0000FF00FFFF00F0B
:1010F000FFFF00FFFFFFFFFFF00FF00B900EFFF070
:101100000FFFFFFFF00F00F00FF00FC0800FF10E88
:10111000FFE00FF00FFFFFFFF10EFFE00FF00FE712
:1011200000EFFFFFFB301FFFFF00FFFFF00FFFF09E
:101130000FFFA03508FFF00846800DFFF3001FFFEA
:10114000FFFF00FFFFFFA00BFFFFFFF00FFFFFFF00
:10115000FFA09FFFFFFF00FFFFFFFFFFFFFFFFFF5D
:10116000FFFFFFFFFFFFFFFFFE2000000FF00FFF5C
:10117000F00FF00FFFFFFFF00FFFF00FF000000087
:101180000FFFF00FFFFFF00FFFF00FF00FFFF00F5A
:10119000FFFF00FFFFFFFF00FFFFF00000EFFFFF7A
:1011A000F00FFFFFF00F00F00FF00FFFF00FF00F48
:1011B000FFF00FF00FFFF00FF00FFFF00FFF00FF39
:1011C000FFFFFE4000009FFFF00FFFFFF00FFFF05A
:1011D0000FFF508A03FFE04A01950EFFFC00AFFFAE
:1011E000FFD00606FFFFFB009FFFFF001DFFFFFF74
:1011F000FF00FFFFFFFFE200FFF5DFB4018FFFFFFD
:10120000FFFFFFFFFFFFFFFF000000000EFFFF0ECC
:1012100000FFFFFF48F92FF00EF90005FFFFFFFF69
:10122000FFFFF10EFFFFFFFE01FFFFFFFFFFFFFFCC
:10123000FFFF00FFFFFFFFFFFFFFFF00000FFFFFAB
:10124000FFFFFFFFFFF10EFFFFF30BFFC02FFFFFBC
:1012500000FFFFFFB00BFFFFFFFFFFF00FF00000EC
:10126000000FFFFFFFE00FF30EFFF00FFFFB02FF89
:10127000FFF00FFFF00FFFFFFFC03FFFFFFFFFFF7B
:10128000FFFFFFFFFFFE820039EFF00000000FFFBD
:10129000940028EFFFF00FFFFF00E300000FFD00B8
:1012A0000000DFF00FFFF00FF507FFFFFFF00FFF6B
:1012B000A03FF00FFFFFFFF00FFFFFFFF508FFF06B
:1012C0000FF00FFFF00FFFFF00FFFFFFFFFFF00F1A
:1012D000F00FE106FFF00FFFFFFFF00FFFF00FF040
:1012E0000FF2100FF30BFFC02FF00FFFFFFFF30BF8
:1012F000FFC02FF00FFF206FFFFFFFE00FFFFF0089
:10130000FFFFF00EFFF00FFFD0120CFFF0028A304B
:101310000FFFC0110AFFFFFF00FFFFFE105FFFFF7E
:10132000FFF00FFFFFFFFFF11FFFFFFF00FFFFFFB9
:10133000FFFFFFFFFFFFFFFFFFFFFFFFFFFFF206C3
:10134000EFE00FF00DFFE00FF10DFFFFFFF10DFFDC
:10135000E00FF10EFFFFFFFFF00FFFFFF10DFFE0C9
:101360000FF00FFFF00FFFFF00FFFFFFFF00FFFF79
:10137000F00C503FFFFFF00FFFFFF00F00F00FF0F9
:101380000FFFF00FF10DFFE00FF00DFFE00FF10D7B
:10139000FFE00FFF00FFFFFFFFFFEA601FFFF00FFE
:1013A000FFFFF00FFFE00FFFB03409FFF1173543E7
:1013B0002FFFF2001FFFFFF2000DFFFFB009FFFF3C
:1013C000FFFA02FFFFFFFF00FFFFFFFF409FFFFF4D
:1013D000FFFFFFFFFFFFFFFFFFFFFFFFFFFFFA0918
:1013E000F01FFFF4BE0C00FFFFFF0FFF0FF204DE43
:1013F000200EFFFFFFFFFFFFF40BFFFFFFFD03FFCA
:10140000FFFFFFFFFFFFFFFF00FFFFFFFF00FFFFEA
:10141000FFFFFFFFFFFFFF00FFFFFFA05FFFFFF9E0
:1014200002EE307FFFFF00FFFFFA00BFFFFFF3AEC9
:10143000FE800FFFFFFF00FFF4BEFD502FF806EE09
:10144000702FFFF209FFFFF107EF801FFF5DFC2007
:101450008FFFFF00FFFFFFFF00FFFFFFFFB5000F43
:10146000F00000000FF0005CFFFFFFFFFFFFFF3008
:101470009D30500FFA00FF108FF00FFFA00FFC00FF
:101480008EFC5FF00FFA109FF00FFFFFFFF00FFFD1
:10149000FFFFFB00AFE00FF00FFFF00FFFFF00FFBB
:1014A000FFF39EFE900FF00FF900EFF00FFFFFFF2C
:1014B000F00FFFF00FF00FF9000FF902EE407FF090
:1014C0000FFFFFFFF902EE406FF00FFFA00FF39D3B
:1014D000FFA01FFFFF00FFFFF405EE702FFFF000DD
:1014E0000FFFF300CE000FFF308902FFFFFF00FF68
:1014F000FFF501EFFFFFFFF00FFFFFFFFFF90AFF0E
:10150000FFFF00FFFFFFFFFFFFFFFFFFFFFFFFFFEA
:10151000FFFFFFFFF00BFE600FF004EE502FF6010F
:10152000CFFB5FF404EE500FF504DFEB4FFFF00F3D
:10153000FFFFF404EE400FF00FFFF00FFFFF00FF7E
:10154000FFFFFF00FFFFF00FE009FFFFF10AFFFFC1
:10155000F00F00F00FF00FFFF00FF504EE503FF02A
:1015600004EE502FF404EE500FFF00FFFFFFF39D39
:10157000FFB00FFFF00CFFFFF108FE600FFFE0016E
:101580000EFFF50379205FFF902307FFFFF9001F8F
:10159000FFFB009FFFFFFFFF00FFFFFFFF00FFFFBC
:1015A000FFFF00EFFFFFFFFFFFFFFFFF00FFFFFF59
:1015B000FFFFFFFFF40ED05FFFF0000005FFFFFF0D
:1015C00038E92FFA0000000DFFFFFFFFFFFFFA06CA
:1015D000FFFFFFF808FFFFFFFFFFFFFFFFFF00FF18
:1015E000FFFFFF00FFFFFFFFFFFFFFFFFF00FFFF09
:1015F000FF20DFFFFFFE100000EFF00000000FF003
:101600000000000FF00000007FFFFFFF00FFF00070
:101610000000DFFE100000AFFFC01FFFFFF800005A
:10162000007FFF000002FFFFFF00FFFFFFFF00FF42
:10163000FFFFFFFFE93FFFFFFFFFFFF29EFFFFFFFE
:10164000FFF00FFFFF902FFFFFFFF503FF503FF06C
:101650000000004FFF7000000FF0000004FFF000DA
:1016600000000FF00FFFFFFFFF5000000FF00FFF13
:10167000F00FFF000000FFF00000006FF00FFF1000
:101680006FF00000000FF00FFFF00FF00FFE000FE3
:10169000FE100001EFF00FFFFFFFFF100000DFF072
:1016A0000FFFE009F00000007FFFFF00FFFFFB00DD
:1016B0000000AFFFF3002FFFF400FF002FFC00EE4F
:1016C00000BFFFFF00FFFFF00000000FFFF00FFF63
:1016D000FFFFFFFF12FFFFFF00FFFFFFFFFFFFFF06
:1016E000FFFFFFFFFFFFFFFFFFFFF50000000FF010
:1016F000010000BFFE1000000FFC0000000FFD0005
:1017000000000FFFF00FFFFFFC0000000FF00FFFC5
:10171000F00FF00000000FFFFF00FFFFF00FF900D7
:10172000EFFFF50000FFF00F00F00FF00FFFF00FDC
:10173000FD000000DFF0010000BFFC0000000FFF13
:1017400000FFFFFFF00000003FFFF30000FFF60086
:1017500000000FFFF3002FFFFA00CD00AFFE00AB3B
:1017600000EFFFFE006FFFF00000000FFFFF00FF23
:10177000FFFFFF00FFFFFFFF00FFFFFFFFFFFFFF77
:10178000FFFF00FFFFFFFFFFFFFFF11F90AFFFFB19
:1017900050006FFFFFFFE303EFFFB3003502FFFFD1
:1017A000FFFFFFFFFE01FFFFFFF20EFFFFFFFFFF46
:1017B000FFFFFFFFFFFFFFFFFE01FFFFFFFFFFFF38
:1017C000FFFFFF00FFFFFC03FFFFFFFFE4003DFF03
:1017D000F00000000FF00000000FFB510039FFFF88
:1017E000FFFF00FFFB50015DFFFFD4002AFFFF4019
:1017F0008FFFFFFF920028FFFFA2017EFFFFFF0087
:10180000FFFFFFFE01FFFFFFFFFFFFFFFFFFFFFFE7
:10181000FFFFFFFFFFFFFFF00FFFFFF103BFE7BF79
:10182000F108FFA01FF0000016EFFFFA3002AFF042
:1018300000038FFFF00000000FF00FFFFFFFFFF825
:101840002004CFF00FFFF00FFF000000FFFB61004E
:1018500028FFF00FFF900EF00000000FF00FFFF0D8
:101860000FF00FFF500FFFE4003CFFF00FFFFFFFF2
:10187000FFE40004FFF00FFFF502FB510038FFFF0B
:10188000FF00FFFFFFA20029FFFFF7005FFFF80244
:10189000FF403FF405FF602FFFFF00FFFFF0000057
:1018A000000FFFF00FFFFFFFFFFF90BFFFFF00FFE4
:1018B000FFFFFFFFFFFFFFFFFFFFFFFFFFFFFFFF38
:1018C000FF6003C00FF00D2019FFFFE72003AFFFFB
:1018D000A102C00FFFD51004BFFFF00FFFFFFFB242
:1018E00002A00FF00FFFF00FF00000000FFFFF004D
:1018F000FFFFF00FFF204FFFFE3000FFF00F00F062
:101900000FF00FFFF00FFFD3003CFFF00D3029FF69
:10191000FFA203C00FFF00FFFFFFFC520026EFFFF6
:10192000FD3000FFFF5003C00FFFF9007FFFFD00F7
:10193000EF00EFF501FF103FFFFF10DFFFF00000A9
:10194000000FFFFF00FFFFFFFF00FFFFFFFF00FF93
:10195000FFFFFFFFFFFFFFFFFFFFFFFFFFFFFFFF97
:10196000FFFFFFFFFFFFFF0FFFFFFFFFFFFFFFFF77
:10197000FFFFFFFFFFFFFFFFFFFFFF60BFFFFFC095
:101980005FFFFFFFFFFFFFFFFFFFFFFFFFFFF90606
:10199000FFFFFFFFFFFFFFFFFFFFFFFFF30CFFFF56
:1019A000FFFFFFFFFFFFFFFFFFFFFFFFFFFFFFFF47
:1019B000FFFFFFFFFFFFFFFFFFFFFFFFFFFFFFFF37
:1019C000FFFFFFFFFFFFFFFFFFFFFFFFFFFFFFFF27
:1019D000FFFFFFFFFFFFFFFFFFF906FFFFFFFFFF16
:1019E000FFFFFFFFFFFFFFFFFFFFFFFFFFFFFFFF07
:1019F000FFFD1000003FFFFFFFFFFFFFFFFFFFFFA6
:101A0000FFFFFFFFFFFFFFFFFFFFFFFFFFFFFFFFE6
:101A1000FFFFFFFFFFFFFFFFFFFFFFFFFFFFFFFFD6
:101A2000FFFFFFFFFFFFFFFFFFFFFFFFFFFFFFFFC6
:101A3000FFFFFFFFFFFFFFFFFFFFFFFFFFFFFFFFB6
:101A4000FFFFFFFFFFFFFFFFFC00AFFFFFFFFFFFF8
:101A5000FFFFFFFFFFFFFFFFFFFFFFFFFFFFFFFF96
:101A6000FFFFFFFFFFFFFFFFFFFFFFFFFFFFFFFF86
:101A7000FFFFFFFFFFFFFFFFFFF00FFFFFFFFFFF75
:101A8000E02FFFFF00FFFFFFFFFFFFFFFFFFFFFF54
:101A9000FFFFFFFFFFFFFFFFFFFFFFFFFFFFFFFF56
:101AA000FFFFFFFFFFFFFFFFFFFFFFFFFFFFFFFF46
:101AB000FFFFFFFFFF4CFEA01FFFFFFFFFFFFFFF29
:101AC000FFFFFFFFFC00FFFFFFFFFFFFFFFFFFFF28
:101AD000FFFFFFFFFFFFFFFFFFFFFFFFFFFFFFFF16
:101AE000FFF00FFFFFFFFFFFFFF00FFFFFFFFFFF04
:101AF000FFFFFFFFFFFFFFFFFFFFFFFFFFFFFFFFF6
:101B0000FFFFFFFFFFFFFFFFFFFFFFFFFFFFFFFAEA
:101B100001FFFFFFFFFFFFFFFFFF00FFFFFFFF00D1
:101B2000FFFFFFFF00FFFFFFFFFFFFFFFFFFFFFFC4
:101B3000FFFFFFFFFFFFFFFFFFFFFFFFFF0FFFFFA5
:101B4000FFFFFFFFFFFFFFFFFFFFFFFFFFFFFFFFA5
:101B5000FFE02FFFFF50EFFFFFFFFFFFFFFFFFFF43
:101B6000FFFFFFFFF20DFFFFFFFFFFFFFFFFFFFF84
:101B7000FFFFFFFFFFFFFFFFFFFFFFFFFFFFFFFF75
:101B8000FFFFFFFFFFFFFFFFFFFFFFFFFFFFFFFF65
:101B9000FFFFFFFFFFFFFFFFFFFFFFFFFFFFFFFF55
:101BA000FFFFFFFFFFFFFFFFFFFFFFFFFFFFFFF252
:101BB0000DFFFFFFFFFFFFFFFFFFFFFFFFFFFFFF27
:101BC000FFFFFFFFFFFFFFFFE72003CFFFFFFFFF48
:101BD000FFFFFFFFFFFFFFFFFFFFFFFFFFFFFFFF15
:101BE000FFFFFFFFFFFFFFFFFFFFFFFFFFFFFFFF05
:101BF000FFFFFFFFFFFFFFFFFFFFFFFFFFFFFFFFF5
:101C0000FFFFFFFFFFFFFFFFFFFFFFFFFFFFFFFFE4
:101C1000FFFFFFFFFFFFFFFFFFFFFFFFFFFFFFC310
:101C2000EFFFFFFFFFFFFFFFFFFFFFFFFFFFFFFFD4
:101C3000FFFFFFFFFFFFFFFFFFFFFFFFFFFFFFFFB4
:101C4000FFFFFFFFFFFFFFFFFFFFFFFFFFFFFFF0B3
:101C5000001FFFFFFFFFFFFFFF3000FFFFFFFFFF41
:101C6000FFFFFFFFFFFFFFFFFFFFFFFFFFFFFFFF84
:101C7000FFFFFFFFFFFFFFFFFFFFFFFFFFFFFFFF74
:101C8000FFFFFFFFFFFFFFFFFFFFFF0000006FFFF1
:101C9000FFFFFFFFFFFFFFFFFFF00003FFFFFFFF5E
:101CA000FFFFFFFFFFFFFFFFFFFFFFFFFFFFFFFF44
:101CB000FFFFFFFFFFFFFFF00FFFFFFFFFFFFFF042
:101CC0000FFFFFFFFFFFFFFFFFFFFFFFFFFFFFFF14
:101CD000FFFFFFFFFFFFFFFFFFFFFFFFFFFFFFFF14
:101CE000FFFFFFFFFF0007FFFFFFFFFFFFFFFFFFFB
:101CF00020BFFFFFFF00FFFFFFFC01FFFFFFFFFF13
:101D0000FFFFFFFFFFFFFFFFFFFFFFFFFFFFFFFFE3
:101D1000FFFFFFFFFFFFFFFFFFFFFFFFFFFFFFFFD3
:101D2000FFFFFFFFFFFFFFFFFFFFFFFFFFFFFFFFC3
:101D3000FFFFFFFFFFFFFFFFFFFFFFFFFFFFFFFFB3
:101D4000FFFFFFFFFFFFFFFFFFFFFFFFFFFFFFFFA3
:101D5000FFFFFFFFFFFFFFFFFFFFFFFFFFFFFFFF93
:101D6000FFFFFFFFFFFFFFFFFFFFFFFFFFFFFFFF83
:101D7000FFFFFFFFFFFFFFFFFFFFFFFFFFFFFFFF73
:101D8000FFFFFFFFFFFFFFFFFFFFFFFFFFFFFFFF63
:101D9000FFFFFFFFFFFFFFFFFFFFFFFFFFFFFFFF53
:101DA000FFFFFFFFFFFFFFFFFFFFFFFFFFFFFFFF43
:101DB000FFFFFFFFFFFFFFFFFFFFFFFFFFFFFFFF33
:101DC000FFFFFFFFFFFFFFFFFFFFFFFFFFFFFFFF23
:101DD000FFFFFFFFFFFFFFFFFFFFFFFFFFFFFFFF13
:101DE000FFFFFFFFFFFFFFFFFFFFFFFFFFFFFFFF03
:101DF000FFFFFFFFFFFFFFFFFFFFFFFFFFFFFFFFF3
:101E0000FFFFFFFFFFFFFFFFFFFFFFFFFFFFFFFFE2
:101E1000FFFFFFFFFFFFFFFFFFFFFFFFFFFFFFFFD2
:101E2000FFFFFFFFFFFFFFFFFFFFFFFFFFFFFFFFC2
:101E3000FFFFFFFFFFFFFFFFFFFFFFFFFFFFFFFFB2
:101E4000FFFFFFFFFFFFFFFFFFFFFFFFFFFFFFFFA2
:101E5000FFFFFFFFFFFFFFFFFFFFFFFFFFFFFFFF92
:101E6000FFB30027FFFFFFFFFFFFFFFFFFFFFFF0B4
:101E7000003DFFFFFFFFFFFFFFFFFFFFFFFFFFFF33
:101E8000FFFFFFFFFFFFFFFFFFFFFFFFFFF00FFF61
:101E9000FFFFFFFFFFF00FFFFFFFFFFFFFFFFFFF51
:101EA000FFFFFFFFFFFFFFFFFFFFFFFFFFFFFFFF42
:101EB000FFFFFFFFFFFFFFFFFFFFFF004FFFFFFFE1
:101EC000FFFFFFFFFFFFB200FFFFFF00FFFFFF006C
:101ED0002AFFFFFFFFFFFFFFFFFFFFFFFFFFFFFFE7
:101EE000FFFFFFFFFFFFFFFFFFFFFFFFFFFFFFFF02
:101EF000FFFFFFFFFFFFFFFFFFFFFFFFFFFFFFFFF2
:101F0000FFFFFFFFFFFFFFFFFFFFFFFFFFFFFFFFE1
:101F1000FFFFFFFFFFFFFFFFFFFFFFFFFFFFFFFFD1
:101F2000FFFFFFFFFFFFFFFFFFFFFFFFFFFFFFFFC1
:101F3000FFFFFFFFFFFFFFFFFFFFFFFFFFFFFFFFB1
:101F4000FFFFFFFFFFFFFFFFFFFFFFFFFFFFFFFFA1
:101F5000FFFFFFFFFFFFFFFFFFFFFFFFFFFFFFFF91
:101F6000FFFFFFFFFFFFFFFFFFFFFFFFFFFFFFFF81
:101F7000FFFFFFFFFFFFFFFFFFFFFFFFFFFFFFFF71
:101F8000FFFFFFFFFFFFFFFFFFFFFFFFFFFFFFFF61
:101F9000FFFFFFFFFFFFFFFFFFFFFFFFFFFFFFFF51
:101FA000FFFFFFFFFFFFFFFFFFFFFFFFFFFFFFFF41
:101FB000FFFFFFFFFFFFFFFFFFFFFFFFFFFFFFFF31
:101FC000FFFFFFFFFFFFFFFFFFFFFFFFFFFFFFFF21
:101FD000FFFFFFFFFFFFFFFFFFFFFFFFFFFFFFFF11
:101FE000FFFFFFFFFFFFFFFFFFFFFFFFFFFFFFFF01
:101FF000FFFFFFFFFFFFFFFFFFFFFFFFFFFFFFFFF1
:10200000FFFFFFFFFFFFFFFFFFFFFFFFFFFF0000DE
:10201000000000FFFFFFFFFFFFFFFFFFFFFFFFFFCD
:10202000FFFFFFFFFFFFFFFFFFFFFFFFFFFFFFFFC0
:10203000FFFFFFFFFFFFFFFFFFFFFFFFFFFFFFFFB0
:10204000FFFFFFFFFFFFFFFFFFFFFFFFFFFFFFFFA0
:10205000FFFFFFFFFFFFFFFFFFFFFFFFFFFFFFFF90
:10206000FFFFFFFFFFFFFFFFFFFFFFFFFFFFFFFF80
:10207000FFFFFFFFFFFFFFFFFFFFFFFFFFFFFFFF70
:10208000FFFFFFFFFFFFFFFFFFFFFFFFFFFFFFFF60
:10209000FFFFFFFFFFFFFFFFFFFFFFFFFFFFFFFF50
:1020A000FF00FFFFFFFFFFFFFFFFFFFFFFFFFFFF3F
:1020B000FFFFFFFFFFFFFFFFFFFFFFFFFFFFFFFF30
:1020C000FFFFFFFFFFFFFFFFFFFFFFFD1FFFFFF20F
:1020D000CFFFFFFFFFFFFFFFFFFFFFFFFFFFFFFF40
:1020E000FFFFFFFFFFFFFFFFFFFFFFFFFFFFFFFF00
:1020F000FFFFFFFFFFFFFFFFFFFFFFFFFFFFFFFFF0
:10210000FFFFFFFFFFFFFFFFFFFFFFFFFFFFFFFFDF
:10211000FFFFFFFFFFFFFFFFFFFFFFFFFFFFFFFFCF
:10212000FFFFFFFFFFFFFFFFFFFFFFFFFFFFFFFFBF
:10213000FFFFFFFFFFFFFFFFFFFFFFFFFFFFFFFFAF
:10214000FFFFFFFFFFFFFFFFFFFFFFFFFFFFFFFF9F
:10215000FFFFFFFFFFFFFFFFFFFFFFFFFFFFFFFF8F
:10216000FFFFFFFFFFFFFFFFFFFFFFFFFFFFFFFF7F
:10217000FFFFFFFFFFFFFFFFFFFFFFFFFFFFFFFF6F
:10218000FFFFFFFFFFFFFFFFFFFFFFFFFFFFFFFF5F
:10219000FFFFFFFFFFFFFFF0006FFFFFFFFFFC00EF
:1021A0000FFFFFFFFFFFFFFFFFFFFFFFFFFFFFFF2F
:1021B000FFFFF00FFFFFFFFFFFFFFFFFF00FFFFF2D
:1021C000FFFFFFFB200FFFFFFFFFF00FFFFFFFF000
:1021D0000FFFFFFF00FFF00FFFFF0000FFFFFFFFFB
:1021E000FFFFFFFFFFFFFFFFFFFFFFFFFFFFFFFFFF
:1021F000FFFFFFFFFFFFFFFFFFFFFFFFFFFFFFFFEF
:10220000FFFFFFFFFFFFFFFFFFFFFFFFFFFFFFFFDE
:10221000FFFFFFFFFFFFFFFA100FFFF0FFFFF001CE
:102220009FFFFFFFFFFFFFFFFFFFFFFFFFFFFFFF1E
:10223000FFFFFFFF0FFFFFFFFFFFFFFFFFFFFFFF9E
:10224000909FFFF35FFFFFF72FFFFFFFFFFFFFFFF1
:10225000FFFFFFFFFFFFFFFFFFFFFFFFFFFFFFFF8E
:10226000FFFFFFFFFFFFFFFFFFFFFFFFFFFFFFFF7E
:10227000FFFFFFFFFFFFFFFFFFFFFFFFFFFFFFFF6E
:10228000FFFFFFFFFFFFFFFFFFFFFFFFFFFFFFFF5E
:10229000FFFFFFFFFFFFFFFFFFFFFFFFFFFFFFFF4E
:1022A000FFFFFFFFFFFFFFFFFFFFFFFFFFFFFFFF3E
:1022B000FFFFFFFFFFFFFFFFFFFFFFFFFFFFFFFF2E
:1022C000FFFFFFFFFFFFFFFFFFFFFFFFFFFFFFFF1E
:1022D000FFFFFFFFFFFFFFFFFFFFFFFFFFFFFFFF0E
:1022E000FFFFFFFFFFFFFFFFFFFFFFFFFFFFFFFFFE
:1022F000FFFFFFFFFFFFFFFFFFFFFFFFFFFFFFFFEE
:10230000FFFFFFFFFFFFFFFFFFFFFFFFFFFFFFF0EC
:102310000FFFFFFFFFFFFFF00FFFFFFFFFFFFFFFBC
:10232000FFFFFA07FFFFFFFFFFFFF00FFFFFFFFFB9
:10233000FFFFFFFFF00FFFFFFFFFFFF20DFFFFFFAB
:10234000FFFFF00FFFFFFFF00FFFFFFF00FFF00F99
:10235000FFFFFF00FFFFFFFFFFFFFFFFFFFFFFFF8C
:10236000FFFFFFFFFFFFFFFFFFFFFFFFFFFFFFFF7D
:10237000FFFFFFFFFFFFFFFFFFFFFFFFFFFFFFFF6D
:10238000FFFFFFFFFFFFFFFFFFFFFFFFFFFFFFF16B
:102390000CFFFFF0FFFFFFC00FFFFFFFFFFFFFF08D
:1023A0000FFFF00FF00FFFFFFFFFFFFF0FFFB11A4E
:1023B000FFFFFFA107FFFFF81CFFFFC0AFFFFFFCFF
:1023C0000BFFFFF0FFFFFFFFFFFFFFFFFFFFFFFF20
:1023D000FFFFFFFFFFFFFFFFFD2FFF92018FF000C8
:1023E0000FFFFB50027EFB50015CFFFF800FF000EF
:1023F000000FFFB3019FF0000000FD40004CFF51B3
:10240000028FFFFFFFFFFFFFFFFFFFFFFFFFFFFF49
:10241000FFFFFFFFFFFFFFA202AFFF5003CFFFF45C
:1024200003FFF000014DFFE51029F00015CFF0008B
:102430000000F0000000FFE51029F00FFF00F000A1
:10244000000FFFFF0000F00FF905F00FFFFFF00491
:10245000F500F006FF00FF92029FF000026EFF926F
:10246000028FF000016EFF71004BF000000FF00FC3
:10247000FF00F20FFF0113FFFF40F50BFD0350BFFC
:10248000FC03F0000000FFF00FFFF36FFFFFFFF011
:102490000FFFFF705FFFFFFFFFFFFFD27FFFFFFF18
:1024A000FFFFF00FFFFFFFFFFFFFFFFFF00FFFFF3A
:1024B000FFFFFFF00FFFFFFFFFFFF00FFFFFFFFF2A
:1024C000FFFFFFFFFFFFF00FFFFFFF00FFFFFFFF1A
:1024D000FFFFFFFFFFFFFFFFFFFFFFFFFFFFFFFF0C
:1024E000FFFFFFFFFFFFFFFFFFFFFFF00FFFFFFFFB
:1024F000FFFFFFFFFFFFFFFFFFFFFFFFFFFFFFFFEC
:10250000FFFFFFFFFFFFFFF00FFFFFF0FFFFFFF0F8
:102510000FFFFFFFFFFFFFF00FFFF00FF00FFFF0C7
:102520008D0CFD40000F1CC1FFFFFF00EAFFFFFF05
:10253000FFFFFF50CFFFFFFD04FF56E0E74FFFF026
:102540000FFFFFFFFFFFFFFFFFFFFFFFFFFFFFFF8B
:10255000F5AFFB05E70AFFF00FFFF3AEF904F3AEAA
:10256000FB01FFFA000FF00FFFFFFC04EE7FFFFFFF
:10257000FB01F10BFC01F607F809FFFFFFFFFFFF6E
:10258000FFFFFFFFFFFFFFFFFFFFFFFFFFFFFF6EEC
:10259000D00FF26EFA2FFFF000FFF00FFB02FE11DA
:1025A000BFD5F00FE20BF00FFFFFF00FFFFFFD11A3
:1025B000CFD7F00FFF00FFF00FFFFFFFFF00F00F7E
:1025C000B02FF00FFFFFF000F100F000EF00FB056F
:1025D000E70AF00FF804FB05E70AF00FF803F50A25
:1025E000FEB4FFF00FFFF00FFF00F50CFD0432FF0B
:1025F000FF31FE02F30DD01FF20DFFFFFC00FFF0D4
:102600000FFFFB0FFFFFFFF00FFFFC000AFFFFFFB4
:10261000FFFFFFFFFFFFFFFFFFFFF00FFFFFFFFFC9
:10262000FFFFFFFFF00FFFFFFFFFFFF00FFFFFFFB8
:10263000FFFFF00FFFFFFFFFFFFFFFFFFFFFF00FA8
:10264000FFFFFF00FFFFFFFFFFFFFFFFFFFFFFFF99
:10265000FFFFFFFFFFFFFFFFFFFFFFFFFFFFFFFF8A
:10266000FFFFFFF00FFFFFFFFFFFFFFFFFFFFFFF79
:10267000FFFFFFFFFFFFFFFFFFFFFFFFFFFFFFF079
:102680000FFFFFF0FFFFFFF00FFFFFFFFFFFFFF067
:102690000FFFF00FF00FFFC0D81FF10C0E7F1CD002
:1026A000FFFFFF40BFFFFFFFFFFFFF20EFFFFFFF28
:1026B00001FFE70006DFFFF00FFFFFFFFFFFFFFF57
:1026C000FFFFFFFFFFFFFFFFE1FFF40DFD02FFF043
:1026D0000FFFFFFFFF00FFFFFB02FFB0500FF00FE7
:1026E000FFFFF40DFFFFFFFFF209F40BFB02F00EFA
:1026F000FF02FFF00FFFFFF00FFFFFFFFF93FFFF51
:10270000FFFFF39EFFFFFFFFB02F93E5030FFFD006
:1027100040CFF00FFF00F509FFFFF00FFD03F00FB2
:10272000FFFFF00FFFFFF50AFFFFF00FFF00FFF0C4
:102730000FFFFFFFFF00F00D01EFF00FFFFFF001B3
:10274000C000F0009F00F30DFD02F00FFF00F30D3D
:10275000FD02F00FFF00F00EFFFFFFF00FFFF00F84
:10276000FF00FB08FA0950F21F23FF80506FF609A3
:10277000A05FFFFFE10BFFF00FFFFF19FFFFFFF06E
:102780000FFFE11E21EFFFFFFFFFFFFFFFFFFF91A4
:1027900003DFF00503EFFF92029FFE30400FFF7052
:1027A00005EFF000000FFE30400FF005009FF00035
:1027B0000FFFFF0000FFF00F908FFF00FFFF0400EE
:1027C0005107F005009FFF7006FFF00503EFFE3094
:1027D000400FFF00500FFD4003AFF000000FF00F5F
:1027E000F00FF20FF01F14FFFF51F509A04FF20E8A
:1027F000E01FF000000FFFF00FFFFFF0FFFFFFF002
:102800000FFFFFFFFFFFFFF00FFFF00FF00FD000F3
:102810000000F1090FFFB10AFA68FFA03FFFFFFFB8
:10282000FFFFFF00FFFFFFFF00FFE70006DFFFF0F5
:102830000FFFFFFFFFFFFFFFFFFFFFFFFFFFFFFF98
:1028400078FFF00E1F00FFF00FFFFFFFFA07FFF009
:10285000004EFE15F00FF000028FF104004EFFFF56
:10286000C01FFF50004EF00EFF00FFF00FFFFFF003
:102870000FFFFFFB5002F0000000F3005CFFFFFBC6
:1028800004EF3B76E70FFF80A06FF00FFB03F10E24
:10289000FFFFF00FFE00F00FFFFFF00FFFFFF10E44
:1028A000FFFFF00FFF00FFF00FFFFFFFFF00F00240
:1028B0000BFFF00FFFFFF0036200F0061F00F10EA8
:1028C000FF00F00FFE00F10EFF00F00FFE00F3011D
:1028D0008DFFFFF00FFFF00FFF00FE03F50D80E00E
:1028E0000E05FFF100EFFE0110EFFFFF409FFFF02C
:1028F0000FFFFF82FFFFFFF00FFF51EFE14FFFFFE0
:10290000FFFFFFFFFFFFFF5EC02FF009A03FF904AC
:10291000EE7FF509A00FF809B05FFFF00FFFF60991
:10292000A00FF00AD00FFFF00FFFFFFF00FFF00B2A
:1029300006FFFF00FFFF00D00D01F00AD00FF809DD
:10294000A06FF009A03FF509A00FFF006FAFF10CD9
:10295000FD5FFFF00FFFF00FF00FF70CD05F42FFAD
:10296000FF32FE1120EFF80BC06FFFFFC01FFFA06A
:102970001FFFFFF0FFFFFFF309FFFFFFFFFFFFF166
:102980000FFFFFFFFFFFFF06D0BFFD40006EFFA659
:102990006BFFFA050AF0FFFFFFFFFF00FFFFFFFFDD
:1029A00000FF56E0E74F00000000FFFFFFFFFF00C1
:1029B00000FFFFFFFFFFFFFE1EFFF00F1F00FFF0F5
:1029C0000FFFFFFFB05FFFFFF705F15FF00FF4CFE0
:1029D000E506F008F903FFFF308FF807F806F40862
:1029E000F900FFFFFFFFFFFFFFFFF82017DFF000F8
:1029F0000000FFD71028FFF10EFF1E1EFE0FFF3054
:102A0000F02FF000002EF00FFFFFF00FFF00F0009E
:102A1000000FF000000FF00FF000F0000000FFF0DA
:102A20000FFFFFFFFF00F00005FFF00FFFFFF008B2
:102A30000600F00D0C00F00FFF00F00FF804F00F8F
:102A4000FF00F00FF804FE40004EFFF00FFFF00F04
:102A5000FF00FF11F21FA0B01A08FFF705FFFF806B
:102A600006FFFFF606FFFFF00FFFFFE0BFFFFFF0DE
:102A70000FFFFFFFFFFFFFFFFFFFFFFFFFFFFFFF56
:102A8000F00FF00EE00FF10DFFFFF10EE00FF10E71
:102A9000F00FFFF00FFFF10EE00FF00FF00FFFF05F
:102AA0000FFFFFFF00FFF0012FFFFF00FFFF00F00F
:102AB0000F00F00FF00FF10EE01FF00EE00FF10E1F
:102AC000E00FFF00EFFFF104AEFFFFF00FFFF00F8C
:102AD000F00FFC0890BF80F11F06FFA009FFFC0764
:102AE00080CFFFFD11CFF001BFFFFFF0FFFFFFFC24
:102AF000100FF9106DE7FFF32FFFFFFFFFFFFD0B36
:102B0000B0EFFFFF0803A6BFB11AF10E11D0FFFF0F
:102B1000FFFFFF20EFFFFFFE01FFFFF0FFFF0000C0
:102B20000000FFFFFFFFFF0000FFFFFFFFFFFFF9B7
:102B30006FFFF00EFF00FFF00FFFFFFB04FFFFFF32
:102B4000FE00F0000000FFFFFE00F00EFE00FFFCA4
:102B500000FFF00EFF00FE400300FFFFFFFFFFFF3E
:102B6000FFFFF007FFFFFFFFFFFFFFFFF900FFF090
:102B70000FFF0F0FFF0FFE00000EF00FFB03F10E13
:102B8000FFFFF00FFF00F00FFFFFF00FFFFFF10E50
:102B9000FF00F00FFF00FFF00FFFFFFFFF00F00747
:102BA00020DFF00FFFFFF00C0900F00F3400F00EF3
:102BB000FF00F000026EF00EFF00F000004EFFFE7E
:102BC0008102FFF00FFFF00FFF00FF50D03FD063F6
:102BD000540AFFE100EFFFF00EFFFF904FFFFFF000
:102BE0000FFFFFF54FFFFFF00FFFFFFFFFFFFFFF9E
:102BF000FFFFFFFFFFFFFB30000FF00FF00FF00FA4
:102C0000FFFFF00FF00FF000000FFFF00FFFF00FCD
:102C1000F00FF00FF00FFFF00FFFFFFF00FFF000CD
:102C20000EFFFF00FFFF00F00F00F00FF00FF00F9E
:102C3000F00FF00FF00FF00FF00FFF00FFFFFB3071
:102C4000008FFFF00FFFF00FF00FFF0350EFC0C039
:102C50000C0AFFF00EFFFF1331FFFFD10DFFFFA0A5
:102C60001FFFFFF0FFFFFFF209FFF6EE8107FFFFF6
:102C7000FFFFFFFFFFFF0000000CF7FF0F00FFFF4B
:102C80001CC0F00E9002FFFFFFFFFF50DFFFFFFDB3
:102C900004FFFFFFFFFFFFF00FFFFFFFFFFFFFFF3E
:102CA000FFFFFFFFFFFFFFF1EFFFF30DFD02FFF05E
:102CB0000FFFFFA04FFFFFFFFF00FFFFF00FFFFF21
:102CC000FE00F30EFF00FFF308FFF00EFE00FFFF13
:102CD000FE03FFFFFFFFFFFFFFFFF82027DFF000ED
:102CE0000000FFD72028FFFFFFFF0E1EFE0FFC078E
:102CF000F80AF00FFF00F509FFFFF00FFC03F00FDB
:102D0000FFFFF00FFFFFF50BFF00F00FFF00FFF0DC
:102D10000FFFFFFFFF00F00FB02FF00FFFFFF00FCE
:102D2000FF00F00FA000F40DFD02F00FFFFFF40D07
:102D3000FD02F00FE40BFFFFFE00FFF00FFFF00FAE
:102D4000FF00FFB0708FE007900CFF70605FFFF036
:102D50000FFFFC02EFFFFFF00FFFFFFC0EFFFFF085
:102D60000FFFFFFFFFFFFFFFFFFFFFFFFFFFF10C64
:102D7000F00FF00EF00FF20EFFFFF10EE00FF10E6C
:102D8000FFFFFFF00FFFF10EE00FF00FF00FFFF06D
:102D90000FFFFFFF00FFF00C05FFFF00FFFF00F03B
:102DA0000F00F00FF00FF10EE01FF00EF00FF10E1C
:102DB000E00FFF00FFFFFFFE900FFFF00FFFF00F8F
:102DC000F00FFF4113FFE072370DFF8006FFFF5148
:102DD00005FFFE10CFFFFFF00FFFFFF0FFFFFFF03A
:102DE0000EFFFFFFFFFFFFF00FFFFFFFFFFFF34EA0
:102DF00008FFF06E0B02FFFF1CD0F507E006FFFF97
:102E0000FFFFFFC09FFFFFFC0BFFFFFFFFFFFFF077
:102E10000FFFFFF00FFFFFFFFFFFFFF00FFFFFA50A
:102E2000FFFFFB05F70AFFF00FFFF905FFFFF4BFF7
:102E3000E704FFFFF00FF4DFE606FA08F905FFC02C
:102E40000FFFF607F804FF6EE50BFFF00FFFFFF032
:102E50000FFFFFFB5002F0000000F3005CFFFFF0EB
:102E60000FFF4A66F70FF70BFD04F00FFB01FE01A1
:102E7000BFE5F00FE40BF00FFFFFF00FFFFFFD02C7
:102E8000DE00F00FFF00FFF00FFFF4BEFA01F00FBD
:102E9000F40AF00FFFFFF00FFF00F00FF100FB0549
:102EA000F70AF00FFFFFFB05F708F00FFD01E3AE97
:102EB000FB02FFF00FFFF509FA03FFE000DFF00B64
:102EC000D00EFE02F30DFFF00FFFF11DFFFFFFF02C
:102ED0000FFFFFFF36FFFFF00FFFFFFFFFFFFFFFBA
:102EE000FFFFFFFFFFFFF10DA00FF009A03FF90466
:102EF000EE7FF509A00FF807FE5FFFF00FFFF50862
:102F0000A00FF00FF00FFFF00FFFFFFF00FFF00F1B
:102F100040DFFF30AFFF00F00F00F00FF00FF809B7
:102F2000A06FF008A04FF509A00FFF00FFFFF4DF2E
:102F3000D01FFFF10DFFF10CB00FFFA008FFF0064E
:102F4000900FFE0230DFFFB00BFFF10CFFFFFFF030
:102F50000FFFFFF0FFFFFFF00FFFFFFFFFFFFFF08E
:102F60000FFFFFFFFFFFE0AC0EFFFB50005EFFFF17
:102F7000B10AFE500402FFFFFFFFFFF25FFFFFF701
:102F80002FFFFFFFFFFFFFF00FFFFFF00FFFFFFF1F
:102F9000FFFFFFF00FFFFF2DFFFFFF91018FF000FC
:102FA000000FF0000000FB40027FFFFFF00FFB303E
:102FB000028FFF91006EFF408FFFFF70016EFFA137
:102FC00003AFFFF00FFFFFF00FFFFFFFFE93FFFFC8
:102FD000FFFFF29EFFFFFFF00FFFA2E4030FF20FCF
:102FE000FF01F000003CFFE51019F00004CFF000F5
:102FF0000000F00FFFFFFFC40015F00FFF00F0000E
:10300000000FFB50005CF00FFD01F0000000F00F1E
:10301000FF00F00FF800FF91018FF00FFFFFFF910D
:10302000003FF00FFF904B40015EFFF00FFFFE509E
:10303000004EFFF101FFF10EF00FF50BFD03FFF065
:103040000FFFF0000000FFF00FFFFFFFA0FFFFF0F9
:103050000FFFFFFFFFFFFFFFFFFFFFFFFFFFFA1064
:10306000400FF00502EFFF92019FFE30400FFF700E
:1030700002AFFFF00FFFFE30400FF00FF00FF00037
:10308000000FFFFF00FFF00FC03FFFC3000F00F075
:103090000F00F00FF00FFF7005FFF00502EFFE309C
:1030A000400FFF00FFFFFB3003BFFFF9100FFA00D6
:1030B000400FFFD00DFFF30BD02FF509B03FFFE01D
:1030C0000FFFF000000FFFF00CFFFFF0FFFFFFD03D
:1030D0000FFFFFFFFFFFFFFFFFFFFFFFFFFFFFFFF0
:1030E000FFFFFFFF0FFFFFFFFFFFFFFFFFFFFFFFE0
:1030F000FFFFFFFD1FFFFFF2BFFFFFFFFFFFFFFF0F
:10310000FFFFFFB0AFFFFFFFFFFFFFFFFFFFFC3F31
:10311000FFFFFFFFFFFFFFFFFFFFFFFFFFFFFFFFBF
:10312000FFFFFFFFFFFFFFFFFFFFFFFFFFFFFFFFAF
:10313000FFFFFFFFFFFFFFFFFFFFFFFFFFFFFFB0EE
:10314000AFFFFFFFFFFFFFFFFFFFFFFFFFFFFFFFDF
:10315000FFFFF54DFB5FFFFFFFFFFFFFFFFFFFFFDF
:10316000FFFFFFFFFFFFFFFFFFFFFFFFFFFFFFFF6F
:10317000FFFFFFFFFFFFFFFFFFFFFFFFFFFFFFFF5F
:10318000FFFFFFFFFFFFFFFFFFFFFFFFFFFFFFFF4F
:10319000FFFFFFFFFFFFFFFFF20BFFFFFFFFFFFF40
:1031A000FFFFFFFFFFFFFFFFFFFFFFFFFFFFFFFF2F
:1031B000FFFFFFFFFFFFFFFFFFFFFFFFFFFFFFF02E
:1031C000006FFFFFF19FFC000FFFFFFFFFFFFFFFFE
:1031D000FFFFFFFFFFFFFFFFFFFFFFFFFFFFFFFFFF
:1031E000FFFFFFFFFFFFFFFFFFFFFFFFFFFFFFFFEF
:1031F000F00FFFFFFFFFFFFFFFFFFFFF00FFFFFFDD
:10320000FFFFFFFFFFFFFFFFFFFFFFFFFFFFFFFFCE
:10321000FFFFF00FFFFFFFFFF00FFFFFFFFFFFFFBC
:10322000FFFFFFFFFFFFFFFFFFFFFFFFFFFFFFFFAE
:10323000FFFFFFFFFFFFFFE04FFFFFFFFFFFFFF973
:10324000100FFFF0FFFFF0017FFFFFFFFFFFFFFF09
:10325000FFFFFFFFFFFFFFFFFFFFFFFF0FFFFFFF6E
:10326000FFFFFFFFFFFFFFFFFFFFFFFFFFFFFFFF6E
:10327000FFFFFFFFFFFFFFFFFFFFFF38FFFFFFFF25
:10328000FFFFFFFFFFFFF3CFFFFFFFFFFFFFFFFF8A
:10329000FFFFFFFFFFFFFFFFFFFFFFFFFFFFFFFF3E
:1032A000FFFFFFFFFFFFFFFFFFFFFFFFFFFFFFFF2E
:1032B000FFFFFFFFFFFFFF38FFFFFFFFFFFFFFFFE5
:1032C000FFFFFFFFFFFFFFFFFFFFFF81006FFFFF1B
:1032D000FFFFFFFFFFFFFFFFFFFFFFFFFFFFFFFFFE
:1032E000FFFFFFFFFFFFFFFFFFFFFFFFFFFFFFFFEE
:1032F000FFFFFFFFFFFFFFFFFFFFFFFFFFFFFFFFDE
:10330000FFFFFFFFFFFFFFFFFFFFFFFFFFFFFFFFCD
:10331000FE3EFFFFFFFFFFFFFFFFFFFFFFFFFFFF7F
:10332000FFFFFFFFFFFFFFFFFFFFFFFFFFFFFFFFAD
:10333000FFFFFFFFFFFFFFFFFFFFFFFFF82FFFFF74
:10334000FFFFFFFFFFFFFFFFFFFFFFFFFFFFFFFF8D
:10335000FFFFFFFFFFFFFFFFFFFFFFFFFFFFFFFF7D
:10336000FFFFFFFFFFFFFF6EA03FFFFFFFFFFFFF1D
:10337000FFFFFFFB01FFFFFFFFFFFFFFFFFFFFFF5F
:10338000FFFFFFFFFFFFFFFFFFFFF00FFFFFFFFF4C
:10339000F00FFFFFFFFFFFFFFFFFFFFFFFFFFFFF3C
:1033A000FFFFFFFFFFFFFFFFFFFFFFFFFFFFFF70BC
:1033B000BFFFFFFFFFFFFFFFFFFFFFF0FFFFFFFF6C
:1033C000FFFFFFFFFFFFFFFFFFFFFFFFFFFFFFFF0D
:1033D000FFFFFFFFFFFFFFFFFFFFFFFFFFFFFFFFFD
:1033E000FFFFFFFFFFFFFFFFFFFFFFFFFFFFFFFFED
:1033F000FFFFFFFFFFFFFFFFFFFFFFFFFFFFFFFFDD
:10340000FFFFFFFFFFFFFFFFFFFFFFFFFFFFFFFFCC
:10341000FFFFFFFFFFFFFFFFFFFFFFFFFFFFFFFFBC
:10342000FFFFFFFFFFFFFFFFFFFFFFFFFFFFFFFFAC
:10343000FFFFFFFFFFFFFFFFFFFFFFFFFFFFFFFF9C
:10344000FFFFFFFFFFFFFFFFFFFFFFFFFFFFFFFF8C
:10345000FFFFFFFFFFFFFFFFFFFFFFFFFFFFFFFF7C
:10346000FFFFFFFFFFFFFFFFFFFFFFFFFFFFFFFF6C
:10347000FFFFFFFFFFFFFFFFFFFFFFFFFFFFFFFF5C
:10348000FFFFFFFFFFFFFFFFFFFFFFFFFFFFFFFF4C
:10349000FFFFFFFFFFFFFFFFFFFFFFFFFFFFFFFF3C
:1034A000FFFFFFFFFFFFFFFFFFFFFFFFFFFFFFFF2C
:1034B000FFFFFFFFFFFFFFFFFFFFFFFFFFFF00001A
:1034C0000000FFFFFFFFFFFFFFFFFFFFFFFFFFFF0A
:1034D000FFFFFFFFFFFFFFFFFFFFFFFFFFFFFFA15A
:1034E00003DFFFFFFFFFFFFFFFFFF0002BFFFFFFEA
:1034F000FFFFFFFFFFFFFFFFFFFFFFFFFFFFFFFFDC
:10350000FFFFF00FFFFFFFFFF00FFFFFFFFFFFFFC9
:10351000FFFFFFFFFFFFFFFFFFFFFFFFFFFFFFFFBB
:10352000FFFFFFFFFFFFF005FFFFFFFFFFFFFFFFB4
:10353000FFFFFFFFFFFFFFFFFFFFFFFFFFFFAFAA40
:10354000FAAFAAFAAFAAFAAFAAFAAFAAFAAFAAFAE2
:10355000AFAAFAAFAAFAAFAAFAAFAAFAAFAAFAAF1D
:10356000AAFAAFAFFEFFCEFAEFAFFAFFCAFAAFAAE0
:10357000FAAFAAFAAFAAFAAFAAFAAFAAFAAFAAFAB2
:10358000AFAAFAAFAAFAAFAAFAAFAAFAAFAAFAAFED
:10359000AAFAAFAAFAAFAAFAAFAAFAAFAAFAAFAAE2
:1035A000FAAFAAFAAFAAFAAFAAFAAFAAFAAFAAFA82
:1035B000AFAAFAAFAAFAAFABFBFFDEEADD7CD4CD4F
:1035C0002DD4DE7FFBAFAAFAAFAAFAAFAAFAAFAA50
:1035D000FAAFAAFAAFAAFAAFAAFAAFAAFAAFAAFA52
:1035E000AFAAFAAFAAFAAFAAFAAFAAFAAFAAFAAF8D
:1035F000AAFAAFAAFAAFAAFAAFAAFAAFAAFAAFAA82
:10360000FAAFAAFAAFAAFAAFAAFAAFAAFADFDFFCBA
:10361000DE7CD4CD3CD3CD2CD2CD3CD4DE7FFBFFA1
:10362000DAFAAFAAFAAFAAFAAFAAFAAFAAFAAFAA21
:10363000FAAFAAFAAFAAFAAFAAFAAFAAFAAFAAFAF1
:10364000AFAAFAAFAAFAAFAAFAAFAAFAAFAAFAAF2C
:10365000AAFAAFAAFAAFAAFAAFAAFAAFAAFAAFAA21
:10366000FAAFAAFAFFCDE7CD3BD2BE3AD3AC3BD4FA
:10367000BD3CE3CD3CD4EE7FFBFFDAFAAFAAFAAF54
:10368000AAFAAFAAFAAFAAFAAFAAFAAFAAFAAFAAF1
:10369000FAAFAAFAAFAAFAAFAAFAAFAAFAAFAAFA91
:1036A000AFAAFAAFAAFAAFAAFAAFAAFAAFAAFAAFCC
:1036B000AAFAAFAAFAAFAAFADFCEFCCD7BD3BE1B23
:1036C000E39C35914816A39C4AE3BE2CE2CD2CD551
:1036D000DE9FFBFFDFFEAFAAFAAFAAFAAFAAFAAFEE
:1036E000AAFAAFAAFAAFAAFAAFAAFAAFAAFAAFAA91
:1036F000FAAFAAFAAFAAFAAFAAFAAFAAFAAFAAFA31
:10370000AFAAFAAFAAFAAFAAFAAFAAFAAFAFFDEF23
:103710009CD5CD3CD3BD38B349238238328339267A
:10372000B39D3BD3CD3CD3CD4CD5EE9FFBFFDAFA16
:10373000AFAAFAAFAAFAAFAAFAAFAAFAAFAAFAAF3B
:10374000AAFAAFAAFAAFAAFAAFAAFAAFAAFAAFAA30
:10375000FAAFAAFAAFAAFAAFAAFAAFAAFAAFAAFAD0
:10376000AFAAFAFFDEE8CD3CE2CE2BD38A34833811
:1037700042832932932833844837A3AC3BD2CD2CE3
:10378000D3CD5DD7EEAFFDAFAAFAAFAAFAAFAAFAD2
:10379000AFAAFAAFAAFAAFAAFAAFAAFAAFAAFAAFDB
:1037A000AAFAAFAAFAAFAAFAAFAAFAAFAAFAAFAAD0
:1037B000FAAFAAFAAFAAFAFFEFFCDD6CD4CD2CD396
:1037C000AD45A33833843847B8BEC9C95963843876
:1037D00033823927B2AD3BE3BD3CD3CD4DD6FFAFED
:1037E000FDAFAAFAAFAAFAAFAAFAAFAAFAAFAAFA3D
:1037F000AFAAFAAFAAFAAFAAFAAFAAFAAFAAFAAF7B
:10380000AAFAAFAAFAAFAAFAAFAAFAAFAEFDFFBD05
:10381000E6CD3CD2CD3AD45923822933848B9DFE08
:10382000EFEEFEDED8B84843842833825928C3BE61
:103830003BD2CD2CD2CD4DE8FFBFFEAFAAFAAFAA46
:10384000FAAFAAFAAFAAFAAFAAFAAFAAFAAFAAFADF
:10385000AFAAFAAFAAFAAFAAFAAFAAFAAFAAFAAF1A
:10386000AAFADFDEEADD6CD3CD2BE38C3482383369
:1038700083494ADBEFEFFFFFFFFFFFFEFECFD7A834
:103880004853842843825929C3BD3CD2CD3CD3CD73
:103890004DE7FFBFFEAFAAFAAFAAFAAFAAFAAFAAE6
:1038A000FAAFAAFAAFAAFAAFAAFAAFAAFAAFAAFA7F
:1038B000AFAAFAAFAAFAAFAFFEDEACD5CD3CD3BD0E
:1038C00038C2391283284495BEBEFEFFFFFFFFFFBA
:1038D000FFFFFFFFFFFEFEBDC597285384383482EB
:1038E0006A29C3BE3BD2CD2CD2DD5EE9FFDAFAAF46
:1038F000AAFAAFAAFAAFAAFAAFAAFAAFAAFAAFAA7F
:10390000FAAFAAFAAFAAFAAFAAFAAFAAFAFFCDE8BD
:10391000CD4CD2BD3AD46A23812922835A6CFDEF63
:10392000FFFFFFFFFFFFFFFFFFFFFFFFFFFFEFFEB8
:10393000FEADA5963842842933925A2AD3BD3CD293
:10394000CD2CD3CD4EE9FFDAFAAFAAFAAFAAFAAF7F
:10395000AAFAAFAAFAAFAAFAAFAAFAAFAAFAAFAA1E
:10396000FAFFEFFBDD6DD3CD2BE2AD35A23822831C
:103970002846A7CFDEFFFFFFFFFFFFFFFFFFFFFF90
:10398000FFFFFFFFFFFFFFFEFFEDFD8C9395294238
:10399000933924927A3AD4BE2BE2CD3CD4DD6FEA3F
:1039A000FFEAFAAFAAFAAFAAFAAFAAFAAFAAFAAF39
:1039B000AAFAAFAAFAAFAFFDFFACD4CD3CD1CD2966
:1039C000C35913822843858BADFEFFFFFFFFFFFF26
:1039D000FFFFFFFFFFFFFFFFFFFFFFFFFFFFFFFFF7
:1039E000FFFEEFECFD6B83952833833834927B3AEE
:1039F000D4BE3CD2DD2DD3ED6FFAFFDAFAAFAAFACE
:103A0000BFBCFCCFCCFCCFCCFCBFBBFBFFEEE9CDF9
:103A10005CD2CD2BD29B25923823833858CAEFFF36
:103A2000FFFFFFFFFFFFFFFFFFFFFFFFFFFFFFFFA6
:103A3000FFFFFFFFFFFFFFFFFFFFFFFFEFFCED6A50
:103A400073842833833835938B3BD3CD2CD1DE2C34
:103A5000D3DE8FFCDFCAFABFBCFCCFCCFCCFCBFBE4
:103A6000FFEFFCEE8CC4CD3BD3AD47A248128338A8
:103A70003495BDCEFFFFFFFFFFFFFFFFFFFFFFFFFE
:103A8000FFFFFFFFFFFFFFFFFFFFFFFFFFFFFFFF46
:103A9000FFFFFFFFFFFFEFEADA5A63843843833802
:103AA00025A29C2BE2BD2CD3CD4DD6FFBFFDBFBCC4
:103AB000FCCFCBFBBFBBFBFFBDD5CD2CE2CD3AD4B9
:103AC0005A33822832936A7CEDFFFFFFFFFFFEFF2F
:103AD000FFFFFFFFFFFFFFFFFFFFFFFFFFFFFFFFF6
:103AE000FFFFFFFFFFFFFFFFFFFFFFEFFFFFFFFFF6
:103AF000EFE9CA5963833832823926A39D5BD4CD5E
:103B00002DD3DD8FFCBFBCFCBFBBFBFFEEEACD5C61
:103B1000D3CD1BE29D34922832843847B8DFDEFFD4
:103B2000FFFFFFFFFFFFFFFFFFFFFFFFFFFFFFFFA5
:103B3000FFFFFFFFFFFFFFFFFFFFFFFFFFFFFFFF95
:103B4000FFFFFFFFFFFFFFFFFFFFDFD8B838428313
:103B50002932844937B3CD4CD3CD5EE9BFBBFBCF0F
:103B6000CFFDEE8DD4CD3CD3BD38C339129328336D
:103B7000849DAEFFFFFFFFFFFFFFFFFFFFFFFFFF83
:103B8000FFFFFFFFFFFFFFFFFFFFFFFFFFFFFFFF45
:103B9000FFFFFFFFFFFFFFFFFFFFFFFFFFFFFFFF35
:103BA000FFFFEEFE9C93832832842834819C3CD313
:103BB000CD3DE7BFBCFCFFCDE9DD5CD3CD4BD47B75
:103BC0003481392283495BDBEFEFFFFFFFFFFFFF0B
:103BD000FFFFFFFFFFFFFFFFFFFFFFFFFFFFFFFFF5
:103BE000FFFFFFFFFFFFFFFFFFEFFFFFFFFFFFFFF5
:103BF000FFFFFFFFFFFFFFFFFFFEFFADB2722932A5
:103C000083282590AD2CD2CD2CD6CFCFFCDD7BD414
:103C1000BD3CE3AC46933832832846A7CFCFFFFFA5
:103C2000FFFFFFFFFFFFFFFFFFFFFFFFFFFFFFFFA4
:103C3000FFFFFFFFFFFFFFFFFFFFFFFFFFFFFFFF94
:103C4000FFFFFFFFFFFFFFFFFFFFFFFFFFFFFFFF84
:103C5000FFFFBEC3822824A47C49D2CE2CD1CD2C18
:103C6000E6FFEDE9CD4CE3BE39C3592382284284F7
:103C70005B7CFDFFFFFFFFFFFFFFFFFFFFFFFFFF7D
:103C8000FFFFFFFFFFFFFFFFFFFFFFFFFFFFFFFF44
:103C9000FFFFFFFFFFFFFFFFFFFFFFFFFFFFFFFF34
:103CA000FFFFFFFFFFFFFFFFFFCEC3833925A4AE59
:103CB0005CE2CD1CD2CD4EF9FFCCD6CD2CD18C24DC
:103CC000923813832832846B8EFFFFFFFFFFFFFFC4
:103CD000FFFFFFFFFFFFFFFFFFFFFFFFFFFFFFFFF4
:103CE000FFFFFFFFFFFFFFFFFFFEFEEFEFFFFFFF06
:103CF000FFFFFFFFFFFFFFFFFFFFFFFFFFFFFFFFD4
:103D0000DFD3833825A3AD4CD2CD2CD4EE8FFCFF6E
:103D1000BCD5CD2BD15A12933823922922836B8F95
:103D2000FFFFFFFFFFFFFFFFFFFFFFFFFFFFFFFFA3
:103D3000EFFEFFDFECEDEFFEFFFFFFFFFFFFFFEF0A
:103D4000E8B86967A7AC9BEBDFDEFDFFEFFFFFFF85
:103D5000FFFFFFFFFFFFFFDFD384283593BD4DD268
:103D6000DD3EE8FFCCFCFFBCD6CD3CE27B23924994
:103D700026B43912826A7FFFFFFFFFFFFFFFFFFFBC
:103D8000FFFFFFFFEFEEFEDFD9C96964859CBEFE31
:103D9000FFFFFFFFFFFEDED47537438428328348E0
:103DA00056A7EFEFFFFFFFFFFFFFFFFFFFFFEFD47F
:103DB00084283493BD4DC2DD4FFBCFCCFCFFDDE842
:103DC000CD4CD3BE39C4AD49C52812935A6FFFFFFD
:103DD000FFFFFFFFFFFFFFFFFFFEFEBEC7A8485427
:103DE000853844859CAEFEFFFFFFFFFFFFEFE9BA79
:103DF000697496284384385586DFEFFFFFFFFFFF85
:103E0000FFFFFFFFFFEFE485283492BD3DD2DD5E6A
:103E1000FBCFCCFCFFEFFCDD7BD3CD1CD2CD3AC475
:103E2000392183495FFEFFFFFFFFFFFFFFFFFFEF29
:103E3000FDFD4754843842834959CADFEFFFFFFF35
:103E4000FFFFFFFFFFFFFFEFEDFEBECADBACACDC08
:103E5000FFFFFFFFFFFFFFFFFFFFFFFFEFE49529DD
:103E60004492BD2DD1CD4DEBCFCCFCAFABFBEFBC25
:103E7000D7CD3DD1DD2AC4492294495FFEFFFFFF23
:103E8000FFFFFFFFFFFFFFFDFD5854856A7AEBDF60
:103E9000DEFEFFFFFFFFFFFFFFFFFFFFFFFFFFFF54
:103EA000FFFFFFFFFFFFFFFFFFFFFFFFFFFFFFFF22
:103EB000FFFFFFEFE496294392BD2DD1CD4EEACF0F
:103EC000CCFCAFAAFAAFAFFEEE9CD3CD2BD34922E8
:103ED00084495FFFFFFFFFFFFFFFFFFFFFFFFFFFC3
:103EE000CEDCDCEFFFFFFFFFFFFFFFFFFFFFFFFF69
:103EF000FFFFFFFFFFFFFFFFFFFFFFFFFFFFFFFFD2
:103F0000FFFFFFFFFFFFFFFFFFFFEFE59628439353
:103F1000AD3CD1CD3EEAAFAAFAAFAAFAAFAAFAFFFA
:103F2000BCD4CD2BD3593284494FFFFFFFFFFFFF95
:103F3000FFFFFFFFFFFFFFFFFFFFFFFFFFFFFFFF91
:103F4000FFFFFFFFFFFFFFFFFFFFFFFFFFFFFFFF81
:103F5000FFFFFFFFFFFFFFFFFFFFFFFFFFFFFFFF71
:103F6000FFEFF6A7284383AD3CD1CD3EE9AFAAFAD7
:103F7000AFAAFAAFAAFAFFBCD4CD3BD359328439E9
:103F80004FFFFFFFFFFFFFFFFFFFFFFFFFFFFFFFF1
:103F9000FFFFFFFFFFFFFFFFFFFFFFFFFFFFFFFF31
:103FA000FFFFFFFFFFFFFFFFFFFFFFFFFFFFFFFF21
:103FB000FFFFFFFFFFFFFFFFEFF7B82833839C2CC5
:103FC000D1CD3EE8AFAAFAAFAAFAAFAAFAFFCCD594
:103FD000CD3CD36A3293384EFFFFFFFFFFFFFFFF58
:103FE000FFFFFFFFFFFFFFFFFFFFFFFFFFFFFFFFE1
:103FF000FFFFFFFFFFFFFFFFFFFFFFFFFFFFFFFFD1
:10400000FFFFFFFFFFFFFFEFFFFFFFFFFFFFFFFFD0
:10401000F8B82833839C2CD2CD3DE7AFAAFAAFAADB
:10402000FAAFAAFAFFCCD6CD3CD37A3293383EFE13
:10403000FFFFFFFFFFFFFFFFFFFFFFFFFFFFFFFF90
:10404000FFFFFFFFFFFFFFFFFFFFFFFFFFFFFFFF80
:10405000FFFFFFFFFFFFFFFFFEFFBDB8A8BDBFFFD3
:10406000FFFFFFFFFFFFFFF8C92832838B2BE2CD54
:104070003DE7AFAAFAAFAAFAAFAAFAFFDDD6CD3C68
:10408000D37B3292283DEDFFFFFFFFFFFFFFFFFFD5
:10409000FFFFFFFFFFFFFFFFFFFFFFFFFFFFFFFF30
:1040A000FFFFFFFFFFFFFFFFFFFFFFFFFFFFFFFE21
:1040B000FF7974747A7EFEFFFFFFFFFFFFFFF9CAEE
:1040C0002832837A2BE3CD3DD5AFAAFAAFAAFAAF57
:1040D000AAFAFFDDE7CD3CD28B3292283CEDFFFF00
:1040E000FFFFFFFFFFFFFF9BA8A8DEDFFFFFFFFF33
:1040F000FFFFFFFFFFFFFFFFFFFFFFFFFFFFFFFFD0
:10410000FFFFFFFFFFFFFEFE6974846A7DFEFFFF75
:10411000FFFFFFFFFFFACA3832836A2BE3CD3DD59C
:10412000BFBAFAAFAAFAAFAAFAFFEDE8CD4DD29C1A
:104130003292283ACBFFFFFFFFFFFFFFFEFF5864DC
:10414000758B9EFEFFFFFFFFFFFFFFFFFFFFFFFFDF
:10415000FFFFFFFFFFFFFFFFFFFFFFFFFFFEFE5917
:1041600063846A6DFEFFFFFFFFFFFFFFFBDB38325A
:10417000836A2BE3BD2DD4EFCAFAAFAAFAAFAAFA2D
:10418000FFEDE9CD4DD29C32922939BAFFFFFFFFF6
:10419000FFFFFFFDFE5963846A7EFEFFEFFFFFFF16
:1041A000FFFFFFFFFFFFFFFFFFFFFFFFFFFFFFFF1F
:1041B000FFFFFFFFFDFE4853846B7DFEFFFFFFFF07
:1041C000FFFFFFFBDB393283592BD4BD2CD3FFDA41
:1041D000FAAFAAFAAFAAFAFFEEE9CD4DD2AC32910E
:1041E0002938B9EFFFFFFFFFFFFFFEFE6B72844926
:1041F0005CECFFFFFFFFFFFFFFFFFFFFFFFFFFFF85
:10420000FFFFFFFFFFFFFFFFFFFFFFFCFD384384C1
:104210007B8EFEFFFFFFFFFFFFFFFCDB3932934980
:104220002AD4BD2CD3FFCAFAAFAAFAAFAAFAAFAE0E
:10423000FACD3CD3BD43812936B7EFFFFFFFFFFF27
:10424000FFFFFE9DA2842849DAFFFFFFFFFFFFFF6B
:10425000FFFFFFFFFFFFFFFFFFFFFFFFFFFFFFFF6E
:10426000FFEFE9C9383384ADBEFFFFFFFFFFFFFF5B
:10427000FFFCEC484293392AD4CD2CD2EFBAFAAFE6
:10428000AAFAAFAAFAAFAFFBBD3CD3BD4481293532
:10429000B6DFFFFFFFFFFFFFFFFFCEC48528459677
:1042A000EFEFFFFFFFFFFFFFFFFFFFFFFFFFFFFF3E
:1042B000FFFFFFFFFFFFFEFFCFD596384595DFDFFD
:1042C000FFFFFFFFFFFFFFFFFDED485293392AC4B8
:1042D000CD2CD2EFAAFAAFAAFAAFAAFAAFAFFBCDB4
:1042E0004CD3BD44912834A6DFEFFFFFFFFFFFFF53
:1042F000FFEFE8B83842849DAEFEFFFFFFFFFFFFEF
:10430000FFFFFFFFFFFFFFFFFFFFFFFFEFEDFE7B64
:1043100083843849C9FFFFFFFFFFFFFFFFFFFFFD59
:10432000ED4952933929C4CD2CD2EE9AFAAFAAFAAC
:10433000AFAAFAAFAFFBCD4CD3CD4591283495CE83
:10434000DFFFFFFFFFFFFFFFFFECEC385284496BFC
:10435000ECFFEFFFFFFFFFFFFFFFFFFFFFFFFFFF90
:10436000FFFFFFEFDADB385385596DEDFFFFFFFFED
:10437000FFFFFFFFFFFFFEFE5952933829C3CD2CEC
:10438000D3DE8AFACFCCFCCFCCFCCFCFFCCD5CD334
:10439000CD35A1283394CEDFFFFFFFFFFFFFFFFFE6
:1043A000FFFF9CA385284495BEBFFFFFFFFFFFFFD3
:1043B000FFFFFFFFFFFFFFFFFDFE9C948538548544
:1043C000CEDFFFFFFFFFFFFFFFFFFFFFFFFEFE59F6
:1043D00062933829B3CD3CD3DE7DFCCFCCFCCFCC6F
:1043E000FCCFCFFCCD6CD3CD36A2283384CECFFF0B
:1043F000FFFFFFFFFFFFFFFFFFEFE8B938438458DF
:1044000059CACEDEFEEFFFFFFFFFFFEFFDFEBEC687
:10441000A74843845859CAEFFFFFFFFFFFFFFFFF84
:10442000FFFFFFFFFEFF5A62933828B3CD3CD3DD78
:104430007FFDCFCCFCCFCCFCCFCFFDCD6CD3CD2737
:10444000A2283383BEBFFFFFFFFFFFFEFFFFFFFF7A
:10445000FFFEFE9C94853842734956B78C89C99CEF
:1044600099C97B8596384384384585BDBFFFFFFFDA
:10447000FFFFFFFFFFFFFFFFFFFFFFFEFF6A7293DB
:104480003837A3CD3CD3CD6FFCCFCCFCCFCCFCCF09
:10449000CFFDDE7CD3CD27B22832839C9FFFFFFF68
:1044A000FFFFFFFFFFFFFFFFFFFFEFEBDB6A7394F0
:1044B0002833833833833833833833833834958BC8
:1044C0008CECFFFFFFFFFFFFFFFFFFFFFFFFFFFF82
:1044D000FFFFFFFF6A72943837A2CD3CD3CD5FFC5B
:1044E000CFCCFCCFCCFCCFCFFDDE8CD3CD28C228E7
:1044F00032838B8FFFFFFFFFFFFFFFFFFFFFFFFFF9
:10450000FFFFFFFFDFEADA7B759648438438438478
:104510004856A69C9CECEFFFFFFFFFFFFFFFFFFF4D
:10452000FFFFFFFFFFFFFFFFFFFFFF7B81942836A8
:1045300092CD3CD3CD5FFBCFCCFCCFCCFCCFCFFE1C
:10454000DE8CD3CD28C33832836A6FFFFFFFFFFFB5
:10455000FFFFFFFFFFFFFFFFFFFFFFFFFFFFFFFE6C
:10456000FEDFEDFEDFEDFEEFEEFEFFFFFFFFFFFFE4
:10457000FFFFFFFFFFFFFFFFFFFFFFFFFFFFFFFF4B
:10458000FFFF7B9294283691CD3CD3CD4EFACFCC11
:10459000FCCFCCFCCFCFFDEE8CD4CD29C3382293F9
:1045A000595EFFFFFFFFFFFFFFFFFFFFFFFFFFFF62
:1045B000FFFFFFFFFFFFFFFFFFFFFFFFFFFFFFFF0B
:1045C000FFFFFFFFFFFFFFFFFFFFFFFFFFFFFFFFFB
:1045D000FFFFFFFFFFFFFFFFFE8C9284283591BD98
:1045E0003CE2CD3EFACFCCFCCFCCFCCFCFFEEE9C54
:1045F000D4CD3AC4492292394DFEFFFFFFFFFFFFA1
:10460000FFFFFFFFFFFFFFFFFFFFFFFFFFFFFFFFBA
:10461000FFFFFFFFFFFFFFFFFFFFFFFFFFFFFFFFAA
:10462000FFFFFFFFFFFFFFFFFFFFFFFFFEFFEFFEAC
:104630009CA384383492AD3CD2CD3EFACFCCFCCF93
:10464000CCFCCFCCFCEEACD4CD2AD4492282394D5F
:10465000EDFFFFFFFFFFFFFFFFFFFFFFFFFFFFFF7C
:10466000FFFFFFFFFFFFFFFFFFFFFFFFFFFFFFFF5A
:10467000FFFFFFFFFFFFFFFFFFFEFFEFFEFFEFFE6D
:10468000FFEFFEFEEFDCFC7B8284383582BD4CD32D
:10469000CD3EFACFCCFCCFCCFCCFCCFCEFBCD4CD04
:1046A0002BD4592283384BDBFFFFFFFFFFFFFFFFB7
:1046B000FFFFFFFFFFFFFFFFFFFFFFEFFFFFFFFF1A
:1046C000FFFFFFEFFEFFEFFEFEEFEDFDCECBECBDFB
:1046D000BACA9C98C87B76A74A6395383383283238
:1046E00094282491AD4CD3CD4EFACFCCFCCFCCFC4A
:1046F000CFCCFCFFCCD4CD2BD35922933849DAEF61
:10470000FFFFFFFFFFFFFFFFFFFFFFEFFEFEEFEEEC
:10471000FEDFDDFDCFDCFCBEBADA8C97B86A86A777
:104720005965964954843843833833833832832813
:1047300042842832832832823815A1AD3CD3CD5E25
:10474000FBCFCCFCCFCCFCCFCCFCFFCCD4CD2BD33F
:104750005922932846B8BDBADBADB9CA9C98C97B2B
:1047600087B76A66965954954853853843843833D9
:104770008338338338338338338338238238238232
:104780003824924925925A36A37B37B37C38C39C90
:104790003AD3CE2CD2CD6FFCCFCCFCCFCCFCCFCC3F
:1047A000FCFFDCD5CD2BE36A328229339438438475
:1047B000384383383383383383382382382383382C
:1047C00033833833823824824825925925A25A26C9
:1047D000A27B37C38C39C49D4AD4AD4BD4BD2BD2F8
:1047E000CD3CD3CD3CD3CD3CD2DD2DD2EE9FFDCF01
:1047F000CCFCCFCCFCCFCCFCFFEDE7CD3CE39C3335
:10480000812813823823833833833834834934939F
:104810005935A35A36B37B27B38C38C39C3AC3AD02
:104820003BD3BD3BE3BE3BE2BE2BE2CE2CD2CD2C34
:10483000D2CD2CD2CD1CD1CD2CD3CD3CD3CC4CC49D
:10484000DD6EE8FFCBFBAFAAFAAFAAFAAFAAFAAFC8
:10485000AEFACD5CD3BD38C37B27B28B39C39C394C
:10486000C3AD3AD3BD4BD3BD3BD3BD3BD3BE3BD38E
:10487000CD3CE3CD3CD3CD3CD3CD3CD2CD2CD2CD21
:104880003CD3CD3CD3DD3DD4DD4DD5DD6DD7DE8DC4
:10489000E9EEAEEBFFCFFDFFDEFDBFBAFAAFAAFA3D
:1048A000AFAAFAAFAAFAAFAFFDED7DC3DD3BD3BE31
:1048B0003CD3CD3CD2CD2CD2CD2CD2CD2CD2CD2CB4
:1048C000D2CD2CD2CD3CD3CD3CD3CD4CD4CD5CD5A8
:1048D000DD5DD6DD7DE8EE8EE9EE9EFAEFBFFBFFF3
:1048E000BFFCFFDFFEEFDDFDFFEDFDDFCAFAAFAA83
:1048F000FAAFAAFAAFAAFAAFAAFAAFAAFAAFAAFA1F
:10490000FFBED7CD5CD5CD4CD4CD4CD5CD5CD5CD6F
:104910005CD5CD5DD6DD6DE6DE7DE8EE8EE9EE9F01
:10492000FAFFBFFBFFCFFCFFCFFDFFEEFDCFBAFAD2
:10493000AFAAFAAFAAFAAFAAFAAFAAFAAFAAFAAF29
:10494000AAFAAFAAFAAFAAFAAFAAFAAFAAFAAFAA1E
:10495000FAAFAAFAAFAAFACFBFFDEFBEEADE9EE930
:10496000EE9EEAEFBEFBFFCFFCFFDFFDFFDFFEEFB9
:10497000DAFAAFAAFAAFAAFAAFAAFAAFAAFAAFAABE
:10498000FAAFAAFAAFAAFAAFAAFAAFAAFAAFAAFA8E
:10499000AFAAFAAFAAFAAFAAFAAFAAFAAFAAFAAFC9
:1049A000AAFA6572726F72006368617267696E67F6
:1049B000006368617267656400626174746572792E
:1049C000206D6F64650011241FBECFEFD0E2DEBF03
:1049D000CDBF11E0A0E0B1E0E8E6F9E800E00BBFF0
:1049E00002C007900D92A039B107D9F713E0A0E9F2
:1049F000B1E001C01D92A236B107E1F733D00C94AB
:104A0000B2440C940000FB01DC018D9101908019EF
:104A10000110D9F3990B0895FB01DC01415050407E
:104A200030F08D910190801919F40020B9F7881B9E
:104A3000990B0895FB01DC014150504048F0019072
:104A40000D920020C9F701C01D9241505040E0F77F
:104A50000895F89481E085BF82E085BFE0E0F0EF43
:104A6000099508951F93CF93DF9304B603FE18C0F2
:104A7000F999FECF81E390E092BD81BDF89A80B5AF
:104A8000882371F0F999FECF1FBA81E390E092BDBF
:104A900081BD10BC0FB6F894FA9AF99A0FBED9DF0F
:104AA00089EF87BD84E085BD82E084BD80936E0080
:104AB000109280008AE08093810090E080E80FB639
:104AC000F89480936100909361000FBE84B7877F54
:104AD00084BF2FE088E190E00FB6F894A89580930A
:104AE00060000FBE20936000389A34D560E2809158
:104AF000540190915501F9D460E280915601909152
:104B00005701F3D415E010935A030E9430410E94DC
:104B100026370E94CF3F0E941C3F8AEE92E030D59C
:104B20006091EA027091EB028BE393E00E94352ED4
:104B30000E94993D8AEF90E0909352038093510335
:104B400010935A03C0E0D1E007C08A81882319F08E
:104B5000E881F9810995249681E0C431D807A9F745
:104B60006497FACF61E082EC93E40C949A4060E0A1
:104B700082EC93E40E949A4060E080EF96E20E940B
:104B80009A4086E3A0C0CF93DF93DA01E901292F91
:104B900033272230310539F02330310549F02130F7
:104BA0003105E9F420C0EAEAF0E083E490E01FC0B8
:104BB00090708130910551F08130910518F0029785
:104BC00071F408C0EDEEF0E0849107C0E1EFF0E091
:104BD000849103C0E9E0F1E0849190E008C080E0B6
:104BE000DF91CF910895E8E9F0E082E190E0ED9364
:104BF000FC939983888381E0F3CF80E090E0FC010F
:104C0000E55EFE4F2491F999FECF1FBA92BD81BD9A
:104C100020BD0FB6F894FA9AF99A0FBE0196893220
:104C2000910569F789E290E0FC01E651FF4F24917C
:104C3000F999FECF1FBA92BD81BD20BD0FB6F89481
:104C4000FA9AF99A0FBE01968133910569F7089592
:104C5000806C71988EBD0DB407FEFDCF8EB51EBC65
:104C60000DB407FEFDCF8EB5719A08950F931F9373
:104C70001FEF04E309C071980EBD0DB407FEFDCF10
:104C80008EB5719A115029F085E3E2DF8F718D3076
:104C900091F7E59AED9A1F910F9108951F93ED9862
:104CA0001FEF0AC0719885E38EBD0DB407FEFDCFDE
:104CB0008EB5719A115029F085E3CADF8F71833167
:104CC00089F71F91089571988EBD0DB407FEFDCF31
:104CD0008EB5719A08951F93DF93CF930F92CDB73E
:104CE000DEB741E0BE016F5F7F4F0196C6D1892BD1
:104CF000D9F08981ADDF182F83E4EDD140E362E084
:104D0000898190E042D288E491E026D240E362E0DB
:104D1000812F90E03AD284E491E01ED240E262E03A
:104D2000812F90E074D214D20F90CF91DF911F9118
:104D30000895699A719A8EE190E090D171988EE110
:104D400090E08CD1719A8DE290E088D1719880E3E7
:104D50008EBD0DB407FEFDCF8EB5719A84E690E04E
:104D60007DD1719880E48EBD0DB407FEFDCF8EB568
:104D700020E030E0F999FECF32BD21BDF89A80B530
:104D80008EBD0DB407FEFDCF8EB52F5F3F4F29328C
:104D9000310581F7719A71988EE78EBD0DB407FECB
:104DA000FDCF8EB529E230E0F999FECF32BD21BDAD
:104DB000F89A80B58EBD0DB407FEFDCF8EB52F5F7E
:104DC0003F4F2133310581F7719A719883E38EBD8E
:104DD0000DB407FEFDCF8EB5719A81E090E043C11E
:104DE00080916103882309F448C084E08093E9003E
:104DF000809190018823F9F48091E80085FD06C038
:104E00001AC06091F1008CEE92E07AD38091F200AA
:104E10009091F300892BA9F78091E8008F77809318
:104E2000E80081E080939001E0911003F09111037C
:104E300009951092900183E08093E9008091150319
:104E40008823D9F08091E80085FF17C0F89405C049
:104E500082E193E068D38093F10080911503882369
:104E600031F08091F2009091F300809788F378946C
:104E70008091E8008F778093E8000895813229F0CF
:104E8000823239F1803289F511C0613A71F5809131
:104E9000E800877F8093E80067E070E08DE491E0B0
:104EA0000E947A418091E8008B7F10C06132E9F462
:104EB0008091E800877F8093E80067E070E08DE4F0
:104EC00091E00E94C4418091E8008E7F8093E800C9
:104ED0000895613251F48091E800877F8093E80063
:104EE0008091E8008E7F8093E800089520E041ECF7
:104EF00068E070E082E00E94494124E041E860E21D
:104F000070E083E00E94494124E040E860E270E004
:104F100084E00E94494161E080EF96E20C949A405F
:104F20001F920F920FB60F9211242F938F939F937E
:104F3000809138038F5F809338038D37B8F180916B
:104F4000620181FF04C088B191E0892788B980910E
:104F500051039091520321E0843F92072CF4019673
:104F60009093520380935103809139038F5F809314
:104F70003903109238038C33C9F4809136038F5F64
:104F800080933603109239038C3381F48091370378
:104F90008F5F8093370310923603883139F4809104
:104FA0003A038F5F80933A03109237039F918F915A
:104FB0002F910F900FBE0F901F901895909139036D
:104FC000809191018917E9F0A895909391019091B2
:104FD0005903992351F0809155038F5F80935503B6
:104FE0008150891711F40E94664090913603809198
:104FF0009201891731F0909392010E945A3F1092CA
:105000005503089540E363E080913A0390E0FFD0B8
:1050100080E261D040E362E08091370390E0F7D016
:105020008AE359D040E362E08091360390E0EFD00C
:105030008AE351D040E362E08091390390E0E7D009
:105040008EE249D08091380390E040E363E023E0B2
:10505000880F991F2A95E1F7DAD07AC0880F991F37
:105060000197F1F7089520ED37E004C0F901319779
:10507000F1F701970097D1F70895DC01FB011EC0FD
:10508000822F80538A3010F050E002C0382B51E05C
:10509000822F8154863020F42753322B295C51E033
:1050A000822F8156863018F42755322B02C05523A3
:1050B00059F0992331F03193415049F030E090E0BC
:1050C00003C03295307F91E02D912223C9F6CF01A4
:1050D000861B970B08951F93CF93DF93182F809112
:1050E000580180FF0CC0C0915401D09155019B81A3
:1050F0008881981708F074DE612FCE0101D280916B
:10510000580181FF21C01D30F9F0809159011A30FA
:1051100089F4E82FF0E0ED56FE4F108280E3809393
:10512000940189E38093950183E991E00E94B03A6C
:1051300083E008C0833140F4E82FF0E0ED56FE4FE5
:1051400010838F5F80935901DF91CF911F91089554
:105150008DE0C1DF8AE0BFCFCF93DF93EC0102C0C7
:10516000BADF2196FE0184918823D1F7DF91CF9198
:105170000895CF93DF93EC0102C02196ACDF8881C4
:105180008823D9F7DF91CF910895DF93CF9300D093
:1051900000D00F92CDB7DEB71D82FE01349624E019
:1051A000582F5F7021505A3018F4352F305D02C0EF
:1051B000352F395C308334E0969587953A95E1F741
:1051C00061503197009761F72150822F992787FD11
:1051D00090952F5FFE013196E80FF91F03C0215013
:1051E00040833197615067FD02C01216C4F3332724
:1051F00027FD3095CE010196820F931FBADF0F90E5
:105200000F900F900F900F90CF91DF9108950F9313
:105210001F93DF93CF9300D000D000D0CDB7DEB77F
:105220009C01162F042F1E82FE01359645E0415049
:10523000C9016AE070E00E949E44805D8083C901DC
:105240006AE070E00E949E449B0111506115710557
:1052500059F44150842F992787FD90954F5FFE01A7
:105260003196E80FF91F07C03197442301F7F1CFBA
:10527000415000833197115017FD02C01416C4F33A
:10528000242F332727FD3095CE010196820F931FDF
:1052900070DF26960FB6F894DEBF0FBECDBFCF915C
:1052A000DF911F910F91089541E062E671E0019650
:1052B000E4DE8091620180FF02C040980895409A28
:1052C0000895DF93CF930F92CDB7DEB741E0BE01D3
:1052D0006F5F7F4F0196D1DE8981909158018823BD
:1052E00061F09260909358018AE591E00E94FB364C
:1052F00080E090E00E94A93F07C09D7F90935801F5
:105300008EE591E00E94FB360F90CF91DF910895DA
:105310000F931F93DF93CF9300D00F92CDB7DEB7DB
:1053200043E0BE016F5F7F4F0196A7DE9A8180E068
:105330002B81022F10E0082B192B40E364E0C801F9
:1053400024DF8AE3C8DE40E362E08091390390E025
:105350001CDF40E362E08091380390E016DF8DE2CD
:10536000BADE8981882319F4C80178DE02C0C80139
:105370007ADE40E362E08091390390E006DF40E3AB
:1053800062E08091380390E000DFE2DE0F900F9042
:105390000F90CF91DF911F910F91089582E591E0D9
:1053A000DBDE80E355DC40E362E090E0EEDE8EE29F
:1053B00092DE81E34DDC40E362E090E0E6DE80E2F5
:1053C0008ADE8EE491E0C8DEC3CE1F93182F0E94C0
:1053D0001641112371F0F999FECF1FBA81E390E0D5
:1053E00092BD81BD81E080BD0FB6F894FA9AF99A1A
:1053F0000FBE10926E00FFCF81E0E7CF80E0E5CFD7
:10540000DF93CF9300D00F92CDB7DEB743E0BE015C
:105410006F5F7F4F019631DE482F8230F0F0298197
:10542000823011F430E006C0922F80E02A8130E013
:10543000282B392BFE01E40FF11D8081F999FECF55
:105440001FBA32BD21BD80BD0FB6F894FA9AF99A01
:105450000FBE2932310508F46CDC0F900F900F90CD
:10546000CF91DF910895EF92FF921F93DF93CF9337
:1054700000D0CDB7DEB71B82198242E0BE016F5F5C
:105480007F4F0196FADD2981823041F4922F80E02E
:105490002A81E22EFF24E82AF92A02C0E22EFF2404
:1054A000F999FECFF2BCE1BCF89A10B582E513DEA3
:1054B00040E364E0C70169DE84E691E04DDE40E34D
:1054C00062E0812F90E061DE80E691E045DE40E21F
:1054D00062E0812F90E09BDE3BDE0F900F90CF913A
:1054E000DF911F91FF90EF900895FC01608313827C
:1054F000118212820895FC01138211821282089592
:10550000DC01FC0183819C91891760F48F5F8383A8
:105510008181E80FF11D64838F5FFD01818389170D
:1055200009F411820895DC01FC018381882311F4C0
:1055300020E00EC08150FD0183838281E80FF11DC0
:1055400024818F5FFD0182839C91891709F4128267
:10555000822F0895E4E6F0E080818B7F8083299A92
:1055600084B1876084B9239880E58CBD8DB5816056
:105570008DBD08958EBD0DB407FEFDCF8EB5089587
:10558000269A08952E9887EDF5DF80E0F3DF87FFF8
:10559000FCCF2E9A08950F931F938A012E986623AD
:1055A00011F483E801C086E8E5DF000F111F000F4A
:1055B000111F812FDFDF802FDDDF80E0DBDF2E9A00
:1055C0001F910F910895CF92DF92EF92FF920F9368
:1055D0001F93CF93DF93D42EC52E79012E98662387
:1055E00011F484E801C087E8C5DF80E0C3DF8F2DB8
:1055F000C1DF8E2DBFDF8D2D9C2D9C01E90104C0E4
:105600008991B8DF0150104001151105C9F72E9A94
:10561000DF91CF911F910F91FF90EF90DF90CF908E
:105620000895CF92DF92EF92FF920F931F93CF9343
:10563000DF93D42EC52E79012E98662311F481EDC7
:1056400001C083ED97DF80E095DF8F2D93DF8E2DF6
:1056500091DF8D2D9C2D9C01E90105C080E08ADF42
:1056600089930150104001151105C1F72E9ADF9161
:10567000CF911F910F91FF90EF90DF90CF90089501
:105680000F931F938A012E98662311F483E501C0BE
:1056900085E570DF000F111F000F111F812F6ADFDA
:1056A000802F68DF80E066DF2E9A1F910F910895AA
:1056B000CF93DF93EC018C8180FF0CC04A815B812A
:1056C00060E08881998167DF8C818E7F8C838881FF
:1056D000998158DF8C8181FF0CC040E050E061E08F
:1056E0008881998158DF8C818D7F8C838881998115
:1056F00049DF80E0DF91CF9108950F931F93FC0164
:105700009B01858190E08617970779F0658384E097
:10571000220F331F8A95E1F7AF014A5F5F4F00E127
:1057200010E061E0808191817CDF1F910F910895ED
:105730000F931F938C01E1DFF80186819781BC01F3
:1057400080E090E01F910F910895FF920F931F93B7
:10575000CF93DF93EC018B01F42E4A815B814617D6
:105760005707C9F08C8180FF0AC060E08881998169
:1057700012DF8C818E7F8C838881998103DF1B836C
:105780000A83FF2041F0A80160E08881998178DFD9
:1057900088819981F7DEDF91CF911F910F91FF9062
:1057A00008952F923F924F925F926F927F928F92C5
:1057B0009F92AF92BF92CF92DF92EF92FF920F93A0
:1057C0001F93DF93CF9300D000D0CDB7DEB75C013D
:1057D0004B015A834983B701A601400F511F621F35
:1057E000731F403080E0580781E0680780E0780749
:1057F0000CF08CC09FE18916910431F440505E4F4B
:10580000604070400CF082C038011601B401C5013F
:1058100074DFF501E680F780C601800F911FE8165E
:10582000F906A8F497838683940174E0220F331F4E
:105830007A95E1F7A5014A5F5F4F02E010E061E071
:1058400080819181C0DEF50184818260848327019B
:10585000452C55244694C201982F8827990F8E1500
:105860009F0518F40894411C511C7401F694FE2CF9
:10587000EE24F794E7940894E11CF11CC301892FEE
:1058800099278695E80EF91E2FEFC22E21E0D22E21
:10589000C620D72088249924612C92E0792E31C02B
:1058A00040E0E414F50408F441E0B701C5014DDF20
:1058B000C1018C0D9D1D8150924018F43C822B82B9
:1058C00005C0C3018C199D099C838B8349815A8132
:1058D000480D591D0B811C81960160E0F501808106
:1058E000918171DEF5018481816084838B819C814B
:1058F000281A390A880E991E0894E11CF11CCC2440
:10590000DD242114310461F680E001C082E00F90B3
:105910000F900F900F90CF91DF911F910F91FF90FB
:10592000EF90DF90CF90BF90AF909F908F907F903F
:105930006F905F904F903F902F9008952F923F92DD
:105940004F925F926F927F928F929F92AF92BF928F
:10595000CF92DF92EF92FF920F931F93CF93DF933B
:105960003C01EB011A0146015701C7DEF301268114
:1059700037812017310730F4B2E0CB2ED12CE12C47
:10598000F12C4DC0C601800F911F2817390710F068
:10599000240104C06901C01AD10A26017E01F694CF
:1059A000FE2CEE24F794E7940894E11CF11CC80146
:1059B000892F99278695E80EF91EEFEFAE2EE1E0CC
:1059C000BE2EA022B1228824992423C041E0B70131
:1059D000C301BBDEC6018A0D9B1D8150924010F4AD
:1059E000E60104C0C0E0D2E0CA19DB09A101480DFC
:1059F000591D8E01950160E0F3018081918111DED6
:105A0000CC1ADD0A8C0E9D1E0894E11CF11CAA2400
:105A1000BB24C114D104D1F66201EE24FF24B601E7
:105A2000C701DF91CF911F910F91FF90EF90DF9011
:105A3000CF90BF90AF909F908F907F906F905F902E
:105A40004F903F902F9008958F929F92AF92BF9268
:105A5000CF92DF92EF92FF920F931F93CF93DF933A
:105A6000EC014B0108E0C02ED12CC80ED91E4EE02F
:105A700050E0C6010E940C25009711F48D811AC0D8
:105A80001D8216E0A12EB12CAC0EBD1EEE24FF240B
:105A900000E110E09701A50161E088819981C1DDF5
:105AA0004EE050E0B401C6010E940C259C018D819E
:105AB000232B19F4282F30E00DC08F5F8D8380E1F8
:105AC00090E0E80EF91E90E0E91692E0F90601F781
:105AD0002FEF3FEFC901DF91CF911F910F91FF9001
