:10000000FEC000000C94AE0C18C1000016C1000028
:1000100014C1000012C1000010C100000EC1000098
:100020000CC100000AC1000008C1000006C10000A8
:1000300004C100000C94F30D00C10000FEC00000DC
:1000400098C20000FAC00000F8C00000F6C000002E
:100050000C94C1170C94F517F0C00000EEC000001E
:10006000ECC00000EAC00000E8C00000E6C00000EC
:10007000E4C00000E2C00000E0C00000DEC00000FC
:10008000DCC00000DAC00000D8C000006D67174275
:10009000400543A4014648084188094783074D129B
:1000A0000752FF04543B1556F80457B50558F8108D
:1000B00065740566FC166C6505744803758B1278CB
:1000C000A20200000000030F1E2627000000030FFD
:1000D0001E2536386700030F256740605000030F68
:1000E000275188838100030F2750C8C3C20027000F
:1000F0000000000000006700000000000000500049
:100100000000000000008100000000000000C200AC
:1001100000000000000D2E2D07D3913D0432000099
:10012000060021656A55E43023B900070018146CF5
:10013000070090876BF85611E92A001F4100072E2F
:10014000050DD391FF080500000C0021656A2D3BC9
:100150001322F862073F181D1CC700B0876BF8B662
:1001600011EA2A001F4100202F2000203D200056C8
:1001700020312E34362043534D38363800202F207E
:1001800000203D20004C4F56460D0A000007022E6D
:10019000030D04E905CA070C0B060D210E650F6A55
:1001A00010C81193120315341730181819161B4371
:1001B0002156250026112D353EC3FF000000424F79
:1001C00056460D0A0000535300547D7DFFFF4B4BF4
:1001D0007E7E00454F420D0A004E2F41004E2F41BA
:1001E0000020697320756E6B6E6F776E29205573D2
:1001F00065206F6E65206F66003F20280000112487
:100200001FBECFEFD0E4DEBFCDBF11E0A0E0B1E074
:10021000EAE2F2E300E00BBF02C007900D92A830C3
:10022000B107D9F712E1A8E0B1E001C01D92AF3BE0
:10023000B107E1F703D00C941319E2CE88E10FB6B1
:10024000F89480936000109260000FBE80E090E010
:1002500020E80FB6F89420936100809361000FBEF0
:100260003A9A429A0E94A2186DD489EF87BD84E021
:1002700085BD82E084BD80936E00109280008AE08C
:100280008093810084B7877F84BF2FE088E190E06E
:100290000FB6F894A895809360000FBE209360007D
:1002A00089E190E80E9498170E941A150E94980907
:1002B0008EE598E1909372068093710681E08093B9
:1002C0000B010E94291380910B01886080930B0120
:1002D000429878940E94BA170E94650E8AD10E94B3
:1002E000A3160E941211D7D6F5CF8EBD0DB407FE0E
:1002F000FDCF8EB508952C98806C8EBD0DB407FE91
:10030000FDCF8EB51EBC0DB407FEFDCF8EB52C9A69
:1003100008952C9880648EBD0DB407FEFDCF8EB578
:100320006EBD0DB407FEFDCF8EB52C9A08952C98A6
:100330008EBD0DB407FEFDCF8EB52C9A089586E3D1
:10034000F6DF109273060895A1E0B0E0EAEAF1E06A
:100350000C94D4180196BE016F5F7F4F41E003D328
:10036000892B41F18981893989F400E010E0802FDF
:10037000C2DFB2D2C80187709070079709F452D2D9
:100380000F5F1F4F0033110591F714C0B4DF182F12
:1003900083E410D28981A0D28BE691E047D2812FED
:1003A0009BD287E691E042D2812F90E062E040E26A
:1003B00097D238D22196E4E00C94F0181F931FEFE7
:1003C00084E3B5DF8AE090E070D11150C9F7E89A74
:1003D0001F9108951F93E89886E3A9DF1FEF85E337
:1003E000A6DF8AE090E061D11150C9F71F9108950E
:1003F000EF92FF920F93CF93DF93082F8A3008F08C
:1004000008E0C02FD0E083E0CC0FDD1F8A95E1F734
:10041000CB53DF4F8BE290E07C010894E11CF11C90
:10042000FE01649128D32196C70183339105A1F77A
:100430000550053010F067E101C061E184E290E011
:100440001AD3DF91CF910F91FF90EF900895CF9342
:10045000DF9382E090E0EC012196FE01EE5EFE4F1C
:10046000E4916E2F08D3CB32D10511F0CE01F3CF3A
:1004700087E390E0EC012196FE01EA5FFE4FE491F4
:100480006E2FF9D2C036D10511F0CE01F3CF88E03E
:10049000AFDFDF91CF9108950F931F93CF93DF9339
:1004A0008C01E898249A2C9A8EE190E0FED02C984A
:1004B0008EE190E0FAD02C9A8DE290E0F6D080E3C5
:1004C00036DF84E690E0F1D02C9880E48EBD0DB448
:1004D00007FEFDCF8EB5C0E0D0E0C8018C0F9D1F98
:1004E0008BD28EBD0DB407FEFDCF8EB52196C932DD
:1004F000D10599F72C9A2C988EE78EBD0DB407FE86
:10050000FDCF8EB58BE290E0EC01219675D28EBDC9
:100510000DB407FEFDCF8EB5C333D10511F0CE016A
:10052000F3CF2C9A83E303DF81E0C4D0DF91CF9136
:100530001F910F91089582E090E0AEDF81E08093FB
:1005400073060895A1E0B0E0E8EAF2E00C94D61852
:1005500022E029830196BE016F5F7F4F41E003D205
:10056000898146DF82E090E097DF2196E2E00C94FB
:10057000F2181F920F920FB60F9211248F939F9330
:10058000AF93BF938091750690917606A091770600
:10059000B09178060196A11DB11D809375069093C8
:1005A0007606A0937706B0937806809174068F5FE5
:1005B000809374068D3710F01092740680919A0A19
:1005C00090919B0A009729F0019790939B0A809342
:1005D0009A0A8091AD0A8F3F19F081508093AD0A3D
:1005E000BF91AF919F918F910F900FBE0F901F9071
:1005F00018959091750680910901981709F447C0E4
:1006000090930901A89580919A0A90919B0A892B51
:1006100011F40E94B7148091AD0A882311F40E944E
:100620009E1480918A0A882339F0815080938A0A27
:10063000882311F40E946F1280917406882339F583
:100640008091000181FF04C088B194E0892788B9B6
:100650008091790690917A0623E08438920728F4F5
:10066000019690937A0680937906809108018F5FB6
:10067000809308018C3359F4109208018091970AF5
:100680008F5F8093970A8C3310F01092970A089529
:100690008091780621D1809177061ED180917606CF
:1006A0001BD18091750618D1BDC0880F991F019785
:1006B000F1F7089520ED37E004C0F9013197F1F723
:1006C00081508823D1F70895CF93DF93AC01EC01DB
:1006D0008E81843509F06BC0688179819DE001C00D
:1006E0009F5F292F30E02617370730F4FA01E20F19
:1006F000F31F86818B33A1F76F50704026173707A1
:1007000009F055C0C92FD0E0FA01EC0FFD1F878119
:10071000843509F04CC027969A012C0F3D1F27976E
:10072000FA019781F9018181981709F040C0FA0117
:100730009085F90182819817D1F5FA019185F90127
:1007400083819817A1F5FA019285F90184819817A0
:1007500071F52496DA01AC0FBD1F2497C40FD51F85
:1007600085818C83FD013196E9018E8111968C93F0
:10077000DF01119689858183FD0131968A85119665
:100780008C93DF0111968B8581838C8511968C93D8
:1007900011978D8512968C93FA01808191810A9729
:1007A00091838083848195810A9795838483DF91E7
:1007B000CF9108951F93182F80910B0180FF13C0D4
:1007C0008091B30A9091B40A23E08E3F920738F0EB
:1007D0008050944040F41D3011F01A3021F48FEA1B
:1007E0009AE0612F13D28091950A8823C9F08091F5
:1007F0000B0183FF15C01A3099F01D3011F46BE323
:1008000001C0612F82E896E001D21D3019F482E820
:1008100096E05ADF83E080938A0A82E08093900A10
:100820001F9108958DE0C6DF8AE0C4CFCF93DF9398
:10083000EC0102C0BFDF2196FE0184918823D1F72D
:10084000DF91CF910895CF93DF93EC0102C0219601
:10085000B1DF88818823D9F7DF91CF910895A5E092
:10086000B0E0E5E3F4E00C94D6181D82FE01349666
:1008700024E0582F5F7021505A3018F4352F305D26
:1008800002C0352F395C308334E0969587953A95D0
:10089000E1F761503197009761F72150822F992736
:1008A00087FD90952F5FFE013196E80FF91F03C079
:1008B000215040833197615067FD02C01216C4F386
:1008C000332727FD3095CE010196820F931FBBDFA2
:1008D0002596E2E00C94F21890E062E040E3BFCF8E
:1008E000A6E0B0E0E6E7F4E00C94D4189C01162FE3
:1008F000042F1E82FE01359645E04150C9016AE091
:1009000070E00E94B218805D8083C9016AE070E0E7
:100910000E94B2189B0111506115710559F44150A4
:10092000842F992787FD90954F5FFE013196E80F40
:10093000F91F07C03197442301F7F1CF41500083DD
:100940003197115017FD02C01416C4F3242F33271A
:1009500027FD3095CE010196820F931F74DF2696F6
:10096000E4E00C94F018DC01FB0123C0822F8053DB
:100970008A3010F050E002C0382B51E0822F8154B1
:10098000863020F42753322B295C51E0822F815688
:10099000863018F42755322B07C0552329F420320E
:1009A00071F02A3361F00EC0992331F03193415038
:1009B00049F030E090E003C03295307F91E02D9116
:1009C0002223A1F6CF01861B970B0895FB01982FD8
:1009D00092959F709A3010F4905D01C0995C90835D
:1009E0008F708A3010F4805D01C0895C8183089526
:1009F0008FE691E01BDF16CF0C94FD180895EF925F
:100A0000FF921F93DF93CF9300D0CDB7DEB71B8249
:100A100019820196BE016F5F7F4F42E0A4DF2981FA
:100A2000823041F4922F80E02A81E22EFF24E82ACE
:100A3000F92A02C0E22EFF24C701DEDF182F82E56B
:100A4000B9DEC70164E040E30ADF81E891E0EEDE51
:100A5000812F42DF8DE791E0E9DE812F90E062E0B7
:100A600040E23EDFDFDE0F900F90CF91DF911F91CC
:100A7000FF90EF9008950E940519F999FECF08950F
:100A8000A1E0B0E0E6E4F5E00C94D61819820097F6
:100A900031F00196BE016F5F7F4F41E064DF8981D5
:100AA000882321F083E390E061E0E5DF10926E009F
:100AB000F89428E088E190E00FB6F894A895809328
:100AC00060000FBE20936000FFCF019660E071E0F0
:100AD00041E049DF6091000160FF02C0429A01C01D
:100AE000429884E390E0C7CF0F931F938C0180E07E
:100AF00090E061E0C0DF81E090E06EE2BCDFA7DC67
:100B000080E690E060E0B7DF81E690E060E0B3DF90
:100B100083E390E060E0AFDF84E390E062E0ABDF8E
:100B200080E690E060E0A7DF81E690E060E0A3DF90
:100B3000F8018181883719F080E090E0A1DF1F91F2
:100B40000F91089580E090E057DF813029F481E033
:100B500090E052DF8E3219F080E090E0C5DF84E350
:100B600090E04ADF809300010895A6E0B0E0EBEB4F
:100B7000F5E00C94D0186C010196BE016F5F7F4FB9
:100B800043E0F1DE082F8230A8F12981823019F488
:100B9000E22EFF2407C0922F80E02A81E22EFF245C
:100BA000E82AF92A10E0FE01E00FF11FC701608179
:100BB00062DF000F111F0F5F1F4F0C0D1D1D0894EA
:100BC000E11CF11C6E010894C11CD11C0FC0C801AE
:100BD000B60141E0C8DE892B69F0C70169814BDFAE
:100BE0000E5F1F4F82E090E0E80EF91EF801808151
:100BF000882369F72696E8E00C94EC18FC0115822E
:100C0000148211821082138212820895DC011496DC
:100C10008D919C91159724E080309207A8F401965D
:100C200015969C938E9314978D919C911197FD012D
:100C3000E80FF91F6683019611969C938E9380505E
:100C4000944011F41D921C920895DC0114968D912C
:100C50009C911597009711F420E019C00197159603
:100C60009C938E93149712968D919C911397FD01EE
:100C7000E80FF91F2681019613969C938E93129785
:100C80008050944021F413961C921E921297822F4A
:100C90000895CF93DF93DB01EA01322F4881882347
:100CA00069F0FB01E40FF11D81E090E002C0880FC4
:100CB000991F2A95E2F72081282B2083332319F0EE
:100CC000832F815009C0842F8F5F8C3008F4888374
:100CD000A80FB11D1C9287E090E0DF91CF9108959D
:100CE0001F93182F299A882319F080910E0102C0B2
:100CF00080910C0190E034E0880F991F3A95E1F75C
:100D0000D4DC2998112319F080910F0102C0809141
:100D10000D0190E024E0880F991F2A95E1F7C5DCCA
:100D20001F910895A0E0B0E0E8E9F6E00C94C9183E
:100D30004C01562ED42E122FC02E209179063091C0
:100D40007A0682E0D80ED09E802D11249EEFD90E17
:100D5000992787FD90952817390720F485E891E0B9
:100D600065DD5BC0281B390B30937A06209379062A
:100D7000429A80917306882309F4DDDB2BDB41E086
:100D8000642E712CA12EBB2410E003C080E0A8DFEC
:100D90001F5F1515D9F781E0A3DF8401FF2415C07B
:100DA000C7E0D0E093010C2E02C0220F331F0A943B
:100DB000E2F7F8018081822393DF2197FFEFCF3F95
:100DC000DF0781F7F3940F5F1F4FFD1449F7C7E06A
:100DD000D0E00D2D112707FD1095080D191D0CC031
:100DE00093010C2E02C0220F331F0A94E2F7F80180
:100DF0008081822375DF2197AC16BD068CF38E2D82
:100E000059DCCA9409F0C0CF80917B06882311F089
:100E1000D5DA02C086E38BDA4298CDB7DEB7EFE0D1
:100E20000C94E518A9E1B0E0E8E1F7E00C94CA18E9
:100E3000FEE0EF2EF12CEC0EFD1E0196B7014BE00B
:100E400092DD893009F05BC089E180930D018093C8
:100E50000C0180930E0182E380930F01C70169E0CA
:100E60008AD28F8B19821A8207E0A7E010E0E7E0B0
:100E70006E2E712C71E0872E912C570162E0C62EE8
:100E8000D12CCC0EDD1E7E010894E11CF11C01C0AA
:100E900007E0802F992787FD90959301281B390B38
:100EA000C40102C0880F991F2A95E2F79C01F50141
:100EB000E10FF11D80818223B601A7012A2FE9DE0F
:100EC000A82F002311F00150E4CF81E0B601A70163
:100ED0002A2FDFDEA82F1F5F1A30D0F2882319F0E7
:100EE000282F215004C089818F5F898327E0CE019C
:100EF00002966CE0498103E05AE0E52E13DF699623
:100F0000EEE00C94E618EF920F93DF93CF93CDB7FA
:100F1000DEB760970FB6F894DEBF0FBECDBF019667
:100F2000BE016F5F7F4F40E11EDD69814A810B8109
:100F30008C8180930C018D8180930D018E81809333
:100F40000E018F8180930F01242F2F70E02EE294E9
:100F5000AFE0EA22CE01089642954F700F70E2DEB4
:100F600060960FB6F894DEBF0FBECDBFCF91DF9174
:100F70000F91EF900895AEE0B0E0E1ECF7E00C9453
:100F8000C6187C01162F842F2E87B701412FE7D179
:100F9000F701E10FF11D8083A12EA39419821A821B
:100FA0004701BB24E7E091E0292E312C82E0482E56
:100FB000512C4C0E5D1E3E010894611C711C2FC00B
:100FC00007E010E06701CB0CD11C9101002E02C09C
:100FD000220F331F0A94E2F7D6018C918223B201CB
:100FE000A3012E2F56DEE82F01501040BFEF0F3F18
:100FF0001B0759F7D4018D914D01082E829580254C
:10100000082E86958695802590E001969595879582
:101010008170B201A3012E2F3CDEE82FB394BA14E5
:1010200078F2EE2319F02E2F215004C089818F5FB2
:10103000898327E089E180930D0180930C0185E28B
:1010400080930F0180930E01CE0102966CE04981DE
:101050000E85BAE0EB2E66DE2E96E2E10C94E218E5
:10106000ACE0B0E0E6E3F8E00C94D218F62EE42E03
:1010700001968E010F5F1F4FB8014BE074DC682FA3
:10108000C8014F2D2E2D77DF2C96E6E00C94EE183C
:1010900066E043E0E5CFACE3B0E0E1E5F8E00C94D6
:1010A000D11880911001882309F492C04A9B82C014
:1010B0008FE321D98F7789838E3110F08DE1898379
:1010C0002C988FEF12D910E022E0E22EF12CEC0EDA
:1010D000FD1E07C080E009D9F701E10FF11D8083F3
:1010E0001F5F09811017B0F380E0FFD8D82E2C9A2B
:1010F0008AE31DD986E31BD98DE319D984E317D977
:101100000F8F8A8196E7892788A312E0BE01615E6E
:101110007F4FAE014F5F5F4F0FC0DB01A20FB31FC8
:10112000FE01E20FF31F80818452240F351FF90165
:10113000908189278C931F5F8F8D212F30E01817A6
:1011400060F3620F731F420F531FFA01808199A150
:101150008927FB01808380917B0684FF12C081E692
:1011600029DB0F8D10E09FE1E92EF12CEC0EFD1E26
:10117000F701E10FF11D80811DDB1F5F0117C0F733
:1011800027C081E417DB0F8D10E08FE1E82EF12CF2
:10119000EC0EFD1EF701E10FF11D80819DDB1F5F4D
:1011A0000117C0F780917B0685FF02C08D2D94DB6F
:1011B00039DB0EC085E39FD8813011F0813141F4D5
:1011C0008AE3B5D886E3B3D88DE3B1D884E3AFD84A
:1011D000EC96E7E00C94ED18CF93DF93E898249A0F
:1011E0002C9A8EE190E061DA2C988EE190E05DDA45
:1011F0002C9A8DE290E059DA80E399D884E690E069
:1012000054DACCE8D1E0FE018491813448F421968F
:10121000FE0164917ED82196F1E0CE3BDF0799F77D
:1012200083E385D881E046DADF91CF910895ACE37E
:10123000B0E0EDE1F9E00C94D1180196BE01615ED9
:101240007F4F4DE190DBD82E282F30E021503040E9
:101250008F8D90E02817390709F056C08091100152
:10126000882319F4B9DF83E025DA86E360D88AE3BE
:101270005ED88BE35CD84F8D498388A196E7892798
:101280008A83DE0112969E012F5D3F4F52E00BC014
:101290008C918452F90191919F01892711968C9329
:1012A00011975F5F1196541798F3E52FF0E07E01D8
:1012B0000894E11CF11CD701AE0FBF1FEC0FFD1FFE
:1012C000878D99A189278C932C988FE70ED8870159
:1012D00004C0F80181918F0108D8802F8E198D15D7
:1012E000C0F32C9A8AE323D885E321D802C085E095
:1012F000E1D985E300D88130D1F7809110018823AE
:1013000011F05CD801C06AD7EC96E7E00C94ED18B8
:10131000FC0101962181223729F45EDF81E0809370
:1013200010010895233709F482CF10921001089517
:10133000219A29985298E9E6F0E0808181608083C3
:1013400082EC91E090937A068093790610922D01B9
:101350001092490110926501109273060895982F1A
:1013600006C04150FB01E40FF11D8081980F44231A
:10137000C1F7892F0895AC0120E006C06150FA0141
:10138000E60FF11D808128276623C1F7822F08957B
:10139000A0E0B0E0EEECF9E00C94D018DC01109283
:1013A00099011092840197E013968C911397981BE2
:1013B00011961C911197110F110F110F190F109207
:1013C0008501FF24EE2407E057E040E070E0E7E00D
:1013D000CE2ED12CC1E0D0E07FC0FD01EE0DF11D7D
:1013E000848190E0002E02C0959587950A94E2F7DB
:1013F000282F2170002311F0015002C0E39407E070
:101400006B3469F4533059F47723B9F5222311F082
:1014100071E062C040938401109299011EC05F3F49
:1014200069F56634E1F4E42FF0E0EB57FE4F80817C
:10143000082E82958025082E86958695802590E039
:101440000196959587958170907030E0821793078B
:1014500061F0409384017093990180E057C0653436
:1014600011F06B3411F42223A1F34F5FE42FF0E06D
:10147000EB57FE4F108257E02FC070E0222359F146
:10148000663479F4E42FF0E0EB57FE4F9E01052E11
:1014900002C0220F331F0A94E2F78081822B8083DF
:1014A0001AC0653411F06B34B1F4E42FF0E0EB575F
:1014B000FE4F852F992787FD90959601281B390BA4
:1014C000C9019E0102C0220F331F8A95E2F7C901AC
:1014D0002081282B20835150F3948F2D8150811728
:1014E00008F47BCF40938401709399011F1508F095
:1014F000B4CF653411F45F3F11F0772319F04F5FDB
:101500004093840180918401811181E0CDB7DEB7E1
:10151000E8E00C94EC18DC0112968C911297ED9196
:10152000FC911197E80FF11DE08113962C91139710
:10153000215013962C9313972F5F39F48F5F1296D7
:101540008C93129787E013968C938E2F90E002C0B5
:10155000959587952A95E2F781700895A0E0B0E00F
:10156000E4EBFAE00C94CC186C01962E842EFF2448
:10157000C0E0D0E0F1E0AF2EB12C062F10E001501A
:10158000104019C0C601C7DF8823A1F0882059F098
:10159000C8018C1B9D0B950102C0220F331F8A9539
:1015A000E2F7C90106C0C50102C0880F991FEA947D
:1015B000E2F7F82A2196EC2EC91520F38F2DCDB72E
:1015C000DEB7ECE00C94E818A4E0B0E0EAEEFAE054
:1015D0000C94CE18FC0187E08C833496FA83E9835F
:1015E000349710928401818190E023E0880F991F45
:1015F0002A95E1F72381821B9109CE970CF45AC0FA
:101600001B82CC24DD245E010894A11CB11C2EC0D9
:10161000ED2CFF24C50168E040E0A0DF082F85E83D
:1016200091E0E80EF91EF7010083002E02950025D7
:10163000002E069506950025C5016DDF10E00F5FB1
:101640001F4F159507950170107090E00817190746
:1016500031F4C50160DF9D2D9F5F882319F0D09282
:10166000840128C0F7018081C826D92EF5E0FD1538
:1016700078F6D0928401C50168E040E06FDFF82E73
:10168000082F002E02950025002E069506950025B0
:10169000C50141DF10E00F5F1F4F159507950170E1
:1016A000107090E00817190729F480E0CF1419F49E
:1016B00081E001C080E02496EAE00C94EA18A4E0FE
:1016C000B0E0E5E6FBE00C94CE18FC011B8287E05D
:1016D0008C833496FA83E983349710928401808155
:1016E000853009F053C0818190E043E0880F991F55
:1016F0004A95E1F72381821B91098938910509F008
:1017000045C019E83FE0C32E30EFD32E80E05E01E4
:101710000894A11CB11C10C0C50168E041E01EDFA7
:10172000C80ED11C25E831E0E20EF31E1827F701A0
:101730001083182F1C5D802FE82EFF24082F0F5FC9
:101740008F3050F3C50168E041E008DF182F25E82D
:1017500031E0E20EF31E8095F7018083009384014F
:10176000C50168E041E0FADE082FC10ED11CC501B9
:1017700068E041E0F3DE40E0302F20E0C21AD30AF7
:1017800090E0C816D90619F441E001C040E0842F6A
:101790002496EAE00C94EA18EF92FF921F93DF93ED
:1017A000CF9300D000D0CDB7DEB7FC013496FA83DA
:1017B000E983349781818430B9F587E08C83838114
:1017C000813091F51B8210E07E010894E11CF11C30
:1017D00012C0112331F4C70167E041E0BFDE806829
:1017E00004C0C70168E041E0B9DEE12FF0E0EB574B
:1017F000FE4F80831F5F143060F3CE01019667E0D7
:1018000041E0ACDEE12FF0E0EB57FE4F880F808324
:101810001F5F1093840190E08091850182958F7005
:101820008A3019F491E001C090E0892F0F900F9059
:101830000F900F90CF91DF911F91FF90EF9008953F
:10184000FC018181A82FB0E050E0E081CD01841B34
:10185000950B0B964797D8F48E2F90E070E09C0183
:10186000261B370B2C30310594F4255F3F4F7CF05D
:101870008A0F9B1F861B970B841B950B8C30910541
:1018800034F420E0855F9F4F1CF021E001C020E090
:10189000822F0895282F30E0C901880F991F820FE9
:1018A000931F860F911D959587959595879508951A
:1018B000DC0111968C911197843190F010926F0099
:1018C0008091810190E02CE130E0829FF001839FC4
:1018D000F00D929FF00D1124EF5EFE4F10820895DF
:1018E000662381F0FD01E80FF11D81E090E0139681
:1018F0000C90139702C0880F991F0A94E2F7248175
:10190000282B248313968C911397815013968C93D4
:1019100013978F5F79F487E013968C931397119642
:101920008C9111978F5F11968C931197A80FB11D11
:1019300014961C920895282F8552873160F46A30DE
:1019400050F0673240F490E0621708F091E081E0D7
:101950009827892F089580E090E008951F920F92B4
:101960000FB60F920BB60F921124EF92FF920F93C6
:101970001F932F933F934F935F936F937F938F9317
:101980009F93AF93BF93CF93DF93EF93FF93809198
:10199000AE0A882321F082E08093AE0AF0C08091E5
:1019A0008B0A823021F483E080938B0AE8C0809117
:1019B000840090918500E4E096958795EA95E1F79B
:1019C000182FE09081018CE1E89EE0011124CF5EA8
:1019D000DE4F9881943031F41E3208F4D0C01F34A9
:1019E00048F0BDC0953031F4173108F4C8C0183242
:1019F00008F0B5C0892F84504A990CC0823038F461
:101A0000CE0161E055DF10928500109284001093A2
:101A1000B301B5C00091B301F12EF01AF092B401F8
:101A20001092850010928400823020F4CE0160E094
:101A30003FDFA5C082E086BB992371F4053608F02C
:101A40009EC084E68F1508F49AC0088FF98E81E055
:101A50008A8382E0888393C0923009F05AC0CE0115
:101A60004896602F4F2DECDE1A81882359F0888D1F
:101A7000602F10DF888F898D6F2D0CDF898F1F5F9E
:101A80001A837DC0143008F442C080EA9FE090932E
:101A90008900809388001C3050F0298D888D90E05B
:101AA000820F911D8536910514F084E025C01A300F
:101AB00080F0298D888D90E0820F911D85974CF4E0
:101AC00085E0888388EE93E0909389008093880076
:101AD00014C080918106882371F0802F6F2D2BDF39
:101AE000882349F0898D688D26DF882321F081E0E5
:101AF00080938B0A34C083E088830A8FFB8E19821F
:101B000087E08B831C8282E080936F0038C018824C
:101B100095CFCE014A96602F4F2D92DE882361F03B
:101B2000CE0161E0C5DE8A8D602FB4DE8A8F8B8D99
:101B30006F2DB0DE8B8F23C0CE014896602F4F2DC6
:101B40007FDE882361F0CE0160E0B2DE888D602FF9
:101B5000A1DE888F898D6F2D9DDE898F10C0109238
:101B60006F002E2D30E08CE190E0289FF001299F3E
:101B7000F00D389FF00D1124EF5EFE4F1082FF91A3
:101B8000EF91DF91CF91BF91AF919F918F917F9115
:101B90006F915F914F913F912F911F910F91FF9006
:101BA000EF900F900BBE0F900FBE0F901F901895E7
:101BB0008091810190E02CE130E0829FF001839FD1
:101BC000F00D929FF00D1124EF5EFE4F808188236F
:101BD00031F420E030E08091AD0A8F3F11F021E038
:101BE00030E0822F08951F920F920FB60F920BB61E
:101BF0000F9211242F933F934F935F936F937F9393
:101C00008F939F93AF93BF93EF93FF9310926F00C7
:101C100080917B0683FF03C08EE20E94DA0340912D
:101C20008101242F30E08CE190E0289FF001299F72
:101C3000F00D389FF00D1124EF5EFE4F8081833050
:101C400018F08181823028F410926F008CE190E0CE
:101C500013C0809183018330D1F480917B0682FF91
:101C600004C08EEB91E00E94160410926F008091E8
:101C7000810190E02CE130E0829FF001839FF00D24
:101C8000929FF00D1124EF5EFE4F10820BC08F5F0C
:101C900080938301842F8F5F80938101843011F4BE
:101CA00010928101FF91EF91BF91AF919F918F9120
:101CB0007F916F915F914F913F912F910F900BBE4C
:101CC0000F900FBE0F901F9018950F931F93CF93F7
:101CD000DF938091B4018823B9F180917B0687FF5F
:101CE00017C084E30E947B018058803410F480E0A8
:101CF0000CC0803C10F08FE008C090E08055904010
:101D000003E0959587950A95E1F78F590E94DA03CC
:101D100080917B0683FF16C082E70E94DA038091E0
:101D20007B0684FF04C08091B3010E94DA0386E63B
:101D30000E94DA0380917B0684FF04C08091B40185
:101D40000E94DA031092B40180918301882309F480
:101D500040C2429A909182018CE1989FE001112447
:101D6000CF5EDE4FCE01ABDC882311F003E5C3C0AC
:101D7000CE0166E40DDB882309F402C240918401A0
:101D8000415040938401942F56E007C09150E92FB1
:101D9000F0E0EB57FE4F8081580F9923B9F7A42F3D
:101DA000B0E0FD01EB57FE4F6081561711F444304F
:101DB00068F4852F90E00196262F30E08217930774
:101DC00079F4443068F0AB57BE4F5C9306E493C09F
:101DD0009150E92FF0E0EB57FE4F8081280F02C0B1
:101DE000942F2CE09923A1F7261709F0C9C144309C
:101DF00008F4C6C1C3C180918401815080938401DD
:101E0000893009F0C3C199E020E09150E92FF0E05A
:101E1000EB57FE4F808128279923B9F780918E01D7
:101E2000281709F0B3C105E466C040918401415010
:101E30004093840160919901342F50E095E020E0B7
:101E400014C03150E32FF0E0EB57FE4FE0818E2FAE
:101E500082958F702827980F662311F0552321F063
:101E60008E2F8F702827980F5F5F332351F7920FC3
:101E70009295907F922BE42FF0E0E61BF109EB574F
:101E8000FE4F8081981761F08B818F5F8B8381502B
:101E9000873009F099C11B8289818150898394C15F
:101EA0000BE429C08B81843009F0E0C0CE01489654
:101EB0006CE34EE1C5DC882309F4D8C0C801609109
:101EC000B3014EE1BDDC682FCE01F2DC109284013B
:101ED0000DC0E92FF0E0DE01AE0FBF1F14968C910C
:101EE000EB57FE4F80839F5F909384019091840114
:101EF000953078F302E580917B06682F80FFB7C0AC
:101F000081FF02C020E05FC090919A01809184011E
:101F1000981799F510929A010EC0E22FF0E0DF01B8
:101F2000AB57BE4FE556FE4F90818C91981749F400
:101F30002F5F20939A0120919A01309184012317F9
:101F400060F32317D1F48091750690917606A091E5
:101F50007706B09178062091AF013091B0014091A1
:101F6000B1015091B201821B930BA40BB50B869764
:101F7000A105B10510F421E001C020E010929A0102
:101F80000CC0E92FF0E0DF01AB57BE4F8C91E55656
:101F9000FE4F80839F5F90939A0190919A01809168
:101FA0008401981770F38091750690917606A09140
:101FB0007706B09178068093AF019093B001A0931B
:101FC000B101B093B2010435D1F466FD18C080911F
:101FD00087018B3409F44BC0893609F448C0833536
:101FE00009F445C0843509F442C08D3709F43FC077
:101FF0008E37E9F18091880180778037C1F1222303
:10200000B1F5802F0E94DA0380919901882329F08D
:102010008091840181508093840110E008C0E12FF9
:10202000F0E0EB57FE4F80810E946C041F5FE0914F
:1020300084011E17A0F380919901882359F0F0E0E4
:10204000EB57FE4F808190E08F70907061E040E32D
:102050000E942F0480917B0685FF05C084E30E94C7
:102060007B010E946C040E94120401C000E0809178
:102070007B0682FF6DC080E70E94DA03888190E0D2
:1020800062E040E20E947004888D90E014E0880FC6
:10209000991F1A95E1F765E040E20E947004898D6E
:1020A00090E0B4E0880F991FBA95E1F765E040E24F
:1020B0000E9470048A8D90E0A4E0880F991FAA9571
:1020C000E1F765E040E20E9470048B8D90E0F4E05F
:1020D000880F991FFA95E1F765E040E20E947004CD
:1020E0008A8190E063E040E20E947004898190E080
:1020F00063E040E20E9470042B8187E090E0821B45
:10210000910962E040E20E94700480E20E94DA03DA
:1021100080917B0685FF08C084E30E947B010E94BA
:102120006C0480E20E94DA038B81873019F0898188
:102130008F5F898310E007C0FE01E10FF11D8481EC
:102140000E946C041F5F89811817B0F30E9412046B
:102150001882809183018150809383018091820154
:102160008F5F80938201843011F410928201429833
:10217000043579F585E891E0FDD22BC004E5BBCEAE
:10218000CE0165E405D9882309F035CECE011CDAED
:10219000882311F008E4AFCECE01FEDA882311F0D7
:1021A00004E7A9CE8E01065E1F4FC8016091B301FE
:1021B0004B8D46DB682FCE017BDBCE016BE4E8D88C
:1021C000882309F461CE31CE8981843009F04ECF65
:1021D00069CEDF91CF911F910F91089580917B0679
:1021E000882321F00E949B020C94DE010C949F0135
:1021F000FC018181882371F480917B060E946C042C
:102200008091790690917A0665E040E20E94700420
:102210000C941204CF0101966BE776E041E00E9436
:10222000B304DCCFA1E0B0E0E7E1F1E1BDC780910C
:102230008B0A882309F486C010917506833009F053
:1022400069C08FE30E947B01182F863010F400E0F4
:1022500018C085EB9EE00E94FE052C988FEF0E942F
:10226000750180E00E947501082F08C080E00E947F
:102270007501682F85EB9EE00E9406061150B1F7AC
:102280002C9AACDF10928B0A053709F05BC08BEB00
:102290009EE0BE016F5F7F4F41E00E94B304019753
:1022A000A1F5998180918106981779F58091BF0EEB
:1022B000853539F00FC085EB9EE00E9425060E940F
:1022C000DA038091B90E9091BA0E892BA1F70E9482
:1022D000120438C08091B90E9091BA0E0497909371
:1022E000BA0E8093B90E84E090E09093B80E80937C
:1022F000B70E85EB9EE06AE00E940606E09171064B
:10230000F091720688E009951DC085EB9EE00E9461
:10231000FE0518C0823049F480918006181B1830E1
:1023200088F05CDF10928B0A0DC0813059F487E38E
:1023300090E00E944C020E94DE0182E080938B0AB2
:10234000109380062196E4E04BC729980C9455031E
:10235000299A0C945503A7E0B0E0E0EBF1E121C726
:10236000282F80918D06843551F480918E0A9091AA
:102370008F0A019690938F0A80938E0A39C0863413
:1023800051F480918C0A90918D0A019690938D0A58
:1023900080938C0A2DC0853451F480917E069091F3
:1023A0007F06019690937F0680937E0621C08B3432
:1023B00051F48091910A9091920A01969093920A19
:1023C0008093910A15C0883451F48091930A9091BA
:1023D000940A01969093940A8093930A09C080917D
:1023E0007C0690917D06019690937D0680937C06F5
:1023F00085E78983222319F4DD24D39412C08091C8
:10240000950ABE016E5F7F4F0E94E60480918106AF
:10241000BE016C5F7F4F0E94E60485E58E8386E0F7
:10242000D82E0E949B020E94EA0110E080E891E011
:102430008FDF80E093E089DF1F5F1630B9F780E01F
:1024400093E086DF80E891E080DF80E891E080DF44
:10245000299887E390E00E944C0283E00E945A038F
:102460002C988FE70E947501809186068D0D0E9441
:1024700075017E010894E11CF11C8701F80181912E
:102480008F010E947501802F8E198D15B8F306C03B
:1024900082E896E00E9425060E94750180918606DA
:1024A00090918706892BA1F72C9A0E94EA0182E875
:1024B00096E00E94FE0514E104C0115081E00E94E4
:1024C0005A038AE30E947B0190E08F779070892BFA
:1024D00011F0112391F782DE2796E7E07EC668DBD4
:1024E000882361F083E08093900A8091880A90911C
:1024F000890A01969093890A8093880A8091900AAC
:1025000081508093900A882321F083E080938A0A87
:10251000089581E020CFCF93DF93EC018981882358
:1025200039F4809181060E946C048091950A0FC055
:10253000843681F4809175069091760664E040E3DC
:102540000E942F048EE20E94DA0380918A0A0E9480
:102550006C044DC0833709F04DC080918E0A909174
:102560008F0A61E040E30E942F048EE20E94DA03AA
:1025700080918C0A90918D0A61E040E30E942F04C3
:102580008EE20E94DA0380917E0690917F0661E0E0
:1025900040E30E942F048EE20E94DA038091910AA8
:1025A0009091920A61E040E30E942F048EE20E9423
:1025B000DA038091930A9091940A61E040E30E94CB
:1025C0002F048EE20E94DA0380917C0690917D06B2
:1025D00061E040E30E942F048EE20E94DA038091C2
:1025E000880A9091890A61E040E30E942F040E94CA
:1025F00012042CC08936D9F4CE01029661E876E047
:1026000041E00E94B30480E690E0609181060E9460
:102610003B05CE01049665E97AE041E00E94B304EF
:1026200081E690E06091950A0E943B050FC082E828
:1026300096E00E94FE0504C082E896E00E9406062D
:10264000219668816623C1F780E085DEDF91CF9116
:10265000089580E690E00E94FC048093810681E664
:1026600090E00E94FC048093950A882321F081E287
:1026700080937B06B3CD0895DC01EDEBF1E00EC055
:10268000109751F091818C91981731F492811196A5
:102690008C9111979817A1F0E20FF11D2081222350
:1026A00021F082E0EB36F80758F382E0EB36F807CA
:1026B00019F010F0EBE6F2E0AB2B11F0E0E0F0E007
:1026C000CF010895CF93DF93EC01D6DFFC01009793
:1026D00079F090916B028081981750F4E90FF11D09
:1026E00080818A8389E78B8381818C8381E001C02B
:1026F00080E0DF91CF9108950F931F93CF93DF93E5
:102700008C0180917B0686FF18C084E50E94DA0365
:10271000C0E0D0E0F801EC0FFD1F80810E946C0446
:102720002196C530D105B1F780917B0685FF03C0A6
:102730008AEF0E946C040E941204DF91CF911F91D6
:102740000F91089586E30E9497018091B801833527
:1027500011F08BE401C08BE90E945A0386EB91E0F3
:1027600065E04CE021E00E94BB070E94DE0186EBA1
:1027700091E0C2CF1F93FC0140813181128193818E
:10278000248189E28093AD0A1092BC015091960A8F
:10279000552329F48091AC0A882309F4CDC0809197
:1027A000B601841721F48091B701831771F010925C
:1027B000980A1092B50183E080936B028FEF8093AB
:1027C000AD0A4093B6013093B7018091980A8F3FCC
:1027D00009F4B2C01093B8019093B9012093BA01E3
:1027E0001123E1F08823D1F4251761F0243651F04C
:1027F000812F8355823010F01D3721F48FEF8093A5
:10280000980A9AC0143509F497C0892F807F8036C2
:1028100009F092C090679093B90183C086EB91E074
:1028200051DF882329F48091980A882309F484C011
:102830009091B501992311F0892F06C0E091980A73
:10284000F0E0EB53FE4F8491833541F4143531F4BD
:102850008091980A8E5F8093980A0BC0811749F087
:102860001092980A1092B50183E080936B028FEF6B
:1028700061C0992379F080916B028E5F80936B0227
:1028800086EB91E01FDF882371F48091980A8E5FB8
:102890008093980A9091980AE92FF0E0EA53FE4F4E
:1028A00014911F3F59F48091B8018093B50184368B
:1028B000C1F58091970A8093BA0133C01093B80193
:1028C00087E78093B9018091960A8093BA01892F96
:1028D0008E5F8093980A1092B5018E3001F586EBD9
:1028E00091E0CADEFC01009781F0808190E02BE648
:1028F00032E0281B390BDF01A80FB91F02C08D91F0
:102900008193E217F307D8F310821092980A10927D
:10291000B50183E080936B028FEF8093AD0A1123A2
:1029200059F010DF8091B801893631F081E0809351
:10293000BC0189E28093AD0A1F9108958091BC018A
:10294000882351F0FFDE89E28093AD0A8091BC01BB
:1029500081508093BC0108951092980A1092B5019D
:1029600083E080936B028FEF8093AD0A0895A6E019
:10297000B0E0ECEBF4E114C44091AC0A8091990A08
:10298000882341F0833019F08DE790E015C087E788
:1029900091E012C0842F90E0877090702DE730E0B6
:1029A000BC01629FC001639F900D729F900D112426
:1029B000825B9F489595879590939B0A80939A0A8E
:1029C0004A831B820CE91AE0FF246E010894C11CA3
:1029D000D11C8CE2E82EF80190819F3FB1F08091EC
:1029E000960A8F0D89838091990A882311F0EC82D1
:1029F00003C09C83F80181818D83C60165E04CE0B2
:102A000021E00E94BB07C60177DEF3940E5F1F4FE3
:102A1000F8E0FF1601F78091990A882341F083308E
:102A200019F41092990A03C082508093990A26964D
:102A3000E8E0D2C385E390E00E94FC048093960A0C
:102A400086E390E00E94FC048093AC0AECE9FAE093
:102A50009FEF908332968AE0EC3AF807D1F7109214
:102A6000980A1092B50183E080936B029093AD0AAF
:102A70001092BD0108956F927F929F92AF92BF9284
:102A8000CF92DF92EF92FF920F931F93DF93CF933A
:102A900000D000D000D0CDB7DEB73C017C01089457
:102AA000E11CF11CC701BE016F5F7F4F45E00E9432
:102AB000B304E981843008F0ACC0E130A9F483307C
:102AC00061F485E390E06A810E943B0586E390E033
:102AD0006B810E943B05AEDF22C18091960A0E9465
:102AE0006C048091AC0A90C0E23009F04DC0813096
:102AF00029F020E030E08A81813011F421E030E0DB
:102B0000E22E8091BD01882321F48DED91E00E9499
:102B100016040DEB11E02EC081E00D3B180719F0F3
:102B200080E20E94DA03F80181810E946C04F801BE
:102B300082810E946C04EE20C9F08AE30E94DA03CD
:102B400053E0F52E0FC0F3E0FF1528F4F0FE03C0AC
:102B50008CE20E94DA03F801EF0DF11DF3948081FD
:102B60000E946C04F8018081F81668F3F8018081F6
:102B7000080F111DF8018081882309F447C0F2E095
:102B80000B361F0748F242C0E33049F480E090E082
:102B900073DD2DEB31E02255281B822F35C0E0314B
:102BA00049F50CE91AE0EE24FF24F80180818F3FFB
:102BB000A1F0EE2019F080E20E94DA038F2D0E942E
:102BC0006C048AE30E94DA03F80180810E946C049D
:102BD000F80181810E946C04E3940E5F1F4FF3940F
:102BE000F8E0FF1611F7EE2089F489ED91E00E94DC
:102BF00016040CC0E13151F480919A0A90919B0A1D
:102C00006DE770E0AFD2862F0E946C040E94120420
:102C100086C08091960AE817D0F1482F50E0F0E086
:102C2000CA0107968E179F0794F19A818091AC0A8A
:102C3000981769F58C818F3231F4C3016CE042E062
:102C40000E9430086CC02D818C32C1F42093990A07
:102C500081E090E090939B0A80939A0A30E0220FE3
:102C6000331F220F331F8091790690917A06820FCD
:102C7000931F90937A068093790651C0E41BF50B5D
:102C8000EE0FF0E0E456F54F8083218348C080E0EA
:102C900090E0F2DC8C01D7010D900020E9F711974C
:102CA000AE19BF09B695A7959A2E9394890D911DDB
:102CB0008D5B91408F3A910574F5F801908278010F
:102CC000DD24D394CC24C3941BC057010894A11CC9
:102CD000B11CC3018C0D911DB50141E00E94B304EC
:102CE000F2E0FD1548F4D0FC07C0F701808184367E
:102CF00019F481818093970AF2E0CF0ED394750185
:102D0000D91418F382E00B36180748F40D0D111D85
:102D1000F801108204C083ED91E00E94160426960B
:102D20000FB6F894DEBF0FBECDBFCF91DF911F91DC
:102D30000F91FF90EF90DF90CF90BF90AF909F905A
:102D40007F906F900895A0E0B4E0E8EAF6E12AC22F
:102D50008091AE0A882309F44BC08130B1F4909180
:102D60006C0280917506981709F442C085E30E94B1
:102D70007B01813129F48AE30E9497010E94DE01E0
:102D80008091750680936C0233C08FE30E947B01B3
:102D9000082F2C988FEF0E94750110E07E01089497
:102DA000E11CF11C08C080E00E947501F701E10FF1
:102DB000F11D80831F5F1017B0F32C9A81E0809380
:102DC0000B0110E07E010894E11CF11C07C0F70123
:102DD000E10FF11D80810E94DA031F5F1017B8F325
:102DE0000E9412048FEF80930B0181E08093AE0A62
:102DF000C050DC4FE6E0F2C10F931F93CF93DF93F7
:102E0000EC01DC010D900020E9F71197A81BB90B2C
:102E10008981823751F487E390E00E944C020E943E
:102E2000DE0181E08093AE0A29C0833729F50A2F9D
:102E30002C988FE70E947501802F82500E947501A7
:102E400012E004C089810E9475011F5F219610174E
:102E5000C8F32C9A0E94EA0104C084E690E00E9424
:102E600055038AE30E947B0190E08F779070892B55
:102E7000A1F70E94DE0102C01092AE0ADF91CF914D
:102E80001F910F9108954091BB125091BC124115B2
:102E9000510521F440910301509104012091050155
:102EA000309106012115310541F42DB73EB78091CF
:102EB000010190910201281B390B4217530718F0AA
:102EC00020E030E002C0241B350BC901089582E4E4
:102ED0000E94DA038091BB129091BC1265E040E23F
:102EE0000E9470040E94120483E50E94DA0380911C
:102EF00003019091040165E040E20E9470040E9489
:102F0000120485E40E94DA03809105019091060184
:102F100065E040E20E9470040E94120486E40E9470
:102F2000DA03B1DF65E040E20E9470040C94120401
:102F30009C0197FF04C082E08093C0003F773093EC
:102F4000C5002093C40088E98093C10086E0809387
:102F5000C20008958091C10085FD0BC08091B30A25
:102F60009091B40A892B29F08091C10080628093EE
:102F7000C1000895E0917106F091720681E0099513
:102F8000E9CF1F920F920FB60F920BB60F9211243A
:102F90002F933F934F935F936F937F938F939F9361
:102FA000AF93BF93EF93FF9388B194E0892788B9DB
:102FB0006091C6008091C000887121F485EB9EE08D
:102FC0000E940606FF91EF91BF91AF919F918F9163
:102FD0007F916F915F914F913F912F910F900BBE19
:102FE0000F900FBE0F901F9018951F920F920FB663
:102FF0000F920BB60F9211242F933F934F935F9331
:103000006F937F938F939F93AF93BF93EF93FF93B0
:103010008091B30A9091B40A892B39F08FEA9AE033
:103020000E9425068093C60005C08091C1008F7D57
:103030008093C100FF91EF91BF91AF919F918F91CC
:103040007F916F915F914F913F912F910F900BBEA8
:103050000F900FBE0F901F9018950F931F93CF9353
:10306000DF93EC0100E0802F90E09C01220F331FE2
:10307000280F391FF901E457FF4F1491F901E35765
:10308000FF4F25913491112399F0209739F480E274
:103090000E94DA03812F0E94DA0308C08881811719
:1030A00029F4CE01F901099581E003C00F5FDBCF60
:1030B00080E0DF91CF911F910F9108951F931091A0
:1030C0000B0180930B0134C085EB9EE00E94250626
:1030D000982F8A3011F08D3009F5E0916D02EE23C2
:1030E00039F1F0E0E259FD4F10828EE692E0B5DF53
:1030F000882389F489EF91E00E9416048EE692E01D
:103100000E94230481EE91E00E94160480E090E08A
:10311000A4DF0E94120410926D020AC080916D0219
:10312000E82FF0E0E259FD4F90838F5F80936D02AE
:103130008091B90E9091BA0E892B31F610930B0144
:103140001F910895E4E6F0E080818B7F80832F9AC1
:1031500084B1806B84B9269880E58CBD8DB5816083
:103160008DBD0895AA1BBB1B51E107C0AA1FBB1F41
:10317000A617B70710F0A61BB70B881F991F5A9503
:10318000A9F780959095BC01CD0108952F923F92AB
:103190004F925F926F927F928F929F92AF92BF9267
:1031A000CF92DF92EF92FF920F931F93CF93DF9313
:1031B000CDB7DEB7CA1BDB0B0FB6F894DEBF0FBE70
:1031C000CDBF09942A88398848885F846E847D84BD
:1031D0008C849B84AA84B984C884DF80EE80FD80BF
:1031E0000C811B81AA81B981CE0FD11D0FB6F89435
:1031F000DEBF0FBECDBFED010895F999FECF92BDA0
:1032000081BDF89A992780B50895262FF999FECFA8
:103210001FBA92BD81BD20BD0FB6F894FA9AF99AF3
:0A3220000FBE01960895F894FFCF49
:08322A00022000BF12000000A9
:00000001FF
