:1000000021C100000C94AA0E3BC1000039C10000C0
:1000100037C1000035C1000033C1000031C100000C
:100020002FC100002DC100002BC1000029C100001C
:1000300027C100000C940F1023C1000021C1000053
:10004000E5C200001DC100001BC1000019C1000075
:100050000C94CC190C94001A13C1000011C10000BB
:100060000FC100000DC100000BC1000009C100005C
:1000700007C1000005C1000003C1000001C100006C
:10008000FFC00000FDC00000FBC000006D50194221
:10009000670543CF0146C20841080A5A790B47FD5C
:1000A000074D8C07522506544817566305579B0584
:1000B00058011365E4056609196C8C05749C037579
:1000C000941478EF0200000000030F1E26270000A2
:1000D00000030F1E2536386700030F256740605068
:1000E00000030F275188838100030F2750C8C3C224
:1000F0000027000000000000006700000000000072
:10010000005000000000000000810000000000001E
:1001100000C20000000000000D2E2D07D3913D0409
:10012000320000060021656A55E43023B90007005B
:1001300018146C070090876BF85611E92A001F41CC
:1001400000072E050DD391FF080500000C00216566
:100150006A2D3B1322F862073F181D1CC700B087A9
:100160006BF8B611EA2A001F4100202F2000203D25
:1001700020005620312E35312043534D383638007B
:10018000202F2000203D20004C4F56460D0A000035
:1001900007022E030D04E905CA070C0B060D210EFC
:1001A000650F6A10C8119312031534173018181907
:1001B000161B432156250026112D353EC3FF000096
:1001C000000007024604C605260B0610C81193124C
:1001D0000313221534173F182819161B43215625DF
:1001E0000026110D210E650F6A070C160720F81E58
:1001F000871F6B29592C812D353EC3FF004C4F566C
:10020000460D0A00424F56460D0A00005353005453
:100210007D7DFFFF4B4B7E7E00454F420D0A004E19
:100220002F41004E2F410020697320756E6B6E6F59
:10023000776E2920557365206F6E65206F66003FCD
:100240002028000011241FBECFEFD0E4DEBFCDBFB9
:1002500011E0A0E0B1E0EAE3F6E300E00BBF02C08A
:1002600007900D92AA30B107D9F712E1AAE0B1E0E8
:1002700001C01D92A23CB107E1F703D00C941B1BF7
:10028000BFCE88E10FB6F8948093600010926000B2
:100290000FBE80E090E020E10FB6F894209361005B
:1002A000809361000FBE3A9A429A0E94AD1ABAD466
:1002B00089EF87BD84E085BD82E084BD80936E00B8
:1002C000109280008AE08093810084B7877F84BF8A
:1002D0002FE088E190E00FB6F894A8958093600035
:1002E0000FBE2093600089E190E80E94A4190E944B
:1002F00027170E94890B89E69AE1909375068093EF
:10030000740681E080930D010E94321580910D01E9
:10031000886080930D01429878940E94B6190E94DB
:100320008A10B4D10E94B0180E941B132ED70E94CD
:10033000180AF3CF8EBD0DB407FEFDCF8EB508951C
:100340002C98806C8EBD0DB407FEFDCF8EB51EBC03
:100350000DB407FEFDCF8EB52C9A08952C988064BD
:100360008EBD0DB407FEFDCF8EB56EBD0DB407FE7C
:10037000FDCF8EB52C9A08952C988EBD0DB407FE36
:10038000FDCF8EB52C9A08952C9886E38EBD0DB4C2
:1003900007FEFDCF8EB52C9A109276060895A1E047
:1003A000B0E0E5EDF1E00C94F21A0196BE016F5F4A
:1003B0007F4F41E02CD3892B41F18981893989F420
:1003C00000E010E0802FBCDFDBD2C80187709070A6
:1003D000079709F47BD20F5F1F4F0033110591F788
:1003E00014C0AEDF182F83E439D28981C9D28EE6DA
:1003F00091E070D2812FC4D28AE691E06BD2812F36
:1004000090E062E040E2C0D261D22196E4E00C9438
:100410000E1B0F931F931FEF04E32C980EBD0DB41A
:1004200007FEFDCF8EB52C9A8AE090E092D1115054
:10043000A1F7E89A1F910F9108950F931F93E898E1
:100440002C9886E38EBD0DB407FEFDCF8EB52C9A99
:100450001FEF05E32C980EBD0DB407FEFDCF8EB542
:100460002C9A8AE090E075D11150A1F71F910F915D
:100470000895EF92FF920F93CF93DF93082F8A3066
:1004800008F008E0C02FD0E083E0CC0FDD1F8A9594
:10049000E1F7C853DF4F8BE290E07C010894E11C48
:1004A000F11CFE016491F8D22196C70183339105B6
:1004B000A1F70550053010F067E101C061E184E269
:1004C00090E0EAD2DF91CF910F91FF90EF900895E5
:1004D000CF93DF9382E090E0EC012196FE01EB5E8A
:1004E000FE4FE4916E2FD8D2CB32D10511F0CE0160
:1004F000F3CF87E390E0EC012196FE01E75FFE4F2A
:10050000E4916E2FC9D2C036D10511F0CE01F3CFE0
:1005100088E0AFDFDF91CF9108950F931F93CF93C2
:10052000DF938C01E898249A2C9A8EE190E011D107
:100530002C988EE190E00DD12C9A8DE290E009D1BB
:100540002C9880E38EBD0DB407FEFDCF8EB52C9A9E
:1005500084E690E0FED02C9880E48EBD0DB407FEBA
:10056000FDCF8EB5C0E0D0E0C8018C0F9D1FA3D297
:100570008EBD0DB407FEFDCF8EB52196C932D105D3
:1005800099F72C9A2C988EE78EBD0DB407FEFDCFFF
:100590008EB58BE290E0EC0121968DD28EBD0DB42C
:1005A00007FEFDCF8EB5C333D10511F0CE01F3CFD9
:1005B0002C9A2C9883E38EBD0DB407FEFDCF8EB52B
:1005C0002C9A81E0CBD0DF91CF911F910F910895AC
:1005D00082E090E0A2DF81E0809376060895A1E0BA
:1005E000B0E0E5EFF2E00C94F41A22E029830196E2
:1005F000BE016F5F7F4F41E00AD289813ADF82E01E
:1006000090E08BDF2196E2E00C94101B1F920F927A
:100610000FB60F9211248F939F93AF93BF93809146
:10062000780690917906A0917A06B0917B060196A2
:10063000A11DB11D8093780690937906A0937A0648
:10064000B0937B06809177068F5F809377068D3716
:1006500010F01092770680919D0A90919E0A009763
:1006600029F0019790939E0A80939D0A8091B00A89
:100670008F3F19F081508093B00ABF91AF919F9145
:100680008F910F900FBE0F901F9018959091780644
:1006900080910B01981709F44EC090930B01A89517
:1006A0008091000182FD429880919D0A90919E0A5E
:1006B000892B11F40E94C4168091B00A882311F48A
:1006C0000E94AB1680918D0A882339F08150809367
:1006D0008D0A882311F40E9478148091770688236C
:1006E00051F580910001282F81FF04C088B194E06A
:1006F000892788B922FD429A80917C0690917D06D7
:1007000023E08438920728F4019690937D06809325
:100710007C0680910A018F5F80930A018C3359F423
:1007200010920A0180919A0A8F5F80939A0A8C3303
:1007300010F010929A0A089580917B0621D1809141
:100740007A061ED1809179061BD18091780618D146
:10075000BDC0880F991F0197F1F7089520ED37E08C
:1007600004C0F9013197F1F781508823D1F708953A
:10077000CF93DF93AC01EC018E81843509F06BC01F
:10078000688179819DE001C09F5F292F30E02617A5
:10079000370730F4FA01E20FF31F86818B33A1F79C
:1007A0006F5070402617370709F055C0C92FD0E0A9
:1007B000FA01EC0FFD1F8781843509F04CC02796A4
:1007C0009A012C0F3D1F2797FA019781F90181812A
:1007D000981709F040C0FA019085F90182819817B5
:1007E000D1F5FA019185F90183819817A1F5FA01F4
:1007F0009285F9018481981771F52496DA01AC0F7E
:10080000BD1F2497C40FD51F85818C83FD013196B0
:10081000E9018E8111968C93DF0111968985818380
:10082000FD0131968A8511968C93DF0111968B8597
:1008300081838C8511968C9311978D8512968C935C
:10084000FA01808191810A979183808384819581C7
:100850000A9795838483DF91CF9108951F93182F72
:1008600080910D0180FF13C08091B60A9091B70A64
:1008700023E08E3F920738F08050944040F41D30C2
:1008800011F01A3021F482EB9AE0612F22D280918C
:10089000980A8823C9F080910D0183FF15C01A3092
:1008A00099F01D3011F46BE301C0612F85E896E0EB
:1008B00010D21D3019F485E896E05ADF83E080936A
:1008C0008D0A82E08093930A1F9108958DE0C6DF20
:1008D0008AE0C4CFCF93DF93EC0102C0BFDF219643
:1008E000FE0184918823D1F7DF91CF910895CF93B2
:1008F000DF93EC0102C02196B1DF88818823D9F70C
:10090000DF91CF910895A5E0B0E0E9E8F4E00C9420
:10091000F41A1D82FE01349624E0582F5F70215096
:100920005A3018F4352F305D02C0352F395C3083D2
:1009300034E0969587953A95E1F7615031970097A5
:1009400061F72150822F992787FD90952F5FFE0137
:100950003196E80FF91F03C0215040833197615051
:1009600067FD02C01216C4F3332727FD3095CE0170
:100970000196820F931FBBDF2596E2E00C94101BBB
:1009800090E062E040E3BFCFA6E0B0E0EAECF4E044
:100990000C94F21A9C01162F042F1E82FE0135962C
:1009A00045E04150C9016AE070E00E94BD1A805DD7
:1009B0008083C9016AE070E00E94BD1A9B0111505A
:1009C0006115710559F44150842F992787FD909541
:1009D0004F5FFE013196E80FF91F07C0319744239E
:1009E00001F7F1CF415000833197115017FD02C03C
:1009F0001416C4F3242F332727FD3095CE0101961A
:100A0000820F931F74DF2696E4E00C940E1BDC012A
:100A1000FB0123C0822F80538A3010F050E002C0C7
:100A2000382B51E0822F8154863020F42753322B0B
:100A3000295C51E0822F8156863018F42755322BDD
:100A400007C0552329F4203271F02A3361F00EC01B
:100A5000992331F03193415049F030E090E003C0E8
:100A60003295307F91E02D912223A1F6CF01861B94
:100A7000970B0895FB01982F92959F709A3010F470
:100A8000905D01C0995C90838F708A3010F4805D16
:100A900001C0895C818308959C01F999FECF1FBA3A
:100AA00032BD21BD60BD0FB6F894FA9AF99A0FBE17
:100AB000F999FECF08959C01F999FECF32BD21BD71
:100AC000F89A80B5089582E791E004DFFFCEA1E0B7
:100AD000B0E0EDE6F5E00C94F41A1982009731F0DD
:100AE0000196BE016F5F7F4F41E091DF89818823CE
:100AF00021F083E390E061E0CFDF10926E00F89484
:100B000028E088E190E00FB6F894A8958093600003
:100B10000FBE20936000FFCF019660E071E041E0DE
:100B200076DF6091000160FF02C0429A01C04298E6
:100B300084E390E0B1CFA6E0B0E0E1EAF5E00C9408
:100B4000EE1A6C010196BE016F5F7F4F43E05FDFDD
:100B5000082F8230A8F12981823019F4E22EFF2477
:100B600007C0922F80E02A81E22EFF24E82AF92A8A
:100B700010E0FE01E00FF11FC70160818DDF000F63
:100B8000111F0F5F1F4F0C0D1D1D0894E11CF11C60
:100B90006E010894C11CD11C0FC0C801B60141E010
:100BA00036DF892B69F0C701698176DF0E5F1F4F41
:100BB00082E090E0E80EF91EF8018081882369F751
:100BC0002696E8E00C940A1B0F931F938C0180E09B
:100BD00090E061E061DF81E090E063E35DDF78DC7D
:100BE00080E690E060E058DF81E690E060E054DF6E
:100BF00083E390E060E050DF84E390E062E04CDF6C
:100C000080E690E060E048DF81E690E060E044DF6D
:100C1000F8018181883719F080E090E058DF1F915A
:100C20000F91089580E090E046DF813029F481E063
:100C300090E041DF833319F080E090E0C5DF84E38A
:100C400090E039DF809300010895EF92FF921F93A7
:100C5000DF93CF9300D0CDB7DEB71A821982019609
:100C6000BE016F5F7F4F42E0D2DE2981823041F4C6
:100C7000922F80E02A81E22EFF24E82AF92A02C07E
:100C8000E22EFF24C70117DF182F82E5E7DDC70139
:100C900064E040E338DE84E891E01CDE812F70DE02
:100CA00080E891E017DE812F90E062E040E26CDEA8
:100CB0000DDE0F900F90CF91DF911F91FF90EF907D
:100CC0000895FC011582148211821082138212820F
:100CD0000895DC0114968D919C91159724E0803045
:100CE0009207A8F4019615969C938E9314978D9174
:100CF0009C911197FD01E80FF91F668301961196EB
:100D00009C938E938050944011F41D921C920895F0
:100D1000DC0114968D919C911597009711F420E0B9
:100D200019C0019715969C938E93149712968D91E6
:100D30009C911397FD01E80FF91F268101961396E8
:100D40009C938E9312978050944021F413961C929A
:100D50001E921297822F0895CF93DF93DB01EA0151
:100D6000322F4881882369F0FB01E40FF11D81E0F7
:100D700090E002C0880F991F2A95E2F72081282B66
:100D80002083332319F0832F815009C0842F8F5F74
:100D90008C3008F48883A80FB11D1C9287E090E086
:100DA000DF91CF9108951F93182F299A882319F066
:100DB0008091100102C080910E0190E034E0880F14
:100DC000991F3A95E1F7C5DC2998112319F0809114
:100DD000110102C080910F0190E024E0880F991F5B
:100DE0002A95E1F7B6DC1F910895A0E0B0E0EBEFA3
:100DF000F6E00C94E61A4C01562ED42E122FC02E7B
:100E00004E2C20917C0630917D0682E0D80ED09E3B
:100E1000802D11249EEFD90E992787FD90952817D4
:100E2000390720F488E891E055DD71C0281B390BA3
:100E300030937D0620937C06429A8091130188238B
:100E400011F4EE2408C01092130181E091E00E9499
:100E50000113EE24E39480917606882309F4B8DB2D
:100E6000ECDA41E0642E712CA12EBB2410E003C00B
:100E700080E099DF1F5F1515D9F7552011F081E04B
:100E800092DF8401FF2415C0C7E0D0E093010C2E4F
:100E900002C0220F331F0A94E2F7F80180818223F7
:100EA00082DF2197FFEFCF3FDF0781F7F3940F5FDA
:100EB0001F4FFD1449F7C7E0D0E00D2D112707FDA6
:100EC0001095080D191D0CC093010C2E02C0220FA5
:100ED000331F0A94E2F7F8018081822364DF2197AF
:100EE000AC16BD068CF3842D39DCCA9409F0BECF54
:100EF00080917E06882311F08CDA02C086E33CDA0A
:100F0000EE2021F006D381E0809313014298CDB703
:100F1000DEB7E0E10C94021BA9E1B0E0E2E9F7E002
:100F20000C94E81AFEE0EF2EF12CEC0EFD1E01965B
:100F3000B7014BE06CDD893009F05BC089E180933B
:100F40000F0180930E018093100182E380931101C1
:100F5000C70169E001D48F8B19821A8207E0A7E0EC
:100F600010E0E7E06E2E712C71E0872E912C570176
:100F700062E0C62ED12CCC0EDD1E7E010894E11C51
:100F8000F11C01C007E0802F992787FD9095930100
:100F9000281B390BC40102C0880F991F2A95E2F75C
:100FA0009C01F501E10FF11D80818223B601A701AB
:100FB0002A2FD2DEA82F002311F00150E4CF81E0C8
:100FC000B601A7012A2FC8DEA82F1F5F1A30D0F262
:100FD000882319F0282F215004C089818F5F8983CD
:100FE00027E0CE0102966CE0498103E05AE0E52E4D
:100FF000FCDE6996EEE00C94041BEF920F93DF93F6
:10100000CF93CDB7DEB760970FB6F894DEBF0FBEB3
:10101000CDBF0196BE016F5F7F4F40E1F8DC698173
:101020004A810B818C8180930E018D8180930F0109
:101030008E81809310018F8180931101242F2F7056
:10104000E02EE294AFE0EA22CE01089642954F707E
:101050000F70CBDE60960FB6F894DEBF0FBECDBF2B
:10106000CF91DF910F91EF900895AEE0B0E0EBE308
:10107000F8E00C94E41A7C01162F842F2E87B70118
:10108000412F5ED3F701E10FF11D8083A12EA394C0
:1010900019821A824701BB24E7E091E0292E312C06
:1010A00082E0482E512C4C0E5D1E3E010894611CBE
:1010B000711C2FC007E010E06701CB0CD11C91011F
:1010C000002E02C0220F331F0A94E2F7D6018C9142
:1010D0008223B201A3012E2F3FDEE82F01501040E2
:1010E000BFEF0F3F1B0759F7D4018D914D01082E1B
:1010F00082958025082E86958695802590E001961C
:10110000959587958170B201A3012E2F25DEE82FDA
:10111000B394BA1478F2EE2319F02E2F215004C0A4
:1011200089818F5F898327E089E180930F01809314
:101130000E0185E28093110180931001CE01029689
:101140006CE049810E85BAE0EB2E4FDE2E96E2E18F
:101150000C94001BACE0B0E0E0EBF8E00C94F01A6B
:10116000F62EE42E01968E010F5F1F4FB8014BE063
:101170004EDC682FC8014F2D2E2D77DF2C96E6E030
:101180000C940C1B66E043E0E5CFACE3B0E0EBEC85
:10119000F8E00C94EF1A80911201882309F492C0B0
:1011A0004A9B82C08FE3CCD88F7789838E3110F031
:1011B0008DE189832C988FEFBDD810E022E0E22EDC
:1011C000F12CEC0EFD1E07C080E0B4D8F701E10F52
:1011D000F11D80831F5F09811017B0F380E0AAD84A
:1011E000D82E2C9A8AE3C8D886E3C6D88DE3C4D813
:1011F00084E3C2D80F8F8A8196E7892788A312E0FB
:10120000BE01615E7F4FAE014F5F5F4F0FC0DB01DC
:10121000A20FB31FFE01E20FF31F80818452240F3F
:10122000351FF901908189278C931F5F8F8D212FA6
:1012300030E0181760F3620F731F420F531FFA015B
:10124000808199A18927FB01808380917E0684FF9C
:1012500012C081E603DB0F8D10E09FE1E92EF12C37
:10126000EC0EFD1EF701E10FF11D8081F7DA1F5F23
:101270000117C0F727C081E4F1DA0F8D10E08FE18C
:10128000E82EF12CEC0EFD1EF701E10FF11D80811F
:1012900077DB1F5F0117C0F780917E0685FF02C0D4
:1012A0008D2D6EDB13DB0EC085E34AD8813011F043
:1012B000813141F48AE360D886E35ED88DE35CD85F
:1012C00084E35AD8EC96E7E00C940B1BCF93DF93A2
:1012D000E898249A2C9A8EE190E03BDA2C988EE1E3
:1012E00090E037DA2C9A8DE290E033DA80E344D84C
:1012F00084E690E02EDACFE8D1E0FE0184918134DB
:1013000048F42196FE01649129D82196F1E0C13C70
:10131000DF0799F783E330D881E020DADF91CF91BE
:101320000895ACE3B0E0E7E9F9E00C94EF1A019618
:10133000BE01615E7F4F4DE16ADBD82E282F30E081
:10134000215030408F8D90E02817390709F05CC09C
:1013500080911201882319F4B9DF83E0FFD986E375
:101360000BD88AE309D88BE307D84F8D498388A12E
:1013700096E789278A83DE0112969E012F5D3F4FF3
:1013800052E00BC08C918452F90191919F01892701
:1013900011968C9311975F5F1196541798F3E52F70
:1013A000F0E07E010894E11CF11CD701AE0FBF1FD5
:1013B000EC0FFD1F878D99A189278C932C988FE7BF
:1013C0000E949A01870105C0F80181918F010E9456
:1013D0009A01802F8E198D15B8F32C9A8AE30E94FA
:1013E000BC0185E30E94BC0102C085E0B7D985E35A
:1013F0000E94A0018130C9F780911201882311F069
:1014000008D802C00E94F712EC96E7E00C940B1B80
:10141000FC0101962181223729F458DF81E0809375
:1014200012010895233709F47CCF10921201089518
:10143000AEE1B0E0EEE1FAE00C94EF1A8091130116
:10144000882309F462C04A9B52C08FE30E94A00126
:101450008F7789838E3110F08DE189832C988FEFFF
:101460000E949A0110E082E0E82EF12CEC0EFD1EA5
:1014700008C080E00E949A01F701E10FF11D80830E
:101480001F5F09811017A8F380E00E949A01D82EEF
:1014900080E00E949A012C9A80917E0684FF10C001
:1014A0008AE7DCD910E07E010894E11CF11CF70109
:1014B000E10FF11D8081D2D91F5F0117C0F725C050
:1014C0008AE5CCD910E07E010894E11CF11CF701FB
:1014D000E10FF11D808154DA1F5F0117C0F7809181
:1014E0007E0685FF02C08D2D4BDAF0D90EC085E354
:1014F0000E94A001813149F48AE30E94BC0186E385
:101500000E94BC0184E30E94BC016E96E7E00C944B
:101510000B1B1F93CF93DF93E898249A2C9A8EE1AC
:1015200090E017D92C988EE190E013D92C9A8DE297
:1015300090E00FD980E30E94BC0184E690E009D9D5
:10154000C1ECD1E0FE018491813450F42196FE017A
:1015500064910E94AE012196F1E0CD3FDF0791F743
:1015600083E30E94BC0184E0F9D810E0115039F007
:1015700084E30E94BC018AE090E0EBD8F7CFDF91D2
:10158000CF911F910895AEE1B0E0E9ECFAE00C9440
:10159000EF1A0196BE016F5F7F4F4DE138DAD82E0A
:1015A000482F50E09A0121503040898190E028175F
:1015B000390709F09AC0CA0123E0880F991F2A95BC
:1015C000E1F76AE070E00E94D11A6C597F4F7B010D
:1015D0000027F7FC0095102F20917C0630917D06A6
:1015E000C901A0E0B0E08E159F05A007B10720F467
:1015F0008DEF91E06FD979C02E193F0930937D06A8
:1016000020937C0680911301882309F482DF85E30F
:101610000E94A0018D3051F08AE520D985E41ED9C1
:1016200082E51CD982E51AD981E310C00E941D020F
:1016300085E30E94A001833189F08AE50FD985E412
:101640000DD982E50BD982E509D982E307D985E373
:101650000E94A00195D93AD95CDF47C000E010E0B4
:1016600084E67CD80F5F1F4F0A301105C9F72C980C
:101670008FE70E949A017E010894E11CF11C87010A
:1016800005C0F80181918F010E949A01802F8E1967
:101690008D15B8F32C9A10E085E30E94A0018D30DF
:1016A00051F085E30E94A001833129F481E056D8EE
:1016B0001F5F183C89F785E30E94A0018D3081F0FF
:1016C0008AE5CCD885E4CAD882E5C8D882E5C6D8F0
:1016D00083E3C4D885E30E94A00152D9F7D819DF6B
:1016E00080911301882309F482D76E96E7E00C9469
:1016F0000B1BFC0101962181223729F40ADF81E0CE
:10170000809313010895233709F43DCF10921301FC
:101710000895219A29985298E9E6F0E08081816045
:10172000808382EC91E090937D0680937C061092FA
:10173000300110924C0110926801109276060895C3
:10174000982F06C04150FB01E40FF11D8081980FD6
:101750004423C1F7892F0895AC0120E006C06150F1
:10176000FA01E60FF11D808128276623C1F7822F39
:101770000895A0E0B0E0EFEBFBE00C94EE1ADC0182
:1017800010929C011092870197E013968C91139709
:10179000981B11961C911197110F110F110F190F12
:1017A00010928801FF24EE2407E057E040E070E04B
:1017B000E7E0CE2ED12CC1E0D0E07FC0FD01EE0DE0
:1017C000F11D848190E0002E02C0959587950A94C2
:1017D000E2F7282F2170002311F0015002C0E3949A
:1017E00007E06B3469F4533059F47723B9F52223B9
:1017F00011F071E062C04093870110929C011EC0FD
:101800005F3F69F56634E1F4E42FF0E0E857FE4FFE
:101810008081082E82958025082E869586958025C4
:1018200090E00196959587958170907030E08217D1
:10183000930761F04093870170939C0180E057C04B
:10184000653411F06B3411F42223A1F34F5FE42FC0
:10185000F0E0E857FE4F108257E02FC070E02223DF
:1018600059F1663479F4E42FF0E0E857FE4F9E0119
:10187000052E02C0220F331F0A94E2F78081822BCB
:1018800080831AC0653411F06B34B1F4E42FF0E0BA
:10189000E857FE4F852F992787FD90959601281BC5
:1018A000390BC9019E0102C0220F331F8A95E2F74E
:1018B000C9012081282B20835150F3948F2D815012
:1018C000811708F47BCF4093870170939C011F150B
:1018D00008F0B4CF653411F45F3F11F0772319F0AD
:1018E0004F5F4093870180918701811181E0CDB7DF
:1018F000DEB7E8E00C940A1BDC0112968C9112977B
:10190000ED91FC911197E80FF11DE08113962C9158
:101910001397215013962C9313972F5F39F48F5FF1
:1019200012968C93129787E013968C938E2F90E0EB
:1019300002C0959587952A95E2F781700895A0E0F9
:10194000B0E0E5EAFCE00C94EA1A6C01962E842ED5
:10195000FF24C0E0D0E0F1E0AF2EB12C062F10E064
:101960000150104019C0C601C7DF8823A1F08820AC
:1019700059F0C8018C1B9D0B950102C0220F331F2B
:101980008A95E2F7C90106C0C50102C0880F991FF8
:10199000EA94E2F7F82A2196EC2EC91520F38F2D50
:1019A000CDB7DEB7ECE00C94061BA4E0B0E0EBEDA5
:1019B000FCE00C94EC1AFC0187E08C833496FA83EB
:1019C000E983349710928701818190E023E0880FAA
:1019D000991F2A95E1F72381821B9109CE970CF478
:1019E0005AC01B82CC24DD245E010894A11CB11CCA
:1019F0002EC0ED2CFF24C50168E040E0A0DF082FD9
:101A000088E891E0E80EF91EF7010083002E0295A8
:101A10000025002E069506950025C5016DDF10E016
:101A20000F5F1F4F159507950170107090E0081714
:101A3000190731F4C50160DF9D2D9F5F882319F0E0
:101A4000D092870128C0F7018081C826D92EF5E001
:101A5000FD1578F6D0928701C50168E040E06FDFA0
:101A6000F82E082F002E02950025002E06950695CB
:101A70000025C50141DF10E00F5F1F4F1595079549
:101A80000170107090E00817190729F480E0CF1456
:101A900019F481E001C080E02496EAE00C94081B70
:101AA000A4E0B0E0E6E5FDE00C94EC1AFC011B823A
:101AB00087E08C833496FA83E98334971092870108
:101AC0008081853009F053C0818190E043E0880F28
:101AD000991F4A95E1F72381821B91098938910565
:101AE00009F045C019E83FE0C32E30EFD32E80E067
:101AF0005E010894A11CB11C10C0C50168E041E062
:101B00001EDFC80ED11C28E831E0E20EF31E1827B4
:101B1000F7011083182F1C5D802FE82EFF24082F5B
:101B20000F5F8F3050F3C50168E041E008DF182FE8
:101B300028E831E0E20EF31E8095F70180830093E0
:101B40008701C50168E041E0FADE082FC10ED11C13
:101B5000C50168E041E0F3DE40E0302F20E0C21A2A
:101B6000D30A90E0C816D90619F441E001C040E05C
:101B7000842F2496EAE00C94081BEF92FF921F93A7
:101B8000DF93CF9300D000D0CDB7DEB7FC01349601
:101B9000FA83E983349781818430B9F587E08C83B7
:101BA0008381813091F51B8210E07E010894E11C55
:101BB000F11C12C0112331F4C70167E041E0BFDE20
:101BC000806804C0C70168E041E0B9DEE12FF0E0C1
:101BD000E857FE4F80831F5F143060F3CE010196FB
:101BE00067E041E0ACDEE12FF0E0E857FE4F880F00
:101BF00080831F5F1093870190E080918801829518
:101C00008F708A3019F491E001C090E0892F0F9015
:101C10000F900F900F90CF91DF911F91FF90EF9059
:101C20000895FC018181A82FB0E050E0E081CD0152
:101C3000841B950B0B964797D8F48E2F90E070E09D
:101C40009C01261B370B2C30310594F4255F3F4F48
:101C50007CF08A0F9B1F861B970B841B950B8C3087
:101C6000910534F420E0855F9F4F1CF021E001C016
:101C700020E0822F0895282F30E0C901880F991F96
:101C8000820F931F860F911D959587959595879542
:101C90000895DC0111968C9111978431A8F0809100
:101CA0006F008D7F80936F008091840190E02CE124
:101CB00030E0829FF001839FF00D929FF00D112480
:101CC000EC5EFE4F10820895662381F0FD01E80F5F
:101CD000F11D81E090E013960C90139702C0880FDD
:101CE000991F0A94E2F72481282B248313968C9160
:101CF0001397815013968C9313978F5F79F487E035
:101D000013968C93139711968C9111978F5F119660
:101D10008C931197A80FB11D14961C920895809171
:101D2000840190E02CE130E0829FF001839FF00D70
:101D3000929FF00D1124EC5EFE4F8081882331F4D8
:101D400020E030E08091B00A8F3F11F021E030E0D8
:101D5000822F08951F920F920FB60F920BB60F921B
:101D60001124EF92FF920F931F932F933F934F9362
:101D70005F936F937F938F939F93AF93BF93CF9313
:101D8000DF93EF93FF9380917E0683FF1DC0C09188
:101D90008400D091850010928500109284004A99A9
:101DA00002C082E701C086E60E942E0480917E0672
:101DB00084FF08C0F4E0D695C795FA95E1F78C2F1B
:101DC0000E942E04E09A12C18091B10A882321F06A
:101DD00082E08093B10A0AC180918E0A823021F498
:101DE00083E080938E0A02C18091840090918500E7
:101DF000E4E096958795EA95E1F7182FE090840145
:101E00008CE1E89EE0011124CC5EDE4F88818430B5
:101E100031F41E3208F4EAC01F3448F0D4C08530D3
:101E200031F4173108F4E2C0183208F0CCC0982F12
:101E300094504A990CC0923038F4CE0161E029DF09
:101E400010928500109284001093B601CFC00091CB
:101E5000B601F12EF01AF092B7011092850010929F
:101E60008400923020F4CE0160E013DFBFC0B19A4D
:101E7000882371F4053608F0B9C084E68F1508F49C
:101E8000B5C0088FF98E81E08A8382E08883AEC076
:101E9000823009F072C0CE014896602F4F2DC1DE0E
:101EA0001A81882359F0888D602FE5DE888F898D0F
:101EB0006F2DE1DE898F1F5F1A8398C0143008F4FC
:101EC0005AC080EA9FE090938900809388001C307C
:101ED00050F0298D888D90E0820F911D85369105F7
:101EE00014F084E03BC01A3080F0298D888D90E09A
:101EF000820F911D85974CF485E0888388EE93E0EE
:101F000090938900809388002AC08091840688235A
:101F100021F1802F8552873100F589E08F15E8F493
:101F200086E28F15D0F080E0F01608F081E088237B
:101F3000A1F4298D988D822F8552873170F49A30C3
:101F400060F0973250F480E0921708F081E091E061
:101F5000891719F090938E0A36C083E088830A8F20
:101F6000FB8E198287E08B831C8280916F008260D8
:101F700080936F003BC018827DCFCE014A96602FC0
:101F80004F2D4FDE882361F0CE0161E082DE8A8D25
:101F9000602F71DE8A8F8B8D6F2D6DDE8B8F26C04B
:101FA000CE014896602F4F2D3CDE882361F0CE0194
:101FB00060E06FDE888D602F5EDE888F898D6F2DEB
:101FC0005ADE898F13C080916F008D7F80936F00E0
:101FD0002E2D30E08CE190E0289FF001299FF00D3C
:101FE000389FF00D1124EC5EFE4F1082FF91EF91AF
:101FF000DF91CF91BF91AF919F918F917F916F9121
:102000005F914F913F912F911F910F91FF90EF9012
:102010000F900BBE0F900FBE0F901F9018951F9240
:102020000F920FB60F920BB60F9211242F933F937E
:102030004F935F936F937F938F939F93AF93BF93D0
:10204000EF93FF9380916F008D7F80936F0080915D
:102050007E0683FF03C08EE20E942E04409184011D
:10206000242F30E08CE190E0289FF001299FF00DB3
:10207000389FF00D1124EC5EFE4F8081833018F004
:102080008181823040F480916F008D7F80936F005A
:102090008CE190E016C0809186018330E9F4809154
:1020A0007E0682FF04C084E092E00E946A04809170
:1020B0006F008D7F80936F008091840190E02CE110
:1020C00030E0829FF001839FF00D929FF00D11246C
:1020D000EC5EFE4F10820BC08F5F80938601842FD1
:1020E0008F5F80938401843011F410928401FF91FA
:1020F000EF91BF91AF919F918F917F916F915F9180
:102100004F913F912F910F900BBE0F900FBE0F90EC
:102110001F9018950F931F93CF93DF938091B70172
:102120008823E9F080917E0687FF17C084E30E9430
:10213000A0018058803410F480E00CC0803C10F086
:102140008FE008C090E08055904033E095958795EA
:102150003A95E1F78F590E942E041092B7018091B1
:102160008601882309F43EC2429A909185018CE150
:10217000989FE0011124CC5EDE4FCE0191DC8823D4
:1021800011F003E5C2C0CE0166E4F3DA882309F456
:10219000FDC140918701415040938701942F56E043
:1021A00007C09150E92FF0E0E857FE4F8081580FAB
:1021B0009923B9F7A42FB0E0FD01E857FE4F6081E5
:1021C000561711F4443068F4852F90E00196262FBD
:1021D00030E08217930779F4443068F0A857BE4F77
:1021E0005C9306E492C09150E92FF0E0E857FE4F6F
:1021F0008081280F02C0942F2CE09923A1F7261785
:1022000009F0C4C1443008F4C1C1C7C1809187013D
:10221000815080938701893009F0C1C199E020E0A5
:102220009150E92FF0E0E857FE4F8081282799234D
:10223000B9F780919101281709F0B1C105E465C093
:102240004091870141504093870160919C01342F58
:1022500050E095E020E014C03150E32FF0E0E85763
:10226000FE4FE0818E2F82958F702827980F66236E
:1022700011F0552321F08E2F8F702827980F5F5F64
:10228000332351F7920F9295907F922BE42FF0E039
:10229000E61BF109E857FE4F8081981761F08B81AA
:1022A0008F5F8B838150873009F097C11B828981B2
:1022B0008150898392C10BE428C08B81843009F05E
:1022C000DDC0CE0148966CE34EE1ABDC882309F417
:1022D000D5C0C8016091B6014EE1A3DC682FCE01E4
:1022E000D8DC1092870190E00BC0E92FF0E0DE010E
:1022F000AE0FBF1F14968C91E857FE4F80839F5FEF
:10230000953098F39093870102E580917E06782FAF
:1023100080FFB5C081FF02C020E059C040919D01FF
:1023200060918701461781F510929D0120E00EC053
:10233000E22FF0E0322F3F5FDF01A857BE4FE25699
:10234000FE4F90818C91981719F4232F241780F356
:102350002617D1F48091780690917906A0917A069B
:10236000B0917B062091B2013091B3014091B4014C
:102370005091B501821B930BA40BB50B8697A10559
:10238000B10510F421E001C020E010929D0190E021
:102390000AC0E92FF0E0DF01A857BE4F8C91E2564A
:1023A000FE4F80839F5F9617A0F390939D018091CD
:1023B000780690917906A0917A06B0917B06809379
:1023C000B2019093B301A093B401B093B501043569
:1023D000F1F476FD1CC0809187018530C0F08091BA
:1023E0008A018B3409F44BC0893609F448C083351F
:1023F00009F445C0843509F442C08D3709F43FC063
:102400008E37E9F180918B0180778037C1F12223EB
:10241000B1F5802F0E942E0480919C01882329F021
:102420008091870181508093870110E008C0E12FDF
:10243000F0E0E857FE4F80810E94C0041F5FE091EA
:1024400087011E17A0F380919C01882359F0F0E0CA
:10245000E857FE4F808190E08F70907061E040E31C
:102460000E94830480917E0685FF05C084E30E945C
:10247000A0010E94C0040E94660401C000E0809197
:102480007E0682FF6DC080E70E942E04888190E066
:1024900062E040E20E94C404888D90E024E0880F4E
:1024A000991F2A95E1F765E040E20E94C404898DF6
:1024B00090E014E0880F991F1A95E1F765E040E27B
:1024C0000E94C4048A8D90E0B4E0880F991FBA95E9
:1024D000E1F765E040E20E94C4048B8D90E0A4E047
:1024E000880F991FAA95E1F765E040E20E94C404B5
:1024F0008A8190E063E040E20E94C404898190E018
:1025000063E040E20E94C4042B8187E090E0821BDC
:10251000910962E040E20E94C40480E20E942E041D
:1025200080917E0685FF08C084E30E94A0010E947E
:10253000C00480E20E942E048B81873019F08981CB
:102540008F5F898310E007C0FE01E10FF11D8481D8
:102550000E94C0041F5F89811817B0F30E946604AF
:102560001882809186018150809386018091850137
:102570008F5F80938501843011F410928501429819
:10258000043581F588E891E00AD32CC0CE0165E4DA
:10259000F0D8882309F03ACE02C004E5B6CECE01C9
:1025A00004DA882311F008E4B0CECE01E6DA8823FD
:1025B00011F004E7AACE8E01065E1F4FC80160919C
:1025C000B6014B8D2EDB682FCE0163DBCE016BE4B1
:1025D000D0D8882309F463CE33CE8981843009F0C2
:1025E0004DCF6BCEDF91CF911F910F9108958091C8
:1025F0007E06882321F00E94E8020C9409020C94C4
:10260000C401FC018181882371F480917E060E94BF
:10261000C00480917C0690917D0665E040E20E94B6
:10262000C4040C946604CF0101966EE776E041E0A5
:102630000E940705DCCFA1E0B0E0E0E2F3E1D2C701
:1026400080918E0A882309F486C010917806833021
:1026500009F069C08FE30E94A001182F863010F4A2
:1026600000E018C088EB9EE00E9461062C988FEF76
:102670000E949A0180E00E949A01082F08C080E021
:102680000E949A01682F88EB9EE00E946906115013
:10269000B1F72C9AACDF10928E0A053709F05BC0B7
:1026A0008EEB9EE0BE016F5F7F4F41E00E94070509
:1026B0000197A1F5998180918406981779F5809109
:1026C000C20E853539F00FC088EB9EE00E94880667
:1026D0000E942E048091BC0E9091BD0E892BA1F713
:1026E0000E94660438C08091BC0E9091BD0E049784
:1026F0009093BD0E8093BC0E84E090E09093BB0E4F
:102700008093BA0E88EB9EE06AE00E946906E09131
:102710007406F091750688E009951DC088EB9EE06F
:102720000E94610618C0823049F480918306181B0C
:10273000183088F05CDF10928E0A0DC0813059F499
:1027400087E390E00E948D020E94090282E080935C
:102750008E0A109383062196E4E060C729980C94B2
:10276000A903299A0C94A903A7E0B0E0E9EBF3E1EF
:1027700036C7282F80919006843551F48091910AB4
:102780009091920A01969093920A8093910A39C08F
:10279000863451F480918F0A9091900A019690931B
:1027A000900A80938F0A2DC0853451F48091810660
:1027B000909182060196909382068093810621C0B3
:1027C0008B3451F48091940A9091950A01969093DC
:1027D000950A8093940A15C0883451F48091960A22
:1027E0009091970A01969093970A8093960A09C050
:1027F00080917F0690918006019690938006809349
:102800007F0685E78983222319F4DD24D39412C03F
:102810008091980ABE016E5F7F4F0E943A058091B9
:102820008406BE016C5F7F4F0E943A0585E58E836A
:1028300086E0D82E0E94E8020E941D0210E080E887
:1028400091E08FDF80E093E089DF1F5F1630B9F7FA
:1028500080E093E086DF80E891E080DF80E891E02F
:1028600080DF299887E390E00E948D0283E00E9438
:10287000AE032C988FE70E949A01809189068D0DF6
:102880000E949A017E010894E11CF11C8701F80165
:1028900081918F010E949A01802F8E198D15B8F3B6
:1028A00006C085E896E00E9488060E949A01809101
:1028B000890690918A06892BA1F72C9A0E941D0205
:1028C00085E896E00E94610614E104C0115081E0A1
:1028D0000E94AE038AE30E94A00190E08F7790707F
:1028E000892B11F0112391F782DE2796E7E093C63A
:1028F00016DA882361F083E08093930A80918B0A33
:1029000090918C0A019690938C0A80938B0A809107
:10291000930A81508093930A882321F083E0809367
:102920008D0A089581E020CFCF93DF93EC01898158
:10293000882339F4809184060E94C0048091980A0B
:102940000FC0843681F4809178069091790664E016
:1029500040E30E9483048EE20E942E0480918D0A3F
:102960000E94C0044DC0833709F04DC08091910A88
:102970009091920A61E040E30E9483048EE20E94FB
:102980002E0480918F0A9091900A61E040E30E94AA
:1029900083048EE20E942E0480918106909182062B
:1029A00061E040E30E9483048EE20E942E04809145
:1029B000940A9091950A61E040E30E9483048EE2BC
:1029C0000E942E048091960A9091970A61E040E35C
:1029D0000E9483048EE20E942E0480917F069091D3
:1029E000800661E040E30E9483048EE20E942E0490
:1029F00080918B0A90918C0A61E040E30E948304ED
:102A00000E9466042CC08936D9F4CE01029664E88F
:102A100076E041E00E94070580E690E06091840640
:102A20000E944C05CE01049668E97AE041E00E94DC
:102A3000070581E690E06091980A0E944C050FC05E
:102A400085E896E00E94610604C085E896E00E9451
:102A50006906219668816623C1F780E085DEDF91F3
:102A6000CF91089580E690E00E945B0580938406F4
:102A700081E690E00E945B058093980A882321F00C
:102A800081E280937E06B3CD0895DC01E0ECF1E0B5
:102A90000EC0109751F091818C91981731F492816A
:102AA00011968C9111979817A1F0E20FF11D2081DA
:102AB000222321F082E0EE36F80758F382E0EE366A
:102AC000F80719F010F0EEE6F2E0AB2B11F0E0E0C1
:102AD000F0E0CF010895CF93DF93EC01D6DFFC0146
:102AE000009779F090916E028081981750F4E90F69
:102AF000F11D80818A8389E78B8381818C8381E0CA
:102B000001C080E0DF91CF9108950F931F93CF9381
:102B1000DF938C0180917E0686FF18C084E50E94B9
:102B20002E04C0E0D0E0F801EC0FFD1F80810E9470
:102B3000C0042196C530D105B1F780917E0685FF8E
:102B400003C08AEF0E94C0040E946604DF91CF9107
:102B50001F910F91089586E30E94BC018091BB01F3
:102B6000833511F08BE401C08BE90E94AE0389EB41
:102B700091E065E04CE021E00E9435080E940902E6
:102B800089EB91E0C2CFE7DF8091BB01893631F05C
:102B900081E08093BF0189E28093B00A08951F937A
:102BA000FC014081318112819381248189E28093EB
:102BB000B00A1092BF015091990A552329F48091CF
:102BC000AF0A882309F4C5C08091B901841721F4A4
:102BD0008091BA01831771F010929B0A1092B8018C
:102BE00083E080936E028FEF8093B00A4093B90127
:102BF0003093BA0180919B0A8F3F09F4AAC01093C9
:102C0000BB019093BC012093BD011123E1F0882307
:102C1000D1F4251761F0243651F0812F835582308D
:102C200010F01D3721F48FEF80939B0A92C014356A
:102C300009F48FC0892F807F803609F08AC09067A1
:102C40009093BC0185C089EB91E045DF882329F48E
:102C500080919B0A882309F47CC09091B801992344
:102C600011F0892F06C0E0919B0AF0E0E55FFD4F6F
:102C70008491833541F4143531F480919B0A8E5F41
:102C800080939B0A0DC0811759F010929B0A1092F5
:102C9000B80183E080936E028FEF8093B00A59C031
:102CA000992379F080916E028E5F80936E0289EB9A
:102CB00091E011DF882371F480919B0A8E5F8093ED
:102CC0009B0A90919B0AE92FF0E0E45FFD4F14917D
:102CD0001F3F59F48091BB018093B8018436C1F540
:102CE00080919A0A8093BD0133C01093BB0187E79E
:102CF0008093BC018091990A8093BD01892F8E5FDA
:102D000080939B0A1092B8018E3001F589EB91E017
:102D1000BCDEFC01009781F0808190E02EE632E07D
:102D2000281B390BDF01A80FB91F02C08D918193B9
:102D3000E217F307D8F3108210929B0A1092B801A1
:102D400083E080936E028FEF8093B00A112309F025
:102D50001ADF1F9108958091BF01882351F0FBDE97
:102D600089E28093B00A8091BF0181508093BF01B6
:102D7000089510929B0A1092B80183E080936E022E
:102D80008FEF8093B00A0895A6E0B0E0E9ECF6E199
:102D900025C44091AF0A80919C0A882341F083307A
:102DA00019F08DE790E015C087E791E012C0842FFD
:102DB00090E0877090702DE730E0BC01629FC00109
:102DC000639F900D729F900D1124825B9F48959593
:102DD000879590939E0A80939D0A4A831B820FE9F0
:102DE0001AE0FF246E010894C11CD11C8CE2E82E6D
:102DF000F80190819F3FB1F08091990A8F0D8983EE
:102E000080919C0A882311F0EC8203C09C83F80116
:102E100081818D83C60165E04CE021E00E94350888
:102E2000C60173DEF3940E5F1F4FF8E0FF1601F743
:102E300080919C0A882341F0833019F410929C0AF7
:102E400003C0825080939C0A2696E8E0E3C385E3A2
:102E500090E00E945B058093990A86E390E00E94CF
:102E60005B058093AF0AEFE9FAE09FEF908332961B
:102E70008AE0EF3AF807D1F710929B0A1092B80156
:102E800083E080936E029093B00A1092C00108957F
:102E90006F927F929F92AF92BF92CF92DF92EF920A
:102EA000FF920F931F93DF93CF9300D000D000D0F9
:102EB000CDB7DEB73C017C010894E11CF11CC701D1
:102EC000BE016F5F7F4F45E00E940705E9818430B6
:102ED00008F0ACC0E130A9F4833061F485E390E000
:102EE0006A810E944C0586E390E06B810E944C054C
:102EF000AEDF22C18091990A0E94C0048091AF0A7E
:102F000090C0E23009F04DC0813029F020E030E07F
:102F10008A81813011F421E030E0E22E8091C001FD
:102F2000882321F483E292E00E946A0400EC11E01D
:102F30002EC081E0003C180719F080E20E942E04A8
:102F4000F80181810E94C004F80182810E94C004BE
:102F5000EE20C9F08AE30E942E0453E0F52E0FC044
:102F6000F3E0FF1528F4F0FE03C08CE20E942E046B
:102F7000F801EF0DF11DF39480810E94C004F80167
:102F80008081F81668F3F8018081080F111DF8019F
:102F90008081882309F447C0F2E00E361F0748F20B
:102FA00042C0E33049F480E090E06FDD20EC31E096
:102FB0002255281B822F35C0E03149F50FE91AE070
:102FC000EE24FF24F80180818F3FA1F0EE2019F05C
:102FD00080E20E942E048F2D0E94C0048AE30E948A
:102FE0002E04F80180810E94C004F80181810E94B2
:102FF000C004E3940E5F1F4FF394F8E0FF1611F73F
:10300000EE2089F48FE192E00E946A040CC0E13165
:1030100051F480919D0A90919E0A6DE770E0ADD2C7
:10302000862F0E94C0040E94660486C08091990A7F
:10303000E817D0F1482F50E0F0E0CA0107968E174C
:103040009F0794F19A818091AF0A981769F58C8156
:103050008F3231F4C3016CE042E00E94AA086CC0D8
:103060002D818C32C1F420939C0A81E090E09093F2
:103070009E0A80939D0A30E0220F331F220F331FD8
:1030800080917C0690917D06820F931F90937D0620
:1030900080937C0651C0E41BF50BEE0FF0E0E15687
:1030A000F54F8083218348C080E090E0EEDC8C0106
:1030B000D7010D900020E9F71197AE19BF09B69519
:1030C000A7959A2E9394890D911D805C91408F3A1B
:1030D000910574F5F80190827801DD24D394CC2415
:1030E000C3941BC057010894A11CB11CC3018C0DD3
:1030F000911DB50141E00E940705F2E0FD1548F47D
:10310000D0FC07C0F7018081843619F48181809357
:103110009A0AF2E0CF0ED3947501D91418F382E025
:103120000E36180748F40D0D111DF801108204C069
:1031300089E192E00E946A0426960FB6F894DEBFF9
:103140000FBECDBFCF91DF911F910F91FF90EF90F8
:10315000DF90CF90BF90AF909F907F906F90089539
:10316000A0E0B4E0E5EBF8E13BC28091B10A88232E
:1031700009F44BC08130B1F490916F0280917806D0
:10318000981709F442C085E30E94A001813129F417
:103190008AE30E94BC010E94090280917806809314
:1031A0006F0233C08FE30E94A001082F2C988FEF8D
:1031B0000E949A0110E07E010894E11CF11C08C0F5
:1031C00080E00E949A01F701E10FF11D80831F5FEB
:1031D0001017B0F32C9A81E080930D0110E07E016E
:1031E0000894E11CF11C07C0F701E10FF11D80817B
:1031F0000E942E041F5F1017B8F30E9466048FEF21
:1032000080930D0181E08093B10AC050DC4FE6E06D
:1032100003C20F931F93CF93DF93EC01DC010D905A
:103220000020E9F71197A81BB90B8981823751F467
:1032300087E390E00E948D020E94090281E0809362
:10324000B10A29C0833729F50A2F2C988FE70E94ED
:103250009A01802F82500E949A0112E004C0898155
:103260000E949A011F5F21961017C8F32C9A0E94A2
:103270001D0204C084E690E00E94A9038AE30E9434
:10328000A00190E08F779070892BA1F70E9409022E
:1032900002C01092B10ADF91CF911F910F91089552
:1032A000CF93DF9382E40E942E04C091BE12D0918E
:1032B000BF12CE0165E040E20E94C4040E94660491
:1032C00083E50E942E04809106019091070165E03C
:1032D00040E20E94C4040E94660485E40E942E0419
:1032E000809108019091090165E040E20E94C404C8
:1032F0000E94660486E40E942E04209721F4C09167
:103300000601D09107012091080130910901211592
:10331000310541F42DB73EB780910401909105012C
:10332000281B390BC217D30718F080E090E003C0C8
:10333000C9018C1B9D0B65E040E20E94C4040E9401
:103340006604DF91CF9108959C0197FF04C082E04D
:103350008093C0003F773093C5002093C40088E974
:103360008093C10086E08093C2000895E0917406C6
:10337000F091750681E009958091C10085FD0BC033
:103380008091B60A9091B70A892B29F08091C100EB
:1033900080628093C10008951F920F920FB60F9222
:1033A0000BB60F9211242F933F934F935F936F931C
:1033B0007F938F939F93AF93BF93EF93FF9388B1C6
:1033C00094E0892788B96091C6008091C000887117
:1033D00021F488EB9EE00E946906FF91EF91BF9176
:1033E000AF919F918F917F916F915F914F913F919D
:1033F0002F910F900BBE0F900FBE0F901F9018953E
:103400001F920F920FB60F920BB60F9211242F93AB
:103410003F934F935F936F937F938F939F93AF935C
:10342000BF93EF93FF938091B60A9091B70A892BCF
:1034300039F082EB9AE00E9488068093C60005C0AE
:103440008091C1008F7D8093C100FF91EF91BF916A
:10345000AF919F918F917F916F915F914F913F912C
:103460002F910F900BBE0F900FBE0F901F901895CD
:103470000F931F93CF93DF93EC0100E0802F90E038
:103480009C01220F331F280F391FF901E457FF4F0A
:103490001491F901E357FF4F25913491112399F0CD
:1034A000209739F480E20E942E04812F0E942E047E
:1034B00008C08881811729F4CE01F901099581E0BE
:1034C00003C00F5FDBCF80E0DF91CF911F910F91A1
:1034D00008951F9310910D0180930D0134C088EB66
:1034E0009EE00E948806982F8A3011F08D3009F5F1
:1034F000E0917002EE2339F1F0E0EF58FD4F1082B9
:1035000081E792E0B5DF882389F48FE392E00E949F
:103510006A0481E792E00E94770487E292E00E94C9
:103520006A0480E090E0A4DF0E94660410927002BA
:103530000AC080917002E82FF0E0EF58FD4F9083B1
:103540008F5F809370028091BC0E9091BD0E892B8D
:1035500031F610930D011F910895E4E6F0E08081AB
:103560008B7F80832F9A84B1806B84B9269880E505
:103570008CBD8DB581608DBD0895AA1BBB1B51E12B
:1035800007C0AA1FBB1FA617B70710F0A61BB70BD3
:10359000881F991F5A95A9F780959095BC01CD0178
:1035A000089597FB092E07260AD077FD04D0E5DFA2
:1035B00006D000201AF4709561957F4F0895F6F7B4
:1035C000909581959F4F08952F923F924F925F92D1
:1035D0006F927F928F929F92AF92BF92CF92DF9223
:1035E000EF92FF920F931F93CF93DF93CDB7DEB788
:1035F000CA1BDB0B0FB6F894DEBF0FBECDBF09941C
:103600002A88398848885F846E847D848C849B8472
:10361000AA84B984C884DF80EE80FD800C811B8180
:10362000AA81B981CE0FD11D0FB6F894DEBF0FBEAF
:0A363000CDBFED010895F894FFCF1F
:0A363A00023231002000C21200002D
:00000001FF
