:10000000FEC000000C944D0F18C1000016C1000086
:1000100014C1000012C1000010C100000EC1000098
:100020000CC100000AC1000008C1000006C10000A8
:1000300004C100000C94E30E00C10000FEC00000EB
:100040007DC20000FAC00000F8C00000F6C0000049
:100050000C9450170C941817F0C00000EEC000006C
:10006000ECC00000EAC00000E8C00000E6C00000EC
:10007000E4C00000E2C00000E0C00000DEC00000FC
:10008000DCC00000DAC00000D8C000006DE71642F6
:10009000750543D201467907415F09477C074DB496
:1000A0000752EE0454A51356DA0557210558BD0A28
:1000B000659A05662A166C640574DF02759A1178D4
:1000C0007B02000000072E050DD391FF08050000FC
:1000D0000C0021656A2D3B1322F862073F181D1C96
:1000E000C700B0876BF8B611EA2A001F41000D2E39
:1000F0002D07D3913D04320000060021656A55E4C6
:100100003023B900070018146C070090876BF8566D
:1001100011E92A001F410000030F1E2627000000DE
:10012000030F1E2536386700030F25674060500017
:10013000030F275188838100030F2750C8C3C200D3
:100140002700000000000000670000000000000021
:1001500050000000000000008100000000000000CE
:10016000C2000000000000203D2000202F200020C1
:100170003D2000202F20005620312E3530204353C3
:100180004D383638004C4F56460D0A000007022EF7
:10019000030D04E905CA070C0B060D210E650F6A55
:1001A00010C81193120315341730181819161B4371
:1001B0002156250026112D353EC3FF000000424F79
:1001C00056460D0A0000535300547D7DFFFF4B4BF4
:1001D0007E7E004E2F4100454F420D0A004E2F41BA
:1001E000003F20280020697320756E6B6E6F776E5C
:1001F0002920557365206F6E65206F6600001124FD
:100200001FBECFEFD0E4DEBFCDBF11E0A0E0B1E074
:10021000E4E2F1E300E00BBF02C007900D92A830CA
:10022000B107D9F712E1A8E0B1E001C01D92AF3BE0
:10023000B107E1F703D00C949018E2CE88E10FB635
:10024000F89480936000109260000FBE90E080E808
:100250000FB6F89480936100909361000FBE3A9AB4
:10026000429A0E941F1893D489EF87BD84E085BD10
:1002700082E084BD80936E00109280008AE08093BB
:10028000810084B7877F84BF2FE088E190E00FB6BC
:10029000F894A895809360000FBE2093600089E1D8
:1002A00090E80E9484170E9484130E949C0A8DED9E
:1002B00097E1909372068093710681E080930A0122
:1002C0000E94BC1080910A01886080930A014298C4
:1002D00078940E94A5170E94740C81D10E94701618
:1002E0000E943812DFD6F5CF8EBD0DB407FEFDCFCC
:1002F0008EB50895A1E0B0E0E0E8F1E00C944F186D
:10030000482F8A3008F048E088E0489F70011124A7
:10031000E7E1F1E0EE0EFF1E8BE290E0F701649161
:100320008C010F5F1F4F498351D3FFEFEF1AFF0A74
:10033000C80149810333110589F74550453010F450
:1003400061E101C067E184E290E040D32196E6E0FC
:100350000C946B18CF93DF9382E090E0FC01E451A2
:10036000FF4F6491EC01219631D3CE01CB32D10500
:10037000A9F787E390E0FC01E257FF4F6491EC019D
:10038000219624D3CE01C036D105A9F788E0B2DF8B
:10039000DF91CF9108952C98806CA6DF80E0A4DFD8
:1003A0002C9A0895A1E0B0E0E8EDF1E00C94521829
:1003B00041E0BE016F5F7F4F0196BFD2892B21F1D3
:1003C0008981893969F410E0812FE5DFB2D2812F6C
:1003D0008770873009F429D21F5F1033A9F714C042
:1003E000DADF182F83E4D1D18981A3D287E691E0A7
:1003F0000FD2812F9ED28BE691E00AD240E262E0DA
:10040000812F90E016D211D22196E3E00C946E1861
:10041000A1E0B0E0EEE0F2E00C9453182C98806478
:10042000698362DF6981862F5FDF2C9A2196E2E083
:100430000C946F182C9858DF2C9A0895CF93CFEF17
:1004400084E3F8DF8AE090E019D1C150C9F7E89A57
:10045000CF910895CF93E89886E3ECDFCFEF85E363
:10046000E9DF8AE090E00AD1C150C9F7CF91089541
:10047000EF92FF920F931F93CF93DF93EC01E898D5
:10048000249A2C9A8EE190E0F9D02C988EE190E09D
:10049000F5D02C9A8DE290E0F1D080E3CBDF84E6BA
:1004A00090E0ECD02C9880E41FDF8E01075D1F4F99
:1004B0007E018FEFE81AF80ACE018DD215DFE70131
:1004C000E016F106A9F72C9A2C988EE70DDF8BE247
:1004D00090E0EC0121967FD207DFCE01C333D10536
:1004E000C1F72C9A83E3A6DF81E0CDD0CDB7DEB78C
:1004F000E6E00C946B18A1E0B0E0E1E8F2E00C94C7
:10050000531822E0298341E0BE016F5F7F4F0196BF
:1005100014D28981EFDE82E090E0AADF2196E2E04A
:100520000C946F1886E386DF10927306089582E0BC
:1005300090E09EDF81E08093730608951F920F92F2
:100540000FB60F9211248F939F93AF93BF93809117
:10055000750690917606A0917706B091780601967F
:10056000A11DB11D8093750690937606A093770622
:10057000B0937806809174068F5F8D3718F480935E
:10058000740602C01092740680919A0A90919B0A98
:10059000009729F0019790939B0A80939A0A809183
:1005A000AD0A8F3F19F081508093AD0ABF91AF9192
:1005B0009F918F910F900FBE0F901F901895CF9322
:1005C000DF93C5E7D6E08B81B4D18A81B2D189812E
:1005D000B0D18881AED129D1DF91CF91089580919A
:1005E000750690910801891709F447C080930801A6
:1005F000A89580919A0A90919B0A892B11F40E94E8
:10060000FA148091AD0A811102C00E9453158091A5
:100610008A0A882339F0815080938A0A811102C0A6
:100620000E94CC1280917406811127C08091000134
:1006300081FF04C088B194E0892788B98091790648
:1006400090917A06843823E0920728F401969093DB
:100650007A0680937906809109018F5F8093090162
:100660008C3359F4109209018091970A8F5F80931F
:10067000970A8C3310F01092970A0895880F991FEB
:100680000197F1F7089520ED37E003C0F9013197A4
:10069000F1F78150D8F70895CF93DF93FC0186815D
:1006A000843509F06FC0C081D1812DE001C02F5F7A
:1006B000822F90E08C179D0740F09E012F5031094A
:1006C0008217930709F05EC008C0DF01A80FB91FA9
:1006D00016963C913B3359F7F0CFDE011E97AE0FD3
:1006E000BF1F16968C91843509F04CC0DE01189717
:1006F000AE0FBF1F978111968C911197981342C02E
:10070000908512968C91129798133CC09185139600
:100710008C911397981336C0928514968C911497E8
:10072000981330C0CE014197AE014B5051094E0F86
:100730005F1F15962C9115978E0F9F1FEC012E832E
:1007400016968C911697EA01898319968C911997C0
:100750008A831A968C911A978B831B968C911B9780
:100760008C831C968C911C978D831D968C918E8307
:10077000808191810A9791838083848195810A97F2
:1007800095838483DF91CF910895CF93C82F809173
:100790000A0180FF13C02091B30A3091B40A2E3FA2
:1007A00083E0380738F02115344040F4CD3011F0A3
:1007B000CA3021F46C2F8FEA9AE008D28091950A12
:1007C0008823C9F080910A0183FF15C0CA3099F0CF
:1007D000CD3011F46BE301C06C2F82E896E0F6D1C6
:1007E000CD3019F482E896E057DF83E080938A0ADF
:1007F00082E08093900ACF910895CF93DF93EC012C
:1008000001C0C3DF89918111FCCFDF91CF910895A1
:10081000CF93DF93EC0102C0B8DF2196FE018491F3
:100820008111FACFDF91CF9108958DE0AEDF8AE09C
:10083000ACCFA6E0B0E0EFE1F4E00C945118062F45
:100840001E82FE01369615E02AE030E01150B90113
:100850000E942F18805D8293CB010150009761F4B4
:10086000512F80E090E001509E012F5F3F4F210FFC
:10087000311D17FD3A9508C01111E8CFF1CF515045
:10088000F901E80FF91F4083602F680F67FD03C06F
:1008900001975111F4CF81E090E08C0F9D1F850FDF
:1008A000911D57FD9A95A9DF2696E4E00C946D18EA
:1008B000A5E0B0E0EEE5F4E00C9453181D82FE01D3
:1008C000359654E0282F2F7051502A3010F4205DB7
:1008D00001C0295C229324E0969587952A95E1F73B
:1008E0006150009779F780E090E061509E012F5FA2
:1008F0003F4F250F311D57FD3A9505C05150F90165
:10090000E80FF91F4083762F780F77FF0AC081E048
:1009100090E08C0F9D1F850F911D57FD9A956DDFFF
:1009200004C00197151654F3F2CF2596E2E00C941B
:100930006F1840E362E090E0BBCFFB012AC0A32F19
:10094000A053AA3018F42A2BA1E001C0A0E0B32FD5
:10095000B154B63020F4A32FA7532A2BA1E0B32F14
:10096000B156B63018F43755232B07C0A11105C076
:10097000303289F03A3379F005C0552331F02193B4
:10098000415039F4E61BF70B0CC02295207F51E053
:1009900002C050E020E0DC013D91CD013111CFCF0C
:1009A000F1CFCF010895982F92959F709A3010F44F
:1009B000905D01C0995CFB0190838F708A3010F4C8
:1009C000805D01C0895CFB01818308950E948218CB
:1009D000F999FECF08950C947A180895A2E0B0E03A
:1009E000E4EFF4E00C9450181A82198242E0BE0140
:1009F0006F5F7F4F0196A1DF9981823029F4192F13
:100A000000E08A81082B02C0092F10E0C801E3DF53
:100A1000F82E82E5BADE40E364E0C80149DF8FE6E4
:100A200091E0F6DE8F2D85DF83E791E0F1DE40E295
:100A300062E08F2D90E0FDDEF8DE2296E5E00C947A
:100A40006C18A6E0B0E0E7E2F5E00C944D186C01FC
:100A500043E0BE016F5F7F4F01966FDF823080F110
:100A60002981823019F4E22EF12C04C0F22EE12CFF
:100A70002A81E22A8C011127FE01E00FF11F60811B
:100A8000C701A4DF000F111F0F5F1F4F0C0D1D1DAD
:100A90008FEFE81AF80A10C041E0BE016F5F7F4F88
:100AA000C8014BDF892B61F06981C7018FDF0E5FC1
:100AB0001F4FE2E0EE0EF11CF80180818111ECCFB6
:100AC0002696E8E00C94691841E060E071E0019638
:100AD00034DF8091000180FF02C0429A01C0429839
:100AE0006091000184E390E071CFA1E0B0E0EBE71A
:100AF000F5E00C9453181982009731F041E0BE01E3
:100B00006F5F7F4F019619DF8981882321F061E0B3
:100B100083E390E05BDF10926E00F89428E088E1B8
:100B200090E00FB6F894A895809360000FBE2093D4
:100B30006000FFCFCF93DF93EC0161E080E090E0B5
:100B400045DF62E381E090E041DF04DC60E080E6C5
:100B500090E03CDF60E081E690E038DF60E083E336
:100B600090E034DF62E084E390E030DF60E080E634
:100B700090E02CDF60E081E690E028DF8981883713
:100B800019F080E090E0B1DFDF91CF91089580E02F
:100B900090E021DF813029F481E090E01CDF823396
:100BA00019F080E090E0C6DF84E390E014DF8093EA
:100BB0000001089587E791E02BDE37CEFC01158216
:100BC000148211821082138212820895FC018481A2
:100BD0009581811524E0920790F401969583848392
:100BE00080819181DF01A80FB91F16966C93019641
:100BF000918380838115944011F4118210820895AD
:100C0000FC01848195810097B1F0019795838483DD
:100C100022813381DF01A20FB31F16968C912F5FC3
:100C20003F4F211594E0390719F03383228308954B
:100C300013821282089580E00895FA01308188239A
:100C400069F0DB01A30FB11DE1E0F0E0022E01C06D
:100C5000EE0F0A94EAF79C919E2B9C93222319F0A5
:100C6000822F81500BC0832F8F5F8C3010F4FA01DC
:100C70008083FB01E80FF11D108287E090E008956A
:100C8000CF93C82F299A882319F080910F0102C0B1
:100C900080910D0120E1829FC0011124EFDC299891
:100CA000CC2319F080910E0102C080910C0120E14B
:100CB000829FC0011124E2DCCF910895A5E0B0E04D
:100CC000E4E6F6E00C9443186C01162F942EA22E45
:100CD000E982842F90E09D838C8340917906509126
:100CE0007A060296089F802D1124992787FD9095FA
:100CF0004817590720F485E891E08ADD6DC0481B4C
:100D0000590B50937A0640937906429A8091730664
:100D1000811101C00CDC9EDBE12FF0E0FB83EA8354
:100D2000EE24E394F12CB12CC601890D911D97FCA2
:100D30009A954C01612C712C05C080E0A1DF9FEFDA
:100D4000691A790AEA81FB816E167F06B4F31123D2
:100D500011F081E095DF412C512C17C097E0292E2E
:100D6000312C3601640C751CC701022C01C0880FA0
:100D70000A94EAF7F3019081892382DFF1E02F1AC8
:100D8000310890F79FEF491A590AEC81FD814E1600
:100D90005F0624F387E0682E712C0DC0C701062C76
:100DA00001C0880F0A94EAF7F4019081892368DF73
:100DB000F1E06F1A7108A614B70484F3898163DC2B
:100DC000015009F0B7CF80917B06882311F036DB04
:100DD00002C086E32FDB42982596E2E10C945F186F
:100DE000ADE0B0E0E6EFF6E00C9446187C01162F7B
:100DF000842F022F6701C60ED11C462FB701D2D314
:100E0000D6018C931F5F1D8619825E2C670127E037
:100E100088248394912C32C047E0A42EB12C370152
:100E2000680E711CF4010A2C01C0EE0F0A94EAF757
:100E3000D3018C91AE01435F5F4FBE016F5F7F4F67
:100E40008E23FBDE282FB1E0AB1AB10858F7D6018C
:100E5000ED916D010E2EE295E0250E2EE695E695BC
:100E6000E025F0E03196E1FB882780F9AE01435F91
:100E70005F4FBE016F5F7F4FE0DE282F8C2D8519FD
:100E8000811708F4C9CF222311F0215004C08D85A9
:100E90008F5F8D8727E089E180930C0180930D019E
:100EA00085E280930E0180930F013AE0E32E4D8599
:100EB0006CE0CE01019602DF2D96EFE00C946218F3
:100EC000ADE0B0E0E6E6F7E00C945218162F242FC0
:100ED0004BE0BE016F5F7F4F01962D872EDD2D8584
:100EE000412F682FCE0101967BDF2D96E3E00C9415
:100EF0006E1843E066E0E4CFEF920F93CF93DF9359
:100F0000CDB7DEB760970FB6F894DEBF0FBECDBF8A
:100F100040E1BE016F5F7F4F01960FDD69814A811D
:100F20000B818C8180930D018D8180930C018E81CA
:100F300080930F018F8180930E01E02EE2947FE079
:100F4000E7220F70242F2F7042954F70CE01089624
:100F5000B5DE60960FB6F894DEBF0FBECDBFDF9151
:100F6000CF910F91EF900895A9E1B0E0EAEBF7E09F
:100F70000C944B184BE0BE016F5F7F4F0196DDDC98
:100F8000182F893009F05BC099E190930C01909380
:100F90000D0190930F0182E380930E0169E0CE0171
:100FA00001960AD3E1E0F0E0EC0FFD1FE10FF11D27
:100FB0008083198E1D868E010F5F1F4F6E018BE09F
:100FC000C80ED11C27E0AA24A394B12C25C0E12C83
:100FD000F12CF5010E2C01C0EE0F0A94EAF7D801AE
:100FE0008C91AE01475E5F4FBE01635F7F4F8E23E2
:100FF00024DE282FBFEFEB1AFB0A88E0E816F10485
:1010000041F7AE01475E5F4FBE01635F7F4F81E0F6
:1010100014DE282F0F5F1F4F0C151D05C1F622236C
:1010200011F0215004C0898D8F5F898F27E0EAE09D
:10103000EE2E03E0498D6CE0CE010D963FDE699601
:10104000EAE00C946718CF93DF93E898249A2C9ADF
:101050008EE190E013DB2C988EE190E00FDB2C9A70
:101060008DE290E00BDB80E3E5D984E690E006DBDF
:10107000C0E0D0E0FE01E457FE4F8491813428F0B7
:1010800083E3D8D981E0FFDA0AC0FE01E357FE4FBF
:101090006491BED92296C233D10561F7F1CFDF91B9
:1010A000CF910895ACE3B0E0E8E5F8E00C94511876
:1010B00080911001882309F490C04A9B80C08FE37F
:1010C0006AD98F778E3108F401C08DE18F8F2C980B
:1010D0008FEF0AD910E00AC080E006D9E0E2F0E024
:1010E000EC0FFD1FE10FF11D80831F5F8F8D18171F
:1010F00098F380E0F9D8182F2C9A8AE39BD986E3DD
:1011000099D98DE397D984E395D98F8D898388A167
:1011100096E789278A8382E012C0AEE1B0E0AC0F87
:10112000BD1FA20FB31F9C919452AFE1B0E0AC0F72
:10113000BD1FA20FB31F2C91922790838F5F9981BF
:10114000282F30E0E1E0F0E0EC0FFD1FE20FF31F8D
:10115000891718F3DE01A20FB31F5F968C919B8154
:101160008927808380917B0684FF11C081E60DDB97
:1011700010E009C0E1E0F0E0EC0FFD1FE10FF11D10
:10118000808103DB1F5F89818117A0F726C081E47E
:10119000FCDA00E009C0E1E0F0E0EC0FFD1FE00F39
:1011A000F11D8081C6DB0F5F89818017A0F78091D8
:1011B0007B0685FF02C0812FBCDB37DB0EC085E3D9
:1011C000EAD8813011F0813141F48AE333D986E3E2
:1011D00031D98DE32FD984E32DD9EC96E4E00C943A
:1011E0006D18ACE3B0E0E7EFF8E00C944D184DE17A
:1011F000BE016F5F7F4F0196A0DB6C019C0133271E
:1012000021503109898190E02817390709F053C02E
:1012100080911001811103C016DF83E034DA86E388
:1012200009D98AE307D98BE305D989818F8F9A8100
:1012300026E7922798A3FE01B096DE01139622E0DE
:1012400006C091913D919452932790832F5F281768
:10125000C0F3823008F482E090E08E01015E1F4FFF
:10126000F801E80FF91FDE01A80FB91F11968C9144
:101270009B81892780832C988FE736D8780104C01A
:10128000F70181917F0130D88E2D801B8C15C0F322
:101290002C9A8AE3CFD885E3CDD802C085E0F3D974
:1012A00085E379D88130D1F780911001882311F03E
:1012B000C5D801C058D1EC96E8E00C946918FC013F
:1012C0002181223729F4BFDE81E080931001089547
:1012D000233711F4019685CF1092100108956F9273
:1012E0007F928F929F92BF92CF92DF92FF920F9345
:1012F0001F93CF93DF93A62F10929A011092810132
:10130000FC016181660F660F660F2381621B695FB6
:1013100010928201F12C70E047E0F7E0DF2EC12C43
:1013200020E007E010E0C1E0D0E07DC0FC01EC0D62
:10133000F11D248130E00D2C02C0359527950A94CB
:10134000E2F721703327522FDD2011F0DA9403C029
:10135000C394E7E0DE2EAB3491F4433009F081C052
:10136000F11007C051115CC010929A017093810175
:1013700076C0F12C79C0AB3409F050C03CC04F3F6F
:1013800041F5A634B9F4E72FF0E0EE57FE4F408167
:10139000042E42954025042E46954695402550E062
:1013A0004F5F5F4F41FB882480F8912C8216930693
:1013B00041F004C0A53429F4511103C0F0929A0100
:1013C000D5CF7F5FE72FF0E0EE57FE4F108247E06A
:1013D00029C0552319F1A63459F4E72FF0E0EE5750
:1013E000FE4F9E01042E01C0220F0A94EAF713C09B
:1013F000A53409F0C0CFE72FF0E0EE57FE4F98017B
:10140000241B310947FD33953E0102C0660C771C51
:101410002A95E2F793013081322B3083415002C08C
:10142000FF24F3942B2DB22EB394261708F47ECF0D
:10143000F0929A01709381016B1588F4A53419F428
:101440004F3F09F404C080919A01882319F07F5F0F
:101450007093810181E090918101911108C080E039
:1014600006C04F3F09F4A8CF5111C5CFD7CFDF91A8
:10147000CF911F910F91FF90DF90CF90BF909F90E1
:101480008F907F906F90089510926F00E091B4015B
:101490008CE1E89FF0011124EF5EFE4F1082089569
:1014A000FC01218130E050E07081C901841B950B63
:1014B0000B964797C8F4872F90E070E0FC01E61B7D
:1014C000F70BEC30F10584F4E53FFF4F6CF0280F8B
:1014D000391F640F751F261B370B2C30310524F480
:1014E00081E0253F3F4F0CF480E00895FC0121810D
:1014F000243108F0C9CF662389F0DC01A20FB11DA9
:1015000081E090E0038002C0880F991F0A94E2F7FF
:1015100014969C911497982B14969C9383818823FE
:1015200019F081508383089587E083832F5F21839F
:10153000E20FF11D14820895219A29985298E9E644
:10154000F0E080818160808382EC91E090937A0664
:101550008093790610922D01109249011092650135
:1015600010927306089580917B06882321F00E94D3
:1015700097020C941E020C949202FC01218121110D
:101580000BC080917B06D5D940E265E08091790659
:1015900090917A064ED949C941E06BE776E0019611
:1015A000CCD9E1CF06C04150FB01E40FF11D908181
:1015B000890F4111F8CF089520E006C06150FC0169
:1015C000E60FF11D308123276111F8CF822F089596
:1015D000FC0132812381A081B181A30FB11D8C91C7
:1015E00090E0022E02C0959587950A94E2F78170EB
:1015F000922F91509383211104C03F5F328397E073
:10160000938308958F929F92BF92CF92DF92EF9231
:10161000FF920F931F93CF93DF9300D0CDB7DEB728
:101620006C01812C912CB12CEE24E394F12C062F2B
:1016300010E0015011091DC0C6014A836983C8DF4B
:101640004A816981882391F0442349F0980128193F
:1016500039098E2D01C0880F2A95EAF706C08E2D14
:10166000082C01C0880F0A94EAF7B82A8FEF881A6D
:10167000980A861608F38B2D0F900F90DF91CF916B
:101680001F910F91FF90EF90DF90CF90BF909F90B0
:101690008F900895A4E0B0E0E0E5FBE00C944A18D8
:1016A0001B8227E02C839C012C5F3F4F3A832983C8
:1016B00010928101FC012181338187E090E0831B3E
:1016C0009109F8E02F9F800D911D1124853491051B
:1016D0007CF554C00A2D10E040E068E0CE01019690
:1016E00091DF0E571E4FF8018083982E092C92949B
:1016F0009024092C969496949024CE01019668DF4C
:10170000292D30E02F5F3F4F21FBCC24C0F8D12C96
:1017100090E0C816D90691F5CE01019659DF8111E6
:101720002DC0F8018081B826A394A092810101C048
:10173000B12CA0908101F5E0FA1560F640E068E078
:10174000CE0101965FDF082F182F012E129510256C
:10175000012E169516951025CE01019639DF212F01
:1017600030E02F5F3F4F21FBEE24E0F8F12C282FD3
:1017700030E0E216F30611F481E0B01280E0249626
:10178000EBE00C946618A5E0B0E0E9ECFBE00C940B
:101790005018FC011B8287E08C83CF0104969A834A
:1017A0008983109281018081853009F04EC02181AA
:1017B000338187E090E0831B910938E0239F800DFF
:1017C000911D11248039910509F03FC00FE010EF01
:1017D00029E812C0CE0101962D8314DF080F111DD8
:1017E000EF2DF0E0EE57FE4F2D8128272083282F84
:1017F0002C5DF394F0928101F09081018EE041E044
:1018000068E08F1538F7CE010196FCDE080F111D38
:10181000EF2DF0E0EE57FE4F80958083F394F09229
:10182000810141E068E0CE010196ECDE382F20E036
:10183000021B130B41E068E0CE010196E3DE282F86
:1018400030E081E00217130709F080E02596E5E01B
:101850000C946C18A4E0B0E0E0E3FCE00C945218A7
:101860001B8227E02C839C012C5F3F4F3A83298306
:10187000FC012181243099F58381813081F510921A
:10188000810114C0111106C067E0CE010196BADED5
:10189000806804C068E0CE010196B4DEE12FF0E07C
:1018A000EE57FE4F80831F5F1093810110918101DD
:1018B00041E0143038F367E0CE010196A3DEE12F5A
:1018C000F0E0EE57FE4F880F80831F5F1093810179
:1018D0009091820192959F7081E09A3009F080E0AA
:1018E0002496E3E00C946E18A0E0B0E0EAE7FCE098
:1018F0000C944D18809196018823B9F180917B0654
:1019000087FF17C084E30E94CB018058803458F0D1
:10191000803C58F490E080559109B3E09595879507
:10192000BA95E1F703C080E001C08FE08F590E94B3
:10193000C50380917B0683FF16C082E70E94C50322
:1019400080917B0684FF04C0809197010E94C503AB
:1019500086E60E94C50380917B0684FF04C08091C7
:1019600096010E94C50310929601809198018823E8
:1019700009F424C2429AC09199012CE1C29FE0016E
:101980001124CF5EDE4FCE01FEDE8111DBC1D4C15A
:1019900010918101115010938101412F62E871E093
:1019A00086E000DE612F70E0FB01EE57FE4F008104
:1019B000801303C0143008F0C7C1282F30E02F5F18
:1019C0003F4FE02FF0E02E173F0739F4143028F096
:1019D000FB01EE57FE4F8083B7C1412F62E871E0F3
:1019E0008CE0E0DD801731F065E4CE0178DC811118
:1019F00005C0B0C1143008F0A9C1F6CF80918101B3
:101A0000815080938101893009F0A4C169E082E8A6
:101A100091E0D2DD90918B0189139CC199C1E09135
:101A20008101E150E093810140919A019E2F30E0C5
:101A300085E020E013C09150A92FB0E0AE57BE4F13
:101A40005C91652F62956F702627860F442311F0F5
:101A5000332319F05F702527850F3F5F9111EBCF7E
:101A6000820F30E1839FC0011124822BF0E0E41B40
:101A7000F109EE57FE4F908189138BC18EC11B82F5
:101A80008981815089838DC18B81843009F0D2C0D6
:101A90004EE16CE3CE01489603DD882309F4CAC009
:101AA0004EE16F2DC801FCDC682FCE011FDD20E068
:101AB000822F90E0FC01EE57FE4FDE01A80FB91F08
:101AC00014968C9180832F5F253090F36FC1A1FD18
:101AD0005BC030919B01B09181013B1331C020E08C
:101AE00012C0822F90E0422F4F5FFC01E456FE4F60
:101AF0008E579E4F5081FC018081581719F0231397
:101B00001FC004C0242F231760F3F9CF409175063E
:101B1000509176066091770670917806C090B0017A
:101B2000D090B101E090B201F090B3014C195D0981
:101B30006E097F0931E0463251056105710508F0F3
:101B400030E020E00CC0822F90E0AC0144565E4FA4
:101B50008E579E4FFC018081FA0180832F5F2B17E7
:101B600090F320939B014091750650917606609109
:101B70007706709178064093B0015093B10160935D
:101B8000B2017093B30101C030E00435E9F4A6FD61
:101B90001BC0809181018530B8F0809184018B3425
:101BA00009F449C0893609F446C0833509F443C0B5
:101BB000843509F440C08D37F1F18E37E1F1809121
:101BC000850180778037B9F1311135C0802F0E94AF
:101BD000C50380919A01882329F080918101815069
:101BE0008093810110E008C0E12FF0E0EE57FE4F36
:101BF00080810E9499041F5FE09181011E17A0F36C
:101C000080919A01882351F0F0E0EE57FE4F8081D9
:101C100040E361E08F7090E00E94580480917B0661
:101C200085FF05C084E30E94CB010E9499040E94B5
:101C3000150401C000E080917B0682FF65C080E74B
:101C40000E94C50340E262E0888190E00E9419048E
:101C5000888D40E265E0F0E18F9FC00111240E9471
:101C60001904898D40E265E020E1829FC0011124C2
:101C70000E9419048A8D40E265E030E1839FC00133
:101C800011240E9419048B8D40E265E0E0E18E9FF3
:101C9000C00111240E94190440E263E08A8190E0AF
:101CA0000E94190440E263E0898190E00E941904D7
:101CB0002B8140E262E087E090E0821B91090E9464
:101CC000190480E20E94C50380917B0685FF08C04D
:101CD00084E30E94CB010E94990480E20E94C50324
:101CE0008B81873019F089818F5F898310E007C06D
:101CF000FE01E10FF11D84810E9499041F5F89811B
:101D00001817B0F30E941504188280919801815031
:101D100080939801809199018F5F843019F08093AE
:101D2000990102C0109299014298043509F046C009
:101D300082E891E0C7D642C066E4CE01D0DA8111D4
:101D400027CE52CE03E535C006E433C004E531C0EA
:101D500005E42FC0CE019EDC811105C0CE017ADDE5
:101D6000811115C002C008E424C0F09097018E01D3
:101D7000065E1F4F4B8D6F2DC80192DB682FCE0181
:101D8000B5DB6BE4CE01ABDA811149CE02C004E7CA
:101D900010C08B81873019F472CE0BE40AC08F5FBC
:101DA0008B838981843009F46FCE44CF20938101E5
:101DB00002E5A0917B06A0FD8ACE3DCFCDB7DEB770
:101DC000E8E00C9469181F920F920FB60F9211243D
:101DD0000BB60F922F933F934F935F936F937F9325
:101DE0008F939F93AF93BF93EF93FF9310926F00E6
:101DF00080917B0683FF03C08EE20E94C503809121
:101E0000B4019CE1899FF0011124EF5EFE4F9081A7
:101E1000933018F09181923010F436DB18C0909115
:101E20009801933049F480917B0682FFF6CF8EEBC8
:101E300091E00E940804F1CF9F5F909398018F5F1B
:101E4000843019F08093B40102C01092B401FF9164
:101E5000EF91BF91AF919F918F917F916F915F9122
:101E60004F913F912F910F900BBE0F900FBE0F908F
:101E70001F901895982F9552973160F46A3050F062
:101E8000673240F421E030E0681710F020E030E0E5
:101E9000C901089580E090E008951F920F920FB657
:101EA0000F9211240BB60F920F931F932F933F9312
:101EB0004F935F936F937F938F939F93AF93BF9352
:101EC000CF93DF93EF93FF938091AE0A882321F0A5
:101ED00082E08093AE0A22C180918B0A823021F485
:101EE00083E080938B0A1AC18091840090918500D1
:101EF000E4E096958795EA95E1F7182FC091B40133
:101F00008CE1C89FE0011124CF5EDE4F88818430D0
:101F100031F41E3208F402C11F3448F0A3C08530EA
:101F200031F4173108F4FAC0183208F09BC04A990E
:101F30000DC08450823038F461E0CE01D7DA1092BF
:101F400085001092840010939701E8C000919701DA
:101F5000101B1093960110928500109284008881C6
:101F60008450823020F460E0CE01C0DAD7C082E035
:101F700086BB8881811111C090919701953608F038
:101F8000CDC080919601853608F0C8C0988F898FA2
:101F900081E08A8382E08883C1C0412F602F823034
:101FA00009F070C0CE0148967BDA882301F1888D54
:101FB00090E09C01220F331F280F391F200F311D85
:101FC0003595279535952795288F298D30E0C901BE
:101FD000880F991F820F931F810F911D95958795EB
:101FE00095958795898F8A818F5F8A8397C08A812B
:101FF000843008F445C080EA9FE090938900809384
:1020000088008A818C3050F0888D298D30E0280F2F
:10201000311D2536310524F084E027C08A3088F050
:10202000888D298D30E0280F311D253231054CF483
:1020300085E0888388EE93E0909389008093880000
:1020400015C080918106882379F0612F802F12DFDF
:10205000882351F0688D898D0DDF882329F081E078
:1020600080938B0A11DA5AC083E088830A8F1B8F12
:10207000198287E08B831C8282E080936F004EC0C0
:1020800018827ACFCE014A960BDA882301F161E0FB
:10209000CE012CDA4A8D50E09A01220F331F240F13
:1020A000351F200F311D35952795359527952A8F9A
:1020B0002B8D30E0C901880F991F820F931F810F6C
:1020C000911D95958795959587958B8F27C0412F65
:1020D000602FCE014896E4D9882309F4C3CF60E08D
:1020E000CE0104DA488D50E09A01220F331F240FED
:1020F000351F200F311D3595279535952795288F4C
:10210000298D30E0C901880F991F820F931F810F1D
:10211000911D9595879595958795898FFF91EF915D
:10212000DF91CF91BF91AF919F918F917F916F91EF
:102130005F914F913F912F911F910F910F900BBE87
:102140000F900FBE0F901F901895E091B4018CE195
:10215000E89FF0011124EF5EFE4F8081811109C0DC
:1021600081E090E02091AD0A2F3F29F480E090E0DB
:10217000089581E090E0089580E690E00E94EB04ED
:102180008093810681E690E00E94EB048093950A9B
:10219000882321F081E280937B06E5C90895299A7E
:1021A0000C943E0329980C943E03A7E0B0E0EAEDBE
:1021B000F0E174C790918D06943559F420918E0A00
:1021C00030918F0A2F5F3F4F30938F0A20938E0AF2
:1021D0003EC0963459F420918C0A30918D0A2F5FBD
:1021E0003F4F30938D0A20938C0A31C0953459F4B7
:1021F00020917E0630917F062F5F3F4F30937F0600
:1022000020937E0624C09B3459F42091910A30918A
:10221000920A2F5F3F4F3093920A2093910A17C082
:10222000983459F42091930A3091940A2F5F3F4FCC
:102230003093940A2093930A0AC020917C0630912F
:102240007D062F5F3F4F30937D0620937C0695E7F8
:102250009983882399F0BE016E5F7F4F8091950A24
:102260000E94D304BE016C5F7F4F809181060E9463
:10227000D30485E58E8396E0D92E02C0DD24D39465
:102280000E9497020E942A0216E080E891E087DF10
:1022900080E093E087DF1150C1F780E093E07FDFBB
:1022A00080E891E07FDF80E891E079DF299887E39B
:1022B00090E00E94380283E00E9443032C988FE74D
:1022C0000E947401809186068D0D0E947401EE2497
:1022D000E394F12CEC0EFD1E8701F80181918F0132
:1022E0000E947401802F8E198D15B8F306C082E804
:1022F00096E00E9400060E947401809186069091EB
:102300008706892BA1F72C9A0E942A0282E896E080
:102310000E94DE0515E103C081E00E9443038AE3C9
:102320000E94CB018F7711F01150B1F71CD927967D
:10233000E7E0D0C6CF93DF93EC018981811107C01C
:10234000809181060E9499048091950A0FC084367D
:1023500081F440E364E080917506909176060E94D6
:1023600058048EE20E94C50380918A0A0E94990453
:102370004DC0833709F04DC040E361E080918E0A83
:1023800090918F0A0E9458048EE20E94C50340E398
:1023900061E080918C0A90918D0A0E9458048EE22F
:1023A0000E94C50340E361E080917E0690917F0624
:1023B0000E9458048EE20E94C50340E361E08091D0
:1023C000910A9091920A0E9458048EE20E94C503DD
:1023D00040E361E08091930A9091940A0E9458042E
:1023E0008EE20E94C50340E361E080917C069091FB
:1023F0007D060E9458048EE20E94C50340E361E01E
:102400008091880A9091890A0E9458040E941504BC
:102410002CC08936D9F441E061E876E0CE0102961D
:102420000E949D046091810680E690E00E94E6048F
:1024300041E065E97AE0CE0104960E949D04609136
:10244000950A81E690E00E94E6040FC082E896E0DB
:102450000E94DE05219604C082E896E00E94E6050F
:1024600069916111F9CF80E0A0DEDF91CF910895ED
:10247000A1E0B0E0EDE3F2E114C680918B0A88237D
:1024800009F487C010917506833009F069C08FE3A5
:102490000E94CB01182F8630C8F085EB9EE00E9489
:1024A000DE052C988FEF0E94740180E00E94740179
:1024B000082F08C080E00E947401682F85EB9EE021
:1024C0000E94E6051150B1F72C9A01C000E04BD8EC
:1024D00010928B0A053709F05CC041E0BE016F5FC6
:1024E0007F4F8BEB9EE00E949D040197A1F599819F
:1024F0008091810698132FC08091BF0E853581F49D
:1025000006C085EB9EE00E9400060E94C5038091F4
:10251000B90E9091BA0E892BA1F70E94150439C00B
:102520008091B90E9091BA0E04979093BA0E809351
:10253000B90E84E090E09093B80E8093B70E6AE0F5
:1025400085EB9EE00E94E605E0917106F09172062F
:1025500088E009951EC085EB9EE00E94DE0519C04B
:10256000823051F480918006181B183090F00E9440
:10257000B30A10928B0A0DC0813059F487E390E0C2
:102580000E9438020E941E0282E080938B0A109300
:1025900080062196E4E0A1C5D8DD882361F083E0C0
:1025A0008093900A8091880A9091890A019690936D
:1025B000890A8093880A8091900A81508093900ABA
:1025C000882321F083E080938A0A089581E0EDCD8D
:1025D0001092980A1092630283E0809364028FEF56
:1025E0008093AD0A0895E5EBF1E00EC0009751F03D
:1025F0004181DC013C91431305C0428111963C911D
:102600004317B1F0E20FF11D2081211105C0892B84
:1026100041F0E0E0F0E00CC0B2E0E336FB0730F35D
:10262000F6CF32E0E336F30719F010F0E3E6F2E01C
:10263000CF01089586E692E0D6DF009799F02091C9
:102640006402FC013081231768F4E20FF11D8081E0
:102650008093680289E780936902818180936A028E
:1026600081E0089580E00895EF92FF921F93CF9349
:10267000DF931F92CDB7DEB7182F80917B0686FFC0
:1026800018C084E599830E94C503E12E9981F92E33
:1026900015E0F70181917F010E9499041150C9F75B
:1026A00080917B0685FF03C08AEF0E9499040E94F7
:1026B00015040F90DF91CF911F91FF90EF90089537
:1026C00086E30E941A0280916802833511F48BE937
:1026D00001C08BE40E94430321E04CE065E086E604
:1026E00092E00E94F0060E941E0286E692E0BCCFB5
:1026F000E7DF80916802893631F081E080936502DE
:1027000089E28093AD0A089585E390E00E94EB048E
:102710008093960A86E390E00E94EB048093AC0AD3
:102720008FEF80939C0A80939E0A8093A00A8093E7
:10273000A20A8093A40A8093A60A8093A80A809391
:10274000AA0A46DF1092B5010895A7E0B0E0EAEAD0
:10275000F3E1A2C46C018C010F5F1F4F45E0BE0185
:102760006F5F7F4FC8010E949D04E981843008F0AB
:10277000B8C0E130A9F4833061F46A8185E390E068
:102780000E94E6046B8186E390E00E94E604BCDFD1
:102790002EC18091960A0E9499048091AC0A9CC037
:1027A000E23009F052C0813041F081E090E02A81AE
:1027B000213029F080E090E002C081E090E0E82E36
:1027C0008091B501811104C08DED91E00E94080453
:1027D00005EB11E030C031E0053B130719F080E252
:1027E0000E94C503F80181810E949904F801828149
:1027F0000E949904E11005C0F8018081080F111DA5
:102800001AC08AE30E94C50323E0F22E0FC0F3E052
:10281000FF1528F4F0FE03C08CE20E94C503F80106
:10282000EF0DF11DF39480810E949904F8018081DD
:10283000F81668F3E1CFF8018081882309F44EC0CF
:10284000F2E003361F0738F249C0E33049F480E074
:1028500090E0C9DE855B91409EEA981B892F3CC0C1
:10286000E03181F50CE91AE09DE9E92E9AE0F92EB4
:10287000C12CD12CF80180818F3FA1F0DD2019F00F
:1028800080E20E94C5038C2D0E9499048AE30E9475
:10289000C503F80180810E949904F70180810E949C
:1028A0009904D3940E5F1F4FC394F2E0EF0EF11C16
:1028B00038E0C312DFCFD11011C083ED91E00E9448
:1028C00008040CC0E13151F480919A0A90919B0A5E
:1028D0006DE770E0C4D3862F0E9499040E9415040E
:1028E00086C08091960AE817C8F190E0F0E09C015C
:1028F000295F3F4F2E173F078CF13A812091AC0A98
:1029000032132CC02C812F3231F442E06CE0C6012E
:102910000E9460076CC02C32B9F42D812093990A73
:1029200081E090E090939B0A80939A0A80917906C7
:1029300090917A06E4E02E9F800D911D11249093D2
:102940007A068093790653C0E81BF90BEE0FF0E08E
:10295000E456F54F20838D81818349C080E090E06B
:1029600042DE7C01F80101900020E9F73197E01B7D
:10297000F10BF695E795BE2EB394C7018B0D911D13
:10298000855B91408F3A910574F5F701B1928F0103
:1029900021E01AC041E0B801F601E80FF11DCF01B6
:1029A0002F830E949D042F81233058F020FD09C001
:1029B000D80111978C91843621F4F801808180939D
:1029C000970A2F5F0F5F1F4F822F880F81502B15A3
:1029D00008F3F3E6EF16F2E0FF0648F4F701E20F22
:1029E000F11D108204C087ED91E00E940804279633
:1029F000E9E06EC3A6E0B0E0EFEFF4E150C38091F0
:102A0000AC0A8A831B829091990A992341F09330F2
:102A100019F487E791E00CC08DE790E009C087705A
:102A20002DE7829FC0011124825B9F489595879571
:102A300090939B0A80939A0A0DE91AE0F12C3CE2EC
:102A4000E32EF801319790819F3FC1F08091960A63
:102A50008F0D89838091990A882311F0EC8203C03D
:102A60009C83F80180818D8321E04CE065E0CE01FC
:102A700001960E94F006CE010196F6DDF3940E5FFA
:102A80001F4FF8E0FF12DDCF8091990A882341F0B3
:102A9000833019F41092990A03C082508093990AE6
:102AA0002696E6E018C380916502882351F008DE7F
:102AB00089E28093AD0A809165028150809365021E
:102AC000089586CDFF920F931F93CF93DF93FC0160
:102AD000F0800181C281D381148189E28093AD0AA3
:102AE000109265028091960A811105C08091AC0A0E
:102AF000882309F4ABC0809166028F1104C08091D5
:102B00006702801729F064DDF09266020093670285
:102B10008091980A8F3F09F499C0C0936802D093BE
:102B2000690210936A02CC23F1F081111CC08091DC
:102B3000960A181761F0143651F08C2F83558230A5
:102B400010F0CD3739F48FEF8093980A7FC0C435E9
:102B500009F47CC08D2F807F803609F077C0D06764
:102B6000D093690267C066DD811105C08091980A23
:102B7000882309F46BC080916302811107C0E09142
:102B8000980AF0E0EB53FE4FE49101C0E82FE335E3
:102B900041F4C43531F49091980A9E5F9093980A5D
:102BA00004C0EC1711F014DD51C0882309F444C0AF
:102BB000809164028E5F809364023CDD811106C0C7
:102BC0008091980A8E5F8093980A36C0809168023F
:102BD00080936302843671F58091970A80936A022C
:102BE00029C01093680297E7909369029091960A22
:102BF00090936A028E5F8093980A109263028E30DF
:102C0000B9F486E692E0EFDCDC01009781F02C91CC
:102C100030E083E692E0821B930B05C0ED01C20F0A
:102C2000D31F48814D93A817B907C0F31C92D0DC7D
:102C3000112361F05DDD0AC08091980AE82FF0E071
:102C4000EA53FE4F14911F3F61F6C0CFCDB7DEB7F8
:102C5000E5E042C20F931F93CF93DF93EC01A82FBF
:102C6000BD2FFD0101900020E9F73197EA1BFB0B16
:102C70008981823751F487E390E00E9438020E94F4
:102C80001E0281E08093AE0A26C0833711F50E2F15
:102C90002C988FE70E947401802F82500E9474014B
:102CA000229612E004C089910E9474011F5F1017E0
:102CB000D0F32C9A0E942A0204C084E690E00E947D
:102CC0003E038AE30E94CB018F77B9F70E941E0270
:102CD00002C01092AE0ADF91CF911F910F9108951B
:102CE000A0E0B4E0E5E7F6E1D8C18091AE0A882320
:102CF00009F445C08130A9F490916C028091750669
:102D00009817E9F185E30E94CB01813129F48AE328
:102D10000E941A020E941E028091750680936C0226
:102D20002EC08FE30E94CB01D82E2C988FEF0E94EB
:102D300074018E010F5F1F4F7801C02E06C080E026
:102D40000E947401F70181937F018E2D8C198D15DE
:102D5000B0F32C9A81E080930A0105C0F8018191BB
:102D60008F010E94C503802F8C198D15B8F30E9426
:102D700015048FEF80930A0181E08093AE0ADC5F37
:102D8000E8E0A7C12091BB123091BC12211531059A
:102D900021F420910301309104018091010190916F
:102DA0000201009741F48DB79EB740910501509103
:102DB0000601841B950B2817390728F4AC01421B28
:102DC000530B9A0102C020E030E0C901089582E46B
:102DD0000E94C50340E265E08091BB129091BC1255
:102DE0000E9419040E94150483E50E94C50340E275
:102DF00065E080910301909104010E9419040E94F2
:102E0000150485E40E94C50340E265E0809101015C
:102E1000909102010E9419040E94150486E40E9408
:102E2000C503B0DF40E265E00E9419040C9415046C
:102E30001F920F920FB60F9211240BB60F922F9381
:102E40003F934F935F936F937F938F939F93AF9332
:102E5000BF93EF93FF938091B30A9091B40A892BAB
:102E600039F08FEA9AE00E9400068093C60005C000
:102E70008091C1008F7D8093C100FF91EF91BF9140
:102E8000AF919F918F917F916F915F914F913F9102
:102E90002F910F900BBE0F900FBE0F901F901895A3
:102EA0001F920F920FB60F9211240BB60F922F9311
:102EB0003F934F935F936F937F938F939F93AF93C2
:102EC000BF93EF93FF9388B194E0892788B960910D
:102ED000C6008091C000887121F485EB9EE00E94BD
:102EE000E605FF91EF91BF91AF919F918F917F91F7
:102EF0006F915F914F913F912F910F900BBE0F906B
:102F00000FBE0F901F90189597FF04C022E02093EA
:102F1000C0009F779093C5008093C40088E9809398
:102F2000C10086E08093C20008958091C10085FDB4
:102F30000BC08091B30A9091B40A892B29F080913B
:102F4000C10080628093C1000895E0917106F09104
:102F5000720681E00995E9CF0F931F93CF93DF931A
:102F6000EC0110E0812F90E09C01220F331F280F0D
:102F7000391FF901E457FF4F049123573F4FF901DF
:102F800025913491002399F0209739F480E20E9432
:102F9000C503802F0E94C50308C08881801305C027
:102FA000CE01F901099581E003C01F5FDBCF80E00E
:102FB000DF91CF911F910F910895CF93C0910A0196
:102FC00080930A0132C085EB9EE00E94000690913A
:102FD0006D028A3011F08D3001F5992331F1E92F1E
:102FE000F0E0E259FD4F10828EE692E0B5DF8111EC
:102FF00011C081EE91E00E9408048EE692E00E94EA
:10300000FD0385EE91E00E94080480E090E0A4DFDB
:103010000E94150410926D0208C0E92FF0E0E259F9
:10302000FD4F80839F5F90936D028091B90E9091C8
:10303000BA0E892B41F6C0930A01CF910895E4E6B8
:10304000F0E080818B7F80832F9A84B1806B84B97C
:10305000269880E58CBD8DB581608DBD0895AA1B35
:10306000BB1B51E107C0AA1FBB1FA617B70710F073
:10307000A61BB70B881F991F5A95A9F780959095A5
:10308000BC01CD0108952F923F924F925F926F92B3
:103090007F928F929F92AF92BF92CF92DF92EF92E8
:1030A000FF920F931F93CF93DF93CDB7DEB7CA1B69
:1030B000DB0B0FB6F894DEBF0FBECDBF09942A8894
:1030C000398848885F846E847D848C849B84AA843C
:1030D000B984C884DF80EE80FD800C811B81AA81C9
:1030E000B981CE0FD11D0FB6F894DEBF0FBECDBF94
:1030F000ED010895F999FECF92BD81BDF89A992707
:1031000080B50895262FF999FECF1FBA92BD81BDD3
:1031100020BD0FB6F894FA9AF99A0FBE0196089559
:04312000F894FFCF51
:08312400020000BF12200000B0
:00000001FF
