:100000005DC100000C94CC0A75C1000073C10000F2
:1000100071C100006FC100006DC100006BC1000024
:1000200069C1000067C1000065C1000063C1000034
:1000300061C100000C94BA0B5DC100005BC10000FF
:1000400068C3000057C1000055C1000053C1000043
:100050000C9437120C9467124DC100004BC1000084
:1000600049C1000047C1000045C1000043C1000074
:1000700041C100003FC100003DC100006DBD114203
:10008000E60443FF0146870849051444761347C236
:10009000074D5107535306529C0554371056E2043E
:1000A000571A0558930E6563056676116C0B057437
:1000B0007C03781F0300000000030F1E26270000AA
:1000C00000030F1E2536386700030F256740605078
:1000D00000030F275188838100030F2750C8C3C234
:1000E0000027000000000000006700000000000082
:1000F000005000000000000000810000000000002F
:1001000000C20000000000000D2E2D07D3913D0419
:10011000320000060021656A55E43023B90007006B
:1001200018146C070090876BF85611E92A001F41DC
:1001300000072E050DD391FF080500000C00216576
:100140006A2D3B1322F862073F181D1CC700B087B9
:100150006BF8B611EA2A001F4100202F2000203D35
:1001600020005620312E34302043534D383638008D
:10017000202F2000203D20004C454E4552520D0AB4
:1001800000424F56460D0A0000535300547D7DFF38
:10019000FF4B4B7E7E00454F420D0A004E2F410023
:1001A00020697320756E6B6E6F776E2920557365AD
:1001B000206F6E65206F66003F202800626F6F74AD
:1001C000696E67207570202E2E2E20002020206260
:1001D0007573776172652E646500202A00312E34B4
:1001E000300020560043534D383638002A20000195
:1001F0001016070B070B070B0F14000F140001005C
:1002000002040D0F26040D040D0010102020010122
:100210000002040D0F26040D040D00000000000173
:10022000010003050C0F1E050C040A0010152525FE
:10023000010100040714183A071407140C18000CE5
:100240001801010005020B0D1B020B020B00101C14
:100250002830010100120208080E02080105000EF4
:10026000142028010100070C100C100101010102EB
:1002700007070D0D0000010803061A2203060A0EE7
:100280000005050F0F01000009050A05090101011C
:1002900001050D0D15150000030D101A0307050AC1
:1002A0000F190000000A0A0100000F060B060B01DF
:1002B0000101010000010B110001030011241FBE08
:1002C000CFEFD0E1DEBFCDBF11E0A0E0B1E0E8EFBD
:1002D000F7E302C005900D92AC30B107D9F713E0F7
:1002E000ACE0B1E001C01D92AE36B107E1F70CD031
:1002F0000C94FA1B85CEFB01DC0102C005900D9227
:1003000041505040D8F7089588E10FB6F894809393
:100310006000109260000FBE80E090E020E80FB611
:10032000F89420936100809361000FBE089A109AA0
:10033000099A119A0E94F213ECD30E945F1481E093
:1003400087BD84E085BD82E084BD80936E001092FD
:1003500080008AE08093810084B7877F84BF2FE08C
:1003600088E190E00FB6F894A895809360000FBEE6
:100370002093600089E190E80E9411120E94C0134E
:100380000E942110C7D68AEC92E19093D402809308
:10039000D30281E180931101119878940E94231275
:1003A0000E94260C63D10E941C110E942614F6CFD5
:1003B0008EBD0DB407FEFDCF8EB508952C98806CD0
:1003C0008EBD0DB407FEFDCF8EB51EBC0DB407FE6D
:1003D000FDCF8EB52C9A08952C988EBD0DB407FED6
:1003E000FDCF8EB52C9A08952C9886E38EBD0DB462
:1003F00007FEFDCF8EB52C9A1092D5020895A1E08C
:10040000B0E0E5E0F2E00C94D11B0196BE016F5F15
:100410007F4F41E08DD2892B41F18981893989F45F
:1004200000E010E0802FCADF3CD2C80187709070D6
:10043000079709F4DCD10F5F1F4F0033110591F7C7
:1004400014C0BCDF182F83E4BFD189812AD28EE586
:1004500091E0D1D1812F25D28AE591E0CCD1812FB5
:1004600090E062E040E221D2C2D12196E4E00C9417
:10047000ED1B0F931F931FEF04E32C980EBD0DB4DB
:1004800007FEFDCF8EB52C9A8AE090E08ED11150F8
:10049000A1F7E89A1F910F9108950F931F93E89881
:1004A0002C9886E38EBD0DB407FEFDCF8EB52C9A39
:1004B0001FEF05E32C980EBD0DB407FEFDCF8EB5E2
:1004C0002C9A8AE090E071D11150A1F71F910F9101
:1004D0000895EF92FF920F93CF93DF93082F8A3006
:1004E00008F008E0C02FD0E083E0CC0FDD1F8A9534
:1004F000E1F7C854DF4F8BE290E07C010894E11CE7
:10050000F11CFE01649147D22196C7018333910506
:10051000A1F70550053010F067E101C061E184E208
:1005200090E039D2DF91CF910F91FF90EF90089535
:10053000CF93DF9382E090E0EC012196FE01EB5F28
:10054000FE4FE4916E2F27D2CB32D10511F0CE01B0
:10055000F3CF87E390E0EC012196FE01E750FF4FD7
:10056000E4916E2F18D2C036D10511F0CE01F3CF31
:1005700088E0AFDFDF91CF9108950F931F93CF9362
:10058000DF938C01E898249A2C9A8EE190E00DD1AB
:100590002C988EE190E009D12C9A8DE290E005D163
:1005A0002C9880E38EBD0DB407FEFDCF8EB52C9A3E
:1005B00084E690E0FAD02C9880E48EBD0DB407FE5E
:1005C000FDCF8EB5C0E0D0E0C8018C0F9D1FF2D1E9
:1005D0008EBD0DB407FEFDCF8EB52196C932D10573
:1005E00099F72C9A2C988EE78EBD0DB407FEFDCF9F
:1005F0008EB58BE290E0EC012196DCD18EBD0DB47E
:1006000007FEFDCF8EB5C333D10511F0CE01F3CF78
:100610002C9A2C9883E38EBD0DB407FEFDCF8EB5CA
:100620002C9A81E0C7D0DF91CF911F910F9108954F
:1006300082E090E0A2DF81E08093D5020895A1E0FE
:10064000B0E0E5E2F3E00C94D31B22E029830196AD
:10065000BE016F5F7F4F41E06BD189813ADF82E05D
:1006600090E08BDF2196E2E00C94EF1B9091D60294
:1006700080910F01981709F43EC090930F01A8953F
:100680008091DE02882331F08091E202882311F408
:100690000E94081080910E018F5F80930E0181509F
:1006A0008D3748F110920E018091000181FF04C046
:1006B00082B192E0892782B98091DA029091DB02BF
:1006C00023E08438920728F401969093DB0280930C
:1006D000DA0280910D018F5F80930D018C3359F404
:1006E00010920D018091DF028F5F8093DF028C33C7
:1006F00010F01092DF0208958091D902D2D080913B
:10070000D802CFD08091D702CCD08091D602C9D068
:100710006EC01F920F920FB60F9211242F933F932A
:100720004F935F936F937F938F939F93AF93BF93F9
:10073000EF93FF930E94201480910C018F5F8093B0
:100740000C0181508D3700F110920C018091D6027E
:100750009091D702A091D802B091D9020196A11D23
:10076000B11D8093D6029093D702A093D802B09384
:10077000D9028091DE02882339F08091E202882339
:1007800019F081508093E202FF91EF91BF91AF91F8
:100790009F918F917F916F915F914F913F912F9199
:1007A0000F900FBE0F901F901895880F991F0197FB
:1007B000F1F7089520ED37E004C0F9013197F1F722
:1007C00081508823D1F708951F93182F809111012C
:1007D00084FF03C0812F0E944B138091110180FF81
:1007E00004C084EE92E0612FE3D11F9108958DE063
:1007F000EBDF8AE0E9CFCF93DF93EC0102C0E4DFC7
:100800002196FE0184918823D1F7DF91CF9108953D
:10081000CF93DF93EC0102C02196D6DF8881882335
:10082000D9F7DF91CF910895A5E0B0E0EAE1F4E0D7
:100830000C94D31B1D82FE01349624E0582F5F7068
:1008400021505A3018F4352F305D02C0352F395CF5
:10085000308334E0969587953A95E1F7615031976A
:10086000009761F72150822F992787FD90952F5F80
:10087000FE013196E80FF91F03C0215040833197E4
:10088000615067FD02C01216C4F3332727FD30956F
:10089000CE010196820F931FBBDF2596E2E00C94F8
:1008A000EF1B90E062E040E3BFCFA6E0B0E0EBE5F5
:1008B000F4E00C94D11B9C01162F042F1E82FE0124
:1008C000359645E04150C9016AE070E00E94AF1BD7
:1008D000805D8083C9016AE070E00E94AF1B9B01CC
:1008E00011506115710559F44150842F992787FDE6
:1008F00090954F5FFE013196E80FF91F07C03197C1
:10090000442301F7F1CF415000833197115017FD77
:1009100002C01416C4F3242F332727FD3095CE01CF
:100920000196820F931F74DF2696E4E00C94ED1B72
:10093000DC01FB0123C0822F80538A3010F050E08D
:1009400002C0382B51E0822F8154863020F4275387
:10095000322B295C51E0822F8156863018F42755BE
:10096000322B07C0552329F4203271F02A3361F06D
:100970000EC0992331F03193415049F030E090E0BE
:1009800003C03295307F91E02D912223A1F6CF0153
:10099000861B970B08959C01F999FECF1FBA32BDB3
:1009A00021BD60BD0FB6F894FA9AF99A0FBEF99975
:1009B000FECF08959C01F999FECF32BD21BDF89A72
:1009C00080B5089582E691E016DF11CFA1E0B0E096
:1009D000ECEEF4E00C94D31B1982009731F00196F1
:1009E000BE016F5F7F4F41E0A3DF8981882321F043
:1009F00083E390E061E0CFDF10926E00F89428E08E
:100A000088E190E00FB6F894A895809360000FBE3F
:100A100020936000FFCF019660E071E041E088DF45
:100A20006091000160FF02C0119A01C0119884E337
:100A300090E0B1CFA6E0B0E0E0E2F5E00C94CD1B91
:100A40006C010196BE016F5F7F4F43E071DF082F9D
:100A50008230A8F12981823019F4E22EFF2407C0E8
:100A6000922F80E02A81E22EFF24E82AF92A10E062
:100A7000FE01E00FF11FC70160818DDF000F111F24
:100A80000F5F1F4F0C0D1D1D0894E11CF11C6E0122
:100A90000894C11CD11C0FC0C801B60141E048DF59
:100AA000892B69F0C701698176DF0E5F1F4F82E0F5
:100AB00090E0E80EF91EF8018081882369F72696F8
:100AC000E8E00C94E91B0F931F938C0180E090E009
:100AD00061E061DF81E090E068E25DDF29DD80E6D2
:100AE00090E060E058DF81E690E060E054DF83E36F
:100AF00090E060E050DF84E390E062E04CDFF801DA
:100B00008181883719F080E090E060DF1F910F91BC
:100B1000089580E090E04EDF813029F481E090E09C
:100B200049DF883219F080E090E0CDDF84E390E087
:100B300041DF809300010895EF92FF921F93DF93AE
:100B4000CF9300D0CDB7DEB71B8219820196BE01CC
:100B50006F5F7F4F42E0ECDE2981823041F4922FBB
:100B600080E02A81E22EFF24E82AF92A02C0E22E40
:100B7000FF24C7011FDF182F82E526DEC70164E0CE
:100B800040E352DE84E791E036DE812F8ADE80E7A3
:100B900091E031DE812F90E062E040E286DE27DEE8
:100BA0000F900F90CF91DF911F91FF90EF900895DC
:100BB000DC0112968C911297803470F48F5F12963C
:100BC0008C9312978C91FD01E80FF11D63838F5F69
:100BD0008C93803409F41C920895DC0112968C9158
:100BE0001297882311F490E013C0815012968C93D1
:100BF000129711968C911197FD01E80FF11D9381C9
:100C00008F5F11968C931197803411F411961C927A
:100C1000892F0895CF93DF93DB01EA01322F4881BA
:100C2000882369F0FB01E40FF11D81E090E002C030
:100C3000880F991F2A95E2F72081282B20833323E0
:100C400019F0832F815009C0842F8F5F8C3008F4F6
:100C50008883A80FB11D1C9287E090E0DF91CF91AF
:100C600008951F93182F299A882319F08091140151
:100C700002C08091120190E034E0880F991F3A95EC
:100C8000E1F793DD2998112319F08091150102C035
:100C90008091130190E024E0880F991F2A95E1F7D5
:100CA00084DD1F910895A8E2B0E0E9E5F6E00C9438
:100CB000C81B01968E010F5F1F4FB80143E138DE5C
:100CC000803121F088E791E096DD82C099E84FE01D
:100CD00050EF20E030E0B801DE015596FB01E20F55
:100CE000F31F80818927FD01E20FF31F8083480FE6
:100CF000511D982F9C5D2F5F3F4F2F30310571F7AD
:100D0000888980958CA39A01280F311DC9019DA364
:100D10002EA3119A8091D502882309F489DCBDDBCA
:100D2000299810E002E08AEF90E03FDD85B180274E
:100D300085B91F5F1E31B9F7299884EF91E035DD41
:100D400075E1E72EF12CEC0EFD1ECC24C39462E07D
:100D5000762E51E0852E912C47E2A42EB12CAC0EBC
:100D6000BD1E29C085B1872585B98AEF90E01DDDBC
:100D7000F701808190E0002E02C0959587950A9436
:100D8000E2F788259925DD24D394D822DC1419F4C0
:100D900085B1872585B98AEF90E007DD01501040C5
:100DA000CD2CFFEF0F3F1F07E9F60894E11CF11C63
:100DB000EA14FB0419F007E010E0D4CF29988091E1
:100DC000DC02882311F055DB02C086E305DB1198B5
:100DD000A896EDE00C94E41BA0E0B0E0E2EFF6E0B2
:100DE0000C94C61B5C01562EC42E122FD02E119AC5
:100DF0008091D502882309F41BDC4FDBE1E06E2EE5
:100E0000712C812E992410E003C080E02ADF1F5F3F
:100E10001515D9F781E025DF8501FF2415C0C7E04E
:100E2000D0E093010C2E02C0220F331F0A94E2F788
:100E3000F8018081822315DF2197FFEFCF3FDF0785
:100E400081F7F3940F5F1F4FFC1449F7C7E0D0E020
:100E50000C2D112707FD10950A0D1B1D0CC09301C9
:100E60000C2E02C0220F331F0A94E2F7F801808192
:100E70008223F7DE21978C169D068CF38E2D9ADC4B
:100E8000DA9409F0C0CF8091DC02882311F0F1DA06
:100E900002C086E3A1DA1198CDB7DEB7EFE00C947B
:100EA000E21BA9E1B0E0E7E5F7E00C94C71B2EE0F8
:100EB000E22EF12CEC0EFD1E0196B7014BE038DD61
:100EC000893009F05BC089E180931301809312019E
:100ED0008093140182E380931501C70169E03DD13D
:100EE0008F8B19821A8207E0A7E010E097E0692E45
:100EF000712C81E0882E912C5701B2E0CB2ED12CA1
:100F0000CC0EDD1E7E010894E11CF11C01C007E03F
:100F1000802F992787FD90959301281B390BC401D9
:100F200002C0880F991F2A95E2F79C01F501E10F95
:100F3000F11D80818223B601A7012A2F6BDEA82F25
:100F4000002311F00150E4CF81E0B601A7012A2F60
:100F500061DEA82F1F5F1A30D0F2882319F0282FE6
:100F6000215004C089818F5F898327E0CE010296DA
:100F70006CE0498103E0FAE0EF2E2EDF6996EEE0A7
:100F80000C94E31BEF920F93DF93CF93CDB7DEB7B3
:100F900060970FB6F894DEBF0FBECDBF0196BE01BD
:100FA0006F5F7F4F40E1C4DC69814A810B818C8196
:100FB000809312018D81809313018E81809314019F
:100FC0008F8180931501242F2F70E02EE2943FE053
:100FD000E322CE01089642954F700F70FDDE6096B9
:100FE0000FB6F894DEBF0FBECDBFCF91DF910F914A
:100FF000EF900895AEE0B0E0E0E0F8E00C94C31BA1
:101000007C01162F842F2E87B701412F9AD0F7012C
:10101000E10FF11D8083A12EA39419821A8247014A
:10102000E7E0BB24F1E02F2E312C72E0472E512C4B
:101030004C0E5D1E3E010894611C711C2FC007E020
:1010400010E06701CB0CD11C9101002E02C0220FD1
:10105000331F0A94E2F7D6018C918223B201A301D7
:101060002E2FD8DDE82F01501040BFEF0F3F1B0798
:1010700059F7D4018D914D01082E82958025082EB7
:1010800086958695802590E0019695958795817047
:10109000B201A3012E2FBEDDE82FB394BA1478F26B
:1010A000EE2319F02E2F215004C089818F5F898390
:1010B00027E089E1809313018093120185E28093F8
:1010C000150180931401CE0102966CE049810E85D2
:1010D0005AE0E52E81DE2E96E2E10C94DF1BACE0B7
:1010E000B0E0E5E7F8E00C94CF1BF62EE42E019675
:1010F0008E010F5F1F4FB8014BE01ADC682FC8014B
:101100004F2D2E2D77DF2C96E6E00C94EB1B66E03E
:1011100043E0E5CF219A29985298E9E6F0E08081F2
:101120008160808382EC91E09093DB028093DA020D
:1011300010922A0110923E01109252011092D50293
:101140000895982F06C04150FB01E40FF11D8081E6
:10115000980F4423C1F7892F0895AC0120E006C001
:101160006150FA01E60FF11D808128276623C1F73F
:10117000822F0895A0E0B0E0E0ECF8E00C94CD1BE5
:10118000DC01109276011092690197E013968C9120
:101190001397981B11961C911197110F110F110F96
:1011A000190F10926A01FF24EE2407E057E040E097
:1011B00070E0E7E0CE2ED12CC1E0D0E07FC0FD0191
:1011C000EE0DF11D848190E0002E02C0959587956B
:1011D0000A94E2F7282F2170002311F0015002C079
:1011E000E39407E06B3469F4533059F47723B9F58D
:1011F000222311F071E062C04093690110927601E0
:101200001EC05F3F69F56634E1F4E42FF0E0E65973
:10121000FE4F8081082E82958025082E8695869522
:10122000802590E00196959587958170907030E0CB
:101230008217930761F0409369017093760180E013
:1012400057C0653411F06B3411F42223A1F34F5FC2
:10125000E42FF0E0E659FE4F108257E02FC070E017
:10126000222359F1663479F4E42FF0E0E659FE4F79
:101270009E01052E02C0220F331F0A94E2F78081DF
:10128000822B80831AC0653411F06B34B1F4E42FE3
:10129000F0E0E659FE4F852F992787FD909596013E
:1012A000281B390BC9019E0102C0220F331F8A95EA
:1012B000E2F7C9012081282B20835150F3948F2D10
:1012C0008150811708F47BCF4093690170937601B8
:1012D0001F1508F0B4CF653411F45F3F11F0772388
:1012E00019F04F5F4093690180916901811181E09C
:1012F000CDB7DEB7E8E00C94E91BDC0112968C91C7
:101300001297ED91FC911197E80FF11DE081139672
:101310002C911397215013962C9313972F5F39F428
:101320008F5F12968C93129787E013968C938E2F73
:1013300090E002C0959587952A95E2F7817008950F
:10134000A0E0B0E0E6EAF9E00C94C91B6C01962E2F
:10135000842EFF24C0E0D0E0F1E0AF2EB12C062FA8
:1013600010E00150104019C0C601C7DF8823A1F06A
:10137000882059F0C8018C1B9D0B950102C0220FDB
:10138000331F8A95E2F7C90106C0C50102C0880F64
:10139000991FEA94E2F7F82A2196EC2EC91520F35A
:1013A0008F2DCDB7DEB7ECE00C94E51BA4E0B0E0E8
:1013B000ECEDF9E00C94CB1BFC0187E08C833496B8
:1013C000FA83E983349710926901818190E023E0E8
:1013D000880F991F2A95E1F72381821B9109CE97E7
:1013E0000CF45AC01B82CC24DD245E010894A11C9D
:1013F000B11C2EC0ED2CFF24C50168E040E0A0DF49
:10140000082F8AE691E0E80EF91EF7010083002E0E
:1014100002950025002E069506950025C5016DDF75
:1014200010E00F5F1F4F159507950170107090E049
:101430000817190731F4C50160DF9D2D9F5F8823D0
:1014400019F0D092690128C0F7018081C826D92EF1
:10145000F5E0FD1578F6D0926901C50168E040E03D
:101460006FDFF82E082F002E02950025002E06951E
:1014700006950025C50141DF10E00F5F1F4F159550
:1014800007950170107090E00817190729F480E0A3
:10149000CF1419F481E001C080E02496EAE00C94B6
:1014A000E71BFC018181A82FB0E050E0E081CD0175
:1014B000841B950B0B964797D8F48E2F90E070E025
:1014C0009C01261B370B2C30310594F4255F3F4FD0
:1014D0007CF08A0F9B1F861B970B841B950B8C300F
:1014E000910534F420E0855F9F4F1CF021E001C09E
:1014F00020E0822F0895282F30E0C901880F991F1E
:10150000820F931F860F911D9595879595958795C9
:101510000895DC0111968C9111978C3090F0109207
:101520006F008091660190E024E130E0829FF0013D
:10153000839FF00D929FF00D1124EA5EFE4F108202
:101540000895662381F0FD01E80FF11D81E090E030
:1015500013960C90139702C0880F991F0A94E2F714
:101560002481282B248313968C91139781501396F2
:101570008C9313978F5F79F487E013968C9313976E
:1015800011968C9111978F5F11968C931197A80FDC
:10159000B11D14961C9208951F920F920FB60F92D0
:1015A0001124EF92FF920F931F932F933F934F932A
:1015B0005F936F937F938F939F93AF93BF93CF93DB
:1015C000DF93EF93FF938091E302882321F082E081
:1015D0008093E302B8C0809184009091850054E02C
:1015E000969587955A95E1F7182FE090660184E16A
:1015F000E89EE0011124CA5EDE4F9881943031F4F8
:101600001E3208F4A0C01F3408F08DC04A990CC0E7
:10161000943039F4CE0161E07CDF109285001092A5
:101620008400109388018FC000918801F12EF01A78
:10163000F09289011092850010928400943021F478
:10164000CE0160E066DF7FC082E086BB992371F443
:10165000053608F078C084E68F1508F474C0088B4E
:10166000F98A81E08A8382E088836DC09230A9F58F
:10167000CE014096602F4F2D14DF1A81882359F038
:101680008889602F38DF888B89896F2D34DF898BBB
:101690001F5F1A8358C01430F0F080EA9FE09093E7
:1016A0008900809388001C3050F02989888990E057
:1016B000820F911D8536910514F084E001C083E00E
:1016C00088830A8BFB8A198287E08B831C8282E0E5
:1016D00080936F0038C01882BBCFCE014296602F36
:1016E0004F2DDFDE882361F0CE0161E012DF8A89B1
:1016F000602F01DF8A8B8B896F2DFDDE8B8B23C0E2
:10170000CE014096602F4F2DCCDE882361F0CE01B4
:1017100060E0FFDE8889602FEEDE888B89896F2D7F
:10172000EADE898B10C010926F002E2D30E084E12C
:1017300090E0289FF001299FF00D389FF00D1124B3
:10174000EA5EFE4F1082FF91EF91DF91CF91BF9142
:10175000AF919F918F917F916F915F914F913F9149
:101760002F911F910F91FF90EF900F900FBE0F9050
:101770001F9018951F920F920FB60F9211242F935E
:101780003F934F935F936F937F938F939F93AF9309
:10179000BF93EF93FF9310926F008091DC0283FF61
:1017A00002C08EE211D840916601242F30E084E11E
:1017B00090E0289FF001299FF00D389FF00D112433
:1017C000EA5EFE4F8081833018F08181823028F4F8
:1017D00010926F0084E190E012C080916801833024
:1017E000C9F48091DC0282FF03C081E891E003D854
:1017F00010926F008091660190E024E130E0829FBA
:10180000F001839FF00D929FF00D1124EA5EFE4FD0
:1018100010820BC08F5F80936801842F8F5F80934D
:101820006601843011F410926601FF91EF91BF912F
:10183000AF919F918F917F916F915F914F913F9168
:101840002F910F900FBE0F901F9018950F931F931D
:10185000CF93DF93809189018823B9F18091DC02D5
:1018600087FF17C084E30E94DE018058803410F4A3
:1018700080E00CC0803C10F08FE008C090E0805504
:101880009040A3E095958795AA95E1F78F590E941E
:10189000E4038091DC0283FF16C082E70E94E40328
:1018A0008091DC0284FF04C0809188010E94E403DF
:1018B00086E60E94E4038091DC0284FF04C08091EC
:1018C00089010E94E40310928901809168018823B4
:1018D00009F41AC2119A9091670184E1989FE0017E
:1018E0001124CA5EDE4FCE0166E444DC882341F158
:1018F00090916901915090936901292F36E007C0BA
:101900002150E22FF0E0E659FE4F8081380F22236C
:10191000B9F7E92FF0E0E659FE4F4081341711F492
:1019200006E492C02CE007C09150E92FF0E0E659A0
:10193000FE4F8081280F9923B9F7241709F4C5C1F8
:10194000CE0165E417DC882309F4C1C180916901E7
:10195000815080936901893009F0B9C199E020E094
:101960009150E92FF0E0E659FE4F80812827992316
:10197000B9F780917301281709F0A9C105E464C083
:101980004091690141504093690160917601342F83
:1019900020E050E095E014C03150E32FF0E0E6592C
:1019A000FE4FE0818E2F82958F702827980F662337
:1019B00011F0552321F08E2F8F702827980F5F5F2D
:1019C000332351F7920F9295907F922BE42FF0E002
:1019D000E61BF109E659FE4F8081981761F08B8173
:1019E0008F5F8B838150873009F089C11B82898189
:1019F0008150898384C10BE427C08B81843009F036
:101A0000D8C0CE0140966CE34EE14BDD882309F44B
:101A1000D0C0C801609188014EE143DD682FCE013E
:101A200078DD8C8180936A018D8180936B018E813A
:101A300080936C018F8180936D01888580936E0106
:101A400085E08093690102E58091DC02782F80FFB8
:101A5000B1C081FF02C020E059C040917701609180
:101A60006901461781F51092770120E00EC0E22F40
:101A7000F0E0322F3F5FDF01A659BE4FE858FE4F1E
:101A800090818C91981719F4232F241780F326172F
:101A9000D1F48091D6029091D702A091D802B09152
:101AA000D9022091840130918501409186015091A5
:101AB0008701821B930BA40BB50B8697A105B1057B
:101AC00010F421E001C020E01092770190E00AC0FC
:101AD000E92FF0E0DF01A659BE4F8C91E858FE4F88
:101AE00080839F5F9617A0F3909377018091D60231
:101AF0009091D702A091D802B091D902809384012D
:101B000090938501A0938601B09387010435D1F4A9
:101B100076FD18C080916C018B3409F44BC0893676
:101B200009F448C0833509F445C0843509F442C03E
:101B30008D3709F43FC08E37E9F180916D018077D0
:101B40008037C1F12223B1F5802F0E94E4038091F8
:101B50007601882329F08091690181508093690181
:101B600010E008C0E12FF0E0E659FE4F80810E94AE
:101B700051041F5FE09169011E17A0F38091760167
:101B8000882359F0F0E0E659FE4F808190E08F7095
:101B9000907061E040E30E9414048091DC0285FFB4
:101BA00005C084E30E94DE010E9451040E94F703F5
:101BB00001C000E08091DC0282FF6DC080E70E94DE
:101BC000E403888190E062E040E20E945504888945
:101BD00090E0F4E0880F991FFA95E1F765E040E2A4
:101BE0000E945504898990E0E4E0880F991FEA95E6
:101BF000E1F765E040E20E9455048A8990E074E0D4
:101C0000880F991F7A95E1F765E040E20E9455043C
:101C10008B8990E064E0880F991F6A95E1F765E091
:101C200040E20E9455048A8190E063E040E20E9415
:101C30005504898190E063E040E20E9455042B81C5
:101C400087E090E0821B910962E040E20E94550427
:101C500080E20E94E4038091DC0285FF08C084E3F7
:101C60000E94DE010E94510480E20E94E4038B8105
:101C7000873019F089818F5F898310E007C0FE01EA
:101C8000E10FF11D84810E9451041F5F89811817A3
:101C9000B0F30E94F703188280916801815080930D
:101CA0006801809167018F5F80936701843011F430
:101CB000109267011198043539F5809169018530DA
:101CC00019F58AE691E0D4D01FC004E5BDCECE015F
:101CD0006DDB882311F008E4B7CE8E010E5E1F4F36
:101CE000C801609188014B89DCDB682FCE0111DCD3
:101CF000CE016BE43FDA882309F471CE41CE8981AD
:101D0000843009F056CF79CEDF91CF911F910F919A
:101D100008958091DC02882321F00E9418030C941E
:101D200039020C94F401FC018181882371F48091C3
:101D3000DC020E9451048091DA029091DB0265E09E
:101D400040E20E9455040C94F703CF0101966CED1C
:101D500072E041E00E949804DCCFDC01E2E9F1E0AE
:101D60000EC0109751F091818C91981731F49281A7
:101D700011968C9111979817A1F0E20FF11D208117
:101D8000222321F082E0E034F80758F382E0E034C7
:101D9000F80719F010F0E0E4F2E0AB2B11F0E0E00E
:101DA000F0E0CF010895CF93DF93EC01D6DFFC0183
:101DB000009779F0909140028081981750F4E90FD4
:101DC000F11D80818A8389E78B8381818C8381E007
:101DD00001C080E0DF91CF9108950F931F93CF93BF
:101DE000DF938C018091DC0286FF18C084E50E949D
:101DF000E403C0E0D0E0F801EC0FFD1F80810E94F9
:101E000051042196C530D105B1F78091DC0285FFE0
:101E100003C08AEF0E9451040E94F703DF91CF9123
:101E20001F910F91089586E30E94EC0180918D012E
:101E3000833511F08BE401C08BE90E94DA038BE853
:101E400091E065E04CE021E0D5D80E9439028BE8B2
:101E500091E0C3CFE8DF80918D01893641F091E0B8
:101E60009093DE0289E28093E202909391010895BB
:101E70001F93FC0140813181128193812481109252
:101E8000DE025091DD02552329F48091E10288237E
:101E900009F4BCC080918B01841721F480918C01DE
:101EA000831759F01092E00210928A0183E0809328
:101EB000400240938B0130938C018091E0028F3F70
:101EC00009F4A4C010938D0190938E0120938F018B
:101ED0001123E1F08823D1F4251761F0243651F065
:101EE000812F8355823010F01D3721F48FEF8093BE
:101EF000E0028CC0143509F489C0892F807F8036B8
:101F000009F084C0906790938E017FC08BE891E0C8
:101F10004ADF882329F48091E002882309F476C0FF
:101F200090918A01992311F0892F06C0E091E00277
:101F3000F0E0E857FE4F8491833541F4143531F4D5
:101F40008091E0028E5F8093E0020AC0811741F029
:101F50001092E00210928A0183E08093400256C002
:101F6000992379F0809140028E5F809340028BE844
:101F700091E019DF882371F48091E0028E5F8093F5
:101F8000E0029091E002E92FF0E0E757FE4F149154
:101F90001F3F59F480918D0180938A018436A9F501
:101FA0008091DF0280938F0130C010938D0187E70D
:101FB00080938E018091DD0280938F01892F8E5F47
:101FC0008093E00210928A018E30E9F48BE891E070
:101FD000C4DEFC01009781F0808190E020E432E0D3
:101FE000281B390BDF01A80FB91F02C08D91819307
:101FF000E217F307D8F310821092E00210928A01E0
:1020000083E080934002112309F024DF1F9108959B
:1020100080919101882369F006DF81E08093DE02E0
:1020200089E28093E2028091910181508093910135
:1020300008951092E00210928A0183E0809340029A
:10204000089585E390E00E94DA048093DD0286E340
:1020500090E00E94DA048093E1021092E002109274
:102060008A0183E0809340021092920108956F925A
:102070007F929F92AF92BF92CF92DF92EF92FF92A8
:102080000F931F93DF93CF9300D000D000D0CDB734
:10209000DEB73C017C010894E11CF11CC701BE01C4
:1020A0006F5F7F4F45E00E949804843008F067C05E
:1020B00099819130A9F4833061F485E390E06A81DD
:1020C0000E94CB0486E390E06B810E94CB04B9DFD1
:1020D0009FC08091DD020E9451048091E1024AC0BC
:1020E0009230F1F580919201882321F48CE991E0FE
:1020F0000E94FB0302E911E02AC081E002391807BF
:1021000019F080E20E94E403F80181810E945104E9
:10211000F80182810E9451048AE30E94E40393E063
:10212000F92E0FC0F3E0FF1528F4F0FE03C08CE297
:102130000E94E403F801EF0DF11DF39480810E94E9
:102140005104F8018081F81668F3080F111DF80199
:102150008081882389F0F2E000341F0770F20CC000
:10216000933051F480E090E0F8DD22E931E022552F
:10217000281B822F0E9451040E94F70349C080E06F
:1021800090E0EBDD8C01D7010D900020E9F711976D
:10219000AE19BF09B695A7959A2E9394C801890DDB
:1021A000911D825991408F3A910574F5F801908202
:1021B0007801DD24D394CC24C3941BC05701089428
:1021C000A11CB11CC3018C0D911DB50141E00E9401
:1021D0009804F2E0FD1548F4D0FC07C0F7018081B7
:1021E000843619F481818093DF02F2E0CF0ED3941C
:1021F0007501D91418F382E00034180748F40D0D66
:10220000111DF801108204C086E991E00E94FB03D1
:1022100026960FB6F894DEBF0FBECDBFCF91DF91EB
:102220001F910F91FF90EF90DF90CF90BF90AF90F4
:102230009F907F906F900895A0E4B0E0E2E2F1E11A
:102240000C94CD1B8091E302882309F44AC08130AD
:10225000B1F4909141028091D602981709F441C0DF
:1022600085E30E94DE01813129F48AE30E94EC01BA
:102270000E9439028091D6028093410232C08FE3DE
:102280000E94DE01D82E8FE38D1540F12C988FEF40
:102290000E94D8017E010894E11CF11C8701CE2C1C
:1022A00006C080E00E94D801F80181938F01802F41
:1022B0008C198D15B0F32C9A81E08093110105C023
:1022C000F70181917F010E94E4038E2D8C198D15F9
:1022D000B8F30E94F7038FEF8093110181E08093A0
:1022E000E302C05CDF4FE8E00C94E91B0F931F93FF
:1022F000CF93DF93EC01DC010D900020E9F71197FB
:10230000A81BB90B8981823751F487E390E00E94C2
:10231000BD020E94390281E08093E30229C0833725
:1023200029F50A2F2C988FE70E94D801802F825020
:102330000E94D80112E004C089810E94D8011F5F69
:1023400021961017C8F32C9A0E944D0204C084E60F
:1023500090E00E94D5038AE30E94DE0190E08F772F
:102360009070892BA1F70E94390202C01092E302FB
:10237000DF91CF911F910F910895CF93DF9382E466
:102380000E94E403C0916A03D0916B03CE0165E023
:1023900040E20E9455040E94F70383E50E94E40393
:1023A000809107019091080165E040E20E94550488
:1023B0000E94F70385E40E94E40380910901909153
:1023C0000A0165E040E20E9455040E94F70386E49A
:1023D0000E94E403209721F4C0910701D0910801E5
:1023E0002091090130910A012115310541F42DB7E1
:1023F0003EB78091050190910601281B390BC21749
:10240000D30718F080E090E003C0C9018C1B9D0B3E
:1024100065E040E20E9455040E94F703DF91CF91EE
:1024200008959C0197FF04C082E08093C0003F772D
:102430003093C5002093C40088E98093C10086E0F2
:102440008093C2000895E091D302F091D40281E01C
:1024500009958091C10085FD09C08091E60288231D
:1024600029F08091C10080628093C10008951F927D
:102470000F920FB60F9211242F933F934F935F93B8
:102480006F937F938F939F93AF93BF93EF93FF933C
:1024900082B192E0892782B96091C6008091C00024
:1024A000887121F487E293E00E94D805FF91EF91B3
:1024B000BF91AF919F918F917F916F915F914F915C
:1024C0003F912F910F900FBE0F901F9018951F9264
:1024D0000F920FB60F9211242F933F934F935F9358
:1024E0006F937F938F939F93AF93BF93EF93FF93DC
:1024F0008091E602882339F084EE92E00E94ED0597
:102500008093C60005C08091C1008F7D8093C1007B
:10251000FF91EF91BF91AF919F918F917F916F91BB
:102520005F914F913F912F910F900FBE0F901F9091
:1025300018950F931F93CF93DF93EC0100E0802F4A
:1025400090E09C01220F331F280F391FF901E45836
:10255000FF4F1491F901E358FF4F25913491112356
:1025600099F0209739F480E20E94E403812F0E94C1
:10257000E40308C08881811729F4CE01F901099587
:1025800081E003C00F5FDBCF80E0DF91CF911F912F
:102590000F9108951F93109111018093110135C07F
:1025A00087E293E00E94ED058A3011F08D3009F545
:1025B000E0914202EE2349F1F0E0ED5BFD4F108225
:1025C00083E492E0B6DF882389F488EB91E00E94EF
:1025D000FB0383E492E00E94080480EA91E00E94F9
:1025E000FB0380E090E0A5DF0E94F7031092420217
:1025F0000CC090914202903440F4E92FF0E0ED5B82
:10260000FD4F80839F5F909342028091290388232E
:1026100039F6109311011F910895149AF0D014986F
:1026200082E390E00C94D503CF93DF93EC011598EF
:1026300002C0F3DF2196FE0184918823D1F7159A19
:10264000DF91CF910895CF93DF93EC01159802C0ED
:102650002196E3DF88818823D9F7159ADF91CF91FE
:1026600008951498CCD0149A82E00C94DA031F9346
:10267000182F159889E3F5DF1F70812F8067F1DF30
:1026800088E3EFDF159A1F9108951598EADF159AF0
:1026900008958058FACF1F93182F8A3081F4159827
:1026A00002C080E2BADF809184028F5F809384024F
:1026B00081508031B0F3159A1092840213C08D308E
:1026C00089F080918402803168F4882311F480E2DB
:1026D000E0DF1598812FA1DF809184028F5F8093C6
:1026E0008402159A1F91089581E0CFCFA1E0B0E058
:1026F000ECE7F3E10C94D11B8C01FC018181823663
:1027000089F1833618F48334B9F521C0833619F082
:10271000843791F502C0E8DF2FC0C8010296BE01E0
:102720006F5F7F4F42E00E9498048981803308F0F8
:102730008FE28983AEDF8981E4E3F0E0E81BF109F1
:10274000E00FF11F1082C80104967DDF15C0C8019B
:102750000296BE016F5F7F4F42E00E94980489811C
:1027600094DF0AC0C8010296BE016F5F7F4F42E04E
:102770000E94980489817BDF2196E4E00C94ED1B94
:102780000C9A149A0D9A159889E36BDF85E169DF3D
:1027900085E567DF8EE665DF81E763DF88E361DF7C
:1027A0008FE05FDF86E05DDF159A9EDF8CEE91E0C3
:1027B0003BDF85EE91E038DF82EE91E035DF8DED95
:1027C00091E032DF8AED91E02FDF80E162DF8CEC77
:1027D00091E02ADF80E25DDF8CEB91E025DF109253
:1027E00084020895E4E6F0E080818B7F80832F9A55
:1027F00084B1806B84B9269881E58CBD08958EBD27
:102800000DB407FEFDCF8EB50895FC01818182379E
:10281000B1F48281882351F08381882339F0CF017C
:10282000029665E872E042E00E9498048091850279
:1028300090E062E040E30E9414040C94F7030895D2
:1028400080918502882309F0C8C10895A6E0B0E010
:10285000EBE2F4E1A8C780918502882369F1CE01FB
:10286000019634D0882341F180918502823019F499
:102870008E8180FD21C082B192E0892782B989E4EE
:102880000E94E403898190E062E040E30E94140426
:102890008A819B8164E040E30E9414048C819D81C5
:1028A00064E040E30E9414048E8190E062E040E323
:1028B0000E9414040E94F7032696E2E090C703D01A
:1028C000109285020895289820980895FC0180911F
:1028D000B802882309F47CC08091B902823051F19A
:1028E000833009F054C02091BC023091BD02809128
:1028F000BC029091BD02232F332780959095907054
:102900002817390709F061C08091BC029091BD027F
:1029100090709093BD028093BC022091BC023091D4
:10292000BD028091BE029091BF02982F8827822B12
:10293000932B29C02091BC023091BD028091BC0232
:102940009091BD02232F3327809590959070281782
:102950003907A1F08091BA029091BB028E5E974830
:10296000A1F58BE08093B9028091BC029091BD02E9
:10297000892F99279093BB028093BA028091BC0261
:102980009091BD0290709093BD028093BC028091A3
:10299000B90280838091BA029091BB0292838183B5
:1029A0008091BC029091BD02948383838091C00288
:1029B00085831092BD021092BC021092BB0210924D
:1029C000BA021092C00281E001C080E01092B80209
:1029D0000895F82F6091950270919F02671738F162
:1029E0008091A002681718F58091A5022F2F30E082
:1029F0004091C1025091C202882381F0862F90E05D
:102A0000871B910902C0220F331F8A95E2F7422BE0
:102A1000532B5093C2024093C10269C0440F551F0B
:102A2000242B352B3093C2022093C10260C07091D9
:102A3000A102671718F18091A2026817F8F480913B
:102A4000A5022F2F30E04091C3025091C402882389
:102A500081F0862F90E0871B910902C0220F331F5F
:102A60008A95E2F7422B532B5093C4024093C30242
:102A70003EC0440F551F242B352B35C08091960244
:102A80008330D1F4613198F1653188F58F2F90E072
:102A9000262F30E02151304002C0880F991F2A951F
:102AA000E2F72091C9023091CA02282B392B3093CA
:102AB000CA022093C9021BC08530C9F46431B8F042
:102AC0006831A8F48F2F90E0262F30E02850304056
:102AD00002C0880F991F2A95E2F72091C302309116
:102AE000C402282B392B3093C4022093C302809157
:102AF0009602853051F5603340F5262F30E0E62F01
:102B0000E695E695E695FF2381F0F0E0E553FD4F6D
:102B10002770307081E090E002C0880F991F2A95DD
:102B2000E2F72081282B208310C0F0E0E553FD4F11
:102B30002770307081E090E002C0880F991F2A95BD
:102B4000E2F780952081822380836F5F60939502F6
:102B50000895982F8091960220919502882311F074
:102B6000225001C021504091B0022417C8F080913A
:102B7000B1022817A8F4892F90E030E0241B310916
:102B800002C0880F991F2A95E2F72091C502309163
:102B9000C602282B392B3093C6022093C502089514
:102BA0004091B2022417C0F08091B3022817A0F41C
:102BB000892F90E030E0241B310902C0880F991F53
:102BC0002A95E2F72091C7023091C802282B392BB1
:102BD0003093C8022093C70208951F9393B1809148
:102BE000B802882309F0B7C59170809194028823B8
:102BF000D1F580919102992311F48F5FAAC58823A2
:102C000019F181E0809394028093920210929302D2
:102C10001092C4021092C3021092C2021092C1021A
:102C20001092C8021092C7021092C6021092C502FA
:102C30008FEF8093950281E090E0909390028093D3
:102C40008F021092890287C580918D0290918E0229
:102C50002FEF8F3F920709F47EC5019690938E0265
:102C600080938D0278C580919202882309F479C1FE
:102C7000992381F080918F02909190020196909318
:102C8000900280938F028350914008F4C1C38091D9
:102C9000B9023EC21092A70240919102842F815244
:102CA0008A3060F480918F02909190028730910574
:102CB00028F00C9718F46FEE71E007C18091B9020B
:102CC000843171F4433560F0473C50F480918F02B9
:102CD000909190028333910518F08239910570F03C
:102CE000842F83558437A8F480918F0290919002AD
:102CF0008932910530F08436910530F460E072E05D
:102D0000E4C08431910528F0C39718F461E172E0C2
:102D1000DCC0842F8E53813168F480918F029091B2
:102D200090028E33910530F08F34910518F462E2F1
:102D300072E0CBC0842F8B52883168F480918F026F
:102D4000909190028B32910530F08334910518F404
:102D500063E372E0BAC0842F8F528D3060F48091AB
:102D60008F02909190028731910528F04F9718F4C7
:102D700064E472E0AAC0842F8C50853018F08C5027
:102D80008930D8F520918F0230919002C9010C97BB
:102D9000059720F0C9014897099778F54C514A30BA
:102DA00070F42D30310558F02331310540F487EAB5
:102DB00092E065E572E041E150E00E947B012091E4
:102DC0008F02309190023093880220938702809185
:102DD00091028151803128F021513040203131055C
:102DE00030F41092860280E48093890203C081E06F
:102DF0008093860266E672E068C0842F8350843038
:102E000078F420918F0230919002C9014A97099776
:102E100008F459C02A5030402530310508F453C019
:102E2000842F84528C3098F480918F02909190027C
:102E30008C30910560F0419750F410928802109206
:102E4000870281E08093860268E872E03EC0842FAA
:102E500080518B3060F480918F029091900283308A
:102E6000910528F0089718F469E972E02EC0842FC4
:102E700086508630A0F480918F0290919002823229
:102E8000910568F08333910550F490938802809304
:102E9000870281E0809386026AEA72E016C04C5194
:102EA0004A3060F480918F02909190028D309105AC
:102EB00028F0439718F465E572E007C01092940279
:102EC00060E070E002C067E772E0809194028823BE
:102ED00031F086E992E041E150E00E947B011092DE
:102EE00095028091A602282F30E080FF21C08091BA
:102EF00096028930E9F040918F02509190028091C2
:102F0000980290E08417950750F4880F991F841752
:102F1000950728F036952795822F809507C08091D8
:102F200086028823A1F436952795822F81700EC0E2
:102F300080919602883059F480918F02909190028E
:102F40004A97099710F481E001C080E042DD81E0FA
:102F5000809391021092900210928F02109292022E
:102F600057C280919302882309F441C2992309F43E
:102F7000D8C060919502E091A3026E1799F48091F8
:102F8000A402813079F49091910280919B0298176C
:102F900008F4BEC080919C02891708F4B9C0109251
:102FA000A40236C240918F02509190024F5F5F4F52
:102FB0005093900240938F02709196027130C9F441
:102FC0004C30510508F44EC06B3008F44BC06F5FB5
:102FD0006093A3028091A10290919502890F8F5F67
:102FE0008093A2028AE090E09093900280938F02F7
:102FF00098C07F30B9F58091A402882399F580911B
:103000009A0290E0880F991F8417950730F4683072
:1030100020F08AE08093A3023DC06A3008F4F8C132
:1030200080E18093960299E090939F0281E18093E2
:10303000A00281E08093A1029093A2022091C3029A
:103040003091C402C90180709370892B09F4E0C1EA
:103050003093C1021092C20230703093C4022093A8
:10306000C302D6C18091A60280FF18C080919A0247
:1030700090E0880F991F8417950780F4262F30E081
:103080008E2F90E002972817390744F08091A40210
:10309000882321F481E08093A40243C0435051402F
:1030A00008F4B6C1262F30E08E2F90E00197281744
:1030B000390741F48091A402882321F46F5F609363
:1030C0009502A6C1723021F56051623008F541E0E9
:1030D0004093A40284E180939602809195028093AC
:1030E000A3028091C1029091C2029C0164E03695D6
:1030F00027956A95E1F73093C4022093C3028F703D
:1031000090709093C2028093C1024093940280C158
:1031100010929402109291021092900210928F02DB
:1031200077C18091A602282F30E080FFECC010917B
:10313000910280919802811708F047C08091960211
:10314000893081F480919502843061F41D3050F013
:103150008091A302843219F481E03BDC24C080E03A
:1031600038DC1EC036952795822F8095817031DC22
:10317000809196028930C9F4809195028430A9F437
:103180001D3098F081E025DC80919A0290E0880F54
:10319000991F20918F02309190028217930718F4A3
:1031A000109286026FC081E00DC08091A60290E06F
:1031B0009695879581700DDC8091A60290E096959A
:1031C00087958170809386025DC080919702181761
:1031D000D8F1209187023091880280919A0290E084
:1031E0008217930770F4880F991F8217930748F08E
:1031F00020E080918602882309F421E02093860252
:1032000002C020918602809196028930D1F480918B
:1032100095028130B1F42130A1F494E29093A3029D
:1032200085E080939F0284E18093A00285E18093F2
:10323000A1029093A20281E090E09093C202809359
:10324000C102822FC6DB1EC08091A7028231A1F489
:10325000123090F0193080F420918F02309190025A
:10326000C9010897079728F02150304025303105D3
:1032700018F41092960206C01092940210929002D6
:1032800010928F028091A7028231A1F5123090F145
:10329000193080F520918F0230919002C901089772
:1032A000079710F481E006C02150304025303105E9
:1032B00010F480E04EDC809196028823D9F4A6E9D0
:1032C000B2E0E7EAF2E081E101900D928150E1F78E
:1032D0001092A7028091C5029091C6029093C202FB
:1032E0008093C1028091C7029091C8029093C4025A
:1032F0008093C30280918F029091900290938802F4
:10330000809387024FC080919602833079F5809137
:103310009502803159F5809191028550883008F0EE
:103320005EC020918F02309190022E33310568F0FB
:103330002F34310550F4109293021092CA02109269
:10334000C90281E18093950250C08AE08093960281
:1033500080E18093A10280E28093A2028093A30285
:103360002F50304020313105C0F51AC040919102F4
:10337000809197024817C8F0809198028417A8F0AE
:1033800020918F02309190028091990290E028174D
:10339000390758F080919A0290E08217930728F03D
:1033A00081E017DB1092930220C080919B024817A6
:1033B000B0F080919C02841790F020918F023091A0
:1033C000900280919D0290E02817390740F080918B
:1033D0009E0290E08217930710F080E0E2CF1092F7
:1033E00094021092900210928F0281E005C09923FE
:1033F00031F4809191028F5F8093910209C081E046
:103400008093930281E090E09093900280938F02EA
:1034100080919402882309F49EC190919502809135
:10342000A302981709F097C18091A402882309F09C
:1034300092C120910101309102018091C3029091CB
:10344000C4022817390769F480918D0290918E0289
:10345000825E944030F480918C028F5F80938C0266
:1034600002C010928C0290919602913031F48091BA
:103470008C0281508230A8F40FC0953029F48091DD
:103480008C02813071F408C09A3011F09D3049F4FB
:1034900080918C0280FF05C010928E0210928D02E6
:1034A0000DC181E08093B802983059F54091C30274
:1034B0005091C4029A0120953095337080918A0210
:1034C00090918B0228173907A9F43093C4022093F6
:1034D000C302809196028093B9028091C1029091BB
:1034E000C2029093BB028093BA023093BD02209334
:1034F000BC02E4C01092B80250938B0240938A023F
:10350000DDC09F3041F48091C3029091C4028F5F6F
:103510009140E9F510C0903189F48091C1029091F9
:10352000C2028F3F910599F58091C3029091C40228
:103530008E3F910561F51092B802C0C0923039F506
:1035400080919502882319F580918D0290918E02C9
:1035500083559740D0F4809103019091040190939A
:10356000C2028093C1028091010190910201909367
:10357000C4028093C3028091C00281608093C00224
:1035800010928E0210928D0202C01092B8025091D9
:103590009602553041F58091CB029091CC0240913A
:1035A000CD02282F2F7082958F702827892F8F703A
:1035B000282792959F70292730E0842F90E08F7004
:1035C00090702817390711F01092B8028091CE023E
:1035D00048278091CF0248278091D002481769F090
:1035E0001092B8020AC0593041F48091A30284328B
:1035F00021F485E18093B90202C05093B902809111
:103600009602823171F58091C3029091C4029C01AF
:10361000A4E036952795AA95E1F78F709070892BD5
:1036200009F020683093C4022093C3024091C10284
:103630005091C2029A01220F331F220F331F2070B4
:103640003F708091C3029091C402822B932B909380
:10365000C4028093C3024F7350705093C2024093D0
:10366000C1028091C1029091C2029093BB028093EB
:10367000BA029093040180930301809196028730EF
:1036800069F42091890230E08091C3029091C402D4
:10369000822B932B9093C4028093C3028091C30228
:1036A0009091C4029093BD028093BC028091C902A4
:1036B0009091CA029093BF028093BE028091B8029B
:1036C0008823B1F12091BC023091BD0280910101AB
:1036D0009091020182179307B9F42091BA023091B8
:1036E000BB0280910301909104018217930761F45A
:1036F00080918D0290918E028852994028F4809199
:10370000C00281608093C0028091C1029091C20288
:1037100090930401809303018091C3029091C402AD
:10372000909302018093010110928E0210928D02FB
:10373000109294021092C4021092C302109291024D
:103740001092900210928F028091B902843119F484
:103750008CE8809391028091B8021F910895AA1B72
:10376000BB1B51E107C0AA1FBB1FA617B70710F06C
:10377000A61BB70B881F991F5A95A9F7809590959E
:10378000BC01CD0108952F923F924F925F926F92AC
:103790007F928F929F92AF92BF92CF92DF92EF92E1
:1037A000FF920F931F93CF93DF93CDB7DEB7CA1B62
:1037B000DB0B0FB6F894DEBF0FBECDBF09942A888D
:1037C000398848885F846E847D848C849B84AA8435
:1037D000B984C884DF80EE80FD800C811B81AA81C2
:1037E000B981CE0FD11D0FB6F894DEBF0FBECDBF8D
:0837F000ED010895F894FFCFEC
:0C37F80002FFFFFFFF20006E0300000036
:00000001FF
