:100000005DC100000C94CE0A75C1000073C10000F0
:1000100071C100006FC100006DC100006BC1000024
:1000200069C1000067C1000065C1000063C1000034
:1000300061C100000C94BC0B5DC100005BC10000FD
:1000400068C3000057C1000055C1000053C1000043
:100050000C942F120C945F124DC100004BC1000094
:1000600049C1000047C1000045C1000043C1000074
:1000700041C100003FC100003DC100006DB511420B
:10008000FF0443FF0146A20849FD13446E1347DDF8
:10009000074D6C07536C0652B505542F1056FB04E0
:1000A000573305588B0E657C05666E116C240574FC
:1000B0007C03781F0300000000030F1E26270000AA
:1000C00000030F1E2536386700030F256740605078
:1000D00000030F275188838100030F2750C8C3C234
:1000E0000027000000000000006700000000000082
:1000F000005000000000000000810000000000002F
:1001000000C20000000000000D2E2D07D3913D0419
:10011000320000060021656A55E43023B90007006B
:1001200018146C070090876BF85611E92A001F41DC
:1001300000072E050DD391FF080500000C00216576
:100140006A2D3B1322F862073F181D1CC700B087B9
:100150006BF8B611EA2A001F4100202F2000203D35
:1001600020005620312E34322043534D383638008B
:10017000202F2000203D20004C454E4552520D0AB4
:1001800000424F56460D0A0000535300547D7DFF38
:10019000FF4B4B7E7E00454F420D0A004E2F410023
:1001A00020697320756E6B6E6F776E2920557365AD
:1001B000206F6E65206F66003F202800626F6F74AD
:1001C000696E67207570202E2E2E20002020206260
:1001D0007573776172652E646500202A00312E34B4
:1001E000320020560043534D383638002A20000193
:1001F0001016070B070B070B0F14000F140001005C
:1002000002040D0F26040D040D0010102020010122
:100210000002040D0F26040D040D00000000000173
:10022000010003050C0F1E050C040A0010152525FE
:10023000010100040714183A071407140C18000CE5
:100240001801010005020B0D1B020B020B00101C14
:100250002830010100120208080E02080105000EF4
:10026000142028010100070C100C100101010102EB
:1002700007070D0D0000010803061A2203060A0EE7
:100280000005050F0F01000009050A05090101011C
:1002900001050D0D15150000030D101A0307050AC1
:1002A0000F190000000A0A0100000F060B060B01DF
:1002B0000101010000010B110001030011241FBE08
:1002C000CFEFD0E1DEBFCDBF11E0A0E0B1E0E4EEC2
:1002D000F7E302C005900D92AC30B107D9F713E0F7
:1002E000ACE0B1E001C01D92AF36B107E1F70CD030
:1002F0000C94F01B85CEFB01DC0102C005900D9231
:1003000041505040D8F7089588E10FB6F894809393
:100310006000109260000FBE80E090E020E80FB611
:10032000F89420936100809361000FBE089A109AA0
:10033000099A119A0E94EA1305D40E94551481E08B
:1003400087BD84E085BD82E084BD80936E001092FD
:1003500080008AE08093810084B7877F84BF2FE08C
:1003600088E190E00FB6F894A895809360000FBEE6
:100370002093600089E190E80E9409120E94B8135E
:100380000E941910E2D682EC92E19093D5028093FC
:10039000D40281E180931201119878940E941B127B
:1003A0000E94280C63D10E9414110E941E14F6CFE3
:1003B0008EBD0DB407FEFDCF8EB508952C98806CD0
:1003C0008EBD0DB407FEFDCF8EB51EBC0DB407FE6D
:1003D000FDCF8EB52C9A08952C988EBD0DB407FED6
:1003E000FDCF8EB52C9A08952C9886E38EBD0DB462
:1003F00007FEFDCF8EB52C9A1092D6020895A1E08B
:10040000B0E0E5E0F2E00C94C71B0196BE016F5F1F
:100410007F4F41E08DD2892B41F18981893989F45F
:1004200000E010E0802FCADF3CD2C80187709070D6
:10043000079709F4DCD10F5F1F4F0033110591F7C7
:1004400014C0BCDF182F83E4BFD189812AD28EE586
:1004500091E0D1D1812F25D28AE591E0CCD1812FB5
:1004600090E062E040E221D2C2D12196E4E00C9417
:10047000E31B0F931F931FEF04E32C980EBD0DB4E5
:1004800007FEFDCF8EB52C9A8AE090E08ED11150F8
:10049000A1F7E89A1F910F9108950F931F93E89881
:1004A0002C9886E38EBD0DB407FEFDCF8EB52C9A39
:1004B0001FEF05E32C980EBD0DB407FEFDCF8EB5E2
:1004C0002C9A8AE090E071D11150A1F71F910F9101
:1004D0000895EF92FF920F93CF93DF93082F8A3006
:1004E00008F008E0C02FD0E083E0CC0FDD1F8A9534
:1004F000E1F7C854DF4F8BE290E07C010894E11CE7
:10050000F11CFE01649147D22196C7018333910506
:10051000A1F70550053010F067E101C061E184E208
:1005200090E039D2DF91CF910F91FF90EF90089535
:10053000CF93DF9382E090E0EC012196FE01EB5F28
:10054000FE4FE4916E2F27D2CB32D10511F0CE01B0
:10055000F3CF87E390E0EC012196FE01E750FF4FD7
:10056000E4916E2F18D2C036D10511F0CE01F3CF31
:1005700088E0AFDFDF91CF9108950F931F93CF9362
:10058000DF938C01E898249A2C9A8EE190E00DD1AB
:100590002C988EE190E009D12C9A8DE290E005D163
:1005A0002C9880E38EBD0DB407FEFDCF8EB52C9A3E
:1005B00084E690E0FAD02C9880E48EBD0DB407FE5E
:1005C000FDCF8EB5C0E0D0E0C8018C0F9D1FF2D1E9
:1005D0008EBD0DB407FEFDCF8EB52196C932D10573
:1005E00099F72C9A2C988EE78EBD0DB407FEFDCF9F
:1005F0008EB58BE290E0EC012196DCD18EBD0DB47E
:1006000007FEFDCF8EB5C333D10511F0CE01F3CF78
:100610002C9A2C9883E38EBD0DB407FEFDCF8EB5CA
:100620002C9A81E0C7D0DF91CF911F910F9108954F
:1006300082E090E0A2DF81E08093D6020895A1E0FD
:10064000B0E0E5E2F3E00C94C91B22E029830196B7
:10065000BE016F5F7F4F41E06BD189813ADF82E05D
:1006600090E08BDF2196E2E00C94E51B9091D7029D
:1006700080911001981709F43EC090931001A8953D
:100680008091DF02882331F08091E302882311F406
:100690000E94001080910F018F5F80930F018150A5
:1006A0008D3748F110920F018091000181FF04C045
:1006B00082B192E0892782B98091DB029091DC02BD
:1006C00023E08438920728F401969093DC0280930B
:1006D000DB0280910E018F5F80930E018C3359F401
:1006E00010920E018091E0028F5F8093E0028C33C4
:1006F00010F01092E00208958091DA02D2D0809139
:10070000D902CFD08091D802CCD08091D702C9D065
:100710006EC01F920F920FB60F9211242F933F932A
:100720004F935F936F937F938F939F93AF93BF93F9
:10073000EF93FF930E94181480910C018F5F8093B8
:100740000C0181508D3700F110920C018091D7027D
:100750009091D802A091D902B091DA020196A11D20
:10076000B11D8093D7029093D802A093D902B09381
:10077000DA028091DF02882339F08091E302882336
:1007800019F081508093E302FF91EF91BF91AF91F7
:100790009F918F917F916F915F914F913F912F9199
:1007A0000F900FBE0F901F901895880F991F0197FB
:1007B000F1F7089520ED37E004C0F9013197F1F722
:1007C00081508823D1F708951F93182F809112012B
:1007D00084FF03C0812F0E9443138091120180FF88
:1007E00004C085EE92E0612FFCD11F9108958DE049
:1007F000EBDF8AE0E9CFCF93DF93EC0102C0E4DFC7
:100800002196FE0184918823D1F7DF91CF9108953D
:10081000CF93DF93EC0102C02196D6DF8881882335
:10082000D9F7DF91CF910895A5E0B0E0EAE1F4E0D7
:100830000C94C91B1D82FE01349624E0582F5F7072
:1008400021505A3018F4352F305D02C0352F395CF5
:10085000308334E0969587953A95E1F7615031976A
:10086000009761F72150822F992787FD90952F5F80
:10087000FE013196E80FF91F03C0215040833197E4
:10088000615067FD02C01216C4F3332727FD30956F
:10089000CE010196820F931FBBDF2596E2E00C94F8
:1008A000E51B90E062E040E3BFCFA6E0B0E0EBE5FF
:1008B000F4E00C94C71B9C01162F042F1E82FE012E
:1008C000359645E04150C9016AE070E00E94A51BE1
:1008D000805D8083C9016AE070E00E94A51B9B01D6
:1008E00011506115710559F44150842F992787FDE6
:1008F00090954F5FFE013196E80FF91F07C03197C1
:10090000442301F7F1CF415000833197115017FD77
:1009100002C01416C4F3242F332727FD3095CE01CF
:100920000196820F931F74DF2696E4E00C94E31B7C
:10093000DC01FB0123C0822F80538A3010F050E08D
:1009400002C0382B51E0822F8154863020F4275387
:10095000322B295C51E0822F8156863018F42755BE
:10096000322B07C0552329F4203271F02A3361F06D
:100970000EC0992331F03193415049F030E090E0BE
:1009800003C03295307F91E02D912223A1F6CF0153
:10099000861B970B08959C01F999FECF1FBA32BDB3
:1009A00021BD60BD0FB6F894FA9AF99A0FBEF99975
:1009B000FECF08959C01F999FECF32BD21BDF89A72
:1009C00080B50895982F06C04150FB01E40FF11D3A
:1009D0008081980F4423C1F7892F0895AC0120E04E
:1009E00006C06150FA01E60FF11D808128276623B9
:1009F000C1F7822F089582E691E0FDDEF8CEA1E0F6
:100A0000B0E0E5E0F5E00C94C91B1982009731F0E5
:100A10000196BE016F5F7F4F41E08ADF89818823A5
:100A200021F083E390E061E0B6DF10926E00F8946D
:100A300028E088E190E00FB6F894A89580936000D4
:100A40000FBE20936000FFCF019660E071E041E0AF
:100A50006FDF6091000160FF02C0119A01C0119820
:100A600084E390E098CFA6E0B0E0E9E3F5E00C94F1
:100A7000C31B6C010196BE016F5F7F4F43E058DFDF
:100A8000082F8230A8F12981823019F4E22EFF2448
:100A900007C0922F80E02A81E22EFF24E82AF92A5B
:100AA00010E0FE01E00FF11FC701608174DF000F4D
:100AB000111F0F5F1F4F0C0D1D1D0894E11CF11C31
:100AC0006E010894C11CD11C0FC0C801B60141E0E1
:100AD0002FDF892B69F0C70169815DDF0E5F1F4F32
:100AE00082E090E0E80EF91EF8018081882369F722
:100AF0002696E8E00C94DF1B0F931F938C0180E097
:100B000090E061E048DF81E090E06AE244DF10DDE0
:100B100080E690E060E03FDF81E690E060E03BDF70
:100B200083E390E060E037DF84E390E062E033DF6E
:100B3000F8018181883719F080E090E060DF1F9133
:100B40000F91089580E090E035DF813029F481E055
:100B500090E030DF8A3219F080E090E0CDDF84E36E
:100B600090E028DF809300010895EF92FF921F9399
:100B7000DF93CF9300D0CDB7DEB71B8219820196E9
:100B8000BE016F5F7F4F42E0D3DE2981823041F4A6
:100B9000922F80E02A81E22EFF24E82AF92A02C05F
:100BA000E22EFF24C70106DF182F82E50DDEC70104
:100BB00064E040E339DE84E791E01DDE812F71DEE1
:100BC00080E791E018DE812F90E062E040E26DDE88
:100BD0000EDE0F900F90CF91DF911F91FF90EF905D
:100BE0000895DC0112968C911297803470F48F5F17
:100BF00012968C9312978C91FD01E80FF11D63837F
:100C00008F5F8C93803409F41C920895DC01129656
:100C10008C911297882311F490E013C081501296A2
:100C20008C93129711968C911197FD01E80FF11D8D
:100C300093818F5F11968C931197803411F41196E4
:100C40001C92892F0895CF93DF93DB01EA01322FA5
:100C50004881882369F0FB01E40FF11D81E090E0F9
:100C600002C0880F991F2A95E2F72081282B208344
:100C7000332319F0832F815009C0842F8F5F8C306C
:100C800008F48883A80FB11D1C9287E090E0DF91E3
:100C9000CF9108951F93182F299A882319F08091D6
:100CA000150102C08091130190E034E0880F991F74
:100CB0003A95E1F77ADD2998112319F08091160110
:100CC00002C08091140190E024E0880F991F2A95BA
:100CD000E1F76BDD1F910895A8E2B0E0E2E7F6E0EE
:100CE0000C94BE1B01968E010F5F1F4FB80143E1AC
:100CF0001FDE803121F088E791E07DDD82C099E838
:100D00004FE050EF20E030E0B801DE015596FB01E6
:100D1000E20FF31F80818927FD01E20FF31F80831B
:100D2000480F511D982F9C5D2F5F3F4F2F3031058D
:100D300071F7888980958CA39A01280F311DC9010C
:100D40009DA32EA3119A8091D602882309F470DC0A
:100D5000A4DB299810E002E08AEF90E026DD85B15F
:100D6000802785B91F5F1E31B9F7299884EF91E07C
:100D70001CDD75E1E72EF12CEC0EFD1ECC24C39496
:100D800062E0762E51E0852E912C47E2A42EB12C04
:100D9000AC0EBD1E29C085B1872585B98AEF90E0CC
:100DA00004DDF701808190E0002E02C095958795C3
:100DB0000A94E2F788259925DD24D394D822DC14FF
:100DC00019F485B1872585B98AEF90E0EEDC0150F2
:100DD0001040CD2CFFEF0F3F1F07E9F60894E11CF0
:100DE000F11CEA14FB0419F007E010E0D4CF2998B5
:100DF0008091DD02882311F03CDB02C086E3ECDA4F
:100E00001198A896EDE00C94DA1BA0E0B0E0EBE0BE
:100E1000F7E00C94BC1B5C01562EC42E122FD02E72
:100E2000119AF8948091D602882309F401DC35DB0D
:100E3000E1E06E2E712C812E992410E003C080E039
:100E400029DF1F5F1515D9F781E024DF8501FF2415
:100E500015C0C7E0D0E093010C2E02C0220F331F53
:100E60000A94E2F7F8018081822314DF2197FFEFD3
:100E7000CF3FDF0781F7F3940F5F1F4FFC1449F753
:100E8000C7E0D0E00C2D112707FD10950A0D1B1DA2
:100E90000CC093010C2E02C0220F331F0A94E2F7FC
:100EA000F80180818223F6DE21978C169D068CF353
:100EB0008E2D80DCDA9409F0C0CF8091DD0288238A
:100EC00011F0D7DA02C086E387DA78941198CDB7AB
:100ED000DEB7EFE00C94D81BA9E1B0E0E2E7F7E061
:100EE0000C94BD1B2EE0E22EF12CEC0EFD1E0196A3
:100EF000B7014BE01DDD893009F05BC089E18093CB
:100F00001401809313018093150182E380931601ED
:100F1000C70169E063DD8F8B19821A8207E0A7E0C1
:100F200010E097E0692E712C81E0882E912C5701FA
:100F3000B2E0CB2ED12CCC0EDD1E7E010894E11C3C
:100F4000F11C01C007E0802F992787FD9095930140
:100F5000281B390BC40102C0880F991F2A95E2F79C
:100F60009C01F501E10FF11D80818223B601A701EB
:100F70002A2F69DEA82F002311F00150E4CF81E071
:100F8000B601A7012A2F5FDEA82F1F5F1A30D0F20B
:100F9000882319F0282F215004C089818F5F89830D
:100FA00027E0CE0102966CE0498103E0FAE0EF2EE3
:100FB0002CDF6996EEE00C94D91BEF920F93DF9330
:100FC000CF93CDB7DEB760970FB6F894DEBF0FBEF4
:100FD000CDBF0196BE016F5F7F4F40E1A9DC698103
:100FE0004A810B818C81809313018D818093140140
:100FF0008E81809315018F8180931601242F2F708D
:10100000E02EE2943FE0E322CE01089642954F7035
:101010000F70FBDE60960FB6F894DEBF0FBECDBF3B
:10102000CF91DF910F91EF900895AEE0B0E0EBE14A
:10103000F8E00C94B91B7C01162F842F2E87B70182
:10104000412FC0DCF701E10FF11D8083A12EA39495
:1010500019821A824701E7E0BB24F1E02F2E312CE0
:1010600072E0472E512C4C0E5D1E3E010894611C0F
:10107000711C2FC007E010E06701CB0CD11C91015F
:10108000002E02C0220F331F0A94E2F7D6018C9182
:101090008223B201A3012E2FD6DDE82F015010408C
:1010A000BFEF0F3F1B0759F7D4018D914D01082E5B
:1010B00082958025082E86958695802590E001965C
:1010C000959587958170B201A3012E2FBCDDE82F85
:1010D000B394BA1478F2EE2319F02E2F215004C0E5
:1010E00089818F5F898327E089E180931401809350
:1010F000130185E28093160180931501CE010296BB
:101100006CE049810E855AE0E52E7FDE2E96E2E105
:101110000C94D51BACE0B0E0E0E9F8E00C94C51B02
:10112000F62EE42E01968E010F5F1F4FB8014BE0A3
:10113000FFDB682FC8014F2D2E2D77DF2C96E6E0C0
:101140000C94E11B66E043E0E5CF219A2998529880
:10115000E9E6F0E080818160808382EC91E0909309
:10116000DC028093DB0210922B0110923F0110925F
:1011700053011092D6020895A0E0B0E0E2ECF8E04E
:101180000C94C31BDC011092770110926A0197E066
:1011900013968C911397981B11961C911197110F10
:1011A000110F110F190F10926B01FF24EE2407E0AD
:1011B00057E040E070E0E7E0CE2ED12CC1E0D0E077
:1011C0007FC0FD01EE0DF11D848190E0002E02C074
:1011D000959587950A94E2F7282F2170002311F046
:1011E000015002C0E39407E06B3469F4533059F4C2
:1011F0007723B9F5222311F071E062C040936A01B0
:10120000109277011EC05F3F69F56634E1F4E42F68
:10121000F0E0E559FE4F8081082E82958025082E4A
:1012200086958695802590E00196959587958170A5
:10123000907030E08217930761F040936A017093D9
:10124000770180E057C0653411F06B3411F422232C
:10125000A1F34F5FE42FF0E0E559FE4F108257E015
:101260002FC070E0222359F1663479F4E42FF0E0C6
:10127000E559FE4F9E01052E02C0220F331F0A942E
:10128000E2F78081822B80831AC0653411F06B34C1
:10129000B1F4E42FF0E0E559FE4F852F992787FD43
:1012A00090959601281B390BC9019E0102C0220F9F
:1012B000331F8A95E2F7C9012081282B20835150E2
:1012C000F3948F2D8150811708F47BCF40936A01EE
:1012D000709377011F1508F0B4CF653411F45F3FA8
:1012E00011F0772319F04F5F40936A0180916A01F2
:1012F000811181E0CDB7DEB7E8E00C94DF1BDC01A3
:1013000012968C911297ED91FC911197E80FF11DB7
:10131000E08113962C911397215013962C931397D9
:101320002F5F39F48F5F12968C93129787E0139694
:101330008C938E2F90E002C0959587952A95E2F7C1
:1013400081700895A0E0B0E0E8EAF9E00C94BF1BDA
:101350006C01962E842EFF24C0E0D0E0F1E0AF2E89
:10136000B12C062F10E00150104019C0C601C7DF94
:101370008823A1F0882059F0C8018C1B9D0B950192
:1013800002C0220F331F8A95E2F7C90106C0C501CA
:1013900002C0880F991FEA94E2F7F82A2196EC2EF2
:1013A000C91520F38F2DCDB7DEB7ECE00C94DB1B15
:1013B000A4E0B0E0EEEDF9E00C94C11BFC0187E085
:1013C0008C833496FA83E983349710926A01818181
:1013D00090E023E0880F991F2A95E1F72381821B73
:1013E0009109CE970CF45AC01B82CC24DD245E01F7
:1013F0000894A11CB11C2EC0ED2CFF24C50168E08F
:1014000040E0A0DF082F8BE691E0E80EF91EF7011F
:101410000083002E02950025002E069506950025D6
:10142000C5016DDF10E00F5F1F4F15950795017027
:10143000107090E00817190731F4C50160DF9D2D89
:101440009F5F882319F0D0926A0128C0F70180813C
:10145000C826D92EF5E0FD1578F6D0926A01C501AF
:1014600068E040E06FDFF82E082F002E029500257F
:10147000002E069506950025C50141DF10E00F5F9F
:101480001F4F159507950170107090E00817190708
:1014900029F480E0CF1419F481E001C080E02496A3
:1014A000EAE00C94DD1BFC018181A82FB0E050E044
:1014B000E081CD01841B950B0B964797D8F48E2FB6
:1014C00090E070E09C01261B370B2C30310594F422
:1014D000255F3F4F7CF08A0F9B1F861B970B841B59
:1014E000950B8C30910534F420E0855F9F4F1CF004
:1014F00021E001C020E0822F0895282F30E0C901AB
:10150000880F991F820F931F860F911D95958795C0
:10151000959587950895DC0111968C9111978C30E3
:1015200090F010926F008091670190E024E130E02C
:10153000829FF001839FF00D929FF00D1124E95ED0
:10154000FE4F10820895662381F0FD01E80FF11D22
:1015500081E090E013960C90139702C0880F991FBA
:101560000A94E2F72481282B248313968C911397F5
:10157000815013968C9313978F5F79F487E01396BD
:101580008C93139711968C9111978F5F11968C9372
:101590001197A80FB11D14961C9208951F920F92D7
:1015A0000FB60F921124EF92FF920F931F932F9378
:1015B0003F934F935F936F937F938F939F93AF93DB
:1015C000BF93CF93DF93EF93FF938091E40288233F
:1015D00021F082E08093E402B8C080918400909171
:1015E000850054E0969587955A95E1F7182FE0907D
:1015F000670184E1E89EE0011124C95EDE4F988115
:10160000943031F41E3208F4A0C01F3408F08DC0AD
:101610004A990CC0943039F4CE0161E07CDF10921D
:10162000850010928400109389018FC00091890178
:10163000F12EF01AF0928A01109285001092840027
:10164000943021F4CE0160E066DF7FC082E086BB8B
:10165000992371F4053608F078C084E68F1508F4F4
:1016600074C0088BF98A81E08A8382E088836DC028
:101670009230A9F5CE014096602F4F2D14DF1A81CC
:10168000882359F08889602F38DF888B89896F2DEE
:1016900034DF898B1F5F1A8358C01430F0F080EA62
:1016A0009FE090938900809388001C3050F0298936
:1016B000888990E0820F911D8536910514F084E0B1
:1016C00001C083E088830A8BFB8A198287E08B83C1
:1016D0001C8282E080936F0038C01882BBCFCE019D
:1016E0004296602F4F2DDFDE882361F0CE0161E04E
:1016F00012DF8A89602F01DF8A8B8B896F2DFDDED7
:101700008B8B23C0CE014096602F4F2DCCDE8823DB
:1017100061F0CE0160E0FFDE8889602FEEDE888B0D
:1017200089896F2DEADE898B10C010926F002E2DF3
:1017300030E084E190E0289FF001299FF00D389F70
:10174000F00D1124E95EFE4F1082FF91EF91DF91C1
:10175000CF91BF91AF919F918F917F916F915F9149
:101760004F913F912F911F910F91FF90EF900F900C
:101770000FBE0F901F9018951F920F920FB60F92E9
:1017800011242F933F934F935F936F937F938F9386
:101790009F93AF93BF93EF93FF9310926F0080914D
:1017A000DD0283FF02C08EE20FD840916701242F33
:1017B00030E084E190E0289FF001299FF00D389FF0
:1017C000F00D1124E95EFE4F8081833018F0818195
:1017D000823028F410926F0084E190E012C0809172
:1017E00069018330C9F48091DD0282FF03C081E882
:1017F00091E001D810926F008091670190E024E1A0
:1018000030E0829FF001839FF00D929FF00D112434
:10181000E95EFE4F10820BC08F5F80936901842FB9
:101820008F5F80936701843011F410926701FF91FC
:10183000EF91BF91AF919F918F917F916F915F9148
:101840004F913F912F910F900FBE0F901F901895C1
:101850000F931F93CF93DF9380918A018823B9F16F
:101860008091DD0287FF17C084E30E94DE0180586B
:10187000803410F480E00CC0803C10F08FE008C091
:1018800090E080559040A3E095958795AA95E1F763
:101890008F590E94E4038091DD0283FF16C082E726
:1018A0000E94E4038091DD0284FF04C080918901DD
:1018B0000E94E40386E60E94E4038091DD0284FF37
:1018C00004C080918A010E94E40310928A018091F1
:1018D0006901882309F410C2119A9091680184E18A
:1018E000989FE0011124C95EDE4FCE0166E444DC1E
:1018F000882309F140916A01415040936A0186E0D2
:101900006BE671E05FD840916A01E42FF0E0E559A1
:10191000FE4F9081891711F406E48EC08CE06BE6CF
:1019200071E050D8E0916A01F0E0E559FE4F9081F6
:10193000891709F4C2C1CE0165E41EDC882309F4CD
:10194000BEC180916A01815080936A01893009F09B
:10195000B6C18BE691E069E041D8E0916A01F0E020
:10196000E559FE4F9081891709F0A9C105E464C0CB
:1019700040916A01415040936A0160917701342F90
:1019800050E095E020E014C03150E32FF0E0E5593D
:10199000FE4FE0818E2F82958F702827980F662347
:1019A00011F0552321F08E2F8F702827980F5F5F3D
:1019B000332351F7920F9295907F922BE42FF0E012
:1019C000E61BF109E559FE4F8081981761F08B8184
:1019D0008F5F8B838150873009F089C11B82898199
:1019E0008150898384C10BE427C08B81843009F046
:1019F000D8C0CE0140966CE34EE155DD882309F452
:101A0000D0C0C801609189014EE14DDD682FCE0143
:101A100082DD8C8180936B018D8180936C018E813E
:101A200080936D018F8180936E01888580936F0113
:101A300085E080936A0102E58091DD02782F80FFC6
:101A4000B1C081FF02C020E059C04091780160918F
:101A50006A01461781F51092780120E00EC0E22F4E
:101A6000F0E0322F3F5FDF01A559BE4FE758FE4F30
:101A700090818C91981719F4232F241780F326173F
:101A8000D1F48091D7029091D802A091D902B0915F
:101A9000DA022091850130918601409187015091B1
:101AA0008801821B930BA40BB50B8697A105B1058A
:101AB00010F421E001C020E01092780190E00AC00B
:101AC000E92FF0E0DF01A559BE4F8C91E758FE4F9A
:101AD00080839F5F9617A0F3909378018091D7023F
:101AE0009091D802A091D902B091DA028093850139
:101AF00090938601A0938701B09388010435D1F4B7
:101B000076FD18C080916D018B3409F44BC0893685
:101B100009F448C0833509F445C0843509F442C04E
:101B20008D3709F43FC08E37E9F180916E018077DF
:101B30008037C1F12223B1F5802F0E94E403809108
:101B40007701882329F080916A01815080936A018E
:101B500010E008C0E12FF0E0E559FE4F80810E94BF
:101B600051041F5FE0916A011E17A0F38091770175
:101B7000882359F0F0E0E559FE4F808190E08F70A6
:101B8000907061E040E30E9414048091DD0285FFC3
:101B900005C084E30E94DE010E9451040E94F70305
:101BA00001C000E08091DD0282FF6DC080E70E94ED
:101BB000E403888190E062E040E20E945504888955
:101BC00090E0F4E0880F991FFA95E1F765E040E2B4
:101BD0000E945504898990E0E4E0880F991FEA95F6
:101BE000E1F765E040E20E9455048A8990E074E0E4
:101BF000880F991F7A95E1F765E040E20E9455044D
:101C00008B8990E064E0880F991F6A95E1F765E0A1
:101C100040E20E9455048A8190E063E040E20E9425
:101C20005504898190E063E040E20E9455042B81D5
:101C300087E090E0821B910962E040E20E94550437
:101C400080E20E94E4038091DD0285FF08C084E306
:101C50000E94DE010E94510480E20E94E4038B8115
:101C6000873019F089818F5F898310E007C0FE01FA
:101C7000E10FF11D84810E9451041F5F89811817B3
:101C8000B0F30E94F703188280916901815080931C
:101C90006901809168018F5F80936801843011F43D
:101CA000109268011198043539F580916A018530E8
:101CB00019F58BE691E0D4D01FC004E5BDCECE016E
:101CC00077DB882311F008E4B7CE8E010E5E1F4F3C
:101CD000C801609189014B89E6DB682FCE011BDCCE
:101CE000CE016BE449DA882309F471CE41CE8981B3
:101CF000843009F056CF79CEDF91CF911F910F91AB
:101D000008958091DD02882321F00E9418030C942D
:101D100039020C94F401FC018181882371F48091D3
:101D2000DD020E9451048091DB029091DC0265E0AB
:101D300040E20E9455040C94F703CF0101966DED2B
:101D400072E041E00E949804DCCFDC01E3E9F1E0BD
:101D50000EC0109751F091818C91981731F49281B7
:101D600011968C9111979817A1F0E20FF11D208127
:101D7000222321F082E0E134F80758F382E0E134D5
:101D8000F80719F010F0E1E4F2E0AB2B11F0E0E01D
:101D9000F0E0CF010895CF93DF93EC01D6DFFC0193
:101DA000009779F0909141028081981750F4E90FE3
:101DB000F11D80818A8389E78B8381818C8381E017
:101DC00001C080E0DF91CF9108950F931F93CF93CF
:101DD000DF938C018091DD0286FF18C084E50E94AC
:101DE000E403C0E0D0E0F801EC0FFD1F80810E9409
:101DF00051042196C530D105B1F78091DD0285FFF0
:101E000003C08AEF0E9451040E94F703DF91CF9133
:101E10001F910F91089586E30E94EC0180918E013D
:101E2000833511F08BE401C08BE90E94DA038CE862
:101E300091E065E04CE021E0F8D80E9439028CE89E
:101E400091E0C3CFE8DF80918E01893641F091E0C7
:101E50009093DF0289E28093E302909392010895C8
:101E60001F93FC0140813181128193812481109262
:101E7000DF025091DE02552329F48091E20288238B
:101E800009F4BCC080918C01841721F480918D01EC
:101E9000831759F01092E10210928B0183E0809336
:101EA000410240938C0130938D018091E1028F3F7C
:101EB00009F4A4C010938E0190938F012093900198
:101EC0001123E1F08823D1F4251761F0243651F075
:101ED000812F8355823010F01D3721F48FEF8093CE
:101EE000E1028CC0143509F489C0892F807F8036C7
:101EF00009F084C0906790938F017FC08CE891E0D7
:101F00004ADF882329F48091E102882309F476C00E
:101F100090918B01992311F0892F06C0E091E10285
:101F2000F0E0E857FE4F8491833541F4143531F4E5
:101F30008091E1028E5F8093E1020AC0811741F037
:101F40001092E10210928B0183E08093410256C00F
:101F5000992379F0809141028E5F809341028CE851
:101F600091E019DF882371F48091E1028E5F809304
:101F7000E1029091E102E92FF0E0E757FE4F149162
:101F80001F3F59F480918E0180938B018436A9F50F
:101F90008091E0028093900130C010938E0187E71A
:101FA00080938F018091DE0280939001892F8E5F54
:101FB0008093E10210928B018E30E9F48CE891E07D
:101FC000C4DEFC01009781F0808190E021E432E0E2
:101FD000281B390BDF01A80FB91F02C08D91819317
:101FE000E217F307D8F310821092E10210928B01EE
:101FF00083E080934102112309F024DF1F910895AB
:1020000080919201882369F006DF81E08093DF02EE
:1020100089E28093E3028091920181508093920142
:1020200008951092E10210928B0183E080934102A7
:10203000089585E390E00E94DA048093DE0286E34F
:1020400090E00E94DA048093E2021092E102109282
:102050008B0183E0809341021092930108956F9267
:102060007F929F92AF92BF92CF92DF92EF92FF92B8
:102070000F931F93DF93CF9300D000D000D0CDB744
:10208000DEB73C017C010894E11CF11CC701BE01D4
:102090006F5F7F4F45E00E949804843008F067C06E
:1020A00099819130A9F4833061F485E390E06A81ED
:1020B0000E94CB0486E390E06B810E94CB04B9DFE1
:1020C0009FC08091DE020E9451048091E2024AC0CA
:1020D0009230F1F580919301882321F48CE991E00D
:1020E0000E94FB0303E911E02AC081E003391807CD
:1020F00019F080E20E94E403F80181810E945104FA
:10210000F80182810E9451048AE30E94E40393E073
:10211000F92E0FC0F3E0FF1528F4F0FE03C08CE2A7
:102120000E94E403F801EF0DF11DF39480810E94F9
:102130005104F8018081F81668F3080F111DF801A9
:102140008081882389F0F2E001341F0770F20CC00F
:10215000933051F480E090E0F8DD23E931E022553E
:10216000281B822F0E9451040E94F70349C080E07F
:1021700090E0EBDD8C01D7010D900020E9F711977D
:10218000AE19BF09B695A7959A2E9394C801890DEB
:10219000911D835991408F3A910574F5F801908211
:1021A0007801DD24D394CC24C3941BC05701089438
:1021B000A11CB11CC3018C0D911DB50141E00E9411
:1021C0009804F2E0FD1548F4D0FC07C0F7018081C7
:1021D000843619F481818093E002F2E0CF0ED3942B
:1021E0007501D91418F382E00134180748F40D0D75
:1021F000111DF801108204C086E991E00E94FB03E2
:1022000026960FB6F894DEBF0FBECDBFCF91DF91FB
:102210001F910F91FF90EF90DF90CF90BF90AF9004
:102220009F907F906F900895A0E4B0E0EAE1F1E123
:102230000C94C31B8091E402882309F44AC08130C6
:10224000B1F4909142028091D702981709F441C0ED
:1022500085E30E94DE01813129F48AE30E94EC01CA
:102260000E9439028091D7028093420232C08FE3EC
:102270000E94DE01D82E8FE38D1540F12C988FEF50
:102280000E94D8017E010894E11CF11C8701CE2C2C
:1022900006C080E00E94D801F80181938F01802F51
:1022A0008C198D15B0F32C9A81E08093120105C032
:1022B000F70181917F010E94E4038E2D8C198D1509
:1022C000B8F30E94F7038FEF8093120181E08093AF
:1022D000E402C05CDF4FE8E00C94DF1B0F931F9318
:1022E000CF93DF93EC01DC010D900020E9F711970B
:1022F000A81BB90B8981823751F487E390E00E94D3
:10230000BD020E94390281E08093E40229C0833734
:1023100029F50A2F2C988FE70E94D801802F825030
:102320000E94D80112E004C089810E94D8011F5F79
:1023300021961017C8F32C9A0E944D0204C084E61F
:1023400090E00E94D5038AE30E94DE0190E08F773F
:102350009070892BA1F70E94390202C01092E4020A
:10236000DF91CF911F910F910895CF93DF9382E476
:102370000E94E403C0916B03D0916C03CE0165E031
:1023800040E20E9455040E94F70383E50E94E403A3
:10239000809107019091080165E040E20E94550498
:1023A0000E94F70385E40E94E40380910901909163
:1023B0000A0165E040E20E9455040E94F70386E4AA
:1023C0000E94E403209721F4C0910701D0910801F5
:1023D0002091090130910A012115310541F42DB7F1
:1023E0003EB78091050190910601281B390BC21759
:1023F000D30718F080E090E003C0C9018C1B9D0B4F
:1024000065E040E20E9455040E94F703DF91CF91FE
:1024100008959C0197FF04C082E08093C0003F773D
:102420003093C5002093C40088E98093C10086E002
:102430008093C2000895E091D402F091D50281E02A
:1024400009958091C10085FD09C08091E70288232C
:1024500029F08091C10080628093C10008951F928D
:102460000F920FB60F9211242F933F934F935F93C8
:102470006F937F938F939F93AF93BF93EF93FF934C
:1024800082B192E0892782B96091C6008091C00034
:10249000887121F488E293E00E94F105FF91EF91A9
:1024A000BF91AF919F918F917F916F915F914F916C
:1024B0003F912F910F900FBE0F901F9018951F9274
:1024C0000F920FB60F9211242F933F934F935F9368
:1024D0006F937F938F939F93AF93BF93EF93FF93EC
:1024E0008091E702882339F085EE92E00E9406068B
:1024F0008093C60005C08091C1008F7D8093C1008C
:10250000FF91EF91BF91AF919F918F917F916F91CB
:102510005F914F913F912F910F900FBE0F901F90A1
:1025200018950F931F93CF93DF93EC0100E0802F5A
:1025300090E09C01220F331F280F391FF901E45846
:10254000FF4F1491F901E358FF4F25913491112366
:1025500099F0209739F480E20E94E403812F0E94D1
:10256000E40308C08881811729F4CE01F901099597
:1025700081E003C00F5FDBCF80E0DF91CF911F913F
:102580000F9108951F93109112018093120135C08D
:1025900088E293E00E9406068A3011F08D3009F53A
:1025A000E0914302EE2349F1F0E0EC5BFD4F108235
:1025B00084E492E0B6DF882389F488EB91E00E94FE
:1025C000FB0384E492E00E94080480EA91E00E9408
:1025D000FB0380E090E0A5DF0E94F7031092430226
:1025E0000CC090914302903440F4E92FF0E0EC5B92
:1025F000FD4F80839F5F9093430280912A0388233D
:1026000039F6109312011F910895149AF0D014987E
:1026100082E390E00C94D503CF93DF93EC011598FF
:1026200002C0F3DF2196FE0184918823D1F7159A29
:10263000DF91CF910895CF93DF93EC01159802C0FD
:102640002196E3DF88818823D9F7159ADF91CF910E
:1026500008951498CCD0149A82E00C94DA031F9356
:10266000182F159889E3F5DF1F70812F8067F1DF40
:1026700088E3EFDF159A1F9108951598EADF159A00
:1026800008958058FACF1F93182F8A3081F4159837
:1026900002C080E2BADF809185028F5F809385025D
:1026A00081508031B0F3159A1092850213C08D309D
:1026B00089F080918502803168F4882311F480E2EA
:1026C000E0DF1598812FA1DF809185028F5F8093D5
:1026D0008502159A1F91089581E0CFCFA1E0B0E067
:1026E000E4E7F3E10C94C71B8C01FC018181823685
:1026F00089F1833618F48334B9F521C0833619F093
:10270000843791F502C0E8DF2FC0C8010296BE01F0
:102710006F5F7F4F42E00E9498048981803308F008
:102720008FE28983AEDF8981E4E3F0E0E81BF10901
:10273000E00FF11F1082C80104967DDF15C0C801AB
:102740000296BE016F5F7F4F42E00E94980489812C
:1027500094DF0AC0C8010296BE016F5F7F4F42E05E
:102760000E94980489817BDF2196E4E00C94E31BAE
:102770000C9A149A0D9A159889E36BDF85E169DF4D
:1027800085E567DF8EE665DF81E763DF88E361DF8C
:102790008FE05FDF86E05DDF159A9EDF8CEE91E0D3
:1027A0003BDF85EE91E038DF82EE91E035DF8DEDA5
:1027B00091E032DF8AED91E02FDF80E162DF8CEC87
:1027C00091E02ADF80E25DDF8CEB91E025DF109263
:1027D00085020895E4E6F0E080818B7F80832F9A64
:1027E00084B1806B84B9269881E58CBD08958EBD37
:1027F0000DB407FEFDCF8EB50895FC0181818237AF
:10280000B1F48281882351F08381882339F0CF018C
:10281000029666E872E042E00E9498048091860287
:1028200090E062E040E30E9414040C94F7030895E2
:1028300080918602882309F0C6C10895A6E0B0E021
:10284000E3E2F4E1A6C780918602882359F1CE0124
:10285000019632D0882331F180918602823019F4BA
:102860008E8180FD1FC0119A89E40E94E403898152
:1028700090E062E040E30E9414048A819B8164E05E
:1028800040E30E9414048C819D8164E040E30E9437
:1028900014048E8190E062E040E30E9414040E94E0
:1028A000F70311982696E2E090C703D010928602B3
:1028B0000895289820980895FC018091B9028823F2
:1028C00009F47CC08091BA02823051F1833009F062
:1028D00054C02091BD023091BE028091BD02909102
:1028E000BE02232F332780959095907028173907C3
:1028F00009F061C08091BD029091BE0290709093EA
:10290000BE028093BD022091BD023091BE02809133
:10291000BF029091C002982F8827822B932B29C049
:102920002091BD023091BE028091BD029091BE0205
:10293000232F332780959095907028173907A1F0A1
:102940008091BB029091BC028E5E9748A1F58BE00E
:102950008093BA028091BD029091BE02892F99277F
:102960009093BC028093BB028091BD029091BE0205
:1029700090709093BE028093BD028091BA028083D2
:102980008091BB029091BC02928381838091BD02B1
:102990009091BE02948383838091C10285831092BB
:1029A000BE021092BD021092BC021092BB021092A5
:1029B000C10281E001C080E01092B9020895F82FB1
:1029C000609196027091A002671738F18091A10280
:1029D000681718F58091A6022F2F30E04091C202AF
:1029E0005091C302882381F0862F90E0871B9109C4
:1029F00002C0220F331F8A95E2F7422B532B5093CC
:102A0000C3024093C20269C0440F551F242B352BCB
:102A10003093C3022093C20260C07091A202671774
:102A200018F18091A3026817F8F48091A6022F2F65
:102A300030E04091C4025091C502882381F0862F76
:102A400090E0871B910902C0220F331F8A95E2F79D
:102A5000422B532B5093C5024093C4023EC0440FF7
:102A6000551F242B352B35C0809197028330D1F42C
:102A7000613198F1653188F58F2F90E0262F30E095
:102A80002151304002C0880F991F2A95E2F720910A
:102A9000CA023091CB02282B392B3093CB022093E2
:102AA000CA021BC08530C9F46431B8F06831A8F49B
:102AB0008F2F90E0262F30E02850304002C0880F42
:102AC000991F2A95E2F72091C4023091C502282B64
:102AD000392B3093C5022093C40280919702853030
:102AE00051F5603340F5262F30E0E62FE695E69568
:102AF000E695FF2381F0F0E0E453FD4F277030703E
:102B000081E090E002C0880F991F2A95E2F72081AA
:102B1000282B208310C0F0E0E453FD4F2770307065
:102B200081E090E002C0880F991F2A95E2F7809516
:102B30002081822380836F5F609396020895982F8F
:102B40008091970220919602882311F0225001C0B3
:102B500021504091B1022417C8F08091B202281789
:102B6000A8F4892F90E030E0241B310902C0880FBF
:102B7000991F2A95E2F72091C6023091C702282BAF
:102B8000392B3093C7022093C60208954091B302B7
:102B90002417C0F08091B4022817A0F4892F90E088
:102BA00030E0241B310902C0880F991F2A95E2F7F3
:102BB0002091C8023091C902282B392B3093C902C9
:102BC0002093C80208951F9393B18091B90288237E
:102BD00009F0B7C59170809195028823D1F5809155
:102BE0009202992311F48F5FAAC5882319F181E01D
:102BF0008093950280939302109294021092C502E2
:102C00001092C4021092C3021092C2021092C90222
:102C10001092C8021092C7021092C6028FEF8093E2
:102C2000960281E090E0909391028093900210923E
:102C30008A0287C580918E0290918F022FEF8F3F7D
:102C4000920709F47EC5019690938F0280938E02BD
:102C500078C580919302882309F479C1992381F082
:102C600080919002909191020196909391028093AD
:102C700090028350914008F4C1C38091BA023EC2D1
:102C80001092A80240919202842F81528A3060F4FF
:102C900080919002909191028730910528F00C97D5
:102CA00018F46FEE71E007C18091BA02843171F4BB
:102CB000433560F0473C50F480919002909191022E
:102CC0008333910518F08239910570F0842F835574
:102CD0008437A8F4809190029091910289329105F5
:102CE00030F08436910530F460E072E0E4C0843165
:102CF000910528F0C39718F461E172E0DCC0842FDD
:102D00008E53813168F480919002909191028E33BC
:102D1000910530F08F34910518F462E272E0CBC077
:102D2000842F8B52883168F48091900290919102A7
:102D30008B32910530F08334910518F463E372E02F
:102D4000BAC0842F8F528D3060F4809190029091A0
:102D500091028731910528F04F9718F464E472E0EE
:102D6000AAC0842F8C50853018F08C508930D8F54B
:102D70002091900230919102C9010C97059720F0A3
:102D8000C9014897099778F54C514A3070F42D30B5
:102D9000310558F02331310540F488EA92E065E5C9
:102DA00072E041E150E00E947B012091900230915D
:102DB000910230938902209388028091920281517E
:102DC000803128F0215130402031310530F410920B
:102DD000870280E480938A0203C081E080938702A7
:102DE00066E672E068C0842F8350843078F42091C6
:102DF000900230919102C9014A97099708F459C08D
:102E00002A5030402530310508F453C0842F8452B5
:102E10008C3098F480919002909191028C309105C1
:102E200060F0419750F4109289021092880281E07C
:102E30008093870268E872E03EC0842F80518B3017
:102E400060F480919002909191028330910528F076
:102E5000089718F469E972E02EC0842F86508630F6
:102E6000A0F480919002909191028232910568F0D5
:102E70008333910550F4909389028093880281E016
:102E8000809387026AEA72E016C04C514A3060F4BF
:102E900080919002909191028D30910528F0439796
:102EA00018F465E572E007C01092950260E070E0EA
:102EB00002C067E772E080919502882331F087E9CC
:102EC00092E041E150E00E947B01109296028091D5
:102ED000A702282F30E080FF21C08091970289301F
:102EE000E9F040919002509191028091990290E016
:102EF0008417950750F4880F991F8417950728F0B9
:102F000036952795822F809507C080918702882368
:102F1000A1F436952795822F81700EC0809197027B
:102F2000883059F480919002909191024A970997C4
:102F300010F481E001C080E042DD81E080939202E4
:102F400010929102109290021092930257C28091B7
:102F50009402882309F441C2992309F4D8C06091EE
:102F60009602E091A4026E1799F48091A502813037
:102F700079F49091920280919C02981708F4BEC057
:102F800080919D02891708F4B9C01092A50236C23B
:102F900040919002509191024F5F5F4F5093910288
:102FA00040939002709197027130C9F44C305105F2
:102FB00008F44EC06B3008F44BC06F5F6093A402FE
:102FC0008091A20290919602890F8F5F8093A30255
:102FD0008AE090E0909391028093900298C07F30B5
:102FE000B9F58091A502882399F580919B0290E024
:102FF000880F991F8417950730F4683020F08AE015
:103000008093A4023DC06A3008F4F8C180E1809347
:10301000970299E09093A00281E18093A10281E060
:103020008093A2029093A3022091C4023091C50222
:10303000C90180709370892B09F4E0C13093C202FA
:103040001092C30230703093C5022093C402D6C1DF
:103050008091A70280FF18C080919B0290E0880FAA
:10306000991F8417950780F4262F30E08E2F90E06B
:1030700002972817390744F08091A502882321F48C
:1030800081E08093A50243C04350514008F4B6C18B
:10309000262F30E08E2F90E001972817390741F452
:1030A0008091A502882321F46F5F60939602A6C1E8
:1030B000723021F56051623008F541E04093A5027D
:1030C00084E180939702809196028093A40280917C
:1030D000C2029091C3029C0164E0369527956A95DF
:1030E000E1F73093C5022093C4028F7090709093E3
:1030F000C3028093C2024093950280C11092950250
:1031000010929202109291021092900277C18091D7
:10311000A702282F30E080FFECC01091920280912E
:103120009902811708F047C080919702893081F495
:1031300080919602843061F41D3050F08091A40299
:10314000843219F481E03BDC24C080E038DC1EC00E
:1031500036952795822F8095817031DC809197027A
:103160008930C9F4809196028430A9F41D3098F01A
:1031700081E025DC80919B0290E0880F991F2091CF
:103180009002309191028217930718F410928702EF
:103190006FC081E00DC08091A70290E09695879561
:1031A00081700DDC8091A70290E0969587958170E3
:1031B000809387025DC0809198021817D8F1209102
:1031C00088023091890280919B0290E082179307D8
:1031D00070F4880F991F8217930748F020E08091C0
:1031E0008702882309F421E02093870202C02091FE
:1031F0008702809197028930D1F4809196028130C4
:10320000B1F42130A1F494E29093A40285E080937C
:10321000A00284E18093A10285E18093A2029093B1
:10322000A30281E090E09093C3028093C202822FB8
:10323000C6DB1EC08091A8028231A1F4123090F04A
:10324000193080F42091900230919102C9010897C1
:10325000079728F0215030402530310518F410929E
:10326000970206C01092950210929102109290025D
:103270008091A8028231A1F5123090F1193080F5C9
:103280002091900230919102C9010897079710F49C
:1032900081E006C0215030402530310510F480E037
:1032A0004EDC809197028823D9F4A7E9B2E0E8EADE
:1032B000F2E081E101900D928150E1F71092A802B5
:1032C0008091C6029091C7029093C3028093C2027C
:1032D0008091C8029091C9029093C5028093C40264
:1032E000809190029091910290938902809388023C
:1032F0004FC080919702833079F58091960280319A
:1033000059F5809192028550883008F05EC0209176
:103310009002309191022E33310568F02F3431053F
:1033200050F4109294021092CB021092CA0281E1E2
:103330008093960250C08AE08093970280E1809348
:10334000A20280E28093A3028093A4022F50304017
:1033500020313105C0F51AC0409192028091980247
:103360004817C8F0809199028417A8F02091900224
:103370003091910280919A0290E02817390758F015
:1033800080919B0290E08217930728F081E017DB81
:103390001092940220C080919C024817B0F0809156
:1033A0009D02841790F020919002309191028091BB
:1033B0009E0290E02817390740F080919F0290E02C
:1033C0008217930710F080E0E2CF109295021092DE
:1033D00091021092900281E005C0992331F480910E
:1033E00092028F5F8093920209C081E080939402E1
:1033F00081E090E0909391028093900280919502F9
:10340000882309F49EC1909196028091A402981796
:1034100009F097C18091A502882309F092C12091FB
:103420000101309102018091C4029091C5022817D8
:10343000390769F480918E0290918F02825E9440E8
:1034400030F480918D028F5F80938D0202C01092C4
:103450008D0290919702913031F480918D028150CC
:103460008230A8F40FC0953029F480918D0281300C
:1034700071F408C09A3011F09D3049F480918D02AA
:1034800080FF05C010928F0210928E020DC181E064
:103490008093B902983059F54091C4025091C50209
:1034A0009A0120953095337080918B0290918C0217
:1034B00028173907A9F43093C5022093C4028091DC
:1034C00097028093BA028091C2029091C3029093B6
:1034D000BC028093BB023093BE022093BD02E4C0C5
:1034E0001092B90250938C0240938B02DDC09F3042
:1034F00041F48091C4029091C5028F5F9140E9F53B
:1035000010C0903189F48091C2029091C3028F3F24
:10351000910599F58091C4029091C5028E3F910565
:1035200061F51092B902C0C0923039F580919602CF
:10353000882319F580918E0290918F0283559740D0
:10354000D0F480910301909104019093C302809381
:10355000C20280910101909102019093C502809373
:10356000C4028091C10281608093C10210928F02D7
:1035700010928E0202C01092B902509197025530FB
:1035800041F58091CC029091CD024091CE02282F3E
:103590002F7082958F702827892F8F7028279295FA
:1035A0009F70292730E0842F90E08F70907028174B
:1035B000390711F01092B9028091CF02482780910B
:1035C000D00248278091D102481769F01092B902C1
:1035D0000AC0593041F48091A402843221F485E17B
:1035E0008093BA0202C05093BA028091970282314E
:1035F00071F58091C4029091C5029C01A4E03695BA
:103600002795AA95E1F78F709070892B09F02068B3
:103610003093C5022093C4024091C2025091C3026C
:103620009A01220F331F220F331F20703F708091A9
:10363000C4029091C502822B932B9093C502809374
:10364000C4024F7350705093C3024093C2028091E2
:10365000C2029091C3029093BC028093BB029093EC
:1036600004018093030180919702873069F42091CF
:103670008A0230E08091C4029091C502822B932B84
:103680009093C5028093C4028091C4029091C502B8
:103690009093BE028093BD028091CA029091CB02AA
:1036A0009093C0028093BF028091B9028823B1F148
:1036B0002091BD023091BE028091010190910201E2
:1036C00082179307B9F42091BB023091BC0280911C
:1036D0000301909104018217930761F480918E0297
:1036E00090918F028852994028F48091C1028160A4
:1036F0008093C1028091C2029091C3029093040111
:10370000809303018091C4029091C50290930201BD
:103710008093010110928F0210928E0210929502F6
:103720001092C5021092C40210929202109291025D
:10373000109290028091BA02843119F48CE880933F
:1037400092028091B9021F910895AA1BBB1B51E1FF
:1037500007C0AA1FBB1FA617B70710F0A61BB70B01
:10376000881F991F5A95A9F780959095BC01CD01A6
:1037700008952F923F924F925F926F927F928F9215
:103780009F92AF92BF92CF92DF92EF92FF920F93F0
:103790001F93CF93DF93CDB7DEB7CA1BDB0B0FB6FA
:1037A000F894DEBF0FBECDBF09942A8839884888B7
:1037B0005F846E847D848C849B84AA84B984C8844D
:1037C000DF80EE80FD800C811B81AA81B981CE0F44
:1037D000D11D0FB6F894DEBF0FBECDBFED01089529
:0437E000F894FFCF8B
:0C37E40002FFFFFFFF20006F0300000049
:00000001FF
