:100000001DC100000C94F80E35C1000033C1000082
:1000100031C100002FC100002DC100002BC1000024
:1000200029C1000027C1000025C1000023C1000034
:1000300021C100000C9446101DC100001BC100002E
:1000400026C3000017C1000015C1000013C1000045
:100050000C94E1190C94111A0DC100000BC10000A1
:1000600009C1000007C1000005C1000003C1000074
:1000700001C10000FFC00000FDC000006D67194213
:100080009D0543100246090A690C0A41E50B47EE3B
:10009000084D7D08520D07546A17569905571406E6
:1000A0005838134FEC3665D1056620196CC20574BB
:1000B000090475C014783003452C1D717A1D0000A9
:1000C0000000030F1E2627000000030F1E253638F0
:1000D0006700030F256740605000030F2751888396
:1000E0008100030F2750C8C3C20027000000000092
:1000F0000000670000000000000050000000000049
:1001000000008100000000000000C20000000000AC
:10011000000D2E2D07D3913D04320000060021650D
:100120006A55E43023B900070018146C0700908763
:100130006BF85611E92A001F4100072E050DD391D7
:10014000FF080500000C0021656A2D3B1322F862B0
:10015000073F181D1CC700B0876BF8B611EA2A00CC
:100160001F4100202F2000203D20005620312E343A
:10017000342043554E4F38363800202F2000203D84
:1001800020004C4F56460D0A000007022E030D04B6
:10019000E905CA070C0B060D210E650F6A10C81180
:1001A00093120315341730181819161B43215625BE
:1001B0000026112D353EC3FF000000424F56460D6C
:1001C0000A0000535300547D7DFFFF4B4B7E7E00A1
:1001D000454F420D0A004E2F41004E2F410020692D
:1001E0007320756E6B6E6F776E2920557365206F67
:1001F0006E65206F66003F2028004134353035356C
:1002000000303000302E302E302E3000323332337A
:10021000003139322E3136382E302E31003235351C
:100220002E3235352E3235352E30003139322E31E1
:1002300036382E302E3234340031000011241FBEE7
:10024000CFEFD0E1DEBFCDBF12E0A0E0B1E0E2E849
:10025000F1E702C005900D92AC33B107D9F71FE06A
:10026000ACE3B2E001C01D92AF3CB107E1F744D06E
:100270000C94BF38C5CEFB01DC0105900D92002027
:10028000E1F70895FB01DC0104C08D910190801914
:1002900021F441505040C8F7881B990B0895FB0189
:1002A000DC0102C001900D9241505040D8F70895F2
:1002B000DC0101C06D9341505040E0F70895FB010F
:1002C000DC0101900D920020E1F70895DF92EF929A
:1002D000FF920F931F937B018C01FB010995D82E90
:1002E000C8010196F7010995982F8D2D1F910F9147
:1002F000FF90EF90DF90089588E10FB6F894809317
:100300006000109260000FBE549A5C9A209A289A5E
:100310000E946C3076D40E9482300E949F340E94EA
:10032000DD3389EF87BD84E085BD82E084BD8093A5
:100330006E00109280008AE08093810080E090E05F
:1003400020E80FB6F89420936100809361000FBEFF
:1003500084B7877F84BF2FE088E190E00FB6F894E0
:10036000A895809360000FBE2093600089E190E81B
:100370000E94BB190E944B170E94F50B84E79AE17B
:1003800090934906809348060E945E1589E0809309
:100390003F020E94BE1C289878940E94CD190E94AA
:1003A000B410DAD10E94C5180E9452130E948F0A1D
:1003B0000E94E81BF2CF8EBD0DB407FEFDCF8EB5B7
:1003C00008952C98806C8EBD0DB407FEFDCF8EB5C0
:1003D0001EBC0DB407FEFDCF8EB52C9A08952C9847
:1003E00080648EBD0DB407FEFDCF8EB56EBD0DB41D
:1003F00007FEFDCF8EB52C9A08952C988EBD0DB4B6
:1004000007FEFDCF8EB52C9A08952C9886E38EBDFD
:100410000DB407FEFDCF8EB52C9A10924A060895B2
:10042000A1E0B0E0E6E1F2E00C9496380196BE015E
:100430006F5F7F4F41E0D4D2892B41F189818939A7
:1004400089F400E010E0802FBCDF83D2C801877000
:100450009070079709F423D20F5F1F4F00331105E7
:1004600091F714C0AEDF182F83E4EFD1898171D2E8
:1004700087E691E018D2812F6CD283E691E013D207
:10048000812F90E062E040E268D209D22196E4E058
:100490000C94B2380F931F931FEF04E32C980EBDFA
:1004A0000DB407FEFDCF8EB52C9A8AE090E0BED148
:1004B0001150A1F7E89A1F910F9108950F931F9380
:1004C000E8982C9886E38EBD0DB407FEFDCF8EB55F
:1004D0002C9A1FEF05E32C980EBD0DB407FEFDCF3F
:1004E0008EB52C9A8AE090E0A1D11150A1F71F910E
:1004F0000F910895EF92FF920F93CF93DF93082F00
:100500008A3008F008E0C02FD0E083E0CC0FDD1F78
:100510008A95E1F7CF53DF4F8BE290E07C0108949E
:10052000E11CF11CFE016491EDD22196C7018333D9
:100530009105A1F70550053010F067E101C061E1B8
:1005400084E290E0DFD2DF91CF910F91FF90EF90A6
:100550000895CF93DF9382E090E0EC012196FE01B5
:10056000E25FFE4FE4916E2FCDD2CB32D10511F078
:10057000CE01F3CF87E390E0EC012196FE01EE5F20
:10058000FE4FE4916E2FBED2C036D10511F0CE01E0
:10059000F3CF88E0AFDFDF91CF9108950F931F93E2
:1005A000CF93DF938C01E898249A2C9A8EE190E007
:1005B0003DD12C988EE190E039D12C9A8DE290E0DB
:1005C00035D12C9880E38EBD0DB407FEFDCF8EB5DE
:1005D0002C9A84E690E02AD12C9880E48EBD0DB44C
:1005E00007FEFDCF8EB5C0E0D0E0C8018C0F9D1F87
:1005F00098D28EBD0DB407FEFDCF8EB52196C932BF
:10060000D10599F72C9A2C988EE78EBD0DB407FE74
:10061000FDCF8EB58BE290E0EC01219682D28EBDAB
:100620000DB407FEFDCF8EB5C333D10511F0CE0159
:10063000F3CF2C9A2C9883E38EBD0DB407FEFDCF2B
:100640008EB52C9A81E0F7D0DF91CF911F910F9159
:10065000089582E090E0A2DF81E080934A06089549
:10066000A1E0B0E0E6E3F3E00C94983822E02983BF
:100670000196BE016F5F7F4F41E0B2D189813ADFC1
:1006800082E090E08BDF2196E2E00C94B4381F9278
:100690000F920FB60F9211248F939F93AF93BF9336
:1006A00080914C0690914D06A0914E06B0914F0658
:1006B0000196A11DB11D80934C0690934D06A09309
:1006C0004E06B0934F0680914B068F5F80934B068A
:1006D0008D3710F010924B0680915E0F8F5F8093E4
:1006E0005E0F8D37A8F08091260190912701A0918F
:1006F0002801B09129010196A11DB11D8093260109
:1007000090932701A0932801B093290110925E0FC6
:1007100080916F0890917008009729F0019790934D
:10072000700880936F0880916B08882339F080915E
:100730008208882319F0815080938208BF91AF917D
:100740009F918F910F900FBE0F901F9018958091E1
:100750004C0690914D06089590914C0680913D0273
:10076000981709F455C090933D02A89580916F08A1
:1007700090917008892B11F40E94E61680916B0805
:10078000882331F080918208882311F40E94CD16CD
:1007900080915E08882339F0815080935E08882319
:1007A00011F40E94A4140E94E03480914B06882327
:1007B00079F58091000181FF04C085B191E089271E
:1007C00085B9809150069091510623E084389207B4
:1007D00028F4019690935106809350060E94DC30D5
:1007E00080912601882311F40E94063080913C02FA
:1007F0008F5F80933C028C3359F410923C028091BD
:100800006C088F5F80936C088C3310F010926C082A
:10081000089580914F069DD080914E069AD0809188
:100820004D0697D080914C0694D039C0880F991FFF
:100830000197F1F7089520ED37E004C0F9013197F1
:10084000F1F781508823D1F708951F93182F8091D5
:100850003F0282FF03C0812F0E946D1D80913F02E5
:1008600080FF04C084E898E0612F56D38091690826
:10087000882399F080913F0283FF0FC01A3069F0FE
:100880001D3009F41BE389E596E0612F45D383E031
:1008900080935E0882E0809364081F9108958DE044
:1008A000D4DF8AE0D2CFCF93DF93EC0102C0CDDF5B
:1008B0002196FE0184918823D1F7DF91CF9108958D
:1008C000CF93DF93EC0102C02196BFDF888188239C
:1008D000D9F7DF91CF910895A5E0B0E0E2E7F4E029
:1008E0000C9498381D82FE01349624E0582F5F70D6
:1008F00021505A3018F4352F305D02C0352F395C45
:10090000308334E0969587953A95E1F761503197B9
:10091000009761F72150822F992787FD90952F5FCF
:10092000FE013196E80FF91F03C021504083319733
:10093000615067FD02C01216C4F3332727FD3095BE
:10094000CE010196820F931FBBDF2596E2E00C9447
:10095000B43890E062E040E3BFCFA6E0B0E0E3EB64
:10096000F4E00C9496389C01162F042F1E82FE0191
:10097000359645E04150C9016AE070E00E943F3879
:10098000805D8083C9016AE070E00E943F389B016E
:1009900011506115710559F44150842F992787FD35
:1009A00090954F5FFE013196E80FF91F07C0319710
:1009B000442301F7F1CF415000833197115017FDC7
:1009C00002C01416C4F3242F332727FD3095CE011F
:1009D0000196820F931F74DF2696E4E00C94B238E0
:1009E000DC01FB0123C0822F80538A3010F050E0DD
:1009F00002C0382B51E0822F8154863020F42753D7
:100A0000322B295C51E0822F8156863018F427550D
:100A1000322B07C0552329F4203271F02A3361F0BC
:100A20000EC0992331F03193415049F030E090E00D
:100A300003C03295307F91E02D912223A1F6CF01A2
:100A4000861B970B0895DC01FB0120E090E03AE063
:100A500014C0982F90539A3030F4239F202D1124E6
:100A6000290F91E00AC0803211F08E3269F44423DC
:100A700019F02193415020E090E08D91882349F7AF
:100A8000992311F0411121939F01261B370BC901B6
:100A90000895FC01DB0120E030E014C0842F805376
:100AA0008A3080F4C90163E0880F991F6A95E1F7E5
:100AB000220F331F820F931F242F30E0205330402A
:100AC000280F391F4191442349F72D933C930895F2
:100AD000FB01982F92959F709A3010F4905D01C0A1
:100AE000995C90838F708A3010F4805D01C0895CBE
:100AF000818308959C01F999FECF32BD21BDF89AFA
:100B000080B508959C01F999FECF1FBA32BD21BD71
:100B100060BD0FB6F894FA9AF99A0FBEF999FECF14
:100B200008959C01F999FECF32BD21BDF89A80B598
:100B300008958BE691E0B7DEB2CEA1E0B0E0E3EA43
:100B4000F5E00C9498381982009731F00196BE01B7
:100B50006F5F7F4F41E044DF8981882321F083E389
:100B600090E061E0CFDF10926E00F89428E088E119
:100B700090E00FB6F894A895809360000FBE209384
:100B80006000FFCF019660E071E041E029DF6091F5
:100B9000000160FF02C0289A01C0289884E390E019
:100BA000B1CF0F931F938C0180E090E061E0AADF4A
:100BB00081E090E06CE2A6DFCCDC80E690E060E0D3
:100BC000A1DF81E690E060E09DDF83E390E060E0FC
:100BD00099DF84E390E062E095DF0E94381C80E6B4
:100BE00090E060E08FDF81E690E060E08BDFF8016D
:100BF0008181883719F080E090E09FDF1F910F918D
:100C0000089580E090E08DDF813029F481E090E06C
:100C100088DF8C3219F080E090E0C3DF84E390E05D
:100C200080DF809300010895A6E0B0E0EAE1F6E0FD
:100C30000C9490385C01FC018181893609F091C0E7
:100C400082818D3669F4C5010396BE016F5F7F4FC7
:100C500046E0C6DE26E0D22E92E6E92EF12C6DC0EB
:100C6000843661F4C5010396BE016F5F7F4F11DFCB
:100C7000DD24D39488E6E82EF12C5FC0813669F438
:100C8000C5010396BE016F5F7F4F44E0DCDEB4E038
:100C9000DB2EA9E6EA2EF12C50C08E3669F4C50190
:100CA0000396BE016F5F7F4F44E0CDDEF4E0DF2EA0
:100CB000EDE6EE2EF12C41C0873669F4C5010396AE
:100CC000BE016F5F7F4F44E0BEDE74E0D72E61E768
:100CD000E62EF12C32C0803761F4C5010396BE01C7
:100CE0006F5F7F4FD6DE52E0D52E49E7E42EF12C20
:100CF00024C08E3469F4C5010396BE016F5F7F4F37
:100D000044E0A1DE34E0D32E25E7E22EF12C15C01D
:100D10008F3621F0DD24EE24FF240FC0C501039699
:100D2000BE016F5F7F4F41E05BDE898180935F0F83
:100D3000DD24D3949BE7E92EF12C5E010894A11CDD
:100D4000B11C970109C089010F5F1F4FC901F5014F
:100D500061915F01D7DE9801822F8E198D1598F36E
:100D600041C0C5010196BE016F5F7F4F43E038DE91
:100D7000082F8230B8F12981823019F4C22EDD2487
:100D800007C0922F80E02A81C22EDD24C82AD92AEA
:100D900010E0FE01E00FF11FC6016081B3DE7801B3
:100DA000EE0CFF1C0894E11CF11CEA0CFB1C8601F4
:100DB0000F5F1F4F6E010894C11CD11C0FC0C701EB
:100DC000B60141E00DDE892B69F0C80169819ADE28
:100DD00082E090E0E80EF91E0E5F1F4FF701808160
:100DE000882369F72696EAE00C94AC381F93CF93DA
:100DF000DF93EC0114E01150CE0193DE90E061E04E
:100E000040E2ABDD112311F08EE21FDD21961123AC
:100E100091F7DF91CF911F910895A2E0B0E0E3E157
:100E2000F7E00C949438FC018181893609F03EC0CA
:100E300082818D3689F402E610E036E0F32EFA94D2
:100E4000C8016FDE86DDFF2011F08AE3FEDC0F5F54
:100E50001F4FFF20A1F756C0843619F488E690E0B2
:100E600019C0813619F489E690E00EC08E3619F467
:100E70008DE690E009C0873619F481E790E004C060
:100E80008E3421F485E790E0B1DF3CC08F3629F441
:100E90008BE790E046DE5DDD35C0803799F589E768
:100EA00090E06AE775E012DA60E02AC01B821982DE
:100EB000CF010196BE016F5F7F4F42E091DD298136
:100EC000823041F4922F80E02A81E22EFF24E82A2A
:100ED000F92A02C0E22EFF24C70123DE182F82E583
:100EE000B4DCC70164E040E3F7DC8EE791E0DBDCD3
:100EF000812F2FDD8AE791E0D6DC812F90E062E040
:100F000040E22BDDCCDC2296E6E00C94B038FC010C
:100F10001282108211820895DC0112968C91129730
:100F20008F5F12968C9312978C91FD01E80FF11D43
:100F300063838F5F8C930895DC0112968C911297D6
:100F4000882311F490E00EC0815012968C93129772
:100F500011968C911197FD01E80FF11D93818F5F20
:100F600011968C93892F0895CF93DF93DB01EA01CB
:100F7000322F4881882369F0FB01E40FF11D81E0E5
:100F800090E002C0880F991F2A95E2F72081282B54
:100F90002083332319F0832F815009C0842F8F5F62
:100FA0008C3008F48883A80FB11D1C9287E090E074
:100FB000DF91CF9108951F93182F299A882319F054
:100FC0008091420202C08091400290E034E0880F9C
:100FD000991F3A95E1F72ADC2998112319F080919D
:100FE000430202C08091410290E024E0880F991FE3
:100FF0002A95E1F71BDC1F910895A0E0B0E0E3E043
:10100000F8E00C948B384C01562ED42E122FC02EA3
:10101000209150063091510682E0D80ED09E802D4E
:1010200011249EEFD90E992787FD9095281739072F
:1010300020F482E891E037DC5BC0281B390B309349
:10104000510620935006289A80914A06882309F475
:1010500000DB34DA41E0642E712CA12EBB2410E0B9
:1010600003C080E0A8DF1F5F1515D9F781E0A3DF7B
:101070008401FF2415C0C7E0D0E093010C2E02C00C
:10108000220F331F0A94E2F7F8018081822393DF55
:101090002197FFEFCF3FDF0781F7F3940F5F1F4FDB
:1010A000FD1449F7C7E0D0E00D2D112707FD10957D
:1010B000080D191D0CC093010C2E02C0220F331F06
:1010C0000A94E2F7F8018081822375DF2197AC163C
:1010D000BD068CF38E2DAFDBCA9409F0C0CF809192
:1010E0005206882311F0D6D902C086E386D9289803
:1010F000CDB7DEB7EFE00C94A738A9E1B0E0E3E8A4
:10110000F8E00C948C38FEE0EF2EF12CEC0EFD1E76
:101110000196B7014BE064DC893009F05BC089E1DE
:1011200080934102809340028093420282E3809345
:101130004302C70169E07CD38F8B19821A8207E0D2
:10114000A7E010E0E7E06E2E712C71E0872E912C65
:10115000570162E0C62ED12CCC0EDD1E7E01089414
:10116000E11CF11C01C007E0802F992787FD9095B5
:101170009301281B390BC40102C0880F991F2A95BF
:10118000E2F79C01F501E10FF11D80818223B60198
:10119000A7012A2FE9DEA82F002311F00150E4CF88
:1011A00081E0B601A7012A2FDFDEA82F1F5F1A30CA
:1011B000D0F2882319F0282F215004C089818F5F35
:1011C000898327E0CE0102966CE0498103E05AE072
:1011D000E52E13DF6996EEE00C94A838EF920F939A
:1011E000DF93CF93CDB7DEB760970FB6F894DEBF2D
:1011F0000FBECDBF0196BE016F5F7F4F40E1F0DBB8
:1012000069814A810B818C81809340028D8180931A
:1012100041028E81809342028F8180934302242F6A
:101220002F70E02EE294AFE0EA22CE0108964295BC
:101230004F700F70E2DE60960FB6F894DEBF0FBEFF
:10124000CDBFCF91DF910F91EF900895282F81307E
:1012500089F4299A2091010130910201C901880F76
:10126000991F820F931FE2DA2998809101019091D2
:10127000020130C080910101909102012223F1F41A
:10128000299AD4DA29982091010130910201C901EB
:10129000880F991F820F931FC9DA299A8091010143
:1012A00090910201C3DA2998209101013091020145
:1012B000C901880F991F820F931F1DC0299AB6DAA2
:1012C00029982091010130910201C901880F991FCD
:1012D000820F931FABDA299A20910101309102010C
:1012E000C901880F991F820F931FA0DA2998809156
:1012F0000101909102019ACAAEE0B0E0E2E8F9E0A3
:101300000C9488387C01162F842F2E87B701412F2B
:1013100083D2F701E10FF11D8083A12EA3941982DE
:101320001A824701BB24E7E0B1E02B2E312CA2E06A
:101330004A2E512C4C0E5D1E3E010894611C711CFE
:101340002FC007E010E06701CB0CD11C9101002EEB
:1013500002C0220F331F0A94E2F7D6018C91822338
:10136000B201A3012E2F00DEE82F01501040BFEF85
:101370000F3F1B0759F7D4018D914D01082E82951F
:101380008025082E86958695802590E00196959576
:1013900087958170B201A3012E2FE6DDE82FB3946B
:1013A000BA1478F2EE2319F02E2F215004C089814F
:1013B0008F5F898327E089E1809341028093400217
:1013C00085E28093430280934202CE0102966CE054
:1013D00049810E85EAE0EE2E10DE2E96E2E10C94B5
:1013E000A438ACE0B0E0E7EFF9E00C949438F62EC6
:1013F000E42E01968E010F5F1F4FB8014BE0F0DA2B
:10140000682FC8014F2D2E2D77DF2C96E6E00C9427
:10141000B03866E043E0E5CFCF92DF92EF92FF92E3
:101420001F93CF93DF936C01FC018181843751F4CA
:10143000C601029661E071E02CDB80910101909180
:1014400002010FC0833709F062C0F6018281823742
:1014500061F4C601039663E071E01BDB8091030138
:1014600090E060E040E279DA51C0289A80914A0623
:10147000882309F4EED822D8EE24FF2422C08A81E2
:10148000803311F480E005C0813311F481E001C0A4
:1014900082E0DCDE1F5F21961D3089F7299A80915A
:1014A000010190910201C2D9299810E080910101B7
:1014B00090910201BBD91F5F1F31C1F70894E11C55
:1014C000F11C8091030190E0E816F9061CF4E60196
:1014D00011E0D5CF80915206882319F00E944A026C
:1014E00003C086E30E94FD01289889E6AED983E710
:1014F000ACD9E60111E08A81803319F0813309F01B
:1015000086E4A3D91F5F21961D30A9F7C8D9DF91C2
:10151000CF911F91FF90EF90DF90CF900895ACE3B3
:10152000B0E0E5E9FAE00C94933880914402882316
:1015300009F49FC04A9B8AC08FE30E94E1018F7724
:1015400089838E3110F08DE189832C988FEF0E9472
:10155000DB0110E022E0E22EF12CEC0EFD1E08C0B3
:1015600080E00E94DB01F701E10FF11D80831F5F26
:1015700009811017A8F380E00E94DB01D82E2C9A75
:101580008AE30E94FD0186E30E94FD018DE30E9433
:10159000FD0184E30E94FD010F8F8A8196E7892770
:1015A00088A312E0BE01615E7F4FAE014F5F5F4FC7
:1015B0000FC0DB01A20FB31FFE01E20FF31F8081FA
:1015C0008452240F351FF901908189278C931F5F66
:1015D0008F8D212F30E0181760F3620F731F420FB9
:1015E000531FFA01808199A18927FB018083809193
:1015F000520684FF12C081E628D90F8D10E09FE1CA
:10160000E92EF12CEC0EFD1EF701E10FF11D80819A
:101610001CD91F5F0117C0F72CC081E416D90F8DAC
:1016200010E08FE1E82EF12CEC0EFD1EF701E10F2A
:10163000F11D80818ED91F5F0117C0F7809152067E
:1016400085FF02C08D2D85D92AD913C085E30E945C
:10165000E101813011F0813161F48AE30E94FD01E2
:1016600086E30E94FD018DE30E94FD0184E30E9458
:10167000FD01EC96E7E00C94AF38CF93DF93E89848
:10168000249A2C9A8EE190E0D1D82C988EE190E0AB
:10169000CDD82C9A8DE290E0C9D880E30E94FD015C
:1016A00084E690E0C3D8C9E8D1E0FE01849181349A
:1016B00050F42196FE0164910E94EF012196F1E021
:1016C000CB3BDF0791F783E30E94FD0181E0B3D8B4
:1016D000DF91CF910895ACE3B0E0E1E7FBE00C943B
:1016E00093380196BE01615E7F4F4DE179D9D82EC6
:1016F000282F30E0215030408F8D90E02817390797
:1017000009F05FC080914402882319F4B6DF83E0BA
:1017100092D886E30E94FD018AE30E94FD018BE3DB
:101720000E94FD014F8D498388A196E789278A830E
:10173000DE0112969E012F5D3F4F52E00BC08C914F
:101740008452F90191919F01892711968C931197E9
:101750005F5F1196541798F3E52FF0E07E0108942F
:10176000E11CF11CD701AE0FBF1FEC0FFD1F878DD1
:1017700099A189278C932C988FE70E94DB01870120
:1017800005C0F80181918F010E94DB01802F8E1925
:101790008D15B8F32C9A8AE30E94FD0185E30E941F
:1017A000FD0102C085E047D885E30E94E101813058
:1017B000C9F780914402882319F00E944A0201C0AF
:1017C0004DD7EC96E7E00C94AF38FC0101962181EF
:1017D000223729F452DF81E08093440208952337B1
:1017E00009F479CF109244020895219A29985298C9
:1017F000E9E6F0E080818160808382EC91E0909363
:101800005106809350061092610210927D02109250
:10181000990210924A060895982F06C04150FB0184
:10182000E40FF11D8081980F4423C1F7892F08959B
:10183000AC0120E006C06150FA01E60FF11D808185
:1018400028276623C1F7822F0895A0E0B0E0EBE2DD
:10185000FCE00C949238DC011092CD021092B80298
:1018600097E013968C911397981B11961C911197E2
:10187000110F110F110F190F1092B902FF24EE244E
:1018800007E057E040E070E0E7E0CE2ED12CC1E069
:10189000D0E07FC0FD01EE0DF11D848190E0002EAF
:1018A00002C0959587950A94E2F7282F21700023AE
:1018B00011F0015002C0E39407E06B3469F4533037
:1018C00059F47723B9F5222311F071E062C04093F7
:1018D000B8021092CD021EC05F3F69F56634E1F494
:1018E000E42FF0E0E754FD4F8081082E829580259B
:1018F000082E86958695802590E00196959587958A
:101900008170907030E08217930761F04093B802C5
:101910007093CD0280E057C0653411F06B3411F440
:101920002223A1F34F5FE42FF0E0E754FD4F108234
:1019300057E02FC070E0222359F1663479F4E42F88
:10194000F0E0E754FD4F9E01052E02C0220F331F29
:101950000A94E2F78081822B80831AC0653411F0EB
:101960006B34B1F4E42FF0E0E754FD4F852F992755
:1019700087FD90959601281B390BC9019E0102C075
:10198000220F331F8A95E2F7C9012081282B20837B
:101990005150F3948F2D8150811708F47BCF4093E1
:1019A000B8027093CD021F1508F0B4CF653411F45E
:1019B0005F3F11F0772319F04F5F4093B802809199
:1019C000B802811181E0CDB7DEB7E8E00C94AE3803
:1019D000DC0112968C911297ED91FC911197E80F12
:1019E000F11DE08113962C911397215013962C939F
:1019F00013972F5F39F48F5F12968C93129787E0BD
:101A000013968C938E2F90E002C0959587952A951A
:101A1000E2F781700895A0E0B0E0E1E1FDE00C9410
:101A20008E386C01962E842EFF24C0E0D0E0F1E0C9
:101A3000AF2EB12C062F10E00150104019C0C60186
:101A4000C7DF8823A1F0882059F0C8018C1B9D0BAB
:101A5000950102C0220F331F8A95E2F7C90106C023
:101A6000C50102C0880F991FEA94E2F7F82A21966F
:101A7000EC2EC91520F38F2DCDB7DEB7ECE00C941A
:101A8000AA38A4E0B0E0E7E4FDE00C949038FC0153
:101A900087E08C833496FA83E98334971092B802F6
:101AA000818190E023E0880F991F2A95E1F7238137
:101AB000821B9109CE970CF45AC01B82CC24DD24E2
:101AC0005E010894A11CB11C2EC0ED2CFF24C501A1
:101AD00068E040E0A0DF082F89EB92E0E80EF91EF5
:101AE000F7010083002E02950025002E069506952D
:101AF0000025C5016DDF10E00F5F1F4F159507959D
:101B00000170107090E00817190731F4C50160DF0B
:101B10009D2D9F5F882319F0D092B80228C0F7014D
:101B20008081C826D92EF5E0FD1578F6D092B8024E
:101B3000C50168E040E06FDFF82E082F002E029507
:101B40000025002E069506950025C50141DF10E011
:101B50000F5F1F4F159507950170107090E00817E3
:101B6000190729F480E0CF1419F481E001C080E066
:101B70002496EAE00C94AC38A4E0B0E0E2ECFDE09E
:101B80000C949038FC011B8287E08C833496FA8396
:101B9000E98334971092B8028081853009F053C0F0
:101BA000818190E043E0880F991F4A95E1F72381F6
:101BB000821B91098938910509F045C019E83FE079
:101BC000C32E30EFD32E80E05E010894A11CB11C1F
:101BD00010C0C50168E041E01EDFC80ED11C29EB32
:101BE00032E0E20EF31E1827F7011083182F1C5D58
:101BF000802FE82EFF24082F0F5F8F3050F3C50190
:101C000068E041E008DF182F29EB32E0E20EF31E16
:101C10008095F70180830093B802C50168E041E038
:101C2000FADE082FC10ED11CC50168E041E0F3DEE9
:101C300040E0302F20E0C21AD30A90E0C816D9063F
:101C400019F441E001C040E0842F2496EAE00C94AE
:101C5000AC38EF92FF921F93DF93CF9300D000D068
:101C6000CDB7DEB7FC013496FA83E98334978181DE
:101C70008430B9F587E08C838381813091F51B82B4
:101C800010E07E010894E11CF11C12C0112331F414
:101C9000C70167E041E0BFDE806804C0C70168E0BB
:101CA00041E0B9DEE12FF0E0E754FD4F80831F5F94
:101CB000143060F3CE01019667E041E0ACDEE12F25
:101CC000F0E0E754FD4F880F80831F5F1093B80248
:101CD00090E08091B90282958F708A3019F491E07A
:101CE00001C090E0892F0F900F900F900F90CF912F
:101CF000DF911F91FF90EF900895FC018181A82F43
:101D0000B0E050E0E081CD01841B950B0B96479726
:101D1000D8F48E2F90E070E09C01261B370B2C30FE
:101D2000310594F4255F3F4F7CF08A0F9B1F861B83
:101D3000970B841B950B8C30910534F420E0855F64
:101D40009F4F1CF021E001C020E0822F0895282F32
:101D500030E0C901880F991F820F931F860F911DD4
:101D600095958795959587950895DC0111968C91A9
:101D70001197843190F010926F008091B50290E03D
:101D80002CE130E0829FF001839FF00D929FF00DD7
:101D90001124EB5BFD4F10820895662381F0FD0155
:101DA000E80FF11D81E090E013960C90139702C0AC
:101DB000880F991F0A94E2F72481282B2483139615
:101DC0008C911397815013968C9313978F5F79F4AE
:101DD00087E013968C93139711968C9111978F5FD0
:101DE00011968C931197A80FB11D14961C9208950B
:101DF0001F920F920FB60F921124EF92FF920F9342
:101E00001F932F933F934F935F936F937F938F9382
:101E10009F93AF93BF93CF93DF93EF93FF93809103
:101E20008308882321F082E08093830806C1809193
:101E30005F08823021F483E080935F08FEC08091C8
:101E4000840090918500E4E096958795EA95E1F706
:101E5000182FE090B5028CE1E89EE0011124CB5BE5
:101E6000DD4F9881943031F41E3208F4E6C01F34FF
:101E700048F0D3C0953031F4173108F4DEC0183281
:101E800008F0CBC0892F84504A990CC0823038F4B6
:101E9000CE0161E06ADF10928500109284001093F9
:101EA000E702CBC00091E702F12EF01AF092E802AF
:101EB0001092850010928400823020F4CE0160E000
:101EC00054DFBBC082E086BB992371F4053608F06D
:101ED000B4C084E68F1508F4B0C0088FF98E81E095
:101EE0008A8382E08883A9C0923009F070C0CE0155
:101EF0004896602F4F2D01DF1A81882359F0888D75
:101F0000602F25DF888F898D6F2D21DF898F1F5FDF
:101F10001A8393C0143008F458C080EA9FE090936D
:101F20008900809388001C3050F0298D888D90E0C6
:101F3000820F911D8536910514F084E03BC01A3064
:101F400080F0298D888D90E0820F911D85974CF44B
:101F500085E0888388EE93E09093890080938800E1
:101F60002AC080915806882321F1802F855287311D
:101F700000F589E08F15E8F486E28F15D0F080E057
:101F8000F01608F081E08823A1F4298D988D822F26
:101F90008552873170F49A3060F0973250F480E0C7
:101FA000921708F081E091E0891719F090935F088B
:101FB00034C083E088830A8FFB8E198287E08B838D
:101FC0001C8282E080936F0038C018827FCFCE01E0
:101FD0004A96602F4F2D91DE882361F0CE0161E09B
:101FE000C4DE8A8D602FB3DE8A8F8B8D6F2DAFDEBE
:101FF0008B8F23C0CE014896602F4F2D7EDE882325
:1020000061F0CE0160E0B1DE888D602FA0DE888FA8
:10201000898D6F2D9CDE898F10C010926F002E2D40
:1020200030E08CE190E0289FF001299FF00D389F6F
:10203000F00D1124EB5BFD4F1082FF91EF91DF91CA
:10204000CF91BF91AF919F918F917F916F915F9150
:102050004F913F912F911F910F91FF90EF900F9013
:102060000FBE0F901F9018958091B50290E02CE163
:1020700030E0829FF001839FF00D929FF00D1124BC
:10208000EB5BFD4F8081811181E008951F920F92DB
:102090000FB60F9211242F933F934F935F936F933B
:1020A0007F938F939F93AF93BF93EF93FF93109280
:1020B0006F008091520683FF03C08EE20E942504C8
:1020C0004091B502242F30E08CE190E0289FF00190
:1020D000299FF00D389FF00D1124EB5BFD4F80819F
:1020E000833018F08181823028F410926F008CE1E7
:1020F00090E013C08091B7028330D1F480915206F2
:1021000082FF04C08BEB91E00E94530410926F0099
:102110008091B50290E02CE130E0829FF001839F36
:10212000F00D929FF00D1124EB5BFD4F10820BC060
:102130008F5F8093B702842F8F5F8093B5028430C6
:1021400011F41092B502FF91EF91BF91AF919F9161
:102150008F917F916F915F914F913F912F910F9050
:102160000FBE0F901F9018950F931F93CF93DF937F
:102170008091E8028823B9F18091520687FF17C049
:1021800084E30E94E1018058803410F480E00CC0A8
:10219000803C10F08FE008C090E08055904003E054
:1021A000959587950A95E1F78F590E9425048091AE
:1021B000520683FF16C082E70E94250480915206D2
:1021C00084FF04C08091E7020E94250486E60E94F5
:1021D00025048091520684FF04C08091E8020E9489
:1021E00025041092E8028091B702882309F431C2D5
:1021F000289A9091B6028CE1989FE0011124CB5B64
:10220000DD4FCE01B9DC882311F003E5B6C0CE0165
:1022100066E41BDB882309F4F3C14091B802415006
:102220004093B802942F56E007C09150E92FF0E098
:10223000E754FD4F8081580F9923B9F7E42FF0E060
:10224000E754FD4F6081561759F0852F90E00196B5
:10225000262F30E08217930711F09CE00AC05083CC
:1022600006E48BC04150E42FF0E0E754FD4F80813D
:10227000980F4423B9F7961709F0C2C1BFC18091E6
:10228000B80281508093B802893009F0BFC199E04B
:1022900020E09150E92FF0E0E754FD4F808128279E
:1022A0009923B9F78091C202281709F0AFC105E45C
:1022B00064C04091B80241504093B8026091CD0291
:1022C000342F50E095E020E014C03150E32FF0E0CF
:1022D000E754FD4FE0818E2F82958F702827980F4D
:1022E000662311F0552321F08E2F8F702827980F29
:1022F0005F5F332351F7920F9295907F922BE42FDB
:10230000F0E0E61BF109E754FD4F8081981761F07A
:102310008B818F5F8B838150873009F095C11B8241
:1023200089818150898390C10BE427C08B818430DF
:1023300009F0D8C0CE0148966CE34EE1DEDC88237C
:1023400009F4D0C0C8016091E7024EE1D6DC682FE5
:10235000CE010BDD8C818093B9028D818093BA020E
:102360008E818093BB028F818093BC02888580938D
:10237000BD0285E08093B80202E580915206782F75
:1023800080FFB1C081FF02C020E059C04091CE0261
:102390006091B802461781F51092CE0220E00EC07F
:1023A000E22FF0E0322F3F5FDF01A754BD4FE15332
:1023B000FD4F90818C91981719F4232F241780F3E7
:1023C0002617D1F480914C0690914D06A0914E06AF
:1023D000B0914F062091E3023091E4024091E50272
:1023E0005091E602821B930BA40BB50B8697A105B7
:1023F000B10510F421E001C020E01092CE0290E07F
:102400000AC0E92FF0E0DF01A754BD4F8C91E153E2
:10241000FD4F80839F5F9617A0F39093CE0280912B
:102420004C0690914D06A0914E06B0914F068093B8
:10243000E3029093E402A093E502B093E602043530
:10244000D1F476FD18C08091BB028B3409F44BC0E7
:10245000893609F448C0833509F445C0843509F448
:1024600042C08D3709F43FC08E37E9F18091BC023C
:1024700080778037C1F12223B1F5802F0E94250497
:102480008091CD02882329F08091B80281508093F9
:10249000B80210E008C0E12FF0E0E754FD4F808162
:1024A0000E94A9041F5FE091B8021E17A0F380915B
:1024B000CD02882359F0F0E0E754FD4F808190E091
:1024C0008F70907061E040E30E946C04809152062E
:1024D00085FF05C084E30E94E1010E94A9040E94D7
:1024E0004F0401C000E08091520682FF6DC080E77A
:1024F0000E942504888190E062E040E20E94AD04E1
:10250000888D90E014E0880F991F1A95E1F765E037
:1025100040E20E94AD04898D90E0B4E0880F991FDD
:10252000BA95E1F765E040E20E94AD048A8D90E043
:10253000A4E0880F991FAA95E1F765E040E20E94A8
:10254000AD048B8D90E0F4E0880F991FFA95E1F7C8
:1025500065E040E20E94AD048A8190E063E040E2E1
:102560000E94AD04898190E063E040E20E94AD04E6
:102570002B8187E090E0821B910962E040E20E949B
:10258000AD0480E20E9425048091520685FF08C0B8
:1025900084E30E94E1010E94A90480E20E942504D4
:1025A0008B81873019F089818F5F898310E007C0A4
:1025B000FE01E10FF11D84810E94A9041F5F898142
:1025C0001817B0F30E944F0418828091B70281500F
:1025D0008093B7028091B6028F5F8093B6028430F9
:1025E00011F41092B6022898043599F58091B8023A
:1025F000853079F589EB92E000D32BC004E5BDCEA0
:10260000CE0165E422D9882309F039CECE0139DA2A
:10261000882311F008E4B1CECE011BDB882311F032
:1026200004E7ABCE8E01065E1F4FC8016091E70242
:102630004B8D63DB682FCE0198DBCE016BE405D9AF
:10264000882309F465CE35CE8981843009F04ACFDC
:102650006DCEDF91CF911F910F9108958091520619
:10266000882321F00E9429030C944A020C9405024D
:10267000FC018181882371F4809152060E94A90493
:10268000809150069091510665E040E20E94AD04B1
:102690000C944F04CF01019662E576E041E00E9480
:1026A000F004DCCFA1E0B0E0E8E5F3E10C9496386B
:1026B00080915F08882309F47DC010914C06833017
:1026C00009F060C08FE30E94E101182F863010F4FA
:1026D00000E018C087E89AE00E9487072C988FEFE7
:1026E0000E94DB0180E00E94DB01082F08C080E02F
:1026F0000E94DB01682F87E89AE00E948C07115046
:10270000B1F72C9AABDF10925F08053709F052C081
:102710008AE89AE0BE016F5F7F4F41E00E94F004BB
:10272000019759F5998180915806981731F5809154
:102730008E0A853539F00DC087E89AE00E949C0723
:102740000E9425048091890A8823B1F70E944F04D2
:1027500031C08091890A84508093890A84E08093F3
:10276000880A87E89AE06AE00E948C07E0914806B0
:10277000F091490688E009951DC087E89AE00E941B
:10278000870718C0823049F480915706181B18300B
:1027900088F064DF10925F080DC0813059F487E340
:1027A00090E00E94CE020E944A0282E080935F087D
:1027B000109357062196E4E00C94B23829980C94B3
:1027C0001604299A0C941604A7E0B0E0EAEEF3E1AF
:1027D0000C949338282F80916106843551F48091B0
:1027E0006208909163080196909363088093620851
:1027F00039C0863451F48091600890916108019647
:1028000090936108809360082DC0853451F48091C5
:10281000550690915606019690935606809355065C
:1028200021C08B3451F4809165089091660801961F
:10283000909366088093650815C0883451F48091A0
:1028400067089091680801969093680880936708DC
:1028500009C08091530690915406019690935406B6
:102860008093530685E78983222319F4DD24D394CA
:1028700012C080916908BE016E5F7F4F0E9468059B
:1028800080915806BE016C5F7F4F0E94680585E508
:102890008E8386E0D82E0E9429030E945E0210E0FB
:1028A00080E891E08EDF80E093E088DF1F5F1630E4
:1028B000B9F780E093E085DF80E891E07FDF80E892
:1028C00091E07FDF299887E390E00E94CE0283E0C9
:1028D0000E941B042C988FE70E94DB0180915B060D
:1028E0008D0D0E94DB017E010894E11CF11C870123
:1028F000F80181918F010E94DB01802F8E198D15C7
:10290000B8F306C089E596E00E949C070E94DB01AF
:1029100080915B068823B1F72C9A0E945E0214E135
:1029200004C0115081E00E941B048AE30E94E1016F
:1029300090E08F779070892B11F0112391F78EDE44
:102940002796E7E00C94AF388FDB882361F083E0B3
:102950008093640880915C0890915D080196909343
:102960005D0880935C0880916408815080936408BE
:10297000882321F083E080935E08089581E024CFCE
:10298000CF93DF93EC018981882339F48091580635
:102990000E94A904809169080FC0843681F4809157
:1029A0004C0690914D0664E040E30E946C048EE278
:1029B0000E94250480915E080E94A9044DC08337BF
:1029C00009F04DC0809162089091630861E040E396
:1029D0000E946C048EE20E94250480916008909110
:1029E000610861E040E30E946C048EE20E942504CD
:1029F000809155069091560661E040E30E946C0478
:102A00008EE20E942504809165089091660861E03D
:102A100040E30E946C048EE20E94250480916708C6
:102A20009091680861E040E30E946C048EE20E948D
:102A30002504809153069091540661E040E30E9482
:102A40006C048EE20E94250480915C0890915D08E0
:102A500061E040E30E946C040E944F042CC0893660
:102A6000D9F4CE01029668E576E041E00E94F004D8
:102A700080E690E0609158060E948205CE0104969F
:102A800069E678E041E00E94F00481E690E0609120
:102A900069080E9482050FC089E596E00E948707B9
:102AA00004C089E596E00E948C0721966881662320
:102AB000C1F780E089DEDF91CF91089580E690E054
:102AC0000E9491058093580681E690E00E9491054E
:102AD00080936908882321F081E280935206BECD5D
:102AE0000895DC01E1EFF2E00EC0109751F0918102
:102AF0008C91981731F4928111968C9111979817B7
:102B0000A1F0E20FF11D2081222321F083E0EF39B3
:102B1000F80758F383E0EF39F80719F010F0EFE900
:102B2000F3E0AB2B11F0E0E0F0E0CF010895CF939C
:102B3000DF93EC01D6DFFC01009779F090919F03C1
:102B40008081981750F4E90FF11D80818A8389E70D
:102B50008B8381818C8381E001C080E0DF91CF9104
:102B600008950F931F93CF93DF938C0180915206AA
:102B700086FF18C084E50E942504C0E0D0E0F8017B
:102B8000EC0FFD1F80810E94A9042196C530D1055C
:102B9000B1F78091520685FF03C08AEF0E94A90415
:102BA0000E944F04DF91CF911F910F91089586E30A
:102BB0000E94FD018091EC02833511F08BE401C08D
:102BC0008BE90E941B048AEE92E065E04CE021E074
:102BD0000E947C090E944A028AEE92E0C2CFE7DF9F
:102BE0008091EC02893641F091E090936B0889E284
:102BF000809382089093F00208951F93FC01408116
:102C0000318112819381248110926B0850916A085E
:102C1000552329F480918108882309F4BCC0809150
:102C2000EA02841721F48091EB02831759F0109285
:102C30006D081092E90283E080939F034093EA02BB
:102C40003093EB0280916D088F3F09F4A4C010937C
:102C5000EC029093ED022093EE021123E1F0882321
:102C6000D1F4251761F0243651F0812F835582303D
:102C700010F01D3721F48FEF80936D088CC0143550
:102C800009F489C0892F807F803609F084C090675D
:102C90009093ED027FC08AEE92E049DF882329F409
:102CA00080916D08882309F476C09091E9029923F8
:102CB00011F0892F06C0E0916D08F0E0EE53FE4F51
:102CC0008491833541F4143531F480916D088E5F21
:102CD00080936D080AC0811741F010926D08109220
:102CE000E90283E080939F0356C0992379F0809195
:102CF0009F038E5F80939F038AEE92E018DF882304
:102D000071F480916D088E5F80936D0890916D08CD
:102D1000E92FF0E0ED53FE4F14911F3F59F48091DD
:102D2000EC028093E9028436A9F580916C088093C7
:102D3000EE0230C01093EC0287E78093ED028091A1
:102D40006A088093EE02892F8E5F80936D0810923F
:102D5000E9028E30E9F48AEE92E0C3DEFC010097CE
:102D600081F0808190E02FE933E0281B390BDF01EF
:102D7000A80FB91F02C08D918193E217F307D8F312
:102D8000108210926D081092E90283E080939F03F5
:102D9000112309F024DF1F9108958091F002882308
:102DA00069F005DF81E080936B0889E280938208F7
:102DB0008091F00281508093F002089510926D0886
:102DC0001092E90283E080939F030895A6E0B0E0AB
:102DD000ECEEF6E10C9492384091810880916E08F7
:102DE000882341F0833019F08DE790E015C087E724
:102DF00091E012C0842F90E0877090702DE730E052
:102E0000BC01629FC001639F900D729F900D1124C1
:102E1000825B9F48959587959093700880936F0883
:102E20004A831B8201E718E0FF246E010894C11C4D
:102E3000D11C8CE2E82EF80190819F3FB1F0809187
:102E40006A088F0D898380916E08882311F0EC82C7
:102E500003C09C83F80181818D83C60165E04CE04D
:102E600021E00E947C09C6017CDEF3940E5F1F4FB7
:102E7000F8E0FF1601F780916E08882341F0833057
:102E800019F410926E0803C0825080936E08269643
:102E9000E8E00C94AE3885E390E00E9491058093C1
:102EA0006A0886E390E00E94910580938108E1E73B
:102EB000F8E08FEF8083329698E0E138F907D1F798
:102EC00010926D081092E90283E080939F031092A4
:102ED000F10208956F927F929F92AF92BF92CF922C
:102EE000DF92EF92FF920F931F93DF93CF9300D067
:102EF00000D000D0CDB7DEB73C017C010894E11CC6
:102F0000F11CC701BE016F5F7F4F45E00E94F004D6
:102F1000E981843008F09FC0E130A9F4833061F486
:102F200085E390E06A810E94820586E390E06B81F0
:102F30000E948205B0DF15C180916A080E94A90431
:102F40008091810883C0E23009F03FC08091F10296
:102F5000882321F48AED91E00E94530401EF12E0EE
:102F60002AC082E0013F180719F080E20E94250480
:102F7000F80181810E94A904F80182810E94A904BC
:102F80008AE30E94250453E0F52E0FC0F3E0FF15FD
:102F900028F4F0FE03C08CE20E942504F801EF0D36
:102FA000F11DF39480810E94A904F8018081F81634
:102FB00068F3080F111DF8018081882309F448C0C7
:102FC000F3E00F391F0768F243C0E33049F480E0B3
:102FD00090E087DD21EF32E02255281B822F36C09A
:102FE000E03149F501E718E0EE24FF24F801808183
:102FF0008F3FA1F0EE2019F080E20E9425048F2D72
:103000000E94A9048AE30E942504F80180810E949D
:10301000A904F80181810E94A904E3940E5F1F4F67
:10302000F394F8E0FF1611F7EE2091F486ED91E0AD
:103030000E9453040DC0E13159F480916F089091C2
:1030400070086DE770E00E943F38862F0E94A90447
:103050000E944F0486C080916A08E817D0F1482F7B
:1030600050E0F0E0CA0107968E179F0794F19A810D
:1030700080918108981769F58C818F3231F4C301F2
:103080006CE042E00E94F1096CC02D818C32C1F4E9
:1030900020936E0881E090E09093700880936F0811
:1030A00030E0220F331F220F331F80915006909182
:1030B0005106820F931F909351068093500651C082
:1030C000E41BF50BEE0FF0E0EF58F74F8083218300
:1030D00048C080E090E005DD8C01D7010D90002014
:1030E000E9F71197AE19BF09B695A7959A2E939453
:1030F000890D911D815F92408F3A910574F5F80119
:1031000090827801DD24D394CC24C3941BC0570152
:103110000894A11CB11CC3018C0D911DB50141E0A7
:103120000E94F004F2E0FD1548F4D0FC07C0F7015E
:103130008081843619F4818180936C08F2E0CF0E8F
:10314000D3947501D91418F383E00F39180748F4A4
:103150000D0D111DF801108204C080ED91E00E9458
:10316000530426960FB6F894DEBF0FBECDBFCF91A5
:10317000DF911F910F91FF90EF90DF90CF90BF9064
:10318000AF909F907F906F900895A0E0B2E0EBEC3D
:10319000F8E10C94943880918308882309F44BC09B
:1031A0008130B1F49091A00380914C06981709F4F6
:1031B00042C085E30E94E101813129F48AE30E9443
:1031C000FD010E944A0280914C068093A00333C007
:1031D0008FE30E94E101082F2C988FEF0E94DB0102
:1031E00010E07E010894E11CF11C08C080E00E9400
:1031F000DB01F701E10FF11D80831F5F1017B0F3B2
:103200002C9A81E080933F0210E07E010894E11C3B
:10321000F11C07C0F701E10FF11D80810E94250418
:103220001F5F1017B8F30E944F048FEF80933F0287
:1032300081E080938308C050DE4FE6E00C94B03804
:103240000F931F93CF93DF93EC01DC010D900020CF
:10325000E9F71197A81BB90B8981823751F487E3ED
:1032600090E00E94CE020E944A0281E0809383088F
:1032700029C0833729F50A2F2C988FE70E94DB019C
:10328000802F82500E94DB0112E004C089810E94DD
:10329000DB011F5F21961017C8F32C9A0E945E0273
:1032A00004C084E690E00E9416048AE30E94E101D3
:1032B00090E08F779070892BA1F70E944A0202C09C
:1032C00010928308DF91CF911F910F910895CF93B2
:1032D000DF9382E40E942504C091CB0FD091CC0FE4
:1032E000CE0165E040E20E94AD040E944F0483E5F8
:1032F0000E942504809138029091390265E040E2F5
:103300000E94AD040E944F0485E40E942504809130
:103310003A0290913B0265E040E20E94AD040E94B7
:103320004F0486E40E942504209721F4C0913802BE
:10333000D091390220913A0230913B02211531059A
:1033400041F42DB73EB78091360290913702281B89
:10335000390BC217D30718F080E090E003C0C90111
:103360008C1B9D0B65E040E20E94AD040E944F045F
:10337000DF91CF9108959C0197FF04C082E0809374
:10338000C0003F773093C5002093C40088E9809344
:10339000C10086E08093C2000895E0914806F09154
:1033A000490681E009958091C10085FD09C08091A1
:1033B0008608882329F08091C10080628093C10033
:1033C00008951F920F920FB60F9211242F933F93DF
:1033D0004F935F936F937F938F939F93AF93BF931D
:1033E000EF93FF9385B191E0892785B96091C6007D
:1033F0008091C000887121F487E89AE00E948C07D0
:10340000FF91EF91BF91AF919F918F917F916F91BC
:103410005F914F913F912F910F900FBE0F901F9092
:1034200018951F920F920FB60F9211242F933F936E
:103430004F935F936F937F938F939F93AF93BF93BC
:10344000EF93FF9380918608882339F084E898E011
:103450000E949C078093C60005C08091C1008F7DAB
:103460008093C100FF91EF91BF91AF919F918F9198
:103470007F916F915F914F913F912F910F900FBE70
:103480000F901F9018950F931F93CF93DF93EC012C
:1034900000E0802F90E09C01220F331F280F391F7E
:1034A000F901E458FF4F1491F901E358FF4F2591BA
:1034B0003491112399F0209739F480E20E94250479
:1034C000812F0E94250408C08881811729F4CE012C
:1034D000F901099581E003C00F5FDBCF80E0DF9148
:1034E000CF911F910F9108951F9310913F028093E8
:1034F0003F0234C087E89AE00E949C07982F8A30E8
:1035000011F08D3009F5E091A103EE2339F1F0E0DF
:10351000EE55FC4F108282EA93E0B5DF882389F4F0
:1035200086EF91E00E94530482EA93E00E946004D7
:103530008EED91E00E94530480E090E0A4DF0E94B1
:103540004F041092A1030AC08091A103E82FF0E07C
:10355000EE55FC4F90838F5F8093A1038091890A81
:10356000882341F610933F021F9108958091AA0588
:10357000823029F00E94BA2C8093AA050895E09128
:10358000A10CF091A20C309759F08091A00C81FF12
:1035900007C08481958180509B4711F40C94DB2FE8
:1035A0000895E091A50CF091A60C248135818091BD
:1035B000920C9091930C2817390709F4C9C2089509
:1035C000DF92EF92FF920F931F93FC018B016081BA
:1035D000F180E280D380C8010E948205C801019673
:1035E0006F2D0E948205C80102966E2D0E948205F1
:1035F000C80103966D2D0E9482051F910F91FF90C7
:10360000EF90DF90089586E794E004D638D30C94C9
:1036100037308F929F92AF92BF92CF92DF92EF920C
:10362000FF920F931F938B015C01CB010E949105C8
:10363000882E68010894C11CD11CC6010E94910506
:10364000E82EC8010E949105982EC6010E9491059E
:10365000392D20E0232F3327982D80E0FF248E2959
:103660009F29982F8827282B392BF5013183208318
:1036700062E0C62ED12CC00ED11EC6010E9491055B
:10368000982E0D5F1F4FC8010E949105E82EC601BC
:103690000E949105D82EC8010E9491053D2D20E081
:1036A000232F3327992D80E0FF248E299F29982FDF
:1036B0008827282B392BF501338322831F910F9103
:1036C000FF90EF90DF90CF90BF90AF909F908F9042
:1036D0000895A4E0B0E0EFE6FBE10C9496388E018B
:1036E0000F5F1F4FC80169E670E093DF89819A81FF
:1036F0009093CA0D8093C90D8B819C819093CC0DC2
:103700008093CB0DC80161E770E083DF89819A81E6
:103710009093C20D8093C10D8B819C819093C40DB9
:103720008093C30DC8016DE670E073DF89819A81D3
:103730009093C60D8093C50D8B819C819093C80D8D
:103740008093C70D60DF2496E4E00C94B238CF93E9
:10375000DF93EC01009711F4BCDF37C0469669E6B1
:1037600070E02EDF8E899F899093CA0D8093C90DDA
:10377000888D998D9093CC0D8093CB0DCE01829640
:1037800061E770E01DDF8AA19BA19093C20D809339
:10379000C10D8CA19DA19093C40D8093C30DCE014A
:1037A0004A966DE670E00CDF8A8D9B8D9093C60D76
:1037B0008093C50D8C8D9D8D9093C80D8093C70D02
:1037C000EB81FC81158214821EDFDF91CF91089579
:1037D000F8D48EE89CE00E94492B892B39F18EE8C1
:1037E0009CE00E943F2B87EA9CE09093A60C80937C
:1037F000A50C82E0F0D58091980C9091990C892BC2
:1038000019F00E940E2AFFD38FE29FE09093A20C42
:103810008093A10C85E0DFD58091980C9091990C54
:10382000892B19F00E940E2AEED3ADD38AE89CE0D2
:103830000E94492B892B31F08AE89CE00E943F2BA3
:103840000C94122B08951F93CF93DF93EC0116E095
:10385000115088810E94A904112319F08AE30E9463
:10386000250421961123A1F7DF91CF911F9108958F
:10387000A5E1B0E0EEE3FCE10C94943889E68A839C
:1038800084E68B83F4E0EF2EF12CEC0EFD1EC701D5
:1038900069E372E00E943B018E010F5F1F4FC80178
:1038A0000E94140681E68B83C7016BE272E00E94DE
:1038B0003B01C8010E9414068EE68B83C7016DE1AF
:1038C00072E00E943B01C8010E94140687E68B83C8
:1038D000C70161E172E00E943B01C8010E94140629
:1038E00080E78B83C7016CE072E00E943B01C80156
:1038F0000E9414068EE48B83C70164E072E00E948C
:103900003B01C8010E9414068FE68B83C70161E06A
:1039100072E00E943B01C8010E9414068DE68B8371
:10392000C7016AEF71E00E943B0100E010E0E0E0B7
:10393000F0E091E2909357008491080F111D3196A9
:10394000E032F105B9F780E0BE01665F7F4F0E946B
:103950006805812FBE01645F7F4F0E946805802F3C
:10396000BE01625F7F4F0E946805188ACE010196F2
:103970000E9414066596E6E00C94B038549A5C9860
:1039800088EC0E941B045C9A88EC0E941B0406D3FE
:1039900082E690E00E9491058093A40583E690E082
:1039A0000E9491058093A50584E690E00E94910510
:1039B0008093A60585E690E00E9491058093A70577
:1039C00086E690E00E9491058093A80587E690E046
:1039D0000E9491058093A90584EA95E0E1D2809147
:1039E000A4058093AC058091A5058093AD058091D9
:1039F000A6058093AE058091A7058093AF058091C1
:103A0000A8058093B0058091A9058093B10595D450
:103A100010924506109244068EE89CE06FE170E03B
:103A20000E94602B8AE89CE062EE74E00E94602BAA
:103A300088E690E00E949105882351F086EA94E0A0
:103A4000E9D384EA95E00E946E2B1092AA050895AE
:103A500082E08093AA053DCE1F93CF93DF93FC01B4
:103A60008181893611F48ADF2CC08336C9F4C9EC10
:103A7000DDE014E01150888190E061E040E20E94B6
:103A8000AD04112319F08EE20E9425042196112322
:103A900089F780E20E9425048CEA95E0D4DE0AC012
:103AA000843659F48091A3058F5F83708093A305BA
:103AB0000E94A9040E944F0404C08E3611F40E9493
:103AC0000630DF91CF911F9108959C01F999FECFA7
:103AD00032BD21BDF89A80B508959091C40C9A3FEB
:103AE00040F4E92FF0E0E955F34F868F9F5F909304
:103AF000C40C0895E091A50CF091A60C82E0848F8F
:103B000008951F93CF93DF93C091A50CD091A60C7D
:103B100017C08D8D8A3F49F482E05DD40E940E2A41
:103B200072D282E00E941B0453DE1D8D84E898E06F
:103B30000E949C07FE01E10FF11D868F1F5F1D8F04
:103B400080918608882329F7DF91CF911F910895EE
:103B50000F931F93CF93DF93E091A50CF091A60CE8
:103B60004091A00C242F30E046FF13C0158E81E059
:103B7000848F8091940C9091950C01969093950C64
:103B80008093940C019729F480913F028460809384
:103B90003F02848D8230B9F481E0848F80E180938C
:103BA000A00C8091940C9091950C01979093950C9A
:103BB0008093940C892B09F059C080913F028B7F30
:103BC00080933F0253C0C90180739070892B11F418
:103BD00047FF02C0158E148E21FF1FC0C091980CA4
:103BE000D091990C2097C9F00091A30C1091A40CCE
:103BF00081E89DE1909347068093460687E89AE026
:103C0000F80161918F010E948C072197B9F7E0912B
:103C10004806F091490684E009958091A00C282F70
:103C200030E082FD09C0C90183709070892B21F4B6
:103C300028743070232BD1F0C091A50CD091A60C24
:103C40004D8D442399F09E01225E3F4F8091A30C3D
:103C50009091A40CB90150E00E944F016D8D8091AC
:103C6000A30C9091A40C70E0A0D31D8EDF91CF9196
:103C70001F910F91089565E67DE10C94660189E737
:103C800090E0F9DF492F50E0382F20E0422B532BF2
:103C90005093930C4093920CCA015DD31092950CF3
:103CA0001092940C0895FF920F931F93182FF62EE5
:103CB000042F282F30E0C9018F7190704B977CF44E
:103CC0002076307085E0359527958A95E1F78091CB
:103CD000AB0590E02817390711F0822F0ED0149809
:103CE0001F71802F812B0E947C308F2D0E947C3091
:103CF000149A1F910F91FF9008951F93182F8FE131
:103D000063E040EAD0DF612F63708FE140E8CBDFF2
:103D10001093AB051F9108951F93182F14988AE7ED
:103D20000E947C30812F0E947C30149A1F9108954C
:103D30000F931F93182F062F282F30E0C9018F7182
:103D400090704B977CF42076307095E035952795F0
:103D50009A95E1F78091AB0590E02817390711F0AB
:103D6000822FCBDF14981F71812F80640E947C30DA
:103D7000802F0E947C30149A1F910F9108951F93F9
:103D8000682F192F82E0D4DF83E0612FD1DF1F91EC
:103D900008951F93682F192F80E0CADF81E0612FFB
:103DA000C7DF1F91089514988AE30E947C3080E059
:103DB0000E947C30149A08951F93182F282F30E00A
:103DC000C9018F7190704B977CF42076307045E07C
:103DD000359527954A95E1F78091AB0590E0281736
:103DE000390711F0822F89DF1498812F8F710E947B
:103DF0007C3080E00E947C3017FF03C080E00E948E
:103E00007C30149A1F9108950F931F93982F162FAB
:103E1000072F84ED692F8CDF86ED612F89DF87ED19
:103E2000602F86DF8AEEC8DF80FDFCCF1F910F91E7
:103E300008950F931F93682F84ED7ADF82ED61E080
:103E400040E831DF8AEEB8DF80FDFCCF82ED61E033
:103E500040EA29DF88EDB0DF082F89EDADDF382F8C
:103E600020E010E0022B132BC8011F910F91089541
:103E700014988FEF0E947C308DE19EDF80FFFCCF95
:103E8000149A08950C9A149AF3DF88E060E050DFEA
:103E900089E060E04DDF8AE06FEF4ADF8BE06FE0A2
:103EA00047DF84E060E044DF85E060E141DF8CE0F3
:103EB00060E03EDF8DE060E03BDF8EE060E038DF19
:103EC0008FE060E035DF1092970C1092960C81EC39
:103ED00060E840EAE8DE80EC6DE040E8E4DE82EC99
:103EE00062E340E8E0DE80E060E070E08DDF80E0EB
:103EF000A0DF90FF07C082EC61E040E8D4DE84ECF4
:103F000062E106C082EC61E040EACDDE84EC65E16E
:103F10000FDF86EC62E10CDF87EC6CE009DF8AECF6
:103F200060EE06DF8BEC65E003DF84EE6091AC05AC
:103F3000FFDE85EE6091AD05FBDE82EE6091AE05A1
:103F4000F7DE83EE6091AF05F3DE80EE6091B005A1
:103F5000EFDE81EE6091B105EBDE88E363E8E8DE39
:103F600084E162E17CE050DF8BE16BEDE1DE82E138
:103F700062E170E049DF8FE164E040E894DE8EE1C9
:103F800060E840E890CE82EC17DF8273823321F440
:103F900080EC12DF8D3009F075CF089573CF08954E
:103FA000CF92DF92EF92FF920F931F938C016C01DF
:103FB0000894C11CD11C84EEF8016081B9DE760141
:103FC0000894E11CF11C85EEF8016181B1DE8701E6
:103FD0000F5F1F4F82EEF6016181AADE83EEF701CB
:103FE0006181A6DE80EEF8016181A2DE81EE0F5FC5
:103FF0001F4FF80161819CDE1F910F91FF90EF90A0
:10400000DF90CF9008951F93CF93DF9314E68FE155
:10401000D3DE83FD04C0112309F437C002C0115060
:10402000B0F784E060E084DE85E060E181DE86E078
:104030006091980C7DDE2091980C3091990C205065
:10404000304F87E0632F74DE80E090E198DE80E0FF
:1040500063DEC0E0D0E006C0FE01E353F24F808192
:104060005BDE21968091980C9091990CC817D90726
:1040700098F38FE160E840E816DE8FE160E840EAFF
:1040800012DE8FE168E040E80EDEDF91CF911F91F4
:104090000895A4E0B0E0EFE4F0E20C94923889E3F4
:1040A0008BDE882309F438C08091960C9091970C90
:1040B00070DE79DE082F77DE382F20E010E0202B2D
:1040C000312B3093970C2093960C7E010894E11CC1
:1040D000F11C69DE898387010F5F1F4F64DEF701E2
:1040E000818361DEF80181835EDE0F5F1F4FF8017F
:1040F000818389819A812CEFC22E2FEFD22EC80E98
:10410000D91E42978155914030F40DEC1DE07801A5
:10411000EC0CFD1C08C0B6DE20E030E04DC043DEF4
:10412000F80181938F010E151F05C9F7D092990CE4
:10413000C092980C9091D90D8091DA0DF8E0803002
:104140009F0761F086509840A1F40E945A298091FF
:10415000980C9091990C892B61F00AC081E03BD1B9
:104160008091980C9091990C892B19F00E940E2A3D
:104170004ADF6091960C7091970CCB0101978050AB
:10418000904130F08CE06FEFD3DD8DE06FE00DC03B
:1041900061508CE0CDDD6091960C7091970C615070
:1041A0007040672F770F770B8DE0C2DD8EE160E402
:1041B00040E879DD21E030E0C9012496E8E00C9484
:1041C000AE381F9389E3F8DD882311F18CE1F4DD2B
:1041D000182F8BE160E840EA66DD13FF08C08CE130
:1041E00068E040EA60DD8DE16AE040EA5CDD51DFD5
:1041F00010FF04C08CE161E040EA55DD11FF04C00E
:104200008CE162E040EA4FDD8BE160E840E84BDDA5
:104210001F910895BC0184E1F7CDFC015381560F35
:1042200050939F0C272F33274281420F40939E0CBF
:10423000A181A0939D0CE081E0939C0C842F90E0E1
:104240008217930748F48A2F8F5F80939D0C8823F1
:1042500019F4EF5FE0939C0C852F90E07070861747
:10426000970790F4842F8F5F80939E0C882361F4CE
:1042700080919D0C8F5F80939D0C882329F4809101
:104280009C0C8F5F80939C0C08959C014150504082
:10429000460F571FFB010EC0708160E08181DB017A
:1042A000A80FB11D2A0F3B1F2A173B0710F42F5FE1
:1042B0003F4F3296E417F50778F3E417F50749F412
:1042C000908180E0280F391F2817390710F42F5FDD
:1042D0003F4FC901089580E090E06BED7DE044E13F
:1042E00050E0D3DF009719F42FEF3FEF02C0382FD3
:1042F000292FC90108950F931F930091DE0D10E03F
:10430000045110409091DD0D80E0080F191FC80185
:10431000069667EE7DE048E050E0B7DF6FEE7DE0A7
:10432000A801B3DF009719F42FEF3FEF02C0382F39
:10433000292FC9011F910F9108951092C00D10925D
:10434000BF0D1092C00C1092340F1092330F81E009
:104350008093BA0508959C018091BF0D9091C00D86
:10436000892B39F41092BA053093C00D2093BF0DFC
:10437000089581E08093BA050895BC018091A50C51
:104380009091A60C089649DFE091A50CF091A60C3F
:1043900080919C0C808780919D0C818780919E0CE0
:1043A000828780919F0C83870895AC01FB011616CC
:1043B000170684F460932D0FF0932E0F20919A0C22
:1043C00030919B0C8217930729F0C901BA01AF0104
:1043D0000C944F0108950F931F93CF93DF93C091D7
:1043E000A50CD091A60C843009F4CCC123E03EE0AA
:1043F0003093A40C2093A30C30939B0C20939A0C25
:10440000833059F4898D8F70833009F055C68889BF
:104410009989892B09F050C681C0823009F082C089
:104420008091B7058F5F8093B705882399F48091B9
:10443000B6058F5F8093B605882361F48091B5053A
:104440008F5F8093B505882329F48091B4058F5F31
:104450008093B4051092990C1092980C10922E0F24
:1044600010922D0F298D273011F0253041F48A8DBF
:104470008F5F8A8F883709F01FC6198E1DC62223C9
:1044800009F41AC688899989892B09F443C08A8D51
:1044900081508A8F8F5F09F00FC63B8D383029F02D
:1044A0002150223040F4353031F4198E80E8809369
:1044B000A00C77D8BCC4353010F080E307C083E08F
:1044C00090E002C0880F991F3A95E2F78A8F8B8D92
:1044D0008F5F8B8F898D90E08F7090708430910505
:1044E00009F439C48530910544F48130910509F40B
:1044F00018C3039709F0E0C508C08630910509F498
:104500002AC4089709F0D8C526C484E08093A00C7B
:1045100048D8C2C42F70233009F0CEC588E08093FC
:10452000A00C79C4853019F5E091A10CF091A20C92
:1045300084819581892B09F4BFC51092A60C109235
:10454000A50CC9010C979093A40C8093A30C909395
:104550009B0C80939A0C10922E0F10922D0F10929C
:10456000990C1092980C88E08093A00C09C18901E5
:10457000085210408091DB0D853409F09DC5909163
:10458000DD0D80E02091DE0DAC01420F511D8091C8
:10459000980C9091990C8417950708F48DC5509349
:1045A000990C4093980C8091E10D90E08F7390707E
:1045B000892B09F081C58091E20D882309F07CC523
:1045C0002091C90D3091CA0D80910401909105018F
:1045D0002817390731F48091CB0D9091CC0D892BA0
:1045E000A1F08091EB0D9091EC0D8217930709F0EB
:1045F00063C52091ED0D3091EE0D8091CB0D909122
:10460000CC0D2817390709F057C565DE8F5F9F4F1E
:1046100009F052C58091E40D863009F408C181315A
:10462000D1F1813009F048C58091EF0D883009F053
:1046300043C51092EF0D8091F10D9091F20DEFEFC7
:10464000873F9E0710F0099601C008969093F20DDF
:104650008093F10D8091E70D9091E80D9093EC0D12
:104660008093EB0D8091E90D9091EA0D9093EE0D02
:104670008093ED0D8091C90D9091CA0D9093E80D36
:104680008093E70D8091CB0D9091CC0D9093EA0D26
:104690008093E90D15C58091980C9091990C4C97D9
:1046A0009093990C8093980C8FE29FE09093A20CCA
:1046B0008093A10C46C02481358121153105E1F19B
:1046C0008091F10D9091F20D82179307A9F5268143
:1046D00037812115310539F08091EF0D9091F00D62
:1046E0008217930749F520813181809104019091CF
:1046F00005012817390721F482819381892B59F10B
:1047000080910801909109012817390729F48281C5
:1047100093818F5F9F4FF9F08091E70D9091E80DA5
:104720008217930749F42091E90D3091EA0D8281B7
:1047300093812817390779F0BF96F093A20CE09384
:10474000A10CE091A10CF091A20C5FE0EE35F50711
:1047500008F4B1CFB1C41092A60C1092A50C82E05F
:104760008093A00C87EF9DE09093A40C8093A30C02
:1047700090939B0C80939A0C10922E0F10922D0FF9
:104780000E94B61A20912D0F30912E0F2115310560
:1047900009F492C4C9014C969093990C8093980C9B
:1047A0009093DD0D8093DE0DE091A10CF091A20CB1
:1047B00080858093E30D81E18093E40DC901089623
:1047C0009093F30D8093F40D1092F60D1092F50D69
:1047D000848195819093F00D8093EF0D8681978170
:1047E0009093F20D8093F10D8091C90D9091CA0DB7
:1047F0009093E80D8093E70D8091CB0D9091CC0DB7
:104800009093EA0D8093E90D808191819093EC0D56
:104810008093EB0D828193819093EE0D8093ED0D4B
:1048200083E09EE09093A40C8093A30C23C463DDEB
:104830008F5F9F4F09F040C4C7EADCE0898D882371
:1048400029F12091F10D3091F20D8C819D81281775
:104850003907E1F42091EF0D3091F00D8E819F81A9
:104860002817390799F42091E70D3091E80D8881D8
:1048700099812817390751F42091E90D3091EA0DFB
:104880008A819B812817390709F462C1C85EDE4F0F
:10489000FCE0C73ADF0791F288F28091FC0D8F733C
:1048A0008230F1F48091F10D9091F20D9093BD055D
:1048B0008093BC051092BA0541E00EC02091BC0562
:1048C0003091BD058091BF0D9091C00D281739071B
:1048D00009F470C04093BA058091BA05882371F33A
:1048E0008091FC0D82FDE8C384E1F80181A388E298
:1048F00090E09093990C8093980C80E580A3909120
:10490000F60D8091FA0D838F3091F50D8091F90DA0
:10491000828F368F4091F40D8091F80D818F458FF5
:104920002091F30D2093BA058091F70D808F248F8D
:104930009F5F978F992361F4832F8F5F868F8823E2
:1049400039F4842F8F5F858F882311F42F5F248F94
:104950002091EF0D3091F00D3093BD052093BC05F3
:104960008091F10D9091F20DF801958B848B378B2E
:10497000268B8091E70D9091E80D9093EC0D80933C
:10498000EB0D8091E90D9091EA0D9093EE0D8093DF
:10499000ED0D8091C90D9091CA0D9093E80D809313
:1049A000E70D8091CB0D9091CC0D9093EA0D809303
:1049B000E90D46C31092BA05C0E0D0E021E014C072
:1049C0008091C00C882319F4C7EADCE014C087305A
:1049D00049F4209729F09091C10C8A8D891710F421
:1049E000C7EADCE02093BA058091BA05882341F339
:1049F000209709F461C3D093A60CC093A50C83E063
:104A00008A8F888F1E8A84E08F8B1B8E8091F10D98
:104A10009091F20D9D838C838091EF0D9091F00D1C
:104A20009F838E838091E70D9091E80D9983888311
:104A30008091E90D9091EA0D9B838A8381E0898FB3
:104A40008091B4058C878091B5058D878091B605DE
:104A50008E878091B7058F8781E090E0998B888B56
:104A60008091F60D8B878091F50D8A878091F40DEA
:104A700089878091F30D888781E090E07EDC8091CA
:104A8000FB0D90E0807F9070813591050CF449C05A
:104A90001092BA0534C0F901E353F24F86A980930E
:104AA000BB058823F1F1813021F44F5F4093BA05B3
:104AB00026C08230C1F487A98430A9F430AD20E04B
:104AC00081AD90E0822B932B9093BD058093BC0524
:104AD000F1E089329F0710F088E291E09B8B8A8B8E
:104AE0009D8B8C8B1EC09091BA05E92FF0E0E353AB
:104AF000F24F87A98823A9F0890F8093BA054091C6
:104B0000BA05242F30E08091FB0D82958F7090E0E4
:104B10000597880F991F880F991F281739070CF4DC
:104B2000BACF82E18093FC0D82E08093030E84E093
:104B30008093040E81E08093050E88E28093060E38
:104B40008CE290E09093990C8093980C80E625C2BB
:104B5000D093A60CC093A50C1092A00C8091FC0DD4
:104B6000482F50E082FF03C0198E80E2C2C18091BD
:104B7000FB0D82958F70880F880F8093BA05209166
:104B8000980C3091990C24513040281B31093093F6
:104B9000990C2093980C898D8F70823029F44F7373
:104BA00050704231510509F1232B39F48091FC0DED
:104BB00090E083709070892BC1F09091F30D8885FF
:104BC000981709F0E0C19091F40D8985981709F0C4
:104BD000DAC19091F50D8A85981709F0D4C19091AA
:104BE000F60D8B85981709F0CEC18091FC0D84FFDE
:104BF0004CC0688979896115710509F446C0CE01F8
:104C00000C960BDB2091F70D80919C0C2817E9F591
:104C10009091F80D80919D0C9817B9F59091F90D30
:104C200080919E0C981789F59091FA0D80919F0CB8
:104C3000981759F52C8780919D0C8D8780919E0C3B
:104C40008E8780919F0C8F878B8D8823B9F42E8956
:104C5000888D9A8D891B922F969596959695891B8E
:104C6000280F2E8B3F89932F96959695891B830F3E
:104C70008F8B269526952695820F888F81E08093CD
:104C8000A00C888D8A8F198A188A898D282F30E088
:104C9000C9018F7090708530910509F44EC186303E
:104CA00091055CF48330910569F1843091050CF035
:104CB00025C1019709F000C20CC08730910509F4A5
:104CC00062C1873091050CF456C1089709F0F4C110
:104CD0000AC18091A00C80FFEFC183E0898F80E43E
:104CE0008093A00C198A188A2091980C3091990C05
:104CF0002115310509F48BC082E48093A00CC90111
:104D00003CDB85C08091FC0D80FF29C024FD27C0BD
:104D100088899989892B09F0CFC18091980C90914D
:104D2000990C01962ADB2091A00C822F8061809340
:104D3000A00C8091980C9091990C892B19F022610C
:104D40002093A00C0E94D11A81E090E0998B888B6F
:104D500088E0898F1B8E81E18093FC0D17C185FF50
:104D600021C06091010E362F20E04091020E50E0EC
:104D7000242B352B8091A30C9091A40C820F931FB0
:104D80009093A40C8093A30C962F80E0842B952BFA
:104D90002091980C3091990C281B390B3093990C69
:104DA0002093980C2091980C3091990C2115310585
:104DB00051F0898D84FD07C08091A00C82608093A2
:104DC000A00CC901DADA9091FD0D80E02091FE0D72
:104DD000820F911D9093BD058093BC052C893D8960
:104DE0002817390710F0892B21F43093BD05209343
:104DF000BC058091BC059091BD059B8B8A8B8091F1
:104E0000A00C90E083709070892B09F455C110922A
:104E10002E0F10922D0F0E94D11A8091A00C282FD6
:104E200085FF07C010922E0F10922D0F198E84E16E
:104E300093CF84FF0AC010922E0F10922D0F81E0A5
:104E400090E0998B888B84E084CF80912D0F909196
:104E50002E0F892B01F120FF02C0198A188A888938
:104E600099890097A1F42A893B8980912D0F90910F
:104E70002E0F2817390720F430932E0F20932D0F73
:104E800080912D0F90912E0F998B888B04C0909359
:104E90002E0F80932D0F1B8E80919A0C90919B0C5E
:104EA0009093A40C8093A30C80912D0F90912E0FC2
:104EB000892B59F088899989009739F088969093C1
:104EC000990C8093980C88E10BC08091A00C81FF15
:104ED000F3C088E290E09093990C8093980C80E165
:104EE0008093FC0D59C08091A00C80FFE5C0198E05
:104EF00080E18093A00C0E94D11ADEC08091980CB2
:104F00009091990C009709F038DA8091FC0D9091FE
:104F1000A00C80FF0BC090FF06C087E0898F1A8E1F
:104F2000198A188A18C086E0898F15C090FF1CC0A6
:104F300085E0898F198A188ABFC08091980C90915A
:104F4000990C009709F019DA8091FC0D80FF0CC0D4
:104F500087E0898F1A8E81E090E00FDA80E18093FC
:104F6000A00C0E94D11A0FC08091980C9091990CBE
:104F7000892B49F4A1C08091A00C80FF9DC087E0DF
:104F8000898F1A8E99C080E1F80181A388E290E0B0
:104F90009093990C8093980C80E58093FB0D888505
:104FA0008093F70D89858093F80D8A858093F90D9C
:104FB0008B858093FA0D8C858093F30D8D8580937E
:104FC000F40D8E858093F50D8F858093F60D86E028
:104FD0008093E40D8C819D819093F00D8093EF0D73
:104FE0008E819F819093F20D8093F10D8091C90D78
:104FF0009091CA0D9093E80D8093E70D8091CB0DB1
:105000009091CC0D9093EA0D8093E90D8881998160
:105010009093EC0D8093EB0D8A819B819093EE0D24
:105020008093ED0D898D84FF05C01092FE0D1092C6
:10503000FD0D06C081E08093FD0D88E28093FE0D9A
:1050400080E48093E30D8091990C8093DD0D809135
:10505000980C8093DE0D1092020E1092010E1092A9
:10506000000E1092FF0D47D9809590959093000EF9
:105070008093FF0D85E48093DB0D1092DC0D109280
:10508000E20D1092E10D8091B2059091B305019669
:105090009093B3058093B2059093DF0D8093E00D5C
:1050A0001092E60D1092E50D16D98095909590938B
:1050B000E60D8093E50D04C01092990C1092980CA7
:1050C0001092A00CDF91CF911F910F910895FC01D8
:1050D0004091330F5091340F8091B8059091B905EC
:1050E0000196ADE780309A0710F080E090E1382F0C
:1050F000292F42175307A1F38093B8059093B90560
:10510000452B69F41092BA059093330F8093340FB6
:105110007093360F6093350F309781F406C081E0AD
:105120008093BA0520E030E01AC010922F0F109241
:10513000300F1092310F1092320F0CC0808191818C
:105140009093300F80932F0F828193819093320F31
:105150008093310F80E48093370F2FE23FE0C90145
:105160000895A0E0B0E0E7EBF8E20C949338DC019E
:10517000062FD72E10921A06E0E0F0E060E01BE068
:105180002BC0619FF0011124E254FA4F40815181FC
:105190004115510501F12281338121153105D9F0E5
:1051A0008D919C91119784179507A9F412968D9172
:1051B0009C9113978217930771F460931A06EF017D
:1051C0002496802F9D2D9C01D90186E00D90099297
:1051D0008150E1F767C06F5F683098F210921A064D
:1051E00020E03BE011C0239FF0011124E254FA4F6C
:1051F00080819181892B39F482819381892B19F4E3
:1052000020931A063CC02F5F283068F320931A06BB
:105210002830A9F510921D0610921B0610911C064D
:10522000C12FD0E060E070E040E08BE0E82EF12C90
:1052300018C0842F90E08E9DF0018F9DF00D9E9DF3
:10524000F00D1124E254FA4F52859E01251B3109BD
:10525000872F90E0821793071CF4712F751B642F22
:105260004F5F483030F360931B0670931D066093C8
:105270001A068BE0689FF0011124E254FA4F8D91D9
:105280009D910D90BC91A02DEF0189939993A993C5
:10529000B993202F3D2DC901DC0186E00D900992C4
:1052A0008150E1F780911C068287CDB7DEB7E7E039
:1052B0000C94AF38CF93DF938091980C9091990C18
:1052C0008A9728F41092990C1092980CA4C010920E
:1052D000990C1092980CCDECDDE08091E10D90914D
:1052E000E20D21E08030920729F08050924009F0D1
:1052F00092C075C02091F30D3091F40D8091C90DCD
:105300009091CA0D2817390709F085C02091F50D35
:105310003091F60D8091CB0D9091CC0D2817390767
:1053200009F079C0CE014C96BE016A5E7F4F19DF4D
:1053300080E092E09093E20D8093E10DDE01909683
:10534000FE01769686E001900D928150E1F7A3EE82
:10535000BDE0ECEAF5E086E001900D928150E1F7C6
:10536000A3EDBDE0ECEAF5E086E001900D928150FE
:10537000E1F7EDECFDE0DF01909686E00D90019203
:105380008150E1F78091E90D9091EA0D9093F40D31
:105390008093F30D8091EB0D9091EC0D9093F60DB1
:1053A0008093F50D8091C90D9091CA0D9093EA0DEF
:1053B0008093E90D8091CB0D9091CC0D9093EC0DE5
:1053C0008093EB0D88E096E09093DA0D8093D90DF1
:1053D0008AE290E09093990C8093980C1CC02091E5
:1053E000F30D3091F40D8091C90D9091CA0D2817DD
:1053F000390789F42091F50D3091F60D8091CB0D90
:105400009091CC0D2817390731F4CE014C96BE018E
:105410006A5E7F4FA6DEDF91CF9108954091EB0D3C
:105420005091EC0D80910C0190910D014817590796
:1054300089F48091ED0D9091EE0D8F5F9F4F51F4A7
:10544000ADECBDE0E0E1F1E086E001900D9281502D
:10545000E1F7CFC08091C90D9091CA0D842795279F
:105460002091C50D3091C60D82239323892B91F491
:105470006091ED0D7091EE0D8091CB0D9091CC0D62
:10548000862797272091C70D3091C80D822393233B
:10549000892B89F08091C10D9091C20D90931706D0
:1054A000809316068091C30D9091C40D90931906B8
:1054B0008093180608C05093170640931606709301
:1054C00019066093180610921A06609116067091DC
:1054D00017064091180650911906E0E0F0E020E030
:1054E0003BE013C0239FF0011124E254FA4F808166
:1054F00091816817790741F4828193814817590790
:1055000019F420931A066DC02F5F283058F32093AA
:105510001A06283009F065C08DEC9DE06FEF70E051
:1055200046E050E00E945801EDEEFDE086E0DF012C
:105530001D928A95E9F77A97ACEAB5E086E00D907E
:1055400001928150E1F7A3EEBDE0ECEAF5E086E0E0
:1055500001900D928150E1F7809116069091170607
:105560009093F40D8093F30D809118069091190695
:105570009093F60D8093F50D8091C90D9091CA0D11
:105580009093EA0D8093E90D8091CB0D9091CC0D15
:105590009093EC0D8093EB0D80E091E09093E20D01
:1055A0008093E10D9093DC0D8093DB0D88E090E01B
:1055B0009093DE0D8093DD0D86E08093DF0D84E017
:1055C0008093E00D88E096E09093DA0D8093D90DFA
:1055D00083E09EE09093A40C8093A30C8AE290E079
:1055E0001CC0ADECBDE0349686E001900D92815078
:1055F000E1F7A3EDBDE0ECEAF5E086E001900D9265
:105600008150E1F788E090E09093DA0D8093D90D16
:105610008091980C9091990C0E969093990C809390
:10562000980C089580911C068F5F80931C06109241
:105630001A064BE01FC0249FF0011124E254FA4FD8
:105640008281938120813181822B932B892B69F078
:1056500080911C0690E02285821B91098837910574
:1056600024F0108211821282138280911A068F5FB9
:1056700080931A0620911A062830E8F20895FC015A
:105680008081918122813381820F931F9183808356
:1056900008950F931F938C010E94A70340E050E0F0
:1056A000F80120813181821B930B22813381821783
:1056B000930710F041E050E0CA011F910F91089547
:1056C0000F931F938C01FC01738362830E94A703D5
:1056D000F801918380831F910F910895A4E0B0E0B9
:1056E000E4E7FBE20C94983826E2EEE1F6E0DF0115
:1056F0001D922A95E9F790932A068093290688E05F
:1057000080932B06109220068FEF9FEF9A83898358
:105710009C838B831092CA0D1092C90D1092CC0DF0
:105720001092CB0DCE01019660E073E4D0DCFC0159
:105730009093220680932106009721F080E094E464
:105740009583848310921F0610921E062496E2E031
:105750000C94B438CF93DF93EC0181E08883898384
:1057600086E08A831B8280911E0190911F01A09187
:105770002001B09121018C839D83AE83BF83198664
:10578000188680E890E09B878A878091C90D909168
:10579000CA0DA091CB0DB091CC0D8C879D87AE87A3
:1057A000BF87188A198A1A8A1B8A1C8A1D8A1E8A30
:1057B0001F8A188E198E1A8E1B8EDE015C96209120
:1057C000290630912A06C901FC0186E001900D925C
:1057D0008150E1F7CE018296FC018AE0DF011D9243
:1057E0008A95E9F79E01245D3F4F80E4F90111920B
:1057F0008A95E9F7CE0184599F4FFC0180E8DF01CB
:105800001D928A95E9F7C90166E171E00E945F0186
:10581000C451DF4F8091220190912301A091240176
:10582000B091250188839983AA83BB83DF91CF91AF
:105830000895CF93DF93C091A30CD091A40C8881DD
:10584000823009F092C0CE0104966EE171E044E02E
:1058500050E00E944201009709F087C0609129063C
:1058600070912A06CE014C9646E050E00E9442011B
:10587000009709F07AC088899989AA89BB898093A1
:10588000340690933506A0933606B0933706FE0192
:10589000E051FF4F2091980C3091990C2E0F3F1F33
:1058A00040E05EC08081833309F449C0843340F412
:1058B0008330E1F0863039F1813009F04CC009C005
:1058C000863381F18F3F09F451C0853309F043C01D
:1058D00027C082819381A481B581809338069093FB
:1058E0003906A0933A06B0933B0635C08281938176
:1058F000A481B5818093400690934106A09342060F
:10590000B093430628C082819381A481B58180939E
:105910003C0690933D06A0933E06B0933F061BC005
:10592000428119C082819381A481B58180932C0624
:1059300090932D06A0932E06B0932F060CC0828163
:105940009381A481B5818093300690933106A09312
:105950003206B0933306818190E00296E80FF91F7A
:10596000E217F30708F49ECF01C040E0842FDF91D7
:10597000CF9108950F931F93CF93DF9380911E06CD
:1059800090911F0621E08830920709F455C0A1E0EC
:1059900084329A0709F4E0C0892B09F00EC181E036
:1059A000809320068DE790E0909328068093270649
:1059B0000091A30C1091A40CC801CCDE00511F4F24
:1059C000F80185E3819391E0E8019983DF01119665
:1059D0009183FD01319687E311968C93DF01119637
:1059E00083E08183FD01319611969C93DF0111962E
:1059F0008183FD01319686E011968C938FEF818330
:105A00008091A30C9091A40C3296E81BF90BBF0176
:105A10000E94D521609127067091280683E296E0C6
:105A20004FDE8091A00C8D7F8093A00C88E091E0E8
:105A300090931F0680931E068091A00C81FD06C0E6
:105A400083E296E026DE892B09F4BDC08091A00C8C
:105A500081FF06C0EEDE823019F48093200620C05C
:105A60008091270690912806E7E083359E0738F459
:105A7000880F991F90932806809327060CC0809169
:105A80002B06815080932B06882329F480E090E038
:105A90000E94A71B96C080912006823009F088CF13
:105AA0008DE790E090932806809327060091A30C41
:105AB0001091A40CC8014EDE00511F4FD80185E3A0
:105AC0008D9381E0E8018983FD01319683E0119691
:105AD0008C939F012F5F3F4F86E3818344E0D90180
